:020000040000FA
:02000000D928FD
:080008000800A9004030A0002F
:100010004230A1000F30A400A501A420AA012108AC
:10002000031919282A145520FC3E031C1928AA1468
:1000300055202003AB00280F2128FF30A400A50085
:100040002C282808A500A401A600A7012B0A031943
:100050002C28A200A301BE20A90B45281708CF39E0
:10006000A41B2038241B10380C3897002508950055
:100070008316071183122B0883169200831212082D
:10008000FC392A0404389200D428A90B54281D08EE
:10009000CF39A41B2038241B10380C389D002508AC
:1000A0009B00831687103A28D428A10CA00CA10C21
:1000B000A00C0800A301A200FF30A207031CA307A5
:1000C000031CD4280330A100DF3068205C28A10184
:1000D000E83EA000A109FC30031C7128A00703180A
:1000E0006E28A0076400A10F6E2820187728A01C96
:1000F0007B2800007B280800A20003308728A1018C
:10010000A301A20001308728A20004308728A8009C
:1001100023082102031D8E28220820020430031820
:100120000130031902302805031DFF30D4280038A0
:10013000031DFF300405031DFF30D4280404031DF4
:10014000FF30D428A501A4011030A600210DA40D74
:10015000A50D2208A4022308031C230FA5020318DF
:10016000B8282208A40723080318230FA5070310A3
:10017000A00DA10DA60BA6282008D4281030A80099
:10018000A101A001A70CA60C031CCC282208A007E3
:1001900023080318230FA107A10CA00CA50CA40C85
:1001A000A80BC2282408D4288313031383126400E5
:1001B0000800C0309F00831677308F000330850021
:1001C0000130860010308700950181018312C03014
:1001D0008B008316960101308C008D0183128C01F7
:1001E0008D018316031701308800890183120313E0
:1001F00081309F00831680309F00831203172130C7
:10020000870088018901831603139701031785016D
:100210008312031390010F3097009D0183169C01F8
:1002200001309D008312053094008B178A110A1249
:100230001E298B1B08008A150A163D2B8A011921DD
:1002400085108A01192105118A01192187128A0155
:10025000192186128A01192106128A011921E90140
:100260008A011921E5018A011921FE30E000FF30E1
:10027000E1008A011921DA01DB018A011921EA0171
:100280008A011921D601D7018A0119210A30D80023
:10029000D9018A011921E6018A011921E9018A019E
:1002A0001921E8018A0119211330E4008A0119217A
:1002B000FA30E200FF30E3008A011921CC018A0103
:1002C0001921B801B9018A01192110108A011921D7
:1002D0008F018A0119218E018A01192110148A01C6
:1002E000192164008A110A120618B4298A011921F9
:1002F000E6018A01192114308A015A208A01192144
:1003000064008A110A120618A0298A011921E60A36
:100310008A01192164006608323C8A110A12031D01
:100320009A290430850683160511831205190616CD
:10033000051D06128A0119218A0179298A011921CC
:100340008A0119216400323066028A110A120318E8
:10035000B229023085068316851083128518861609
:10036000851C86128A0119218A01192164008A11CB
:100370000A12071A172A8A011921E6018A0119218E
:1003800014308A015A208A01192164008A110A1244
:10039000071AE4298A011921E60A8A011921640051
:1003A0006608323C8A110A12031DDE298A011921CE
:1003B00010108A01192187168A0119218A01192131
:1003C0008A01BE298A0119218A011921640032306B
:1003D00066028A110A120318F4298A0119218A1166
:1003E0000A12E5228A0119218A011921640032309A
:1003F00066028A110A12031C152A8A01192101308A
:10040000E9068316691083128A01192187128A016D
:1004100019218F018A0119218E018A011921E80110
:100420008A01192110148A0119218A0119218A01CE
:10043000192164008A110A12E91C512A8A01192122
:10044000640062080E028A110A12031C1E2A8A0125
:100450001921640063080F028A110A12031C272A5B
:100460008A01192110108A011921E8018A01192134
:100470008F018A0119218E018A01192110148A0124
:10048000192187168A0119210130A100F4308A014F
:1004900068208A01192187128A011921E9108A012D
:1004A00019218A0119219E018A01192183169E01B1
:1004B00083128A0119219F148A01192101308A01AE
:1004C0005A208A01192164008A110A120C1F612A1C
:1004D0008A0119210C138A011921FF30A600A701F6
:1004E0001E08A200A3018A01BE20DC002508DD0051
:1004F00083161E0883125C07D6005D080318013EB0
:10050000D7008A01192102305802DC000030031C98
:10051000013E5902DD005608A0005708A1005D0801
:10052000A3005C088A018420DC0002305807DE004A
:1005300059080318013EDF005608A0005708A10023
:100540005F08A3005E088A018120DE005C08840049
:100550005E088A019E20DE00DF0064005E085F0402
:100560008A110A120319E12A8A0119215608D800B2
:100570005708D9008A01192164008A110A126918E2
:10058000D52A5608A0005708A1000430A200A301F4
:100590008A01A220DC002108DD005C08A800FF30F1
:1005A000A200A30101308A0105208A0119216400FB
:1005B0008A110A12691CDF2A8A110A127F248A0111
:1005C00019218A0119218A016F298A011921101024
:1005D0008A0119218A01192164006508003C8A11E9
:1005E0000A12031D272B8A0119218F018A01192163
:1005F0008E018A011921E8018A01192110148A014A
:100600001921E6018A011921E60164000B30660216
:100610008A110A120318222B8A0119210310660D70
:10062000383E84008001840A80018A01192166080D
:100630004C3E840080018A011921E60A8A110A12BF
:10064000031D052B8A0119218A110A12662B6400E9
:10065000013065028A110A12031C662B8A011921D6
:10066000FF306507DC00FF300318013EDD005C0849
:10067000383E84000E0880008A011921FF3065078A
:10068000DC00FF300318013EDD005C08393E8400C9
:100690000F0880008A011921FF306507DC00FF3058
:1006A0000318013EDD005C084C3E840068088000B1
:1006B0008A0119218F018A0119218E018A011921CC
:1006C000E8018A01192110148A0119218A011921CE
:1006D0006400013065028A110A12031C2F2C8A0162
:1006E0001921E001E1018A011921DA01DB018A0106
:1006F0001921E201E3018A011921E4018A0119218A
:100700000130E6008A0119210130E6006400660824
:1007100065028A110A12031CC82B8A011921FF30B5
:100720006607DC00FF300318013EDD005C08383E40
:1007300084000008DC005C08E0070318E10A8A0175
:100740001921FF306607DC00FF300318013EDD0091
:100750005C08393E84000008DC005C08DA070318F6
:10076000DB0A8A011921FF306607DC00FF3003181D
:10077000013EDD005C084C3E84000008DC005C08A3
:10078000E4078A011921E60A8A110A12031D862B41
:100790008A0119216008A0006108A1006508A20073
:1007A000A3018A01A220E2008A0119215A08A000AF
:1007B0005B08A1006508A200A3018A01A220E30052
:1007C0008A0119216408A000A1016508A200A30103
:1007D0008A01A220E4008A01192164001430640215
:1007E0008A110A12031C002C8A0119211330E4001B
:1007F0008A011921FA30E200FF30E3008A01192151
:100800008A011921CC30A6000C30A7006408A20090
:10081000A3018A01BE20E0002508E1008A01192118
:100820006208A0006308A1001430A200A3018A019D
:10083000A220DC002108DD005C08E0075D08031849
:10084000013EE1078A0119216008DA006108DB0036
:100850008A0119218A110A1230258A0119218A0177
:100860001921E50A8A01192108008A0119210301C9
:100870006918FF30DC006508003C031DFF30FF3ABB
:10088000DE005C0884005E088A019720DE00DF003D
:1008900064005E085F048A110A1203192A2D8A0176
:1008A00019219E018A01192183169E0183128A0152
:1008B00019219F148A01192101308A015A208A01C5
:1008C000192164008A110A120C1F5F2C8A01192158
:1008D0000C138A011921FF30A600A7011E08A200EF
:1008E000A3018A01BE20DC002508DD0083161E0856
:1008F00083125C07D6005D080318013ED7008A0109
:1009000019218A0119215608A0005708A100A30146
:10091000D1308A017C208A110A12031DA22C8A017F
:1009200019216008A0006108A1000330A200A30102
:100930008A01A220DA002108DB008A0119218A112C
:100940000A12282D5608A0005708A1000230A30063
:1009500084308A017C208A110A12031DBB2C8A0173
:1009600019210310610CDB00600CDA008A011921E7
:100970008A110A12282D5608A0005708A10003303A
:10098000A30099308A017C208A110A12031DE72CEA
:100990008A0119216008A0006108A1000330A200AB
:1009A000A3018A01A220DC002108DD005C08A6006A
:1009B0005D08A7000230A200A3018A01BE20DA0070
:1009C0002508DB008A0119218A110A12282D5608F0
:1009D000A0005708A1000330A300E8308A017C2062
:1009E0008A110A12031D132D8A0119216008A00023
:1009F0006108A1000430A200A3018A01A220DC004A
:100A00002108DD005C08A6005D08A7000330A200F5
:100A1000A3018A01BE20DA002508DB008A01192122
:100A20008A110A12282D5608A0005708A100033089
:100A3000A300E8308A0184208A110A12031D282DA0
:100A40008A0119216008DA006108DB008A01192196
:100A50008A0119218A011921E50A8A011921080050
:100A60008A0119218A0119215A08A0005B08A100F6
:100A70001E30A30061308A017C208A110A12031DF6
:100A8000492D8A011921E7018A0119218A150A16BF
:100A9000302B5A08A0005B08A1001E30A300713063
:100AA0008A017C208A110A12031D5F2D8A011921F7
:100AB0000130E7008A0119218A150A16302B5A08DD
:100AC000A0005B08A1001E30A30084308A017C20B6
:100AD0008A110A12031D752D8A0119210230E700BF
:100AE0008A0119218A150A16302B5A08A0005B08C2
:100AF000A1001E30A30099308A017C208A110A12BD
:100B0000031D8B2D8A0119210330E7008A01192169
:100B10008A150A16302B5A08A0005B08A1001E3067
:100B2000A300AE308A017C208A110A12031DA12D78
:100B30008A0119210430E7008A0119218A150A1651
:100B4000302B5A08A0005B08A1001E30A300C33060
:100B50008A017C208A110A12031DB72D8A011921EE
:100B60000530E7008A0119218A150A16302B5A0828
:100B7000A0005B08A1001E30A300D6308A017C20B3
:100B80008A110A12031DCD2D8A0119210630E700B2
:100B90008A0119218A150A16302B5A08A0005B0811
:100BA000A1001E30A300EA308A017C208A110A12BB
:100BB000031DE32D8A0119210730E7008A0119215D
:100BC0008A150A16302B5A08A0005B08A1001E30B7
:100BD000A300FF308A017C208A110A12031DF92D1F
:100BE0008A0119210830E7008A0119218A150A169D
:100BF000302B5A08A0005B08A1001F30A30014305E
:100C00008A017C208A110A12031D0F2E8A011921E4
:100C10000930E7008A0119218A150A16302B5A0873
:100C2000A0005B08A1001F30A3002B308A017C20AC
:100C30008A110A12031D252E8A0119210A30E700A4
:100C40008A0119218A150A16302B5A08A0005B0860
:100C5000A1001F30A30041308A017C208A110A12B2
:100C6000031D3B2E8A0119210B30E7008A0119214F
:100C70008A150A16302B5A08A0005B08A1001F3005
:100C8000A30055308A017C208A110A12031D512EBF
:100C90008A0119210C30E7008A0119218A150A16E8
:100CA000302B5A08A0005B08A1001F30A3006B3056
:100CB0008A017C208A110A12031D672E8A011921DC
:100CC0000D30E7008A0119218A150A16302B5A08BF
:100CD000A0005B08A1001F30A30082308A017C20A5
:100CE0008A110A12031D7D2E8A0119210E30E70098
:100CF0008A0119218A150A16302B5A08A0005B08B0
:100D0000A1001F30A30098308A017C208A110A12AA
:100D1000031D932E8A0119210F30E7008A01192142
:100D20008A150A16302B5A08A0005B08A1001F3054
:100D3000A300B0308A017C208A110A12031DA92E5B
:100D40008A0119211030E7008A0119218A150A1633
:100D5000302B5A08A0005B08A1001F30A300C83048
:100D60008A017C208A110A12031DBF2E8A011921D3
:100D70001130E7008A0119218A150A16302B5A080A
:100D8000A0005B08A1001F30A300DB308A017C209B
:100D90008A110A12031DD52E8A0119211230E7008B
:100DA0008A0119218A150A16302B5A08A0005B08FF
:100DB000A1001F30A300F1308A017C208A110A12A1
:100DC000031DEB2E8A0119211330E7008A01192136
:100DD0008A150A16302B5A08A0005B08A1002030A3
:100DE000A3000A308A017C208A110A12031D012FF8
:100DF0008A0119211430E7008A0119218A150A167F
:100E0000302B5A08A0005B08A1002030A30022303C
:100E10008A017C208A110A12031D172F8A011921C9
:100E20001530E7008A0119218A150A16302B5A0855
:100E3000A0005B08A1002030A3003A308A017C208A
:100E40008A110A12031D2D2F8A0119211630E7007D
:100E50008A0119218A150A16302B5A08A0005B084E
:100E6000A1002030A30053308A017C208A110A128D
:100E7000031D432F8A0119211730E7008A01192128
:100E80008A150A16302B5A08A0005B08A1002030F2
:100E9000A30068308A017C208A110A12031D592F91
:100EA0008A0119211830E7008A0119218A150A16CA
:100EB000302B5A08A0005B08A1002030A3007D3031
:100EC0008A017C208A110A12031D6F2F8A011921C1
:100ED0001930E7008A0119218A150A16302B5A08A1
:100EE000A0005B08A1002030A30096308A017C207E
:100EF0008A110A12031D852F8A0119211A30E70071
:100F00008A0119218A150A16302B5A08A0005B089D
:100F1000A1002030A300B1308A017C208A110A127E
:100F2000031D9B2F8A0119211B30E7008A0119211B
:100F30008A150A16302B5A08A0005B08A100203041
:100F4000A300CA308A017C208A110A12031DB12F26
:100F50008A0119211C30E7008A0119218A150A1615
:100F6000302B5A08A0005B08A1002030A300E3301A
:100F70008A017C208A110A12031DC72F8A011921B8
:100F80001D30E7008A0119218A150A16302B5A08EC
:100F9000A0005B08A1002030A300F9308A017C206A
:100FA0008A110A12031DDD2F8A0119211E30E70064
:100FB0008A0119218A150A16302B5A08A0005B08ED
:100FC000A1002130A30010308A017C208A110A126E
:100FD000031DF32F8A0119211F30E7008A0119210F
:100FE0008A150A16302B5A08A0005B08A100213090
:100FF000A3002B308A017C208A150A12031D0928C0
:101000008A0119212030E7008A0119218A150A1660
:10101000302B5A08A0005B08A1002130A300473004
:101020008A017C208A150A12031D1F288A011921B2
:101030002130E7008A0119218A150A16302B5A0837
:10104000A0005B08A1002130A30062308A017C204F
:101050008A150A12031D35288A0119212230E7005A
:101060008A0119218A150A16302B5A08A0005B083C
:10107000A1002130A30079308A017C208A150A1250
:10108000031D4B288A0119212330E7008A01192109
:101090008A150A16302B5A08A0005B08A1002130DF
:1010A000A30090308A017C208A150A12031D612852
:1010B0008A0119212430E7008A0119218A150A16AC
:1010C000302B5A08A0005B08A1002130A300AC30EF
:1010D0008A017C208A150A12031D77288A011921AA
:1010E0002530E7008A0119218A150A16302B5A0883
:1010F000A0005B08A1002130A300C8308A017C2039
:101100008A150A12031D8D288A0119212630E7004D
:101110008A0119218A150A16302B5A08A0005B088B
:10112000A1002130A300E3308A017C208A150A1235
:10113000031DA3288A0119212730E7008A011921FC
:101140008A150A16302B5A08A0005B08A10021302E
:10115000A300FF308A017C208A150A12031DB928DA
:101160008A0119212830E7008A0119218A150A16F7
:10117000302B5A08A0005B08A1002230A3001A30CF
:101180008A017C208A150A12031DCF288A011921A1
:101190002930E7008A0119218A150A16302B5A08CE
:1011A000A0005B08A1002230A30035308A017C201A
:1011B0008A150A12031DE5288A0119212A30E70041
:1011C0008A0119218A150A16302B5A08A0005B08DB
:1011D000A1002230A30051308A017C208A150A1216
:1011E000031DFB288A0119212B30E7008A011921F0
:1011F0008A150A16302B5A08A0005B08A10022307D
:10120000A3006E308A017C208A150A12031D112961
:101210008A0119212C30E7008A0119218A150A1642
:10122000302B5A08A0005B08A1002230A3008A30AE
:101230008A017C208A150A12031D27298A01192197
:101240002D30E7008A0119218A150A16302B5A0819
:10125000A0005B08A1002230A300A6308A017C20F8
:101260008A150A12031D3D298A0119212E30E70033
:101270008A0119218A150A16302B5A08A0005B082A
:10128000A1002230A300C1308A017C208A150A12F5
:10129000031D53298A0119212F30E7008A011921E2
:1012A0008A150A16302B5A08A0005B08A1002230CC
:1012B000A300DE308A017C208A150A12031D6929E9
:1012C0008A0119213030E7008A0119218A150A168E
:1012D000302B5A08A0005B08A1002230A300FF3089
:1012E0008A017C208A150A12031D7F298A0119218F
:1012F0003130E7008A0119218A150A16302B5A0865
:10130000A0005B08A1002330A3001E308A017C20CE
:101310008A150A12031D95298A0119213230E70026
:101320008A0119218A150A16302B5A08A0005B0879
:10133000A1002330A3003C308A017C208A150A12C8
:10134000031DAB298A0119213330E7008A011921D5
:101350008A150A16302B5A08A0005B08A10023301A
:10136000A3005C308A017C208A150A12031DC12962
:101370008A0119213430E7008A0119218A150A16D9
:10138000302B5A08A0005B08A1002330A30079305D
:101390008A017C208A150A12031DD7298A01192186
:1013A0003530E7008A0119218A150A16302B5A08B0
:1013B000A0005B08A1002330A30094308A017C20A8
:1013C0008A150A12031DED298A0119213630E7001A
:1013D0008A0119218A150A16302B5A08A0005B08C9
:1013E000A1002330A300B5308A017C208A150A129F
:1013F000031D032A8A0119213730E7008A011921C8
:101400008A150A16302B5A08A0005B08A100233069
:10141000A300D6308A017C208A150A12031D192ADE
:101420008A0119213830E7008A0119218A150A1624
:10143000302B5A08A0005B08A1002330A300F7302E
:101440008A017C208A150A12031D2F2A8A0119217C
:101450003930E7008A0119218A150A16302B5A08FB
:10146000A0005B08A1002430A30018308A017C2072
:101470008A150A12031D452A8A0119213A30E7000C
:101480008A0119218A150A16302B5A08A0005B0818
:10149000A1002430A30037308A017C208A150A126B
:1014A000031D5B2A8A0119213B30E7008A011921BB
:1014B0008A150A16302B5A08A0005B08A1002430B8
:1014C000A30055308A017C208A150A12031D712A57
:1014D0008A0119213C30E7008A0119218A150A1670
:1014E000302B5A08A0005B08A1002430A3007830FC
:1014F0008A017C208A150A12031D872A8A01192174
:101500003D30E7008A0119218A150A16302B5A0846
:10151000A0005B08A1002430A3009C308A017C203D
:101520008A150A12031D9D2A8A0119213E30E700FF
:101530008A0119218A150A16302B5A08A0005B0867
:10154000A1002430A300BF308A017C208A150A1232
:10155000031DB32A8A0119213F30E7008A011921AE
:101560008A150A16302B5A08A0005B08A100243007
:10157000A300E2308A017C208A150A12031DC92AC1
:101580008A0119214030E7008A0119218A150A16BB
:10159000302B5A08A0005B08A1002530A3000130C1
:1015A0008A017C208A150A12031DDF2A8A0119216B
:1015B0004130E7008A0119218A150A16302B5A0892
:1015C000A0005B08A1002530A30020308A017C2008
:1015D0008A150A12031DF52A8A0119214230E700F3
:1015E0008A0119218A150A16302B5A08A0005B08B7
:1015F000A1002530A30044308A017C208A150A12FC
:10160000031D0B2B8A0119214330E7008A011921A0
:101610008A150A16302B5A08A0005B08A100253055
:10162000A30069308A017C208A150A12031D212B30
:101630008A0119214430E7008A0119218A150A1606
:10164000302B5A08A0005B08A1002530A3008E3083
:101650008A017C208A150A12031D372B8A01192161
:101660004530E7008A0119218A150A16302B5A08DD
:10167000A0005B08A1002530A300B0308A017C20C7
:101680008A150A12031D4D2B8A0119214630E700E5
:101690008A0119218A150A16302B5A08A0005B0806
:1016A000A1002530A300D0308A017C208A150A12BF
:1016B000031D632B8A0119214730E7008A01192194
:1016C0008A150A16302B5A08A0005B08A1002530A5
:1016D000A300F8308A017C208A150A12031D792B99
:1016E0008A0119214830E7008A0119218A150A1652
:1016F000302B5A08A0005B08A1002630A30021303F
:101700008A017C208A150A12031D8F2B8A01192158
:101710004930E7008A0119218A150A16302B5A0828
:10172000A0005B08A1002630A30047308A017C207E
:101730008A150A12031DA52B8A0119214A30E700D8
:101740008A0119218A150A16302B5A08A0005B0855
:10175000A1002630A3006E308A017C208A150A126F
:10176000031DBB2B8A0119214B30E7008A01192187
:101770008A150A16302B5A08A0005B08A1002630F3
:10178000A30090308A017C208A150A12031DD12BF8
:101790008A0119214C30E7008A0119218A150A169D
:1017A000302B5A08A0005B08A1002630A300B430FB
:1017B0008A017C208A150A12031DE72B8A01192150
:1017C0004D30E7008A0119218A150A16302B5A0874
:1017D000A0005B08A1002630A300DC308A017C2039
:1017E0008A150A12031DFD2B8A0119214E30E700CC
:1017F0008A0119218A150A16302B5A08A0005B08A5
:10180000A1002730A30004308A017C208A150A1227
:10181000031D132C8A0119214F30E7008A01192179
:101820008A150A16302B5A08A0005B08A100273041
:10183000A3002F308A017C208A150A12031D292C4F
:101840008A0119215030E7008A0119218A150A16E8
:10185000302B5A08A0005B08A1002730A3005830A5
:101860008A017C208A150A12031D3F2C8A01192146
:101870005130E7008A0119218A150A16302B5A08BF
:10188000A0005B08A1002730A3007B308A017C20E8
:101890008A150A12031D552C8A0119215230E700BE
:1018A0008A0119218A150A16302B5A08A0005B08F4
:1018B000A1002730A300A0308A017C208A150A12DB
:1018C000031D6B2C8A0119215330E7008A0119216D
:1018D0008A150A16302B5A08A0005B08A100273091
:1018E000A300CC308A017C208A150A12031D812CAA
:1018F0008A0119215430E7008A0119218A150A1634
:10190000302B5A08A0005B08A1002730A300F83054
:101910008A017C208A150A12031D972C8A0119213D
:101920005530E7008A0119218A150A16302B5A080A
:10193000A0005B08A1002830A30024308A017C208D
:101940008A150A12031DAD2C8A0119215630E700B1
:101950008A0119218A150A16302B5A08A0005B0843
:10196000A1002830A30050308A017C208A150A1279
:10197000031DC32C8A0119215730E7008A01192160
:101980008A150A16302B5A08A0005B08A1002830DF
:10199000A30078308A017C208A150A12031DD92CF5
:1019A0008A0119215830E7008A0119218A150A167F
:1019B000302B5A08A0005B08A1002830A300A130FA
:1019C0008A017C208A150A12031DEF2C8A01192135
:1019D0005930E7008A0119218A150A16302B5A0856
:1019E000A0005B08A1002830A300CF308A017C2032
:1019F0008A150A12031D052D8A0119215A30E700A4
:101A00008A0119218A150A16302B5A08A0005B0892
:101A1000A1002830A300FF308A017C208A150A1219
:101A2000031D1B2D8A0119215B30E7008A01192152
:101A30008A150A16302B5A08A0005B08A10029302D
:101A4000A3002F308A017C208A150A12031D312D34
:101A50008A0119215C30E7008A0119218A150A16CA
:101A6000302B5A08A0005B08A1002930A3005E308B
:101A70008A017C208A150A12031D472D8A0119212B
:101A80005D30E7008A0119218A150A16302B5A08A1
:101A9000A0005B08A1002930A30087308A017C20C8
:101AA0008A150A12031D5D2D8A0119215E30E70097
:101AB0008A0119218A150A16302B5A08A0005B08E2
:101AC000A1002930A300B2308A017C208A150A12B5
:101AD000031D732D8A0119215F30E7008A01192146
:101AE0008A150A16302B5A08A0005B08A10029307D
:101AF000A300E3308A017C208A150A12031D892D78
:101B00008A0119216030E7008A0119218A150A1615
:101B1000302B5A08A0005B08A1002A30A300143023
:101B20008A017C208A150A12031D9F2D8A01192122
:101B30006130E7008A0119218A150A16302B5A08EC
:101B4000A0005B08A1002A30A30047308A017C2056
:101B50008A150A12031DB52D8A0119216230E7008A
:101B60008A0119218A150A16302B5A08A0005B0831
:101B7000A1002A30A30073308A017C208A150A1242
:101B8000031DCB2D8A0119216330E7008A01192139
:101B90008A150A16302B5A08A0005B08A1002A30CB
:101BA000A300A1308A017C208A150A12031DE12DB1
:101BB0008A0119216430E7008A0119218A150A1661
:101BC000302B5A08A0005B08A1002A30A300D630B1
:101BD0008A017C208A150A12031DF72D8A0119211A
:101BE0006530E7008A0119218A150A16302B5A0838
:101BF000A0005B08A1002B30A3000C308A017C20E0
:101C00008A150A12031D0D2E8A0119216630E7007C
:101C10008A0119218A150A16302B5A08A0005B0880
:101C2000A1002B30A30041308A017C208A150A12C2
:101C3000031D232E8A0119216730E7008A0119212B
:101C40008A150A16302B5A08A0005B08A1002B3019
:101C5000A30076308A017C208A150A12031D392ED2
:101C60008A0119216830E7008A0119218A150A16AC
:101C7000302B5A08A0005B08A1002B30A300A53030
:101C80008A017C208A150A12031D4F2E8A01192110
:101C90006930E7008A0119218A150A16302B5A0883
:101CA000A0005B08A1002B30A300D4308A017C2067
:101CB0008A150A12031D652E8A0119216A30E70070
:101CC0008A0119218A150A16302B5A08A0005B08D0
:101CD000A1002C30A3000A308A017C208A150A1248
:101CE000031D7B2E8A0119216B30E7008A0119211F
:101CF0008A150A16302B5A08A0005B08A1002C3068
:101D0000A30043308A017C208A150A12031D912EFC
:101D10008A0119216C30E7008A0119218A150A16F7
:101D2000302B5A08A0005B08A1002C30A3007E30A5
:101D30008A017C208A150A12031DA72E8A01192107
:101D40006D30E7008A0119218A150A16302B5A08CE
:101D5000A0005B08A1002C30A300B8308A017C20D1
:101D60008A150A12031DBD2E8A0119216E30E70063
:101D70008A0119218A150A16302B5A08A0005B081F
:101D8000A1002C30A300ED308A017C208A150A12B4
:101D9000031DD32E8A0119216F30E7008A01192112
:101DA0008A150A16302B5A08A0005B08A1002D30B6
:101DB000A30022308A017C208A150A12031DE92E15
:101DC0008A0119217030E7008A0119218A150A1643
:101DD000302B5A08A0005B08A1002D30A3005E3014
:101DE0008A017C208A150A12031DFF2E8A011921FF
:101DF0007130E7008A0119218A150A16302B5A081A
:101E0000A0005B08A1002D30A3009C308A017C203B
:101E10008A150A12031D152F8A0119217230E70055
:101E20008A0119218A150A16302B5A08A0005B086E
:101E3000A1002D30A300D8308A017C208A150A1217
:101E4000031D2B2F8A0119217330E7008A01192104
:101E50008A150A16302B5A08A0005B08A1002E3004
:101E6000A30015308A017C208A150A12031D412F18
:101E70008A0119217430E7008A0119218A150A168E
:101E8000302B5A08A0005B08A1002E30A3004C3074
:101E90008A017C208A150A12031D572F8A011921F5
:101EA0007530E7008A0119218A150A16302B5A0865
:101EB000A0005B08A1002E30A30087308A017C209F
:101EC0008A150A12031D6D2F8A0119217630E70049
:101ED0008A0119218A150A16302B5A08A0005B08BE
:101EE000A1002E30A300CA308A017C208A150A1274
:101EF000031D832F8A0119217730E7008A011921F8
:101F00008A150A16302B5A08A0005B08A1002F3052
:101F1000A3000C308A017C208A150A12031D992F18
:101F20008A0119217830E7008A0119218A150A16D9
:101F3000302B5A08A0005B08A1002F30A3004F30BF
:101F40008A017C208A150A12031DAF2F8A011921EC
:101F50007930E7008A0119218A150A16302B5A08B0
:101F6000A0005B08A1002F30A30091308A017C20E3
:101F70008A150A12031DC52F8A0119217A30E7003C
:101F80008A0119218A150A16302B5A08A0005B080D
:101F9000A1002F30A300CF308A017C208A150A12BD
:101FA000031DDB2F8A0119217B30E7008A011921EB
:101FB0008A150A16302B5A08A0005B08A1003030A1
:101FC000A3000F308A017C208A150A12031DF12F0D
:101FD0008A0119217C30E7008A0119218A150A1625
:101FE000302B5A08A0005B08A1003030A300543009
:101FF0008A017C208A110A16031D07288A011921EB
:102000007D30E7008A0119218A150A16302B5A08FB
:10201000A0005B08A1003030A30099308A017C2029
:102020008A110A16031D1D288A0119217E30E70036
:102030008A0119218A150A16302B5A08A0005B085C
:10204000A1003030A300E3308A017C208A110A16F7
:10205000031D33288A0119217F30E7008A011921E5
:102060008A150A16302B5A08A0005B08A1003130EF
:10207000A3002B308A017C208A110A16031D4928EF
:102080008A0119218030E7008A0119218A150A1670
:10209000302B5A08A0005B08A1003130A3006C303F
:1020A0008A017C208A110A16031D5F288A011921E2
:1020B0008130E7008A0119218A150A16302B5A0847
:1020C000A0005B08A1003130A300AF308A017C2062
:1020D0008A110A16031D75288A0119218230E7002A
:1020E0008A0119218A150A16302B5A08A0005B08AC
:1020F000A1003130A300F9308A017C208A110A1630
:10210000031D8B288A0119218330E7008A011921D8
:102110008A150A16302B5A08A0005B08A10032303D
:10212000A30045308A017C208A110A16031DA128CC
:102130008A0119218430E7008A0119218A150A16BB
:10214000302B5A08A0005B08A1003230A300913068
:102150008A017C208A110A16031DB7288A011921D9
:102160008530E7008A0119218A150A16302B5A0892
:10217000A0005B08A1003230A300D2308A017C208D
:102180008A110A16031DCD288A0119218630E7001D
:102190008A0119218A150A16302B5A08A0005B08FB
:1021A000A1003330A30019308A017C208A110A165D
:1021B000031DE3288A0119218730E7008A011921CC
:1021C0008A150A16302B5A08A0005B08A10033308C
:1021D000A3006C308A017C208A110A16031DF9289D
:1021E0008A0119218830E7008A0119218A150A1607
:1021F000302B5A08A0005B08A1003330A300C43084
:102200008A017C208A110A16031D0F298A011921CF
:102210008930E7008A0119218A150A16302B5A08DD
:10222000A0005B08A1003430A3001C308A017C2090
:102230008A110A16031D25298A0119218A30E7000F
:102240008A0119218A150A16302B5A08A0005B084A
:10225000A1003430A3006E308A017C208A110A1656
:10226000031D3B298A0119218B30E7008A011921BE
:102270008A150A16302B5A08A0005B08A1003430DA
:10228000A300B6308A017C208A110A16031D512949
:102290008A0119218C30E7008A0119218A150A1652
:1022A000302B5A08A0005B08A1003530A300053090
:1022B0008A017C208A110A16031D67298A011921C7
:1022C0008D30E7008A0119218A150A16302B5A0829
:1022D000A0005B08A1003530A30062308A017C2099
:1022E0008A110A16031D7D298A0119218E30E70003
:1022F0008A0119218A150A16302B5A08A0005B089A
:10230000A1003530A300BD308A017C208A110A1655
:10231000031D93298A0119218F30E7008A011921B1
:102320008A150A16302B5A08A0005B08A100363027
:10233000A30018308A017C208A110A16031DA929DE
:102340008A0119219030E7008A0119218A150A169D
:10235000302B5A08A0005B08A1003630A30075306E
:102360008A017C208A110A16031DBF298A011921BE
:102370009130E7008A0119218A150A16302B5A0874
:10238000A0005B08A1003630A300CB308A017C207E
:102390008A110A16031DD5298A0119219230E700F6
:1023A0008A0119218A150A16302B5A08A0005B08E9
:1023B000A1003730A30021308A017C208A110A163F
:1023C000031DEB298A0119219330E7008A011921A5
:1023D0008A150A16302B5A08A0005B08A100373076
:1023E000A30080308A017C208A110A16031D012A6D
:1023F0008A0119219430E7008A0119218A150A16E9
:10240000302B5A08A0005B08A1003730A300E2304F
:102410008A017C208A110A16031D172A8A011921B4
:102420009530E7008A0119218A150A16302B5A08BF
:10243000A0005B08A1003830A30048308A017C204E
:102440008A110A16031D2D2A8A0119219630E700E8
:102450008A0119218A150A16302B5A08A0005B0838
:10246000A1003830A300A9308A017C208A110A1605
:10247000031D432A8A0119219730E7008A01192197
:102480008A150A16302B5A08A0005B08A1003930C3
:10249000A30004308A017C208A110A16031D592AE0
:1024A0008A0119219830E7008A0119218A150A1634
:1024B000302B5A08A0005B08A1003930A300673018
:1024C0008A017C208A110A16031D6F2A8A011921AC
:1024D0009930E7008A0119218A150A16302B5A080B
:1024E000A0005B08A1003930A300D3308A017C2012
:1024F0008A110A16031D852A8A0119219A30E700DC
:102500008A0119218A150A16302B5A08A0005B0887
:10251000A1003A30A30040308A017C208A110A16BB
:10252000031D9B2A8A0119219B30E7008A0119218A
:102530008A150A16302B5A08A0005B08A1003A3011
:10254000A300AE308A017C208A110A16031DB12A2D
:102550008A0119219C30E7008A0119218A150A167F
:10256000302B5A08A0005B08A1003B30A3001C30B0
:102570008A017C208A110A16031DC72A8A011921A3
:102580009D30E7008A0119218A150A16302B5A0856
:10259000A0005B08A1003B30A30082308A017C20B0
:1025A0008A110A16031DDD2A8A0119219E30E700CF
:1025B0008A0119218A150A16302B5A08A0005B08D7
:1025C000A1003B30A300ED308A017C208A110A165D
:1025D000031DF32A8A0119219F30E7008A0119217E
:1025E0008A150A16302B5A08A0005B08A1003C305F
:1025F000A30064308A017C208A110A16031D092B6E
:102600008A011921A030E7008A0119218A150A16CA
:10261000302B5A08A0005B08A1003C30A300DE303C
:102620008A017C208A110A16031D1F2B8A01192199
:10263000A130E7008A0119218A150A16302B5A08A1
:10264000A0005B08A1003D30A30056308A017C2029
:102650008A110A16031D352B8A011921A230E700C1
:102660008A0119218A150A16302B5A08A0005B0826
:10267000A1003D30A300C4308A017C208A110A16D3
:10268000031D4B2B8A011921A330E7008A01192170
:102690008A150A16302B5A08A0005B08A1003E30AC
:1026A000A30035308A017C208A110A16031D612B94
:1026B0008A011921A430E7008A0119218A150A1616
:1026C000302B5A08A0005B08A1003E30A300B530B3
:1026D0008A017C208A110A16031D772B8A01192191
:1026E000A530E7008A0119218A150A16302B5A08ED
:1026F000A0005B08A1003F30A30039308A017C2094
:102700008A110A16031D8D2B8A011921A630E700B4
:102710008A0119218A150A16302B5A08A0005B0875
:10272000A1003F30A300EE308A017C208A110A16F6
:10273000031DA32B8A011921A730E7008A01192163
:102740008A150A16302B5A08A0005B08A1004030F9
:10275000A30072308A017C208A110A16031DB92B4E
:102760008A011921A830E7008A0119218A150A1661
:10277000302B5A08A0005B08A1004030A300BD30F8
:102780008A017C208A110A16031DCF2B8A01192188
:10279000A930E7008A0119218A150A16302B5A0838
:1027A000A0005B08A1004130A3003D308A017C20DD
:1027B0008A110A16031DE52B8A011921AA30E700A8
:1027C0008A0119218A150A16302B5A08A0005B08C5
:1027D000A1004130A300CF308A017C208A110A1663
:1027E000031DFB2B8A011921AB30E7008A01192157
:1027F0008A150A16302B5A08A0005B08A100423047
:10280000A30069308A017C208A110A16031D112C4D
:102810008A011921AC30E7008A0119218A150A16AC
:10282000302B5A08A0005B08A1004330A300013000
:102830008A017C208A110A16031D272C8A0119217E
:10284000AD30E7008A0119218A150A16302B5A0883
:10285000A0005B08A1004330A30095308A017C20D2
:102860008A110A16031D3D2C8A011921AE30E7009A
:102870008A0119218A150A16302B5A08A0005B0814
:10288000A1004430A3001F308A017C208A110A165F
:10289000031D532C8A011921AF30E7008A01192149
:1028A0008A150A16302B5A08A0005B08A100443094
:1028B000A300B2308A017C208A110A16031D692CFC
:1028C0008A011921B030E7008A0119218A150A16F8
:1028D000302B5A08A0005B08A1004530A3005230FD
:1028E0008A017C208A110A16031D7F2C8A01192176
:1028F000B130E7008A0119218A150A16302B5A08CF
:10290000A0005B08A1004530A300F7308A017C20BD
:102910008A110A16031D952C8A011921B230E7008D
:102920008A0119218A150A16302B5A08A0005B0863
:10293000A1004630A300A5308A017C208A110A1626
:10294000031DAB2C8A011921B330E7008A0119213C
:102950008A150A16302B5A08A0005B08A1004730E0
:10296000A3004C308A017C208A110A16031DC12C59
:102970008A011921B430E7008A0119218A150A1643
:10298000302B5A08A0005B08A1004730A300E430B8
:102990008A017C208A110A16031DD72C8A0119216D
:1029A000B530E7008A0119218A150A16302B5A081A
:1029B000A0005B08A1004830A30089308A017C2078
:1029C0008A110A16031DED2C8A011921B630E70081
:1029D0008A0119218A150A16302B5A08A0005B08B3
:1029E000A1004930A30042308A017C208A110A16D6
:1029F000031D032D8A011921B730E7008A0119212F
:102A00008A150A16302B5A08A0005B08A10049302D
:102A1000A300FC308A017C208A110A16031D192D9F
:102A20008A011921B830E7008A0119218A150A168E
:102A3000302B5A08A0005B08A1004A30A300BA302E
:102A40008A017C208A110A16031D2F2D8A01192163
:102A5000B930E7008A0119218A150A16302B5A0865
:102A6000A0005B08A1004B30A30072308A017C20DB
:102A70008A110A16031D452D8A011921BA30E70073
:102A80008A0119218A150A16302B5A08A0005B0802
:102A9000A1004C30A3001F308A017C208A110A1645
:102AA000031D5B2D8A011921BB30E7008A01192122
:102AB0008A150A16302B5A08A0005B08A1004C307A
:102AC000A300DF308A017C208A110A16031D712DB4
:102AD0008A011921BC30E7008A0119218A150A16DA
:102AE000302B5A08A0005B08A1004D30A300B23083
:102AF0008A017C208A110A16031D872D8A0119215B
:102B0000BD30E7008A0119218A150A16302B5A08B0
:102B1000A0005B08A1004E30A30084308A017C2015
:102B20008A110A16031D9D2D8A011921BE30E70066
:102B30008A0119218A150A16302B5A08A0005B0851
:102B4000A1004F30A30061308A017C208A110A164F
:102B5000031DB32D8A011921BF30E7008A01192115
:102B60008A150A16302B5A08A0005B08A1005030C5
:102B7000A3003C308A017C208A110A16031DC92D4E
:102B80008A011921C030E7008A0119218A150A1625
:102B9000302B5A08A0005B08A1005130A30004307C
:102BA0008A017C208A110A16031DDF2D8A01192152
:102BB000C130E7008A0119218A150A16302B5A08FC
:102BC000A0005B08A1005130A300DC308A017C200A
:102BD0008A110A16031DF52D8A011921C230E7005A
:102BE0008A0119218A150A16302B5A08A0005B08A1
:102BF000A1005230A300CE308A017C208A110A162F
:102C0000031D0B2E8A011921C330E7008A01192107
:102C10008A150A16302B5A08A0005B08A100533011
:102C2000A300C2308A017C208A110A16031D212EBE
:102C30008A011921C430E7008A0119218A150A1670
:102C4000302B5A08A0005B08A1005430A300AF301D
:102C50008A017C208A110A16031D372E8A01192148
:102C6000C530E7008A0119218A150A16302B5A0847
:102C7000A0005B08A1005530A3008B308A017C20A6
:102C80008A110A16031D4D2E8A011921C630E7004C
:102C90008A0119218A150A16302B5A08A0005B08F0
:102CA000A1005630A30073308A017C208A110A16D5
:102CB000031D632E8A011921C730E7008A011921FB
:102CC0008A150A16302B5A08A0005B08A10057305D
:102CD000A30081308A017C208A110A16031D792EF7
:102CE0008A011921C830E7008A0119218A150A16BC
:102CF000302B5A08A0005B08A1005830A300953083
:102D00008A017C208A110A16031D8F2E8A0119213F
:102D1000C930E7008A0119218A150A16302B5A0892
:102D2000A0005B08A1005930A300B3308A017C20C9
:102D30008A110A16031DA52E8A011921CA30E7003F
:102D40008A0119218A150A16302B5A08A0005B083F
:102D5000A1005A30A300D4308A017C208A110A16BF
:102D6000031DBB2E8A011921CB30E7008A011921EE
:102D70008A150A16302B5A08A0005B08A1005B30A8
:102D8000A300D9308A017C208A110A16031DD12E96
:102D90008A011921CC30E7008A0119218A150A1607
:102DA000302B5A08A0005B08A1005C30A300F8306B
:102DB0008A017C208A110A16031DE72E8A01192137
:102DC000CD30E7008A0119218A150A16302B5A08DE
:102DD000A0005B08A1005E30A30041308A017C2086
:102DE0008A110A16031DFD2E8A011921CE30E70033
:102DF0008A0119218A150A16302B5A08A0005B088F
:102E0000A1005F30A30085308A017C208A110A1658
:102E1000031D132F8A011921CF30E7008A011921E0
:102E20008A150A16302B5A08A0005B08A1006030F2
:102E3000A300CE308A017C208A110A16031D292F97
:102E40008A011921D030E7008A0119218A150A1652
:102E5000302B5A08A0005B08A1006230A3001F308D
:102E60008A017C208A110A16031D3F2F8A0119212D
:102E7000D130E7008A0119218A150A16302B5A0829
:102E8000A0005B08A1006330A30050308A017C20C1
:102E90008A110A16031D552F8A011921D230E70025
:102EA0008A0119218A150A16302B5A08A0005B08DE
:102EB000A1006430A30094308A017C208A110A1694
:102EC000031D6B2F8A011921D330E7008A011921D4
:102ED0008A150A16302B5A08A0005B08A10066303C
:102EE000A3000B308A017C208A110A16031D812F52
:102EF0008A011921D430E7008A0119218A150A169E
:102F0000302B5A08A0005B08A1006730A3008A306C
:102F10008A017C208A110A16031D972F8A01192124
:102F2000D530E7008A0119218A150A16302B5A0874
:102F3000A0005B08A1006930A30012308A017C2048
:102F40008A110A16031DAD2F8A011921D630E70018
:102F50008A0119218A150A16302B5A08A0005B082D
:102F6000A1006A30A30097308A017C208A110A16DA
:102F7000031DC32F8A011921D730E7008A011921C7
:102F80008A150A16302B5A08A0005B08A1006C3085
:102F9000A3000D308A017C208A110A16031DD92F47
:102FA0008A011921D830E7008A0119218A150A16E9
:102FB000302B5A08A0005B08A1006D30A300A3309D
:102FC0008A017C208A110A16031DEF2F8A0119211C
:102FD000D930E7008A0119218A150A16302B5A08C0
:102FE000A0005B08A1006F30A30069308A017C203B
:102FF0008A150A16031D05288A011921DA30E7000F
:103000008A0119218A150A16302B5A08A0005B087C
:10301000A1007130A30043308A017C208A150A1672
:10302000031D1B288A011921DB30E7008A011921C1
:103030008A150A16302B5A08A0005B08A1007330CD
:10304000A3001E308A017C208A150A16031D312830
:103050008A011921DC30E7008A0119218A150A1634
:10306000302B5A08A0005B08A1007430A300EB309D
:103070008A017C208A150A16031D47288A01192116
:10308000DD30E7008A0119218A150A16302B5A080B
:10309000A0005B08A1007630A300A8308A017C2044
:1030A0008A150A16031D5D288A011921DE30E70002
:1030B0008A0119218A150A16302B5A08A0005B08CC
:1030C000A1007830A30089308A017C208A150A1675
:1030D000031D73288A011921DF30E7008A011921B5
:1030E0008A150A16302B5A08A0005B08A1007A3016
:1030F000A300AD308A017C208A150A16031D892899
:103100008A011921E030E7008A0119218A150A167F
:10311000302B5A08A0005B08A1007C30A300E430EB
:103120008A017C208A150A16031D9F288A0119210D
:10313000E130E7008A0119218A150A16302B5A0856
:10314000A0005B08A1007F30A30073308A017C20BF
:103150008A150A16031DB5288A011921E230E700F5
:103160008A0119218A150A16302B5A08A0005B081B
:10317000A1008130A30071308A017C208A150A16D3
:10318000031DCB288A011921E330E7008A011921A8
:103190008A150A16302B5A08A0005B08A10083305C
:1031A000A3002C308A017C208A150A16031DE12811
:1031B0008A011921E430E7008A0119218A150A16CB
:1031C000302B5A08A0005B08A1008530A300AD3069
:1031D0008A017C208A150A16031DF7288A01192105
:1031E000E530E7008A0119218A150A16302B5A08A2
:1031F000A0005B08A1008830A3004B308A017C202E
:103200008A150A16031D0D298A011921E630E700E7
:103210008A0119218A150A16302B5A08A0005B086A
:10322000A1008B30A3000C308A017C208A150A167D
:10323000031D23298A011921E730E7008A0119219A
:103240008A150A16302B5A08A0005B08A1008D30A1
:10325000A300D1308A017C208A150A16031D392962
:103260008A011921E830E7008A0119218A150A1616
:10327000302B5A08A0005B08A1009030A3006130F9
:103280008A017C208A150A16031D4F298A011921FB
:10329000E930E7008A0119218A150A16302B5A08ED
:1032A000A0005B08A1009330A30048308A017C2075
:1032B0008A150A16031D65298A011921EA30E700DB
:1032C0008A0119218A150A16302B5A08A0005B08BA
:1032D000A1009630A30080308A017C208A150A164E
:1032E000031D7B298A011921EB30E7008A0119218E
:1032F0008A150A16302B5A08A0005B08A1009930E5
:10330000A300D5308A017C208A150A16031D912955
:103310008A011921EC30E7008A0119218A150A1661
:10332000302B5A08A0005B08A1009D30A3005F303D
:103330008A017C208A150A16031DA7298A011921F2
:10334000ED30E7008A0119218A150A16302B5A0838
:10335000A0005B08A100A030A300AF308A017C2050
:103360008A150A16031DBD298A011921EE30E700CE
:103370008A0119218A150A16302B5A08A0005B0809
:10338000A100A330A300E9308A017C208A150A1627
:10339000031DD3298A011921EF30E7008A01192181
:1033A0008A150A16302B5A08A0005B08A100A73026
:1033B000A300A8308A017C208A150A16031DE9297A
:1033C0008A011921F030E7008A0119218A150A16AD
:1033D000302B5A08A0005B08A100AB30A300C2301C
:1033E0008A017C208A150A16031DFF298A011921EA
:1033F000F130E7008A0119218A150A16302B5A0884
:10340000A0005B08A100B030A3000B308A017C2033
:103410008A150A16031D152A8A011921F230E700C0
:103420008A0119218A150A16302B5A08A0005B0858
:10343000A100B430A30091308A017C208A150A16BD
:10344000031D2B2A8A011921F330E7008A01192173
:103450008A150A16302B5A08A0005B08A100B93063
:10346000A3000D308A017C208A150A16031D412A0B
:103470008A011921F430E7008A0119218A150A16F8
:10348000302B5A08A0005B08A100BD30A3005630C5
:103490008A017C208A150A16031D572A8A011921E0
:1034A000F530E7008A0119218A150A16302B5A08CF
:1034B000A0005B08A100C130A300E4308A017C2099
:1034C0008A150A16031D6D2A8A011921F630E700B4
:1034D0008A0119218A150A16302B5A08A0005B08A8
:1034E000A100C730A30022308A017C208A150A1669
:1034F000031D832A8A011921F730E7008A01192167
:103500008A150A16302B5A08A0005B08A100CC309F
:10351000A300F1308A017C208A150A16031D992A1E
:103520008A011921F830E7008A0119218A150A1643
:10353000302B5A08A0005B08A100D330A300143040
:103540008A017C208A150A16031DAF2A8A011921D7
:10355000F930E7008A0119218A150A16302B5A081A
:10356000A0005B08A100D930A3000A308A017C20AA
:103570008A150A16031DC52A8A011921FA30E700A7
:103580008A0119218A150A16302B5A08A0005B08F7
:10359000A100DE30A300BA308A017C208A150A1609
:1035A000031DDB2A8A011921FB30E7008A0119215A
:1035B0008A150A16302B5A08A0005B08A100E530D6
:1035C000A3003B308A017C208A150A16031DF12ACC
:1035D0008A011921FC30E7008A0119218A150A168F
:1035E000302B5A08A0005B08A100EC30A3009530F6
:1035F0008A017C208A150A16031D072B8A011921CE
:10360000FD30E7008A0119218A150A16302B5A0865
:10361000A0005B08A100F630A3006A308A017C207C
:103620008A150A16031D1D2B8A011921FE30E70099
:103630008A0119218A150A16302B5A08A0005B0846
:10364000A100FF30A300FF308A017C208A150A16F2
:10365000031D302B8A011921FF30E7008A0119214F
:103660008A0119216708A800FF30A200A3010130D8
:103670008A0105208A0119210800030183160C180C
:10368000FF308312DC0003010C18FF30DE005C0801
:1036900084005E088A019720DE00DF0064005E0877
:1036A0005F048A150A160319922BE80A6808640257
:1036B000031DFF30FF3ADC006508003C031DFF30AE
:1036C000FF3ADE005C0884005E088A019720DE0075
:1036D000DF0064005E085F048A150A160319712B67
:1036E000E9146808A00014308A017F20DC00650816
:1036F000A00000308A017F20DE005C0884005E08A4
:103700008A019720DE00DF0064005E085F048A15EE
:103710000A160319912BE50110108F018E01E801A3
:1037200010140C1009008A01192163008A150A1669
:02373000952BD7
:02400E0004208C
:02401000FF3F70
:00000001FF
