:02000000DD28F9
:100008000800A9004030A0004230A1000F30A40031
:10001800A501A820AA012108031919282A14552086
:10002800FC3E031C1928AA1455202003AB00280FF6
:100038002128FF30A400A5002C282808A500A40129
:10004800A600A7012B0A03192C28A200A301C2208D
:10005800A90B45281708CF39A41B2038241B1038B2
:100068000C389700250895008316071183122B0872
:100078008316920083121208FC392A04043892006D
:10008800D828A90B54281D08CF39A41B2038241BB5
:1000980010380C389D0025089B00831687103A28D5
:1000A800D828A10CA00CA10CA00C0800A301A20048
:1000B800FF30A207031CA307031CD8280330A100A4
:1000C800DF3068205C28A101E83EA000A109FC30CF
:1000D800031C7128A00703186E28A0076400A10F4D
:1000E8006E2820187728A01C7B2800007B28080091
:1000F800A20002308F28A20003308F28A101A3019B
:10010800A20001308F28A101A301A20004308F288A
:10011800A301A2000530A80023082102031D962888
:100128002208200204300318013003190230280580
:10013800031DFF30D8280038031DFF300405031DB8
:10014800FF30D828A501A4011030A600210DA40D68
:10015800A50D2208A4022308031C230FA5020318D7
:10016800BC282208A40723080318230FA507031097
:10017800A00DA10DA60BAA282008D8281030A80089
:10018800A101A001A70CA60C031CD0282208A007D7
:1001980023080318230FA107A10CA00CA50CA40C7D
:1001A800A80BC6282408D8288313031383126400D5
:1001B8000800C0309F00831677308F00013085001B
:1001C80008308600D0308700950181018312C03045
:1001D8008B008316960101308C008D0183128C01EF
:1001E8008D018316031701308800890183120313D8
:1001F80081309F00831680309F00831203172130BF
:1002080087008801890183168501831203139001F1
:100218000F3097009D0183169C0101309D008312C9
:10022800053094008B178A110A121F298B1B0800AE
:100238008A150A16A22A8A011A21E8018A011A21B6
:10024800EB118A011A2187128A011A2106128A01E2
:100258001A2186128A011A216B108A011A21851027
:100268008A011A2105118A011A21EB108A011A2123
:10027800E7018A011A21FE30E000FF30E1008A011F
:100288001A21DA01DB018A011A21D601D7018A0174
:100298001A216B118A011A21EA018A011A211330E5
:1002A800E6008A011A21FA30E400FF30E5008A01ED
:1002B8001A218F018A011A218E018A011A2110142C
:1002C8008A011A218A110A12692B8A011A216400EB
:1002D8008A110A12071AD2298A011A2110108A01D2
:1002E8001A218F018A011A218E018A011A21EA0135
:1002F8008A011A2110148A011A2164008A110A122B
:10030800071A8B2932308A015A208A017F298A01EB
:100318001A21640014306A028A110A1203189C29EF
:1003280002308506831685108312D80A0319D90A64
:100338008A011A210301051DFF30DC005C088400D6
:100348000030851801308A019F20013903190612EF
:10035800031D06168A011A21003005190130840090
:100368000030851801308A019F200139031986124F
:10037800031D86168A011A21E7018A011A21101025
:100388008A011A21EA018A011A218E018A011A2199
:100398008F018A011A2110148A011A218A011A214F
:1003A8000301861DFF30DC0003018518FF30DE00E5
:1003B8005C0884005E088A019F20DE00DF0064007C
:1003C8005E085F048A110A1203193A2A8A011A215F
:1003D80064008A110A12EB1C1D2A8A011A211010C6
:1003E8008A011A2167084C3E84000E0880008A01A1
:1003F8001A216708423E84000F0880008A011A21EA
:100408006708383E84006A0880008A011A218F0133
:100418008A011A218E018A011A21EA018A011A2108
:100428006B108A011A2110148A011A218A110A12E2
:10043800262A8A011A210430EB0683166B118312CF
:100448008A011A218A011A2164008A110A1286195E
:10045800322A32308A015A208A01262A8A011A2130
:1004680087128A011A21E70A8A011A218A011A21A8
:100478000301EB19FF30DC006708A00001308A0196
:100488008220DE005C0884005E088A019F20DE006E
:10049800DF0064005E085F048A110A120319252B25
:1004A8008A011A21EB118A011A2110108A011A21D6
:1004B800E201E3018A011A21E401E5018A011A2116
:1004C800E6018A011A210130E8008A011A21013067
:1004D800E80068086702031DFF30FF3ADC0064008B
:1004E80068085C028A110A12031CA02A8A011A21D0
:1004F80067084C3E84000008DC005C08E407031829
:10050800E50A8A011A216708423E84000008DC00D7
:100518005C08E2070318E30A8A011A216708383ED3
:1005280084000008DC005C08E6078A011A21E80A52
:100538008A110A12031D6D2A8A011A216408A00073
:100548006508A1006708A200A3018A01A620DC00B3
:100558002108DD0001305C02E4000030031C013E8C
:100568005D02E5008A011A216208A0006308A10063
:100578006708A200A3018A01A620DC002108DD008B
:100588005C03E5008A011A216608A000A10167083A
:10059800A200A3018A01A620DC002108DD005C037B
:1005A800E6008A011A216400143066028A110A12D0
:1005B800031CEA2A8A011A211330E6008A011A214B
:1005C800FA30E400FF30E5008A011A218A011A2175
:1005D800CC30A6000C30A7006608A200A3018A014F
:1005E800C220E0002508E1008A011A216408A00061
:1005F8006508A1001430A200A3018A01A620DC002E
:100608002108DD005C08E0075D080318013EE107EA
:100618008A011A21EA018A011A218E018A011A2106
:100628008F018A011A2110148A011A21E7018A010F
:100638001A216B108A011A21D80A0319D90A8A01CA
:100648001A218A011A2164008A110A126B1C692B6B
:100658008A011A21640064080E028A110A12031C16
:100668002C2B8A011A21640065080F028A110A12CC
:10067800031C352B8A011A2110108A011A216B10CC
:100688008A011A21EA018A011A218F018A011A2195
:100698008E018A011A2110148A011A216400670840
:1006A800003C8A110A12031D5D2BEB188716EB1C00
:1006B80087128A011A210130A10090308A0168202E
:1006C8008A011A2187128A011A218A011A219E0198
:1006D8008A011A2183169E0183128A011A211F1189
:1006E8008A011A210A308A0167208A011A219F1477
:1006F8008A011A2164008A110A120C1F7C2B8A01B4
:100708001A210C138A011A21FF30A600A7011E081E
:10071800A200A3018A01C220DC002508DD0083169F
:100728001E0883125C07D6005D080318013ED70037
:100738008A011A215608A0005708A1005908A300E9
:1007480058088A017C208A110A12031D69298A0126
:100758001A215608D8005708D9008A011A2103011E
:10076800EB18FF30DC006708003C031DFF30FF3A40
:10077800DE005C0884005E088A019F20DE00DF003E
:1007880064005E085F048A110A1203197B2C8A012F
:100798001A218A011A215608A0005708A100A301AE
:1007A800D1308A017F208A110A12031DEE2B8A019B
:1007B8001A216008A0006108A1000330A200A3016B
:1007C8008A01A620DA002108DB008A011A218A1191
:1007D8000A12742C5608A0005708A1000230A30082
:1007E80084308A017F208A110A12031D072C8A018E
:1007F8001A210310610CDB00600CDA008A011A214F
:100808008A110A12742C5608A0005708A100033058
:10081800A30099308A017F208A110A12031D332C04
:100828008A011A216008A0006108A1000330A20013
:10083800A3018A01A620DC002108DD005C08A600CF
:100848005D08A7000230A200A3018A01C220DA00D5
:100858002508DB008A011A218A110A12742C56080D
:10086800A0005708A1000330A300E8308A017F20C8
:100878008A110A12031D5F2C8A011A216008A00040
:100888006108A1000430A200A3018A01A620DC00AF
:100898002108DD005C08A6005D08A7000330A2005F
:1008A800A3018A01C220DA002508DB008A011A2187
:1008B8008A110A12742C5608A0005708A1000330A8
:1008C800A300E8308A0189208A110A12031D742CBA
:1008D8008A011A216008DA006108DB008A011A21FE
:1008E8008A011A218A110A129F248A011A218A016F
:1008F8001A2164008A110A12EB188C2C5608A000E1
:100908005708A1000430A200A3018A01A620E9002B
:100918008A011A2164008A110A12851C9B2C690815
:10092800A800FF30A200A30101308A0105208A0136
:100938001A218A0169298A011A218A011A215A0869
:10094800A0005B08A1001E30A30061308A017F204F
:100958008A110A12031DB82C8A011A21E9018A0199
:100968001A218A150A169F2A5A08A0005B08A100B6
:100978001E30A30071308A017F208A110A12031DDC
:10098800CE2C8A011A210130E9008A011A218A1520
:100998000A169F2A5A08A0005B08A1001E30A3006F
:1009A80084308A017F208A110A12031DE42C8A01EF
:1009B8001A210230E9008A011A218A150A169F2A8B
:1009C8005A08A0005B08A1001E30A30099308A01D4
:1009D8007F208A110A12031DFA2C8A011A2103307A
:1009E800E9008A011A218A150A169F2A5A08A000C6
:1009F8005B08A1001E30A300AE308A017F208A1157
:100A08000A12031D102D8A011A210430E9008A01F7
:100A18001A218A150A169F2A5A08A0005B08A10005
:100A28001E30A300C3308A017F208A110A12031DD9
:100A3800262D8A011A210530E9008A011A218A1512
:100A48000A169F2A5A08A0005B08A1001E30A300BE
:100A5800D6308A017F208A110A12031D3C2D8A0193
:100A68001A210630E9008A011A218A150A169F2AD6
:100A78005A08A0005B08A1001E30A300EA308A01D2
:100A88007F208A110A12031D522D8A011A2107306C
:100A9800E9008A011A218A150A169F2A5A08A00015
:100AA8005B08A1001E30A300FF308A017F208A1155
:100AB8000A12031D682D8A011A210830E9008A01EB
:100AC8001A218A150A169F2A5A08A0005B08A10055
:100AD8001F30A30014308A017F208A110A12031DD7
:100AE8007E2D8A011A210930E9008A011A218A1506
:100AF8000A169F2A5A08A0005B08A1001F30A3000D
:100B08002B308A017F208A110A12031D942D8A0135
:100B18001A210A30E9008A011A218A150A169F2A21
:100B28005A08A0005B08A1001F30A30041308A01C9
:100B38007F208A110A12031DAA2D8A011A210B305F
:100B4800E9008A011A218A150A169F2A5A08A00064
:100B58005B08A1001F30A30055308A017F208A114D
:100B68000A12031DC02D8A011A210C30E9008A01DE
:100B78001A218A150A169F2A5A08A0005B08A100A4
:100B88001F30A3006B308A017F208A110A12031DCF
:100B9800D62D8A011A210D30E9008A011A218A15F9
:100BA8000A169F2A5A08A0005B08A1001F30A3005C
:100BB80082308A017F208A110A12031DEC2D8A01D6
:100BC8001A210E30E9008A011A218A150A169F2A6D
:100BD8005A08A0005B08A1001F30A30098308A01C2
:100BE8007F208A110A12031D022E8A011A210F3052
:100BF800E9008A011A218A150A169F2A5A08A000B4
:100C08005B08A1001F30A300B0308A017F208A1141
:100C18000A12031D182E8A011A211030E9008A01D0
:100C28001A218A150A169F2A5A08A0005B08A100F3
:100C38001F30A300C8308A017F208A110A12031DC1
:100C48002E2E8A011A211130E9008A011A218A15EB
:100C58000A169F2A5A08A0005B08A1001F30A300AB
:100C6800DB308A017F208A110A12031D442E8A0173
:100C78001A211230E9008A011A218A150A169F2AB8
:100C88005A08A0005B08A1001F30A300F1308A01B8
:100C98007F208A110A12031D5A2E8A011A21133045
:100CA800E9008A011A218A150A169F2A5A08A00003
:100CB8005B08A1002030A3000A308A017F208A1136
:100CC8000A12031D702E8A011A211430E9008A01C4
:100CD8001A218A150A169F2A5A08A0005B08A10043
:100CE8002030A30022308A017F208A110A12031DB6
:100CF800862E8A011A211530E9008A011A218A15DF
:100D08000A169F2A5A08A0005B08A1002030A300F9
:100D18003A308A017F208A110A12031D9C2E8A010B
:100D28001A211630E9008A011A218A150A169F2A03
:100D38005A08A0005B08A1002030A30053308A01A4
:100D48007F208A110A12031DB22E8A011A21173038
:100D5800E9008A011A218A150A169F2A5A08A00052
:100D68005B08A1002030A30068308A017F208A1127
:100D78000A12031DC82E8A011A211830E9008A01B7
:100D88001A218A150A169F2A5A08A0005B08A10092
:100D98002030A3007D308A017F208A110A12031DAA
:100DA800DE2E8A011A211930E9008A011A218A15D2
:100DB8000A169F2A5A08A0005B08A1002030A30049
:100DC80096308A017F208A110A12031DF42E8A01A7
:100DD8001A211A30E9008A011A218A150A169F2A4F
:100DE8005A08A0005B08A1002030A300B1308A0196
:100DF8007F208A110A12031D0A2F8A011A211B302B
:100E0800E9008A011A218A150A169F2A5A08A000A1
:100E18005B08A1002030A300CA308A017F208A1114
:100E28000A12031D202F8A011A211C30E9008A01A9
:100E38001A218A150A169F2A5A08A0005B08A100E1
:100E48002030A300E3308A017F208A110A12031D93
:100E5800362F8A011A211D30E9008A011A218A15C4
:100E68000A169F2A5A08A0005B08A1002030A30098
:100E7800F9308A017F208A110A12031D4C2F8A013A
:100E88001A211E30E9008A011A218A150A169F2A9A
:100E98005A08A0005B08A1002130A30010308A0185
:100EA8007F208A110A12031D622F8A011A211F301E
:100EB800E9008A011A218A150A169F2A5A08A000F1
:100EC8005B08A1002130A3002B308A017F208A1102
:100ED8000A12031D782F8A011A212030E9008A019D
:100EE8001A218A150A169F2A5A08A0005B08A10031
:100EF8002130A30047308A017F208A110A12031D7E
:100F08008E2F8A011A212130E9008A011A218A15B7
:100F18000A169F2A5A08A0005B08A1002130A300E6
:100F280062308A017F208A110A12031DA42F8A01C8
:100F38001A212230E9008A011A218A150A169F2AE5
:100F48005A08A0005B08A1002130A30079308A016B
:100F58007F208A110A12031DBA2F8A011A21233011
:100F6800E9008A011A218A150A169F2A5A08A00040
:100F78005B08A1002130A30090308A017F208A11EC
:100F88000A12031DD02F8A011A212430E9008A0190
:100F98001A218A150A169F2A5A08A0005B08A10080
:100FA8002130A300AC308A017F208A110A12031D68
:100FB800E62F8A011A212530E9008A011A218A15AB
:100FC8000A169F2A5A08A0005B08A1002130A30036
:100FD800C8308A017F208A110A12031DFC2F8A015A
:100FE8001A212630E9008A011A218A150A169F2A31
:100FF8005A08A0005B08A1002130A300E3308A0151
:101008007F208A150A12031D12288A011A21273007
:10101800E9008A011A218A150A169F2A5A08A0008F
:101028005B08A1002130A300FF308A017F208A15C8
:101038000A12031D28288A011A212830E9008A018A
:101048001A218A150A169F2A5A08A0005B08A100CF
:101058002230A3001A308A017F208A150A12031D44
:101068003E288A011A212930E9008A011A218A15A5
:101078000A169F2A5A08A0005B08A1002230A30084
:1010880035308A017F208A150A12031D54288A01E7
:101098001A212A30E9008A011A218A150A169F2A7C
:1010A8005A08A0005B08A1002230A30051308A0131
:1010B8007F208A150A12031D6A288A011A212B30FB
:1010C800E9008A011A218A150A169F2A5A08A000DF
:1010D8005B08A1002230A3006E308A017F208A15A8
:1010E8000A12031D80288A011A212C30E9008A017E
:1010F8001A218A150A169F2A5A08A0005B08A1001F
:101108002230A3008A308A017F208A150A12031D23
:1011180096288A011A212D30E9008A011A218A1598
:101128000A169F2A5A08A0005B08A1002230A300D3
:10113800A6308A017F208A150A12031DAC288A016D
:101148001A212E30E9008A011A218A150A169F2AC7
:101158005A08A0005B08A1002230A300C1308A0110
:101168007F208A150A12031DC2288A011A212F30EE
:10117800E9008A011A218A150A169F2A5A08A0002E
:101188005B08A1002230A300DE308A017F208A1587
:101198000A12031DD8288A011A213030E9008A0171
:1011A8001A218A150A169F2A5A08A0005B08A1006E
:1011B8002230A300FF308A017F208A150A12031DFE
:1011C800EE288A011A213130E9008A011A218A158C
:1011D8000A169F2A5A08A0005B08A1002330A30022
:1011E8001E308A017F208A150A12031D04298A01EC
:1011F8001A213230E9008A011A218A150A169F2A13
:101208005A08A0005B08A1002330A3003C308A01E3
:101218007F208A150A12031D1A298A011A213330E0
:10122800E9008A011A218A150A169F2A5A08A0007D
:101238005B08A1002330A3005C308A017F208A1557
:101248000A12031D30298A011A213430E9008A0163
:101258001A218A150A169F2A5A08A0005B08A100BD
:101268002330A30079308A017F208A150A12031DD2
:1012780046298A011A213530E9008A011A218A157E
:101288000A169F2A5A08A0005B08A1002330A30071
:1012980094308A017F208A150A12031D5C298A016D
:1012A8001A213630E9008A011A218A150A169F2A5E
:1012B8005A08A0005B08A1002330A300B5308A01BA
:1012C8007F208A150A12031D72298A011A213730D4
:1012D800E9008A011A218A150A169F2A5A08A000CD
:1012E8005B08A1002330A300D6308A017F208A152D
:1012F8000A12031D88298A011A213830E9008A0157
:101308001A218A150A169F2A5A08A0005B08A1000C
:101318002330A300F7308A017F208A150A12031DA3
:101328009E298A011A213930E9008A011A218A1571
:101338000A169F2A5A08A0005B08A1002430A300BF
:1013480018308A017F208A150A12031DB4298A01E0
:101358001A213A30E9008A011A218A150A169F2AA9
:101368005A08A0005B08A1002430A30037308A0186
:101378007F208A150A12031DCA298A011A213B30C7
:10138800E9008A011A218A150A169F2A5A08A0001C
:101398005B08A1002430A30055308A017F208A15FC
:1013A8000A12031DE0298A011A213C30E9008A014A
:1013B8001A218A150A169F2A5A08A0005B08A1005C
:1013C8002430A30078308A017F208A150A12031D71
:1013D800F6298A011A213D30E9008A011A218A1565
:1013E8000A169F2A5A08A0005B08A1002430A3000F
:1013F8009C308A017F208A150A12031D0C2A8A0153
:101408001A213E30E9008A011A218A150A169F2AF4
:101418005A08A0005B08A1002430A300BF308A014D
:101428007F208A150A12031D222A8A011A213F30B9
:10143800E9008A011A218A150A169F2A5A08A0006B
:101448005B08A1002430A300E2308A017F208A15BE
:101458000A12031D382A8A011A214030E9008A013C
:101468001A218A150A169F2A5A08A0005B08A100AB
:101478002530A30001308A017F208A150A12031D36
:101488004E2A8A011A214130E9008A011A218A1557
:101498000A169F2A5A08A0005B08A1002530A3005D
:1014A80020308A017F208A150A12031D642A8A01C6
:1014B8001A214230E9008A011A218A150A169F2A40
:1014C8005A08A0005B08A1002530A30044308A0117
:1014D8007F208A150A12031D7A2A8A011A214330AD
:1014E800E9008A011A218A150A169F2A5A08A000BB
:1014F8005B08A1002530A30069308A017F208A1586
:101508000A12031D902A8A011A214430E9008A012F
:101518001A218A150A169F2A5A08A0005B08A100FA
:101528002530A3008E308A017F208A150A12031DF8
:10153800A62A8A011A214530E9008A011A218A154A
:101548000A169F2A5A08A0005B08A1002530A300AC
:10155800B0308A017F208A150A12031DBC2A8A012D
:101568001A214630E9008A011A218A150A169F2A8B
:101578005A08A0005B08A1002530A300D0308A01DA
:101588007F208A150A12031DD22A8A011A214730A0
:10159800E9008A011A218A150A169F2A5A08A0000A
:1015A8005B08A1002530A300F8308A017F208A1546
:1015B8000A12031DE82A8A011A214830E9008A0123
:1015C8001A218A150A169F2A5A08A0005B08A1004A
:1015D8002630A30021308A017F208A150A12031DB4
:1015E800FE2A8A011A214930E9008A011A218A153E
:1015F8000A169F2A5A08A0005B08A1002630A300FB
:1016080047308A017F208A150A12031D142B8A018C
:101618001A214A30E9008A011A218A150A169F2AD6
:101628005A08A0005B08A1002630A3006E308A018A
:101638007F208A150A12031D2A2B8A011A214B3092
:10164800E9008A011A218A150A169F2A5A08A00059
:101658005B08A1002630A30090308A017F208A15FC
:101668000A12031D402B8A011A214C30E9008A0115
:101678001A218A150A169F2A5A08A0005B08A10099
:101688002630A300B4308A017F208A150A12031D70
:10169800562B8A011A214D30E9008A011A218A1530
:1016A8000A169F2A5A08A0005B08A1002630A3004A
:1016B800DC308A017F208A150A12031D6C2B8A01EF
:1016C8001A214E30E9008A011A218A150A169F2A22
:1016D8005A08A0005B08A1002730A30004308A0143
:1016E8007F208A150A12031D822B8A011A214F3086
:1016F800E9008A011A218A150A169F2A5A08A000A9
:101708005B08A1002730A3002F308A017F208A15AB
:101718000A12031D982B8A011A215030E9008A0108
:101728001A218A150A169F2A5A08A0005B08A100E8
:101738002730A30058308A017F208A150A12031D1A
:10174800AE2B8A011A215130E9008A011A218A1523
:101758000A169F2A5A08A0005B08A1002730A30098
:101768007B308A017F208A150A12031DC42B8A0147
:101778001A215230E9008A011A218A150A169F2A6D
:101788005A08A0005B08A1002730A300A0308A01F6
:101798007F208A150A12031DDA2B8A011A21533079
:1017A800E9008A011A218A150A169F2A5A08A000F8
:1017B8005B08A1002730A300CC308A017F208A155E
:1017C8000A12031DF02B8A011A215430E9008A01FC
:1017D8001A218A150A169F2A5A08A0005B08A10038
:1017E8002730A300F8308A017F208A150A12031DCA
:1017F800062C8A011A215530E9008A011A218A1516
:101808000A169F2A5A08A0005B08A1002830A300E6
:1018180024308A017F208A150A12031D1C2C8A0194
:101828001A215630E9008A011A218A150A169F2AB8
:101838005A08A0005B08A1002830A30050308A0194
:101848007F208A150A12031D322C8A011A2157306B
:10185800E9008A011A218A150A169F2A5A08A00047
:101868005B08A1002830A30078308A017F208A1500
:101878000A12031D482C8A011A215830E9008A01EE
:101888001A218A150A169F2A5A08A0005B08A10087
:101898002830A300A1308A017F208A150A12031D6F
:1018A8005E2C8A011A215930E9008A011A218A1509
:1018B8000A169F2A5A08A0005B08A1002830A30036
:1018C800CF308A017F208A150A12031D742C8A01E1
:1018D8001A215A30E9008A011A218A150A169F2A04
:1018E8005A08A0005B08A1002830A300FF308A0135
:1018F8007F208A150A12031D8A2C8A011A215B305F
:10190800E9008A011A218A150A169F2A5A08A00096
:101918005B08A1002930A3002F308A017F208A1597
:101928000A12031DA02C8A011A215C30E9008A01E1
:101938001A218A150A169F2A5A08A0005B08A100D6
:101948002930A3005E308A017F208A150A12031D00
:10195800B62C8A011A215D30E9008A011A218A15FC
:101968000A169F2A5A08A0005B08A1002930A30084
:1019780087308A017F208A150A12031DCC2C8A0120
:101988001A215E30E9008A011A218A150A169F2A4F
:101998005A08A0005B08A1002930A300B2308A01D0
:1019A8007F208A150A12031DE22C8A011A215F3052
:1019B800E9008A011A218A150A169F2A5A08A000E6
:1019C8005B08A1002930A300E3308A017F208A1533
:1019D8000A12031DF82C8A011A216030E9008A01D5
:1019E8001A218A150A169F2A5A08A0005B08A10026
:1019F8002A30A30014308A017F208A150A12031D99
:101A08000E2D8A011A216130E9008A011A218A15EE
:101A18000A169F2A5A08A0005B08A1002A30A300D2
:101A280047308A017F208A150A12031D242D8A0156
:101A38001A216230E9008A011A218A150A169F2A9A
:101A48005A08A0005B08A1002A30A30073308A015D
:101A58007F208A150A12031D3A2D8A011A21633044
:101A6800E9008A011A218A150A169F2A5A08A00035
:101A78005B08A1002A30A300A1308A017F208A15C3
:101A88000A12031D502D8A011A216430E9008A01C7
:101A98001A218A150A169F2A5A08A0005B08A10075
:101AA8002A30A300D6308A017F208A150A12031D26
:101AB800662D8A011A216530E9008A011A218A15E2
:101AC8000A169F2A5A08A0005B08A1002B30A30021
:101AD8000C308A017F208A150A12031D7C2D8A0189
:101AE8001A216630E9008A011A218A150A169F2AE6
:101AF8005A08A0005B08A1002B30A30041308A01DE
:101B08007F208A150A12031D922D8A011A21673037
:101B1800E9008A011A218A150A169F2A5A08A00084
:101B28005B08A1002B30A30076308A017F208A153C
:101B38000A12031DA82D8A011A216830E9008A01BA
:101B48001A218A150A169F2A5A08A0005B08A100C4
:101B58002B30A300A5308A017F208A150A12031DA5
:101B6800BE2D8A011A216930E9008A011A218A15D5
:101B78000A169F2A5A08A0005B08A1002B30A30070
:101B8800D4308A017F208A150A12031DD42D8A01B8
:101B98001A216A30E9008A011A218A150A169F2A31
:101BA8005A08A0005B08A1002C30A3000A308A0163
:101BB8007F208A150A12031DEA2D8A011A216B302B
:101BC800E9008A011A218A150A169F2A5A08A000D4
:101BD8005B08A1002C30A30043308A017F208A15BE
:101BE8000A12031D002E8A011A216C30E9008A01AD
:101BF8001A218A150A169F2A5A08A0005B08A10014
:101C08002C30A3007E308A017F208A150A12031D1A
:101C1800162E8A011A216D30E9008A011A218A15C7
:101C28000A169F2A5A08A0005B08A1002C30A300BE
:101C3800B8308A017F208A150A12031D2C2E8A01CA
:101C48001A216E30E9008A011A218A150A169F2A7C
:101C58005A08A0005B08A1002C30A300ED308A01CF
:101C68007F208A150A12031D422E8A011A216F301D
:101C7800E9008A011A218A150A169F2A5A08A00023
:101C88005B08A1002D30A30022308A017F208A152D
:101C98000A12031D582E8A011A217030E9008A01A0
:101CA8001A218A150A169F2A5A08A0005B08A10063
:101CB8002D30A3005E308A017F208A150A12031D89
:101CC8006E2E8A011A217130E9008A011A218A15BB
:101CD8000A169F2A5A08A0005B08A1002D30A3000D
:101CE8009C308A017F208A150A12031D842E8A01DE
:101CF8001A217230E9008A011A218A150A169F2AC8
:101D08005A08A0005B08A1002D30A300D8308A0132
:101D18007F208A150A12031D9A2E8A011A21733010
:101D2800E9008A011A218A150A169F2A5A08A00072
:101D38005B08A1002E30A30015308A017F208A1588
:101D48000A12031DB02E8A011A217430E9008A0193
:101D58001A218A150A169F2A5A08A0005B08A100B2
:101D68002E30A3004C308A017F208A150A12031DE9
:101D7800C62E8A011A217530E9008A011A218A15AE
:101D88000A169F2A5A08A0005B08A1002E30A3005B
:101D980087308A017F208A150A12031DDC2E8A01EA
:101DA8001A217630E9008A011A218A150A169F2A13
:101DB8005A08A0005B08A1002E30A300CA308A018F
:101DC8007F208A150A12031DF22E8A011A21773004
:101DD800E9008A011A218A150A169F2A5A08A000C2
:101DE8005B08A1002F30A3000C308A017F208A15E0
:101DF8000A12031D082F8A011A217830E9008A0186
:101E08001A218A150A169F2A5A08A0005B08A10001
:101E18002F30A3004F308A017F208A150A12031D34
:101E28001E2F8A011A217930E9008A011A218A15A0
:101E38000A169F2A5A08A0005B08A1002F30A300A9
:101E480091308A017F208A150A12031D342F8A01D6
:101E58001A217A30E9008A011A218A150A169F2A5E
:101E68005A08A0005B08A1002F30A300CF308A01D8
:101E78007F208A150A12031D4A2F8A011A217B30F6
:101E8800E9008A011A218A150A169F2A5A08A00011
:101E98005B08A1003030A3000F308A017F208A152B
:101EA8000A12031D602F8A011A217C30E9008A0179
:101EB8001A218A150A169F2A5A08A0005B08A10051
:101EC8003030A30054308A017F208A150A12031D7E
:101ED800762F8A011A217D30E9008A011A218A1594
:101EE8000A169F2A5A08A0005B08A1003030A300F8
:101EF80099308A017F208A150A12031D8C2F8A01C6
:101F08001A217E30E9008A011A218A150A169F2AA9
:101F18005A08A0005B08A1003030A300E3308A0112
:101F28007F208A150A12031DA22F8A011A217F30E9
:101F3800E9008A011A218A150A169F2A5A08A00060
:101F48005B08A1003130A3002B308A017F208A155D
:101F58000A12031DB82F8A011A218030E9008A016C
:101F68001A218A150A169F2A5A08A0005B08A100A0
:101F78003130A3006C308A017F208A150A12031DB4
:101F8800CE2F8A011A218130E9008A011A218A1587
:101F98000A169F2A5A08A0005B08A1003130A30046
:101FA800AF308A017F208A150A12031DE42F8A01A7
:101FB8001A218230E9008A011A218A150A169F2AF5
:101FC8005A08A0005B08A1003130A300F9308A014B
:101FD8007F208A150A12031DFA2F8A011A218330DD
:101FE800E9008A011A218A150A169F2A5A08A000B0
:101FF8005B08A1003230A30045308A017F208A1196
:102008000A16031D10288A011A218430E9008A0162
:102018001A218A150A169F2A5A08A0005B08A100EF
:102028003230A30091308A017F208A110A16031DDD
:1020380026288A011A218530E9008A011A218A1581
:102048000A169F2A5A08A0005B08A1003230A30094
:10205800D2308A017F208A110A16031D3C288A0182
:102068001A218630E9008A011A218A150A169F2A40
:102078005A08A0005B08A1003330A30019308A0178
:102088007F208A110A16031D52288A011A218730D7
:10209800E9008A011A218A150A169F2A5A08A000FF
:1020A8005B08A1003330A3006C308A017F208A11BD
:1020B8000A16031D68288A011A218830E9008A0156
:1020C8001A218A150A169F2A5A08A0005B08A1003F
:1020D8003330A300C4308A017F208A110A16031DF9
:1020E8007E288A011A218930E9008A011A218A1575
:1020F8000A169F2A5A08A0005B08A1003430A300E2
:102108001C308A017F208A110A16031D94288A012F
:102118001A218A30E9008A011A218A150A169F2A8B
:102128005A08A0005B08A1003430A3006E308A0171
:102138007F208A110A16031DAA288A011A218B30CA
:10214800E9008A011A218A150A169F2A5A08A0004E
:102158005B08A1003430A300B6308A017F208A11C1
:102168000A16031DC0288A011A218C30E9008A0149
:102178001A218A150A169F2A5A08A0005B08A1008E
:102188003530A30005308A017F208A110A16031D05
:10219800D6288A011A218D30E9008A011A218A1568
:1021A8000A169F2A5A08A0005B08A1003530A30030
:1021B80062308A017F208A110A16031DEC288A01E1
:1021C8001A218E30E9008A011A218A150A169F2AD7
:1021D8005A08A0005B08A1003530A300BD308A0171
:1021E8007F208A110A16031D02298A011A218F30BD
:1021F800E9008A011A218A150A169F2A5A08A0009E
:102208005B08A1003630A30018308A017F208A11AC
:102218000A16031D18298A011A219030E9008A013B
:102228001A218A150A169F2A5A08A0005B08A100DD
:102238003630A30075308A017F208A110A16031DE3
:102248002E298A011A219130E9008A011A218A155A
:102258000A169F2A5A08A0005B08A1003630A3007E
:10226800CB308A017F208A110A16031D44298A016E
:102278001A219230E9008A011A218A150A169F2A22
:102288005A08A0005B08A1003730A30021308A015A
:102298007F208A110A16031D5A298A011A219330B0
:1022A800E9008A011A218A150A169F2A5A08A000ED
:1022B8005B08A1003730A30080308A017F208A1193
:1022C8000A16031D70298A011A219430E9008A012F
:1022D8001A218A150A169F2A5A08A0005B08A1002D
:1022E8003730A300E2308A017F208A110A16031DC5
:1022F80086298A011A219530E9008A011A218A154E
:102308000A169F2A5A08A0005B08A1003830A300CB
:1023180048308A017F208A110A16031D9C298A01E8
:102328001A219630E9008A011A218A150A169F2A6D
:102338005A08A0005B08A1003830A300A9308A0120
:102348007F208A110A16031DB2298A011A219730A3
:10235800E9008A011A218A150A169F2A5A08A0003C
:102368005B08A1003930A30004308A017F208A115C
:102378000A16031DC8298A011A219830E9008A0122
:102388001A218A150A169F2A5A08A0005B08A1007C
:102398003930A30067308A017F208A110A16031D8D
:1023A800DE298A011A219930E9008A011A218A1541
:1023B8000A169F2A5A08A0005B08A1003930A3001A
:1023C800D3308A017F208A110A16031DF4298A0155
:1023D8001A219A30E9008A011A218A150A169F2AB9
:1023E8005A08A0005B08A1003A30A30040308A01D7
:1023F8007F208A110A16031D0A2A8A011A219B3096
:10240800E9008A011A218A150A169F2A5A08A0008B
:102418005B08A1003A30A300AE308A017F208A1100
:102428000A16031D202A8A011A219C30E9008A0114
:102438001A218A150A169F2A5A08A0005B08A100CB
:102448003B30A3001C308A017F208A110A16031D25
:10245800362A8A011A219D30E9008A011A218A1533
:102468000A169F2A5A08A0005B08A1003B30A30067
:1024780082308A017F208A110A16031D4C2A8A019C
:102488001A219E30E9008A011A218A150A169F2A04
:102498005A08A0005B08A1003B30A300ED308A0178
:1024A8007F208A110A16031D622A8A011A219F3089
:1024B800E9008A011A218A150A169F2A5A08A000DB
:1024C8005B08A1003C30A30064308A017F208A1198
:1024D8000A16031D782A8A011A21A030E9008A0108
:1024E8001A218A150A169F2A5A08A0005B08A1001B
:1024F8003C30A300DE308A017F208A110A16031DB2
:102508008E2A8A011A21A130E9008A011A218A1526
:102518000A169F2A5A08A0005B08A1003D30A300B4
:1025280056308A017F208A110A16031DA42A8A01BF
:102538001A21A230E9008A011A218A150A169F2A4F
:102548005A08A0005B08A1003D30A300C4308A01EE
:102558007F208A110A16031DBA2A8A011A21A3307C
:10256800E9008A011A218A150A169F2A5A08A0002A
:102578005B08A1003E30A30035308A017F208A1114
:102588000A16031DD02A8A011A21A430E9008A01FB
:102598001A218A150A169F2A5A08A0005B08A1006A
:1025A8003E30A300B5308A017F208A110A16031D28
:1025B800E62A8A011A21A530E9008A011A218A151A
:1025C8000A169F2A5A08A0005B08A1003F30A30002
:1025D80039308A017F208A110A16031DFC2A8A01D4
:1025E8001A21A630E9008A011A218A150A169F2A9B
:1025F8005A08A0005B08A1003F30A300EE308A0112
:102608007F208A110A16031D122B8A011A21A7306E
:10261800E9008A011A218A150A169F2A5A08A00079
:102628005B08A1004030A30072308A017F208A1124
:102638000A16031D282B8A011A21A830E9008A01ED
:102648001A218A150A169F2A5A08A0005B08A100B9
:102658004030A300BD308A017F208A110A16031D6D
:102668003E2B8A011A21A930E9008A011A218A150C
:102678000A169F2A5A08A0005B08A1004130A3004F
:102688003D308A017F208A110A16031D542B8A01C6
:102698001A21AA30E9008A011A218A150A169F2AE6
:1026A8005A08A0005B08A1004130A300CF308A017E
:1026B8007F208A110A16031D6A2B8A011A21AB3062
:1026C800E9008A011A218A150A169F2A5A08A000C9
:1026D8005B08A1004230A30069308A017F208A117B
:1026E8000A16031D802B8A011A21AC30E9008A01E1
:1026F8001A218A150A169F2A5A08A0005B08A10009
:102708004330A30001308A017F208A110A16031D75
:10271800962B8A011A21AD30E9008A011A218A15FF
:102728000A169F2A5A08A0005B08A1004330A3009C
:1027380095308A017F208A110A16031DAC2B8A0165
:102748001A21AE30E9008A011A218A150A169F2A31
:102758005A08A0005B08A1004430A3001F308A017A
:102768007F208A110A16031DC22B8A011A21AF3055
:10277800E9008A011A218A150A169F2A5A08A00018
:102788005B08A1004430A300B2308A017F208A117F
:102798000A16031DD82B8A011A21B030E9008A01D4
:1027A8001A218A150A169F2A5A08A0005B08A10058
:1027B8004530A30052308A017F208A110A16031D72
:1027C800EE2B8A011A21B130E9008A011A218A15F3
:1027D8000A169F2A5A08A0005B08A1004530A300EA
:1027E800F7308A017F208A110A16031D042C8A01FA
:1027F8001A21B230E9008A011A218A150A169F2A7D
:102808005A08A0005B08A1004630A300A5308A0141
:102818007F208A110A16031D1A2C8A011A21B33047
:10282800E9008A011A218A150A169F2A5A08A00067
:102838005B08A1004730A3004C308A017F208A1131
:102848000A16031D302C8A011A21B430E9008A01C6
:102858001A218A150A169F2A5A08A0005B08A100A7
:102868004730A300E4308A017F208A110A16031D2D
:10287800462C8A011A21B530E9008A011A218A15E5
:102888000A169F2A5A08A0005B08A1004830A30036
:1028980089308A017F208A110A16031D5C2C8A015F
:1028A8001A21B630E9008A011A218A150A169F2AC8
:1028B8005A08A0005B08A1004930A30042308A01F1
:1028C8007F208A110A16031D722C8A011A21B7303B
:1028D800E9008A011A218A150A169F2A5A08A000B7
:1028E8005B08A1004930A300FC308A017F208A11CF
:1028F8000A16031D882C8A011A21B830E9008A01BA
:102908001A218A150A169F2A5A08A0005B08A100F6
:102918004A30A300BA308A017F208A110A16031DA3
:102928009E2C8A011A21B930E9008A011A218A15D8
:102938000A169F2A5A08A0005B08A1004B30A30082
:1029480072308A017F208A110A16031DB42C8A016D
:102958001A21BA30E9008A011A218A150A169F2A13
:102968005A08A0005B08A1004C30A3001F308A0160
:102978007F208A110A16031DCA2C8A011A21BB302E
:10298800E9008A011A218A150A169F2A5A08A00006
:102998005B08A1004C30A300DF308A017F208A1138
:1029A8000A16031DE02C8A011A21BC30E9008A01AD
:1029B8001A218A150A169F2A5A08A0005B08A10046
:1029C8004D30A300B2308A017F208A110A16031DF8
:1029D800F62C8A011A21BD30E9008A011A218A15CC
:1029E8000A169F2A5A08A0005B08A1004E30A300CF
:1029F80084308A017F208A110A16031D0C2D8A0152
:102A08001A21BE30E9008A011A218A150A169F2A5E
:102A18005A08A0005B08A1004F30A30061308A016A
:102A28007F208A110A16031D222D8A011A21BF3020
:102A3800E9008A011A218A150A169F2A5A08A00055
:102A48005B08A1005030A3003C308A017F208A1126
:102A58000A16031D382D8A011A21C030E9008A019F
:102A68001A218A150A169F2A5A08A0005B08A10095
:102A78005130A30004308A017F208A110A16031DF1
:102A88004E2D8A011A21C130E9008A011A218A15BE
:102A98000A169F2A5A08A0005B08A1005130A3001B
:102AA800DC308A017F208A110A16031D642D8A01F1
:102AB8001A21C230E9008A011A218A150A169F2AAA
:102AC8005A08A0005B08A1005230A300CE308A014A
:102AD8007F208A110A16031D7A2D8A011A21C33014
:102AE800E9008A011A218A150A169F2A5A08A000A5
:102AF8005B08A1005330A300C2308A017F208A11ED
:102B08000A16031D902D8A011A21C430E9008A0192
:102B18001A218A150A169F2A5A08A0005B08A100E4
:102B28005430A300AF308A017F208A110A16031D92
:102B3800A62D8A011A21C530E9008A011A218A15B1
:102B48000A169F2A5A08A0005B08A1005530A30066
:102B58008B308A017F208A110A16031DBC2D8A0139
:102B68001A21C630E9008A011A218A150A169F2AF5
:102B78005A08A0005B08A1005630A30073308A01F0
:102B88007F208A110A16031DD22D8A011A21C73007
:102B9800E9008A011A218A150A169F2A5A08A000F4
:102BA8005B08A1005730A30081308A017F208A1179
:102BB8000A16031DE82D8A011A21C830E9008A0186
:102BC8001A218A150A169F2A5A08A0005B08A10034
:102BD8005830A30095308A017F208A110A16031DF8
:102BE800FE2D8A011A21C930E9008A011A218A15A5
:102BF8000A169F2A5A08A0005B08A1005930A300B2
:102C0800B3308A017F208A110A16031D142E8A0107
:102C18001A21CA30E9008A011A218A150A169F2A40
:102C28005A08A0005B08A1005A30A300D4308A01DA
:102C38007F208A110A16031D2A2E8A011A21CB30F9
:102C4800E9008A011A218A150A169F2A5A08A00043
:102C58005B08A1005B30A300D9308A017F208A116C
:102C68000A16031D402E8A011A21CC30E9008A0178
:102C78001A218A150A169F2A5A08A0005B08A10083
:102C88005C30A300F8308A017F208A110A16031DE0
:102C9800562E8A011A21CD30E9008A011A218A1597
:102CA8000A169F2A5A08A0005B08A1005E30A300FC
:102CB80041308A017F208A110A16031D6C2E8A0171
:102CC8001A21CE30E9008A011A218A150A169F2A8C
:102CD8005A08A0005B08A1005F30A30085308A0174
:102CE8007F208A110A16031D822E8A011A21CF30ED
:102CF800E9008A011A218A150A169F2A5A08A00093
:102D08005B08A1006030A300CE308A017F208A11C1
:102D18000A16031D982E8A011A21D030E9008A016B
:102D28001A218A150A169F2A5A08A0005B08A100D2
:102D38006230A3001F308A017F208A110A16031D02
:102D4800AE2E8A011A21D130E9008A011A218A158A
:102D58000A169F2A5A08A0005B08A1006330A30046
:102D680050308A017F208A110A16031DC42E8A0159
:102D78001A21D230E9008A011A218A150A169F2AD7
:102D88005A08A0005B08A1006430A30094308A01AF
:102D98007F208A110A16031DDA2E8A011A21D330E0
:102DA800E9008A011A218A150A169F2A5A08A000E2
:102DB8005B08A1006630A3000B308A017F208A11CE
:102DC8000A16031DF02E8A011A21D430E9008A015F
:102DD8001A218A150A169F2A5A08A0005B08A10022
:102DE8006730A3008A308A017F208A110A16031DE2
:102DF800062F8A011A21D530E9008A011A218A157D
:102E08000A169F2A5A08A0005B08A1006930A3008F
:102E180012308A017F208A110A16031D1C2F8A018D
:102E28001A21D630E9008A011A218A150A169F2A22
:102E38005A08A0005B08A1006A30A30097308A01F5
:102E48007F208A110A16031D322F8A011A21D730D2
:102E5800E9008A011A218A150A169F2A5A08A00031
:102E68005B08A1006C30A3000D308A017F208A1115
:102E78000A16031D482F8A011A21D830E9008A0151
:102E88001A218A150A169F2A5A08A0005B08A10071
:102E98006D30A300A3308A017F208A110A16031D12
:102EA8005E2F8A011A21D930E9008A011A218A1570
:102EB8000A169F2A5A08A0005B08A1006F30A300D9
:102EC80069308A017F208A110A16031D742F8A012E
:102ED8001A21DA30E9008A011A218A150A169F2A6E
:102EE8005A08A0005B08A1007130A30043308A0192
:102EF8007F208A110A16031D8A2F8A011A21DB30C6
:102F0800E9008A011A218A150A169F2A5A08A00080
:102F18005B08A1007330A3001E308A017F208A114C
:102F28000A16031DA02F8A011A21DC30E9008A0144
:102F38001A218A150A169F2A5A08A0005B08A100C0
:102F48007430A300EB308A017F208A110A16031D12
:102F5800B62F8A011A21DD30E9008A011A218A1563
:102F68000A169F2A5A08A0005B08A1007630A30021
:102F7800A8308A017F208A110A16031DCC2F8A01E6
:102F88001A21DE30E9008A011A218A150A169F2AB9
:102F98005A08A0005B08A1007830A30089308A0194
:102FA8007F208A110A16031DE22F8A011A21DF30B9
:102FB800E9008A011A218A150A169F2A5A08A000D0
:102FC8005B08A1007A30A300AD308A017F208A1106
:102FD8000A16031DF82F8A011A21E030E9008A0138
:102FE8001A218A150A169F2A5A08A0005B08A10010
:102FF8007C30A300E4308A017F208A150A16031D5D
:103008000E288A011A21E130E9008A011A218A155D
:103018000A169F2A5A08A0005B08A1007F30A30067
:1030280073308A017F208A150A16031D24288A0115
:103038001A21E230E9008A011A218A150A169F2A04
:103048005A08A0005B08A1008130A30071308A01F2
:103058007F208A150A16031D3A288A011A21E330AF
:10306800E9008A011A218A150A169F2A5A08A0001F
:103078005B08A1008330A3002C308A017F208A15C9
:103088000A16031D50288A011A21E430E9008A0132
:103098001A218A150A169F2A5A08A0005B08A1005F
:1030A8008530A300AD308A017F208A150A16031DDA
:1030B80066288A011A21E530E9008A011A218A1551
:1030C8000A169F2A5A08A0005B08A1008830A300AE
:1030D8004B308A017F208A150A16031D7C288A0135
:1030E8001A21E630E9008A011A218A150A169F2A50
:1030F8005A08A0005B08A1008B30A3000C308A019D
:103108007F208A150A16031D92288A011A21E730A2
:10311800E9008A011A218A150A169F2A5A08A0006E
:103128005B08A1008D30A300D1308A017F208A1569
:103138000A16031DA8288A011A21E830E9008A0125
:103148001A218A150A169F2A5A08A0005B08A100AE
:103158009030A30061308A017F208A150A16031D6A
:10316800BE288A011A21E930E9008A011A218A1544
:103178000A169F2A5A08A0005B08A1009330A300F2
:1031880048308A017F208A150A16031DD4288A012F
:103198001A21EA30E9008A011A218A150A169F2A9B
:1031A8005A08A0005B08A1009630A30080308A016D
:1031B8007F208A150A16031DEA288A011A21EB3096
:1031C800E9008A011A218A150A169F2A5A08A000BE
:1031D8005B08A1009930A300D5308A017F208A15A9
:1031E8000A16031D00298A011A21EC30E9008A0118
:1031F8001A218A150A169F2A5A08A0005B08A100FE
:103208009D30A3005F308A017F208A150A16031DAE
:1032180016298A011A21ED30E9008A011A218A1536
:103228000A169F2A5A08A0005B08A100A030A30034
:10323800AF308A017F208A150A16031D2C298A01BE
:103248001A21EE30E9008A011A218A150A169F2AE6
:103258005A08A0005B08A100A330A300E9308A0146
:103268007F208A150A16031D42298A011A21EF3088
:10327800E9008A011A218A150A169F2A5A08A0000D
:103288005B08A100A730A300A8308A017F208A1517
:103298000A16031D58298A011A21F030E9008A010B
:1032A8001A218A150A169F2A5A08A0005B08A1004D
:1032B800AB30A300C2308A017F208A150A16031D8D
:1032C8006E298A011A21F130E9008A011A218A152A
:1032D8000A169F2A5A08A0005B08A100B030A30074
:1032E8000B308A017F208A150A16031D84298A015A
:1032F8001A21F230E9008A011A218A150A169F2A32
:103308005A08A0005B08A100B430A30091308A01DC
:103318007F208A150A16031D9A298A011A21F3307B
:10332800E9008A011A218A150A169F2A5A08A0005C
:103338005B08A100B930A3000D308A017F208A15EF
:103348000A16031DB0298A011A21F430E9008A01FE
:103358001A218A150A169F2A5A08A0005B08A1009C
:10336800BD30A30056308A017F208A150A16031D36
:10337800C6298A011A21F530E9008A011A218A151D
:103388000A169F2A5A08A0005B08A100C130A300B2
:10339800E4308A017F208A150A16031DDC298A0178
:1033A8001A21F630E9008A011A218A150A169F2A7D
:1033B8005A08A0005B08A100C730A30022308A0188
:1033C8007F208A150A16031DF2298A011A21F7306F
:1033D800E9008A011A218A150A169F2A5A08A000AC
:1033E8005B08A100CC30A300F1308A017F208A1548
:1033F8000A16031D082A8A011A21F830E9008A01F1
:103408001A218A150A169F2A5A08A0005B08A100EB
:10341800D330A30014308A017F208A150A16031DB1
:103428001E2A8A011A21F930E9008A011A218A150F
:103438000A169F2A5A08A0005B08A100D930A300E9
:103448000A308A017F208A150A16031D342A8A0148
:103458001A21FA30E9008A011A218A150A169F2AC8
:103468005A08A0005B08A100DE30A300BA308A0128
:103478007F208A150A16031D4A2A8A011A21FB3061
:10348800E9008A011A218A150A169F2A5A08A000FB
:103498005B08A100E530A3003B308A017F208A1534
:1034A8000A16031D602A8A011A21FC30E9008A01E4
:1034B8001A218A150A169F2A5A08A0005B08A1003B
:1034C800EC30A30095308A017F208A150A16031D67
:1034D800762A8A011A21FD30E9008A011A218A1503
:1034E8000A169F2A5A08A0005B08A100F630A3001C
:1034F8006A308A017F208A150A16031D8C2A8A01E0
:103508001A21FE30E9008A011A218A150A169F2A13
:103518005A08A0005B08A100FF30A300FF308A0111
:103528007F208A150A16031D9F2A8A011A21FF3057
:10353800E9008A011A218A011A2108000301831669
:103548000C18FF308312DC0003010C18FF30DE007A
:103558005C0884005E088A019F20DE00DF006400AA
:103568005E085F048A150A160319602BEA0A6400CC
:103578006A08283C8A150A16031DE52A64008A157C
:103588000A16071AD72A04308506831605118312EE
:103598000301051D013E03190612031D0616051930
:1035A8008616051D861264008A150A168619E52AEC
:1035B80087160230EB068316EB108312D80A03191C
:1035C800D90A6708003C031DFF30FF3ADC006A088F
:1035D8006602031DFF30FF3ADE005C0884005E08C7
:1035E8008A019F20DE00DF0064005E085F048A1500
:1035F8000A160319002B6B146708A00001308A0112
:103608008220DC006A08A00023308A018220DE00C4
:103618005C0884005E088A019F20DE00DF006400E9
:103628005E085F048A150A1603191B2BEB15640044
:103638008A150A166B1D5F2BFE306607DC00FF300B
:103648000318013EDD005C08A0005D08A1006A08BF
:103658008A018C208A150A16031D3A2B6908A800CE
:10366800FF30A200A30101308A01052003016B1875
:10367800FF30DC006908A000F5308A018720DE00F1
:103688005C0884005E088A019F20DE00DF00640079
:103698005E085F048A150A1603195F2B0A3069074A
:1036A800DC00DD01DD0D5C08A800FF30A200A301ED
:1036B80001308A0105200C1009008A011A216300D3
:0636C8008A150A16632BAF
:02400E00C420CC
:00000001FF
