:020000040000FA
:02000000FB28DB
:080008000800A9004030A0002F
:100010004230A1000F30A400A501C020AA01210890
:10002000031919282A145520FC3E031C1928AA1468
:1000300055202003AB00280F2128FF30A400A50085
:100040002C282808A500A401A600A7012B0A031943
:100050002C28A200A301DA20A90B45281708CF39C4
:10006000A41B2038241B10380C3897002508950055
:100070008316071183122B0883169200831212082D
:10008000FC392A0404389200F628A90B54281D08CC
:10009000CF39A41B2038241B10380C389D002508AC
:1000A0009B00831687103A28F628A10CA00CA10CFF
:1000B000A00C0800B4006D20200821040319F628C4
:1000C000F020841334088006640066286728A00A9C
:1000D0000319A10F64288006F628FF3A84178005CB
:1000E000F628A301A200FF30A207031CA307031CEC
:1000F000F6280330A100DF307F207328A101E83EFD
:10010000A000A109FC30031C8828A007031885283B
:10011000A0076400A10F852820188E28A01C922813
:10012000000092280800A101A301A2000330A32827
:10013000A2000130A328A2000630A328A101A30138
:10014000A2000430A328A80023082102031DAA2826
:100150002208200204300318013003190230280558
:10016000031DFF30F6280038031DFF300405031D72
:10017000FF30F6280404031DFF30F628A501A40172
:100180001030A600210DA40DA50D2208A4022308FD
:10019000031C230FA5020318D4282208A407230850
:1001A0000318230FA5070310A00DA10DA60BC2284D
:1001B0002008F6281030A800A101A001A70CA60C69
:1001C000031CE8282208A00723080318230FA1070F
:1001D000A10CA00CA50CA40CA80BDE282408F62862
:1001E000A009A109A00A0319A10A08008313031397
:1001F000831264000800C0309F00831677308F00A0
:10020000013085000830860040308700950181016B
:100210008312C0308B008316960101308C008D0153
:1002200083128C018D018316031701308800890128
:100230008312031381309F00831680309F00831246
:100240000317213087008801890183160313970162
:10025000031785018312031390010F3097009D014E
:1002600083169C0101309D008312053094008B178A
:100270008A110A1240298B1B08008A150A16542C71
:100280008A013B2110108A013B2185018A013B2113
:1002900086018A013B2187018A013B2105158A01DC
:1002A0003B2185108A013B21FE30E000FF30E10058
:1002B0008A013B211330E4008A013B21FA30E2003D
:1002C000FF30E3008A013B21DA01DB018A013B2197
:1002D000D601D7018A013B210A30D800D9018A0111
:1002E0003B21E6018A013B21E9018A013B21E5012D
:1002F0008A013B21E8018A013B218F018A013B21D0
:100300008E018A013B2110148A013B2164008A116D
:100310000A128619242A8A013B21E6018A013B211F
:1003200064308A0171208A013B2164008A110A121B
:100330008619DC298A013B21E60A8A013B216400F7
:1003400066080A3C8A110A12031DD6298A013B213C
:1003500064008A110A12851DC4298A013B210830D4
:10036000E9068316E91183128A013B2120308606B3
:100370008316861283128A013B211030860683166B
:10038000061283128A013B218A013B2164008A11F3
:100390000A12E919CC2905158A013B2164008A114A
:1003A0000A12E91DD42985158A013B218A013B21C6
:1003B0008A018E298A013B218A013B2164000A308F
:1003C00066028A110A120318222A8A013B2164005C
:1003D0008A110A12E919092A8A013B2185148A0126
:1003E0003B21083085068316851183128A013B2143
:1003F0000130A3002C308A0172208A013B21851034
:100400008A013B21203086068316861283128A01D8
:100410003B218A013B2164008A110A12E91D202A2E
:100420008A013B21043085068316051183128A0157
:100430003B21103086068316061283128A013B2167
:100440008A013B218A013B218A013B2164008A11F8
:100450000A12071B892A8A013B21E6018A013B21F6
:1004600064308A0171208A013B2164008A110A12DA
:10047000071B612A8A013B21E60A8A013B216400AD
:1004800066080A3C8A110A12031D5B2A8A013B2175
:1004900010108A013B210130E9068316691083128E
:1004A0008A013B210301691C013E03190712031D48
:1004B00007168A013B218A013B218A012E2A8A01E3
:1004C0003B218A013B2164000A3066028A110A122C
:1004D00003186D2A8A110A12A6268A013B2164009C
:1004E0000A3066028A110A12031C872A8A013B21FC
:1004F00007128A013B218F018A013B218E018A016B
:100500003B21E8018A013B2110148A013B218A0129
:100510003B218A013B2164008A110A12E91CC52A89
:100520008A013B21640062080E028A110A12031C30
:10053000902A8A013B21640063080F028A110A1283
:10054000031C992A8A013B2110108A013B21E801F2
:100550008A013B218F018A013B218E018A013B21C7
:1005600010148A013B2164008A110A126918C02AFA
:10057000C830A000A1010730840010308A015A2041
:100580008A013B21E9108A013B218A013B219E011E
:100590008A013B2183169E0183128A013B219F140D
:1005A0008A013B2101308A0171208A013B216400CC
:1005B0008A110A120C1FD52A8A013B210C138A01C9
:1005C0003B21FF30A600A7011E08A200A3018A015B
:1005D000DA20DC002508DD0083161E0883125C0784
:1005E000D6005D080318013ED7008A013B21023086
:1005F0005802DC000030031C013E5902DD005608A1
:10060000A0005708A1005D08A3005C088A01A02093
:10061000DC0002305807DE0059080318013EDF00F5
:100620005608A0005708A1005F08A3005E088A01D1
:100630009820DE005C0884005E088A01BA20DE0093
:10064000DF0064005E085F048A110A120319A22EFB
:100650008A013B215608D8005708D9008A013B215E
:1006600064008A110A126918962E8A013B215608E5
:10067000A0005708A1000430A200A3018A01BE20F7
:10068000DC002108DD005C08A800FF30A200A30107
:1006900001308A0105208A013B2110108A013B218B
:1006A000E8018A013B218F018A013B218E018A01E9
:1006B0003B215608A0005708A1000430A200A30166
:1006C0008A01BE20E6008A013B216608FF3C8A11B0
:1006D0000A12031C7A2C8A110A127323E200E30126
:1006E0008A110A127A2C03308A0066087A3E0318AF
:1006F0008A0A82002A342A342A342A342A342A34B0
:100700002A342A342A342A342A342A342A342A34F9
:100710002A342A342A342A342A342A342A342A34E9
:100720002A342A342A342A342A342A342A342A34D9
:100730002A342A342A3429342934293429342934CE
:1007400029342A342A342A342A342A342B342B34B8
:100750002B342B342C342C342C342C342D342D3499
:100760002D342D342D342E342F342F342F34303477
:100770003034303431343134313432343234323450
:100780003334333433343434343435343534353429
:1007900036343634373437343734383438343934FF
:1007A00039343A343A343A343B343B343C343C34D4
:1007B0003D343D343E343E343F343F3440344034A5
:1007C00041344134003401340134023402340334FE
:1007D000043404340534053406340734073408344B
:1007E000083409340A340A340B340C340C340D3414
:1007F0000E340F340F3410341134123413341334D4
:1008000014341534163417341834193419341A348E
:100810001B341C341D341E341F3420342134223444
:100820002434253426342734283429342B342C34EA
:100830002D342E343034313432343334353437348B
:1008400038343A343B343D343E344034003402349E
:1008500004340534073409340B340D3410341134A6
:100860001334163418341B341D341F34223424340A
:1008700027342A342D342F343334363439343D344C
:100880003F340134053409340D3411341434183430
:100890001D34213426342B342F3435343A3440344B
:1008A00005340B34103416341D3425342C343434D0
:1008B0003A3401340A3414341D34253430343B3492
:1008C0000634123420342A343934073417342934A6
:1008D0003C3409341E3435340B3425344134163459
:1008E000353416343C3423340E34323424341D343D
:1008F0001D3434348A013B216208A6006308A70036
:10090000E830A2000330A3008A01DA20E2002508C3
:10091000E3008A013B216400683066028A110A12F2
:100920000318942C0130E4008A013B216608A000E2
:1009300068308A019320DC006608A000AC308A0190
:100940009E20DE005C0884005E088A01B320DE0081
:10095000DF0064005E085F048A110A120319B22CDA
:100960000230E4008A013B216608A000AC308A0115
:100970009320DC006608A000C7308A019E20DE00BC
:100980005C0884005E088A01B320DE00DF0064009A
:100990005E085F048A110A120319D02C0330E400A8
:1009A0008A013B216608A000C7308A019320DC0041
:1009B0006608A000D6308A019E20DE005C08840014
:1009C0005E088A01B320DE00DF0064005E085F0479
:1009D0008A110A120319EE2C0430E4008A013B212B
:1009E0006608A000D6308A019320DC006608A000CB
:1009F000DF308A019E20DE005C0884005E088A01E8
:100A0000B320DE00DF0064005E085F048A110A1272
:100A100003190C2D0530E4008A013B216608A00073
:100A2000DF308A019320DC006608A000E6308A01EE
:100A30009E20DE005C0884005E088A01B320DE0090
:100A4000DF0064005E085F048A110A1203192A2D70
:100A50000630E4008A013B216608A000E6308A01E6
:100A60009320DC006608A000EB308A019E20DE00A7
:100A70005C0884005E088A01B320DE00DF006400A9
:100A80005E085F048A110A120319482D0730E4003A
:100A90008A013B216608A000EB308A019320DC002C
:100AA0006608A000EF308A019E20DE005C0884000A
:100AB0005E088A01B320DE00DF0064005E085F0488
:100AC0008A110A120319662D0830E4008A013B21BD
:100AD0006608A000EF308A019320DC006608A000C1
:100AE000F2308A019E20DE005C0884005E088A01E4
:100AF000B320DE00DF0064005E085F048A110A1282
:100B00000319842D0930E4008A013B216608A00006
:100B1000F2308A019320DC006608A000F5308A01DB
:100B20009E20DE005C0884005E088A01B320DE009F
:100B3000DF0064005E085F048A110A120319A22D07
:100B40000A30E4008A013B216608A000F5308A01E2
:100B50009320DC006608A000F7308A019E20DE00AA
:100B60005C0884005E088A01B320DE00DF006400B8
:100B70005E085F048A110A120319C02D0B30E400CD
:100B80008A013B216608A000F7308A019320DC002F
:100B90006608A000F9308A019E20DE005C0884000F
:100BA0005E088A01B320DE00DF0064005E085F0497
:100BB0008A110A120319DE2D0C30E4008A013B2150
:100BC0006608A000F9308A019320DC006608A000C6
:100BD000FA308A019E20DE005C0884005E088A01EB
:100BE000B320DE00DF0064005E085F048A110A1291
:100BF0000319FC2D0D30E4008A013B216608A0009A
:100C0000FA308A019320DC006608A000FC308A01DB
:100C10009E20DE005C0884005E088A01B320DE00AE
:100C2000DF0064005E085F048A110A1203191A2E9D
:100C30000E30E4008A013B216608A000FC308A01E6
:100C40009320DC006608A000FD308A019E20DE00B3
:100C50005C0884005E088A01B320DE00DF006400C7
:100C60005E085F048A110A120319382E0F30E4005F
:100C70008A013B216608A000FD308A019320DC0038
:100C80006608A000FE308A019E20DE005C08840019
:100C90005E088A01B320DE00DF0064005E085F04A6
:100CA0008A110A120319562E1030E4008A013B21E2
:100CB0006608A000FE308A019320DC006608A000D0
:100CC000FF308A019E20DE005C0884005E088A01F5
:100CD000B320DE00DF0064005E085F048A110A12A0
:100CE0000319742E1130E4008A013B216400660868
:100CF000FF3C8A110A12031D7F2E1330E4008A0183
:100D00003B2110148A013B2164008A110A126918E0
:100D1000912E3230A000A1010730840010308A01EA
:100D20005A208A013B21E6018A013B218A013B21AD
:100D300064008A110A12691CA02E8A150A12182052
:100D40008A013B218A013B218A0184298A013B21B6
:100D500010108A013B2164006508003C8A110A12C8
:100D6000031DE62E8A013B218F018A013B218E0162
:100D70008A013B21E8018A013B2110148A013B21B1
:100D8000E9148A013B21E6018A013B21E601640066
:100D90000B3066028A110A120318E42E8A013B21E5
:100DA0000310660D383E84008001840A80018A01A8
:100DB0003B2166084C3E840080018A013B21E60A03
:100DC0008A110A12031DC72E8A013B218A013B2189
:100DD0006400013065028A150A12031CCA288A01C0
:100DE0003B21FF306507DC00FF300318013EDD00CA
:100DF0005C08383E84000E0880008A013B21FF30E9
:100E00006507DC00FF300318013EDD005C08393E59
:100E100084000F0880008A013B21FF306507DC0059
:100E2000FF300318013EDD005C084C3E840068087A
:100E300080008A013B21E001E1018A013B21DA01C6
:100E4000DB018A013B21E201E3018A013B21E4014C
:100E50008A013B210130E6008A013B210130E60096
:100E60006400660865028A110A12031C722F8A0147
:100E70003B21FF306607DC00FF300318013EDD0038
:100E80005C08383E84000008DC005C08E0070318BA
:100E9000E10A8A013B21FF306607DC00FF300318BE
:100EA000013EDD005C08393E84000008DC005C087F
:100EB000DA070318DB0A8A013B21FF306607DC00F2
:100EC000FF300318013EDD005C084C3E8400000842
:100ED000DC005C08E4078A013B21E60A8A110A1259
:100EE000031D302F8A013B216008A0006108A1008A
:100EF0006508A200A3018A01BE20E2008A013B210D
:100F00005A08A0005B08A1006508A200A3018A019D
:100F1000BE20E3008A013B216408A000A10165080E
:100F2000A200A3018A01BE20E4008A013B216400E3
:100F3000143064028A110A12031CAA2F8A013B2171
:100F40001330E4008A013B21FA30E200FF30E30075
:100F50008A013B218A013B218F018A013B218E01BD
:100F60008A013B21E8018A013B2110148A013B21BF
:100F7000E9148A013B21CC30A6000C30A70064089C
:100F8000A200A3018A01DA20E0002508E1008A011D
:100F90003B216208A0006308A1001430A200A30155
:100FA0008A01BE20DC002108DD005C08E0075D0846
:100FB0000318013EE1078A013B216008DA0061085D
:100FC000DB008A013B2164008A150A12691CC328D0
:100FD0008A013B219E018A013B2183169E018312D7
:100FE0008A013B219F148A013B2101308A01712033
:100FF0008A013B2164008A110A120C1FF82F8A0112
:101000003B210C138A013B21FF30A600A7011E08DB
:10101000A200A3018A01DA20DC002508DD00831686
:101020001E0883125C07D6005D080318013ED70036
:101030008A013B218A013B215608A0005708A100E4
:10104000A301D2308A0195208A150A12031D3B287C
:101050008A013B216008A0006108A1000330A200C2
:10106000A3018A01BE20DA002108DB008A013B21AE
:101070008A150A12C1285608A0005708A10002309C
:10108000A30058308A0195208A150A12031D54289E
:101090008A013B210310610CDB00600CDA008A013D
:1010A0003B218A150A12C1285608A0005708A10042
:1010B0000330A3009D308A0195208A150A12031D72
:1010C00080288A013B216008A0006108A10003304C
:1010D000A200A3018A01BE20DC002108DD005C081B
:1010E000A6005D08A7000230A200A3018A01DA2051
:1010F000DA002508DB008A013B218A150A12C12883
:101100005608A0005708A1000330A300D4308A017C
:1011100095208A150A12031DAC288A013B2160081C
:10112000A0006108A1000430A200A3018A01BE2032
:10113000DC002108DD005C08A6005D08A700033084
:10114000A200A3018A01DA20DA002508DB008A0167
:101150003B218A150A12C1285608A0005708A10091
:101160000330A300D4308A01A0208A150A12031D7F
:10117000C1288A013B216008DA006108DB008A018E
:101180003B218A013B218A013B218A150A12DA2080
:101190008A013B218A013B21E50A8A013B21640047
:1011A00065080B3C8A150A12031DD728E5018A0140
:1011B0003B2108008A013B218A013B215A08A000FB
:1011C0005B08A1001430A300FF308A0195208A1526
:1011D0000A12031DF4288A013B211E30E7008A0110
:1011E0003B218A150A16472C5A08A0005B08A1006B
:1011F0001430A300F4308A0195208A150A12031DC9
:101200000A298A013B211F30E7008A013B218A1508
:101210000A16472C5A08A0005B08A1001430A3004E
:10122000EB308A0195208A150A12031D20298A01B4
:101230003B212030E7008A013B218A150A16472C02
:101240005A08A0005B08A1001430A300E4308A0112
:1012500095208A150A12031D36298A013B21213067
:10126000E7008A013B218A150A16472C5A08A0007C
:101270005B08A1001430A300E0308A0195208A1594
:101280000A12031D4C298A013B212230E7008A0102
:101290003B218A150A16472C5A08A0005B08A100BA
:1012A0001430A300DF308A0195208A150A12031D2D
:1012B00062298A013B212330E7008A013B218A15FC
:1012C0000A16472C5A08A0005B08A1001430A3009E
:1012D000DF308A0195208A150A12031D78298A01B8
:1012E0003B212430E7008A013B218A150A16472C4E
:1012F0005A08A0005B08A1001430A300E2308A0164
:1013000095208A150A12031D8E298A013B2125305A
:10131000E7008A013B218A150A16472C5A08A000CB
:101320005B08A1001430A300E7308A0195208A15DC
:101330000A12031DA4298A013B212630E7008A01F5
:101340003B218A150A16472C5A08A0005B08A10009
:101350001430A300EE308A0195208A150A12031D6D
:10136000BA298A013B212730E7008A013B218A15EF
:101370000A16472C5A08A0005B08A1001430A300ED
:10138000F5308A0195208A150A12031DD0298A0199
:101390003B212830E7008A013B218A150A16472C99
:1013A0005A08A0005B08A1001430A300FE308A0197
:1013B00095208A150A12031DE6298A013B2129304E
:1013C000E7008A013B218A150A16472C5A08A0001B
:1013D0005B08A1001530A30009308A0195208A1509
:1013E0000A12031DFC298A013B212A30E7008A01E9
:1013F0003B218A150A16472C5A08A0005B08A10059
:101400001530A30014308A0195208A150A12031D95
:10141000122A8A013B212B30E7008A013B218A15E1
:101420000A16472C5A08A0005B08A1001530A3003B
:1014300021308A0195208A150A12031D282A8A0163
:101440003B212C30E7008A013B218A150A16472CE4
:101450005A08A0005B08A1001530A3002E308A01B5
:1014600095208A150A12031D3E2A8A013B212D3040
:10147000E7008A013B218A150A16472C5A08A0006A
:101480005B08A1001530A30039308A0195208A1528
:101490000A12031D542A8A013B212E30E7008A01DB
:1014A0003B218A150A16472C5A08A0005B08A100A8
:1014B0001530A30046308A0195208A150A12031DB3
:1014C0006A2A8A013B212F30E7008A013B218A15D5
:1014D0000A16472C5A08A0005B08A1001530A3008B
:1014E00054308A0195208A150A12031D802A8A0128
:1014F0003B213030E7008A013B218A150A16472C30
:101500005A08A0005B08A1001530A30063308A01CF
:1015100095208A150A12031D962A8A013B21313033
:10152000E7008A013B218A150A16472C5A08A000B9
:101530005B08A1001530A30072308A0195208A153E
:101540000A12031DAC2A8A013B213230E7008A01CE
:101550003B218A150A16472C5A08A0005B08A100F7
:101560001530A30082308A0195208A150A12031DC6
:10157000C22A8A013B213330E7008A013B218A15C8
:101580000A16472C5A08A0005B08A1001530A300DA
:1015900090308A0195208A150A12031DD82A8A01E3
:1015A0003B213430E7008A013B218A150A16472C7B
:1015B0005A08A0005B08A1001530A3009D308A01E5
:1015C00095208A150A12031DEE2A8A013B21353027
:1015D000E7008A013B218A150A16472C5A08A00009
:1015E0005B08A1001530A300A6308A0195208A155A
:1015F0000A12031D042B8A013B213630E7008A01C1
:101600003B218A150A16472C5A08A0005B08A10046
:101610001530A300A8308A0195208A150A12031DEF
:101620001A2B8A013B213730E7008A013B218A15BA
:101630000A16472C5A08A0005B08A1001530A30029
:10164000C0308A0195208A150A12031D302B8A01A9
:101650003B213830E7008A013B218A150A16472CC6
:101660005A08A0005B08A1001530A300DE308A01F3
:1016700095208A150A12031D462B8A013B21393019
:10168000E7008A013B218A150A16472C5A08A00058
:101690005B08A1001530A300EC308A0195208A1563
:1016A0000A12031D5C2B8A013B213A30E7008A01B4
:1016B0003B218A150A16472C5A08A0005B08A10096
:1016C0001530A300FB308A0195208A150A12031DEC
:1016D000722B8A013B213B30E7008A013B218A15AE
:1016E0000A16472C5A08A0005B08A1001630A30078
:1016F0000C308A0195208A150A12031D882B8A0155
:101700003B213C30E7008A013B218A150A16472C11
:101710005A08A0005B08A1001630A3001D308A0102
:1017200095208A150A12031D9E2B8A013B213D300C
:10173000E7008A013B218A150A16472C5A08A000A7
:101740005B08A1001630A3002E308A0195208A156F
:101750000A12031DB42B8A013B213E30E7008A01A7
:101760003B218A150A16472C5A08A0005B08A100E5
:101770001630A30040308A0195208A150A12031DF5
:10178000CA2B8A013B213F30E7008A013B218A15A1
:101790000A16472C5A08A0005B08A1001630A300C7
:1017A00050308A0195208A150A12031DE02B8A0108
:1017B0003B214030E7008A013B218A150A16472C5D
:1017C0005A08A0005B08A1001630A30060308A010F
:1017D00095208A150A12031DF62B8A013B21413000
:1017E000E7008A013B218A150A16472C5A08A000F7
:1017F0005B08A1001630A30072308A0195208A157B
:101800000A12031D0C2C8A013B214230E7008A0199
:101810003B218A150A16472C5A08A0005B08A10034
:101820001630A30084308A0195208A150A12031D00
:10183000222C8A013B214330E7008A013B218A1593
:101840000A16472C5A08A0005B08A1001630A30016
:1018500097308A0195208A150A12031D382C8A01B7
:101860003B214430E7008A013B218A150A16472CA8
:101870005A08A0005B08A1001630A300A7308A0117
:1018800095208A150A12031D4E2C8A013B214530F2
:10189000E7008A013B218A150A16472C5A08A00046
:1018A0005B08A1001630A300B8308A0195208A1584
:1018B0000A12031D642C8A013B214630E7008A018D
:1018C0003B218A150A16472C5A08A0005B08A10084
:1018D0001630A300CC308A0195208A150A12031D08
:1018E0007A2C8A013B214730E7008A013B218A1587
:1018F0000A16472C5A08A0005B08A1001630A30066
:10190000DF308A0195208A150A12031D902C8A0166
:101910003B214830E7008A013B218A150A16472CF3
:101920005A08A0005B08A1001630A300F3308A011A
:1019300095208A150A12031DA62C8A013B214930E5
:10194000E7008A013B218A150A16472C5A08A00095
:101950005B08A1001730A30007308A0195208A1583
:101960000A12031DBC2C8A013B214A30E7008A0180
:101970003B218A150A16472C5A08A0005B08A100D3
:101980001730A30018308A0195208A150A12031D0A
:10199000D22C8A013B214B30E7008A013B218A157A
:1019A0000A16472C5A08A0005B08A1001730A300B4
:1019B0002A308A0195208A150A12031DE82C8A0113
:1019C0003B214C30E7008A013B218A150A16472C3F
:1019D0005A08A0005B08A1001730A3003F308A011D
:1019E00095208A150A12031DFE2C8A013B214D30D9
:1019F000E7008A013B218A150A16472C5A08A000E5
:101A00005B08A1001730A30054308A0195208A1585
:101A10000A12031D142D8A013B214E30E7008A0172
:101A20003B218A150A16472C5A08A0005B08A10022
:101A30001730A3006A308A0195208A150A12031D07
:101A40002A2D8A013B214F30E7008A013B218A156C
:101A50000A16472C5A08A0005B08A1001730A30003
:101A60007F308A0195208A150A12031D402D8A01B4
:101A70003B215030E7008A013B218A150A16472C8A
:101A80005A08A0005B08A1001730A30092308A0119
:101A900095208A150A12031D562D8A013B215130CB
:101AA000E7008A013B218A150A16472C5A08A00034
:101AB0005B08A1001730A300A5308A0195208A1584
:101AC0000A12031D6C2D8A013B215230E7008A0166
:101AD0003B218A150A16472C5A08A0005B08A10072
:101AE0001730A300BB308A0195208A150A12031D06
:101AF000822D8A013B215330E7008A013B218A1560
:101B00000A16472C5A08A0005B08A1001730A30052
:101B1000D1308A0195208A150A12031D982D8A0159
:101B20003B215430E7008A013B218A150A16472CD5
:101B30005A08A0005B08A1001730A300E7308A0113
:101B400095208A150A12031DAE2D8A013B215530BE
:101B5000E7008A013B218A150A16472C5A08A00083
:101B60005B08A1001730A300FE308A0195208A157A
:101B70000A12031DC42D8A013B215630E7008A0159
:101B80003B218A150A16472C5A08A0005B08A100C1
:101B90001830A30011308A0195208A150A12031DFE
:101BA000DA2D8A013B215730E7008A013B218A1553
:101BB0000A16472C5A08A0005B08A1001830A300A1
:101BC00025308A0195208A150A12031DF02D8A01FD
:101BD0003B215830E7008A013B218A150A16472C21
:101BE0005A08A0005B08A1001830A3003C308A010D
:101BF00095208A150A12031D062E8A013B215930B1
:101C0000E7008A013B218A150A16472C5A08A000D2
:101C10005B08A1001830A30055308A0195208A1571
:101C20000A12031D1C2E8A013B215A30E7008A014B
:101C30003B218A150A16472C5A08A0005B08A10010
:101C40001830A3006D308A0195208A150A12031DF1
:101C5000322E8A013B215B30E7008A013B218A1545
:101C60000A16472C5A08A0005B08A1001830A300F0
:101C700085308A0195208A150A12031D482E8A0193
:101C80003B215C30E7008A013B218A150A16472C6C
:101C90005A08A0005B08A1001830A3009B308A01FD
:101CA00095208A150A12031D5E2E8A013B215D30A4
:101CB000E7008A013B218A150A16472C5A08A00022
:101CC0005B08A1001830A300B0308A0195208A1566
:101CD0000A12031D742E8A013B215E30E7008A013F
:101CE0003B218A150A16472C5A08A0005B08A10060
:101CF0001830A300C8308A0195208A150A12031DE6
:101D00008A2E8A013B215F30E7008A013B218A1538
:101D10000A16472C5A08A0005B08A1001830A3003F
:101D2000E1308A0195208A150A12031DA02E8A012E
:101D30003B216030E7008A013B218A150A16472CB7
:101D40005A08A0005B08A1001830A300FC308A01EB
:101D500095208A150A12031DB62E8A013B21613097
:101D6000E7008A013B218A150A16472C5A08A00071
:101D70005B08A1001930A30013308A0195208A1551
:101D80000A12031DCC2E8A013B216230E7008A0132
:101D90003B218A150A16472C5A08A0005B08A100AF
:101DA0001930A30029308A0195208A150A12031DD3
:101DB000E22E8A013B216330E7008A013B218A152C
:101DC0000A16472C5A08A0005B08A1001930A3008E
:101DD00043308A0195208A150A12031DF82E8A01C4
:101DE0003B216430E7008A013B218A150A16472C03
:101DF0005A08A0005B08A1001930A3005E308A01D8
:101E000095208A150A12031D0E2F8A013B21653089
:101E1000E7008A013B218A150A16472C5A08A000C0
:101E20005B08A1001930A3007A308A0195208A1539
:101E30000A12031D242F8A013B216630E7008A0124
:101E40003B218A150A16472C5A08A0005B08A100FE
:101E50001930A30097308A0195208A150A12031DB4
:101E60003A2F8A013B216730E7008A013B218A151E
:101E70000A16472C5A08A0005B08A1001930A300DD
:101E8000AF308A0195208A150A12031D502F8A014E
:101E90003B216830E7008A013B218A150A16472C4E
:101EA0005A08A0005B08A1001930A300C8308A01BD
:101EB00095208A150A12031D662F8A013B2169307D
:101EC000E7008A013B218A150A16472C5A08A00010
:101ED0005B08A1001930A300E4308A0195208A151F
:101EE0000A12031D7C2F8A013B216A30E7008A0118
:101EF0003B218A150A16472C5A08A0005B08A1004E
:101F00001A30A30001308A0195208A150A12031D98
:101F1000922F8A013B216B30E7008A013B218A1511
:101F20000A16472C5A08A0005B08A1001A30A3002B
:101F30001E308A0195208A150A12031DA82F8A01D6
:101F40003B216C30E7008A013B218A150A16472C99
:101F50005A08A0005B08A1001A30A3003C308A0197
:101F600095208A150A12031DBE2F8A013B216D3070
:101F7000E7008A013B218A150A16472C5A08A0005F
:101F80005B08A1001A30A30057308A0195208A15FA
:101F90000A12031DD42F8A013B216E30E7008A010B
:101FA0003B218A150A16472C5A08A0005B08A1009D
:101FB0001A30A30073308A0195208A150A12031D76
:101FC000EA2F8A013B216F30E7008A013B218A1505
:101FD0000A16472C5A08A0005B08A1001A30A3007B
:101FE00093308A0195208A110A16031D00288A0160
:101FF0003B217030E7008A013B218A150A16472CE5
:102000005A08A0005B08A1001A30A300B3308A016F
:1020100095208A110A16031D16288A013B2171306A
:10202000E7008A013B218A150A16472C5A08A000AE
:102030005B08A1001A30A300D2308A0195208A11D2
:102040000A16031D2C288A013B217230E7008A0101
:102050003B218A150A16472C5A08A0005B08A100EC
:102060001A30A300F3308A0195208A110A16031D45
:1020700042288A013B217330E7008A013B218A15FF
:102080000A16472C5A08A0005B08A1001B30A300C9
:1020900010308A0195208A110A16031D58288A01DA
:1020A0003B217430E7008A013B218A150A16472C30
:1020B0005A08A0005B08A1001B30A3002D308A0144
:1020C00095208A110A16031D6E288A013B2175305E
:1020D000E7008A013B218A150A16472C5A08A000FE
:1020E0005B08A1001B30A3004F308A0195208A11A4
:1020F0000A16031D84288A013B217630E7008A01F5
:102100003B218A150A16472C5A08A0005B08A1003B
:102110001B30A30072308A0195208A110A16031D14
:102120009A288A013B217730E7008A013B218A15F2
:102130000A16472C5A08A0005B08A1001B30A30018
:1021400095308A0195208A110A16031DB0288A014C
:102150003B217830E7008A013B218A150A16472C7B
:102160005A08A0005B08A1001B30A300B8308A0108
:1021700095208A110A16031DC6288A013B21793051
:10218000E7008A013B218A150A16472C5A08A0004D
:102190005B08A1001B30A300D7308A0195208A116B
:1021A0000A16031DDC288A013B217A30E7008A01E8
:1021B0003B218A150A16472C5A08A0005B08A1008B
:1021C0001B30A300F6308A0195208A110A16031DE0
:1021D000F2288A013B217B30E7008A013B218A15E6
:1021E0000A16472C5A08A0005B08A1001C30A30067
:1021F0001B308A0195208A110A16031D08298A01BD
:102200003B217C30E7008A013B218A150A16472CC6
:102210005A08A0005B08A1001C30A30040308A01CE
:1022200095208A110A16031D1E298A013B217D3043
:10223000E7008A013B218A150A16472C5A08A0009C
:102240005B08A1001C30A30066308A0195208A112A
:102250000A16031D34298A013B217E30E7008A01DA
:102260003B218A150A16472C5A08A0005B08A100DA
:102270001C30A3008C308A0195208A110A16031D98
:102280004A298A013B217F30E7008A013B218A15D8
:102290000A16472C5A08A0005B08A1001C30A300B6
:1022A000AF308A0195208A110A16031D60298A0120
:1022B0003B218030E7008A013B218A150A16472C12
:1022C0005A08A0005B08A1001C30A300D2308A018C
:1022D00095208A110A16031D76298A013B21813037
:1022E000E7008A013B218A150A16472C5A08A000EC
:1022F0005B08A1001C30A300FB308A0195208A11E5
:102300000A16031D8C298A013B218230E7008A01CD
:102310003B218A150A16472C5A08A0005B08A10029
:102320001D30A30024308A0195208A110A16031D4E
:10233000A2298A013B218330E7008A013B218A15CB
:102340000A16472C5A08A0005B08A1001D30A30004
:102350004F308A0195208A110A16031DB8298A0177
:102360003B218430E7008A013B218A150A16472C5D
:102370005A08A0005B08A1001D30A30075308A0137
:1023800095208A110A16031DCE298A013B2185302A
:10239000E7008A013B218A150A16472C5A08A0003B
:1023A0005B08A1001D30A3009B308A0195208A1193
:1023B0000A16031DE4298A013B218630E7008A01C1
:1023C0003B218A150A16472C5A08A0005B08A10079
:1023D0001D30A300C7308A0195208A110A16031DFB
:1023E000FA298A013B218730E7008A013B218A15BF
:1023F0000A16472C5A08A0005B08A1001D30A30054
:10240000F4308A0195208A110A16031D102A8A01C8
:102410003B218830E7008A013B218A150A16472CA8
:102420005A08A0005B08A1001E30A30021308A01D9
:1024300095208A110A16031D262A8A013B2189301C
:10244000E7008A013B218A150A16472C5A08A0008A
:102450005B08A1001E30A30051308A0195208A112B
:102460000A16031D3C2A8A013B218A30E7008A01B3
:102470003B218A150A16472C5A08A0005B08A100C8
:102480001E30A3007C308A0195208A110A16031D94
:10249000522A8A013B218B30E7008A013B218A15B1
:1024A0000A16472C5A08A0005B08A1001E30A300A2
:1024B000A6308A0195208A110A16031D682A8A010E
:1024C0003B218C30E7008A013B218A150A16472CF4
:1024D0005A08A0005B08A1001E30A300D7308A0173
:1024E00095208A110A16031D7E2A8A013B218D3010
:1024F000E7008A013B218A150A16472C5A08A000DA
:102500005B08A1001F30A30009308A0195208A11C1
:102510000A16031D942A8A013B218E30E7008A01A6
:102520003B218A150A16472C5A08A0005B08A10017
:102530001F30A3003C308A0195208A110A16031D22
:10254000AA2A8A013B218F30E7008A013B218A15A4
:102550000A16472C5A08A0005B08A1001F30A300F0
:1025600070308A0195208A110A16031DC02A8A013B
:102570003B219030E7008A013B218A150A16472C3F
:102580005A08A0005B08A1001F30A3009E308A01FA
:1025900095208A110A16031DD62A8A013B21913003
:1025A000E7008A013B218A150A16472C5A08A00029
:1025B0005B08A1001F30A300CD308A0195208A114D
:1025C0000A16031DEC2A8A013B219230E7008A019A
:1025D0003B218A150A16472C5A08A0005B08A10067
:1025E0002030A30003308A0195208A110A16031DAA
:1025F000022B8A013B219330E7008A013B218A1597
:102600000A16472C5A08A0005B08A1002030A3003E
:1026100039308A0195208A110A16031D182B8A0168
:102620003B219430E7008A013B218A150A16472C8A
:102630005A08A0005B08A1002030A30072308A0174
:1026400095208A110A16031D2E2B8A013B219530F5
:10265000E7008A013B218A150A16472C5A08A00078
:102660005B08A1002030A300AC308A0195208A11BC
:102670000A16031D442B8A013B219630E7008A018C
:102680003B218A150A16472C5A08A0005B08A100B6
:102690002030A300DF308A0195208A110A16031D1D
:1026A0005A2B8A013B219730E7008A013B218A158A
:1026B0000A16472C5A08A0005B08A1002130A3008D
:1026C00013308A0195208A110A16031D702B8A0186
:1026D0003B219830E7008A013B218A150A16472CD6
:1026E0005A08A0005B08A1002130A3004F308A01E6
:1026F00095208A110A16031D862B8A013B219930E9
:10270000E7008A013B218A150A16472C5A08A000C7
:102710005B08A1002130A3008C308A0195208A112A
:102720000A16031D9C2B8A013B219A30E7008A017F
:102730003B218A150A16472C5A08A0005B08A10005
:102740002130A300CA308A0195208A110A16031D80
:10275000B22B8A013B219B30E7008A013B218A157D
:102760000A16472C5A08A0005B08A1002230A300DB
:102770000A308A0195208A110A16031DC82B8A0186
:102780003B219C30E7008A013B218A150A16472C21
:102790005A08A0005B08A1002230A30042308A0141
:1027A00095208A110A16031DDE2B8A013B219D30DC
:1027B000E7008A013B218A150A16472C5A08A00017
:1027C0005B08A1002230A3007B308A0195208A118A
:1027D0000A16031DF42B8A013B219E30E7008A0173
:1027E0003B218A150A16472C5A08A0005B08A10055
:1027F0002230A300BF308A0195208A110A16031DDA
:102800000A2C8A013B219F30E7008A013B218A156F
:102810000A16472C5A08A0005B08A1002330A30029
:1028200005308A0195208A110A16031D202C8A0181
:102830003B21A030E7008A013B218A150A16472C6C
:102840005A08A0005B08A1002330A3004D308A0184
:1028500095208A110A16031D362C8A013B21A130CE
:10286000E7008A013B218A150A16472C5A08A00066
:102870005B08A1002330A3008D308A0195208A11C6
:102880000A16031D4C2C8A013B21A230E7008A0165
:102890003B218A150A16472C5A08A0005B08A100A4
:1028A0002330A300CE308A0195208A110A16031D19
:1028B000622C8A013B21A330E7008A013B218A1563
:1028C0000A16472C5A08A0005B08A1002430A30078
:1028D00019308A0195208A110A16031D782C8A0165
:1028E0003B21A430E7008A013B218A150A16472CB8
:1028F0005A08A0005B08A1002430A30068308A01B8
:1029000095208A110A16031D8E2C8A013B21A530C1
:10291000E7008A013B218A150A16472C5A08A000B5
:102920005B08A1002430A300B8308A0195208A11E9
:102930000A16031DA42C8A013B21A630E7008A0158
:102940003B218A150A16472C5A08A0005B08A100F3
:102950002530A30009308A0195208A110A16031D2B
:10296000BA2C8A013B21A730E7008A013B218A1556
:102970000A16472C5A08A0005B08A1002530A300C6
:102980004F308A0195208A110A16031DD02C8A0126
:102990003B21A830E7008A013B218A150A16472C03
:1029A0005A08A0005B08A1002530A30099308A01D5
:1029B00095208A110A16031DE62C8A013B21A930B5
:1029C000E7008A013B218A150A16472C5A08A00005
:1029D0005B08A1002530A300EF308A0195208A1101
:1029E0000A16031DFC2C8A013B21AA30E7008A014C
:1029F0003B218A150A16472C5A08A0005B08A10043
:102A00002630A30046308A0195208A110A16031D3C
:102A1000122D8A013B21AB30E7008A013B218A1548
:102A20000A16472C5A08A0005B08A1002630A30014
:102A30009F308A0195208A110A16031D282D8A01CC
:102A40003B21AC30E7008A013B218A150A16472C4E
:102A50005A08A0005B08A1002630A300FB308A01C1
:102A600095208A110A16031D3E2D8A013B21AD30A7
:102A7000E7008A013B218A150A16472C5A08A00054
:102A80005B08A1002730A3004D308A0195208A11F0
:102A90000A16031D542D8A013B21AE30E7008A013E
:102AA0003B218A150A16472C5A08A0005B08A10092
:102AB0002730A300A1308A0195208A110A16031D30
:102AC0006A2D8A013B21AF30E7008A013B218A153C
:102AD0000A16472C5A08A0005B08A1002830A30062
:102AE00003308A0195208A110A16031D802D8A0160
:102AF0003B21B030E7008A013B218A150A16472C9A
:102B00005A08A0005B08A1002830A30067308A01A2
:102B100095208A110A16031D962D8A013B21B1309A
:102B2000E7008A013B218A150A16472C5A08A000A3
:102B30005B08A1002830A300CE308A0195208A11BD
:102B40000A16031DAC2D8A013B21B230E7008A0131
:102B50003B218A150A16472C5A08A0005B08A100E1
:102B60002930A30039308A0195208A110A16031DE5
:102B7000C22D8A013B21B330E7008A013B218A152F
:102B80000A16472C5A08A0005B08A1002930A300B0
:102B900099308A0195208A110A16031DD82D8A01C1
:102BA0003B21B430E7008A013B218A150A16472CE5
:102BB0005A08A0005B08A1002930A300FC308A015C
:102BC00095208A110A16031DEE2D8A013B21B5308E
:102BD000E7008A013B218A150A16472C5A08A000F3
:102BE0005B08A1002A30A3006F308A0195208A116A
:102BF0000A16031D042E8A013B21B630E7008A0124
:102C00003B218A150A16472C5A08A0005B08A10030
:102C10002A30A300E6308A0195208A110A16031D86
:102C20001A2E8A013B21B730E7008A013B218A1521
:102C30000A16472C5A08A0005B08A1002B30A300FD
:102C40005F308A0195208A110A16031D302E8A01F1
:102C50003B21B830E7008A013B218A150A16472C30
:102C60005A08A0005B08A1002B30A300DB308A01CA
:102C700095208A110A16031D462E8A013B21B93080
:102C8000E7008A013B218A150A16472C5A08A00042
:102C90005B08A1002C30A3004B308A0195208A11DB
:102CA0000A16031D5C2E8A013B21BA30E7008A0117
:102CB0003B218A150A16472C5A08A0005B08A10080
:102CC0002C30A300BD308A0195208A110A16031DFD
:102CD000722E8A013B21BB30E7008A013B218A1515
:102CE0000A16472C5A08A0005B08A1002D30A3004B
:102CF00042308A0195208A110A16031D882E8A0106
:102D00003B21BC30E7008A013B218A150A16472C7B
:102D10005A08A0005B08A1002D30A300CB308A0127
:102D200095208A110A16031D9E2E8A013B21BD3073
:102D3000E7008A013B218A150A16472C5A08A00091
:102D40005B08A1002E30A30058308A0195208A111B
:102D50000A16031DB42E8A013B21BE30E7008A010A
:102D60003B218A150A16472C5A08A0005B08A100CF
:102D70002E30A300EA308A0195208A110A16031D1D
:102D8000CA2E8A013B21BF30E7008A013B218A1508
:102D90000A16472C5A08A0005B08A1002F30A30098
:102DA0006E308A0195208A110A16031DE02E8A01D1
:102DB0003B21C030E7008A013B218A150A16472CC7
:102DC0005A08A0005B08A1002F30A300F7308A0149
:102DD00095208A110A16031DF62E8A013B21C13067
:102DE000E7008A013B218A150A16472C5A08A000E1
:102DF0005B08A1003030A30096308A0195208A112B
:102E00000A16031D0C2F8A013B21C230E7008A01FC
:102E10003B218A150A16472C5A08A0005B08A1001E
:102E20003130A3003A308A0195208A110A16031D19
:102E3000222F8A013B21C330E7008A013B218A15FA
:102E40000A16472C5A08A0005B08A1003130A300E5
:102E5000E4308A0195208A110A16031D382F8A0151
:102E60003B21C430E7008A013B218A150A16472C12
:102E70005A08A0005B08A1003230A3007B308A0111
:102E800095208A110A16031D4E2F8A013B21C53059
:102E9000E7008A013B218A150A16472C5A08A00030
:102EA0005B08A1003330A30018308A0195208A11F5
:102EB0000A16031D642F8A013B21C630E7008A01F0
:102EC0003B218A150A16472C5A08A0005B08A1006E
:102ED0003330A300CF308A0195208A110A16031DD2
:102EE0007A2F8A013B21C730E7008A013B218A15EE
:102EF0000A16472C5A08A0005B08A1003430A30032
:102F00008C308A0195208A110A16031D902F8A01A0
:102F10003B21C830E7008A013B218A150A16472C5D
:102F20005A08A0005B08A1003530A30050308A0188
:102F300095208A110A16031DA62F8A013B21C9304C
:102F4000E7008A013B218A150A16472C5A08A0007F
:102F50005B08A1003630A3001A308A0195208A113F
:102F60000A16031DBC2F8A013B21CA30E7008A01E3
:102F70003B218A150A16472C5A08A0005B08A100BD
:102F80003630A300D0308A0195208A110A16031D1D
:102F9000D22F8A013B21CB30E7008A013B218A15E1
:102FA0000A16472C5A08A0005B08A1003730A3007E
:102FB0008A308A0195208A110A16031DE82F8A019A
:102FC0003B21CC30E7008A013B218A150A16472CA9
:102FD0005A08A0005B08A1003830A30068308A01BD
:102FE00095208A110A16031DFE2F8A013B21CD3040
:102FF000E7008A013B218A150A16472C5A08A000CF
:103000005B08A1003930A3004A308A0195208A1557
:103010000A16031D14288A013B21CE30E7008A01DD
:103020003B218A150A16472C5A08A0005B08A1000C
:103030003A30A30034308A0195208A150A16031D00
:103040002A288A013B21CF30E7008A013B218A15DB
:103050000A16472C5A08A0005B08A1003B30A300C9
:103060002C308A0195208A150A16031D40288A01F2
:103070003B21D030E7008A013B218A150A16472CF4
:103080005A08A0005B08A1003C30A3000D308A0163
:1030900095208A150A16031D56288A013B21D13036
:1030A000E7008A013B218A150A16472C5A08A0001E
:1030B0005B08A1003C30A300F6308A0195208A15F8
:1030C0000A16031D6C288A013B21D230E7008A01D1
:1030D0003B218A150A16472C5A08A0005B08A1005C
:1030E0003E30A3000A308A0195208A150A16031D76
:1030F00082288A013B21D330E7008A013B218A15CF
:103100000A16472C5A08A0005B08A1003F30A30014
:1031100025308A0195208A150A16031D98288A01F0
:103120003B21D430E7008A013B218A150A16472C3F
:103130005A08A0005B08A1004030A3004C308A016F
:1031400095208A150A16031DAE288A013B21D53029
:10315000E7008A013B218A150A16472C5A08A0006D
:103160005B08A1004130A3007E308A0195208A15BA
:103170000A16031DC4288A013B21D630E7008A01C4
:103180003B218A150A16472C5A08A0005B08A100AB
:103190004230A30095308A0195208A150A16031D36
:1031A000DA288A013B21D730E7008A013B218A15C2
:1031B0000A16472C5A08A0005B08A1004330A30060
:1031C000B7308A0195208A150A16031DF0288A0156
:1031D0003B21D830E7008A013B218A150A16472C8B
:1031E0005A08A0005B08A1004530A3000B308A01FB
:1031F00095208A150A16031D06298A013B21D9301C
:10320000E7008A013B218A150A16472C5A08A000BC
:103210005B08A1004630A3006E308A0195208A1514
:103220000A16031D1C298A013B21DA30E7008A01B6
:103230003B218A150A16472C5A08A0005B08A100FA
:103240004730A300E1308A0195208A150A16031D34
:1032500032298A013B21DB30E7008A013B218A15B4
:103260000A16472C5A08A0005B08A1004930A300A9
:1032700063308A0195208A150A16031D48298A01A0
:103280003B21DC30E7008A013B218A150A16472CD6
:103290005A08A0005B08A1004A30A300C3308A018D
:1032A00095208A150A16031D5E298A013B21DD300F
:1032B000E7008A013B218A150A16472C5A08A0000C
:1032C0005B08A1004C30A30035308A0195208A1597
:1032D0000A16031D74298A013B21DE30E7008A01AA
:1032E0003B218A150A16472C5A08A0005B08A1004A
:1032F0004D30A300EB308A0195208A150A16031D74
:103300008A298A013B21DF30E7008A013B218A15A7
:103310000A16472C5A08A0005B08A1004F30A300F2
:10332000B7308A0195208A150A16031DA0298A0143
:103330003B21E030E7008A013B218A150A16472C21
:103340005A08A0005B08A1005130A30096308A0102
:1033500095208A150A16031DB6298A013B21E13002
:10336000E7008A013B218A150A16472C5A08A0005B
:103370005B08A1005330A3004C308A0195208A15C8
:103380000A16031DCC298A013B21E230E7008A019D
:103390003B218A150A16472C5A08A0005B08A10099
:1033A0005530A30018308A0195208A150A16031D8E
:1033B000E2298A013B21E330E7008A013B218A159B
:1033C0000A16472C5A08A0005B08A1005730A3003A
:1033D00042308A0195208A150A16031DF8298A01B0
:1033E0003B21E430E7008A013B218A150A16472C6D
:1033F0005A08A0005B08A1005930A30088308A0158
:1034000095208A150A16031D0E2A8A013B21E530F4
:10341000E7008A013B218A150A16472C5A08A000AA
:103420005B08A1005B30A300EC308A0195208A156F
:103430000A16031D242A8A013B21E630E7008A018F
:103440003B218A150A16472C5A08A0005B08A100E8
:103450005E30A30075308A0195208A150A16031D77
:103460003A2A8A013B21E730E7008A013B218A158D
:103470000A16472C5A08A0005B08A1006030A30080
:10348000C9308A0195208A150A16031D502A8A011F
:103490003B21E830E7008A013B218A150A16472CB8
:1034A0005A08A0005B08A1006330A30042308A01E3
:1034B00095208A150A16031D662A8A013B21E930E8
:1034C000E7008A013B218A150A16472C5A08A000FA
:1034D0005B08A1006630A30037308A0195208A1569
:1034E0000A16031D7C2A8A013B21EA30E7008A0183
:1034F0003B218A150A16472C5A08A0005B08A10038
:103500006930A3005D308A0195208A150A16031DD3
:10351000922A8A013B21EB30E7008A013B218A1580
:103520000A16472C5A08A0005B08A1006C30A300C3
:10353000B1308A0195208A150A16031DA82A8A012E
:103540003B21EC30E7008A013B218A150A16472C03
:103550005A08A0005B08A1007030A3003B308A012C
:1035600095208A150A16031DBE2A8A013B21ED30DB
:10357000E7008A013B218A150A16472C5A08A00049
:103580005B08A1007330A30085308A0195208A155D
:103590000A16031DD42A8A013B21EE30E7008A0176
:1035A0003B218A150A16472C5A08A0005B08A10087
:1035B0007730A30009308A0195208A150A16031D69
:1035C000EA2A8A013B21EF30E7008A013B218A1574
:1035D0000A16472C5A08A0005B08A1007B30A30004
:1035E0004A308A0195208A150A16031D002B8A018C
:1035F0003B21F030E7008A013B218A150A16472C4F
:103600005A08A0005B08A1007F30A300D8308A01CF
:1036100095208A150A16031D162B8A013B21F130CD
:10362000E7008A013B218A150A16472C5A08A00098
:103630005B08A1008430A300B9308A0195208A1567
:103640000A16031D2C2B8A013B21F230E7008A0168
:103650003B218A150A16472C5A08A0005B08A100D6
:103660008930A300F5308A0195208A150A16031DBA
:10367000422B8A013B21F330E7008A013B218A1566
:103680000A16472C5A08A0005B08A1008E30A30040
:10369000D6308A0195208A150A16031D582B8A01F7
:1036A0003B21F430E7008A013B218A150A16472C9A
:1036B0005A08A0005B08A1009430A3001C308A01C6
:1036C00095208A150A16031D6E2B8A013B21F530C1
:1036D000E7008A013B218A150A16472C5A08A000E8
:1036E0005B08A1009A30A30098308A0195208A15C2
:1036F0000A16031D842B8A013B21F630E7008A015C
:103700003B218A150A16472C5A08A0005B08A10025
:10371000A130A3009C308A0195208A150A16031D4A
:103720009A2B8A013B21F730E7008A013B218A1559
:103730000A16472C5A08A0005B08A100A930A30074
:1037400033308A0195208A150A16031DB02B8A0191
:103750003B21F830E7008A013B218A150A16472CE5
:103760005A08A0005B08A100B130A3008B308A0189
:1037700095208A150A16031DC62B8A013B21F930B4
:10378000E7008A013B218A150A16472C5A08A00037
:103790005B08A100B930A3007A308A0195208A1510
:1037A0000A16031DDC2B8A013B21FA30E7008A014F
:1037B0003B218A150A16472C5A08A0005B08A10075
:1037C000C230A3000C308A0195208A150A16031D09
:1037D000F22B8A013B21FB30E7008A013B218A154D
:1037E0000A16472C5A08A0005B08A100CC30A300A1
:1037F000CC308A0195208A150A16031D082C8A01EF
:103800003B21FC30E7008A013B218A150A16472C30
:103810005A08A0005B08A100D830A300E1308A015B
:1038200095208A150A16031D1E2C8A013B21FD30A6
:10383000E7008A013B218A150A16472C5A08A00086
:103840005B08A100EE30A30052308A0195208A1552
:103850000A16031D342C8A013B21FE30E7008A0141
:103860003B218A150A16472C5A08A0005B08A100C4
:10387000EE30A30052308A019B208A150A16031DE0
:10388000472C8A013B21FF30E7008A013B218A0156
:103890003B216708A800FF30A200A30101308A0184
:1038A00005208A013B210800030183160C18FF3014
:1038B0008312DC0003010C18FF30DE005C0884007A
:1038C0005E088A01B320DE00DF0064005E085F044A
:1038D0008A150A160319972CE80A68086402031D62
:1038E000FF30FF3ADC006508003C031DFF30FF3A63
:1038F000DE005C0884005E088A01B320DE00DF0081
:1039000064005E085F048A150A160319882CE914FE
:1039100064001F3068028A150A16031C962C1010CA
:103920008F018E01E8011014E914E5010C10090063
:0C3930008A013B2163008A150A169A2CBC
:02400E0004208C
:02401000FF3F70
:00000001FF
