:020000040000FA
:02000000F728DF
:080008000800A9004030A0002F
:100010004230A1000F30A400A501BC20AA01210894
:10002000031919282A145520FC3E031C1928AA1468
:1000300055202003AB00280F2128FF30A400A50085
:100040002C282808A500A401A600A7012B0A031943
:100050002C28A200A301D620A90B45281708CF39C8
:10006000A41B2038241B10380C3897002508950055
:100070008316071183122B0883169200831212082D
:10008000FC392A0404389200F228A90B54281D08D0
:10009000CF39A41B2038241B10380C389D002508AC
:1000A0009B00831687103A28F228A10CA00CA10C03
:1000B000A00C0800B4006D20200821040319F228C8
:1000C000EC20841334088006640066286728A00AA0
:1000D0000319A10F64288006F228FF3A84178005CF
:1000E000F228A301A200FF30A207031CA307031CF0
:1000F000F2280330A100DF307F207328A101E83E01
:10010000A000A109FC30031C8828A007031885283B
:10011000A0076400A10F852820188E28A01C922813
:10012000000092280800A20003309F28A20001309E
:100130009F28A20006309F28A20004309F28A80014
:1001400023082102031DA6282208200204300318D8
:100150000130031902302805031DFF30F228003852
:10016000031DFF300405031DFF30F2280404031DA6
:10017000FF30F228A501A4011030A600210DA40D26
:10018000A50D2208A4022308031C230FA5020318AF
:10019000D0282208A40723080318230FA50703105B
:1001A000A00DA10DA60BBE282008F2281030A80033
:1001B000A101A001A70CA60C031CE4282208A0079B
:1001C00023080318230FA107A10CA00CA50CA40C55
:1001D000A80BDA282408F228A009A109A00A03190B
:1001E000A10A080083130313831264000800C030BF
:1001F0009F00831677308F0001308500083086001D
:1002000040308700950181018312C0308B00831636
:10021000960101308C008D0183128C018D018316B3
:1002200003170130880089018312031381309F0076
:10023000831680309F0083120317213087008801C6
:100240008901831603139701031785018312031392
:1002500090010F3097009D0183169C0101309D0095
:100260008312053094008B178A110A123C298B1BCC
:1002700008008A150A16BD288A01372110108A0144
:10028000372185018A01372186018A0137218701BB
:100290008A01372105158A01372185108A01372106
:1002A000FE30E000FF30E1008A0137211330E40026
:1002B0008A013721FA30E200FF30E3008A0137215A
:1002C000DA01DB018A013721D601D7018A01372102
:1002D0000A30D800D9018A013721E6018A01372185
:1002E000E9018A013721E5018A013721E8018A0104
:1002F00037218F018A0137218E018A01372110149D
:100300008A01372164008A110A128619BB298A01E1
:10031000372164008A110A12851D8F2905118A016F
:10032000372164308A0171208A01372164008A11E3
:100330000A12861D8F298A01372185148A013721E7
:10034000083085068316851183128A0137213230E1
:100350008A0171208A01372185108A013721851988
:100360008616851D86128A01372185190515851D7A
:1003700005118A0137218A01372164008A110A1286
:10038000071B0E2B8A013721E6018A0137216430D1
:100390008A0171208A013721E60A8A013721640027
:1003A0000A3066028A110A12031CC92A8A013721FF
:1003B00007168A0137218A110A12C3238A013721BD
:1003C00002305802DC000030031C013E5902DD00FF
:1003D0005608A0005708A1005D08A3005C088A0128
:1003E0009C20DC0002305807DE0059080318013E4B
:1003F000DF005608A0005708A1005F08A3005E08B0
:100400008A019620DE005C0884005E088A01B6201E
:10041000DE00DF0064005E085F048A110A1203191F
:10042000C22A8A0137215608D8005708D9008A0104
:1004300037218A0137215608A0005708A100A301DF
:10044000D2308A0193208A110A12031D3A2A8A01A6
:1004500037216008A0006108A1000330A200A301B9
:100460008A01BA20DA002108DB008A0137218A11CB
:100470000A12C02A5608A0005708A1000230A300A3
:1004800058308A0193208A110A12031D532A8A01C7
:1004900037210310610CDB00600CDA008A01372180
:1004A0008A110A12C02A5608A0005708A10003307A
:1004B000A3009D308A0193208A110A12031D7F2A0E
:1004C0008A0137216008A0006108A1000330A20062
:1004D000A3018A01BA20DC002108DD005C08A60027
:1004E0005D08A7000230A200A3018A01D620DA002D
:1004F0002508DB008A0137218A110A12C02A560812
:10050000A0005708A1000330A300D4308A01932033
:100510008A110A12031DAB2A8A0137216008A00044
:100520006108A1000430A200A3018A01BA20DC0006
:100530002108DD005C08A6005D08A7000330A200CA
:10054000A3018A01D620DA002508DB008A013721C1
:100550008A110A12C02A5608A0005708A1000330C9
:10056000A300D4308A019C208A110A12031DC02ADC
:100570008A0137216008DA006108DB008A0137212F
:100580008A0137218A0137218A110A1243258A01FB
:1005900037218A01372164008A110A12071FC529F1
:1005A0008A01372164000A3066028A110A12031C8C
:1005B000EA2A8A0137218F018A0137218E018A01B7
:1005C0003721E8018A01372110148A0137210712E7
:1005D0008A0137218A01372164000A3066028A11B4
:1005E0000A120318092B8A0137218A110A12F623ED
:1005F0008A0137218A110A1243258A013721C8301E
:10060000A000A1010730840010308A015A208A011D
:1006100037218A013721E6018A0137218A013721F2
:100620006508003C031DFF30FF3ADC00030185191B
:10063000FF30DE005C0884005E088A01AF20DE0027
:10064000DF0064005E085F048A110A120319832B1D
:100650008A0137218A110A12C3238A013721053002
:100660005802DC000030031C013E5902DD00560830
:10067000A0005708A1005D08A3005C088A019C2027
:10068000DC0005305807DE0059080318013EDF0082
:100690005608A0005708A1005F08A3005E088A0161
:1006A0009620DE005C0884005E088A01B620DE0029
:1006B000DF0064005E085F048A110A120319812BAF
:1006C0008A0137215608D8005708D9008A013721F6
:1006D0005608A0005708A1000430A200A3018A0117
:1006E000BA20DC002108DD005C08A800FF30A20071
:1006F000A30101308A0105208A01372110108A01E7
:1007000037218A0137218A01372164008A110A12B0
:10071000E91CBF2B8A013721640062080E028A118E
:100720000A12031C8A2B8A013721640063080F0216
:100730008A110A12031C932B8A01372110108A0197
:100740003721E8018A0137218F018A0137218E0183
:100750008A01372110148A01372164008A110A1294
:100760006918BA2BC830A000A101073084001030EE
:100770008A015A208A013721E9108A0137218A012A
:1007800037218A0180298A0137219E018A01372178
:1007900083169E0183128A0137219F148A01372113
:1007A00001308A0171208A01372164008A110A12FE
:1007B0000C1FD32B8A0137210C138A013721FF30FC
:1007C000A600A7011E08A200A3018A01D620DC0012
:1007D0002508DD0083161E0883125C07D6005D081D
:1007E0000318013ED7008A01372108008A0137210A
:1007F00010108A01372164006508003C8A110A1232
:10080000031D362C8A0137218F018A0137218E0181
:100810008A013721E8018A01372110148A01372122
:10082000E9148A013721E6018A013721E6016400D3
:100830000B3066028A110A120318342C8A01372100
:100840000310660D383E84008001840A80018A010D
:10085000372166084C3E840080018A013721E60A70
:100860008A110A12031D172C8A0137218A013721A8
:100870006400013065028A110A12031C332D8A01BB
:100880003721FF306507DC00FF300318013EDD0033
:100890005C08383E84000E0880008A013721FF3052
:1008A0006507DC00FF300318013EDD005C08393EBF
:1008B00084000F0880008A013721FF306507DC00C3
:1008C000FF300318013EDD005C084C3E84006808E0
:1008D00080008A013721E001E1018A013721DA0134
:1008E000DB018A013721E201E3018A013721E401BA
:1008F0008A0137210130E6008A0137210130E60004
:100900006400660865028A110A12031CC22C8A015F
:100910003721FF306607DC00FF300318013EDD00A1
:100920005C08383E84000008DC005C08E00703181F
:10093000E10A8A013721FF306607DC00FF30031827
:10094000013EDD005C08393E84000008DC005C08E4
:10095000DA070318DB0A8A013721FF306607DC005B
:10096000FF300318013EDD005C084C3E84000008A7
:10097000DC005C08E4078A013721E60A8A110A12C2
:10098000031D802C8A0137216008A0006108A100A6
:100990006508A200A3018A01BA20E2008A0137217A
:1009A0005A08A0005B08A1006508A200A3018A0103
:1009B000BA20E3008A0137216408A000A10165087C
:1009C000A200A3018A01BA20E4008A013721640051
:1009D000143064028A110A12031CFA2C8A0137218E
:1009E0001330E4008A013721FA30E200FF30E300DF
:1009F0008A0137218A0137218F018A0137218E012F
:100A00008A013721E8018A01372110148A01372130
:100A1000E9148A013721CC30A6000C30A700640805
:100A2000A200A3018A01D620E0002508E1008A0186
:100A300037216208A0006308A1001430A200A301BE
:100A40008A01BA20DC002108DD005C08E0075D08AF
:100A50000318013EE1078A0137216008DA006108C6
:100A6000DB008A0137218A013721E50A8A01372113
:100A7000640065080B3C8A110A12031D402DE50134
:100A80008A01372108008A0137218A0137215A0853
:100A9000A0005B08A1001430A300FF308A0193205E
:100AA0008A110A12031D5D2D8A0137211E30E700CD
:100AB0008A0137218A150A16B0285A08A0005B0857
:100AC000A1001430A300F4308A0193208A110A1285
:100AD000031D732D8A0137211F30E7008A0137215A
:100AE0008A150A16B0285A08A0005B08A100143025
:100AF000A300EB308A0193208A110A12031D892D6D
:100B00008A0137212030E7008A0137218A150A1629
:100B1000B0285A08A0005B08A1001430A300E430FC
:100B20008A0193208A110A12031D9F2D8A01372101
:100B30002130E7008A0137218A150A16B0285A08A1
:100B4000A0005B08A1001430A300E0308A019320CC
:100B50008A110A12031DB52D8A0137212230E700C0
:100B60008A0137218A150A16B0285A08A0005B08A6
:100B7000A1001430A300DF308A0193208A110A12E9
:100B8000031DCB2D8A0137212330E7008A0137214D
:100B90008A150A16B0285A08A0005B08A100143074
:100BA000A300DF308A0193208A110A12031DE12D70
:100BB0008A0137212430E7008A0137218A150A1675
:100BC000B0285A08A0005B08A1001430A300E2304E
:100BD0008A0193208A110A12031DF72D8A013721F9
:100BE0002530E7008A0137218A150A16B0285A08ED
:100BF000A0005B08A1001430A300E7308A01932015
:100C00008A110A12031D0D2E8A0137212630E700B2
:100C10008A0137218A150A16B0285A08A0005B08F5
:100C2000A1001430A300EE308A0193208A110A1229
:100C3000031D232E8A0137212730E7008A0137213F
:100C40008A150A16B0285A08A0005B08A1001430C3
:100C5000A300F5308A0193208A110A12031D392E50
:100C60008A0137212830E7008A0137218A150A16C0
:100C7000B0285A08A0005B08A1001430A300FE3081
:100C80008A0193208A110A12031D4F2E8A013721EF
:100C90002930E7008A0137218A150A16B0285A0838
:100CA000A0005B08A1001530A30009308A01932041
:100CB0008A110A12031D652E8A0137212A30E700A6
:100CC0008A0137218A150A16B0285A08A0005B0845
:100CD000A1001530A30014308A0193208A110A1252
:100CE000031D7B2E8A0137212B30E7008A01372133
:100CF0008A150A16B0285A08A0005B08A100153012
:100D0000A30021308A0193208A110A12031D912E1B
:100D10008A0137212C30E7008A0137218A150A160B
:100D2000B0285A08A0005B08A1001530A3002E309F
:100D30008A0193208A110A12031DA72E8A013721E6
:100D40002D30E7008A0137218A150A16B0285A0883
:100D5000A0005B08A1001530A30039308A01932060
:100D60008A110A12031DBD2E8A0137212E30E70099
:100D70008A0137218A150A16B0285A08A0005B0894
:100D8000A1001530A30046308A0193208A110A126F
:100D9000031DD32E8A0137212F30E7008A01372126
:100DA0008A150A16B0285A08A0005B08A100153061
:100DB000A30054308A0193208A110A12031DE92EE0
:100DC0008A0137213030E7008A0137218A150A1657
:100DD000B0285A08A0005B08A1001530A3006330BA
:100DE0008A0193208A110A12031DFF2E8A013721DE
:100DF0003130E7008A0137218A150A16B0285A08CF
:100E0000A0005B08A1001530A30072308A01932076
:100E10008A110A12031D152F8A0137213230E7008B
:100E20008A0137218A150A16B0285A08A0005B08E3
:100E3000A1001530A30082308A0193208A110A1282
:100E4000031D2B2F8A0137213330E7008A01372118
:100E50008A150A16B0285A08A0005B08A1001530B0
:100E6000A30090308A0193208A110A12031D412F9A
:100E70008A0137213430E7008A0137218A150A16A2
:100E8000B0285A08A0005B08A1001530A3009D30CF
:100E90008A0193208A110A12031D572F8A013721D4
:100EA0003530E7008A0137218A150A16B0285A081A
:100EB000A0005B08A1001530A300A6308A01932092
:100EC0008A110A12031D6D2F8A0137213630E7007F
:100ED0008A0137218A150A16B0285A08A0005B0833
:100EE000A1001530A300A8308A0193208A110A12AC
:100EF000031D832F8A0137213730E7008A0137210C
:100F00008A150A16B0285A08A0005B08A1001530FF
:100F1000A300C0308A0193208A110A12031D992F61
:100F20008A0137213830E7008A0137218A150A16ED
:100F3000B0285A08A0005B08A1001530A300DE30DD
:100F40008A0193208A110A12031DAF2F8A013721CB
:100F50003930E7008A0137218A150A16B0285A0865
:100F6000A0005B08A1001530A300EC308A0193209B
:100F70008A110A12031DC52F8A0137213A30E70072
:100F80008A0137218A150A16B0285A08A0005B0882
:100F9000A1001530A300FB308A0193208A110A12A8
:100FA000031DDB2F8A0137213B30E7008A013721FF
:100FB0008A150A16B0285A08A0005B08A10016304E
:100FC000A3000C308A0193208A110A12031DF12F0D
:100FD0008A0137213C30E7008A0137218A150A1639
:100FE000B0285A08A0005B08A1001630A3001D30ED
:100FF0008A0193208A150A12031D07288A013721C6
:101000003D30E7008A0137218A150A16B0285A08B0
:10101000A0005B08A1001630A3002E308A019320A7
:101020008A150A12031D1D288A0137213E30E70068
:101030008A0137218A150A16B0285A08A0005B08D1
:10104000A1001630A30040308A0193208A150A12AD
:10105000031D33288A0137213F30E7008A013721F9
:101060008A150A16B0285A08A0005B08A10016309D
:10107000A30050308A0193208A150A12031D4928C3
:101080008A0137214030E7008A0137218A150A1684
:10109000B0285A08A0005B08A1001630A3006030F9
:1010A0008A0193208A150A12031D5F288A013721BD
:1010B0004130E7008A0137218A150A16B0285A08FC
:1010C000A0005B08A1001630A30072308A019320B3
:1010D0008A150A12031D75288A0137214230E7005C
:1010E0008A0137218A150A16B0285A08A0005B0821
:1010F000A1001630A30084308A0193208A150A12B9
:10110000031D8B288A0137214330E7008A013721EC
:101110008A150A16B0285A08A0005B08A1001630EC
:10112000A30097308A0193208A150A12031DA12873
:101130008A0137214430E7008A0137218A150A16CF
:10114000B0285A08A0005B08A1001630A300A73001
:101150008A0193208A150A12031DB7288A013721B4
:101160004530E7008A0137218A150A16B0285A0847
:10117000A0005B08A1001630A300B8308A019320BC
:101180008A150A12031DCD288A0137214630E7004F
:101190008A0137218A150A16B0285A08A0005B0870
:1011A000A1001630A300CC308A0193208A150A12C0
:1011B000031DE3288A0137214730E7008A013721E0
:1011C0008A150A16B0285A08A0005B08A10016303C
:1011D000A300DF308A0193208A150A12031DF92823
:1011E0008A0137214830E7008A0137218A150A161B
:1011F000B0285A08A0005B08A1001630A300F33005
:101200008A0193208A150A12031D0F298A013721AA
:101210004930E7008A0137218A150A16B0285A0892
:10122000A0005B08A1001730A30007308A019320BB
:101230008A150A12031D25298A0137214A30E70041
:101240008A0137218A150A16B0285A08A0005B08BF
:10125000A1001730A30018308A0193208A150A12C2
:10126000031D3B298A0137214B30E7008A013721D2
:101270008A150A16B0285A08A0005B08A10017308A
:10128000A3002A308A0193208A150A12031D5129CE
:101290008A0137214C30E7008A0137218A150A1666
:1012A000B0285A08A0005B08A1001730A3003F3007
:1012B0008A0193208A150A12031D67298A013721A2
:1012C0004D30E7008A0137218A150A16B0285A08DE
:1012D000A0005B08A1001730A30054308A019320BE
:1012E0008A150A12031D7D298A0137214E30E70035
:1012F0008A0137218A150A16B0285A08A0005B080F
:10130000A1001730A3006A308A0193208A150A12BF
:10131000031D93298A0137214F30E7008A013721C5
:101320008A150A16B0285A08A0005B08A1001730D9
:10133000A3007F308A0193208A150A12031DA92970
:101340008A0137215030E7008A0137218A150A16B1
:10135000B0285A08A0005B08A1001730A300923003
:101360008A0193208A150A12031DBF298A01372199
:101370005130E7008A0137218A150A16B0285A0829
:10138000A0005B08A1001730A300A5308A019320BC
:101390008A150A12031DD5298A0137215230E70028
:1013A0008A0137218A150A16B0285A08A0005B085E
:1013B000A1001730A300BB308A0193208A150A12BE
:1013C000031DEB298A0137215330E7008A013721B9
:1013D0008A150A16B0285A08A0005B08A100173029
:1013E000A300D1308A0193208A150A12031D012A15
:1013F0008A0137215430E7008A0137218A150A16FD
:10140000B0285A08A0005B08A1001730A300E730FD
:101410008A0193208A150A12031D172A8A0137218F
:101420005530E7008A0137218A150A16B0285A0874
:10143000A0005B08A1001730A300FE308A019320B2
:101440008A150A12031D2D2A8A0137215630E7001A
:101450008A0137218A150A16B0285A08A0005B08AD
:10146000A1001830A30011308A0193208A150A12B6
:10147000031D432A8A0137215730E7008A013721AB
:101480008A150A16B0285A08A0005B08A100183077
:10149000A30025308A0193208A150A12031D592AB8
:1014A0008A0137215830E7008A0137218A150A1648
:1014B000B0285A08A0005B08A1001830A3003C30F7
:1014C0008A0193208A150A12031D6F2A8A01372187
:1014D0005930E7008A0137218A150A16B0285A08C0
:1014E000A0005B08A1001830A30055308A019320AA
:1014F0008A150A12031D852A8A0137215A30E7000E
:101500008A0137218A150A16B0285A08A0005B08FC
:10151000A1001830A3006D308A0193208A150A12A9
:10152000031D9B2A8A0137215B30E7008A0137219E
:101530008A150A16B0285A08A0005B08A1001830C6
:10154000A30085308A0193208A150A12031DB12A4F
:101550008A0137215C30E7008A0137218A150A1693
:10156000B0285A08A0005B08A1001830A3009B30E7
:101570008A0193208A150A12031DC72A8A0137217E
:101580005D30E7008A0137218A150A16B0285A080B
:10159000A0005B08A1001830A300B0308A0193209E
:1015A0008A150A12031DDD2A8A0137215E30E70001
:1015B0008A0137218A150A16B0285A08A0005B084C
:1015C000A1001830A300C8308A0193208A150A129E
:1015D000031DF32A8A0137215F30E7008A01372192
:1015E0008A150A16B0285A08A0005B08A100183016
:1015F000A300E1308A0193208A150A12031D092BEA
:101600008A0137216030E7008A0137218A150A16DE
:10161000B0285A08A0005B08A1001830A300FC30D5
:101620008A0193208A150A12031D1F2B8A01372174
:101630006130E7008A0137218A150A16B0285A0856
:10164000A0005B08A1001930A30013308A01932089
:101650008A150A12031D352B8A0137216230E700F3
:101660008A0137218A150A16B0285A08A0005B089B
:10167000A1001930A30029308A0193208A150A128B
:10168000031D4B2B8A0137216330E7008A01372184
:101690008A150A16B0285A08A0005B08A100193064
:1016A000A30043308A0193208A150A12031D612B7F
:1016B0008A0137216430E7008A0137218A150A162A
:1016C000B0285A08A0005B08A1001930A3005E30C2
:1016D0008A0193208A150A12031D772B8A0137216C
:1016E0006530E7008A0137218A150A16B0285A08A2
:1016F000A0005B08A1001930A3007A308A01932072
:101700008A150A12031D8D2B8A0137216630E700E6
:101710008A0137218A150A16B0285A08A0005B08EA
:10172000A1001930A30097308A0193208A150A126C
:10173000031DA32B8A0137216730E7008A01372177
:101740008A150A16B0285A08A0005B08A1001930B3
:10175000A300AF308A0193208A150A12031DB92B0A
:101760008A0137216830E7008A0137218A150A1675
:10177000B0285A08A0005B08A1001930A300C830A7
:101780008A0193208A150A12031DCF2B8A01372163
:101790006930E7008A0137218A150A16B0285A08ED
:1017A000A0005B08A1001930A300E4308A01932057
:1017B0008A150A12031DE52B8A0137216A30E700DA
:1017C0008A0137218A150A16B0285A08A0005B083A
:1017D000A1001A30A30001308A0193208A150A1251
:1017E000031DFB2B8A0137216B30E7008A0137216B
:1017F0008A150A16B0285A08A0005B08A1001A3002
:10180000A3001E308A0193208A150A12031D112C91
:101810008A0137216C30E7008A0137218A150A16C0
:10182000B0285A08A0005B08A1001A30A3003C3081
:101830008A0193208A150A12031D272C8A01372159
:101840006D30E7008A0137218A150A16B0285A0838
:10185000A0005B08A1001A30A30057308A01932032
:101860008A150A12031D3D2C8A0137216E30E700CC
:101870008A0137218A150A16B0285A08A0005B0889
:10188000A1001A30A30073308A0193208A150A122E
:10189000031D532C8A0137216F30E7008A0137215D
:1018A0008A150A16B0285A08A0005B08A1001A3051
:1018B000A30093308A0193208A150A12031D692C14
:1018C0008A0137217030E7008A0137218A150A160C
:1018D000B0285A08A0005B08A1001A30A300B3305A
:1018E0008A0193208A150A12031D7F2C8A01372151
:1018F0007130E7008A0137218A150A16B0285A0884
:10190000A0005B08A1001A30A300D2308A01932006
:101910008A150A12031D952C8A0137217230E700BF
:101920008A0137218A150A16B0285A08A0005B08D8
:10193000A1001A30A300F3308A0193208A150A12FD
:10194000031DAB2C8A0137217330E7008A01372150
:101950008A150A16B0285A08A0005B08A1001B309F
:10196000A30010308A0193208A150A12031DC12C8E
:101970008A0137217430E7008A0137218A150A1657
:10198000B0285A08A0005B08A1001B30A3002D302E
:101990008A0193208A150A12031DD72C8A01372148
:1019A0007530E7008A0137218A150A16B0285A08CF
:1019B000A0005B08A1001B30A3004F308A019320D8
:1019C0008A150A12031DED2C8A0137217630E700B3
:1019D0008A0137218A150A16B0285A08A0005B0828
:1019E000A1001B30A30072308A0193208A150A12CD
:1019F000031D032D8A0137217730E7008A01372143
:101A00008A150A16B0285A08A0005B08A1001B30EE
:101A1000A30095308A0193208A150A12031D192DFF
:101A20008A0137217830E7008A0137218A150A16A2
:101A3000B0285A08A0005B08A1001B30A300B830F2
:101A40008A0193208A150A12031D2F2D8A0137213E
:101A50007930E7008A0137218A150A16B0285A081A
:101A6000A0005B08A1001B30A300D7308A0193209F
:101A70008A150A12031D452D8A0137217A30E700A5
:101A80008A0137218A150A16B0285A08A0005B0877
:101A9000A1001B30A300F6308A0193208A150A1298
:101AA000031D5B2D8A0137217B30E7008A01372136
:101AB0008A150A16B0285A08A0005B08A1001C303D
:101AC000A3001B308A0193208A150A12031D712D71
:101AD0008A0137217C30E7008A0137218A150A16EE
:101AE000B0285A08A0005B08A1001C30A3004030B9
:101AF0008A0193208A150A12031D872D8A01372136
:101B00007D30E7008A0137218A150A16B0285A0865
:101B1000A0005B08A1001C30A30066308A0193205E
:101B20008A150A12031D9D2D8A0137217E30E70098
:101B30008A0137218A150A16B0285A08A0005B08C6
:101B4000A1001C30A3008C308A0193208A150A1250
:101B5000031DB32D8A0137217F30E7008A01372129
:101B60008A150A16B0285A08A0005B08A1001C308C
:101B7000A300AF308A0193208A150A12031DC92DD4
:101B80008A0137218030E7008A0137218A150A1639
:101B9000B0285A08A0005B08A1001C30A300D23076
:101BA0008A0193208A150A12031DDF2D8A0137212D
:101BB0008130E7008A0137218A150A16B0285A08B1
:101BC000A0005B08A1001C30A300FB308A01932019
:101BD0008A150A12031DF52D8A0137218230E7008C
:101BE0008A0137218A150A16B0285A08A0005B0816
:101BF000A1001D30A30024308A0193208A150A1207
:101C0000031D0B2E8A0137218330E7008A0137211B
:101C10008A150A16B0285A08A0005B08A1001D30DA
:101C2000A3004F308A0193208A150A12031D212E2A
:101C30008A0137218430E7008A0137218A150A1684
:101C4000B0285A08A0005B08A1001D30A300753021
:101C50008A0193208A150A12031D372E8A01372123
:101C60008530E7008A0137218A150A16B0285A08FC
:101C7000A0005B08A1001D30A3009B308A019320C7
:101C80008A150A12031D4D2E8A0137218630E7007E
:101C90008A0137218A150A16B0285A08A0005B0865
:101CA000A1001D30A300C7308A0193208A150A12B3
:101CB000031D632E8A0137218730E7008A0137210F
:101CC0008A150A16B0285A08A0005B08A1001D302A
:101CD000A300F4308A0193208A150A12031D792E7D
:101CE0008A0137218830E7008A0137218A150A16D0
:101CF000B0285A08A0005B08A1001E30A3002130C4
:101D00008A0193208A150A12031D8F2E8A0137211A
:101D10008930E7008A0137218A150A16B0285A0847
:101D2000A0005B08A1001E30A30051308A0193205F
:101D30008A150A12031DA52E8A0137218A30E70071
:101D40008A0137218A150A16B0285A08A0005B08B4
:101D5000A1001E30A3007C308A0193208A150A124C
:101D6000031DBB2E8A0137218B30E7008A01372102
:101D70008A150A16B0285A08A0005B08A1001E3078
:101D8000A300A6308A0193208A150A12031DD12EC2
:101D90008A0137218C30E7008A0137218A150A161B
:101DA000B0285A08A0005B08A1001E30A300D7305D
:101DB0008A0193208A150A12031DE72E8A01372112
:101DC0008D30E7008A0137218A150A16B0285A0893
:101DD000A0005B08A1001F30A30009308A019320F6
:101DE0008A150A12031DFD2E8A0137218E30E70065
:101DF0008A0137218A150A16B0285A08A0005B0804
:101E0000A1001F30A3003C308A0193208A150A12DA
:101E1000031D132F8A0137218F30E7008A013721F4
:101E20008A150A16B0285A08A0005B08A1001F30C6
:101E3000A30070308A0193208A150A12031D292FEE
:101E40008A0137219030E7008A0137218A150A1666
:101E5000B0285A08A0005B08A1001F30A3009E30E4
:101E60008A0193208A150A12031D3F2F8A01372108
:101E70009130E7008A0137218A150A16B0285A08DE
:101E8000A0005B08A1001F30A300CD308A01932081
:101E90008A150A12031D552F8A0137219230E70057
:101EA0008A0137218A150A16B0285A08A0005B0853
:101EB000A1002030A30003308A0193208A150A1262
:101EC000031D6B2F8A0137219330E7008A013721E8
:101ED0008A150A16B0285A08A0005B08A100203015
:101EE000A30039308A0193208A150A12031D812F1D
:101EF0008A0137219430E7008A0137218A150A16B2
:101F0000B0285A08A0005B08A1002030A30072305E
:101F10008A0193208A150A12031D972F8A013721FF
:101F20009530E7008A0137218A150A16B0285A0829
:101F3000A0005B08A1002030A300AC308A019320F0
:101F40008A150A12031DAD2F8A0137219630E7004A
:101F50008A0137218A150A16B0285A08A0005B08A2
:101F6000A1002030A300DF308A0193208A150A12D5
:101F7000031DC32F8A0137219730E7008A013721DB
:101F80008A150A16B0285A08A0005B08A100213063
:101F9000A30013308A0193208A150A12031DD92F3A
:101FA0008A0137219830E7008A0137218A150A16FD
:101FB000B0285A08A0005B08A1002130A3004F30D0
:101FC0008A0193208A150A12031DEF2F8A013721F7
:101FD0009930E7008A0137218A150A16B0285A0875
:101FE000A0005B08A1002130A3008C308A0193205F
:101FF0008A110A16031D05288A0137219A30E70045
:102000008A0137218A150A16B0285A08A0005B08F1
:10201000A1002130A300CA308A0193208A110A1638
:10202000031D1B288A0137219B30E7008A013721D5
:102030008A150A16B0285A08A0005B08A1002230B1
:10204000A3000A308A0193208A110A16031D312841
:102050008A0137219C30E7008A0137218A150A1648
:10206000B0285A08A0005B08A1002230A30042302B
:102070008A0193208A110A16031D47288A013721F5
:102080009D30E7008A0137218A150A16B0285A08C0
:10209000A0005B08A1002230A3007B308A019320BE
:1020A0008A110A16031D5D288A0137219E30E70038
:1020B0008A0137218A150A16B0285A08A0005B0841
:1020C000A1002230A300BF308A0193208A110A1692
:1020D000031D73288A0137219F30E7008A013721C9
:1020E0008A150A16B0285A08A0005B08A100233000
:1020F000A30005308A0193208A110A16031D89283E
:102100008A013721A030E7008A0137218A150A1693
:10211000B0285A08A0005B08A1002330A3004D306E
:102120008A0193208A110A16031D9F288A013721EC
:10213000A130E7008A0137218A150A16B0285A080B
:10214000A0005B08A1002330A3008D308A019320FA
:102150008A110A16031DB5288A013721A230E7002B
:102160008A0137218A150A16B0285A08A0005B0890
:10217000A1002330A300CE308A0193208A110A16D1
:10218000031DCB288A013721A330E7008A013721BC
:102190008A150A16B0285A08A0005B08A10024304E
:1021A000A30019308A0193208A110A16031DE12821
:1021B0008A013721A430E7008A0137218A150A16DF
:1021C000B0285A08A0005B08A1002430A3006830A2
:1021D0008A0193208A110A16031DF7288A013721E4
:1021E000A530E7008A0137218A150A16B0285A0857
:1021F000A0005B08A1002430A300B8308A0193201E
:102200008A110A16031D0D298A013721A630E7001D
:102210008A0137218A150A16B0285A08A0005B08DF
:10222000A1002530A30009308A0193208A110A16E3
:10223000031D23298A013721A730E7008A013721AE
:102240008A150A16B0285A08A0005B08A10025309C
:10225000A3004F308A0193208A110A16031D3929E1
:102260008A013721A830E7008A0137218A150A162A
:10227000B0285A08A0005B08A1002530A3009930BF
:102280008A0193208A110A16031D4F298A013721DA
:10229000A930E7008A0137218A150A16B0285A08A2
:1022A000A0005B08A1002530A300EF308A01932035
:1022B0008A110A16031D65298A013721AA30E70011
:1022C0008A0137218A150A16B0285A08A0005B082F
:1022D000A1002630A30046308A0193208A110A16F5
:1022E000031D7B298A013721AB30E7008A013721A2
:1022F0008A150A16B0285A08A0005B08A1002630EB
:10230000A3009F308A0193208A110A16031D912988
:102310008A013721AC30E7008A0137218A150A1675
:10232000B0285A08A0005B08A1002630A300FB30AB
:102330008A0193208A110A16031DA7298A013721D1
:10234000AD30E7008A0137218A150A16B0285A08ED
:10235000A0005B08A1002730A3004D308A01932024
:102360008A110A16031DBD298A013721AE30E70004
:102370008A0137218A150A16B0285A08A0005B087E
:10238000A1002730A300A1308A0193208A110A16E8
:10239000031DD3298A013721AF30E7008A01372195
:1023A0008A150A16B0285A08A0005B08A100283038
:1023B000A30003308A0193208A110A16031DE9291C
:1023C0008A013721B030E7008A0137218A150A16C1
:1023D000B0285A08A0005B08A1002830A30067308D
:1023E0008A0193208A110A16031DFF298A013721C9
:1023F000B130E7008A0137218A150A16B0285A0839
:10240000A0005B08A1002830A300CE308A019320F1
:102410008A110A16031D152A8A013721B230E700F6
:102420008A0137218A150A16B0285A08A0005B08CD
:10243000A1002930A30039308A0193208A110A169D
:10244000031D2B2A8A013721B330E7008A01372187
:102450008A150A16B0285A08A0005B08A100293086
:10246000A30099308A0193208A110A16031D412A7C
:102470008A013721B430E7008A0137218A150A160C
:10248000B0285A08A0005B08A1002930A300FC3046
:102490008A0193208A110A16031D572A8A013721BF
:1024A000B530E7008A0137218A150A16B0285A0884
:1024B000A0005B08A1002A30A3006F308A0193209E
:1024C0008A110A16031D6D2A8A013721B630E700EA
:1024D0008A0137218A150A16B0285A08A0005B081D
:1024E000A1002A30A300E6308A0193208A110A163F
:1024F000031D832A8A013721B730E7008A0137217B
:102500008A150A16B0285A08A0005B08A1002B30D3
:10251000A3005F308A0193208A110A16031D992AAD
:102520008A013721B830E7008A0137218A150A1657
:10253000B0285A08A0005B08A1002B30A300DB30B4
:102540008A0193208A110A16031DAF2A8A013721B6
:10255000B930E7008A0137218A150A16B0285A08CF
:10256000A0005B08A1002C30A3004B308A0193200F
:102570008A110A16031DC52A8A013721BA30E700DD
:102580008A0137218A150A16B0285A08A0005B086C
:10259000A1002C30A300BD308A0193208A110A16B5
:1025A000031DDB2A8A013721BB30E7008A0137216E
:1025B0008A150A16B0285A08A0005B08A1002D3021
:1025C000A30042308A0193208A110A16031DF12AC2
:1025D0008A013721BC30E7008A0137218A150A16A3
:1025E000B0285A08A0005B08A1002D30A300CB3012
:1025F0008A0193208A110A16031D072B8A013721AD
:10260000BD30E7008A0137218A150A16B0285A081A
:10261000A0005B08A1002E30A30058308A0193204F
:102620008A110A16031D1D2B8A013721BE30E700CF
:102630008A0137218A150A16B0285A08A0005B08BB
:10264000A1002E30A300EA308A0193208A110A16D5
:10265000031D332B8A013721BF30E7008A01372160
:102660008A150A16B0285A08A0005B08A1002F306E
:10267000A3006E308A0193208A110A16031D492B8C
:102680008A013721C030E7008A0137218A150A16EE
:10269000B0285A08A0005B08A1002F30A300F73033
:1026A0008A0193208A110A16031D5F2B8A013721A4
:1026B000C130E7008A0137218A150A16B0285A0866
:1026C000A0005B08A1003030A30096308A0193205F
:1026D0008A110A16031D752B8A013721C230E700C3
:1026E0008A0137218A150A16B0285A08A0005B080B
:1026F000A1003130A3003A308A0193208A110A16D2
:10270000031D8B2B8A013721C330E7008A01372153
:102710008A150A16B0285A08A0005B08A1003130BB
:10272000A300E4308A0193208A110A16031DA12B0D
:102730008A013721C430E7008A0137218A150A1639
:10274000B0285A08A0005B08A1003230A3007B30FB
:102750008A0193208A110A16031DB72B8A0137219B
:10276000C530E7008A0137218A150A16B0285A08B1
:10277000A0005B08A1003330A30018308A01932029
:102780008A110A16031DCD2B8A013721C630E700B6
:102790008A0137218A150A16B0285A08A0005B085A
:1027A000A1003330A300CF308A0193208A110A168A
:1027B000031DE32B8A013721C730E7008A01372147
:1027C0008A150A16B0285A08A0005B08A100343008
:1027D000A3008C308A0193208A110A16031DF92B5D
:1027E0008A013721C830E7008A0137218A150A1685
:1027F000B0285A08A0005B08A1003530A300503073
:102800008A0193208A110A16031D0F2C8A01372191
:10281000C930E7008A0137218A150A16B0285A08FC
:10282000A0005B08A1003630A3001A308A01932073
:102830008A110A16031D252C8A013721CA30E700A8
:102840008A0137218A150A16B0285A08A0005B08A9
:10285000A1003630A300D0308A0193208A110A16D5
:10286000031D3B2C8A013721CB30E7008A01372139
:102870008A150A16B0285A08A0005B08A100373054
:10288000A3008A308A0193208A110A16031D512C55
:102890008A013721CC30E7008A0137218A150A16D0
:1028A000B0285A08A0005B08A1003830A3006830A7
:1028B0008A0193208A110A16031D672C8A01372189
:1028C000CD30E7008A0137218A150A16B0285A0848
:1028D000A0005B08A1003930A3004A308A01932090
:1028E0008A110A16031D7D2C8A013721CE30E7009C
:1028F0008A0137218A150A16B0285A08A0005B08F9
:10290000A1003A30A30034308A0193208A110A16BC
:10291000031D932C8A013721CF30E7008A0137212C
:102920008A150A16B0285A08A0005B08A1003B309F
:10293000A3002C308A0193208A110A16031DA92CAA
:102940008A013721D030E7008A0137218A150A161B
:10295000B0285A08A0005B08A1003C30A3000D304D
:102960008A0193208A110A16031DBF2C8A01372180
:10297000D130E7008A0137218A150A16B0285A0893
:10298000A0005B08A1003C30A300F6308A01932030
:102990008A110A16031DD52C8A013721D230E7008F
:1029A0008A0137218A150A16B0285A08A0005B0848
:1029B000A1003E30A3000A308A0193208A110A1632
:1029C000031DEB2C8A013721D330E7008A01372120
:1029D0008A150A16B0285A08A0005B08A1003F30EB
:1029E000A30025308A0193208A110A16031D012DA8
:1029F0008A013721D430E7008A0137218A150A1667
:102A0000B0285A08A0005B08A1004030A3004C3059
:102A10008A0193208A110A16031D172D8A01372176
:102A2000D530E7008A0137218A150A16B0285A08DE
:102A3000A0005B08A1004130A3007E308A019320F2
:102A40008A110A16031D2D2D8A013721D630E70081
:102A50008A0137218A150A16B0285A08A0005B0897
:102A6000A1004230A30095308A0193208A110A16F2
:102A7000031D432D8A013721D730E7008A01372112
:102A80008A150A16B0285A08A0005B08A100433036
:102A9000A300B7308A0193208A110A16031D592D0D
:102AA0008A013721D830E7008A0137218A150A16B2
:102AB000B0285A08A0005B08A1004530A3000B30E5
:102AC0008A0193208A110A16031D6F2D8A0137216E
:102AD000D930E7008A0137218A150A16B0285A082A
:102AE000A0005B08A1004630A3006E308A0193204D
:102AF0008A110A16031D852D8A013721DA30E70075
:102B00008A0137218A150A16B0285A08A0005B08E6
:102B1000A1004730A300E1308A0193208A110A16F0
:102B2000031D9B2D8A013721DB30E7008A01372105
:102B30008A150A16B0285A08A0005B08A10049307F
:102B4000A30063308A0193208A110A16031DB12D58
:102B50008A013721DC30E7008A0137218A150A16FD
:102B6000B0285A08A0005B08A1004A30A300C33077
:102B70008A0193208A110A16031DC72D8A01372165
:102B8000DD30E7008A0137218A150A16B0285A0875
:102B9000A0005B08A1004C30A30035308A019320CF
:102BA0008A110A16031DDD2D8A013721DE30E70068
:102BB0008A0137218A150A16B0285A08A0005B0836
:102BC000A1004D30A300EB308A0193208A110A1630
:102BD000031DF32D8A013721DF30E7008A013721F9
:102BE0008A150A16B0285A08A0005B08A1004F30C9
:102BF000A300B7308A0193208A110A16031D092EFB
:102C00008A013721E030E7008A0137218A150A1648
:102C1000B0285A08A0005B08A1005130A3009630EC
:102C20008A0193208A110A16031D1F2E8A0137215B
:102C3000E130E7008A0137218A150A16B0285A08C0
:102C4000A0005B08A1005330A3004C308A01932000
:102C50008A110A16031D352E8A013721E230E7005A
:102C60008A0137218A150A16B0285A08A0005B0885
:102C7000A1005530A30018308A0193208A110A164A
:102C8000031D4B2E8A013721E330E7008A013721EB
:102C90008A150A16B0285A08A0005B08A100573010
:102CA000A30042308A0193208A110A16031D612E67
:102CB0008A013721E430E7008A0137218A150A1694
:102CC000B0285A08A0005B08A1005930A300883042
:102CD0008A0193208A110A16031D772E8A01372153
:102CE000E530E7008A0137218A150A16B0285A080C
:102CF000A0005B08A1005B30A300EC308A019320A8
:102D00008A110A16031D8D2E8A013721E630E7004D
:102D10008A0137218A150A16B0285A08A0005B08D4
:102D2000A1005E30A30075308A0193208A110A1633
:102D3000031DA32E8A013721E730E7008A013721DE
:102D40008A150A16B0285A08A0005B08A100603056
:102D5000A300C9308A0193208A110A16031DB92ED7
:102D60008A013721E830E7008A0137218A150A16DF
:102D7000B0285A08A0005B08A1006330A3004230CD
:102D80008A0193208A110A16031DCF2E8A0137214A
:102D9000E930E7008A0137218A150A16B0285A0857
:102DA000A0005B08A1006630A30037308A019320A1
:102DB0008A110A16031DE52E8A013721EA30E70041
:102DC0008A0137218A150A16B0285A08A0005B0824
:102DD000A1006930A3005D308A0193208A110A1690
:102DE000031DFB2E8A013721EB30E7008A013721D2
:102DF0008A150A16B0285A08A0005B08A1006C309A
:102E0000A300B1308A0193208A110A16031D112FE5
:102E10008A013721EC30E7008A0137218A150A162A
:102E2000B0285A08A0005B08A1007030A3003B3016
:102E30008A0193208A110A16031D272F8A01372140
:102E4000ED30E7008A0137218A150A16B0285A08A2
:102E5000A0005B08A1007330A30085308A01932095
:102E60008A110A16031D3D2F8A013721EE30E70033
:102E70008A0137218A150A16B0285A08A0005B0873
:102E8000A1007730A30009308A0193208A110A1625
:102E9000031D532F8A013721EF30E7008A013721C4
:102EA0008A150A16B0285A08A0005B08A1007B30DA
:102EB000A3004A308A0193208A110A16031D692F44
:102EC0008A013721F030E7008A0137218A150A1676
:102ED000B0285A08A0005B08A1007F30A300D830BA
:102EE0008A0193208A110A16031D7F2F8A01372138
:102EF000F130E7008A0137218A150A16B0285A08EE
:102F0000A0005B08A1008430A300B9308A0193209F
:102F10008A110A16031D952F8A013721F230E70026
:102F20008A0137218A150A16B0285A08A0005B08C2
:102F3000A1008930A300F5308A0193208A110A1676
:102F4000031DAB2F8A013721F330E7008A013721B7
:102F50008A150A16B0285A08A0005B08A1008E3016
:102F6000A300D6308A0193208A110A16031DC12FAF
:102F70008A013721F430E7008A0137218A150A16C1
:102F8000B0285A08A0005B08A1009430A3001C30B0
:102F90008A0193208A110A16031DD72F8A0137212F
:102FA000F530E7008A0137218A150A16B0285A0839
:102FB000A0005B08A1009A30A30098308A019320FA
:102FC0008A110A16031DED2F8A013721F630E7001A
:102FD0008A0137218A150A16B0285A08A0005B0812
:102FE000A100A130A3009C308A0193208A150A1603
:102FF000031D03288A013721F730E7008A013721B2
:103000008A150A16B0285A08A0005B08A100A9304A
:10301000A30033308A0193208A150A16031D19284C
:103020008A013721F830E7008A0137218A150A160C
:10303000B0285A08A0005B08A100B130A3008B3073
:103040008A0193208A150A16031D2F288A01372129
:10305000F930E7008A0137218A150A16B0285A0884
:10306000A0005B08A100B930A3007A308A01932048
:103070008A150A16031D45288A013721FA30E70010
:103080008A0137218A150A16B0285A08A0005B0861
:10309000A100C230A3000C308A0193208A150A16C1
:1030A000031D5B288A013721FB30E7008A013721A5
:1030B0008A150A16B0285A08A0005B08A100CC3077
:1030C000A300CC308A0193208A150A16031D7128AB
:1030D0008A013721FC30E7008A0137218A150A1658
:1030E000B0285A08A0005B08A100D830A300E13046
:1030F0008A0193208A150A16031D87288A01372121
:10310000FD30E7008A0137218A150A16B0285A08CF
:10311000A0005B08A100EE30A30052308A0193208A
:103120008A150A16031D9D288A013721FE30E70003
:103130008A0137218A150A16B0285A08A0005B08B0
:10314000A100EE30A30052308A0199208A150A1698
:10315000031DB0288A013721FF30E7008A0137219B
:103160008A0137216708A800FF30A200A3010130BF
:103170008A0105208A0137210800030183160C18F3
:10318000FF308312DC0003010C18FF30DE005C0806
:1031900084005E088A01AF20DE00DF0064005E0864
:1031A0005F048A150A1603190029E80A68086402F0
:1031B000031DFF30FF3ADC006508003C031DFF30B3
:1031C000FF3ADE005C0884005E088A01AF20DE0062
:1031D000DF0064005E085F048A150A160319F128EF
:1031E000E91464001F3068028A150A16031CFF28C0
:1031F00010108F018E01E8011014E914E5010C1084
:0E32000009008A01372163008A150A16032986
:02400E0004208C
:02401000FF3F70
:00000001FF
