:020000040000FA
:02000000F828DE
:080008000800A9004030A0002F
:100010004230A1000F30A400A501BD20AA01210893
:10002000031919282A145520FC3E031C1928AA1468
:1000300055202003AB00280F2128FF30A400A50085
:100040002C282808A500A401A600A7012B0A031943
:100050002C28A200A301D720A90B45281708CF39C7
:10006000A41B2038241B10380C3897002508950055
:100070008316071183122B0883169200831212082D
:10008000FC392A0404389200F328A90B54281D08CF
:10009000CF39A41B2038241B10380C389D002508AC
:1000A0009B00831687103A28F328A10CA00CA10C02
:1000B000A00C0800B4006D20200821040319F328C7
:1000C000ED20841334088006640066286728A00A9F
:1000D0000319A10F64288006F328FF3A84178005CE
:1000E000F328A301A200FF30A207031CA307031CEF
:1000F000F3280330A100DF307F207328A101E83E00
:10010000A000A109FC30031C8828A007031885283B
:10011000A0076400A10F852820188E28A01C922813
:10012000000092280800A101A301A2000330A0282A
:10013000A2000130A028A101A301A2000430A02840
:10014000A80023082102031DA7282208200204304A
:1001500003180130031902302805031DFF30F3286E
:100160000038031DFF300405031DFF30F32804048D
:10017000031DFF30F328A501A4011030A600210DB6
:10018000A40DA50D2208A4022308031C230FA50219
:100190000318D1282208A40723080318230FA50752
:1001A0000310A00DA10DA60BBF282008F3281030C6
:1001B000A800A101A001A70CA60C031CE528220899
:1001C000A00723080318230FA107A10CA00CA50C5E
:1001D000A40CA80BDB282408F328A009A109A00A75
:1001E0000319A10A08008313031383126400080093
:1001F000C0309F00831677308F00013085000130BA
:10020000860010308700950181018312C0308B0079
:100210008316960101308C008D0183128C018D01B3
:10022000831603170130880089018312031381307C
:100230009F00831680309F008312031721308700B0
:10024000880189018316031397010317850183121F
:10025000031390010F3097009D0183169C0101301C
:100260009D008312053094008B178A110A123D29D4
:100270008B1B08008A150A16F72E8A0138211010E8
:100280008A01382185018A01382186018A013821B5
:1002900087018A01382185108A01382105158A01D4
:1002A000382187128A01382107138A0138218612E2
:1002B0008A01382106128A013821FE30E000FF3021
:1002C000E1008A0138211330E4008A013821FA3034
:1002D000E200FF30E3008A013821DA01DB018A0104
:1002E0003821D601D7018A0138210A30D800D90136
:1002F0008A013821E6018A013821E9018A01382181
:10030000E5018A013821E8018A0138218F018A013B
:1003100038218E018A01382110148A0138216400A5
:100320008A110A1206180C2A8A013821E6018A016C
:10033000382164308A0171208A01382164008A11D1
:100340000A120618D3298A013821E60A8A013821BF
:10035000640066080A3C8A110A12031DCD298A012D
:10036000382164008A110A12861EBB2910308606C5
:100370008316061283128A01382164008A110A1238
:10038000061AC32905158A01382164008A110A1248
:10039000061ECB2985148A0138218A0138218A0159
:1003A00097298A0138218A01382164000A306602BF
:1003B0008A110A1203180A2A8A01382164008A1154
:1003C0000A12061AF2298A0138210230850683169C
:1003D000851083128A01382185188616851C86129D
:1003E0008A0138218A01382164008A110A12061E06
:1003F000082A8A01382104308506831605118312E4
:100400008A01382105198616051D86128A013821B0
:100410008A0138218A0138218A01382164008A1131
:100420000A12071A7A2A8A013821E6018A0138213C
:1004300064308A0171208A01382164008A110A120D
:10044000071A4F2A8A013821E60A8A0138216400F6
:1004500066080A3C8A110A12031D492A8A013821BA
:1004600010108A0138210130E906831669108312C1
:100470008A01382169188716691C87128A01382178
:100480000301691C013E03190713031D07178A01A5
:1004900038218A0138218A01162A8A0138218A01E5
:1004A000382164000A3066028A110A1203185B2A96
:1004B0008A110A12B6268A01382164000A306602BF
:1004C0008A110A12031C782A8A01382187128A01AC
:1004D000382107138A0138218F018A0138218E01C2
:1004E0008A013821E8018A01382110148A01382153
:1004F0008A0138218A01382164008A110A12E91C14
:10050000C52A8A013821640062080E028A110A1283
:10051000031C812A8A013821640063080F028A11B2
:100520000A12031C8A2A8A01382110108A013821F4
:10053000E8018A0138218F018A0138218E018A0160
:10054000382110148A01382164008A110A126918AE
:10055000B12A3230A000A1010730840020308A0186
:100560005A208A01382164008A110A12691CC02AA3
:100570003230A000A1010730840040308A015A20A7
:100580008A013821E9108A0138218A0138219E0127
:100590008A01382183169E0183128A0138219F1413
:1005A0008A01382101308A0171208A0138216400D2
:1005B0008A110A120C1FD52A8A0138210C138A01CC
:1005C0003821FF30A600A7011E08A200A3018A015E
:1005D000D720DC002508DD0083161E0883125C0787
:1005E000D6005D080318013ED7008A013821023089
:1005F0005802DC000030031C013E5902DD005608A1
:10060000A0005708A1005D08A3005C088A019D2096
:10061000DC0002305807DE0059080318013EDF00F5
:100620005608A0005708A1005F08A3005E088A01D1
:100630009820DE005C0884005E088A01B720DE0096
:10064000DF0064005E085F048A110A120319B22EEB
:100650008A0138215608D8005708D9008A01382164
:1006600064008A110A126918A62E8A0138215608D8
:10067000A0005708A1000430A200A3018A01BB20FA
:10068000DC002108DD005C08A800E830A20003308F
:10069000A30001308A0105208A01382110108A0147
:1006A0003821E8018A0138218F018A0138218E0121
:1006B0008A0138215608A0005708A1000430A20082
:1006C000A3018A01BB20E6008A0138216608FF3CAD
:1006D0008A110A12031C7B2C8A110A127423E2006D
:1006E000E3018A110A127B2C03308A0066087B3EE4
:1006F00003188A0A8200183418341834193419344B
:100700001A341A341A341B341B341C341C341D3470
:100710001D341E341E341E341F341F342034203444
:100720002134213422342234233423342434243415
:1007300025342534253426342734273428342834E6
:10074000293429342A342A342B342B342C342C34B5
:100750002D342E342E342F342F3430343134313480
:100760003234323433343434343435343634363449
:1007700037343834383439343A343A343B343C340E
:100780003C343D343E343E343F3440344134003414
:10079000013401340234033404340534053406349E
:1007A0000734083409340A340A340B340C340D3459
:1007B0000E340F341034113412341334143415340D
:1007C00016341734183419341A341B341C341D34BD
:1007D0001E341F3420342134233424342534263469
:1007E000273428342A342B342C342E342F3430340C
:1007F0003234333434343634373439343A343C34A4
:100800003D343F344034003401340334053407347C
:1008100008340A340C340D340F34113413341534C5
:10082000163418341B341C341E342034233425343D
:10083000273429342B342D343034323435343734A2
:1008400039343C343E3401340234043407340A343D
:100850000D3410341334163419341C34203423343A
:10086000263429342D343134343438343C343F3454
:10087000023406340A340F34133417341C34213450
:1008800026342A342E34333439343F340334093493
:100890000D3414341B34213428342E3434343B3496
:1008A00002340934113419342034293432343C34BC
:1008B00004340D34163420342C34373404340A34E0
:1008C0001634233431343F340B341834293439345A
:1008D0000A341C342C343D34113425343C34123465
:1008E00029343E341634323410342F340B34283447
:1008F0000C34323430348A0138216208A60063088F
:10090000A700E830A2000330A3008A01D720E2004C
:100910002508E3008A01382164004C3066028A1100
:100920000A120318952C0230E4008A013821660867
:10093000A0004C308A019320DC006608A0008830BB
:100940008A019B20DE005C0884005E088A01B020DA
:10095000DE00DF0064005E085F048A110A120319DA
:10096000B32C0330E4008A0138216608A0008830E7
:100970008A019320DC006608A000A8308A019B2031
:10098000DE005C0884005E088A01B020DE00DF0023
:1009900064005E085F048A110A120319D12C043026
:1009A000E4008A0138216608A000A8308A0193205B
:1009B000DC006608A000BD308A019B20DE005C08D8
:1009C00084005E088A01B020DE00DF0064005E085B
:1009D0005F048A110A120319EF2C0530E4008A0122
:1009E00038216608A000BD308A019320DC0066082B
:1009F000A000CB308A019B20DE005C0884005E08EA
:100A00008A01B020DE00DF0064005E085F048A1106
:100A10000A1203190D2D0630E4008A0138216608F8
:100A2000A000CB308A019320DC006608A000D530FE
:100A30008A019B20DE005C0884005E088A01B020E9
:100A4000DE00DF0064005E085F048A110A120319E9
:100A50002B2D0730E4008A0138216608A000D5302C
:100A60008A019320DC006608A000DD308A019B200B
:100A7000DE005C0884005E088A01B020DE00DF0032
:100A800064005E085F048A110A120319492D0830B8
:100A9000E4008A0138216608A000DD308A01932035
:100AA000DC006608A000E3308A019B20DE005C08C1
:100AB00084005E088A01B020DE00DF0064005E086A
:100AC0005F048A110A120319672D0930E4008A01B4
:100AD00038216608A000E3308A019320DC00660814
:100AE000A000E9308A019B20DE005C0884005E08DB
:100AF0008A01B020DE00DF0064005E085F048A1116
:100B00000A120319852D0A30E4008A01382166088B
:100B1000A000E9308A019320DC006608A000ED30D7
:100B20008A019B20DE005C0884005E088A01B020F8
:100B3000DE00DF0064005E085F048A110A120319F8
:100B4000A32D0B30E4008A0138216608A000ED30A7
:100B50008A019320DC006608A000F1308A019B2006
:100B6000DE005C0884005E088A01B020DE00DF0041
:100B700064005E085F048A110A120319C12D0C304B
:100B8000E4008A0138216608A000F1308A01932030
:100B9000DC006608A000F4308A019B20DE005C08BF
:100BA00084005E088A01B020DE00DF0064005E0879
:100BB0005F048A110A120319DF2D0D30E4008A0147
:100BC00038216608A000F4308A019320DC00660812
:100BD000A000F7308A019B20DE005C0884005E08DC
:100BE0008A01B020DE00DF0064005E085F048A1125
:100BF0000A120319FD2D0E30E4008A01382166081F
:100C0000A000F7308A019320DC006608A000F930CC
:100C10008A019B20DE005C0884005E088A01B02007
:100C2000DE00DF0064005E085F048A110A12031907
:100C30001B2E0F30E4008A0138216608A000F9302D
:100C40008A019320DC006608A000FB308A019B200B
:100C5000DE005C0884005E088A01B020DE00DF0050
:100C600064005E085F048A110A120319392E1030DD
:100C7000E4008A0138216608A000FB308A01932035
:100C8000DC006608A000FD308A019B20DE005C08C5
:100C900084005E088A01B020DE00DF0064005E0888
:100CA0005F048A110A120319572E1130E4008A01D9
:100CB00038216608A000FD308A019320DC00660818
:100CC000A000FF308A019B20DE005C0884005E08E3
:100CD0008A01B020DE00DF0064005E085F048A1134
:100CE0000A120319752E1230E4008A0138216400BB
:100CF0006608FF3C8A110A12031D802E1330E4009F
:100D00008A01382110148A01382164008A110A12DC
:100D10006918922E3230A000A101073084002030E3
:100D20008A015A208A01382164008A110A12691C3A
:100D3000A12E3230A000A1010730840040308A018A
:100D40005A208A013821E6018A0138218A01382196
:100D500064008A110A12691CB02E8A150A12282012
:100D60008A0138218A0138218A018D298A01382196
:100D700010108A01382164006508003C8A110A12AB
:100D8000031DF62E8A0138218F018A0138218E0138
:100D90008A013821E8018A01382110148A0138219A
:100DA000E9148A013821E6018A013821E60164004C
:100DB0000B3066028A110A120318F42E8A013821B8
:100DC0000310660D383E84008001840A80018A0188
:100DD000382166084C3E840080018A013821E60AE9
:100DE0008A110A12031DD72E8A0138218A0138215F
:100DF0006400013065028A150A12031CDA288A0190
:100E00003821FF306507DC00FF300318013EDD00AC
:100E10005C08383E84000E0880008A013821FF30CB
:100E20006507DC00FF300318013EDD005C08393E39
:100E300084000F0880008A013821FF306507DC003C
:100E4000FF300318013EDD005C084C3E840068085A
:100E500080008A013821E001E1018A013821DA01AC
:100E6000DB018A013821E201E3018A013821E40132
:100E70008A0138210130E6008A0138210130E6007C
:100E80006400660865028A110A12031C822F8A0117
:100E90003821FF306607DC00FF300318013EDD001B
:100EA0005C08383E84000008DC005C08E00703189A
:100EB000E10A8A013821FF306607DC00FF300318A1
:100EC000013EDD005C08393E84000008DC005C085F
:100ED000DA070318DB0A8A013821FF306607DC00D5
:100EE000FF300318013EDD005C084C3E8400000822
:100EF000DC005C08E4078A013821E60A8A110A123C
:100F0000031D402F8A0138216008A0006108A1005C
:100F10006508A200A3018A01BB20E2008A013821F2
:100F20005A08A0005B08A1006508A200A3018A017D
:100F3000BB20E3008A0138216408A000A1016508F4
:100F4000A200A3018A01BB20E4008A0138216400C9
:100F5000143064028A110A12031CBA2F8A01382144
:100F60001330E4008A013821FA30E200FF30E30058
:100F70008A0138218A0138218F018A0138218E01A6
:100F80008A013821E8018A01382110148A013821A8
:100F9000E9148A013821CC30A6000C30A70064087F
:100FA000A200A3018A01D720E0002508E1008A0100
:100FB00038216208A0006308A1001430A200A30138
:100FC0008A01BB20DC002108DD005C08E0075D0829
:100FD0000318013EE1078A0138216008DA00610840
:100FE000DB008A01382164008A150A12691CD328A3
:100FF0008A0138219E018A01382183169E018312BD
:101000008A0138219F148A01382101308A01712018
:101010008A01382164008A150A120C1F08288A01E7
:1010200038210C138A013821FF30A600A7011E08C1
:10103000A200A3018A01D720DC002508DD00831669
:101040001E0883125C07D6005D080318013ED70016
:101050008A0138218A0138215608A0005708A100CA
:10106000A301D1308A0195208A150A12031D4B284D
:101070008A0138216008A0006108A1000330A200A5
:10108000A3018A01BB20DA002108DB008A01382194
:101090008A150A12D1285608A0005708A10002306C
:1010A000A30084308A0195208A150A12031D642842
:1010B0008A0138210310610CDB00600CDA008A0120
:1010C00038218A150A12D1285608A0005708A10015
:1010D0000330A30099308A0195208A150A12031D56
:1010E00090288A0138216008A0006108A10003301F
:1010F000A200A3018A01BB20DC002108DD005C08FE
:10110000A6005D08A7000230A200A3018A01D72033
:10111000DA002508DB008A0138218A150A12D12855
:101120005608A0005708A1000330A300E8308A0148
:1011300095208A150A12031DBC288A0138216008EF
:10114000A0006108A1000430A200A3018A01BB2015
:10115000DC002108DD005C08A6005D08A700033064
:10116000A200A3018A01D720DA002508DB008A014A
:1011700038218A150A12D1285608A0005708A10064
:101180000330A300E8308A019D208A150A12031D4E
:10119000D1288A0138216008DA006108DB008A0161
:1011A00038218A0138218A0138218A150A12EA2059
:1011B0008A0138218A013821E50A8A013821640030
:1011C00065080B3C8A150A12031DE728E5018A0110
:1011D000382108008A0138218A0138215A08A000E4
:1011E0005B08A1001E30A30061308A0195208A159A
:1011F0000A12031D03298A013821E7018A013821D7
:101200008A150A16EA2E5A08A0005B08A1001E30B3
:10121000A30071308A0195208A150A12031D19292D
:101220008A0138210130E7008A0138218A150A161F
:10123000EA2E5A08A0005B08A1001E30A3008430EB
:101240008A0195208A150A12031D2F298A01382147
:101250000230E7008A0138218A150A16EA2E5A0858
:10126000A0005B08A1001E30A30099308A019520E0
:101270008A150A12031D45298A0138210330E70027
:101280008A0138218A150A16EA2E5A08A0005B083E
:10129000A1001E30A300AE308A0195208A150A12E3
:1012A000031D5B298A0138210430E7008A013821B7
:1012B0008A150A16EA2E5A08A0005B08A1001E3003
:1012C000A300C3308A0195208A150A12031D7129D3
:1012D0008A0138210530E7008A0138218A150A166B
:1012E000EA2E5A08A0005B08A1001E30A300D630E9
:1012F0008A0195208A150A12031D87298A0138213F
:101300000630E7008A0138218A150A16EA2E5A08A3
:10131000A0005B08A1001E30A300EA308A019520DE
:101320008A150A12031D9D298A0138210730E7001A
:101330008A0138218A150A16EA2E5A08A0005B088D
:10134000A1001E30A300FF308A0195208A150A12E1
:10135000031DB3298A0138210830E7008A013821AA
:101360008A150A16EA2E5A08A0005B08A1001F3051
:10137000A30014308A0195208A150A12031DC92979
:101380008A0138210930E7008A0138218A150A16B6
:10139000EA2E5A08A0005B08A1001F30A3002B30E2
:1013A0008A0195208A150A12031DDF298A01382136
:1013B0000A30E7008A0138218A150A16EA2E5A08EF
:1013C000A0005B08A1001F30A30041308A019520D6
:1013D0008A150A12031DF5298A0138210B30E7000E
:1013E0008A0138218A150A16EA2E5A08A0005B08DD
:1013F000A1001F30A30055308A0195208A150A12DA
:10140000031D0B2A8A0138210C30E7008A0138219C
:101410008A150A16EA2E5A08A0005B08A1001F30A0
:10142000A3006B308A0195208A150A12031D212A18
:101430008A0138210D30E7008A0138218A150A1601
:10144000EA2E5A08A0005B08A1001F30A3008230DA
:101450008A0195208A150A12031D372A8A0138212C
:101460000E30E7008A0138218A150A16EA2E5A083A
:10147000A0005B08A1001F30A30098308A019520CE
:101480008A150A12031D4D2A8A0138210F30E70000
:101490008A0138218A150A16EA2E5A08A0005B082C
:1014A000A1001F30A300B0308A0195208A150A12CE
:1014B000031D632A8A0138211030E7008A01382190
:1014C0008A150A16EA2E5A08A0005B08A1001F30F0
:1014D000A300C8308A0195208A150A12031D792AB3
:1014E0008A0138211130E7008A0138218A150A164D
:1014F000EA2E5A08A0005B08A1001F30A300DB30D1
:101500008A0195208A150A12031D8F2A8A01382123
:101510001230E7008A0138218A150A16EA2E5A0885
:10152000A0005B08A1001F30A300F1308A019520C4
:101530008A150A12031DA52A8A0138211330E700F3
:101540008A0138218A150A16EA2E5A08A0005B087B
:10155000A1002030A3000A308A0195208A150A12C2
:10156000031DBB2A8A0138211430E7008A01382183
:101570008A150A16EA2E5A08A0005B08A10020303E
:10158000A30022308A0195208A150A12031DD12A50
:101590008A0138211530E7008A0138218A150A1698
:1015A000EA2E5A08A0005B08A1002030A3003A30C0
:1015B0008A0195208A150A12031DE72A8A0138211B
:1015C0001630E7008A0138218A150A16EA2E5A08D1
:1015D000A0005B08A1002030A30053308A019520B1
:1015E0008A150A12031DFD2A8A0138211730E700E7
:1015F0008A0138218A150A16EA2E5A08A0005B08CB
:10160000A1002030A30068308A0195208A150A12B3
:10161000031D132B8A0138211830E7008A01382175
:101620008A150A16EA2E5A08A0005B08A10020308D
:10163000A3007D308A0195208A150A12031D292BEB
:101640008A0138211930E7008A0138218A150A16E3
:10165000EA2E5A08A0005B08A1002030A3009630B3
:101660008A0195208A150A12031D3F2B8A01382111
:101670001A30E7008A0138218A150A16EA2E5A081C
:10168000A0005B08A1002030A300B1308A019520A2
:101690008A150A12031D552B8A0138211B30E700D9
:1016A0008A0138218A150A16EA2E5A08A0005B081A
:1016B000A1002030A300CA308A0195208A150A12A1
:1016C000031D6B2B8A0138211C30E7008A01382169
:1016D0008A150A16EA2E5A08A0005B08A1002030DD
:1016E000A300E3308A0195208A150A12031D812B7D
:1016F0008A0138211D30E7008A0138218A150A162F
:10170000EA2E5A08A0005B08A1002030A300F9309F
:101710008A0195208A150A12031D972B8A01382108
:101720001E30E7008A0138218A150A16EA2E5A0867
:10173000A0005B08A1002130A30010308A01952091
:101740008A150A12031DAD2B8A0138211F30E700CC
:101750008A0138218A150A16EA2E5A08A0005B0869
:10176000A1002130A3002B308A0195208A150A128E
:10177000031DC32B8A0138212030E7008A0138215C
:101780008A150A16EA2E5A08A0005B08A10021302B
:10179000A30047308A0195208A150A12031DD92B10
:1017A0008A0138212130E7008A0138218A150A167A
:1017B000EA2E5A08A0005B08A1002130A300623085
:1017C0008A0195208A150A12031DEF2B8A01382100
:1017D0002230E7008A0138218A150A16EA2E5A08B3
:1017E000A0005B08A1002130A30079308A01952078
:1017F0008A150A12031D052C8A0138212330E700BF
:101800008A0138218A150A16EA2E5A08A0005B08B8
:10181000A1002130A30090308A0195208A150A1278
:10182000031D1B2C8A0138212430E7008A0138214E
:101830008A150A16EA2E5A08A0005B08A10021307A
:10184000A300AC308A0195208A150A12031D312CA1
:101850008A0138212530E7008A0138218A150A16C5
:10186000EA2E5A08A0005B08A1002130A300C8306E
:101870008A0195208A150A12031D472C8A013821F6
:101880002630E7008A0138218A150A16EA2E5A08FE
:10189000A0005B08A1002130A300E3308A0195205D
:1018A0008A150A12031D5D2C8A0138212730E700B2
:1018B0008A0138218A150A16EA2E5A08A0005B0808
:1018C000A1002130A300FF308A0195208A150A1259
:1018D000031D732C8A0138212830E7008A01382142
:1018E0008A150A16EA2E5A08A0005B08A1002230C9
:1018F000A3001A308A0195208A150A12031D892C2B
:101900008A0138212930E7008A0138218A150A1610
:10191000EA2E5A08A0005B08A1002230A30035304F
:101920008A0195208A150A12031D9F2C8A013821ED
:101930002A30E7008A0138218A150A16EA2E5A0849
:10194000A0005B08A1002230A30051308A0195203D
:101950008A150A12031DB52C8A0138212B30E700A5
:101960008A0138218A150A16EA2E5A08A0005B0857
:10197000A1002230A3006E308A0195208A150A1238
:10198000031DCB2C8A0138212C30E7008A01382135
:101990008A150A16EA2E5A08A0005B08A100223018
:1019A000A3008A308A0195208A150A12031DE12CB2
:1019B0008A0138212D30E7008A0138218A150A165C
:1019C000EA2E5A08A0005B08A1002230A300A6302E
:1019D0008A0195208A150A12031DF72C8A013821E5
:1019E0002E30E7008A0138218A150A16EA2E5A0895
:1019F000A0005B08A1002230A300C1308A0195201D
:101A00008A150A12031D0D2D8A0138212F30E70097
:101A10008A0138218A150A16EA2E5A08A0005B08A6
:101A2000A1002230A300DE308A0195208A150A1217
:101A3000031D232D8A0138213030E7008A01382127
:101A40008A150A16EA2E5A08A0005B08A100223067
:101A5000A300FF308A0195208A150A12031D392D33
:101A60008A0138213130E7008A0138218A150A16A7
:101A7000EA2E5A08A0005B08A1002330A3001E3004
:101A80008A0195208A150A12031D4F2D8A013821DB
:101A90003230E7008A0138218A150A16EA2E5A08E0
:101AA000A0005B08A1002330A3003C308A019520F0
:101AB0008A150A12031D652D8A0138213330E7008B
:101AC0008A0138218A150A16EA2E5A08A0005B08F6
:101AD000A1002330A3005C308A0195208A150A12E8
:101AE000031D7B2D8A0138213430E7008A0138211B
:101AF0008A150A16EA2E5A08A0005B08A1002330B6
:101B0000A30079308A0195208A150A12031D912DB0
:101B10008A0138213530E7008A0138218A150A16F2
:101B2000EA2E5A08A0005B08A1002330A3009430DD
:101B30008A0195208A150A12031DA72D8A013821D2
:101B40003630E7008A0138218A150A16EA2E5A082B
:101B5000A0005B08A1002330A300B5308A019520C6
:101B60008A150A12031DBD2D8A0138213730E7007E
:101B70008A0138218A150A16EA2E5A08A0005B0845
:101B8000A1002330A300D6308A0195208A150A12BD
:101B9000031DD32D8A0138213830E7008A0138210E
:101BA0008A150A16EA2E5A08A0005B08A100233005
:101BB000A300F7308A0195208A150A12031DE92D2A
:101BC0008A0138213930E7008A0138218A150A163E
:101BD000EA2E5A08A0005B08A1002430A3001830A8
:101BE0008A0195208A150A12031DFF2D8A013821CA
:101BF0003A30E7008A0138218A150A16EA2E5A0877
:101C0000A0005B08A1002430A30037308A01952092
:101C10008A150A12031D152E8A0138213B30E70070
:101C20008A0138218A150A16EA2E5A08A0005B0894
:101C3000A1002430A30055308A0195208A150A128C
:101C4000031D2B2E8A0138213C30E7008A01382100
:101C50008A150A16EA2E5A08A0005B08A100243053
:101C6000A30078308A0195208A150A12031D412E9F
:101C70008A0138213D30E7008A0138218A150A1689
:101C8000EA2E5A08A0005B08A1002430A3009C3073
:101C90008A0195208A150A12031D572E8A013821C0
:101CA0003E30E7008A0138218A150A16EA2E5A08C2
:101CB000A0005B08A1002430A300BF308A0195205A
:101CC0008A150A12031D6D2E8A0138213F30E70064
:101CD0008A0138218A150A16EA2E5A08A0005B08E4
:101CE000A1002430A300E2308A0195208A150A124F
:101CF000031D832E8A0138214030E7008A013821F4
:101D00008A150A16EA2E5A08A0005B08A1002530A1
:101D1000A30001308A0195208A150A12031D992E0D
:101D20008A0138214130E7008A0138218A150A16D4
:101D3000EA2E5A08A0005B08A1002530A30020303D
:101D40008A0195208A150A12031DAF2E8A013821B7
:101D50004230E7008A0138218A150A16EA2E5A080D
:101D6000A0005B08A1002530A30044308A01952023
:101D70008A150A12031DC52E8A0138214330E70057
:101D80008A0138218A150A16EA2E5A08A0005B0833
:101D9000A1002530A30069308A0195208A150A1216
:101DA000031DDB2E8A0138214430E7008A013821E7
:101DB0008A150A16EA2E5A08A0005B08A1002530F1
:101DC000A3008E308A0195208A150A12031DF12E78
:101DD0008A0138214530E7008A0138218A150A1620
:101DE000EA2E5A08A0005B08A1002530A300B030FD
:101DF0008A0195208A150A12031D072F8A013821AE
:101E00004630E7008A0138218A150A16EA2E5A0858
:101E1000A0005B08A1002530A300D0308A019520E6
:101E20008A150A12031D1D2F8A0138214730E70049
:101E30008A0138218A150A16EA2E5A08A0005B0882
:101E4000A1002530A300F8308A0195208A150A12D6
:101E5000031D332F8A0138214830E7008A013821D9
:101E60008A150A16EA2E5A08A0005B08A10026303F
:101E7000A30021308A0195208A150A12031D492FDB
:101E80008A0138214930E7008A0138218A150A166B
:101E9000EA2E5A08A0005B08A1002630A3004730B4
:101EA0008A0195208A150A12031D5F2F8A013821A5
:101EB0004A30E7008A0138218A150A16EA2E5A08A4
:101EC000A0005B08A1002630A3006E308A01952097
:101ED0008A150A12031D752F8A0138214B30E7003D
:101EE0008A0138218A150A16EA2E5A08A0005B08D2
:101EF000A1002630A30090308A0195208A150A128D
:101F0000031D8B2F8A0138214C30E7008A013821CC
:101F10008A150A16EA2E5A08A0005B08A10026308E
:101F2000A300B4308A0195208A150A12031DA12F3F
:101F30008A0138214D30E7008A0138218A150A16B6
:101F4000EA2E5A08A0005B08A1002630A300DC306E
:101F50008A0195208A150A12031DB72F8A0138219C
:101F60004E30E7008A0138218A150A16EA2E5A08EF
:101F7000A0005B08A1002730A30004308A0195204F
:101F80008A150A12031DCD2F8A0138214F30E70030
:101F90008A0138218A150A16EA2E5A08A0005B0821
:101FA000A1002730A3002F308A0195208A150A123C
:101FB000031DE32F8A0138215030E7008A013821C0
:101FC0008A150A16EA2E5A08A0005B08A1002730DD
:101FD000A30058308A0195208A150A12031DF92F93
:101FE0008A0138215130E7008A0138218A150A1602
:101FF000EA2E5A08A0005B08A1002730A3007B301E
:102000008A0195208A110A16031D0F288A0138219A
:102010005230E7008A0138218A150A16EA2E5A083A
:10202000A0005B08A1002730A300A0308A01952002
:102030008A110A16031D25288A0138215330E7002A
:102040008A0138218A150A16EA2E5A08A0005B0870
:10205000A1002730A300CC308A0195208A110A16EE
:10206000031D3B288A0138215430E7008A013821BA
:102070008A150A16EA2E5A08A0005B08A10027302C
:10208000A300F8308A0195208A110A16031D5128F1
:102090008A0138215530E7008A0138218A150A164D
:1020A000EA2E5A08A0005B08A1002830A3002430C3
:1020B0008A0195208A110A16031D67288A01382192
:1020C0005630E7008A0138218A150A16EA2E5A0886
:1020D000A0005B08A1002830A30050308A019520A1
:1020E0008A110A16031D7D288A0138215730E7001E
:1020F0008A0138218A150A16EA2E5A08A0005B08C0
:10210000A1002830A30078308A0195208A110A1690
:10211000031D93288A0138215830E7008A013821AD
:102120008A150A16EA2E5A08A0005B08A10028307A
:10213000A300A1308A0195208A110A16031DA9283F
:102140008A0138215930E7008A0138218A150A1698
:10215000EA2E5A08A0005B08A1002830A300CF3067
:102160008A0195208A110A16031DBF288A01382189
:102170005A30E7008A0138218A150A16EA2E5A08D1
:10218000A0005B08A1002830A300FF308A01952041
:102190008A110A16031DD5288A0138215B30E70011
:1021A0008A0138218A150A16EA2E5A08A0005B080F
:1021B000A1002930A3002F308A0195208A110A1628
:1021C000031DEB288A0138215C30E7008A013821A1
:1021D0008A150A16EA2E5A08A0005B08A1002930C9
:1021E000A3005E308A0195208A110A16031D012979
:1021F0008A0138215D30E7008A0138218A150A16E4
:10220000EA2E5A08A0005B08A1002930A3008730FD
:102210008A0195208A110A16031D17298A0138217F
:102220005E30E7008A0138218A150A16EA2E5A081C
:10223000A0005B08A1002930A300B2308A019520DC
:102240008A110A16031D2D298A0138215F30E70003
:102250008A0138218A150A16EA2E5A08A0005B085E
:10226000A1002930A300E3308A0195208A110A16C3
:10227000031D43298A0138216030E7008A01382193
:102280008A150A16EA2E5A08A0005B08A1002A3017
:10229000A30014308A0195208A110A16031D5929BA
:1022A0008A0138216130E7008A0138218A150A162F
:1022B000EA2E5A08A0005B08A1002A30A30047308C
:1022C0008A0195208A110A16031D6F298A01382177
:1022D0006230E7008A0138218A150A16EA2E5A0868
:1022E000A0005B08A1002A30A30073308A0195206A
:1022F0008A110A16031D85298A0138216330E700F7
:102300008A0138218A150A16EA2E5A08A0005B08AD
:10231000A1002A30A300A1308A0195208A110A1653
:10232000031D9B298A0138216430E7008A01382186
:102330008A150A16EA2E5A08A0005B08A1002A3066
:10234000A300D6308A0195208A110A16031DB129EF
:102350008A0138216530E7008A0138218A150A167A
:10236000EA2E5A08A0005B08A1002B30A3000C3015
:102370008A0195208A110A16031DC7298A0138216E
:102380006630E7008A0138218A150A16EA2E5A08B3
:10239000A0005B08A1002B30A30041308A019520EA
:1023A0008A110A16031DDD298A0138216730E700EA
:1023B0008A0138218A150A16EA2E5A08A0005B08FD
:1023C000A1002B30A30076308A0195208A110A16CD
:1023D000031DF3298A0138216830E7008A0138217A
:1023E0008A150A16EA2E5A08A0005B08A1002B30B5
:1023F000A300A5308A0195208A110A16031D092A17
:102400008A0138216930E7008A0138218A150A16C5
:10241000EA2E5A08A0005B08A1002B30A300D4309C
:102420008A0195208A110A16031D1F2A8A01382164
:102430006A30E7008A0138218A150A16EA2E5A08FE
:10244000A0005B08A1002C30A3000A308A0195206F
:102450008A110A16031D352A8A0138216B30E700DC
:102460008A0138218A150A16EA2E5A08A0005B084C
:10247000A1002C30A30043308A0195208A110A164E
:10248000031D4B2A8A0138216C30E7008A0138216C
:102490008A150A16EA2E5A08A0005B08A1002C3003
:1024A000A3007E308A0195208A110A16031D612A35
:1024B0008A0138216D30E7008A0138218A150A1611
:1024C000EA2E5A08A0005B08A1002C30A300B83007
:1024D0008A0195208A110A16031D772A8A0138215C
:1024E0006E30E7008A0138218A150A16EA2E5A084A
:1024F000A0005B08A1002C30A300ED308A019520DC
:102500008A110A16031D8D2A8A0138216F30E700CF
:102510008A0138218A150A16EA2E5A08A0005B089B
:10252000A1002D30A30022308A0195208A110A16BD
:10253000031DA32A8A0138217030E7008A0138215F
:102540008A150A16EA2E5A08A0005B08A1002D3051
:10255000A3005E308A0195208A110A16031DB92A4C
:102560008A0138217130E7008A0138218A150A165C
:10257000EA2E5A08A0005B08A1002D30A3009C3071
:102580008A0195208A110A16031DCF2A8A01382153
:102590007230E7008A0138218A150A16EA2E5A0895
:1025A000A0005B08A1002D30A300D8308A0195203F
:1025B0008A110A16031DE52A8A0138217330E700C3
:1025C0008A0138218A150A16EA2E5A08A0005B08EB
:1025D000A1002E30A30015308A0195208A110A1619
:1025E000031DFB2A8A0138217430E7008A01382153
:1025F0008A150A16EA2E5A08A0005B08A1002E30A0
:10260000A3004C308A0195208A110A16031D112B54
:102610008A0138217530E7008A0138218A150A16A7
:10262000EA2E5A08A0005B08A1002E30A3008730D4
:102630008A0195208A110A16031D272B8A01382149
:102640007630E7008A0138218A150A16EA2E5A08E0
:10265000A0005B08A1002E30A300CA308A0195209B
:102660008A110A16031D3D2B8A0138217730E700B5
:102670008A0138218A150A16EA2E5A08A0005B083A
:10268000A1002F30A3000C308A0195208A110A1670
:10269000031D532B8A0138217830E7008A01382145
:1026A0008A150A16EA2E5A08A0005B08A1002F30EE
:1026B000A3004F308A0195208A110A16031D692B49
:1026C0008A0138217930E7008A0138218A150A16F3
:1026D000EA2E5A08A0005B08A1002F30A300913019
:1026E0008A0195208A110A16031D7F2B8A01382141
:1026F0007A30E7008A0138218A150A16EA2E5A082C
:10270000A0005B08A1002F30A300CF308A019520E4
:102710008A110A16031D952B8A0138217B30E700A8
:102720008A0138218A150A16EA2E5A08A0005B0889
:10273000A1003030A3000F308A0195208A110A16BB
:10274000031DAB2B8A0138217C30E7008A01382138
:102750008A150A16EA2E5A08A0005B08A10030303C
:10276000A30054308A0195208A110A16031DC12B3B
:102770008A0138217D30E7008A0138218A150A163E
:10278000EA2E5A08A0005B08A1003030A30099305F
:102790008A0195208A110A16031DD72B8A01382138
:1027A0007E30E7008A0138218A150A16EA2E5A0877
:1027B000A0005B08A1003030A300E3308A0195201F
:1027C0008A110A16031DED2B8A0138217F30E7009C
:1027D0008A0138218A150A16EA2E5A08A0005B08D9
:1027E000A1003130A3002B308A0195208A110A16EE
:1027F000031D032C8A0138218030E7008A0138212B
:102800008A150A16EA2E5A08A0005B08A10031308A
:10281000A3006C308A0195208A110A16031D192C19
:102820008A0138218130E7008A0138218A150A1689
:10283000EA2E5A08A0005B08A1003130A300AF3097
:102840008A0195208A110A16031D2F2C8A0138212E
:102850008230E7008A0138218A150A16EA2E5A08C2
:10286000A0005B08A1003130A300F9308A01952057
:102870008A110A16031D452C8A0138218330E7008E
:102880008A0138218A150A16EA2E5A08A0005B0828
:10289000A1003230A30045308A0195208A110A1622
:1028A000031D5B2C8A0138218430E7008A0138211E
:1028B0008A150A16EA2E5A08A0005B08A1003230D9
:1028C000A30091308A0195208A110A16031D712CEC
:1028D0008A0138218530E7008A0138218A150A16D5
:1028E000EA2E5A08A0005B08A1003230A300D230C3
:1028F0008A0195208A110A16031D872C8A01382126
:102900008630E7008A0138218A150A16EA2E5A080D
:10291000A0005B08A1003330A30019308A01952084
:102920008A110A16031D9D2C8A0138218730E70081
:102930008A0138218A150A16EA2E5A08A0005B0877
:10294000A1003330A3006C308A0195208A110A1649
:10295000031DB32C8A0138218830E7008A01382111
:102960008A150A16EA2E5A08A0005B08A100333027
:10297000A300C4308A0195208A110A16031DC92CB0
:102980008A0138218930E7008A0138218A150A1620
:10299000EA2E5A08A0005B08A1003430A3001C30C6
:1029A0008A0195208A110A16031DDF2C8A0138211D
:1029B0008A30E7008A0138218A150A16EA2E5A0859
:1029C000A0005B08A1003430A3006E308A0195207E
:1029D0008A110A16031DF52C8A0138218B30E70075
:1029E0008A0138218A150A16EA2E5A08A0005B08C7
:1029F000A1003430A300B6308A0195208A110A164E
:102A0000031D0B2D8A0138218C30E7008A01382103
:102A10008A150A16EA2E5A08A0005B08A100353074
:102A2000A30005308A0195208A110A16031D212D65
:102A30008A0138218D30E7008A0138218A150A166B
:102A4000EA2E5A08A0005B08A1003530A3006230CE
:102A50008A0195208A110A16031D372D8A01382113
:102A60008E30E7008A0138218A150A16EA2E5A08A4
:102A7000A0005B08A1003530A300BD308A0195207D
:102A80008A110A16031D4D2D8A0138218F30E70067
:102A90008A0138218A150A16EA2E5A08A0005B0816
:102AA000A1003630A30018308A0195208A110A1639
:102AB000031D632D8A0138219030E7008A013821F7
:102AC0008A150A16EA2E5A08A0005B08A1003630C3
:102AD000A30075308A0195208A110A16031D792DED
:102AE0008A0138219130E7008A0138218A150A16B7
:102AF000EA2E5A08A0005B08A1003630A300CB30B4
:102B00008A0195208A110A16031D8F2D8A0138210A
:102B10009230E7008A0138218A150A16EA2E5A08EF
:102B2000A0005B08A1003730A30021308A01952066
:102B30008A110A16031DA52D8A0138219330E7005A
:102B40008A0138218A150A16EA2E5A08A0005B0865
:102B5000A1003730A30080308A0195208A110A161F
:102B6000031DBB2D8A0138219430E7008A013821EA
:102B70008A150A16EA2E5A08A0005B08A100373011
:102B8000A300E2308A0195208A110A16031DD12D77
:102B90008A0138219530E7008A0138218A150A1602
:102BA000EA2E5A08A0005B08A1003830A300483084
:102BB0008A0195208A110A16031DE72D8A01382102
:102BC0009630E7008A0138218A150A16EA2E5A083B
:102BD000A0005B08A1003830A300A9308A0195202D
:102BE0008A110A16031DFD2D8A0138219730E7004E
:102BF0008A0138218A150A16EA2E5A08A0005B08B5
:102C0000A1003930A30004308A0195208A110A16E8
:102C1000031D132E8A0138219830E7008A013821DC
:102C20008A150A16EA2E5A08A0005B08A10039305E
:102C3000A30067308A0195208A110A16031D292EE8
:102C40008A0138219930E7008A0138218A150A164D
:102C5000EA2E5A08A0005B08A1003930A300D33047
:102C60008A0195208A110A16031D3F2E8A013821F8
:102C70009A30E7008A0138218A150A16EA2E5A0886
:102C8000A0005B08A1003A30A30040308A019520E3
:102C90008A110A16031D552E8A0138219B30E70040
:102CA0008A0138218A150A16EA2E5A08A0005B0804
:102CB000A1003A30A300AE308A0195208A110A168D
:102CC000031D6B2E8A0138219C30E7008A013821D0
:102CD0008A150A16EA2E5A08A0005B08A1003B30AC
:102CE000A3001C308A0195208A110A16031D812E2B
:102CF0008A0138219D30E7008A0138218A150A1699
:102D0000EA2E5A08A0005B08A1003B30A3008230E5
:102D10008A0195208A110A16031D972E8A013821EF
:102D20009E30E7008A0138218A150A16EA2E5A08D1
:102D3000A0005B08A1003B30A300ED308A01952084
:102D40008A110A16031DAD2E8A0138219F30E70033
:102D50008A0138218A150A16EA2E5A08A0005B0853
:102D6000A1003C30A30064308A0195208A110A1624
:102D7000031DC32E8A013821A030E7008A013821C3
:102D80008A150A16EA2E5A08A0005B08A1003C30FA
:102D9000A300DE308A0195208A110A16031DD92E60
:102DA0008A013821A130E7008A0138218A150A16E4
:102DB000EA2E5A08A0005B08A1003D30A30056305F
:102DC0008A0195208A110A16031DEF2E8A013821E7
:102DD000A230E7008A0138218A150A16EA2E5A081D
:102DE000A0005B08A1003D30A300C4308A019520FB
:102DF0008A110A16031D052F8A013821A330E70026
:102E00008A0138218A150A16EA2E5A08A0005B08A2
:102E1000A1003E30A30035308A0195208A110A16A0
:102E2000031D1B2F8A013821A430E7008A013821B5
:102E30008A150A16EA2E5A08A0005B08A1003E3047
:102E4000A300B5308A0195208A110A16031D312F7F
:102E50008A013821A530E7008A0138218A150A162F
:102E6000EA2E5A08A0005B08A1003F30A3003930C9
:102E70008A0195208A110A16031D472F8A013821DD
:102E8000A630E7008A0138218A150A16EA2E5A0868
:102E9000A0005B08A1003F30A300EE308A0195201E
:102EA0008A110A16031D5D2F8A013821A730E70019
:102EB0008A0138218A150A16EA2E5A08A0005B08F2
:102EC000A1004030A30072308A0195208A110A16B1
:102ED000031D732F8A013821A830E7008A013821A9
:102EE0008A150A16EA2E5A08A0005B08A100403095
:102EF000A300BD308A0195208A110A16031D892F6F
:102F00008A013821A930E7008A0138218A150A167A
:102F1000EA2E5A08A0005B08A1004130A3003D3012
:102F20008A0195208A110A16031D9F2F8A013821D4
:102F3000AA30E7008A0138218A150A16EA2E5A08B3
:102F4000A0005B08A1004130A300CF308A0195208A
:102F50008A110A16031DB52F8A013821AB30E7000C
:102F60008A0138218A150A16EA2E5A08A0005B0841
:102F7000A1004230A30069308A0195208A110A1607
:102F8000031DCB2F8A013821AC30E7008A0138219C
:102F90008A150A16EA2E5A08A0005B08A1004330E1
:102FA000A30001308A0195208A110A16031DE12F22
:102FB0008A013821AD30E7008A0138218A150A16C6
:102FC000EA2E5A08A0005B08A1004330A300953008
:102FD0008A0195208A110A16031DF72F8A013821CC
:102FE000AE30E7008A0138218A150A16EA2E5A08FF
:102FF000A0005B08A1004430A3001F308A01952087
:103000008A150A16031D0D288A013821AF30E70002
:103010008A0138218A150A16EA2E5A08A0005B0890
:10302000A1004430A300B2308A0195208A150A1607
:10303000031D23288A013821B030E7008A01382196
:103040008A150A16EA2E5A08A0005B08A10045302E
:10305000A30052308A0195208A150A16031D3928CB
:103060008A013821B130E7008A0138218A150A1611
:10307000EA2E5A08A0005B08A1004530A300F730F3
:103080008A0195208A150A16031D4F288A013821C6
:10309000B230E7008A0138218A150A16EA2E5A084A
:1030A000A0005B08A1004630A300A5308A0195204E
:1030B0008A150A16031D65288A013821B330E700F6
:1030C0008A0138218A150A16EA2E5A08A0005B08E0
:1030D000A1004730A3004C308A0195208A150A16BA
:1030E000031D7B288A013821B430E7008A0138218A
:1030F0008A150A16EA2E5A08A0005B08A10047307C
:10310000A300E4308A0195208A150A16031D912830
:103110008A013821B530E7008A0138218A150A165C
:10312000EA2E5A08A0005B08A1004830A3008930AD
:103130008A0195208A150A16031DA7288A013821BD
:10314000B630E7008A0138218A150A16EA2E5A0895
:10315000A0005B08A1004930A30042308A019520FD
:103160008A150A16031DBD288A013821B730E700E9
:103170008A0138218A150A16EA2E5A08A0005B082F
:10318000A1004930A300FC308A0195208A150A1657
:10319000031DD3288A013821B830E7008A0138217D
:1031A0008A150A16EA2E5A08A0005B08A1004A30C8
:1031B000A300BA308A0195208A150A16031DE92852
:1031C0008A013821B930E7008A0138218A150A16A8
:1031D000EA2E5A08A0005B08A1004B30A300723011
:1031E0008A0195208A150A16031DFF288A013821B5
:1031F000BA30E7008A0138218A150A16EA2E5A08E1
:10320000A0005B08A1004C30A3001F308A0195206C
:103210008A150A16031D15298A013821BB30E700DB
:103220008A0138218A150A16EA2E5A08A0005B087E
:10323000A1004C30A300DF308A0195208A150A16C0
:10324000031D2B298A013821BC30E7008A0138216F
:103250008A150A16EA2E5A08A0005B08A1004D3014
:10326000A300B2308A0195208A150A16031D412950
:103270008A013821BD30E7008A0138218A150A16F3
:10328000EA2E5A08A0005B08A1004E30A30084304B
:103290008A0195208A150A16031D57298A013821AB
:1032A000BE30E7008A0138218A150A16EA2E5A082C
:1032B000A0005B08A1004F30A30061308A01952077
:1032C0008A150A16031D6D298A013821BF30E700CF
:1032D0008A0138218A150A16EA2E5A08A0005B08CE
:1032E000A1005030A3003C308A0195208A150A16AF
:1032F000031D83298A013821C030E7008A01382163
:103300008A150A16EA2E5A08A0005B08A10051305F
:10331000A30004308A0195208A150A16031D9929F5
:103320008A013821C130E7008A0138218A150A163E
:10333000EA2E5A08A0005B08A1005130A300DC303F
:103340008A0195208A150A16031DAF298A013821A2
:10335000C230E7008A0138218A150A16EA2E5A0877
:10336000A0005B08A1005230A300CE308A01952056
:103370008A150A16031DC5298A013821C330E700C2
:103380008A0138218A150A16EA2E5A08A0005B081D
:10339000A1005330A300C2308A0195208A150A1675
:1033A000031DDB298A013821C430E7008A01382156
:1033B0008A150A16EA2E5A08A0005B08A1005430AC
:1033C000A300AF308A0195208A150A16031DF12942
:1033D0008A013821C530E7008A0138218A150A168A
:1033E000EA2E5A08A0005B08A1005530A3008B30DC
:1033F0008A0195208A150A16031D072A8A01382199
:10340000C630E7008A0138218A150A16EA2E5A08C2
:10341000A0005B08A1005630A30073308A019520FC
:103420008A150A16031D1D2A8A013821C730E700B4
:103430008A0138218A150A16EA2E5A08A0005B086C
:10344000A1005730A30081308A0195208A150A1601
:10345000031D332A8A013821C830E7008A01382148
:103460008A150A16EA2E5A08A0005B08A1005830F7
:10347000A30095308A0195208A150A16031D492A52
:103480008A013821C930E7008A0138218A150A16D5
:10349000EA2E5A08A0005B08A1005930A300B330FF
:1034A0008A0195208A150A16031D5F2A8A01382190
:1034B000CA30E7008A0138218A150A16EA2E5A080E
:1034C000A0005B08A1005A30A300D4308A019520E7
:1034D0008A150A16031D752A8A013821CB30E700A8
:1034E0008A0138218A150A16EA2E5A08A0005B08BC
:1034F000A1005B30A300D9308A0195208A150A16F5
:10350000031D8B2A8A013821CC30E7008A0138213B
:103510008A150A16EA2E5A08A0005B08A1005C3042
:10352000A300F8308A0195208A150A16031DA12AE6
:103530008A013821CD30E7008A0138218A150A1620
:10354000EA2E5A08A0005B08A1005E30A3004130BB
:103550008A0195208A150A16031DB72A8A01382187
:10356000CE30E7008A0138218A150A16EA2E5A0859
:10357000A0005B08A1005F30A30085308A01952080
:103580008A150A16031DCD2A8A013821CF30E7009B
:103590008A0138218A150A16EA2E5A08A0005B080B
:1035A000A1006030A300CE308A0195208A150A164A
:1035B000031DE32A8A013821D030E7008A0138212F
:1035C0008A150A16EA2E5A08A0005B08A10062308C
:1035D000A3001F308A0195208A150A16031DF92AB7
:1035E0008A013821D130E7008A0138218A150A166C
:1035F000EA2E5A08A0005B08A1006330A3005030F7
:103600008A0195208A150A16031D0F2B8A0138217D
:10361000D230E7008A0138218A150A16EA2E5A08A4
:10362000A0005B08A1006430A30094308A019520BB
:103630008A150A16031D252B8A013821D330E7008D
:103640008A0138218A150A16EA2E5A08A0005B085A
:10365000A1006630A3000B308A0195208A150A1656
:10366000031D3B2B8A013821D430E7008A01382121
:103670008A150A16EA2E5A08A0005B08A1006730D6
:10368000A3008A308A0195208A150A16031D512B42
:103690008A013821D530E7008A0138218A150A16B7
:1036A000EA2E5A08A0005B08A1006930A30012307E
:1036B0008A0195208A150A16031D672B8A01382175
:1036C000D630E7008A0138218A150A16EA2E5A08F0
:1036D000A0005B08A1006A30A30097308A01952002
:1036E0008A150A16031D7D2B8A013821D730E70081
:1036F0008A0138218A150A16EA2E5A08A0005B08AA
:10370000A1006C30A3000D308A0195208A150A169D
:10371000031D932B8A013821D830E7008A01382114
:103720008A150A16EA2E5A08A0005B08A1006D301F
:10373000A300A3308A0195208A150A16031DA92B20
:103740008A013821D930E7008A0138218A150A1602
:10375000EA2E5A08A0005B08A1006F30A300693070
:103760008A0195208A150A16031DBF2B8A0138216C
:10377000DA30E7008A0138218A150A16EA2E5A083B
:10378000A0005B08A1007130A30043308A0195209E
:103790008A150A16031DD52B8A013821DB30E70074
:1037A0008A0138218A150A16EA2E5A08A0005B08F9
:1037B000A1007330A3001E308A0195208A150A16D5
:1037C000031DEB2B8A013821DC30E7008A01382108
:1037D0008A150A16EA2E5A08A0005B08A100743068
:1037E000A300EB308A0195208A150A16031D012CCF
:1037F0008A013821DD30E7008A0138218A150A164E
:10380000EA2E5A08A0005B08A1007630A300A83079
:103810008A0195208A150A16031D172C8A01382162
:10382000DE30E7008A0138218A150A16EA2E5A0886
:10383000A0005B08A1007830A30089308A019520A0
:103840008A150A16031D2D2C8A013821DF30E70066
:103850008A0138218A150A16EA2E5A08A0005B0848
:10386000A1007A30A300AD308A0195208A150A168E
:10387000031D432C8A013821E030E7008A013821FA
:103880008A150A16EA2E5A08A0005B08A1007C30AF
:10389000A300E4308A0195208A150A16031D592CCD
:1038A0008A013821E130E7008A0138218A150A1699
:1038B000EA2E5A08A0005B08A1007F30A3007330F5
:1038C0008A0195208A150A16031D6F2C8A0138215A
:1038D000E230E7008A0138218A150A16EA2E5A08D2
:1038E000A0005B08A1008130A30071308A019520FF
:1038F0008A150A16031D852C8A013821E330E7005A
:103900008A0138218A150A16EA2E5A08A0005B0897
:10391000A1008330A3002C308A0195208A150A1655
:10392000031D9B2C8A013821E430E7008A013821ED
:103930008A150A16EA2E5A08A0005B08A1008530F5
:10394000A300AD308A0195208A150A16031DB12CFB
:103950008A013821E530E7008A0138218A150A16E4
:10396000EA2E5A08A0005B08A1008830A3004B3063
:103970008A0195208A150A16031DC72C8A01382151
:10398000E630E7008A0138218A150A16EA2E5A081D
:10399000A0005B08A1008B30A3000C308A019520A9
:1039A0008A150A16031DDD2C8A013821E730E7004D
:1039B0008A0138218A150A16EA2E5A08A0005B08E7
:1039C000A1008D30A300D1308A0195208A150A16F6
:1039D000031DF32C8A013821E830E7008A013821E1
:1039E0008A150A16EA2E5A08A0005B08A10090303A
:1039F000A30061308A0195208A150A16031D092D3E
:103A00008A013821E930E7008A0138218A150A162F
:103A1000EA2E5A08A0005B08A1009330A3004830AA
:103A20008A0195208A150A16031D1F2D8A01382147
:103A3000EA30E7008A0138218A150A16EA2E5A0868
:103A4000A0005B08A1009630A30080308A01952079
:103A50008A150A16031D352D8A013821EB30E7003F
:103A60008A0138218A150A16EA2E5A08A0005B0836
:103A7000A1009930A300D5308A0195208A150A1635
:103A8000031D4B2D8A013821EC30E7008A013821D3
:103A90008A150A16EA2E5A08A0005B08A1009D307C
:103AA000A3005F308A0195208A150A16031D612D37
:103AB0008A013821ED30E7008A0138218A150A167B
:103AC000EA2E5A08A0005B08A100A030A300AF3086
:103AD0008A0195208A150A16031D772D8A0138213F
:103AE000EE30E7008A0138218A150A16EA2E5A08B4
:103AF000A0005B08A100A330A300E9308A01952053
:103B00008A150A16031D8D2D8A013821EF30E70032
:103B10008A0138218A150A16EA2E5A08A0005B0885
:103B2000A100A730A300A8308A0195208A150A16A3
:103B3000031DA32D8A013821F030E7008A013821C6
:103B40008A150A16EA2E5A08A0005B08A100AB30BD
:103B5000A300C2308A0195208A150A16031DB92DCB
:103B60008A013821F130E7008A0138218A150A16C6
:103B7000EA2E5A08A0005B08A100B030A3000B3069
:103B80008A0195208A150A16031DCF2D8A01382136
:103B9000F230E7008A0138218A150A16EA2E5A08FF
:103BA000A0005B08A100B430A30091308A019520E9
:103BB0008A150A16031DE52D8A013821F330E70026
:103BC0008A0138218A150A16EA2E5A08A0005B08D5
:103BD000A100B930A3000D308A0195208A150A167C
:103BE000031DFB2D8A013821F430E7008A013821BA
:103BF0008A150A16EA2E5A08A0005B08A100BD30FB
:103C0000A30056308A0195208A150A16031D112E2D
:103C10008A013821F530E7008A0138218A150A1611
:103C2000EA2E5A08A0005B08A100C130A300E430CE
:103C30008A0195208A150A16031D272E8A0138212C
:103C4000F630E7008A0138218A150A16EA2E5A084A
:103C5000A0005B08A100C730A30022308A01952094
:103C60008A150A16031D3D2E8A013821F730E70018
:103C70008A0138218A150A16EA2E5A08A0005B0824
:103C8000A100CC30A300F1308A0195208A150A16D4
:103C9000031D532E8A013821F830E7008A013821AC
:103CA0008A150A16EA2E5A08A0005B08A100D33034
:103CB000A30014308A0195208A150A16031D692E67
:103CC0008A013821F930E7008A0138218A150A165D
:103CD000EA2E5A08A0005B08A100D930A3000A30E0
:103CE0008A0195208A150A16031D7F2E8A01382124
:103CF000FA30E7008A0138218A150A16EA2E5A0896
:103D0000A0005B08A100DE30A300BA308A01952034
:103D10008A150A16031D952E8A013821FB30E7000B
:103D20008A0138218A150A16EA2E5A08A0005B0873
:103D3000A100E530A3003B308A0195208A150A16C0
:103D4000031DAB2E8A013821FC30E7008A0138219F
:103D50008A150A16EA2E5A08A0005B08A100EC306A
:103D6000A30095308A0195208A150A16031DC12EDD
:103D70008A013821FD30E7008A0138218A150A16A8
:103D8000EA2E5A08A0005B08A100F630A3006A30B2
:103D90008A0195208A150A16031DD72E8A0138211B
:103DA000FE30E7008A0138218A150A16EA2E5A08E1
:103DB000A0005B08A100FF30A300FF308A0195201E
:103DC0008A150A16031DEA2E8A013821FF30E70002
:103DD0008A0138218A0138216708A800FF30A20033
:103DE000A30101308A0105208A013821080003015E
:103DF00083160C18FF308312DC0003010C18FF300F
:103E0000DE005C0884005E088A01B020DE00DF006E
:103E100064005E085F048A150A1603193A2FE80A3F
:103E200068086402031DFF30FF3ADC006508003CAF
:103E3000031DFF30FF3ADE005C0884005E088A0143
:103E4000B020DE00DF0064005E085F048A150A16F9
:103E500003192B2FE91464001F3068028A150A1613
:103E6000031C392F10108F018E01E8011014E91482
:103E7000E5010C1009008A01382163008A150A1631
:023E80003D2FD4
:02400E0004208C
:02401000FF3F70
:00000001FF
