:020000040000FA
:02000000AB282B
:080008000800A9004030A0002F
:100010004230A1000F30A400A5017620AA012108DA
:10002000031919282A144620FC3E031C1928AA1477
:1000300046202003AB00280F2128FF30A400A50094
:100040002C282808A500A401A600A7012B0A031943
:100050002C28A200A3019020A90B45281508CF3910
:10006000A41B2038241B10380C3895002508930059
:100070008316051183122B0883169200831212082F
:10008000FC392A0404389200A628A628A10CA00C4A
:10009000A10CA00C0800A301A200FF30A207031CC2
:1000A000A307031CA6280330A100DF3059204D28E8
:1000B000A101E83EA000A109FC30031C6228A007B2
:1000C00003185F28A0076400A10F5F282018682884
:1000D000A01C6C2800006C2808000038031DFF30AD
:1000E0000405031DFF30A628A501A4011030A600B9
:1000F000210DA40DA50D2208A4022308031C230F23
:10010000A50203188A282208A40723080318230F2E
:10011000A5070310A00DA10DA60B78282008A6287E
:100120001030A800A101A001A70CA60C031C9E285A
:100130002208A00723080318230FA107A10CA00C75
:10014000A50CA40CA80B94282408A6288313031339
:10015000831264000800831677308F001830850002
:1001600008309F0083128D309F00073099009A015C
:10017000831681018312C0308B0083168C01831299
:100180008C01143090000E3095008B17CA288B1B01
:100190000800712AC7209301C7209401C720CC0111
:1001A000C72083169E018312C7209E01C720B80175
:1001B000B901C7204F10C7200510C7209F14C720C2
:1001C00064000C1FDF28C720FF30A600A7011E080F
:1001D000A200A3019020BA002508BB0083161E08C8
:1001E00083123A07B8003B080318013EB900C72044
:1001F0003808A0003908A1000430A200A30174202F
:10020000CD00C7204D08A8001030A2002730A30061
:1002100001300520C720C8304B20C720DD28C7206B
:1002200064004F1C3529C72064000E084602031DD8
:100230001329C72064000F084702031D1929C7208E
:100240001010C7208F01C7208E01C720CE01C72004
:100250001014C7200514C7200130A100F430592024
:10026000C7200510C7204F10C720C720640085197C
:10027000652AC7206722C720CC0AC720C720640090
:100280004C08013C031D6E29C7201010C72083169F
:100290008C018312C7208C01C7208F01C7208E01DB
:1002A000C720CE01C720C801C720C901C720CA0185
:1002B000C720CB01C720C001C101C720C201C301B3
:1002C000C720C401C501C720C601C701C7208316C6
:1002D0000C148312C7201014C720642A64004C0831
:1002E000023C031D9229C7201010C72083168C01E1
:1002F0008312C7208C01C7200E08C000C7200F083A
:10030000C100C7208F01C7208E01C7204E08C90039
:10031000C720CE01C72083160C148312C7201014E7
:10032000C720642A64004C08033C031DB629C7207B
:100330001010C72083168C018312C7208C01C720A0
:100340000E08C200C7200F08C300C7208F01C720B6
:100350008E01C7204E08CA00C720CE01C7208316D1
:100360000C148312C7201014C720642A64004C08A0
:10037000043C031D642AC7201010C72083168C017B
:100380008312C7208C01C7200E08C400C7200F08A5
:10039000C500C7204E08CB00C72049084A07BA004D
:1003A000BB01BB0D3A084B07C800C7204808A00096
:1003B000A1010330A200A3017420C800C72064007B
:1003C00008304802031CE6290730C800C72040084F
:1003D0004207BA00BB01BB0D44083A07C6003B0800
:1003E0000318013EC700C7204608A0004708A10027
:1003F0000330A200A3017420C6002108C700C72053
:1004000046089300C72041084307BA00BB01BB0D53
:1004100045083A07C6003B080318013EC700C7203D
:100420004608A0004708A1000330A200A3017420E1
:10043000C6002108C700C72046089400C72013083B
:10044000C600C7201408C700C7204608A0004708F8
:10045000A1000A30A200A3017420B8002108B9004D
:10046000C7209930A6001930A7004808A200A301B0
:100470009020BE002508BF00C7203808BE073908F5
:100480000318013EBF07C7203E08A0003F08A10097
:10049000FF30A200A3017420CD00C7204D08A800A2
:1004A000FF30A200A30101300520C720CE01C720E4
:1004B000CC01C7208F01C7208E01C72083160C14E2
:1004C0008312C7201014C720C720C720DD28C720EB
:1004D000C72064304B20C7206400851D682AC720D0
:1004E0000800030183160C18FF308312BA000301C1
:1004F0000C18FF30BC003A0884003C086D20BC009A
:10050000BD0064003C083D0403198E2ACE0A640035
:100510004E084802031D8D2A4F140C100900C720F5
:040520006300902ABA
:02400E00FC3F75
:00000001FF
