:020000040000FA
:02000000D928FD
:080008000800A9004030A0002F
:100010004230A1000F30A400A501A420AA012108AC
:10002000031919282A145520FC3E031C1928AA1468
:1000300055202003AB00280F2128FF30A400A50085
:100040002C282808A500A401A600A7012B0A031943
:100050002C28A200A301BE20A90B45281708CF39E0
:10006000A41B2038241B10380C3897002508950055
:100070008316071183122B0883169200831212082D
:10008000FC392A0404389200D428A90B54281D08EE
:10009000CF39A41B2038241B10380C389D002508AC
:1000A0009B00831687103A28D428A10CA00CA10C21
:1000B000A00C0800A301A200FF30A207031CA307A5
:1000C000031CD4280330A100DF3068205C28A10184
:1000D000E83EA000A109FC30031C7128A00703180A
:1000E0006E28A0076400A10F6E2820187728A01C96
:1000F0007B2800007B280800A20003308728A1018C
:10010000A301A20001308728A20004308728A8009C
:1001100023082102031D8E28220820020430031820
:100120000130031902302805031DFF30D4280038A0
:10013000031DFF300405031DFF30D4280404031DF4
:10014000FF30D428A501A4011030A600210DA40D74
:10015000A50D2208A4022308031C230FA5020318DF
:10016000B8282208A40723080318230FA5070310A3
:10017000A00DA10DA60BA6282008D4281030A80099
:10018000A101A001A70CA60C031CCC282208A007E3
:1001900023080318230FA107A10CA00CA50CA40C85
:1001A000A80BC2282408D4288313031383126400E5
:1001B0000800C0309F00831677308F000330850021
:1001C0000830860010308700950181018312C0300D
:1001D0008B008316960101308C008D0183128C01F7
:1001E0008D018316031701308800890183120313E0
:1001F00081309F00831680309F00831203172130C7
:1002000087008801890183168501831203139001F9
:100210000F3097009D0183169C0101309D008312D1
:10022000053094008B178A110A121B298B1B0800BA
:100230008A150A16BA298A01162185108A01162103
:1002400005118A01162187128A01162106128A01D8
:10025000162186128A011621E9018A011621E5017B
:100260008A011621FE30E000FF30E1008A011621EC
:10027000DA01DB018A011621D601D7018A01162194
:100280000A30D800D9018A011621E6018A01162117
:10029000E9018A011621E8018A0116211330E400E0
:1002A0008A011621FA30E200FF30E3008A011621AC
:1002B000CC018A011621B801B9018A01162110105A
:1002C0008A0116218F018A0116218E018A011621C9
:1002D00010148A01162164008A110A1286198529D0
:1002E0008A011621103086068316061283128A01AF
:1002F000162164008A110A128619832932308A0174
:100300005A208A0177298A0116218A011621640060
:100310008A110A12071AA4298A0116218A110A12BF
:1003200063228A0116218A110A12AD238A0116213D
:1003300032308A015A208A01162164008A110A1279
:10034000071E96298A0116218A01162164008A1146
:100350000A12E91CDE298A011621640062080E02D5
:100360008A110A12031CAB298A0116216400630852
:100370000F028A110A12031CB4298A0116211010D7
:100380008A011621E8018A0116218F018A011621AE
:100390008E018A01162110148A01162187168A01FE
:1003A00016210130A1002C308A0168208A01162113
:1003B00087128A011621E9108A0116218A01162165
:1003C0009E018A01162183169E0183128A0116213D
:1003D0009F148A01162101308A015A208A011621B0
:1003E00064008A110A120C1FEE298A0116210C13CF
:1003F0008A011621FF30A600A7011E08A200A30152
:100400008A01BE20DC002508DD0083161E08831249
:100410005C07D6005D080318013ED7008A0116214B
:1004200002305802DC000030031C013E5902DD009E
:100430005608A0005708A1005D08A3005C088A01C7
:100440008420DC0002305807DE0059080318013E02
:10045000DF005608A0005708A1005F08A3005E084F
:100460008A018120DE005C0884005E088A019E20EB
:10047000DE00DF0064005E085F048A110A120319BF
:100480005F2A8A0116215608D8005708D9008A0128
:1004900016215608A0005708A1000430A200A301AD
:1004A0008A01A220E7008A0116216708A800FF3010
:1004B000A200A30101308A0105208A0116218A01C8
:1004C00016218A0169298A01162110108A01162134
:1004D0008A01162164006508003C8A110A12031D76
:1004E000A52A8A0116218F018A0116218E018A010F
:1004F0001621E8018A01162110148A011621E6014D
:100500008A011621E60164000B3066028A110A1284
:100510000318A02A8A0116210310660D383E8400B4
:100520008001840A80018A01162166084C3E8400FD
:1005300080018A011621E60A8A110A12031D832A04
:100540008A0116218A110A12E42A64000130650228
:100550008A110A12031CE42A8A011621FF3065075A
:10056000DC00FF300318013EDD005C08383E8400EB
:100570000E0880008A011621FF306507DC00FF307D
:100580000318013EDD005C08393E84000F0880003E
:100590008A011621FF306507DC00FF300318013E99
:1005A000DD005C084C3E8400680880008A0116214A
:1005B0008F018A0116218E018A011621E8018A0124
:1005C000162110148A0116218A01162164000130B7
:1005D00065028A110A12031CA72B8A011621E00169
:1005E000E1018A011621DA01DB018A011621E2010B
:1005F000E3018A011621E4018A011621E6018A013C
:1006000016210130E6006400660865028A110A12AC
:10061000031C452B8A011621FF306507DC00FF30E3
:100620000318013EDD005C08383E84000008DC0051
:100630005C08E0070318E10A8A011621FF3065070C
:10064000DC00FF300318013EDD005C08393E840009
:100650000008DC005C08DA070318DB0A8A011621AF
:10066000FF306507DC00FF300318013EDD005C0849
:100670004C3E84000008DC005C08E4078A01162177
:10068000E60A8A110A12031D032B8A01162160084B
:10069000A0006108A1006508A200A3018A01A220B0
:1006A000E2008A0116216008A0006108A100650827
:1006B000A200A3018A01A220E3008A011621640896
:1006C000A000A1016508A200A3018A01A220E40004
:1006D0008A0116216400143064028A110A12031C74
:1006E0007D2B8A0116211330E4008A011621FA308D
:1006F000E200FF30E3008A0116218A011621CC3086
:10070000A6000C30A7006408A200A3018A01BE2045
:10071000E0002508E1008A0116216208A0006308B4
:10072000A1001430A200A3018A01A220DC0021084C
:10073000DD005C08E0075D080318013EE1078A015F
:1007400016216008DA006108DB008A0116218A019F
:100750001621E50A8A01162108008A0116218A015C
:1007600016215A08A0005B08A1001E30A3006130CA
:100770008A017C208A110A12031DC62B8A011621C8
:10078000E7018A0116218A150A16AD295A08A00028
:100790005B08A1001E30A30071308A017C208A1101
:1007A0000A12031DDC2B8A0116210130E7008A01A1
:1007B00016218A150A16AD295A08A0005B08A10067
:1007C0001E30A30084308A017C208A110A12031D86
:1007D000F22B8A0116210230E7008A0116218A15C0
:1007E0000A16AD295A08A0005B08A1001E30A3001C
:1007F00099308A017C208A110A12031D082C8A0173
:1008000016210330E7008A0116218A150A16AD2940
:100810005A08A0005B08A1001E30A300AE308A0178
:100820007C208A110A12031D1E2C8A011621043015
:10083000E7008A0116218A150A16AD295A08A00078
:100840005B08A1001E30A300C3308A017C208A11FE
:100850000A12031D342C8A0116210530E7008A0193
:1008600016218A150A16AD295A08A0005B08A100B6
:100870001E30A300D6308A017C208A110A12031D83
:100880004A2C8A0116210630E7008A0116218A15B2
:100890000A16AD295A08A0005B08A1001E30A3006B
:1008A000EA308A017C208A110A12031D602C8A0119
:1008B00016210730E7008A0116218A150A16AD298C
:1008C0005A08A0005B08A1001E30A300FF308A0177
:1008D0007C208A110A12031D762C8A011621083009
:1008E000E7008A0116218A150A16AD295A08A000C8
:1008F0005B08A1001F30A30014308A017C208A11FC
:100900000A12031D8C2C8A0116210930E7008A0186
:1009100016218A150A16AD295A08A0005B08A10005
:100920001F30A3002B308A017C208A110A12031D7C
:10093000A22C8A0116210A30E7008A0116218A15A5
:100940000A16AD295A08A0005B08A1001F30A300B9
:1009500041308A017C208A110A12031DB82C8A01B9
:1009600016210B30E7008A0116218A150A16AD29D7
:100970005A08A0005B08A1001F30A30055308A016F
:100980007C208A110A12031DCE2C8A0116210C30FC
:10099000E7008A0116218A150A16AD295A08A00017
:1009A0005B08A1001F30A3006B308A017C208A11F4
:1009B0000A12031DE42C8A0116210D30E7008A017A
:1009C00016218A150A16AD295A08A0005B08A10055
:1009D0001F30A30082308A017C208A110A12031D75
:1009E000FA2C8A0116210E30E7008A0116218A1599
:1009F0000A16AD295A08A0005B08A1001F30A30009
:100A000098308A017C208A110A12031D102D8A0158
:100A100016210F30E7008A0116218A150A16AD2922
:100A20005A08A0005B08A1001F30A300B0308A0163
:100A30007C208A110A12031D262D8A0116211030EE
:100A4000E7008A0116218A150A16AD295A08A00066
:100A50005B08A1001F30A300C8308A017C208A11E6
:100A60000A12031D3C2D8A0116211130E7008A016C
:100A700016218A150A16AD295A08A0005B08A100A4
:100A80001F30A300DB308A017C208A110A12031D6B
:100A9000522D8A0116211230E7008A0116218A158B
:100AA0000A16AD295A08A0005B08A1001F30A30058
:100AB000F1308A017C208A110A12031D682D8A01F7
:100AC00016211330E7008A0116218A150A16AD296E
:100AD0005A08A0005B08A1002030A3000A308A0158
:100AE0007C208A110A12031D7E2D8A0116211430E2
:100AF000E7008A0116218A150A16AD295A08A000B6
:100B00005B08A1002030A30022308A017C208A11DA
:100B10000A12031D942D8A0116211530E7008A015F
:100B200016218A150A16AD295A08A0005B08A100F3
:100B30002030A3003A308A017C208A110A12031D5A
:100B4000AA2D8A0116211630E7008A0116218A157E
:100B50000A16AD295A08A0005B08A1002030A300A6
:100B600053308A017C208A110A12031DC02D8A018C
:100B700016211730E7008A0116218A150A16AD29B9
:100B80005A08A0005B08A1002030A30068308A0149
:100B90007C208A110A12031DD62D8A0116211830D5
:100BA000E7008A0116218A150A16AD295A08A00005
:100BB0005B08A1002030A3007D308A017C208A11CF
:100BC0000A12031DEC2D8A0116211930E7008A0153
:100BD00016218A150A16AD295A08A0005B08A10043
:100BE0002030A30096308A017C208A110A12031D4E
:100BF000022E8A0116211A30E7008A0116218A1571
:100C00000A16AD295A08A0005B08A1002030A300F5
:100C1000B1308A017C208A110A12031D182E8A0124
:100C200016211B30E7008A0116218A150A16AD2904
:100C30005A08A0005B08A1002030A300CA308A0136
:100C40007C208A110A12031D2E2E8A0116211C30C7
:100C5000E7008A0116218A150A16AD295A08A00054
:100C60005B08A1002030A300E3308A017C208A11B8
:100C70000A12031D442E8A0116211D30E7008A0145
:100C800016218A150A16AD295A08A0005B08A10092
:100C90002030A300F9308A017C208A110A12031D3A
:100CA0005A2E8A0116211E30E7008A0116218A1564
:100CB0000A16AD295A08A0005B08A1002130A30044
:100CC00010308A017C208A110A12031D702E8A01BD
:100CD00016211F30E7008A0116218A150A16AD2950
:100CE0005A08A0005B08A1002130A3002B308A0124
:100CF0007C208A110A12031D862E8A0116212030BB
:100D0000E7008A0116218A150A16AD295A08A000A3
:100D10005B08A1002130A30047308A017C208A11A2
:100D20000A12031D9C2E8A0116212130E7008A0138
:100D300016218A150A16AD295A08A0005B08A100E1
:100D40002130A30062308A017C208A110A12031D1F
:100D5000B22E8A0116212230E7008A0116218A1557
:100D60000A16AD295A08A0005B08A1002130A30093
:100D700079308A017C208A110A12031DC82E8A014B
:100D800016212330E7008A0116218A150A16AD299B
:100D90005A08A0005B08A1002130A30090308A010E
:100DA0007C208A110A12031DDE2E8A0116212430AE
:100DB000E7008A0116218A150A16AD295A08A000F3
:100DC0005B08A1002130A300AC308A017C208A118D
:100DD0000A12031DF42E8A0116212530E7008A012C
:100DE00016218A150A16AD295A08A0005B08A10031
:100DF0002130A300C8308A017C208A110A12031D09
:100E00000A2F8A0116212630E7008A0116218A1549
:100E10000A16AD295A08A0005B08A1002130A300E2
:100E2000E3308A017C208A110A12031D202F8A01D7
:100E300016212730E7008A0116218A150A16AD29E6
:100E40005A08A0005B08A1002130A300FF308A01EE
:100E50007C208A110A12031D362F8A0116212830A0
:100E6000E7008A0116218A150A16AD295A08A00042
:100E70005B08A1002230A3001A308A017C208A116D
:100E80000A12031D4C2F8A0116212930E7008A011E
:100E900016218A150A16AD295A08A0005B08A10080
:100EA0002230A30035308A017C208A110A12031DEA
:100EB000622F8A0116212A30E7008A0116218A153D
:100EC0000A16AD295A08A0005B08A1002230A30031
:100ED00051308A017C208A110A12031D782F8A0161
:100EE00016212B30E7008A0116218A150A16AD2932
:100EF0005A08A0005B08A1002230A3006E308A01CE
:100F00007C208A110A12031D8E2F8A0116212C3093
:100F1000E7008A0116218A150A16AD295A08A00091
:100F20005B08A1002230A3008A308A017C208A114C
:100F30000A12031DA42F8A0116212D30E7008A0111
:100F400016218A150A16AD295A08A0005B08A100CF
:100F50002230A300A6308A017C208A110A12031DC8
:100F6000BA2F8A0116212E30E7008A0116218A1530
:100F70000A16AD295A08A0005B08A1002230A30080
:100F8000C1308A017C208A110A12031DD02F8A01E8
:100F900016212F30E7008A0116218A150A16AD297D
:100FA0005A08A0005B08A1002230A300DE308A01AD
:100FB0007C208A110A12031DE62F8A011621303087
:100FC000E7008A0116218A150A16AD295A08A000E1
:100FD0005B08A1002230A300FF308A017C208A1127
:100FE0000A12031DFC2F8A0116213130E7008A0105
:100FF00016218A150A16AD295A08A0005B08A1001F
:101000002330A3001E308A017C208A150A12031D9A
:1010100012288A0116213230E7008A0116218A152A
:101020000A16AD295A08A0005B08A1002330A300CE
:101030003C308A017C208A150A12031D28288A0167
:1010400016213330E7008A0116218A150A16AD29C8
:101050005A08A0005B08A1002330A3005C308A017D
:101060007C208A150A12031D3E288A01162134307D
:10107000E7008A0116218A150A16AD295A08A00030
:101080005B08A1002330A30079308A017C208A15F7
:101090000A12031D54288A0116213530E7008A01FF
:1010A00016218A150A16AD295A08A0005B08A1006E
:1010B0002330A30094308A017C208A150A12031D74
:1010C0006A288A0116213630E7008A0116218A151E
:1010D0000A16AD295A08A0005B08A1002330A3001E
:1010E000B5308A017C208A150A12031D80288A01E6
:1010F00016213730E7008A0116218A150A16AD2914
:101100005A08A0005B08A1002330A300D6308A0152
:101110007C208A150A12031D96288A011621383070
:10112000E7008A0116218A150A16AD295A08A0007F
:101130005B08A1002330A300F7308A017C208A15C8
:101140000A12031DAC288A0116213930E7008A01F2
:1011500016218A150A16AD295A08A0005B08A100BD
:101160002430A30018308A017C208A150A12031D3E
:10117000C2288A0116213A30E7008A0116218A1511
:101180000A16AD295A08A0005B08A1002430A3006C
:1011900037308A017C208A150A12031DD8288A015B
:1011A00016213B30E7008A0116218A150A16AD295F
:1011B0005A08A0005B08A1002430A30055308A0122
:1011C0007C208A150A12031DEE288A0116213C3064
:1011D000E7008A0116218A150A16AD295A08A000CF
:1011E0005B08A1002430A30078308A017C208A1596
:1011F0000A12031D04298A0116213D30E7008A01E5
:1012000016218A150A16AD295A08A0005B08A1000C
:101210002430A3009C308A017C208A150A12031D09
:101220001A298A0116213E30E7008A0116218A1503
:101230000A16AD295A08A0005B08A1002430A300BB
:10124000BF308A017C208A150A12031D30298A01C9
:1012500016213F30E7008A0116218A150A16AD29AA
:101260005A08A0005B08A1002430A300E2308A01E4
:101270007C208A150A12031D46298A011621403056
:10128000E7008A0116218A150A16AD295A08A0001E
:101290005B08A1002530A30001308A017C208A155B
:1012A0000A12031D5C298A0116214130E7008A01D8
:1012B00016218A150A16AD295A08A0005B08A1005C
:1012C0002530A30020308A017C208A150A12031DD4
:1012D00072298A0116214230E7008A0116218A15F7
:1012E0000A16AD295A08A0005B08A1002530A3000A
:1012F00044308A017C208A150A12031D88298A013C
:1013000016214330E7008A0116218A150A16AD29F5
:101310005A08A0005B08A1002530A30069308A01AB
:101320007C208A150A12031D9E298A011621443049
:10133000E7008A0116218A150A16AD295A08A0006D
:101340005B08A1002530A3008E308A017C208A151D
:101350000A12031DB4298A0116214530E7008A01CB
:1013600016218A150A16AD295A08A0005B08A100AB
:101370002530A300B0308A017C208A150A12031D93
:10138000CA298A0116214630E7008A0116218A15EA
:101390000A16AD295A08A0005B08A1002530A30059
:1013A000D0308A017C208A150A12031DE0298A01A7
:1013B00016214730E7008A0116218A150A16AD2941
:1013C0005A08A0005B08A1002530A300F8308A016C
:1013D0007C208A150A12031DF6298A01162148303D
:1013E000E7008A0116218A150A16AD295A08A000BD
:1013F0005B08A1002630A30021308A017C208A15D9
:101400000A12031D0C2A8A0116214930E7008A01BD
:1014100016218A150A16AD295A08A0005B08A100FA
:101420002630A30047308A017C208A150A12031D4A
:10143000222A8A0116214A30E7008A0116218A15DC
:101440000A16AD295A08A0005B08A1002630A300A7
:101450006E308A017C208A150A12031D382A8A01FF
:1014600016214B30E7008A0116218A150A16AD298C
:101470005A08A0005B08A1002630A30090308A0122
:101480007C208A150A12031D4E2A8A0116214C302F
:10149000E7008A0116218A150A16AD295A08A0000C
:1014A0005B08A1002630A300B4308A017C208A1595
:1014B0000A12031D642A8A0116214D30E7008A01B1
:1014C00016218A150A16AD295A08A0005B08A1004A
:1014D0002630A300DC308A017C208A150A12031D05
:1014E0007A2A8A0116214E30E7008A0116218A15D0
:1014F0000A16AD295A08A0005B08A1002730A300F6
:1015000004308A017C208A150A12031D902A8A0160
:1015100016214F30E7008A0116218A150A16AD29D7
:101520005A08A0005B08A1002730A3002F308A01D1
:101530007C208A150A12031DA62A8A011621503022
:10154000E7008A0116218A150A16AD295A08A0005B
:101550005B08A1002730A30058308A017C208A153F
:101560000A12031DBC2A8A0116215130E7008A01A4
:1015700016218A150A16AD295A08A0005B08A10099
:101580002730A3007B308A017C208A150A12031DB4
:10159000D22A8A0116215230E7008A0116218A15C3
:1015A0000A16AD295A08A0005B08A1002730A30045
:1015B000A0308A017C208A150A12031DE82A8A01BC
:1015C00016215330E7008A0116218A150A16AD2923
:1015D0005A08A0005B08A1002730A300CC308A0184
:1015E0007C208A150A12031DFE2A8A011621543016
:1015F000E7008A0116218A150A16AD295A08A000AB
:101600005B08A1002730A300F8308A017C208A15EE
:101610000A12031D142B8A0116215530E7008A0196
:1016200016218A150A16AD295A08A0005B08A100E8
:101630002830A30024308A017C208A150A12031D59
:101640002A2B8A0116215630E7008A0116218A15B5
:101650000A16AD295A08A0005B08A1002830A30093
:1016600050308A017C208A150A12031D402B8A0102
:1016700016215730E7008A0116218A150A16AD296E
:101680005A08A0005B08A1002830A30078308A0126
:101690007C208A150A12031D562B8A011621583008
:1016A000E7008A0116218A150A16AD295A08A000FA
:1016B0005B08A1002830A300A1308A017C208A1594
:1016C0000A12031D6C2B8A0116215930E7008A018A
:1016D00016218A150A16AD295A08A0005B08A10038
:1016E0002830A300CF308A017C208A150A12031DFE
:1016F000822B8A0116215A30E7008A0116218A15A9
:101700000A16AD295A08A0005B08A1002830A300E2
:10171000FF308A017C208A150A12031D982B8A014A
:1017200016215B30E7008A0116218A150A16AD29B9
:101730005A08A0005B08A1002930A3002F308A01BD
:101740007C208A150A12031DAE2B8A0116215C30FB
:10175000E7008A0116218A150A16AD295A08A00049
:101760005B08A1002930A3005E308A017C208A1525
:101770000A12031DC42B8A0116215D30E7008A017D
:1017800016218A150A16AD295A08A0005B08A10087
:101790002930A30087308A017C208A150A12031D94
:1017A000DA2B8A0116215E30E7008A0116218A159C
:1017B0000A16AD295A08A0005B08A1002930A30031
:1017C000B2308A017C208A150A12031DF02B8A018F
:1017D00016215F30E7008A0116218A150A16AD2905
:1017E0005A08A0005B08A1002930A300E3308A0159
:1017F0007C208A150A12031D062C8A0116216030EE
:10180000E7008A0116218A150A16AD295A08A00098
:101810005B08A1002A30A30014308A017C208A15BD
:101820000A12031D1C2C8A0116216130E7008A016F
:1018300016218A150A16AD295A08A0005B08A100D6
:101840002A30A30047308A017C208A150A12031D22
:10185000322C8A0116216230E7008A0116218A158E
:101860000A16AD295A08A0005B08A1002A30A3007F
:1018700073308A017C208A150A12031D482C8A01C4
:1018800016216330E7008A0116218A150A16AD2950
:101890005A08A0005B08A1002A30A300A1308A01E9
:1018A0007C208A150A12031D5E2C8A0116216430E1
:1018B000E7008A0116218A150A16AD295A08A000E8
:1018C0005B08A1002A30A300D6308A017C208A154B
:1018D0000A12031D742C8A0116216530E7008A0163
:1018E00016218A150A16AD295A08A0005B08A10026
:1018F0002B30A3000C308A017C208A150A12031DAC
:101900008A2C8A0116216630E7008A0116218A1581
:101910000A16AD295A08A0005B08A1002B30A300CD
:1019200041308A017C208A150A12031DA02C8A01ED
:1019300016216730E7008A0116218A150A16AD299B
:101940005A08A0005B08A1002B30A30076308A0162
:101950007C208A150A12031DB62C8A0116216830D4
:10196000E7008A0116218A150A16AD295A08A00037
:101970005B08A1002B30A300A5308A017C208A15CA
:101980000A12031DCC2C8A0116216930E7008A0156
:1019900016218A150A16AD295A08A0005B08A10075
:1019A0002B30A300D4308A017C208A150A12031D33
:1019B000E22C8A0116216A30E7008A0116218A1575
:1019C0000A16AD295A08A0005B08A1002C30A3001C
:1019D0000A308A017C208A150A12031DF82C8A011C
:1019E00016216B30E7008A0116218A150A16AD29E7
:1019F0005A08A0005B08A1002C30A30043308A01E4
:101A00007C208A150A12031D0E2D8A0116216C30C6
:101A1000E7008A0116218A150A16AD295A08A00086
:101A20005B08A1002C30A3007E308A017C208A153F
:101A30000A12031D242D8A0116216D30E7008A0148
:101A400016218A150A16AD295A08A0005B08A100C4
:101A50002C30A300B8308A017C208A150A12031D9D
:101A60003A2D8A0116216E30E7008A0116218A1567
:101A70000A16AD295A08A0005B08A1002C30A3006B
:101A8000ED308A017C208A150A12031D502D8A012F
:101A900016216F30E7008A0116218A150A16AD2932
:101AA0005A08A0005B08A1002D30A30022308A0153
:101AB0007C208A150A12031D662D8A0116217030BA
:101AC000E7008A0116218A150A16AD295A08A000D6
:101AD0005B08A1002D30A3005E308A017C208A15AE
:101AE0000A12031D7C2D8A0116217130E7008A013C
:101AF00016218A150A16AD295A08A0005B08A10014
:101B00002D30A3009C308A017C208A150A12031D07
:101B1000922D8A0116217230E7008A0116218A155A
:101B20000A16AD295A08A0005B08A1002D30A300B9
:101B3000D8308A017C208A150A12031DA82D8A013B
:101B400016217330E7008A0116218A150A16AD297D
:101B50005A08A0005B08A1002E30A30015308A01AE
:101B60007C208A150A12031DBE2D8A0116217430AD
:101B7000E7008A0116218A150A16AD295A08A00025
:101B80005B08A1002E30A3004C308A017C208A150E
:101B90000A12031DD42D8A0116217530E7008A012F
:101BA00016218A150A16AD295A08A0005B08A10063
:101BB0002E30A30087308A017C208A150A12031D6B
:101BC000EA2D8A0116217630E7008A0116218A154E
:101BD0000A16AD295A08A0005B08A1002E30A30008
:101BE000CA308A017C208A150A12031D002E8A0140
:101BF00016217730E7008A0116218A150A16AD29C9
:101C00005A08A0005B08A1002F30A3000C308A0105
:101C10007C208A150A12031D162E8A01162178309F
:101C2000E7008A0116218A150A16AD295A08A00074
:101C30005B08A1002F30A3004F308A017C208A1559
:101C40000A12031D2C2E8A0116217930E7008A0121
:101C500016218A150A16AD295A08A0005B08A100B2
:101C60002F30A30091308A017C208A150A12031DAF
:101C7000422E8A0116217A30E7008A0116218A1540
:101C80000A16AD295A08A0005B08A1002F30A30056
:101C9000CF308A017C208A150A12031D582E8A0132
:101CA00016217B30E7008A0116218A150A16AD2914
:101CB0005A08A0005B08A1003030A3000F308A0151
:101CC0007C208A150A12031D6E2E8A0116217C3093
:101CD000E7008A0116218A150A16AD295A08A000C4
:101CE0005B08A1003030A30054308A017C208A15A3
:101CF0000A12031D842E8A0116217D30E7008A0115
:101D000016218A150A16AD295A08A0005B08A10001
:101D10003030A30099308A017C208A150A12031DF5
:101D20009A2E8A0116217E30E7008A0116218A1533
:101D30000A16AD295A08A0005B08A1003030A300A4
:101D4000E3308A017C208A150A12031DB02E8A0115
:101D500016217F30E7008A0116218A150A16AD295F
:101D60005A08A0005B08A1003130A3002B308A0183
:101D70007C208A150A12031DC62E8A011621803086
:101D8000E7008A0116218A150A16AD295A08A00013
:101D90005B08A1003130A3006C308A017C208A15D9
:101DA0000A12031DDC2E8A0116218130E7008A0108
:101DB00016218A150A16AD295A08A0005B08A10051
:101DC0003130A300AF308A017C208A150A12031D2E
:101DD000F22E8A0116218230E7008A0116218A1527
:101DE0000A16AD295A08A0005B08A1003130A300F3
:101DF000F9308A017C208A150A12031D082F8A01F6
:101E000016218330E7008A0116218A150A16AD29AA
:101E10005A08A0005B08A1003230A30045308A01B7
:101E20007C208A150A12031D1E2F8A011621843078
:101E3000E7008A0116218A150A16AD295A08A00062
:101E40005B08A1003230A30091308A017C208A1502
:101E50000A12031D342F8A0116218530E7008A01FA
:101E600016218A150A16AD295A08A0005B08A100A0
:101E70003230A300D2308A017C208A150A12031D59
:101E80004A2F8A0116218630E7008A0116218A1519
:101E90000A16AD295A08A0005B08A1003330A30040
:101EA00019308A017C208A150A12031D602F8A01CD
:101EB00016218730E7008A0116218A150A16AD29F6
:101EC0005A08A0005B08A1003330A3006C308A01DF
:101ED0007C208A150A12031D762F8A01162188306C
:101EE000E7008A0116218A150A16AD295A08A000B2
:101EF0005B08A1003330A300C4308A017C208A151E
:101F00000A12031D8C2F8A0116218930E7008A01ED
:101F100016218A150A16AD295A08A0005B08A100EF
:101F20003430A3001C308A017C208A150A12031D5C
:101F3000A22F8A0116218A30E7008A0116218A150C
:101F40000A16AD295A08A0005B08A1003430A3008E
:101F50006E308A017C208A150A12031DB82F8A016F
:101F600016218B30E7008A0116218A150A16AD2941
:101F70005A08A0005B08A1003430A300B6308A01E3
:101F80007C208A150A12031DCE2F8A0116218C305F
:101F9000E7008A0116218A150A16AD295A08A00001
:101FA0005B08A1003530A30005308A017C208A152A
:101FB0000A12031DE42F8A0116218D30E7008A01E1
:101FC00016218A150A16AD295A08A0005B08A1003F
:101FD0003530A30062308A017C208A150A12031D65
:101FE000FA2F8A0116218E30E7008A0116218A1500
:101FF0000A16AD295A08A0005B08A1003530A300DD
:10200000BD308A017C208A110A16031D10288A011E
:1020100016218F30E7008A0116218A150A16AD298C
:102020005A08A0005B08A1003630A30018308A01CE
:102030007C208A110A16031D26288A011621903059
:10204000E7008A0116218A150A16AD295A08A00050
:102050005B08A1003630A30075308A017C208A110C
:102060000A16031D3C288A0116219130E7008A01D7
:1020700016218A150A16AD295A08A0005B08A1008E
:102080003630A300CB308A017C208A110A16031D4A
:1020900052288A0116219230E7008A0116218A15FA
:1020A0000A16AD295A08A0005B08A1003730A3002A
:1020B00021308A017C208A110A16031D68288A01B2
:1020C00016219330E7008A0116218A150A16AD29D8
:1020D0005A08A0005B08A1003730A30080308A01B5
:1020E0007C208A110A16031D7E288A01162194304D
:1020F000E7008A0116218A150A16AD295A08A000A0
:102100005B08A1003730A300E2308A017C208A11ED
:102110000A16031D94288A0116219530E7008A01CA
:1021200016218A150A16AD295A08A0005B08A100DD
:102130003830A30048308A017C208A110A16031D1A
:10214000AA288A0116219630E7008A0116218A15ED
:102150000A16AD295A08A0005B08A1003830A30078
:10216000A9308A017C208A110A16031DC0288A0121
:1021700016219730E7008A0116218A150A16AD2923
:102180005A08A0005B08A1003930A30004308A017E
:102190007C208A110A16031DD6288A011621983040
:1021A000E7008A0116218A150A16AD295A08A000EF
:1021B0005B08A1003930A30067308A017C208A11B6
:1021C0000A16031DEC288A0116219930E7008A01BE
:1021D00016218A150A16AD295A08A0005B08A1002D
:1021E0003930A300D3308A017C208A110A16031DDE
:1021F00002298A0116219A30E7008A0116218A15E0
:102200000A16AD295A08A0005B08A1003A30A300C5
:1022100040308A017C208A110A16031D18298A0180
:1022200016219B30E7008A0116218A150A16AD296E
:102230005A08A0005B08A1003A30A300AE308A0122
:102240007C208A110A16031D2E298A0116219C3032
:10225000E7008A0116218A150A16AD295A08A0003E
:102260005B08A1003B30A3001C308A017C208A114E
:102270000A16031D44298A0116219D30E7008A01B0
:1022800016218A150A16AD295A08A0005B08A1007C
:102290003B30A30082308A017C208A110A16031D7C
:1022A0005A298A0116219E30E7008A0116218A15D3
:1022B0000A16AD295A08A0005B08A1003B30A30014
:1022C000ED308A017C208A110A16031D70298A01CB
:1022D00016219F30E7008A0116218A150A16AD29BA
:1022E0005A08A0005B08A1003C30A30064308A01BA
:1022F0007C208A110A16031D86298A011621A03026
:10230000E7008A0116218A150A16AD295A08A0008D
:102310005B08A1003C30A300DE308A017C208A11DA
:102320000A16031D9C298A011621A130E7008A01A3
:1023300016218A150A16AD295A08A0005B08A100CB
:102340003D30A30056308A017C208A110A16031DF5
:10235000B2298A011621A230E7008A0116218A15C6
:102360000A16AD295A08A0005B08A1003D30A30061
:10237000C4308A017C208A110A16031DC8298A01EB
:102380001621A330E7008A0116218A150A16AD2905
:102390005A08A0005B08A1003E30A30035308A0136
:1023A0007C208A110A16031DDE298A011621A43019
:1023B000E7008A0116218A150A16AD295A08A000DD
:1023C0005B08A1003E30A300B5308A017C208A1151
:1023D0000A16031DF4298A011621A530E7008A0197
:1023E00016218A150A16AD295A08A0005B08A1001B
:1023F0003F30A30039308A017C208A110A16031D60
:102400000A2A8A011621A630E7008A0116218A15B8
:102410000A16AD295A08A0005B08A1003F30A300AE
:10242000EE308A017C208A110A16031D202A8A01B7
:102430001621A730E7008A0116218A150A16AD2950
:102440005A08A0005B08A1004030A30072308A0146
:102450007C208A110A16031D362A8A011621A8300B
:10246000E7008A0116218A150A16AD295A08A0002C
:102470005B08A1004030A300BD308A017C208A1196
:102480000A16031D4C2A8A011621A930E7008A0189
:1024900016218A150A16AD295A08A0005B08A1006A
:1024A0004130A3003D308A017C208A110A16031DA9
:1024B000622A8A011621AA30E7008A0116218A15AC
:1024C0000A16AD295A08A0005B08A1004130A300FC
:1024D000CF308A017C208A110A16031D782A8A01CE
:1024E0001621AB30E7008A0116218A150A16AD299C
:1024F0005A08A0005B08A1004230A30069308A019D
:102500007C208A110A16031D8E2A8A011621AC30FE
:10251000E7008A0116218A150A16AD295A08A0007B
:102520005B08A1004330A30001308A017C208A119E
:102530000A16031DA42A8A011621AD30E7008A017C
:1025400016218A150A16AD295A08A0005B08A100B9
:102550004330A30095308A017C208A110A16031D9E
:10256000BA2A8A011621AE30E7008A0116218A159F
:102570000A16AD295A08A0005B08A1004430A30048
:102580001F308A017C208A110A16031DD02A8A0175
:102590001621AF30E7008A0116218A150A16AD29E7
:1025A0005A08A0005B08A1004430A300B2308A01A1
:1025B0007C208A110A16031DE62A8A011621B030F2
:1025C000E7008A0116218A150A16AD295A08A000CB
:1025D0005B08A1004530A30052308A017C208A119B
:1025E0000A16031DFC2A8A011621B130E7008A0170
:1025F00016218A150A16AD295A08A0005B08A10009
:102600004530A300F7308A017C208A110A16031D89
:10261000122B8A011621B230E7008A0116218A1591
:102620000A16AD295A08A0005B08A1004630A30095
:10263000A5308A017C208A110A16031D282B8A01E5
:102640001621B330E7008A0116218A150A16AD2932
:102650005A08A0005B08A1004730A3004C308A0153
:102660007C208A110A16031D3E2B8A011621B430E4
:10267000E7008A0116218A150A16AD295A08A0001A
:102680005B08A1004730A300E4308A017C208A1156
:102690000A16031D542B8A011621B530E7008A0162
:1026A00016218A150A16AD295A08A0005B08A10058
:1026B0004830A30089308A017C208A110A16031D44
:1026C0006A2B8A011621B630E7008A0116218A1585
:1026D0000A16AD295A08A0005B08A1004930A300E2
:1026E00042308A017C208A110A16031D802B8A0140
:1026F0001621B730E7008A0116218A150A16AD297E
:102700005A08A0005B08A1004930A300FC308A01F0
:102710007C208A110A16031D962B8A011621B830D7
:10272000E7008A0116218A150A16AD295A08A00069
:102730005B08A1004A30A300BA308A017C208A11CC
:102740000A16031DAC2B8A011621B930E7008A0155
:1027500016218A150A16AD295A08A0005B08A100A7
:102760004B30A30072308A017C208A110A16031DA7
:10277000C22B8A011621BA30E7008A0116218A1578
:102780000A16AD295A08A0005B08A1004C30A3002E
:102790001F308A017C208A110A16031DD82B8A015A
:1027A0001621BB30E7008A0116218A150A16AD29C9
:1027B0005A08A0005B08A1004C30A300DF308A015A
:1027C0007C208A110A16031DEE2B8A011621BC30CB
:1027D000E7008A0116218A150A16AD295A08A000B9
:1027E0005B08A1004D30A300B2308A017C208A1121
:1027F0000A16031D042C8A011621BD30E7008A0148
:1028000016218A150A16AD295A08A0005B08A100F6
:102810004E30A30084308A017C208A110A16031DE1
:102820001A2C8A011621BE30E7008A0116218A156A
:102830000A16AD295A08A0005B08A1004F30A3007A
:1028400061308A017C208A110A16031D302C8A010E
:102850001621BF30E7008A0116218A150A16AD2914
:102860005A08A0005B08A1005030A3003C308A0148
:102870007C208A110A16031D462C8A011621C030BD
:10288000E7008A0116218A150A16AD295A08A00008
:102890005B08A1005130A30004308A017C208A111A
:1028A0000A16031D5C2C8A011621C130E7008A013B
:1028B00016218A150A16AD295A08A0005B08A10046
:1028C0005130A300DC308A017C208A110A16031DD6
:1028D000722C8A011621C230E7008A0116218A155E
:1028E0000A16AD295A08A0005B08A1005230A300C7
:1028F000CE308A017C208A110A16031D882C8A0199
:102900001621C330E7008A0116218A150A16AD295F
:102910005A08A0005B08A1005330A300C2308A010E
:102920007C208A110A16031D9E2C8A011621C430B0
:10293000E7008A0116218A150A16AD295A08A00057
:102940005B08A1005430A300AF308A017C208A11BB
:102950000A16031DB42C8A011621C530E7008A012E
:1029600016218A150A16AD295A08A0005B08A10095
:102970005530A3008B308A017C208A110A16031D72
:10298000CA2C8A011621C630E7008A0116218A1551
:102990000A16AD295A08A0005B08A1005630A30012
:1029A00073308A017C208A110A16031DE02C8A01EB
:1029B0001621C730E7008A0116218A150A16AD29AB
:1029C0005A08A0005B08A1005730A30081308A019B
:1029D0007C208A110A16031DF62C8A011621C830A4
:1029E000E7008A0116218A150A16AD295A08A000A7
:1029F0005B08A1005830A30095308A017C208A1121
:102A00000A16031D0C2D8A011621C930E7008A0120
:102A100016218A150A16AD295A08A0005B08A100E4
:102A20005930A300B3308A017C208A110A16031D95
:102A3000222D8A011621CA30E7008A0116218A1543
:102A40000A16AD295A08A0005B08A1005A30A3005D
:102A5000D4308A017C208A110A16031D382D8A0180
:102A60001621CB30E7008A0116218A150A16AD29F6
:102A70005A08A0005B08A1005B30A300D9308A018E
:102A80007C208A110A16031D4E2D8A011621CC3096
:102A9000E7008A0116218A150A16AD295A08A000F6
:102AA0005B08A1005C30A300F8308A017C208A1109
:102AB0000A16031D642D8A011621CD30E7008A0114
:102AC00016218A150A16AD295A08A0005B08A10034
:102AD0005E30A30041308A017C208A110A16031D52
:102AE0007A2D8A011621CE30E7008A0116218A1537
:102AF0000A16AD295A08A0005B08A1005F30A300A8
:102B000085308A017C208A110A16031D902D8A01C6
:102B10001621CF30E7008A0116218A150A16AD2941
:102B20005A08A0005B08A1006030A300CE308A01E3
:102B30007C208A110A16031DA62D8A011621D03089
:102B4000E7008A0116218A150A16AD295A08A00045
:102B50005B08A1006230A3001F308A017C208A112B
:102B60000A16031DBC2D8A011621D130E7008A0107
:102B700016218A150A16AD295A08A0005B08A10083
:102B80006330A30050308A017C208A110A16031D8D
:102B9000D22D8A011621D230E7008A0116218A152A
:102BA0000A16AD295A08A0005B08A1006430A300F2
:102BB00094308A017C208A110A16031DE82D8A01AF
:102BC0001621D330E7008A0116218A150A16AD298D
:102BD0005A08A0005B08A1006630A3000B308A01F0
:102BE0007C208A110A16031DFE2D8A011621D4307D
:102BF000E7008A0116218A150A16AD295A08A00095
:102C00005B08A1006730A3008A308A017C208A110A
:102C10000A16031D142E8A011621D530E7008A01F9
:102C200016218A150A16AD295A08A0005B08A100D2
:102C30006930A30012308A017C208A110A16031D14
:102C40002A2E8A011621D630E7008A0116218A151C
:102C50000A16AD295A08A0005B08A1006A30A3003B
:102C600097308A017C208A110A16031D402E8A01A2
:102C70001621D730E7008A0116218A150A16AD29D8
:102C80005A08A0005B08A1006C30A3000D308A0137
:102C90007C208A110A16031D562E8A011621D8306F
:102CA000E7008A0116218A150A16AD295A08A000E4
:102CB0005B08A1006D30A300A3308A017C208A113B
:102CC0000A16031D6C2E8A011621D930E7008A01ED
:102CD00016218A150A16AD295A08A0005B08A10022
:102CE0006F30A30069308A017C208A110A16031D07
:102CF000822E8A011621DA30E7008A0116218A1510
:102D00000A16AD295A08A0005B08A1007130A30083
:102D100043308A017C208A110A16031D982E8A01ED
:102D20001621DB30E7008A0116218A150A16AD2923
:102D30005A08A0005B08A1007330A3001E308A016E
:102D40007C208A110A16031DAE2E8A011621DC3062
:102D5000E7008A0116218A150A16AD295A08A00033
:102D60005B08A1007430A300EB308A017C208A113B
:102D70000A16031DC42E8A011621DD30E7008A01E0
:102D800016218A150A16AD295A08A0005B08A10071
:102D90007630A300A8308A017C208A110A16031D10
:102DA000DA2E8A011621DE30E7008A0116218A1503
:102DB0000A16AD295A08A0005B08A1007830A300CC
:102DC00089308A017C208A110A16031DF02E8A019F
:102DD0001621DF30E7008A0116218A150A16AD296F
:102DE0005A08A0005B08A1007A30A300AD308A0128
:102DF0007C208A110A16031D062F8A011621E03055
:102E0000E7008A0116218A150A16AD295A08A00082
:102E10005B08A1007C30A300E4308A017C208A1189
:102E20000A16031D1C2F8A011621E130E7008A01D2
:102E300016218A150A16AD295A08A0005B08A100C0
:102E40007F30A30073308A017C208A110A16031D8B
:102E5000322F8A011621E230E7008A0116218A15F5
:102E60000A16AD295A08A0005B08A1008130A30012
:102E700071308A017C208A110A16031D482F8A01AD
:102E80001621E330E7008A0116218A150A16AD29BA
:102E90005A08A0005B08A1008330A3002C308A01EF
:102EA0007C208A110A16031D5E2F8A011621E43048
:102EB000E7008A0116218A150A16AD295A08A000D2
:102EC0005B08A1008530A300AD308A017C208A1107
:102ED0000A16031D742F8A011621E530E7008A01C6
:102EE00016218A150A16AD295A08A0005B08A10010
:102EF0008830A3004B308A017C208A110A16031DFA
:102F00008A2F8A011621E630E7008A0116218A15E8
:102F10000A16AD295A08A0005B08A1008B30A30057
:102F20000C308A017C208A110A16031DA02F8A0109
:102F30001621E730E7008A0116218A150A16AD2905
:102F40005A08A0005B08A1008D30A300D1308A018F
:102F50007C208A110A16031DB62F8A011621E8303B
:102F6000E7008A0116218A150A16AD295A08A00021
:102F70005B08A1009030A30061308A017C208A1197
:102F80000A16031DCC2F8A011621E930E7008A01B9
:102F900016218A150A16AD295A08A0005B08A1005F
:102FA0009330A30048308A017C208A110A16031D41
:102FB000E22F8A011621EA30E7008A0116218A15DC
:102FC0000A16AD295A08A0005B08A1009630A3009C
:102FD00080308A017C208A110A16031DF82F8A018D
:102FE0001621EB30E7008A0116218A150A16AD2951
:102FF0005A08A0005B08A1009930A300D5308A01CF
:103000007C208A150A16031D0E288A011621EC3031
:10301000E7008A0116218A150A16AD295A08A00070
:103020005B08A1009D30A3005F308A017C208A15D7
:103030000A16031D24288A011621ED30E7008A01B3
:1030400016218A150A16AD295A08A0005B08A100AE
:10305000A030A300AF308A017C208A150A16031D18
:103060003A288A011621EE30E7008A0116218A15D6
:103070000A16AD295A08A0005B08A100A330A300DE
:10308000E9308A017C208A150A16031D50288A011E
:103090001621EF30E7008A0116218A150A16AD299C
:1030A0005A08A0005B08A100A730A300A8308A013D
:1030B0007C208A150A16031D66288A011621F03025
:1030C000E7008A0116218A150A16AD295A08A000C0
:1030D0005B08A100AB30A300C2308A017C208A15B6
:1030E0000A16031D7C288A011621F130E7008A01A7
:1030F00016218A150A16AD295A08A0005B08A100FE
:10310000B030A3000B308A017C208A150A16031DFB
:1031100092288A011621F230E7008A0116218A15C9
:103120000A16AD295A08A0005B08A100B430A3001C
:1031300091308A017C208A150A16031DA8288A016D
:103140001621F330E7008A0116218A150A16AD29E7
:103150005A08A0005B08A100B930A3000D308A0115
:103160007C208A150A16031DBE288A011621F43018
:10317000E7008A0116218A150A16AD295A08A0000F
:103180005B08A100BD30A30056308A017C208A155F
:103190000A16031DD4288A011621F530E7008A019A
:1031A00016218A150A16AD295A08A0005B08A1004D
:1031B000C130A300E4308A017C208A150A16031D61
:1031C000EA288A011621F630E7008A0116218A15BD
:1031D0000A16AD295A08A0005B08A100C730A30059
:1031E00022308A017C208A150A16031D00298A01D3
:1031F0001621F730E7008A0116218A150A16AD2933
:103200005A08A0005B08A100CC30A300F1308A016D
:103210007C208A150A16031D16298A011621F8300A
:10322000E7008A0116218A150A16AD295A08A0005E
:103230005B08A100D330A30014308A017C208A15DA
:103240000A16031D2C298A011621F930E7008A018C
:1032500016218A150A16AD295A08A0005B08A1009C
:10326000D930A3000A308A017C208A150A16031D72
:1032700042298A011621FA30E7008A0116218A15AF
:103280000A16AD295A08A0005B08A100DE30A30091
:10329000BA308A017C208A150A16031D58298A0132
:1032A0001621FB30E7008A0116218A150A16AD297E
:1032B0005A08A0005B08A100E530A3003B308A015A
:1032C0007C208A150A16031D6E298A011621FC30FE
:1032D000E7008A0116218A150A16AD295A08A000AE
:1032E0005B08A100EC30A30095308A017C208A1590
:1032F0000A16031D84298A011621FD30E7008A0180
:1033000016218A150A16AD295A08A0005B08A100EB
:10331000F630A3006A308A017C208A150A16031D44
:103320009A298A011621FE30E7008A0116218A15A2
:103330000A16AD295A08A0005B08A100FF30A300BF
:10334000FF308A017C208A150A16031DAD298A01E7
:103350001621FF30E7008A0116218A01162167082D
:10336000A800FF30A200A30101308A0105208A01D4
:1033700016210800030183160C18FF308312DC00AD
:1033800003010C18FF30DE005C0884005E088A012F
:103390009720DE00DF0064005E085F048A150A16CD
:1033A00003190F2AE80A68086402031DFF30FF3A78
:1033B000DC006508003C031DFF30FF3ADE005C08BE
:1033C00084005E088A019720DE00DF0064005E084A
:1033D0005F048A150A160319EE29E9146808A0008B
:1033E00014308A017F20DC006508A00000308A01CB
:1033F0007F20DE005C0884005E088A019720DE00E2
:10340000DF0064005E085F048A150A1603190E2A9D
:10341000E50110108F018E01E80110140C10090055
:0C3420008A01162163008A150A16122A80
:02400E0004208C
:02401000FF3F70
:00000001FF
