:020000040000FA
:02000000F828DE
:080008000800A9004030A0002F
:100010004230A1000F30A400A501BD20AA01210893
:10002000031919282A145520FC3E031C1928AA1468
:1000300055202003AB00280F2128FF30A400A50085
:100040002C282808A500A401A600A7012B0A031943
:100050002C28A200A301D720A90B45281708CF39C7
:10006000A41B2038241B10380C3897002508950055
:100070008316071183122B0883169200831212082D
:10008000FC392A0404389200F328A90B54281D08CF
:10009000CF39A41B2038241B10380C389D002508AC
:1000A0009B00831687103A28F328A10CA00CA10C02
:1000B000A00C0800B4006D20200821040319F328C7
:1000C000ED20841334088006640066286728A00A9F
:1000D0000319A10F64288006F328FF3A84178005CE
:1000E000F328A301A200FF30A207031CA307031CEF
:1000F000F3280330A100DF307F207328A101E83E00
:10010000A000A109FC30031C8828A007031885283B
:10011000A0076400A10F852820188E28A01C922813
:10012000000092280800A101A301A2000330A0282A
:10013000A2000130A028A101A301A2000430A02840
:10014000A80023082102031DA7282208200204304A
:1001500003180130031902302805031DFF30F3286E
:100160000038031DFF300405031DFF30F32804048D
:10017000031DFF30F328A501A4011030A600210DB6
:10018000A40DA50D2208A4022308031C230FA50219
:100190000318D1282208A40723080318230FA50752
:1001A0000310A00DA10DA60BBF282008F3281030C6
:1001B000A800A101A001A70CA60C031CE528220899
:1001C000A00723080318230FA107A10CA00CA50C5E
:1001D000A40CA80BDB282408F328A009A109A00A75
:1001E0000319A10A08008313031383126400080093
:1001F000C0309F00831677308F00013085000830B3
:10020000860010308700950181018312C0308B0079
:100210008316960101308C008D0183128C018D01B3
:10022000831603170130880089018312031381307C
:100230009F00831680309F008312031721308700B0
:10024000880189018316031397010317850183121F
:10025000031390010F3097009D0183169C0101301C
:100260009D008312053094008B178A110A123D29D4
:100270008B1B08008A150A16FD2E8A0138211010E2
:100280008A01382185018A01382186018A013821B5
:1002900087018A01382105158A013821FE30E000E6
:1002A000FF30E1008A0138211330E4008A0138214F
:1002B000FA30E200FF30E3008A013821DA01DB0185
:1002C0008A013821D601D7018A0138210A30D800A5
:1002D000D9018A013821E6018A013821E9018A0120
:1002E0003821E5018A013821E8018A0138218F018E
:1002F0008A0138218E018A01382110148A0138219F
:1003000064008A110A128619132A8A013821E6012B
:100310008A01382164308A0171208A013821640001
:100320008A110A128619C4298A013821E60A8A012B
:100330003821640066080A3C8A110A12031DBE298E
:100340008A01382164008A110A12861EAC291030F5
:1003500086068316061283128A01382164008A11E8
:100360000A12061AB42905158A01382164008A1177
:100370000A12061EBC2985148A0138218A013821F7
:100380008A0188298A0138218A01382164000A30CB
:1003900066028A110A120318112A8A0138216400A0
:1003A0008A110A12061AF9298A01382187178A0147
:1003B000382105118A01382114308A0171208A01FF
:1003C0003821023085068316851083128A01382170
:1003D00085188616851C86128A01382128308A01E4
:1003E00071208A01382105158A01382187138A0175
:1003F00038218A01382164008A110A12061E0F2A48
:100400008A013821043085068316051183128A017A
:10041000382105198616051D86128A0138218A01A0
:1004200038218A0138218A01382164008A110A1290
:10043000071A812A8A013821E6018A0138216430AD
:100440008A0171208A01382164008A110A12071A70
:10045000562A8A013821E60A8A0138216400660892
:100460000A3C8A110A12031D502A8A0138211010F1
:100470008A0138210130E9068316691083128A0146
:1004800038210301691C013E03198712031D8716D9
:100490008A01382169180717691C07138A01382156
:1004A0008A0138218A011D2A8A0138218A013821CE
:1004B00064000A3066028A110A120318622A8A113D
:1004C0000A12BC268A01382164000A3066028A11A9
:1004D0000A12031C7F2A8A01382187128A013821D7
:1004E00007138A0138218F018A0138218E018A0180
:1004F0003821E8018A01382110148A0138218A0143
:1005000038218A01382164008A110A12E91CCC2A98
:100510008A013821640062080E028A110A12031C43
:10052000882A8A013821640063080F028A110A129E
:10053000031C912A8A01382110108A013821E80110
:100540008A0138218F018A0138218E018A013821E0
:1005500010148A01382164008A110A126918B82A15
:100560003230A000A1010730840020308A015A20D7
:100570008A01382164008A110A12691CC72A3230A4
:10058000A000A1010730840040308A015A208A016E
:100590003821E9108A0138218A0138219E018A0117
:1005A000382183169E0183128A0138219F148A0103
:1005B000382101308A0171208A01382164008A11B2
:1005C0000A120C1FDC2A8A0138210C138A013821F7
:1005D000FF30A600A7011E08A200A3018A01D720B0
:1005E000DC002508DD0083161E0883125C07D60098
:1005F0005D080318013ED7008A01382102305802F5
:10060000DC000030031C013E5902DD005608A0004A
:100610005708A1005D08A3005C088A019D20DC004A
:1006200002305807DE0059080318013EDF00560863
:10063000A0005708A1005F08A3005E088A01982067
:10064000DE005C0884005E088A01B720DE00DF005F
:1006500064005E085F048A110A120319B82E8A0129
:1006600038215608D8005708D9008A01382164007B
:100670008A110A126918AC2E8A0138215608A00086
:100680005708A1000430A200A3018A01BB20DC00AE
:100690002108DD005C08A800FF30A200A3010130A2
:1006A0008A0105208A01382110108A013821E801C9
:1006B0008A0138218F018A0138218E018A0138216F
:1006C0005608A0005708A1000430A200A3018A0127
:1006D000BB20E6008A0138216608FF3C8A110A1215
:1006E000031C812C8A110A127A23E200E3018A1189
:1006F0000A12812C03308A006608813E03188A0A98
:100700008200183418341834193419341A341A344D
:100710001A341B341B341C341C341D341D341E3459
:100720001E341E341F341F3420342034213421342D
:1007300022342234233423342434243425342534FD
:1007400025342634273427342834283429342934CE
:100750002A342A342B342B342C342C342D342E349C
:100760002E342F342F343034313431343234323467
:10077000333434343434353436343634373438342E
:10078000383439343A343A343B343C343C343D34F4
:100790003E343E343F34403441340034013401347B
:1007A0000234033404340534053406340734083481
:1007B00009340A340A340B340C340D340E340F343B
:1007C00010341134123413341434153416341734ED
:1007D000183419341A341B341C341D341E341F349D
:1007E0002034213423342434253426342734283447
:1007F0002A342B342C342E342F34303432343334E6
:1008000034343634373439343A343C343D343F347C
:1008100040340034013403340534073408340A34D6
:100820000C340D340F341134133415341634183499
:100830001B341C341E34203423342534273429340B
:100840002B342D34303432343534373439343C346D
:100850003E3401340234043407340A340D34103485
:100860001334163419341C342034233426342934F8
:100870002D343134343438343C343F34023406348B
:100880000A340F34133417341C34213426342A34F8
:100890002E34333439343F34033409340D341434B2
:1008A0001B34213428342E3434343B34023409349C
:1008B000113419342034293432343C3404340D34A6
:1008C000163420342C34373404340A3416342334A8
:1008D00031343F340B341834293439340A341C345D
:1008E0002C343D34113425343C34123429343E3414
:1008F0001634323410342F340B3428340C34323460
:1009000030348A0138216208A6006308A700E83065
:10091000A2000330A3008A01D720E2002508E300EB
:100920008A01382164004C3066028A110A120318C9
:100930009B2C0230E4008A0138216608A0004C306C
:100940008A019320DC006608A00088308A019B2081
:10095000DE005C0884005E088A01B020DE00DF0053
:1009600064005E085F048A110A120319B92C03306F
:10097000E4008A0138216608A00088308A019320AB
:10098000DC006608A000A8308A019B20DE005C081D
:1009900084005E088A01B020DE00DF0064005E088B
:1009A0005F048A110A120319D72C0430E4008A016B
:1009B00038216608A000A8308A019320DC00660870
:1009C000A000BD308A019B20DE005C0884005E0828
:1009D0008A01B020DE00DF0064005E085F048A1137
:1009E0000A120319F52C0530E4008A013821660843
:1009F000A000BD308A019320DC006608A000CB3047
:100A00008A019B20DE005C0884005E088A01B02019
:100A1000DE00DF0064005E085F048A110A12031919
:100A2000132D0630E4008A0138216608A000CB307F
:100A30008A019320DC006608A000D5308A019B2043
:100A4000DE005C0884005E088A01B020DE00DF0062
:100A500064005E085F048A110A120319312D073001
:100A6000E4008A0138216608A000D5308A0193206D
:100A7000DC006608A000DD308A019B20DE005C08F7
:100A800084005E088A01B020DE00DF0064005E089A
:100A90005F048A110A1203194F2D0830E4008A01FD
:100AA00038216608A000DD308A019320DC0066084A
:100AB000A000E3308A019B20DE005C0884005E0811
:100AC0008A01B020DE00DF0064005E085F048A1146
:100AD0000A1203196D2D0930E4008A0138216608D5
:100AE000A000E3308A019320DC006608A000E93012
:100AF0008A019B20DE005C0884005E088A01B02029
:100B0000DE00DF0064005E085F048A110A12031928
:100B10008B2D0A30E4008A0138216608A000E930F4
:100B20008A019320DC006608A000ED308A019B203A
:100B3000DE005C0884005E088A01B020DE00DF0071
:100B400064005E085F048A110A120319A92D0B3094
:100B5000E4008A0138216608A000ED308A01932064
:100B6000DC006608A000F1308A019B20DE005C08F2
:100B700084005E088A01B020DE00DF0064005E08A9
:100B80005F048A110A120319C72D0C30E4008A0190
:100B900038216608A000F1308A019320DC00660845
:100BA000A000F4308A019B20DE005C0884005E080F
:100BB0008A01B020DE00DF0064005E085F048A1155
:100BC0000A120319E52D0D30E4008A013821660868
:100BD000A000F4308A019320DC006608A000F73002
:100BE0008A019B20DE005C0884005E088A01B02038
:100BF000DE00DF0064005E085F048A110A12031938
:100C0000032E0E30E4008A0138216608A000F73078
:100C10008A019320DC006608A000F9308A019B203D
:100C2000DE005C0884005E088A01B020DE00DF0080
:100C300064005E085F048A110A120319212E0F3026
:100C4000E4008A0138216608A000F9308A01932067
:100C5000DC006608A000FB308A019B20DE005C08F7
:100C600084005E088A01B020DE00DF0064005E08B8
:100C70005F048A110A1203193F2E1030E4008A0122
:100C800038216608A000FB308A019320DC0066084A
:100C9000A000FD308A019B20DE005C0884005E0815
:100CA0008A01B020DE00DF0064005E085F048A1164
:100CB0000A1203195D2E1130E4008A0138216608FA
:100CC000A000FD308A019320DC006608A000FF3000
:100CD0008A019B20DE005C0884005E088A01B02047
:100CE000DE00DF0064005E085F048A110A12031947
:100CF0007B2E1230E4008A01382164006608FF3C34
:100D00008A110A12031D862E1330E4008A0138214D
:100D100010148A01382164008A110A126918982E69
:100D20003230A000A1010730840020308A015A200F
:100D30008A01382164008A110A12691CA72E3230F8
:100D4000A000A1010730840040308A015A208A01A6
:100D50003821E6018A0138218A01382164008A118C
:100D60000A12691CB62E8A150A122E208A01382111
:100D70008A0138218A017E298A01382110108A01CE
:100D8000382164006508003C8A110A12031DFC2EFC
:100D90008A0138218F018A0138218E018A01382188
:100DA000E8018A01382110148A013821E9148A01E6
:100DB0003821E6018A013821E60164000B30660221
:100DC0008A110A120318FA2E8A0138210310660DBF
:100DD000383E84008001840A80018A013821660837
:100DE0004C3E840080018A013821E60A8A110A12E9
:100DF000031DDD2E8A0138218A013821640001306B
:100E000065028A150A12031CE0288A013821FF3086
:100E10006507DC00FF300318013EDD005C08383E4A
:100E200084000E0880008A013821FF306507DC004D
:100E3000FF300318013EDD005C08393E84000F08D6
:100E400080008A013821FF306507DC00FF3003187D
:100E5000013EDD005C084C3E8400680880008A0189
:100E60003821E001E1018A013821DA01DB018A0140
:100E70003821E201E3018A013821E4018A013821A5
:100E80000130E6008A0138210130E600640066087E
:100E900065028A110A12031C882F8A013821FF304B
:100EA0006607DC00FF300318013EDD005C08383EB9
:100EB00084000008DC005C08E0070318E10A8A01EE
:100EC0003821FF306607DC00FF300318013EDD00EB
:100ED0005C08393E84000008DC005C08DA0703186F
:100EE000DB0A8A013821FF306607DC00FF30031877
:100EF000013EDD005C084C3E84000008DC005C081C
:100F0000E4078A013821E60A8A110A12031D462FD6
:100F10008A0138216008A0006108A1006508A200CC
:100F2000A3018A01BB20E2008A0138215A08A000EF
:100F30005B08A1006508A200A3018A01BB20E300B1
:100F40008A0138216408A000A1016508A200A3015C
:100F50008A01BB20E4008A01382164001430640255
:100F60008A110A12031CC02F8A0138211330E400B1
:100F70008A013821FA30E200FF30E3008A0138218B
:100F80008A0138218F018A0138218E018A01382196
:100F9000E8018A01382110148A013821E9148A01F4
:100FA0003821CC30A6000C30A7006408A200A301B1
:100FB0008A01D720E0002508E1008A013821620873
:100FC000A0006308A1001430A200A3018A01BB2085
:100FD000DC002108DD005C08E0075D080318013E25
:100FE000E1078A0138216008DA006108DB008A0124
:100FF000382164008A150A12691CD9288A0138210F
:101000009E018A01382183169E0183128A013821AC
:101010009F148A01382101308A0171208A01382108
:1010200064008A150A120C1F0E288A0138210C133D
:101030008A013821FF30A600A7011E08A200A301E3
:101040008A01D720DC002508DD0083161E088312E4
:101050005C07D6005D080318013ED7008A013821DD
:101060008A0138215608A0005708A100A301D230F8
:101070008A0195208A150A12031D51288A013821F8
:101080006008A0006108A1000330A200A3018A014A
:10109000BB20DA002108DB008A0138218A150A12F8
:1010A000D7285608A0005708A1000230A3005830E6
:1010B0008A0195208A150A12031D6A288A0138219F
:1010C0000310610CDB00600CDA008A0138218A15FC
:1010D0000A12D7285608A0005708A1000330A30021
:1010E0009D308A0195208A150A12031D96288A01CF
:1010F00038216008A0006108A1000330A200A3010C
:101100008A01BB20DC002108DD005C08A6005D0828
:10111000A7000230A200A3018A01D720DA00250827
:10112000DB008A0138218A150A12D7285608A00048
:101130005708A1000330A300D4308A0195208A15F6
:101140000A12031DC2288A0138216008A000610824
:10115000A1000430A200A3018A01BB20DC00210809
:10116000DD005C08A6005D08A7000330A200A30113
:101170008A01D720DA002508DB008A0138218A1588
:101180000A12D7285608A0005708A1000330A30070
:10119000D4308A019D208A150A12031DD7288A019E
:1011A00038216008DA006108DB008A0138218A01F1
:1011B00038218A0138218A150A12F0208A01382143
:1011C0008A013821E50A8A013821640065080B3C50
:1011D0008A150A12031DED28E5018A01382108004D
:1011E0008A0138218A0138215A08A0005B08A10031
:1011F0001E30A30061308A0195208A150A12031D52
:1012000009298A013821E7018A0138218A150A163D
:10121000F02E5A08A0005B08A1001E30A300713018
:101220008A0195208A150A12031D1F298A01382177
:101230000130E7008A0138218A150A16F02E5A0873
:10124000A0005B08A1001E30A30084308A01952015
:101250008A150A12031D35298A0138210230E70058
:101260008A0138218A150A16F02E5A08A0005B0858
:10127000A1001E30A30099308A0195208A150A1218
:10128000031D4B298A0138210330E7008A013821E8
:101290008A150A16F02E5A08A0005B08A1001E301D
:1012A000A300AE308A0195208A150A12031D612918
:1012B0008A0138210430E7008A0138218A150A168C
:1012C000F02E5A08A0005B08A1001E30A300C33016
:1012D0008A0195208A150A12031D77298A0138216F
:1012E0000530E7008A0138218A150A16F02E5A08BF
:1012F000A0005B08A1001E30A300D6308A01952013
:101300008A150A12031D8D298A0138210630E7004B
:101310008A0138218A150A16F02E5A08A0005B08A7
:10132000A1001E30A300EA308A0195208A150A1216
:10133000031DA3298A0138210730E7008A013821DB
:101340008A150A16F02E5A08A0005B08A1001E306C
:10135000A300FF308A0195208A150A12031DB929BE
:101360008A0138210830E7008A0138218A150A16D7
:10137000F02E5A08A0005B08A1001F30A300143013
:101380008A0195208A150A12031DCF298A01382166
:101390000930E7008A0138218A150A16F02E5A080A
:1013A000A0005B08A1001F30A3002B308A0195200C
:1013B0008A150A12031DE5298A0138210A30E7003F
:1013C0008A0138218A150A16F02E5A08A0005B08F7
:1013D000A1001F30A30041308A0195208A150A120E
:1013E000031DFB298A0138210B30E7008A013821CF
:1013F0008A150A16F02E5A08A0005B08A1001F30BB
:10140000A30055308A0195208A150A12031D112A5E
:101410008A0138210C30E7008A0138218A150A1622
:10142000F02E5A08A0005B08A1001F30A3006B300B
:101430008A0195208A150A12031D272A8A0138215C
:101440000D30E7008A0138218A150A16F02E5A0855
:10145000A0005B08A1001F30A30082308A01952004
:101460008A150A12031D3D2A8A0138210E30E70031
:101470008A0138218A150A16F02E5A08A0005B0846
:10148000A1001F30A30098308A0195208A150A1206
:10149000031D532A8A0138210F30E7008A013821C1
:1014A0008A150A16F02E5A08A0005B08A1001F300A
:1014B000A300B0308A0195208A150A12031D692AFB
:1014C0008A0138211030E7008A0138218A150A166E
:1014D000F02E5A08A0005B08A1001F30A300C830FE
:1014E0008A0195208A150A12031D7F2A8A01382154
:1014F0001130E7008A0138218A150A16F02E5A08A1
:10150000A0005B08A1001F30A300DB308A019520FA
:101510008A150A12031D952A8A0138211230E70024
:101520008A0138218A150A16F02E5A08A0005B0895
:10153000A1001F30A300F1308A0195208A150A12FC
:10154000031DAB2A8A0138211330E7008A013821B4
:101550008A150A16F02E5A08A0005B08A100203058
:10156000A3000A308A0195208A150A12031DC12A98
:101570008A0138211430E7008A0138218A150A16B9
:10158000F02E5A08A0005B08A1002030A3002230F2
:101590008A0195208A150A12031DD72A8A0138214B
:1015A0001530E7008A0138218A150A16F02E5A08EC
:1015B000A0005B08A1002030A3003A308A019520EA
:1015C0008A150A12031DED2A8A0138211630E70018
:1015D0008A0138218A150A16F02E5A08A0005B08E5
:1015E000A1002030A30053308A0195208A150A12E9
:1015F000031D032B8A0138211730E7008A013821A7
:101600008A150A16F02E5A08A0005B08A1002030A7
:10161000A30068308A0195208A150A12031D192B30
:101620008A0138211830E7008A0138218A150A1604
:10163000F02E5A08A0005B08A1002030A3007D30E6
:101640008A0195208A150A12031D2F2B8A01382141
:101650001930E7008A0138218A150A16F02E5A0837
:10166000A0005B08A1002030A30096308A019520DD
:101670008A150A12031D452B8A0138211A30E7000A
:101680008A0138218A150A16F02E5A08A0005B0834
:10169000A1002030A300B1308A0195208A150A12DA
:1016A000031D5B2B8A0138211B30E7008A0138219A
:1016B0008A150A16F02E5A08A0005B08A1002030F7
:1016C000A300CA308A0195208A150A12031D712BC6
:1016D0008A0138211C30E7008A0138218A150A1650
:1016E000F02E5A08A0005B08A1002030A300E330D0
:1016F0008A0195208A150A12031D872B8A01382139
:101700001D30E7008A0138218A150A16F02E5A0882
:10171000A0005B08A1002030A300F9308A019520C9
:101720008A150A12031D9D2B8A0138211E30E700FD
:101730008A0138218A150A16F02E5A08A0005B0883
:10174000A1002130A30010308A0195208A150A12C9
:10175000031DB32B8A0138211F30E7008A0138218D
:101760008A150A16F02E5A08A0005B08A100213045
:10177000A3002B308A0195208A150A12031DC92B5C
:101780008A0138212030E7008A0138218A150A169B
:10179000F02E5A08A0005B08A1002130A3004730BA
:1017A0008A0195208A150A12031DDF2B8A01382130
:1017B0002130E7008A0138218A150A16F02E5A08CE
:1017C000A0005B08A1002130A30062308A019520AF
:1017D0008A150A12031DF52B8A0138212230E700F1
:1017E0008A0138218A150A16F02E5A08A0005B08D3
:1017F000A1002130A30079308A0195208A150A12B0
:10180000031D0B2C8A0138212330E7008A0138217F
:101810008A150A16F02E5A08A0005B08A100213094
:10182000A30090308A0195208A150A12031D212CED
:101830008A0138212430E7008A0138218A150A16E6
:10184000F02E5A08A0005B08A1002130A300AC30A4
:101850008A0195208A150A12031D372C8A01382126
:101860002530E7008A0138218A150A16F02E5A0819
:10187000A0005B08A1002130A300C8308A01952098
:101880008A150A12031D4D2C8A0138212630E700E3
:101890008A0138218A150A16F02E5A08A0005B0822
:1018A000A1002130A300E3308A0195208A150A1295
:1018B000031D632C8A0138212730E7008A01382173
:1018C0008A150A16F02E5A08A0005B08A1002130E4
:1018D000A300FF308A0195208A150A12031D792C76
:1018E0008A0138212830E7008A0138218A150A1632
:1018F000F02E5A08A0005B08A1002230A3001A3085
:101900008A0195208A150A12031D8F2C8A0138211D
:101910002930E7008A0138218A150A16F02E5A0864
:10192000A0005B08A1002230A30035308A01952079
:101930008A150A12031DA52C8A0138212A30E700D6
:101940008A0138218A150A16F02E5A08A0005B0871
:10195000A1002230A30051308A0195208A150A1275
:10196000031DBB2C8A0138212B30E7008A01382166
:101970008A150A16F02E5A08A0005B08A100223032
:10198000A3006E308A0195208A150A12031DD12CFE
:101990008A0138212C30E7008A0138218A150A167D
:1019A000F02E5A08A0005B08A1002230A3008A3064
:1019B0008A0195208A150A12031DE72C8A01382115
:1019C0002D30E7008A0138218A150A16F02E5A08B0
:1019D000A0005B08A1002230A300A6308A01952058
:1019E0008A150A12031DFD2C8A0138212E30E700CA
:1019F0008A0138218A150A16F02E5A08A0005B08C1
:101A0000A1002230A300C1308A0195208A150A1254
:101A1000031D132D8A0138212F30E7008A01382158
:101A20008A150A16F02E5A08A0005B08A100223081
:101A3000A300DE308A0195208A150A12031D292D84
:101A40008A0138213030E7008A0138218A150A16C8
:101A5000F02E5A08A0005B08A1002230A300FF303E
:101A60008A0195208A150A12031D3F2D8A0138210B
:101A70003130E7008A0138218A150A16F02E5A08FB
:101A8000A0005B08A1002330A3001E308A0195202E
:101A90008A150A12031D552D8A0138213230E700BC
:101AA0008A0138218A150A16F02E5A08A0005B0810
:101AB000A1002330A3003C308A0195208A150A1228
:101AC000031D6B2D8A0138213330E7008A0138214C
:101AD0008A150A16F02E5A08A0005B08A1002330D0
:101AE000A3005C308A0195208A150A12031D812DFE
:101AF0008A0138213430E7008A0138218A150A1614
:101B0000F02E5A08A0005B08A1002330A300793012
:101B10008A0195208A150A12031D972D8A01382102
:101B20003530E7008A0138218A150A16F02E5A0846
:101B3000A0005B08A1002330A30094308A01952007
:101B40008A150A12031DAD2D8A0138213630E700AF
:101B50008A0138218A150A16F02E5A08A0005B085F
:101B6000A1002330A300B5308A0195208A150A12FE
:101B7000031DC32D8A0138213730E7008A0138213F
:101B80008A150A16F02E5A08A0005B08A10023301F
:101B9000A300D6308A0195208A150A12031DD92D7B
:101BA0008A0138213830E7008A0138218A150A165F
:101BB000F02E5A08A0005B08A1002330A300F730E4
:101BC0008A0195208A150A12031DEF2D8A013821FA
:101BD0003930E7008A0138218A150A16F02E5A0892
:101BE000A0005B08A1002430A30018308A019520D2
:101BF0008A150A12031D052E8A0138213A30E700A2
:101C00008A0138218A150A16F02E5A08A0005B08AE
:101C1000A1002430A30037308A0195208A150A12CA
:101C2000031D1B2E8A0138213B30E7008A01382131
:101C30008A150A16F02E5A08A0005B08A10024306D
:101C4000A30055308A0195208A150A12031D312EF2
:101C50008A0138213C30E7008A0138218A150A16AA
:101C6000F02E5A08A0005B08A1002430A3007830B1
:101C70008A0195208A150A12031D472E8A013821F0
:101C80003D30E7008A0138218A150A16F02E5A08DD
:101C9000A0005B08A1002430A3009C308A0195209D
:101CA0008A150A12031D5D2E8A0138213E30E70095
:101CB0008A0138218A150A16F02E5A08A0005B08FE
:101CC000A1002430A300BF308A0195208A150A1292
:101CD000031D732E8A0138213F30E7008A01382125
:101CE0008A150A16F02E5A08A0005B08A1002430BD
:101CF000A300E2308A0195208A150A12031D892E5D
:101D00008A0138214030E7008A0138218A150A16F5
:101D1000F02E5A08A0005B08A1002530A300013076
:101D20008A0195208A150A12031D9F2E8A013821E7
:101D30004130E7008A0138218A150A16F02E5A0828
:101D4000A0005B08A1002530A30020308A01952067
:101D50008A150A12031DB52E8A0138214230E70088
:101D60008A0138218A150A16F02E5A08A0005B084D
:101D7000A1002530A30044308A0195208A150A125B
:101D8000031DCB2E8A0138214330E7008A01382118
:101D90008A150A16F02E5A08A0005B08A10025300B
:101DA000A30069308A0195208A150A12031DE12ECD
:101DB0008A0138214430E7008A0138218A150A1641
:101DC000F02E5A08A0005B08A1002530A3008E3039
:101DD0008A0195208A150A12031DF72E8A013821DF
:101DE0004530E7008A0138218A150A16F02E5A0874
:101DF000A0005B08A1002530A300B0308A01952027
:101E00008A150A12031D0D2F8A0138214630E7007A
:101E10008A0138218A150A16F02E5A08A0005B089C
:101E2000A1002530A300D0308A0195208A150A121E
:101E3000031D232F8A0138214730E7008A0138210A
:101E40008A150A16F02E5A08A0005B08A10025305A
:101E5000A300F8308A0195208A150A12031D392F34
:101E60008A0138214830E7008A0138218A150A168C
:101E7000F02E5A08A0005B08A1002630A3002130F4
:101E80008A0195208A150A12031D4F2F8A013821D5
:101E90004930E7008A0138218A150A16F02E5A08BF
:101EA000A0005B08A1002630A30047308A019520DE
:101EB0008A150A12031D652F8A0138214A30E7006E
:101EC0008A0138218A150A16F02E5A08A0005B08EC
:101ED000A1002630A3006E308A0195208A150A12CF
:101EE000031D7B2F8A0138214B30E7008A013821FE
:101EF0008A150A16F02E5A08A0005B08A1002630A9
:101F0000A30090308A0195208A150A12031D912F93
:101F10008A0138214C30E7008A0138218A150A16D7
:101F2000F02E5A08A0005B08A1002630A300B430B0
:101F30008A0195208A150A12031DA72F8A013821CC
:101F40004D30E7008A0138218A150A16F02E5A080A
:101F5000A0005B08A1002630A300DC308A01952098
:101F60008A150A12031DBD2F8A0138214E30E70061
:101F70008A0138218A150A16F02E5A08A0005B083B
:101F8000A1002730A30004308A0195208A150A1287
:101F9000031DD32F8A0138214F30E7008A013821F1
:101FA0008A150A16F02E5A08A0005B08A1002730F7
:101FB000A3002F308A0195208A150A12031DE92FEC
:101FC0008A0138215030E7008A0138218A150A1623
:101FD000F02E5A08A0005B08A1002730A30058305B
:101FE0008A0195208A150A12031DFF2F8A013821C4
:101FF0005130E7008A0138218A150A16F02E5A0856
:10200000A0005B08A1002730A3007B308A01952047
:102010008A110A16031D15288A0138215230E7005B
:102020008A0138218A150A16F02E5A08A0005B088A
:10203000A1002730A300A0308A0195208A110A163A
:10204000031D2B288A0138215330E7008A013821EB
:102050008A150A16F02E5A08A0005B08A100273046
:10206000A300CC308A0195208A110A16031D41284D
:102070008A0138215430E7008A0138218A150A166E
:10208000F02E5A08A0005B08A1002730A300F8300A
:102090008A0195208A110A16031D57288A013821C2
:1020A0005530E7008A0138218A150A16F02E5A08A1
:1020B000A0005B08A1002830A30024308A019520ED
:1020C0008A110A16031D6D288A0138215630E7004F
:1020D0008A0138218A150A16F02E5A08A0005B08DA
:1020E000A1002830A30050308A0195208A110A16D9
:1020F000031D83288A0138215730E7008A013821DF
:102100008A150A16F02E5A08A0005B08A100283094
:10211000A30078308A0195208A110A16031D992898
:102120008A0138215830E7008A0138218A150A16B9
:10213000F02E5A08A0005B08A1002830A300A130AF
:102140008A0195208A110A16031DAF288A013821B9
:102150005930E7008A0138218A150A16F02E5A08EC
:10216000A0005B08A1002830A300CF308A01952091
:102170008A110A16031DC5288A0138215A30E70042
:102180008A0138218A150A16F02E5A08A0005B0829
:10219000A1002830A300FF308A0195208A110A1679
:1021A000031DDB288A0138215B30E7008A013821D2
:1021B0008A150A16F02E5A08A0005B08A1002930E3
:1021C000A3002F308A0195208A110A16031DF128D9
:1021D0008A0138215C30E7008A0138218A150A1605
:1021E000F02E5A08A0005B08A1002930A3005E3041
:1021F0008A0195208A110A16031D07298A013821B0
:102200005D30E7008A0138218A150A16F02E5A0837
:10221000A0005B08A1002930A30087308A01952027
:102220008A110A16031D1D298A0138215E30E70034
:102230008A0138218A150A16F02E5A08A0005B0878
:10224000A1002930A300B2308A0195208A110A1614
:10225000031D33298A0138215F30E7008A013821C4
:102260008A150A16F02E5A08A0005B08A100293032
:10227000A300E3308A0195208A110A16031D49291B
:102280008A0138216030E7008A0138218A150A1650
:10229000F02E5A08A0005B08A1002A30A3001430D9
:1022A0008A0195208A110A16031D5F298A013821A7
:1022B0006130E7008A0138218A150A16F02E5A0883
:1022C000A0005B08A1002A30A30047308A019520B6
:1022D0008A110A16031D75298A0138216230E70028
:1022E0008A0138218A150A16F02E5A08A0005B08C8
:1022F000A1002A30A30073308A0195208A110A16A2
:10230000031D8B298A0138216330E7008A013821B7
:102310008A150A16F02E5A08A0005B08A1002A3080
:10232000A300A1308A0195208A110A16031DA12954
:102330008A0138216430E7008A0138218A150A169B
:10234000F02E5A08A0005B08A1002A30A300D63066
:102350008A0195208A110A16031DB7298A0138219E
:102360006530E7008A0138218A150A16F02E5A08CE
:10237000A0005B08A1002B30A3000C308A0195203F
:102380008A110A16031DCD298A0138216630E7001B
:102390008A0138218A150A16F02E5A08A0005B0817
:1023A000A1002B30A30041308A0195208A110A1622
:1023B000031DE3298A0138216730E7008A013821AB
:1023C0008A150A16F02E5A08A0005B08A1002B30CF
:1023D000A30076308A0195208A110A16031DF92977
:1023E0008A0138216830E7008A0138218A150A16E7
:1023F000F02E5A08A0005B08A1002B30A300A530E6
:102400008A0195208A110A16031D0F2A8A01382194
:102410006930E7008A0138218A150A16F02E5A0819
:10242000A0005B08A1002B30A300D4308A019520C6
:102430008A110A16031D252A8A0138216A30E7000D
:102440008A0138218A150A16F02E5A08A0005B0866
:10245000A1002C30A3000A308A0195208A110A16A7
:10246000031D3B2A8A0138216B30E7008A0138219D
:102470008A150A16F02E5A08A0005B08A1002C301D
:10248000A30043308A0195208A110A16031D512AA0
:102490008A0138216C30E7008A0138218A150A1632
:1024A000F02E5A08A0005B08A1002C30A3007E305B
:1024B0008A0195208A110A16031D672A8A0138218C
:1024C0006D30E7008A0138218A150A16F02E5A0865
:1024D000A0005B08A1002C30A300B8308A01952031
:1024E0008A110A16031D7D2A8A0138216E30E70001
:1024F0008A0138218A150A16F02E5A08A0005B08B6
:10250000A1002C30A300ED308A0195208A110A1613
:10251000031D932A8A0138216F30E7008A01382190
:102520008A150A16F02E5A08A0005B08A1002D306B
:10253000A30022308A0195208A110A16031DA92AB8
:102540008A0138217030E7008A0138218A150A167D
:10255000F02E5A08A0005B08A1002D30A3005E30C9
:102560008A0195208A110A16031DBF2A8A01382183
:102570007130E7008A0138218A150A16F02E5A08B0
:10258000A0005B08A1002D30A3009C308A0195209B
:102590008A110A16031DD52A8A0138217230E700F4
:1025A0008A0138218A150A16F02E5A08A0005B0805
:1025B000A1002D30A300D8308A0195208A110A1677
:1025C000031DEB2A8A0138217330E7008A01382184
:1025D0008A150A16F02E5A08A0005B08A1002E30BA
:1025E000A30015308A0195208A110A16031D012BBC
:1025F0008A0138217430E7008A0138218A150A16C9
:10260000F02E5A08A0005B08A1002E30A3004C3029
:102610008A0195208A110A16031D172B8A01382179
:102620007530E7008A0138218A150A16F02E5A08FB
:10263000A0005B08A1002E30A30087308A019520FE
:102640008A110A16031D2D2B8A0138217630E700E6
:102650008A0138218A150A16F02E5A08A0005B0854
:10266000A1002E30A300CA308A0195208A110A16D3
:10267000031D432B8A0138217730E7008A01382176
:102680008A150A16F02E5A08A0005B08A1002F3008
:10269000A3000C308A0195208A110A16031D592BBC
:1026A0008A0138217830E7008A0138218A150A1614
:1026B000F02E5A08A0005B08A1002F30A3004F3075
:1026C0008A0195208A110A16031D6F2B8A01382171
:1026D0007930E7008A0138218A150A16F02E5A0847
:1026E000A0005B08A1002F30A30091308A01952043
:1026F0008A110A16031D852B8A0138217A30E700DA
:102700008A0138218A150A16F02E5A08A0005B08A3
:10271000A1002F30A300CF308A0195208A110A161C
:10272000031D9B2B8A0138217B30E7008A01382169
:102730008A150A16F02E5A08A0005B08A100303056
:10274000A3000F308A0195208A110A16031DB12BB0
:102750008A0138217C30E7008A0138218A150A165F
:10276000F02E5A08A0005B08A1003030A3005430BE
:102770008A0195208A110A16031DC72B8A01382168
:102780007D30E7008A0138218A150A16F02E5A0892
:10279000A0005B08A1003030A30099308A01952089
:1027A0008A110A16031DDD2B8A0138217E30E700CD
:1027B0008A0138218A150A16F02E5A08A0005B08F3
:1027C000A1003030A300E3308A0195208A110A1657
:1027D000031DF32B8A0138217F30E7008A0138215D
:1027E0008A150A16F02E5A08A0005B08A1003130A5
:1027F000A3002B308A0195208A110A16031D092C8B
:102800008A0138218030E7008A0138218A150A16AA
:10281000F02E5A08A0005B08A1003130A3006C30F4
:102820008A0195208A110A16031D1F2C8A0138215E
:102830008130E7008A0138218A150A16F02E5A08DD
:10284000A0005B08A1003130A300AF308A019520C1
:102850008A110A16031D352C8A0138218230E700BF
:102860008A0138218A150A16F02E5A08A0005B0842
:10287000A1003130A300F9308A0195208A110A168F
:10288000031D4B2C8A0138218330E7008A0138214F
:102890008A150A16F02E5A08A0005B08A1003230F3
:1028A000A30045308A0195208A110A16031D612C68
:1028B0008A0138218430E7008A0138218A150A16F6
:1028C000F02E5A08A0005B08A1003230A30091301E
:1028D0008A0195208A110A16031D772C8A01382156
:1028E0008530E7008A0138218A150A16F02E5A0829
:1028F000A0005B08A1003230A300D2308A019520ED
:102900008A110A16031D8D2C8A0138218630E700B2
:102910008A0138218A150A16F02E5A08A0005B0891
:10292000A1003330A30019308A0195208A110A16BC
:10293000031DA32C8A0138218730E7008A01382142
:102940008A150A16F02E5A08A0005B08A100333041
:10295000A3006C308A0195208A110A16031DB92C38
:102960008A0138218830E7008A0138218A150A1641
:10297000F02E5A08A0005B08A1003330A300C43039
:102980008A0195208A110A16031DCF2C8A0138214D
:102990008930E7008A0138218A150A16F02E5A0874
:1029A000A0005B08A1003430A3001C308A019520F0
:1029B0008A110A16031DE52C8A0138218A30E700A6
:1029C0008A0138218A150A16F02E5A08A0005B08E1
:1029D000A1003430A3006E308A0195208A110A16B6
:1029E000031DFB2C8A0138218B30E7008A01382136
:1029F0008A150A16F02E5A08A0005B08A100343090
:102A0000A300B6308A0195208A110A16031D112DE4
:102A10008A0138218C30E7008A0138218A150A168C
:102A2000F02E5A08A0005B08A1003530A300053045
:102A30008A0195208A110A16031D272D8A01382143
:102A40008D30E7008A0138218A150A16F02E5A08BF
:102A5000A0005B08A1003530A30062308A019520F8
:102A60008A110A16031D3D2D8A0138218E30E70098
:102A70008A0138218A150A16F02E5A08A0005B0830
:102A8000A1003530A300BD308A0195208A110A16B5
:102A9000031D532D8A0138218F30E7008A01382128
:102AA0008A150A16F02E5A08A0005B08A1003630DD
:102AB000A30018308A0195208A110A16031D692D7A
:102AC0008A0138219030E7008A0138218A150A16D8
:102AD000F02E5A08A0005B08A1003630A300753024
:102AE0008A0195208A110A16031D7F2D8A0138213B
:102AF0009130E7008A0138218A150A16F02E5A080B
:102B0000A0005B08A1003630A300CB308A019520DD
:102B10008A110A16031D952D8A0138219230E7008B
:102B20008A0138218A150A16F02E5A08A0005B087F
:102B3000A1003730A30021308A0195208A110A169E
:102B4000031DAB2D8A0138219330E7008A0138211B
:102B50008A150A16F02E5A08A0005B08A10037302B
:102B6000A30080308A0195208A110A16031DC12D09
:102B70008A0138219430E7008A0138218A150A1623
:102B8000F02E5A08A0005B08A1003730A300E23005
:102B90008A0195208A110A16031DD72D8A01382132
:102BA0009530E7008A0138218A150A16F02E5A0856
:102BB000A0005B08A1003830A30048308A019520AE
:102BC0008A110A16031DED2D8A0138219630E7007F
:102BD0008A0138218A150A16F02E5A08A0005B08CF
:102BE000A1003830A300A9308A0195208A110A1665
:102BF000031D032E8A0138219730E7008A0138210E
:102C00008A150A16F02E5A08A0005B08A100393078
:102C1000A30004308A0195208A110A16031D192E7B
:102C20008A0138219830E7008A0138218A150A166E
:102C3000F02E5A08A0005B08A1003930A3006730CD
:102C40008A0195208A110A16031D2F2E8A01382128
:102C50009930E7008A0138218A150A16F02E5A08A1
:102C6000A0005B08A1003930A300D3308A01952071
:102C70008A110A16031D452E8A0138219A30E70071
:102C80008A0138218A150A16F02E5A08A0005B081E
:102C9000A1003A30A30040308A0195208A110A161B
:102CA000031D5B2E8A0138219B30E7008A01382101
:102CB0008A150A16F02E5A08A0005B08A1003A30C7
:102CC000A300AE308A0195208A110A16031D712EC9
:102CD0008A0138219C30E7008A0138218A150A16BA
:102CE000F02E5A08A0005B08A1003B30A3001C3066
:102CF0008A0195208A110A16031D872E8A01382120
:102D00009D30E7008A0138218A150A16F02E5A08EC
:102D1000A0005B08A1003B30A30082308A0195200F
:102D20008A110A16031D9D2E8A0138219E30E70064
:102D30008A0138218A150A16F02E5A08A0005B086D
:102D4000A1003B30A300ED308A0195208A110A16BC
:102D5000031DB32E8A0138219F30E7008A013821F4
:102D60008A150A16F02E5A08A0005B08A1003C3014
:102D7000A30064308A0195208A110A16031DC92E0A
:102D80008A013821A030E7008A0138218A150A1605
:102D9000F02E5A08A0005B08A1003C30A300DE30F2
:102DA0008A0195208A110A16031DDF2E8A01382117
:102DB000A130E7008A0138218A150A16F02E5A0838
:102DC000A0005B08A1003D30A30056308A01952089
:102DD0008A110A16031DF52E8A013821A230E70058
:102DE0008A0138218A150A16F02E5A08A0005B08BD
:102DF000A1003D30A300C4308A0195208A110A1633
:102E0000031D0B2F8A013821A330E7008A013821E6
:102E10008A150A16F02E5A08A0005B08A1003E3061
:102E2000A30035308A0195208A110A16031D212F2F
:102E30008A013821A430E7008A0138218A150A1650
:102E4000F02E5A08A0005B08A1003E30A300B53068
:102E50008A0195208A110A16031D372F8A0138210D
:102E6000A530E7008A0138218A150A16F02E5A0883
:102E7000A0005B08A1003F30A30039308A019520F3
:102E80008A110A16031D4D2F8A013821A630E7004A
:102E90008A0138218A150A16F02E5A08A0005B080C
:102EA000A1003F30A300EE308A0195208A110A1656
:102EB000031D632F8A013821A730E7008A013821DA
:102EC0008A150A16F02E5A08A0005B08A1004030AF
:102ED000A30072308A0195208A110A16031D792FEA
:102EE0008A013821A830E7008A0138218A150A169C
:102EF000F02E5A08A0005B08A1004030A300BD30AE
:102F00008A0195208A110A16031D8F2F8A01382104
:102F1000A930E7008A0138218A150A16F02E5A08CE
:102F2000A0005B08A1004130A3003D308A0195203C
:102F30008A110A16031DA52F8A013821AA30E7003D
:102F40008A0138218A150A16F02E5A08A0005B085B
:102F5000A1004130A300CF308A0195208A110A16C2
:102F6000031DBB2F8A013821AB30E7008A013821CD
:102F70008A150A16F02E5A08A0005B08A1004230FC
:102F8000A30069308A0195208A110A16031DD12FEA
:102F90008A013821AC30E7008A0138218A150A16E7
:102FA000F02E5A08A0005B08A1004330A3000130B6
:102FB0008A0195208A110A16031DE72F8A013821FC
:102FC000AD30E7008A0138218A150A16F02E5A081A
:102FD000A0005B08A1004330A30095308A01952032
:102FE0008A110A16031DFD2F8A013821AE30E70031
:102FF0008A0138218A150A16F02E5A08A0005B08AB
:10300000A1004430A3001F308A0195208A150A16BA
:10301000031D13288A013821AF30E7008A013821C7
:103020008A150A16F02E5A08A0005B08A100443049
:10303000A300B2308A0195208A150A16031D29289B
:103040008A013821B030E7008A0138218A150A1632
:10305000F02E5A08A0005B08A1004530A3005230B2
:103060008A0195208A150A16031D3F288A013821F6
:10307000B130E7008A0138218A150A16F02E5A0865
:10308000A0005B08A1004530A300F7308A0195201D
:103090008A150A16031D55288A013821B230E70027
:1030A0008A0138218A150A16F02E5A08A0005B08FA
:1030B000A1004630A300A5308A0195208A150A1682
:1030C000031D6B288A013821B330E7008A013821BB
:1030D0008A150A16F02E5A08A0005B08A100473096
:1030E000A3004C308A0195208A150A16031D8128F9
:1030F0008A013821B430E7008A0138218A150A167E
:10310000F02E5A08A0005B08A1004730A300E4306D
:103110008A0195208A150A16031D97288A013821ED
:10312000B530E7008A0138218A150A16F02E5A08B0
:10313000A0005B08A1004830A30089308A019520D7
:103140008A150A16031DAD288A013821B630E7001A
:103150008A0138218A150A16F02E5A08A0005B0849
:10316000A1004930A30042308A0195208A150A1631
:10317000031DC3288A013821B730E7008A013821AE
:103180008A150A16F02E5A08A0005B08A1004930E3
:10319000A300FC308A0195208A150A16031DD92840
:1031A0008A013821B830E7008A0138218A150A16C9
:1031B000F02E5A08A0005B08A1004A30A300BA30E4
:1031C0008A0195208A150A16031DEF288A013821E5
:1031D000B930E7008A0138218A150A16F02E5A08FC
:1031E000A0005B08A1004B30A30072308A0195203B
:1031F0008A150A16031D05298A013821BA30E7000D
:103200008A0138218A150A16F02E5A08A0005B0898
:10321000A1004C30A3001F308A0195208A150A16A0
:10322000031D1B298A013821BB30E7008A013821A0
:103230008A150A16F02E5A08A0005B08A1004C302F
:10324000A300DF308A0195208A150A16031D312953
:103250008A013821BC30E7008A0138218A150A1614
:10326000F02E5A08A0005B08A1004D30A300B23038
:103270008A0195208A150A16031D47298A013821DB
:10328000BD30E7008A0138218A150A16F02E5A0847
:10329000A0005B08A1004E30A30084308A01952075
:1032A0008A150A16031D5D298A013821BE30E70000
:1032B0008A0138218A150A16F02E5A08A0005B08E8
:1032C000A1004F30A30061308A0195208A150A16AB
:1032D000031D73298A013821BF30E7008A01382194
:1032E0008A150A16F02E5A08A0005B08A10050307B
:1032F000A3003C308A0195208A150A16031D8929EE
:103300008A013821C030E7008A0138218A150A165F
:10331000F02E5A08A0005B08A1005130A300043031
:103320008A0195208A150A16031D9F298A013821D2
:10333000C130E7008A0138218A150A16F02E5A0892
:10334000A0005B08A1005130A300DC308A01952069
:103350008A150A16031DB5298A013821C230E700F3
:103360008A0138218A150A16F02E5A08A0005B0837
:10337000A1005230A300CE308A0195208A150A168A
:10338000031DCB298A013821C330E7008A01382187
:103390008A150A16F02E5A08A0005B08A1005330C7
:1033A000A300C2308A0195208A150A16031DE1295F
:1033B0008A013821C430E7008A0138218A150A16AB
:1033C000F02E5A08A0005B08A1005430A300AF30D3
:1033D0008A0195208A150A16031DF7298A013821CA
:1033E000C530E7008A0138218A150A16F02E5A08DE
:1033F000A0005B08A1005530A3008B308A01952006
:103400008A150A16031D0D2A8A013821C630E700E5
:103410008A0138218A150A16F02E5A08A0005B0886
:10342000A1005630A30073308A0195208A150A1630
:10343000031D232A8A013821C730E7008A01382179
:103440008A150A16F02E5A08A0005B08A100573012
:10345000A30081308A0195208A150A16031D392A96
:103460008A013821C830E7008A0138218A150A16F6
:10347000F02E5A08A0005B08A1005830A300953038
:103480008A0195208A150A16031D4F2A8A013821C0
:10349000C930E7008A0138218A150A16F02E5A0829
:1034A000A0005B08A1005930A300B3308A01952029
:1034B0008A150A16031D652A8A013821CA30E700D9
:1034C0008A0138218A150A16F02E5A08A0005B08D6
:1034D000A1005A30A300D4308A0195208A150A161B
:1034E000031D7B2A8A013821CB30E7008A0138216D
:1034F0008A150A16F02E5A08A0005B08A1005B305E
:10350000A300D9308A0195208A150A16031D912A35
:103510008A013821CC30E7008A0138218A150A1641
:10352000F02E5A08A0005B08A1005C30A300F83020
:103530008A0195208A150A16031DA72A8A013821B7
:10354000CD30E7008A0138218A150A16F02E5A0874
:10355000A0005B08A1005E30A30041308A019520E5
:103560008A150A16031DBD2A8A013821CE30E700CC
:103570008A0138218A150A16F02E5A08A0005B0825
:10358000A1005F30A30085308A0195208A150A16B4
:10359000031DD32A8A013821CF30E7008A01382160
:1035A0008A150A16F02E5A08A0005B08A1006030A8
:1035B000A300CE308A0195208A150A16031DE92A38
:1035C0008A013821D030E7008A0138218A150A168D
:1035D000F02E5A08A0005B08A1006230A3001F3043
:1035E0008A0195208A150A16031DFF2A8A013821AF
:1035F000D130E7008A0138218A150A16F02E5A08C0
:10360000A0005B08A1006330A30050308A01952020
:103610008A150A16031D152B8A013821D230E700BE
:103620008A0138218A150A16F02E5A08A0005B0874
:10363000A1006430A30094308A0195208A150A16EF
:10364000031D2B2B8A013821D330E7008A01382152
:103650008A150A16F02E5A08A0005B08A1006630F1
:10366000A3000B308A0195208A150A16031D412BF1
:103670008A013821D430E7008A0138218A150A16D8
:10368000F02E5A08A0005B08A1006730A3008A3022
:103690008A0195208A150A16031D572B8A013821A5
:1036A000D530E7008A0138218A150A16F02E5A080B
:1036B000A0005B08A1006930A30012308A019520A8
:1036C0008A150A16031D6D2B8A013821D630E700B2
:1036D0008A0138218A150A16F02E5A08A0005B08C4
:1036E000A1006A30A30097308A0195208A150A1636
:1036F000031D832B8A013821D730E7008A01382146
:103700008A150A16F02E5A08A0005B08A1006C303A
:10371000A3000D308A0195208A150A16031D992BE6
:103720008A013821D830E7008A0138218A150A1623
:10373000F02E5A08A0005B08A1006D30A300A33052
:103740008A0195208A150A16031DAF2B8A0138219C
:10375000D930E7008A0138218A150A16F02E5A0856
:10376000A0005B08A1006F30A30069308A0195209A
:103770008A150A16031DC52B8A013821DA30E700A5
:103780008A0138218A150A16F02E5A08A0005B0813
:10379000A1007130A30043308A0195208A150A16D2
:1037A000031DDB2B8A013821DB30E7008A01382139
:1037B0008A150A16F02E5A08A0005B08A100733083
:1037C000A3001E308A0195208A150A16031DF12BCD
:1037D0008A013821DC30E7008A0138218A150A166F
:1037E000F02E5A08A0005B08A1007430A300EB3053
:1037F0008A0195208A150A16031D072C8A01382193
:10380000DD30E7008A0138218A150A16F02E5A08A1
:10381000A0005B08A1007630A300A8308A019520A3
:103820008A150A16031D1D2C8A013821DE30E70097
:103830008A0138218A150A16F02E5A08A0005B0862
:10384000A1007830A30089308A0195208A150A16D4
:10385000031D332C8A013821DF30E7008A0138212B
:103860008A150A16F02E5A08A0005B08A1007A30CB
:10387000A300AD308A0195208A150A16031D492C34
:103880008A013821E030E7008A0138218A150A16BA
:10389000F02E5A08A0005B08A1007C30A300E430A1
:1038A0008A0195208A150A16031D5F2C8A0138218A
:1038B000E130E7008A0138218A150A16F02E5A08ED
:1038C000A0005B08A1007F30A30073308A0195201F
:1038D0008A150A16031D752C8A013821E230E7008B
:1038E0008A0138218A150A16F02E5A08A0005B08B2
:1038F000A1008130A30071308A0195208A150A1633
:10390000031D8B2C8A013821E330E7008A0138211E
:103910008A150A16F02E5A08A0005B08A100833011
:10392000A3002C308A0195208A150A16031DA12CAC
:103930008A013821E430E7008A0138218A150A1605
:10394000F02E5A08A0005B08A1008530A300AD301E
:103950008A0195208A150A16031DB72C8A01382181
:10396000E530E7008A0138218A150A16F02E5A0838
:10397000A0005B08A1008830A3004B308A0195208D
:103980008A150A16031DCD2C8A013821E630E7007E
:103990008A0138218A150A16F02E5A08A0005B0801
:1039A000A1008B30A3000C308A0195208A150A16DD
:1039B000031DE32C8A013821E730E7008A01382112
:1039C0008A150A16F02E5A08A0005B08A1008D3057
:1039D000A300D1308A0195208A150A16031DF92CFF
:1039E0008A013821E830E7008A0138218A150A1651
:1039F000F02E5A08A0005B08A1009030A3006130AF
:103A00008A0195208A150A16031D0F2D8A01382177
:103A1000E930E7008A0138218A150A16F02E5A0883
:103A2000A0005B08A1009330A30048308A019520D4
:103A30008A150A16031D252D8A013821EA30E70070
:103A40008A0138218A150A16F02E5A08A0005B0850
:103A5000A1009630A30080308A0195208A150A16AD
:103A6000031D3B2D8A013821EB30E7008A01382104
:103A70008A150A16F02E5A08A0005B08A10099309A
:103A8000A300D5308A0195208A150A16031D512DF1
:103A90008A013821EC30E7008A0138218A150A169C
:103AA000F02E5A08A0005B08A1009D30A3005F30F3
:103AB0008A0195208A150A16031D672D8A0138216F
:103AC000ED30E7008A0138218A150A16F02E5A08CF
:103AD000A0005B08A100A030A300AF308A019520B0
:103AE0008A150A16031D7D2D8A013821EE30E70064
:103AF0008A0138218A150A16F02E5A08A0005B08A0
:103B0000A100A330A300E9308A0195208A150A1686
:103B1000031D932D8A013821EF30E7008A013821F7
:103B20008A150A16F02E5A08A0005B08A100A730DB
:103B3000A300A8308A0195208A150A16031DA92D15
:103B40008A013821F030E7008A0138218A150A16E7
:103B5000F02E5A08A0005B08A100AB30A300C230D1
:103B60008A0195208A150A16031DBF2D8A01382166
:103B7000F130E7008A0138218A150A16F02E5A081A
:103B8000A0005B08A100B030A3000B308A01952093
:103B90008A150A16031DD52D8A013821F230E70057
:103BA0008A0138218A150A16F02E5A08A0005B08EF
:103BB000A100B430A30091308A0195208A150A161D
:103BC000031DEB2D8A013821F330E7008A013821EB
:103BD0008A150A16F02E5A08A0005B08A100B93019
:103BE000A3000D308A0195208A150A16031D012EA7
:103BF0008A013821F430E7008A0138218A150A1633
:103C0000F02E5A08A0005B08A100BD30A30056307A
:103C10008A0195208A150A16031D172E8A0138215C
:103C2000F530E7008A0138218A150A16F02E5A0865
:103C3000A0005B08A100C130A300E4308A019520F8
:103C40008A150A16031D2D2E8A013821F630E70049
:103C50008A0138218A150A16F02E5A08A0005B083E
:103C6000A100C730A30022308A0195208A150A16C8
:103C7000031D432E8A013821F730E7008A013821DD
:103C80008A150A16F02E5A08A0005B08A100CC3055
:103C9000A300F1308A0195208A150A16031D592EBA
:103CA0008A013821F830E7008A0138218A150A167E
:103CB000F02E5A08A0005B08A100D330A3001430F6
:103CC0008A0195208A150A16031D6F2E8A01382154
:103CD000F930E7008A0138218A150A16F02E5A08B1
:103CE000A0005B08A100D930A3000A308A0195200A
:103CF0008A150A16031D852E8A013821FA30E7003D
:103D00008A0138218A150A16F02E5A08A0005B088D
:103D1000A100DE30A300BA308A0195208A150A1668
:103D2000031D9B2E8A013821FB30E7008A013821D0
:103D30008A150A16F02E5A08A0005B08A100E5308B
:103D4000A3003B308A0195208A150A16031DB12E67
:103D50008A013821FC30E7008A0138218A150A16C9
:103D6000F02E5A08A0005B08A100EC30A3009530AB
:103D70008A0195208A150A16031DC72E8A0138214B
:103D8000FD30E7008A0138218A150A16F02E5A08FC
:103D9000A0005B08A100F630A3006A308A019520DC
:103DA0008A150A16031DDD2E8A013821FE30E70030
:103DB0008A0138218A150A16F02E5A08A0005B08DD
:103DC000A100FF30A300FF308A0195208A150A1652
:103DD000031DF02E8A013821FF30E7008A013821C7
:103DE0008A0138216708A800FF30A200A301013032
:103DF0008A0105208A0138210800030183160C1866
:103E0000FF308312DC0003010C18FF30DE005C0879
:103E100084005E088A01B020DE00DF0064005E08D6
:103E20005F048A150A160319402FE80A680864021D
:103E3000031DFF30FF3ADC006508003C031DFF3026
:103E4000FF3ADE005C0884005E088A01B020DE00D4
:103E5000DF0064005E085F048A150A160319312F1B
:103E6000E91464001F3068028A150A16031C3F2FEC
:103E700010108F018E01E8011014E914E5010C10F7
:0E3E800009008A01382163008A150A16432FB3
:02400E0004208C
:02401000FF3F70
:00000001FF
