:02000000D42802
:100008000800A9004030A0004230A1000F30A40031
:10001800A5019F20AA012108031919282A1455208F
:10002800FC3E031C1928AA1455202003AB00280FF6
:100038002128FF30A400A5002C282808A500A40129
:10004800A600A7012B0A03192C28A200A301B92096
:10005800A90B45281708CF39A41B2038241B1038B2
:100068000C389700250895008316071183122B0872
:100078008316920083121208FC392A04043892006D
:10008800CF28A90B54281D08CF39A41B2038241BBE
:1000980010380C389D0025089B00831687103A28D5
:1000A800CF28A10CA00CA10CA00C0800A301A20051
:1000B800FF30A207031CA307031CCF280330A100AD
:1000C800DF3068205C28A101E83EA000A109FC30CF
:1000D800031C7128A00703186E28A0076400A10F4D
:1000E8006E2820187728A01C7B2800007B28080091
:1000F800A20002308228A20003308228A800230828
:100108002102031D89282208200204300318013027
:10011800031902302805031DFF30CF280038031DBE
:10012800FF300405031DFF30CF280404031DFF30F2
:10013800CF28A501A4011030A600210DA40DA50DFE
:100148002208A4022308031C230FA5020318B328BE
:100158002208A40723080318230FA5070310A00DDE
:10016800A10DA60BA1282008CF281030A800A101B6
:10017800A001A70CA60C031CC7282208A007230867
:100188000318230FA107A10CA00CA50CA40CA80B05
:10019800BD282408CF2883130313831264000800A2
:1001A800C0309F00831677308F000F30850086019E
:1001B8009501870181018312C0308B008316960157
:1001C8008C018D0183128C018D0183160317033076
:1001D800880089018312031301309F008316803041
:1001E8009F00831203172130870088018901831635
:1001F80085018312031390010F3097009D01831628
:100208009C0101309D008B1783128A110A12112953
:100218008B1B08008A150A168D2F8A010C21D5011F
:100228008A010C218F018A010C218E018A010C217F
:1002380083160C1083128A010C2110108A010C21DC
:10024800D2018A010C2183169E0183128A010C2196
:100258009E018A010C21B801B9018A010C21BA0159
:10026800BB018A010C21BC01BD018A010C21C4011A
:10027800C5018A010C2156108A010C2185128A01B8
:100288000C2186018A010C21D3018A010C21D61088
:100298008A010C218A110A1285228A010C21380848
:1002A800A0003908A1000430A200A3018A019D2002
:1002B800D4008A010C215408A800FF30A200A30131
:1002C80001308A0105208A010C210A30CE008A01FA
:1002D8000C219130CC000530CD008A010C2103306F
:1002E800A300E8308A015B208A010C2164008A118E
:1002F8000A12561C82298A110A12C2228A010C216A
:1003080064008A110A1285199A298A010C218A1116
:100318000A12F7218A010C2164008A110A12D61CDC
:1003280098298A110A1221238A010C218A010C2199
:100338008A110A1285228A010C213808A00039087E
:10034800A1003B08A3003A088A017C208A110A12FE
:10035800031D78298A010C2164008A110A12D61813
:10036800CD298A010C213808A0003908A1000430E1
:10037800A200A3018A019D20D4008A010C215408FF
:10038800A800FF30A200A30101308A0105208A01DC
:100398000C218A010C210301D618FF30BE00520837
:1003A800003C031DFF30FF3AC0003E0884004008AF
:1003B8008A019220C000C1006400400841048A11EB
:1003C8000A120319F3298A010C218A110A12B0248E
:1003D8008A010C218A110A125C258A010C218A01E2
:1003E8000C218A0178298A010C21D30A8A010C215F
:1003F800640053081E3C8A110A12031D672A8A01E9
:100408000C210230D6068316D61083128A010C21DD
:1004180056108A010C2185168A010C2164008A1164
:100428000A12D618292A8A010C2183160C10831265
:100438008A010C2110108A010C210130B802003009
:10044800031C013EB9028A010C218A010C216400B7
:100458008A110A12D61C4F2A8A010C21FF30D200B9
:100468008A010C21D5018A010C218F018A010C21F6
:100478008E018A010C210130B8020030031C013EB4
:10048800B9028A010C2183160C1483128A010C21EB
:1004980010148A010C218A010C2164008A110A12A5
:1004A8000519652A8A010C210830860683168611EB
:1004B80083128A010C2186190616861D06128A01E6
:1004C8000C218A010C218A010C2164308A015A20EE
:1004D8008A010C210301851DFF30BE000301051DA3
:1004E800FF30C0003E0840048A110A12031DF72994
:1004F8008A010C2185128A010C21D3018A010C2161
:1005080008008A010C213808BA003908BB008A01A2
:100518000C2183169E0183128A010C219E018A01F7
:100528000C2101309F008A010C219F148A010C21A3
:1005380064008A110A120C1F9A2A8A010C21FF30C2
:10054800A600A7011E08A200A3018A01B920BE00C7
:100558002508BF0083161E0883123E07B8003F080F
:100568000318013EB9008A010C2183169E018312EB
:100578008A010C219E018A010C2108008A010C21A4
:100588005208013C031DFF30FF3ABE005208023CEE
:10059800031DFF30FF3AC0003E08840040088A016E
:1005A8009920C000C1005208033C031DFF30FF3AE8
:1005B800C20040084104840042088A019920C20010
:1005C800C3006400420843048A110A120319ED2A81
:1005D80008008A010C2164004C080E028A110A12D4
:1005E800031CC22A8A010C2164004D080F028A11DB
:1005F8000A12031CF62A8A010C2110108A010C2108
:100608008F018A010C218E018A010C21D5018A01F2
:100618000C2156108A010C2185168A010C21013003
:10062800A100F4308A0168208A010C2185128A0110
:100638000C2110148A010C2108008A010C21D20A0D
:100648008A010C218A010C2164005208013C8A119C
:100658000A12031D692B8A010C2110108A010C2132
:1006680083160C1083128A010C218F018A010C2138
:100678008E018A010C21D5018A010C21CE018A0143
:100688000C21CF018A010C21D0018A010C21D10152
:100698008A010C21C601C7018A010C21C801C901C0
:1006A8008A010C21CA01CB018A010C21CC01CD01A0
:1006B8008A010C2183160C1483128A010C21101450
:1006C8008A010C218A110A12AD2C64005208023CDE
:1006D8008A110A12031D9A2B8A010C2110108A0113
:1006E8000C2183168C0183128A010C210E08C60086
:1006F8008A010C210F08C7008A010C218F018A0189
:100708000C218E018A010C215508CF008A010C2189
:10071800D5018A010C2183160C1483128A010C213D
:1007280010148A010C218A110A12AD2C6400520897
:10073800033C8A110A12031DCB2B8A010C211010CD
:100748008A010C2183168C0183128A010C210E0860
:10075800C8008A010C210F08C9008A010C218F01E9
:100768008A010C218E018A010C215508D0008A01CA
:100778000C21D5018A010C2183160C1483128A01DD
:100788000C2110148A010C218A110A12AD2C640064
:100798005208043C8A110A12031DAD2C8A010C214F
:1007A80010108A010C2183168C0183128A010C21F6
:1007B8000E08CA008A010C210F08CB008A010C21FF
:1007C8005508D1008A010C214F085007BE00BF010F
:1007D800BF0D3E085107CE008A010C214E08A0002B
:1007E800A1010330A200A3018A019D20CE008A0145
:1007F8000C2146084807BE00BF01BF0D4A083E0746
:10080800C4003F080318013EC5008A010C214408B2
:10081800A0004508A1000330A200A3018A019D2081
:10082800CC008A010C2147084907BE00BF01BF0D53
:100838004B083E07C4003F080318013EC5008A0163
:100848000C214408A0004508A1000330A200A30120
:100858008A019D20CD008A010C21640014304E02CB
:100868008A110A12031C442C8A010C211330CE0071
:100878008A010C21FA30CC00FF30CD008A010C210E
:100888008A010C21CC30A6000C30A7004E08A2002B
:10089800A3018A01B920C4002508C5008A010C21DA
:1008A8004C08A0004D08A1001430A200A3018A0141
:1008B8009D20BE002108BF003E08C4073F0803185A
:1008C800013EC5078A010C214408BC004508BD004B
:1008D8008A010C218A110A125C258A010C21640004
:1008E800963054028A110A12031C862C8A010C21A4
:1008F8004608CC004708CD008A010C214F08CE00DD
:100908008A010C218A010C218A0185228A010C2185
:100918008A110A12B0248A010C218A110A125C2554
:100928008A010C21D5018A010C21D2018A010C21EE
:100938008F018A010C218E018A010C2156108A012F
:100948000C2183160C1483128A010C2110148A01BD
:100958000C218A010C2108008A010C218A010C2132
:100968003808A0003908A100A301CD308A017F20F2
:100978008A110A12031DCB2C8A010C214408BC00E1
:100988004508BD008A010C218A110A12592D380820
:10099800A0003908A1000130A3009A308A017F2005
:1009A8008A110A12031DF72C8A010C214408A000A1
:1009B8004508A1000430A200A3018A019D20BE00C1
:1009C8002108BF003E08A6003F08A7000330A20088
:1009D800A3018A01B920BC002508BD008A010C21A9
:1009E8008A110A12592D3808A0003908A1000230CE
:1009F800A30067308A017F208A110A12031D232D64
:100A08008A010C214408A0004508A1000330A20077
:100A1800A3018A019D20BE002108BF003E08A60050
:100A28003F08A7000230A200A3018A01B920BC0038
:100A38002508BD008A010C218A110A12592D38088F
:100A4800A0003908A1000330A30034308A017F20B8
:100A58008A110A12031D3C2D8A010C210310450C32
:100A6800BD00440CBC008A010C218A110A12592DC0
:100A78003808A0003908A1000430A30000308A011A
:100A88007F208A110A12031D592D8A010C2144085E
:100A9800A0004508A1000330A200A3018A019D20FF
:100AA800BC002108BD008A010C218A010C21080024
:100AB8008A010C218A010C213C08A0003D08A100F4
:100AC8001E30A30061308A017F208A110A12031D9B
:100AD800752D8A010C21D4018A010C218A150A1668
:100AE800802F3C08A0003D08A1001E30A3007130F3
:100AF8008A017F208A110A12031D8B2D8A010C217D
:100B08000130D4008A010C218A150A16802F3C086E
:100B1800A0003D08A1001E30A30084308A017F2078
:100B28008A110A12031DA12D8A010C210230D4005A
:100B38008A010C218A150A16802F3C08A0003D085E
:100B4800A1001E30A30099308A017F208A110A1261
:100B5800031DB72D8A010C210330D4008A010C2112
:100B68008A150A16802F3C08A0003D08A1001E30F7
:100B7800A300AE308A017F208A110A12031DCD2DF1
:100B88008A010C210430D4008A010C218A150A1626
:100B9800802F3C08A0003D08A1001E30A300C330F0
:100BA8008A017F208A110A12031DE32D8A010C2174
:100BB8000530D4008A010C218A150A16802F3C08BA
:100BC800A0003D08A1001E30A300D6308A017F2076
:100BD8008A110A12031DF92D8A010C210630D4004E
:100BE8008A010C218A150A16802F3C08A0003D08AE
:100BF800A1001E30A300EA308A017F208A110A1260
:100C0800031D0F2E8A010C210730D4008A010C2104
:100C18008A150A16802F3C08A0003D08A1001E3046
:100C2800A300FF308A017F208A110A12031D252E96
:100C38008A010C210830D4008A010C218A150A1671
:100C4800802F3C08A0003D08A1001F30A3001430ED
:100C58008A017F208A110A12031D3B2E8A010C216A
:100C68000930D4008A010C218A150A16802F3C0805
:100C7800A0003D08A1001F30A3002B308A017F206F
:100C88008A110A12031D512E8A010C210A30D40040
:100C98008A010C218A150A16802F3C08A0003D08FD
:100CA800A1001F30A30041308A017F208A110A1257
:100CB800031D672E8A010C210B30D4008A010C21F8
:100CC8008A150A16802F3C08A0003D08A1001F3095
:100CD800A30055308A017F208A110A12031D7D2E38
:100CE8008A010C210C30D4008A010C218A150A16BD
:100CF800802F3C08A0003D08A1001F30A3006B30E6
:100D08008A017F208A110A12031D932E8A010C2161
:100D18000D30D4008A010C218A150A16802F3C0850
:100D2800A0003D08A1001F30A30082308A017F2067
:100D38008A110A12031DA92E8A010C210E30D40033
:100D48008A010C218A150A16802F3C08A0003D084C
:100D5800A1001F30A30098308A017F208A110A124F
:100D6800031DBF2E8A010C210F30D4008A010C21EB
:100D78008A150A16802F3C08A0003D08A1001F30E4
:100D8800A300B0308A017F208A110A12031DD52ED4
:100D98008A010C211030D4008A010C218A150A1608
:100DA800802F3C08A0003D08A1001F30A300C830D8
:100DB8008A017F208A110A12031DEB2E8A010C2159
:100DC8001130D4008A010C218A150A16802F3C089C
:100DD800A0003D08A1001F30A300DB308A017F205E
:100DE8008A110A12031D012F8A010C211230D40026
:100DF8008A010C218A150A16802F3C08A0003D089C
:100E0800A1001F30A300F1308A017F208A110A1245
:100E1800031D172F8A010C211330D4008A010C21DD
:100E28008A150A16802F3C08A0003D08A100203032
:100E3800A3000A308A017F208A110A12031D2D2F70
:100E48008A010C211430D4008A010C218A150A1653
:100E5800802F3C08A0003D08A1002030A3002230CC
:100E68008A017F208A110A12031D432F8A010C214F
:100E78001530D4008A010C218A150A16802F3C08E7
:100E8800A0003D08A1002030A3003A308A017F204D
:100E98008A110A12031D592F8A010C211630D40019
:100EA8008A010C218A150A16802F3C08A0003D08EB
:100EB800A1002030A30053308A017F208A110A1232
:100EC800031D6F2F8A010C211730D4008A010C21D1
:100ED8008A150A16802F3C08A0003D08A100203082
:100EE800A30068308A017F208A110A12031D852F0A
:100EF8008A010C211830D4008A010C218A150A169F
:100F0800802F3C08A0003D08A1002030A3007D30C0
:100F18008A017F208A110A12031D9B2F8A010C2146
:100F28001930D4008A010C218A150A16802F3C0832
:100F3800A0003D08A1002030A30096308A017F2040
:100F48008A110A12031DB12F8A010C211A30D4000C
:100F58008A010C218A150A16802F3C08A0003D083A
:100F6800A1002030A300B1308A017F208A110A1223
:100F7800031DC72F8A010C211B30D4008A010C21C4
:100F88008A150A16802F3C08A0003D08A1002030D1
:100F9800A300CA308A017F208A110A12031DDD2F9F
:100FA8008A010C211C30D4008A010C218A150A16EA
:100FB800802F3C08A0003D08A1002030A300E330AA
:100FC8008A017F208A110A12031DF32F8A010C213E
:100FD8001D30D4008A010C218A150A16802F3C087E
:100FE800A0003D08A1002030A300F9308A017F202D
:100FF8008A150A12031D09288A010C211E30D40003
:101008008A010C218A150A16802F3C08A0003D0889
:10101800A1002130A30010308A017F208A150A120E
:10102800031D1F288A010C211F30D4008A010C21BE
:101038008A150A16802F3C08A0003D08A10021301F
:10104800A3002B308A017F208A150A12031D352838
:101058008A010C212030D4008A010C218A150A1635
:10106800802F3C08A0003D08A1002130A300473094
:101078008A017F208A150A12031D4B288A010C2138
:101088002130D4008A010C218A150A16802F3C08C9
:10109800A0003D08A1002130A30062308A017F2012
:1010A8008A150A12031D61288A010C212230D400F6
:1010B8008A010C218A150A16802F3C08A0003D08D9
:1010C800A1002130A30079308A017F208A150A12F5
:1010D800031D77288A010C212330D4008A010C21B2
:1010E8008A150A16802F3C08A0003D08A10021306F
:1010F800A30090308A017F208A150A12031D8D28CB
:101108008A010C212430D4008A010C218A150A1680
:10111800802F3C08A0003D08A1002130A300AC307E
:101128008A017F208A150A12031DA3288A010C212F
:101138002530D4008A010C218A150A16802F3C0814
:10114800A0003D08A1002130A300C8308A017F20FB
:101158008A150A12031DB9288A010C212630D400E9
:101168008A010C218A150A16802F3C08A0003D0828
:10117800A1002130A300E3308A017F208A150A12DA
:10118800031DCF288A010C212730D4008A010C21A5
:101198008A150A16802F3C08A0003D08A1002130BE
:1011A800A300FF308A017F208A150A12031DE52853
:1011B8008A010C212830D4008A010C218A150A16CC
:1011C800802F3C08A0003D08A1002230A3001A305F
:1011D8008A017F208A150A12031DFB288A010C2127
:1011E8002930D4008A010C218A150A16802F3C0860
:1011F800A0003D08A1002230A30035308A017F20DD
:101208008A150A12031D11298A010C212A30D400DB
:101218008A010C218A150A16802F3C08A0003D0877
:10122800A1002230A30051308A017F208A150A12BA
:10123800031D27298A010C212B30D4008A010C2197
:101248008A150A16802F3C08A0003D08A10022300C
:10125800A3006E308A017F208A150A12031D3D29DA
:101268008A010C212C30D4008A010C218A150A1617
:10127800802F3C08A0003D08A1002230A3008A303E
:101288008A017F208A150A12031D53298A010C211D
:101298002D30D4008A010C218A150A16802F3C08AB
:1012A800A0003D08A1002230A300A6308A017F20BB
:1012B8008A150A12031D69298A010C212E30D400CF
:1012C8008A010C218A150A16802F3C08A0003D08C7
:1012D800A1002230A300C1308A017F208A150A129A
:1012E800031D7F298A010C212F30D4008A010C218B
:1012F8008A150A16802F3C08A0003D08A10022305C
:10130800A300DE308A017F208A150A12031D952961
:101318008A010C213030D4008A010C218A150A1662
:10132800802F3C08A0003D08A1002230A300FF3018
:101338008A017F208A150A12031DAB298A010C2114
:101348003130D4008A010C218A150A16802F3C08F6
:10135800A0003D08A1002330A3001E308A017F2091
:101368008A150A12031DC1298A010C213230D400C2
:101378008A010C218A150A16802F3C08A0003D0816
:10138800A1002330A3003C308A017F208A150A126D
:10139800031DD7298A010C213330D4008A010C217E
:1013A8008A150A16802F3C08A0003D08A1002330AA
:1013B800A3005C308A017F208A150A12031DED29DB
:1013C8008A010C213430D4008A010C218A150A16AE
:1013D800802F3C08A0003D08A1002330A3007930ED
:1013E8008A017F208A150A12031D032A8A010C210B
:1013F8003530D4008A010C218A150A16802F3C0842
:10140800A0003D08A1002330A30094308A017F206A
:101418008A150A12031D192A8A010C213630D400B4
:101428008A010C218A150A16802F3C08A0003D0865
:10143800A1002330A300B5308A017F208A150A1243
:10144800031D2F2A8A010C213730D4008A010C2170
:101458008A150A16802F3C08A0003D08A1002330F9
:10146800A300D6308A017F208A150A12031D452A57
:101478008A010C213830D4008A010C218A150A16F9
:10148800802F3C08A0003D08A1002330A300F730BE
:101498008A017F208A150A12031D5B2A8A010C2102
:1014A8003930D4008A010C218A150A16802F3C088D
:1014B800A0003D08A1002430A30018308A017F2035
:1014C8008A150A12031D712A8A010C213A30D400A8
:1014D8008A010C218A150A16802F3C08A0003D08B5
:1014E800A1002430A30037308A017F208A150A1210
:1014F800031D872A8A010C213B30D4008A010C2164
:101508008A150A16802F3C08A0003D08A100243047
:10151800A30055308A017F208A150A12031D9D2ACF
:101528008A010C213C30D4008A010C218A150A1644
:10153800802F3C08A0003D08A1002430A30078308B
:101548008A017F208A150A12031DB32A8A010C21F9
:101558003D30D4008A010C218A150A16802F3C08D8
:10156800A0003D08A1002430A3009C308A017F2000
:101578008A150A12031DC92A8A010C213E30D4009B
:101588008A010C218A150A16802F3C08A0003D0804
:10159800A1002430A300BF308A017F208A150A12D7
:1015A800031DDF2A8A010C213F30D4008A010C2157
:1015B8008A150A16802F3C08A0003D08A100243097
:1015C800A300E2308A017F208A150A12031DF52A3A
:1015D8008A010C214030D4008A010C218A150A1690
:1015E800802F3C08A0003D08A1002530A300013051
:1015F8008A017F208A150A12031D0B2B8A010C21F0
:101608004130D4008A010C218A150A16802F3C0823
:10161800A0003D08A1002530A30020308A017F20CA
:101628008A150A12031D212B8A010C214230D4008D
:101638008A010C218A150A16802F3C08A0003D0853
:10164800A1002530A30044308A017F208A150A12A0
:10165800031D372B8A010C214330D4008A010C2149
:101668008A150A16802F3C08A0003D08A1002530E5
:10167800A30069308A017F208A150A12031D4D2BA9
:101688008A010C214430D4008A010C218A150A16DB
:10169800802F3C08A0003D08A1002530A3008E3013
:1016A8008A017F208A150A12031D632B8A010C21E7
:1016B8004530D4008A010C218A150A16802F3C086F
:1016C800A0003D08A1002530A300B0308A017F208A
:1016D8008A150A12031D792B8A010C214630D40081
:1016E8008A010C218A150A16802F3C08A0003D08A3
:1016F800A1002530A300D0308A017F208A150A1264
:10170800031D8F2B8A010C214730D4008A010C213C
:101718008A150A16802F3C08A0003D08A100253034
:10172800A300F8308A017F208A150A12031DA52B11
:101738008A010C214830D4008A010C218A150A1626
:10174800802F3C08A0003D08A1002630A3002130CE
:101758008A017F208A150A12031DBB2B8A010C21DE
:101768004930D4008A010C218A150A16802F3C08BA
:10177800A0003D08A1002630A30047308A017F2041
:101788008A150A12031DD12B8A010C214A30D40074
:101798008A010C218A150A16802F3C08A0003D08F2
:1017A800A1002630A3006E308A017F208A150A1214
:1017B800031DE72B8A010C214B30D4008A010C2130
:1017C8008A150A16802F3C08A0003D08A100263083
:1017D800A30090308A017F208A150A12031DFD2B71
:1017E8008A010C214C30D4008A010C218A150A1672
:1017F800802F3C08A0003D08A1002630A300B4308B
:101808008A017F208A150A12031D132C8A010C21D4
:101818004D30D4008A010C218A150A16802F3C0805
:10182800A0003D08A1002630A300DC308A017F20FB
:101838008A150A12031D292C8A010C214E30D40066
:101848008A010C218A150A16802F3C08A0003D0841
:10185800A1002730A30004308A017F208A150A12CC
:10186800031D3F2C8A010C214F30D4008A010C2122
:101878008A150A16802F3C08A0003D08A1002730D1
:10188800A3002F308A017F208A150A12031D552CC8
:101898008A010C215030D4008A010C218A150A16BD
:1018A800802F3C08A0003D08A1002730A300583035
:1018B8008A017F208A150A12031D6B2C8A010C21CC
:1018C8005130D4008A010C218A150A16802F3C0851
:1018D800A0003D08A1002730A3007B308A017F20AB
:1018E8008A150A12031D812C8A010C215230D4005A
:1018F8008A010C218A150A16802F3C08A0003D0891
:10190800A1002730A300A0308A017F208A150A127F
:10191800031D972C8A010C215330D4008A010C2115
:101928008A150A16802F3C08A0003D08A100273020
:10193800A300CC308A017F208A150A12031DAD2C22
:101948008A010C215430D4008A010C218A150A1608
:10195800802F3C08A0003D08A1002730A300F830E4
:101968008A017F208A150A12031DC32C8A010C21C3
:101978005530D4008A010C218A150A16802F3C089C
:10198800A0003D08A1002830A30024308A017F2050
:101998008A150A12031DD92C8A010C215630D4004D
:1019A8008A010C218A150A16802F3C08A0003D08E0
:1019B800A1002830A30050308A017F208A150A121E
:1019C800031DEF2C8A010C215730D4008A010C2109
:1019D8008A150A16802F3C08A0003D08A10028306F
:1019E800A30078308A017F208A150A12031D052D6D
:1019F8008A010C215830D4008A010C218A150A1654
:101A0800802F3C08A0003D08A1002830A300A13089
:101A18008A017F208A150A12031D1B2D8A010C21B9
:101A28005930D4008A010C218A150A16802F3C08E7
:101A3800A0003D08A1002830A300CF308A017F20F4
:101A48008A150A12031D312D8A010C215A30D4003F
:101A58008A010C218A150A16802F3C08A0003D082F
:101A6800A1002830A300FF308A017F208A150A12BE
:101A7800031D472D8A010C215B30D4008A010C21FB
:101A88008A150A16802F3C08A0003D08A1002930BD
:101A9800A3002F308A017F208A150A12031D5D2DAD
:101AA8008A010C215C30D4008A010C218A150A169F
:101AB800802F3C08A0003D08A1002930A3005E301B
:101AC8008A017F208A150A12031D732D8A010C21B1
:101AD8005D30D4008A010C218A150A16802F3C0833
:101AE800A0003D08A1002930A30087308A017F208B
:101AF8008A150A12031D892D8A010C215E30D40033
:101B08008A010C218A150A16802F3C08A0003D087E
:101B1800A1002930A300B2308A017F208A150A1259
:101B2800031D9F2D8A010C215F30D4008A010C21EE
:101B38008A150A16802F3C08A0003D08A10029300C
:101B4800A300E3308A017F208A150A12031DB52DF0
:101B58008A010C216030D4008A010C218A150A16EA
:101B6800802F3C08A0003D08A1002A30A3001430B3
:101B78008A017F208A150A12031DCB2D8A010C21A8
:101B88006130D4008A010C218A150A16802F3C087E
:101B9800A0003D08A1002A30A30047308A017F2019
:101BA8008A150A12031DE12D8A010C216230D40026
:101BB8008A010C218A150A16802F3C08A0003D08CE
:101BC800A1002A30A30073308A017F208A150A12E7
:101BD800031DF72D8A010C216330D4008A010C21E2
:101BE8008A150A16802F3C08A0003D08A1002A305B
:101BF800A300A1308A017F208A150A12031D0D2E29
:101C08008A010C216430D4008A010C218A150A1635
:101C1800802F3C08A0003D08A1002A30A300D63040
:101C28008A017F208A150A12031D232E8A010C219E
:101C38006530D4008A010C218A150A16802F3C08C9
:101C4800A0003D08A1002B30A3000C308A017F20A2
:101C58008A150A12031D392E8A010C216630D40018
:101C68008A010C218A150A16802F3C08A0003D081D
:101C7800A1002B30A30041308A017F208A150A1267
:101C8800031D4F2E8A010C216730D4008A010C21D4
:101C98008A150A16802F3C08A0003D08A1002B30A9
:101CA800A30076308A017F208A150A12031D652E4B
:101CB8008A010C216830D4008A010C218A150A1681
:101CC800802F3C08A0003D08A1002B30A300A530C0
:101CD8008A017F208A150A12031D7B2E8A010C2196
:101CE8006930D4008A010C218A150A16802F3C0815
:101CF800A0003D08A1002B30A300D4308A017F202A
:101D08008A150A12031D912E8A010C216A30D4000B
:101D18008A010C218A150A16802F3C08A0003D086C
:101D2800A1002C30A3000A308A017F208A150A12EC
:101D3800031DA72E8A010C216B30D4008A010C21C7
:101D48008A150A16802F3C08A0003D08A1002C30F7
:101D5800A30043308A017F208A150A12031DBD2E75
:101D68008A010C216C30D4008A010C218A150A16CC
:101D7800802F3C08A0003D08A1002C30A3007E3035
:101D88008A017F208A150A12031DD32E8A010C218D
:101D98006D30D4008A010C218A150A16802F3C0860
:101DA800A0003D08A1002C30A300B8308A017F2094
:101DB8008A150A12031DE92E8A010C216E30D400FF
:101DC8008A010C218A150A16802F3C08A0003D08BC
:101DD800A1002C30A300ED308A017F208A150A1259
:101DE800031DFF2E8A010C216F30D4008A010C21BB
:101DF8008A150A16802F3C08A0003D08A1002D3046
:101E0800A30022308A017F208A150A12031D152F8C
:101E18008A010C217030D4008A010C218A150A1617
:101E2800802F3C08A0003D08A1002D30A3005E30A3
:101E38008A017F208A150A12031D2B2F8A010C2183
:101E48007130D4008A010C218A150A16802F3C08AB
:101E5800A0003D08A1002D30A3009C308A017F20FE
:101E68008A150A12031D412F8A010C217230D400F1
:101E78008A010C218A150A16802F3C08A0003D080B
:101E8800A1002D30A300D8308A017F208A150A12BC
:101E9800031D572F8A010C217330D4008A010C21AD
:101EA8008A150A16802F3C08A0003D08A1002E3094
:101EB800A30015308A017F208A150A12031D6D2F91
:101EC8008A010C217430D4008A010C218A150A1663
:101ED800802F3C08A0003D08A1002E30A3004C3004
:101EE8008A017F208A150A12031D832F8A010C217B
:101EF8007530D4008A010C218A150A16802F3C08F7
:101F0800A0003D08A1002E30A30087308A017F2061
:101F18008A150A12031D992F8A010C217630D400E4
:101F28008A010C218A150A16802F3C08A0003D085A
:101F3800A1002E30A300CA308A017F208A150A1218
:101F4800031DAF2F8A010C217730D4008A010C21A0
:101F58008A150A16802F3C08A0003D08A1002F30E2
:101F6800A3000C308A017F208A150A12031DC52F91
:101F78008A010C217830D4008A010C218A150A16AE
:101F8800802F3C08A0003D08A1002F30A3004F304F
:101F98008A017F208A150A12031DDB2F8A010C2172
:101FA8007930D4008A010C218A150A16802F3C0842
:101FB800A0003D08A1002F30A30091308A017F20A6
:101FC8008A150A12031DF12F8A010C217A30D400D8
:101FD8008A010C218A150A16802F3C08A0003D08AA
:101FE800A1002F30A300CF308A017F208A110A1662
:101FF800031D07288A010C217B30D4008A010C219B
:102008008A150A16802F3C08A0003D08A100303030
:10201800A3000F308A017F208A110A16031D1D288C
:102028008A010C217C30D4008A010C218A150A16F9
:10203800802F3C08A0003D08A1003030A300543098
:102048008A017F208A110A16031D33288A010C2170
:102058007D30D4008A010C218A150A16802F3C088D
:10206800A0003D08A1003030A30099308A017F20EC
:102078008A110A16031D49288A010C217E30D400D2
:102088008A010C218A150A16802F3C08A0003D08F9
:10209800A1003030A300E3308A017F208A110A169C
:1020A800031D5F288A010C217F30D4008A010C218E
:1020B8008A150A16802F3C08A0003D08A10031307F
:1020C800A3002B308A017F208A110A16031D752868
:1020D8008A010C218030D4008A010C218A150A1645
:1020E800802F3C08A0003D08A1003130A3006C30CF
:1020F8008A017F208A110A16031D8B288A010C2168
:102108008130D4008A010C218A150A16802F3C08D8
:10211800A0003D08A1003130A300AF308A017F2024
:102128008A110A16031DA1288A010C218230D400C5
:102138008A010C218A150A16802F3C08A0003D0848
:10214800A1003130A300F9308A017F208A110A16D4
:10215800031DB7288A010C218330D4008A010C2181
:102168008A150A16802F3C08A0003D08A1003230CD
:10217800A30045308A017F208A110A16031DCD2845
:102188008A010C218430D4008A010C218A150A1690
:10219800802F3C08A0003D08A1003230A3009130F8
:1021A8008A017F208A110A16031DE3288A010C215F
:1021B8008530D4008A010C218A150A16802F3C0824
:1021C800A0003D08A1003230A300D2308A017F2050
:1021D8008A110A16031DF9288A010C218630D400B9
:1021E8008A010C218A150A16802F3C08A0003D0898
:1021F800A1003330A30019308A017F208A110A1602
:10220800031D0F298A010C218730D4008A010C2173
:102218008A150A16802F3C08A0003D08A10033301B
:10222800A3006C308A017F208A110A16031D252914
:102238008A010C218830D4008A010C218A150A16DB
:10224800802F3C08A0003D08A1003330A300C43013
:102258008A017F208A110A16031D3B298A010C2155
:102268008930D4008A010C218A150A16802F3C086F
:10227800A0003D08A1003430A3001C308A017F2053
:102288008A110A16031D51298A010C218A30D400AB
:102298008A010C218A150A16802F3C08A0003D08E7
:1022A800A1003430A3006E308A017F208A110A16FB
:1022B800031D67298A010C218B30D4008A010C2167
:1022C8008A150A16802F3C08A0003D08A10034306A
:1022D800A300B6308A017F208A110A16031D7D29C2
:1022E8008A010C218C30D4008A010C218A150A1627
:1022F800802F3C08A0003D08A1003530A300053020
:102308008A017F208A110A16031D93298A010C214C
:102318008D30D4008A010C218A150A16802F3C08BA
:10232800A0003D08A1003530A30062308A017F205B
:102338008A110A16031DA9298A010C218E30D4009E
:102348008A010C218A150A16802F3C08A0003D0836
:10235800A1003530A300BD308A017F208A110A16FA
:10236800031DBF298A010C218F30D4008A010C215A
:102378008A150A16802F3C08A0003D08A1003630B7
:10238800A30018308A017F208A110A16031DD52957
:102398008A010C219030D4008A010C218A150A1672
:1023A800802F3C08A0003D08A1003630A3007530FE
:1023B8008A017F208A110A16031DEB298A010C2144
:1023C8009130D4008A010C218A150A16802F3C0806
:1023D800A0003D08A1003630A300CB308A017F2041
:1023E8008A110A16031D012A8A010C219230D40091
:1023F8008A010C218A150A16802F3C08A0003D0886
:10240800A1003730A30021308A017F208A110A16E3
:10241800031D172A8A010C219330D4008A010C214C
:102428008A150A16802F3C08A0003D08A100373005
:10243800A30080308A017F208A110A16031D2D2AE5
:102448008A010C219430D4008A010C218A150A16BD
:10245800802F3C08A0003D08A1003730A300E230DF
:102468008A017F208A110A16031D432A8A010C213A
:102478009530D4008A010C218A150A16802F3C0851
:10248800A0003D08A1003830A30048308A017F2011
:102498008A110A16031D632A8A010C219630D4007A
:1024A8008A010C210430CF008A010C21FC30C600BF
:1024B800BB30C7008A010C218A150A16802F3C08F8
:1024C800A0003D08A1003830A300A9308A017F2070
:1024D8008A110A16031D832A8A010C219730D40019
:1024E8008A010C210430CF008A010C21F330C60088
:1024F800C430C7008A010C218A150A16802F3C08AF
:10250800A0003D08A1003930A30004308A017F20D3
:102518008A110A16031DA32A8A010C219830D400B7
:102528008A010C210430CF008A010C21EC30C6004E
:10253800CB30C7008A010C218A150A16802F3C0867
:10254800A0003D08A1003930A30067308A017F2030
:102558008A110A16031DC32A8A010C219930D40056
:102568008A010C210430CF008A010C216B30C6008F
:10257800D530C7008A010C218A150A16802F3C081D
:10258800A0003D08A1003930A300D3308A017F2084
:102598008A110A16031DE32A8A010C219A30D400F5
:1025A8008A010C210430CF008A010C21D930C600E1
:1025B800DE30C7008A010C218A150A16802F3C08D4
:1025C800A0003D08A1003A30A30040308A017F20D6
:1025D8008A110A16031D032B8A010C219B30D40093
:1025E8008A010C210430CF008A010C216930C60011
:1025F800E830C7008A010C218A150A16802F3C088A
:10260800A0003D08A1003A30A300AE308A017F2027
:102618008A110A16031D232B8A010C219C30D40031
:102628008A010C210430CF008A010C219730C600A2
:10263800F230C7008A010C218A150A16802F3C083F
:10264800A0003D08A1003B30A3001C308A017F2078
:102658008A110A16031D432B8A010C219D30D400D0
:102668008A010C210430CF008A010C213330C600C6
:10267800FC30C7008A010C218A150A16802F3C08F5
:10268800A0003D08A1003B30A30082308A017F20D2
:102698008A110A16031D632B8A010C219E30D4006F
:1026A8008A010C210530CF008A010C21FF30C600B9
:1026B8000330C7008A010C218A150A16802F3C08AE
:1026C800A0003D08A1003B30A300ED308A017F2027
:1026D8008A110A16031D832B8A010C219F30D4000E
:1026E8008A010C210530CF008A010C213930C6003F
:1026F8000E30C7008A010C218A150A16802F3C0863
:10270800A0003D08A1003C30A30064308A017F206E
:102718008A110A16031DA32B8A010C21A030D400AC
:102728008A010C210530CF008A010C21D930C6005E
:102738001830C7008A010C218A150A16802F3C0818
:10274800A0003D08A1003C30A300DE308A017F20B4
:102758008A110A16031DC32B8A010C21A130D4004B
:102768008A010C210530CF008A010C21CE30C60029
:102778002330C7008A010C218A150A16802F3C08CD
:10278800A0003D08A1003D30A30056308A017F20FB
:102798008A110A16031DE32B8A010C21A230D400EA
:1027A8008A010C210530CF008A010C216E30C60049
:1027B8002E30C7008A010C218A150A16802F3C0882
:1027C800A0003D08A1003D30A300C4308A017F204D
:1027D8008A110A16031D032C8A010C21A330D40088
:1027E8008A010C210530CF008A010C218830C600EF
:1027F8003630C7008A010C218A150A16802F3C083A
:10280800A0003D08A1003E30A30035308A017F209A
:102818008A110A16031D232C8A010C21A430D40026
:102828008A010C210530CF008A010C21D230C60064
:102838004130C7008A010C218A150A16802F3C08EE
:10284800A0003D08A1003E30A300B5308A017F20DA
:102858008A110A16031D432C8A010C21A530D400C5
:102868008A010C210530CF008A010C21D730C6001F
:102878004D30C7008A010C218A150A16802F3C08A2
:10288800A0003D08A1003F30A30039308A017F2015
:102898008A110A16031D632C8A010C21A630D40064
:1028A8008A010C210530CF008A010C216530C60051
:1028B8005930C7008A010C218A150A16802F3C0856
:1028C800A0003D08A1003F30A300EE308A017F2020
:1028D8008A110A16031D832C8A010C21A730D40003
:1028E8008A010C210530CF008A010C211430C60062
:1028F8006630C7008A010C218A150A16802F3C0809
:10290800A0003D08A1004030A30072308A017F205A
:102918008A110A16031DA32C8A010C21A830D400A1
:102928008A010C210530CF008A010C213C30C600F9
:102938007130C7008A010C218A150A16802F3C08BD
:10294800A0003D08A1004030A300BD308A017F20CF
:102958008A110A16031DC32C8A010C21A930D40040
:102968008A010C210530CF008A010C213330C600C2
:102978007A30C7008A010C218A150A16802F3C0874
:10298800A0003D08A1004130A3003D308A017F200E
:102998008A110A16031DE32C8A010C21AA30D400DF
:1029A8008A010C210530CF008A010C216B30C6004A
:1029B8008630C7008A010C218A150A16802F3C0828
:1029C800A0003D08A1004130A300CF308A017F203C
:1029D8008A110A16031D032D8A010C21AB30D4007D
:1029E8008A010C210530CF008A010C21E630C6008F
:1029F8009330C7008A010C218A150A16802F3C08DB
:102A0800A0003D08A1004230A30069308A017F2060
:102A18008A110A16031D232D8A010C21AC30D4001B
:102A28008A010C210530CF008A010C211D30C60017
:102A3800A130C7008A010C218A150A16802F3C088C
:102A4800A0003D08A1004330A30001308A017F2087
:102A58008A110A16031D432D8A010C21AD30D400BA
:102A68008A010C210530CF008A010C21DD30C60017
:102A7800AD30C7008A010C218A150A16802F3C0840
:102A8800A0003D08A1004330A30095308A017F20B3
:102A98008A110A16031D632D8A010C21AE30D40059
:102AA8008A010C210530CF008A010C213530C6007F
:102AB800BC30C7008A010C218A150A16802F3C08F1
:102AC800A0003D08A1004430A3001F308A017F20E8
:102AD8008A110A16031D832D8A010C21AF30D400F8
:102AE8008A010C210530CF008A010C219130C600E3
:102AF800C630C7008A010C218A150A16802F3C08A7
:102B0800A0003D08A1004430A300B2308A017F2014
:102B18008A110A16031DA32D8A010C21B030D40096
:102B28008A010C210530CF008A010C21E930C6004A
:102B3800D430C7008A010C218A150A16802F3C0858
:102B4800A0003D08A1004530A30052308A017F2033
:102B58008A110A16031DC32D8A010C21B130D40035
:102B68008A010C210530CF008A010C215230C600A1
:102B7800E330C7008A010C218A150A16802F3C0809
:102B8800A0003D08A1004530A300F7308A017F204E
:102B98008A110A16031DE32D8A010C21B230D400D4
:102BA8008A010C210530CF008A010C219830C6001B
:102BB800F230C7008A010C218A150A16802F3C08BA
:102BC800A0003D08A1004630A300A5308A017F205F
:102BD8008A110A16031D032E8A010C21B330D40072
:102BE8008A010C210630CF008A010C212830C6004A
:102BF8000230C7008A010C218A150A16802F3C086A
:102C0800A0003D08A1004730A3004C308A017F2076
:102C18008A110A16031D232E8A010C21B430D40010
:102C28008A010C210630CF008A010C217F30C600B2
:102C38001130C7008A010C218A150A16802F3C081A
:102C4800A0003D08A1004730A300E4308A017F209E
:102C58008A110A16031D432E8A010C21B530D400AF
:102C68008A010C210630CF008A010C211E30C600D3
:102C78001D30C7008A010C218A150A16802F3C08CE
:102C8800A0003D08A1004830A30089308A017F20B8
:102C98008A110A16031D632E8A010C21B630D4004E
:102CA8008A010C210630CF008A010C213130C60080
:102CB8002C30C7008A010C218A150A16802F3C087F
:102CC800A0003D08A1004930A30042308A017F20BE
:102CD8008A110A16031D832E8A010C21B730D400ED
:102CE8008A010C210630CF008A010C21DC30C60095
:102CF8003C30C7008A010C218A150A16802F3C082F
:102D0800A0003D08A1004930A300FC308A017F20C3
:102D18008A110A16031DA32E8A010C21B830D4008B
:102D28008A010C210630CF008A010C219830C60098
:102D38004D30C7008A010C218A150A16802F3C08DD
:102D4800A0003D08A1004A30A300BA308A017F20C4
:102D58008A110A16031DC32E8A010C21B930D4002A
:102D68008A010C210630CF008A010C21DD30C60013
:102D78005D30C7008A010C218A150A16802F3C088D
:102D8800A0003D08A1004B30A30072308A017F20CB
:102D98008A110A16031DE32E8A010C21BA30D400C9
:102DA8008A010C210630CF008A010C21DB30C600D5
:102DB8007030C7008A010C218A150A16802F3C083A
:102DC800A0003D08A1004C30A3001F308A017F20DD
:102DD8008A110A16031D032F8A010C21BB30D40067
:102DE8008A010C210630CF008A010C211230C6005E
:102DF8007E30C7008A010C218A150A16802F3C08EC
:102E0800A0003D08A1004C30A300DF308A017F20DC
:102E18008A110A16031D232F8A010C21BC30D40005
:102E28008A010C210630CF008A010C21BB30C60074
:102E38009030C7008A010C218A150A16802F3C0899
:102E4800A0003D08A1004D30A300B2308A017F20C8
:102E58008A110A16031D432F8A010C21BD30D400A4
:102E68008A010C210630CF008A010C216430C6008B
:102E7800A330C7008A010C218A150A16802F3C0846
:102E8800A0003D08A1004E30A30084308A017F20B5
:102E98008A110A16031D632F8A010C21BE30D40043
:102EA8008A010C210630CF008A010C21FC30C600B3
:102EB800B530C7008A010C218A150A16802F3C08F4
:102EC800A0003D08A1004F30A30061308A017F2097
:102ED8008A110A16031D832F8A010C21BF30D400E2
:102EE8008A010C210630CF008A010C21D730C60098
:102EF800C930C7008A010C218A150A16802F3C08A0
:102F0800A0003D08A1005030A3003C308A017F207A
:102F18008A110A16031DA32F8A010C21C030D40080
:102F28008A010C210630CF008A010C21A030C6008E
:102F3800DE30C7008A010C218A150A16802F3C084A
:102F4800A0003D08A1005130A30004308A017F2071
:102F58008A110A16031DC32F8A010C21C130D4001F
:102F68008A010C210630CF008A010C211A30C600D4
:102F7800ED30C7008A010C218A150A16802F3C08FB
:102F8800A0003D08A1005130A300DC308A017F2059
:102F98008A110A16031DE32F8A010C21C230D400BE
:102FA8008A010C210730CF008A010C215130C6005C
:102FB8000130C7008A010C218A150A16802F3C08A7
:102FC800A0003D08A1005230A300CE308A017F2026
:102FD8008A150A16031D03288A010C21C330D40060
:102FE8008A010C210730CF008A010C217E30C600EF
:102FF8001830C7008A010C218A150A16802F3C0850
:10300800A0003D08A1005330A300C2308A017F20F0
:103018008A150A16031D23288A010C21C430D400FE
:103028008A010C210730CF008A010C210230C6002A
:103038002E30C7008A010C218A150A16802F3C08F9
:10304800A0003D08A1005430A300AF308A017F20C2
:103058008A150A16031D43288A010C21C530D4009D
:103068008A010C210730CF008A010C212F30C600BD
:103078004530C7008A010C218A150A16802F3C08A2
:10308800A0003D08A1005530A3008B308A017F20A5
:103098008A150A16031D63288A010C21C630D4003C
:1030A8008A010C210730CF008A010C21EB30C600C1
:1030B8005530C7008A010C218A150A16802F3C0852
:1030C800A0003D08A1005630A30073308A017F207C
:1030D8008A150A16031D83288A010C21C730D400DB
:1030E8008A010C210730CF008A010C211730C60055
:1030F8006E30C7008A010C218A150A16802F3C08F9
:10310800A0003D08A1005730A30081308A017F202C
:103118008A150A16031DA3288A010C21C830D40079
:103128008A010C210730CF008A010C21A930C60082
:103138008630C7008A010C218A150A16802F3C08A0
:10314800A0003D08A1005830A30095308A017F20D7
:103158008A150A16031DC3288A010C21C930D40018
:103168008A010C210730CF008A010C213B30C600B0
:103178009F30C7008A010C218A150A16802F3C0847
:10318800A0003D08A1005930A300B3308A017F2078
:103198008A150A16031DE3288A010C21CA30D400B7
:1031A8008A010C210730CF008A010C214430C60067
:1031B800B830C7008A010C218A150A16802F3C08EE
:1031C800A0003D08A1005A30A300D4308A017F2016
:1031D8008A150A16031D03298A010C21CB30D40055
:1031E8008A010C210730CF008A010C211830C60053
:1031F800D330C7008A010C218A150A16802F3C0893
:10320800A0003D08A1005B30A300D9308A017F20CF
:103218008A150A16031D23298A010C21CC30D400F3
:103228008A010C210730CF008A010C211530C60015
:10323800E730C7008A010C218A150A16802F3C083E
:10324800A0003D08A1005C30A300F8308A017F206F
:103258008A150A16031D43298A010C21CD30D40092
:103268008A010C210830CF008A010C213030C600B9
:103278000630C7008A010C218A150A16802F3C08DF
:10328800A0003D08A1005E30A30041308A017F20E4
:103298008A150A16031D63298A010C21CE30D40031
:1032A8008A010C210830CF008A010C212630C60083
:1032B8002130C7008A010C218A150A16802F3C0884
:1032C800A0003D08A1005F30A30085308A017F205F
:1032D8008A150A16031D83298A010C21CF30D400D0
:1032E8008A010C210830CF008A010C213B30C6002E
:1032F8003F30C7008A010C218A150A16802F3C0826
:10330800A0003D08A1006030A300CE308A017F20D4
:103318008A150A16031DA3298A010C21D030D4006E
:103328008A010C210830CF008A010C213F30C600E9
:103338005D30C7008A010C218A150A16802F3C08C7
:10334800A0003D08A1006230A3001F308A017F2041
:103358008A150A16031DC3298A010C21D130D4000D
:103368008A010C210830CF008A010C21C830C60020
:103378007E30C7008A010C218A150A16802F3C0866
:10338800A0003D08A1006330A30050308A017F20CF
:103398008A150A16031DE3298A010C21D230D400AC
:1033A8008A010C210830CF008A010C216E30C6003A
:1033B8009430C7008A010C218A150A16802F3C0810
:1033C800A0003D08A1006430A30094308A017F204A
:1033D8008A150A16031D032A8A010C21D330D4004A
:1033E8008A010C210830CF008A010C21A230C600C6
:1033F800B530C7008A010C218A150A16802F3C08AF
:10340800A0003D08A1006630A3000B308A017F2090
:103418008A150A16031D232A8A010C21D430D400E8
:103428008A010C210830CF008A010C219330C60094
:10343800D530C7008A010C218A150A16802F3C084E
:10344800A0003D08A1006730A3008A308A017F20D0
:103458008A150A16031D432A8A010C21D530D40087
:103468008A010C210830CF008A010C216F30C60078
:10347800F930C7008A010C218A150A16802F3C08EA
:10348800A0003D08A1006930A30012308A017F2006
:103498008A150A16031D632A8A010C21D630D40026
:1034A8008A010C210930CF008A010C217330C60033
:1034B8001D30C7008A010C218A150A16802F3C0886
:1034C800A0003D08A1006A30A30097308A017F2040
:1034D8008A150A16031D832A8A010C21D730D400C5
:1034E8008A010C210930CF008A010C216E30C600F8
:1034F8004430C7008A010C218A150A16802F3C081F
:10350800A0003D08A1006C30A3000D308A017F2087
:103518008A150A16031DA32A8A010C21D830D40063
:103528008A010C210930CF008A010C212F30C600F6
:103538006130C7008A010C218A150A16802F3C08C1
:10354800A0003D08A1006D30A300A3308A017F20B0
:103558008A150A16031DC32A8A010C21D930D40002
:103568008A010C210930CF008A010C210830C600DD
:103578008830C7008A010C218A150A16802F3C085A
:10358800A0003D08A1006F30A30069308A017F20A8
:103598008A150A16031DE32A8A010C21DA30D400A1
:1035A8008A010C210930CF008A010C211530C60090
:1035B800AE30C7008A010C218A150A16802F3C08F4
:1035C800A0003D08A1007130A30043308A017F208C
:1035D8008A150A16031D032B8A010C21DB30D4003F
:1035E8008A010C210930CF008A010C211C30C60049
:1035F800DA30C7008A010C218A150A16802F3C0888
:10360800A0003D08A1007330A3001E308A017F206E
:103618008A150A16031D232B8A010C21DC30D400DD
:103628008A010C210A30CF008A010C219130C60092
:103638000530C7008A010C218A150A16802F3C081C
:10364800A0003D08A1007430A300EB308A017F2060
:103658008A150A16031D432B8A010C21DD30D4007C
:103668008A010C210A30CF008A010C218230C60061
:103678003630C7008A010C218A150A16802F3C08AB
:10368800A0003D08A1007630A300A8308A017F2061
:103698008A150A16031D632B8A010C21DE30D4001B
:1036A8008A010C210A30CF008A010C211D30C60086
:1036B8005730C7008A010C218A150A16802F3C084A
:1036C800A0003D08A1007830A30089308A017F203E
:1036D8008A150A16031D832B8A010C21DF30D400BA
:1036E8008A010C210A30CF008A010C213230C60031
:1036F8008630C7008A010C218A150A16802F3C08DB
:10370800A0003D08A1007A30A300AD308A017F20D7
:103718008A150A16031DA32B8A010C21E030D40058
:103728008A010C210A30CF008A010C218730C6009B
:10373800B930C7008A010C218A150A16802F3C0867
:10374800A0003D08A1007C30A300E4308A017F205E
:103758008A150A16031DC32B8A010C21E130D400F7
:103768008A010C210A30CF008A010C21A830C6003A
:10377800ED30C7008A010C218A150A16802F3C08F3
:10378800A0003D08A1007F30A30073308A017F208C
:103798008A150A16031DE32B8A010C21E230D40096
:1037A8008A010C210B30CF008A010C21D130C600D0
:1037B8002030C7008A010C218A150A16802F3C0880
:1037C800A0003D08A1008130A30071308A017F204C
:1037D8008A150A16031D032C8A010C21E330D40034
:1037E8008A010C210B30CF008A010C21A730C600BA
:1037F8004A30C7008A010C218A150A16802F3C0816
:10380800A0003D08A1008330A3002C308A017F204E
:103818008A150A16031D232C8A010C21E430D400D2
:103828008A010C210B30CF008A010C212A30C600F6
:103838008330C7008A010C218A150A16802F3C089C
:10384800A0003D08A1008530A300AD308A017F208B
:103858008A150A16031D432C8A010C21E530D40071
:103868008A010C210B30CF008A010C21DB30C60005
:10387800C030C7008A010C218A150A16802F3C081F
:10388800A0003D08A1008830A3004B308A017F20AA
:103898008A150A16031D632C8A010C21E630D40010
:1038A8008A010C210B30CF008A010C210330C6009D
:1038B800FF30C7008A010C218A150A16802F3C08A0
:1038C800A0003D08A1008B30A3000C308A017F20A6
:1038D8008A150A16031D832C8A010C21E730D400AF
:1038E8008A010C210C30CF008A010C217130C600EE
:1038F8004130C7008A010C218A150A16802F3C081E
:10390800A0003D08A1008D30A300D1308A017F209E
:103918008A150A16031DA32C8A010C21E830D4004D
:103928008A010C210C30CF008A010C21FA30C60024
:103938008430C7008A010C218A150A16802F3C089A
:10394800A0003D08A1009030A30061308A017F20CB
:103958008A150A16031DC32C8A010C21E930D400EC
:103968008A010C210C30CF008A010C21D730C60007
:10397800B830C7008A010C218A150A16802F3C0826
:10398800A0003D08A1009330A30048308A017F20A1
:103998008A150A16031DE32C8A010C21EA30D4008B
:1039A8008A010C210D30CF008A010C215030C6004D
:1039B8000230C7008A010C218A150A16802F3C089C
:1039C800A0003D08A1009630A30080308A017F2026
:1039D8008A150A16031D032D8A010C21EB30D40029
:1039E8008A010C210D30CF008A010C212430C60039
:1039F8005030C7008A010C218A150A16802F3C080E
:103A0800A0003D08A1009930A300D5308A017F208D
:103A18008A150A16031D232D8A010C21EC30D400C7
:103A28008A010C210D30CF008A010C219430C60088
:103A38009B30C7008A010C218A150A16802F3C0882
:103A4800A0003D08A1009D30A3005F308A017F20BF
:103A58008A150A16031D432D8A010C21ED30D40066
:103A68008A010C210D30CF008A010C21DD30C600FF
:103A7800EB30C7008A010C218A150A16802F3C08F2
:103A8800A0003D08A100A030A300AF308A017F202C
:103A98008A150A16031D632D8A010C21EE30D40005
:103AA8008A010C210E30CF008A010C216C30C6002F
:103AB8004130C7008A010C218A150A16802F3C085C
:103AC800A0003D08A100A330A300E9308A017F20AF
:103AD8008A150A16031D832D8A010C21EF30D400A4
:103AE8008A010C210E30CF008A010C21C230C60099
:103AF8008430C7008A010C218A150A16802F3C08D9
:103B0800A0003D08A100A730A300A8308A017F20AB
:103B18008A150A16031DA32D8A010C21F030D40042
:103B28008A010C210E30CF008A010C211E30C600FC
:103B3800E430C7008A010C218A150A16802F3C0838
:103B4800A0003D08A100AB30A300C2308A017F204D
:103B58008A150A16031DC32D8A010C21F130D400E1
:103B68008A010C210F30CF008A010C211930C600C0
:103B78004430C7008A010C218A150A16802F3C0898
:103B8800A0003D08A100B030A3000B308A017F20BF
:103B98008A150A16031DE32D8A010C21F230D40080
:103BA8008A010C210F30CF008A010C211330C60086
:103BB800B030C7008A010C218A150A16802F3C08EC
:103BC800A0003D08A100B430A30091308A017F20F5
:103BD8008A150A16031D032E8A010C21F330D4001E
:103BE8008A010C211030CF008A010C210230C60056
:103BF8001D30C7008A010C218A150A16802F3C083F
:103C0800A0003D08A100B930A3000D308A017F2033
:103C18008A150A16031D232E8A010C21F430D400BC
:103C28008A010C211030CF008A010C219630C60081
:103C38008830C7008A010C218A150A16802F3C0893
:103C4800A0003D08A100BD30A30056308A017F20A6
:103C58008A150A16031D432E8A010C21F530D4005B
:103C68008A010C211030CF008A010C217E30C60059
:103C7800E430C7008A010C218A150A16802F3C08F7
:103C8800A0003D08A100C130A300E4308A017F20D4
:103C98008A150A16031D632E8A010C21F630D400FA
:103CA8008A010C211130CF008A010C21B530C600E1
:103CB8005E30C7008A010C218A150A16802F3C083D
:103CC800A0003D08A100C730A30022308A017F2050
:103CD8008A150A16031D832E8A010C21F730D40099
:103CE8008A010C211130CF008A010C215630C60000
:103CF800DF30C7008A010C218A150A16802F3C087C
:103D0800A0003D08A100CC30A300F1308A017F203B
:103D18008A150A16031DA32E8A010C21F830D40037
:103D28008A010C211230CF008A010C218E30C60086
:103D38006830C7008A010C218A150A16802F3C08B2
:103D4800A0003D08A100D330A30014308A017F20D1
:103D58008A150A16031DC32E8A010C21F930D400D6
:103D68008A010C211230CF008A010C215030C60084
:103D7800FB30C7008A010C218A150A16802F3C08DF
:103D8800A0003D08A100D930A3000A308A017F2095
:103D98008A150A16031DE32E8A010C21FA30D40075
:103DA8008A010C211330CF008A010C216330C60030
:103DB8009930C7008A010C218A150A16802F3C0801
:103DC800A0003D08A100DE30A300BA308A017F20A0
:103DD8008A150A16031D032F8A010C21FB30D40013
:103DE8008A010C211430CF008A010C21E430C6006E
:103DF8000D30C7008A010C218A150A16802F3C084D
:103E0800A0003D08A100E530A3003B308A017F20D7
:103E18008A150A16031D232F8A010C21FC30D400B1
:103E28008A010C211430CF008A010C21D230C6003F
:103E3800B830C7008A010C218A150A16802F3C0861
:103E4800A0003D08A100EC30A30095308A017F2036
:103E58008A150A16031D432F8A010C21FD30D40050
:103E68008A010C211530CF008A010C217730C60059
:103E78006E30C7008A010C218A150A16802F3C086B
:103E8800A0003D08A100F630A3006A308A017F2017
:103E98008A150A16031D632F8A010C21FE30D400EF
:103EA8008A010C211630CF008A010C213130C6005E
:103EB8002130C7008A010C218A150A16802F3C0878
:103EC800A0003D08A100FF30A300FF308A017F2039
:103ED8008A150A16031D802F8A010C21FF30D40091
:103EE8008A010C211730CF008A010C216A30C600E4
:103EF800A930C7008A010C218A010C215408A800A6
:103F0800FF30A200A30101308A0105208A010C219B
:103F18000800030183160C18FF308312BE0003014A
:103F28000C18FF30C0003E08840040088A01922027
:103F3800C000C1006400400841048A150A1603192C
:103F4800AF2FD50A640055084E028A150A16031DBC
:103F5800AE2F56140C1009008A010C2163008A1533
:043F68000A16B22F54
:02400E00C420CC
:00000001FF
