:02000000E228F4
:100008000800A9004030A0004230A1000F30A40031
:10001800A501AD20AA012108031919282A14552081
:10002800FC3E031C1928AA1455202003AB00280FF6
:100038002128FF30A400A5002C282808A500A40129
:10004800A600A7012B0A03192C28A200A301C72088
:10005800A90B45281708CF39A41B2038241B1038B2
:100068000C389700250895008316071183122B0872
:100078008316920083121208FC392A04043892006D
:10008800DD28A90B54281D08CF39A41B2038241BB0
:1000980010380C389D0025089B00831687103A28D5
:1000A800DD28A10CA00CA10CA00C0800A301A20043
:1000B800FF30A207031CA307031CDD280330A1009F
:1000C800DF3068205C28A101E83EA000A109FC30CF
:1000D800031C7128A00703186E28A0076400A10F4D
:1000E8006E2820187728A01C7B2800007B28080091
:1000F800A20002309428A101A301A2000330942891
:10010800A101A301A20001309428A200063094287E
:10011800A101A301A20004309428A301A200053084
:10012800A80023082102031D9B282208200204306E
:1001380003180130031902302805031DFF30DD289C
:100148000038031DFF300405031DFF30DD28A5011D
:10015800A4011030A600210DA40DA50D2208A402AB
:100168002308031C230FA5020318C1282208A4078B
:1001780023080318230FA5070310A00DA10DA60B34
:10018800AF282008DD281030A800A101A001A70C85
:10019800A60C031CD5282208A00723080318230F40
:1001A800A107A10CA00CA50CA40CA80BCB28240813
:1001B800DD2883130313831264000800C0309F00F6
:1001C800831677308F000130850008308600D030E4
:1001D8008700950181018312C0308B008316960138
:1001E80001308C008D0183128C018D018316031759
:1001F8000130880089018312031381309F00831620
:1002080080309F00831203172130870088018901FD
:10021800831685018312031390010F3097009D0107
:1002280083169C0101309D008312053094008B17C2
:100238008A110A1224298B1B08008A150A167D2B9D
:100248008A011F2187128A011F2106128A011F2194
:1002580086128A011F2151108A011F2185108A01E7
:100268001F2105118A011F21D1108A011F21CE01EA
:100278008A011F21FE30C400FF30C5008A011F21FA
:10028800BC01BD018A011F21B801B9018A011F21E2
:1002980051118A011F21D0018A011F211330CC007E
:1002A8008A011F21FA30C800FF30C9008A011F21C6
:1002B8008F018A011F218E018A011F2110148A01D2
:1002C8001F218A110A12442C8A011F2164008A11F5
:1002D8000A12071EFE298A011F2110108A011F21F8
:1002E8008F018A011F218E018A011F21D0018A01F5
:1002F8001F2151108A011F2110148A011F21500843
:10030800143C031DFF30FF3AC00003018518FF307D
:10031800C2004008840042088A01A420C200C30029
:100328006400420843048A110A120319AB290430F5
:1003380085068316051183120301051D013E031965
:100348000612031D061605198616051D86128A0152
:100358001F2164008A110A12071EB72932308A0148
:100368005A208A0181298A011F2164001430500211
:100378008A110A120318C8290230850683168510C7
:100388008312BA0A0319BB0A8A011F210301051D3A
:10039800FF30C000400884000030851801308A0111
:1003A800A420013903190612031D06168A011F210C
:1003B80000300519013084000030851801308A01A9
:1003C800A420013903198612031D86168A011F21EC
:1003D800CE018A011F2110108A011F21D0018A0134
:1003E8001F218E018A011F218F018A011F211014EC
:1003F8008A011F218A011F2103018619FF30C000CD
:1004080003018518FF30C2004008840042088A01B1
:10041800A420C200C3006400420843048A110A12DF
:100428000319002C8A011F2110108A011F210E08B0
:10043800C6008A011F210F08C7008A011F21500822
:10044800CD008A011F218F018A011F218E018A0197
:100458001F21D0018A011F2151108A011F21101468
:100468008A011F2164005008143C8A110A12031DD6
:10047800462A87160230D1068316D1108312BA0A8B
:100488000319BB0A8A011F2164008A110A12861DFA
:10049800522A32308A015A208A01342A8A011F21BD
:1004A80087128A011F216400143050028A110A122F
:1004B8000318FE2B8A011F2164008A110A12D11C1D
:1004C800F02B8A011F2164004E08013C8A110A1290
:1004D800031DB32A8A011F214608C8008A011F216B
:1004E8004708C9008A011F214D08CC008A011F2135
:1004F800640014304C028A110A12031C8F2A8A01E4
:100508001F211330CC008A011F21FA30C800FF30A8
:10051800C9008A011F218A011F21CC30A6000C3096
:10052800A7004C08A200A3018A01C720C40025081F
:10053800C5008A011F214808A0004908A1001430FD
:10054800A200A3018A01AB20C0002108C100400815
:10055800C40741080318013EC5078A011F218A0103
:100568001F21640002304E028A110A12031CEB2B71
:100578008A011F214808A0004908A1004708A300D4
:1005880046088A0189208A110A12031DDF2A4608B3
:100598004802C0004708031C013E4902C100400848
:1005A800A0004108A1000A30A200A3018A01AB20E3
:1005B800CA002108CB008A011F214608A00047086D
:1005C800A1004908A30048088A0189208A110A1253
:1005D800031D022B48084602C0004908031C013EBF
:1005E8004702C1004008A0004108A1000A30A2004B
:1005F800A3018A01AB20CA002108CB008A011F2170
:1006080064004C084D028A110A120318132B4D0876
:100618004C02C000C101031CC1034003D2008A017F
:100628001F2164004D084C028A110A120318242B5A
:100638004C084D02C000C101031CC1034003D20095
:100648008A011F219930A6001930A7005208A2007C
:10065800A3018A01C720C0002508C1004A08C007B5
:100668004B080318013EC1070310410CBF00400CA2
:10067800BE008A011F213E08A6003F08A700993046
:10068800A2001930A3008A01C720C0002508C100B4
:1006980040083E02C0004108031C013E3F02C10061
:1006A8004008A6004108A7000A30A200A3018A0159
:1006B800C720C0002508C1003E08A0003F08A100CF
:1006C8009930A2001930A3008A01AB20C20021088A
:1006D800C3000530A600A7014208A2004308A300F2
:1006E8008A01C720C2002508C30040084207C80085
:1006F80041080318013E4307C9008A011F2164000D
:100708004C084D028A110A1203189A2B3E08A000C1
:100718003F08A1009930A2001930A3008A01AB203C
:10072800C0002108C10040084D07CC008A011F21E4
:1007380064004D084C028A110A120318B22B3E08B5
:10074800A0003F08A1009930A2001930A3008A0137
:10075800AB20C0002108C1004008CC078A011F2136
:10076800640014304C028A110A12031CC72B8A0138
:100778001F211330CC008A011F21FA30C800FF3036
:10078800C9008A011F218A011F21CC30A6000C3024
:10079800A7004C08A200A3018A01C720C4002508AD
:1007A800C5008A011F214808A0004908A10014308B
:1007B800A200A3018A01AB20C0002108C1004008A3
:1007C800C40741080318013EC5078A011F218A0191
:1007D8001F218A110A12F92B8A011F210430D10620
:1007E8008316511183128A011F218A011F21CE0A03
:1007F8008A011F218A011F218A011F2164008A1191
:100808000A12511C442C8A011F21640048080E0258
:100818008A110A12031C072C8A011F216400490847
:100828000F028A110A12031C102C8A011F211010B2
:100838008A011F2151108A011F21D0018A011F211D
:100848008F018A011F218E018A011F2110148A013C
:100858001F2164004E08003C8A110A12031D382C1F
:10086800D1188716D11C87128A011F210130A100D7
:1008780090308A0168208A011F2187128A011F216E
:100888008A011F219E018A011F2183169E0183125E
:100898008A011F211F118A011F210A308A0167203E
:1008A8008A011F219F148A011F2164008A110A12DC
:1008B8000C1F572C8A011F210C138A011F21FF309E
:1008C800A600A7011E08A200A3018A01C720C00034
:1008D8002508C10083161E0883124007B800410886
:1008E8000318013EB9008A011F213808A000390801
:1008F800A1003B08A3003A088A017C208A110A1249
:10090800031D68298A011F213808BA003908BB006D
:100918008A011F210301D118FF30C0004E08003C96
:10092800031DFF30FF3AC2004008840042088A01D4
:10093800A420C200C3006400420843048A110A12BA
:100948000319562D8A011F218A011F213808A0008A
:100958003908A100A301D1308A0181208A110A1225
:10096800031DC92C8A011F214408A0004508A100C5
:100978000330A200A3018A01AB20BC002108BD00FE
:100988008A011F218A110A124F2D3808A000390840
:10099800A1000230A30084308A0181208A110A1242
:1009A800031DE22C8A011F210310450CBD00440CD5
:1009B800BC008A011F218A110A124F2D3808A00095
:1009C8003908A1000330A30099308A0181208A11D7
:1009D8000A12031D0E2D8A011F214408A000450894
:1009E800A1000330A200A3018A01AB20C0002108A6
:1009F800C1004008A6004108A7000230A200A301D8
:100A08008A01C720BC002508BD008A011F218A1160
:100A18000A124F2D3808A0003908A1000330A3009E
:100A2800E8308A0181208A110A12031D3A2D8A01B1
:100A38001F214408A0004508A1000430A200A3011A
:100A48008A01AB20C0002108C1004008A600410867
:100A5800A7000330A200A3018A01C720BC00250813
:100A6800BD008A011F218A110A124F2D3808A000E3
:100A78003908A1000330A300E8308A018E208A11CA
:100A88000A12031D4F2D8A011F214408BC00450886
:100A9800BD008A011F218A011F218A110A127A25A5
:100AA8008A011F218A011F2164008A110A12D118A4
:100AB800672D3808A0003908A1000430A200A3015E
:100AC8008A01AB20CF008A011F2164008A110A1213
:100AD800851C762D4F08A800FF30A200A301013025
:100AE8008A0105208A011F218A0168298A011F219C
:100AF8008A011F213C08A0003D08A1001E30A30068
:100B080061308A0181208A110A12031D932D8A01FE
:100B18001F21CF018A011F218A150A167A2B3C084A
:100B2800A0003D08A1001E30A30071308A01812079
:100B38008A110A12031DA92D8A011F210130CF0035
:100B48008A011F218A150A167A2B3C08A0003D0845
:100B5800A1001E30A30084308A0181208A110A1264
:100B6800031DBF2D8A011F210230CF008A011F21DA
:100B78008A150A167A2B3C08A0003D08A1001E30F1
:100B8800A30099308A0181208A110A12031DD52DEC
:100B98008A011F210330CF008A011F218A150A16F6
:100BA8007A2B3C08A0003D08A1001E30A300AE30FF
:100BB8008A0181208A110A12031DEB2D8A011F2147
:100BC8000430CF008A011F218A150A167A2B3C08A7
:100BD800A0003D08A1001E30A300C3308A01812077
:100BE8008A110A12031D012E8A011F210530CF0028
:100BF8008A011F218A150A167A2B3C08A0003D0895
:100C0800A1001E30A300D6308A0181208A110A1261
:100C1800031D172E8A011F210630CF008A011F21CC
:100C28008A150A167A2B3C08A0003D08A1001E3040
:100C3800A300EA308A0181208A110A12031D2D2E91
:100C48008A011F210730CF008A011F218A150A1641
:100C58007A2B3C08A0003D08A1001E30A300FF30FD
:100C68008A0181208A110A12031D432E8A011F213D
:100C78000830CF008A011F218A150A167A2B3C08F2
:100C8800A0003D08A1001F30A30014308A01812074
:100C98008A110A12031D592E8A011F210930CF001B
:100CA8008A011F218A150A167A2B3C08A0003D08E4
:100CB800A1001F30A3002B308A0181208A110A125B
:100CC800031D6F2E8A011F210A30CF008A011F21C0
:100CD8008A150A167A2B3C08A0003D08A1001F308F
:100CE800A30041308A0181208A110A12031D852E32
:100CF8008A011F210B30CF008A011F218A150A168D
:100D08007A2B3C08A0003D08A1001F30A3005530F5
:100D18008A0181208A110A12031D9B2E8A011F2134
:100D28000C30CF008A011F218A150A167A2B3C083D
:100D3800A0003D08A1001F30A3006B308A0181206C
:100D48008A110A12031DB12E8A011F210D30CF000E
:100D58008A011F218A150A167A2B3C08A0003D0833
:100D6800A1001F30A30082308A0181208A110A1253
:100D7800031DC72E8A011F210E30CF008A011F21B3
:100D88008A150A167A2B3C08A0003D08A1001F30DE
:100D9800A30098308A0181208A110A12031DDD2ED2
:100DA8008A011F210F30CF008A011F218A150A16D8
:100DB8007A2B3C08A0003D08A1001F30A300B030EA
:100DC8008A0181208A110A12031DF32E8A011F212C
:100DD8001030CF008A011F218A150A167A2B3C0889
:100DE800A0003D08A1001F30A300C8308A0181205F
:100DF8008A110A12031D092F8A011F211130CF0001
:100E08008A011F218A150A167A2B3C08A0003D0882
:100E1800A1001F30A300DB308A0181208A110A1249
:100E2800031D1F2F8A011F211230CF008A011F21A5
:100E38008A150A167A2B3C08A0003D08A1001F302D
:100E4800A300F1308A0181208A110A12031D352F6F
:100E58008A011F211330CF008A011F218A150A1623
:100E68007A2B3C08A0003D08A1002030A3000A30DE
:100E78008A0181208A110A12031D4B2F8A011F2122
:100E88001430CF008A011F218A150A167A2B3C08D4
:100E9800A0003D08A1002030A30022308A01812053
:100EA8008A110A12031D612F8A011F211530CF00F4
:100EB8008A011F218A150A167A2B3C08A0003D08D2
:100EC800A1002030A3003A308A0181208A110A1239
:100ED800031D772F8A011F211630CF008A011F2199
:100EE8008A150A167A2B3C08A0003D08A10020307C
:100EF800A30053308A0181208A110A12031D8D2F05
:100F08008A011F211730CF008A011F218A150A166E
:100F18007A2B3C08A0003D08A1002030A3006830CF
:100F28008A0181208A110A12031DA32F8A011F2119
:100F38001830CF008A011F218A150A167A2B3C081F
:100F4800A0003D08A1002030A3007D308A01812047
:100F58008A110A12031DB92F8A011F211930CF00E7
:100F68008A011F218A150A167A2B3C08A0003D0821
:100F7800A1002030A30096308A0181208A110A122C
:100F8800031DCF2F8A011F211A30CF008A011F218C
:100F98008A150A167A2B3C08A0003D08A1002030CB
:100FA800A300B1308A0181208A110A12031DE52F9E
:100FB8008A011F211B30CF008A011F218A150A16BA
:100FC8007A2B3C08A0003D08A1002030A300CA30BD
:100FD8008A0181208A110A12031DFB2F8A011F2111
:100FE8001C30CF008A011F218A150A167A2B3C086B
:100FF800A0003D08A1002030A300E3308A01812031
:101008008A150A12031D11288A011F211D30CF00DD
:101018008A011F218A150A167A2B3C08A0003D0870
:10102800A1002030A300F9308A0181208A150A1214
:10103800031D27288A011F211E30CF008A011F2186
:101048008A150A167A2B3C08A0003D08A100213019
:10105800A30010308A0181208A150A12031D3D2839
:101068008A011F211F30CF008A011F218A150A1605
:101078007A2B3C08A0003D08A1002130A3002B30AA
:101088008A0181208A150A12031D53288A011F210B
:101098002030CF008A011F218A150A167A2B3C08B6
:1010A800A0003D08A1002130A30047308A0181201B
:1010B8008A150A12031D69288A011F212130CF00D1
:1010C8008A011F218A150A167A2B3C08A0003D08C0
:1010D800A1002130A30062308A0181208A150A12FA
:1010E800031D7F288A011F212230CF008A011F217A
:1010F8008A150A167A2B3C08A0003D08A100213069
:10110800A30079308A0181208A150A12031D9528C7
:101118008A011F212330CF008A011F218A150A1650
:101128007A2B3C08A0003D08A1002130A300903094
:101138008A0181208A150A12031DAB288A011F2102
:101148002430CF008A011F218A150A167A2B3C0801
:10115800A0003D08A1002130A300AC308A01812005
:101168008A150A12031DC1288A011F212530CF00C4
:101178008A011F218A150A167A2B3C08A0003D080F
:10118800A1002130A300C8308A0181208A150A12E3
:10119800031DD7288A011F212630CF008A011F216D
:1011A8008A150A167A2B3C08A0003D08A1002130B8
:1011B800A300E3308A0181208A150A12031DED2855
:1011C8008A011F212730CF008A011F218A150A169C
:1011D8007A2B3C08A0003D08A1002130A300FF3075
:1011E8008A0181208A150A12031D03298A011F21F9
:1011F8002830CF008A011F218A150A167A2B3C084D
:10120800A0003D08A1002230A3001A308A018120E5
:101218008A150A12031D19298A011F212930CF00B6
:101228008A011F218A150A167A2B3C08A0003D085E
:10123800A1002230A30035308A0181208A150A12C4
:10124800031D2F298A011F212A30CF008A011F215F
:101258008A150A167A2B3C08A0003D08A100223006
:10126800A30051308A0181208A150A12031D4529DD
:101278008A011F212B30CF008A011F218A150A16E7
:101288007A2B3C08A0003D08A1002230A3006E3054
:101298008A0181208A150A12031D5B298A011F21F0
:1012A8002C30CF008A011F218A150A167A2B3C0898
:1012B800A0003D08A1002230A3008A308A018120C5
:1012C8008A150A12031D71298A011F212D30CF00AA
:1012D8008A011F218A150A167A2B3C08A0003D08AE
:1012E800A1002230A300A6308A0181208A150A12A3
:1012F800031D87298A011F212E30CF008A011F2153
:101308008A150A167A2B3C08A0003D08A100223055
:10131800A300C1308A0181208A150A12031D9D2964
:101328008A011F212F30CF008A011F218A150A1632
:101338007A2B3C08A0003D08A1002230A300DE3033
:101348008A0181208A150A12031DB3298A011F21E7
:101358003030CF008A011F218A150A167A2B3C08E3
:10136800A0003D08A1002230A300FF308A0181209F
:101378008A150A12031DC9298A011F213130CF009D
:101388008A011F218A150A167A2B3C08A0003D08FD
:10139800A1002330A3001E308A0181208A150A1279
:1013A800031DDF298A011F213230CF008A011F2146
:1013B8008A150A167A2B3C08A0003D08A1002330A4
:1013C800A3003C308A0181208A150A12031DF529E1
:1013D8008A011F213330CF008A011F218A150A167E
:1013E8007A2B3C08A0003D08A1002330A3005C3004
:1013F8008A0181208A150A12031D0B2A8A011F21DE
:101408003430CF008A011F218A150A167A2B3C082E
:10141800A0003D08A1002330A30079308A01812073
:101428008A150A12031D212A8A011F213530CF008F
:101438008A011F218A150A167A2B3C08A0003D084C
:10144800A1002330A30094308A0181208A150A1252
:10145800031D372A8A011F213630CF008A011F2138
:101468008A150A167A2B3C08A0003D08A1002330F3
:10147800A300B5308A0181208A150A12031D4D2A5E
:101488008A011F213730CF008A011F218A150A16C9
:101498007A2B3C08A0003D08A1002330A300D630D9
:1014A8008A0181208A150A12031D632A8A011F21D5
:1014B8003830CF008A011F218A150A167A2B3C087A
:1014C800A0003D08A1002330A300F7308A01812045
:1014D8008A150A12031D792A8A011F213930CF0083
:1014E8008A011F218A150A167A2B3C08A0003D089C
:1014F800A1002430A30018308A0181208A150A121D
:10150800031D8F2A8A011F213A30CF008A011F212B
:101518008A150A167A2B3C08A0003D08A100243041
:10152800A30037308A0181208A150A12031DA52AD3
:101538008A011F213B30CF008A011F218A150A1614
:101548007A2B3C08A0003D08A1002430A3005530A8
:101558008A0181208A150A12031DBB2A8A011F21CC
:101568003C30CF008A011F218A150A167A2B3C08C5
:10157800A0003D08A1002430A30078308A01812012
:101588008A150A12031DD12A8A011F213D30CF0076
:101598008A011F218A150A167A2B3C08A0003D08EB
:1015A800A1002430A3009C308A0181208A150A12E8
:1015B800031DE72A8A011F213E30CF008A011F211F
:1015C8008A150A167A2B3C08A0003D08A100243091
:1015D800A300BF308A0181208A150A12031DFD2A43
:1015E8008A011F213F30CF008A011F218A150A1660
:1015F8007A2B3C08A0003D08A1002430A300E2306B
:101608008A0181208A150A12031D132B8A011F21C2
:101618004030CF008A011F218A150A167A2B3C0810
:10162800A0003D08A1002530A30001308A018120D7
:101638008A150A12031D292B8A011F214130CF0068
:101648008A011F218A150A167A2B3C08A0003D083A
:10165800A1002530A30020308A0181208A150A12B2
:10166800031D3F2B8A011F214230CF008A011F2111
:101678008A150A167A2B3C08A0003D08A1002530DF
:10168800A30044308A0181208A150A12031D552BB4
:101698008A011F214330CF008A011F218A150A16AB
:1016A8007A2B3C08A0003D08A1002530A300693032
:1016B8008A0181208A150A12031D6B2B8A011F21BA
:1016C8004430CF008A011F218A150A167A2B3C085C
:1016D800A0003D08A1002530A3008E308A0181209A
:1016E8008A150A12031D812B8A011F214530CF005C
:1016F8008A011F218A150A167A2B3C08A0003D088A
:10170800A1002530A300B0308A0181208A150A1271
:10171800031D972B8A011F214630CF008A011F2104
:101728008A150A167A2B3C08A0003D08A10025302E
:10173800A300D0308A0181208A150A12031DAD2B1F
:101748008A011F214730CF008A011F218A150A16F6
:101758007A2B3C08A0003D08A1002530A300F830F2
:101768008A0181208A150A12031DC32B8A011F21B1
:101778004830CF008A011F218A150A167A2B3C08A7
:10178800A0003D08A1002630A30021308A01812055
:101798008A150A12031DD92B8A011F214930CF004F
:1017A8008A011F218A150A167A2B3C08A0003D08D9
:1017B800A1002630A30047308A0181208A150A1229
:1017C800031DEF2B8A011F214A30CF008A011F21F8
:1017D8008A150A167A2B3C08A0003D08A10026307D
:1017E800A3006E308A0181208A150A12031D052C78
:1017F8008A011F214B30CF008A011F218A150A1642
:101808007A2B3C08A0003D08A1002630A3009030A8
:101818008A0181208A150A12031D1B2C8A011F21A7
:101828004C30CF008A011F218A150A167A2B3C08F2
:10183800A0003D08A1002630A300B4308A01812011
:101848008A150A12031D312C8A011F214D30CF0041
:101858008A011F218A150A167A2B3C08A0003D0828
:10186800A1002630A300DC308A0181208A150A12E3
:10187800031D472C8A011F214E30CF008A011F21EA
:101888008A150A167A2B3C08A0003D08A1002730CB
:10189800A30004308A0181208A150A12031D5D2CD9
:1018A8008A011F214F30CF008A011F218A150A168D
:1018B8007A2B3C08A0003D08A1002730A3002F3058
:1018C8008A0181208A150A12031D732C8A011F219F
:1018D8005030CF008A011F218A150A167A2B3C083E
:1018E800A0003D08A1002730A30058308A018120BC
:1018F8008A150A12031D892C8A011F215130CF0035
:101908008A011F218A150A167A2B3C08A0003D0877
:10191800A1002730A3007B308A0181208A150A1292
:10192800031D9F2C8A011F215230CF008A011F21DD
:101938008A150A167A2B3C08A0003D08A10027301A
:10194800A300A0308A0181208A150A12031DB52C34
:101958008A011F215330CF008A011F218A150A16D8
:101968007A2B3C08A0003D08A1002730A300CC300A
:101978008A0181208A150A12031DCB2C8A011F2196
:101988005430CF008A011F218A150A167A2B3C0889
:10199800A0003D08A1002730A300F8308A0181206B
:1019A8008A150A12031DE12C8A011F215530CF0028
:1019B8008A011F218A150A167A2B3C08A0003D08C7
:1019C800A1002830A30024308A0181208A150A1238
:1019D800031DF72C8A011F215630CF008A011F21D1
:1019E8008A150A167A2B3C08A0003D08A100283069
:1019F800A30050308A0181208A150A12031D0D2D7B
:101A08008A011F215730CF008A011F218A150A1623
:101A18007A2B3C08A0003D08A1002830A3007830AC
:101A28008A0181208A150A12031D232D8A011F218C
:101A38005830CF008A011F218A150A167A2B3C08D4
:101A4800A0003D08A1002830A300A1308A01812010
:101A58008A150A12031D392D8A011F215930CF001A
:101A68008A011F218A150A167A2B3C08A0003D0816
:101A7800A1002830A300CF308A0181208A150A12DC
:101A8800031D4F2D8A011F215A30CF008A011F21C3
:101A98008A150A167A2B3C08A0003D08A1002830B8
:101AA800A300FF308A0181208A150A12031D652DC3
:101AB8008A011F215B30CF008A011F218A150A166F
:101AC8007A2B3C08A0003D08A1002930A3002F3044
:101AD8008A0181208A150A12031D7B2D8A011F2184
:101AE8005C30CF008A011F218A150A167A2B3C0820
:101AF800A0003D08A1002930A3005E308A018120A2
:101B08008A150A12031D912D8A011F215D30CF000D
:101B18008A011F218A150A167A2B3C08A0003D0865
:101B2800A1002930A30087308A0181208A150A1272
:101B3800031DA72D8A011F215E30CF008A011F21B6
:101B48008A150A167A2B3C08A0003D08A100293006
:101B5800A300B2308A0181208A150A12031DBD2D07
:101B68008A011F215F30CF008A011F218A150A16BA
:101B78007A2B3C08A0003D08A1002930A300E330DF
:101B88008A0181208A150A12031DD32D8A011F217B
:101B98006030CF008A011F218A150A167A2B3C086B
:101BA800A0003D08A1002A30A30014308A0181203A
:101BB8008A150A12031DE92D8A011F216130CF0001
:101BC8008A011F218A150A167A2B3C08A0003D08B5
:101BD800A1002A30A30047308A0181208A150A1201
:101BE800031DFF2D8A011F216230CF008A011F21AA
:101BF8008A150A167A2B3C08A0003D08A1002A3055
:101C0800A30073308A0181208A150A12031D152E3C
:101C18008A011F216330CF008A011F218A150A1605
:101C28007A2B3C08A0003D08A1002A30A300A1306F
:101C38008A0181208A150A12031D2B2E8A011F2171
:101C48006430CF008A011F218A150A167A2B3C08B6
:101C5800A0003D08A1002A30A300D6308A018120C7
:101C68008A150A12031D412E8A011F216530CF00F3
:101C78008A011F218A150A167A2B3C08A0003D0804
:101C8800A1002B30A3000C308A0181208A150A128A
:101C9800031D572E8A011F216630CF008A011F219C
:101CA8008A150A167A2B3C08A0003D08A1002B30A3
:101CB800A30041308A0181208A150A12031D6D2E66
:101CC8008A011F216730CF008A011F218A150A1651
:101CD8007A2B3C08A0003D08A1002B30A3007630E9
:101CE8008A0181208A150A12031D832E8A011F2169
:101CF8006830CF008A011F218A150A167A2B3C0802
:101D0800A0003D08A1002B30A300A5308A01812046
:101D18008A150A12031D992E8A011F216930CF00E6
:101D28008A011F218A150A167A2B3C08A0003D0853
:101D3800A1002B30A300D4308A0181208A150A1211
:101D4800031DAF2E8A011F216A30CF008A011F218F
:101D58008A150A167A2B3C08A0003D08A1002C30F1
:101D6800A3000A308A0181208A150A12031DC52E94
:101D78008A011F216B30CF008A011F218A150A169C
:101D88007A2B3C08A0003D08A1002C30A30043306A
:101D98008A0181208A150A12031DDB2E8A011F2160
:101DA8006C30CF008A011F218A150A167A2B3C084D
:101DB800A0003D08A1002C30A3007E308A018120BC
:101DC8008A150A12031DF12E8A011F216D30CF00DA
:101DD8008A011F218A150A167A2B3C08A0003D08A3
:101DE800A1002C30A300B8308A0181208A150A127C
:101DF800031D072F8A011F216E30CF008A011F2182
:101E08008A150A167A2B3C08A0003D08A1002C3040
:101E1800A300ED308A0181208A150A12031D1D2FA7
:101E28008A011F216F30CF008A011F218A150A16E7
:101E38007A2B3C08A0003D08A1002D30A3002230D9
:101E48008A0181208A150A12031D332F8A011F2156
:101E58007030CF008A011F218A150A167A2B3C0898
:101E6800A0003D08A1002D30A3005E308A0181202A
:101E78008A150A12031D492F8A011F217130CF00CC
:101E88008A011F218A150A167A2B3C08A0003D08F2
:101E9800A1002D30A3009C308A0181208A150A12E6
:101EA800031D5F2F8A011F217230CF008A011F2175
:101EB8008A150A167A2B3C08A0003D08A1002D308F
:101EC800A300D8308A0181208A150A12031D752FB4
:101ED8008A011F217330CF008A011F218A150A1633
:101EE8007A2B3C08A0003D08A1002E30A300153035
:101EF8008A0181208A150A12031D8B2F8A011F214E
:101F08007430CF008A011F218A150A167A2B3C08E3
:101F1800A0003D08A1002E30A3004C308A0181208A
:101F28008A150A12031DA12F8A011F217530CF00BF
:101F38008A011F218A150A167A2B3C08A0003D0841
:101F4800A1002E30A30087308A0181208A150A1249
:101F5800031DB72F8A011F217630CF008A011F2168
:101F68008A150A167A2B3C08A0003D08A1002E30DD
:101F7800A300CA308A0181208A150A12031DCD2FB9
:101F88008A011F217730CF008A011F218A150A167E
:101F98007A2B3C08A0003D08A1002F30A3000C308C
:101FA8008A0181208A150A12031DE32F8A011F2145
:101FB8007830CF008A011F218A150A167A2B3C082F
:101FC800A0003D08A1002F30A3004F308A018120D6
:101FD8008A150A12031DF92F8A011F217930CF00B3
:101FE8008A011F218A150A167A2B3C08A0003D0891
:101FF800A1002F30A30091308A0181208A110A168E
:10200800031D0F288A011F217A30CF008A011F2162
:102018008A150A167A2B3C08A0003D08A1002F302B
:10202800A300CF308A0181208A110A16031D2528B2
:102038008A011F217B30CF008A011F218A150A16C9
:102048007A2B3C08A0003D08A1003030A3000F30D7
:102058008A0181208A110A16031D3B288A011F2143
:102068007C30CF008A011F218A150A167A2B3C087A
:10207800A0003D08A1003030A30054308A0181201F
:102088008A110A16031D51288A011F217D30CF00AD
:102098008A011F218A150A167A2B3C08A0003D08E0
:1020A800A1003030A30099308A0181208A110A16D4
:1020B800031D67288A011F217E30CF008A011F2156
:1020C8008A150A167A2B3C08A0003D08A10030307A
:1020D800A300E3308A0181208A110A16031D7D2896
:1020E8008A011F217F30CF008A011F218A150A1615
:1020F8007A2B3C08A0003D08A1003130A3002B300A
:102108008A0181208A110A16031D93288A011F213A
:102118008030CF008A011F218A150A167A2B3C08C5
:10212800A0003D08A1003130A3006C308A01812055
:102138008A110A16031DA9288A011F218130CF00A0
:102148008A011F218A150A167A2B3C08A0003D082F
:10215800A1003130A300AF308A0181208A110A160C
:10216800031DBF288A011F218230CF008A011F2149
:102178008A150A167A2B3C08A0003D08A1003130C8
:10218800A300F9308A0181208A110A16031DD52877
:102198008A011F218330CF008A011F218A150A1660
:1021A8007A2B3C08A0003D08A1003230A30045303E
:1021B8008A0181208A110A16031DEB288A011F2132
:1021C8008430CF008A011F218A150A167A2B3C0811
:1021D800A0003D08A1003230A30091308A0181207F
:1021E8008A110A16031D01298A011F218530CF0093
:1021F8008A011F218A150A167A2B3C08A0003D087F
:10220800A1003230A300D2308A0181208A110A1637
:10221800031D17298A011F218630CF008A011F213B
:102228008A150A167A2B3C08A0003D08A100333015
:10223800A30019308A0181208A110A16031D2D294D
:102248008A011F218730CF008A011F218A150A16AB
:102258007A2B3C08A0003D08A1003330A3006C3065
:102268008A0181208A110A16031D43298A011F2128
:102278008830CF008A011F218A150A167A2B3C085C
:10228800A0003D08A1003330A300C4308A0181209A
:102298008A110A16031D59298A011F218930CF0086
:1022A8008A011F218A150A167A2B3C08A0003D08CE
:1022B800A1003430A3001C308A0181208A110A163B
:1022C800031D6F298A011F218A30CF008A011F212F
:1022D8008A150A167A2B3C08A0003D08A100343064
:1022E800A3006E308A0181208A110A16031D8529F0
:1022F8008A011F218B30CF008A011F218A150A16F7
:102308007A2B3C08A0003D08A1003430A300B63069
:102318008A0181208A110A16031D9B298A011F211F
:102328008C30CF008A011F218A150A167A2B3C08A7
:10233800A0003D08A1003530A30005308A018120A6
:102348008A110A16031DB1298A011F218D30CF0079
:102358008A011F218A150A167A2B3C08A0003D081D
:10236800A1003530A30062308A0181208A110A1643
:10237800031DC7298A011F218E30CF008A011F2122
:102388008A150A167A2B3C08A0003D08A1003530B2
:10239800A300BD308A0181208A110A16031DDD2998
:1023A8008A011F218F30CF008A011F218A150A1642
:1023B8007A2B3C08A0003D08A1003630A300183055
:1023C8008A0181208A110A16031DF3298A011F2117
:1023D8009030CF008A011F218A150A167A2B3C08F3
:1023E800A0003D08A1003630A30075308A01812085
:1023F8008A110A16031D092A8A011F219130CF006C
:102408008A011F218A150A167A2B3C08A0003D086C
:10241800A1003630A300CB308A0181208A110A1628
:10242800031D1F2A8A011F219230CF008A011F2114
:102438008A150A167A2B3C08A0003D08A1003730FF
:10244800A30021308A0181208A110A16031D352A2A
:102458008A011F219330CF008A011F218A150A168D
:102468007A2B3C08A0003D08A1003730A30080303B
:102478008A0181208A110A16031D4B2A8A011F210D
:102488009430CF008A011F218A150A167A2B3C083E
:10249800A0003D08A1003730A300E2308A01812066
:1024A8008A110A16031D612A8A011F219530CF005F
:1024B8008A011F218A150A167A2B3C08A0003D08BC
:1024C800A1003830A30048308A0181208A110A16F9
:1024D800031D772A8A011F219630CF008A011F2108
:1024E8008A150A167A2B3C08A0003D08A10038304E
:1024F800A300A9308A0181208A110A16031D8D2A9A
:102508008A011F219730CF008A011F218A150A16D8
:102518007A2B3C08A0003D08A1003930A300043004
:102528008A0181208A110A16031DA32A8A011F2104
:102538009830CF008A011F218A150A167A2B3C0889
:10254800A0003D08A1003930A30067308A0181202E
:102558008A110A16031DB92A8A011F219930CF0052
:102568008A011F218A150A167A2B3C08A0003D080B
:10257800A1003930A300D3308A0181208A110A16BC
:10258800031DCF2A8A011F219A30CF008A011F21FB
:102598008A150A167A2B3C08A0003D08A1003A309B
:1025A800A30040308A0181208A110A16031DE52AFA
:1025B8008A011F219B30CF008A011F218A150A1624
:1025C8007A2B3C08A0003D08A1003A30A300AE30A9
:1025D8008A0181208A110A16031DFB2A8A011F21FC
:1025E8009C30CF008A011F218A150A167A2B3C08D5
:1025F800A0003D08A1003B30A3001C308A018120C7
:102608008A110A16031D112B8A011F219D30CF0044
:102618008A011F218A150A167A2B3C08A0003D085A
:10262800A1003B30A30082308A0181208A110A165A
:10263800031D272B8A011F219E30CF008A011F21ED
:102648008A150A167A2B3C08A0003D08A1003B30E9
:10265800A300ED308A0181208A110A16031D3D2B43
:102668008A011F219F30CF008A011F218A150A166F
:102678007A2B3C08A0003D08A1003C30A300643040
:102688008A0181208A110A16031D532B8A011F21F2
:10269800A030CF008A011F218A150A167A2B3C0820
:1026A800A0003D08A1003C30A300DE308A01812053
:1026B8008A110A16031D692B8A011F21A130CF0038
:1026C8008A011F218A150A167A2B3C08A0003D08AA
:1026D800A1003D30A30056308A0181208A110A16D4
:1026E800031D7F2B8A011F21A230CF008A011F21E1
:1026F8008A150A167A2B3C08A0003D08A1003D3037
:10270800A300C4308A0181208A110A16031D952B63
:102718008A011F21A330CF008A011F218A150A16BA
:102728007A2B3C08A0003D08A1003E30A3003530BC
:102738008A0181208A110A16031DAB2B8A011F21E9
:10274800A430CF008A011F218A150A167A2B3C086B
:10275800A0003D08A1003E30A300B5308A018120C9
:102768008A110A16031DC12B8A011F21A530CF002B
:102778008A011F218A150A167A2B3C08A0003D08F9
:10278800A1003F30A30039308A0181208A110A163E
:10279800031DD72B8A011F21A630CF008A011F21D4
:1027A8008A150A167A2B3C08A0003D08A1003F3084
:1027B800A300EE308A0181208A110A16031DED2B31
:1027C8008A011F21A730CF008A011F218A150A1606
:1027D8007A2B3C08A0003D08A1004030A3007230CD
:1027E8008A0181208A110A16031D032C8A011F21E0
:1027F800A830CF008A011F218A150A167A2B3C08B7
:10280800A0003D08A1004030A300BD308A0181200E
:102818008A110A16031D192C8A011F21A930CF001D
:102828008A011F218A150A167A2B3C08A0003D0848
:10283800A1004130A3003D308A0181208A110A1687
:10284800031D2F2C8A011F21AA30CF008A011F21C6
:102858008A150A167A2B3C08A0003D08A1004130D1
:10286800A300CF308A0181208A110A16031D452C46
:102878008A011F21AB30CF008A011F218A150A1651
:102888007A2B3C08A0003D08A1004230A300693023
:102898008A0181208A110A16031D5B2C8A011F21D7
:1028A800AC30CF008A011F218A150A167A2B3C0802
:1028B800A0003D08A1004330A30001308A01812017
:1028C8008A110A16031D712C8A011F21AD30CF0011
:1028D8008A011F218A150A167A2B3C08A0003D0898
:1028E800A1004330A30095308A0181208A110A167D
:1028F800031D872C8A011F21AE30CF008A011F21BA
:102908008A150A167A2B3C08A0003D08A10044301D
:10291800A3001F308A0181208A110A16031D9D2CED
:102928008A011F21AF30CF008A011F218A150A169C
:102938007A2B3C08A0003D08A1004430A300B23027
:102948008A0181208A110A16031DB32C8A011F21CE
:10295800B030CF008A011F218A150A167A2B3C084D
:10296800A0003D08A1004530A30052308A01812013
:102978008A110A16031DC92C8A011F21B130CF0004
:102988008A011F218A150A167A2B3C08A0003D08E7
:10299800A1004530A300F7308A0181208A110A1668
:1029A800031DDF2C8A011F21B230CF008A011F21AD
:1029B8008A150A167A2B3C08A0003D08A10046306B
:1029C800A300A5308A0181208A110A16031DF52C5F
:1029D8008A011F21B330CF008A011F218A150A16E8
:1029E8007A2B3C08A0003D08A1004730A3004C30DA
:1029F8008A0181208A110A16031D0B2D8A011F21C5
:102A0800B430CF008A011F218A150A167A2B3C0898
:102A1800A0003D08A1004730A300E4308A018120CE
:102A28008A110A16031D212D8A011F21B530CF00F6
:102A38008A011F218A150A167A2B3C08A0003D0836
:102A4800A1004830A30089308A0181208A110A1622
:102A5800031D372D8A011F21B630CF008A011F219F
:102A68008A150A167A2B3C08A0003D08A1004930B7
:102A7800A30042308A0181208A110A16031D4D2DB8
:102A88008A011F21B730CF008A011F218A150A1633
:102A98007A2B3C08A0003D08A1004930A300FC3077
:102AA8008A0181208A110A16031D632D8A011F21BC
:102AB800B830CF008A011F218A150A167A2B3C08E4
:102AC800A0003D08A1004A30A300BA308A01812045
:102AD8008A110A16031D792D8A011F21B930CF00EA
:102AE8008A011F218A150A167A2B3C08A0003D0886
:102AF800A1004B30A30072308A0181208A110A1686
:102B0800031D8F2D8A011F21BA30CF008A011F2192
:102B18008A150A167A2B3C08A0003D08A1004C3003
:102B2800A3001F308A0181208A110A16031DA52DD2
:102B38008A011F21BB30CF008A011F218A150A167E
:102B48007A2B3C08A0003D08A1004C30A300DF30E0
:102B58008A0181208A110A16031DBB2D8A011F21B3
:102B6800BC30CF008A011F218A150A167A2B3C082F
:102B7800A0003D08A1004D30A300B2308A01812099
:102B88008A110A16031DD12D8A011F21BD30CF00DD
:102B98008A011F218A150A167A2B3C08A0003D08D5
:102BA800A1004E30A30084308A0181208A110A16C0
:102BB800031DE72D8A011F21BE30CF008A011F2186
:102BC8008A150A167A2B3C08A0003D08A1004F3050
:102BD800A30061308A0181208A110A16031DFD2D88
:102BE8008A011F21BF30CF008A011F218A150A16CA
:102BF8007A2B3C08A0003D08A1005030A3003C30CF
:102C08008A0181208A110A16031D132E8A011F21A9
:102C1800C030CF008A011F218A150A167A2B3C087A
:102C2800A0003D08A1005130A30004308A01812092
:102C38008A110A16031D292E8A011F21C130CF00CF
:102C48008A011F218A150A167A2B3C08A0003D0824
:102C5800A1005130A300DC308A0181208A110A16B4
:102C6800031D3F2E8A011F21C230CF008A011F2178
:102C78008A150A167A2B3C08A0003D08A10052309C
:102C8800A300CE308A0181208A110A16031D552E11
:102C98008A011F21C330CF008A011F218A150A1615
:102CA8007A2B3C08A0003D08A1005330A300C23095
:102CB8008A0181208A110A16031D6B2E8A011F21A1
:102CC800C430CF008A011F218A150A167A2B3C08C6
:102CD800A0003D08A1005430A300AF308A01812034
:102CE8008A110A16031D812E8A011F21C530CF00C3
:102CF8008A011F218A150A167A2B3C08A0003D0874
:102D0800A1005530A3008B308A0181208A110A1650
:102D1800031D972E8A011F21C630CF008A011F216B
:102D28008A150A167A2B3C08A0003D08A1005630E7
:102D3800A30073308A0181208A110A16031DAD2E63
:102D48008A011F21C730CF008A011F218A150A1660
:102D58007A2B3C08A0003D08A1005730A300813021
:102D68008A0181208A110A16031DC32E8A011F2198
:102D7800C830CF008A011F218A150A167A2B3C0811
:102D8800A0003D08A1005830A30095308A01812099
:102D98008A110A16031DD92E8A011F21C930CF00B6
:102DA8008A011F218A150A167A2B3C08A0003D08C3
:102DB800A1005930A300B3308A0181208A110A1674
:102DC800031DEF2E8A011F21CA30CF008A011F215F
:102DD8008A150A167A2B3C08A0003D08A1005A3033
:102DE800A300D4308A0181208A110A16031D052FF9
:102DF8008A011F21CB30CF008A011F218A150A16AC
:102E08007A2B3C08A0003D08A1005B30A300D93014
:102E18008A0181208A110A16031D1B2F8A011F218E
:102E2800CC30CF008A011F218A150A167A2B3C085C
:102E3800A0003D08A1005C30A300F8308A01812081
:102E48008A110A16031D312F8A011F21CD30CF00A8
:102E58008A011F218A150A167A2B3C08A0003D0812
:102E6800A1005E30A30041308A0181208A110A1630
:102E7800031D472F8A011F21CE30CF008A011F2151
:102E88008A150A167A2B3C08A0003D08A1005F307D
:102E9800A30085308A0181208A110A16031D5D2F3F
:102EA8008A011F21CF30CF008A011F218A150A16F7
:102EB8007A2B3C08A0003D08A1006030A300CE306A
:102EC8008A0181208A110A16031D732F8A011F2186
:102ED800D030CF008A011F218A150A167A2B3C08A8
:102EE800A0003D08A1006230A3001F308A018120A4
:102EF8008A110A16031D892F8A011F21D130CF009C
:102F08008A011F218A150A167A2B3C08A0003D0861
:102F1800A1006330A30050308A0181208A110A166B
:102F2800031D9F2F8A011F21D230CF008A011F2144
:102F38008A150A167A2B3C08A0003D08A1006430C7
:102F4800A30094308A0181208A110A16031DB52F27
:102F58008A011F21D330CF008A011F218A150A1642
:102F68007A2B3C08A0003D08A1006630A3000B3076
:102F78008A0181208A110A16031DCB2F8A011F217D
:102F8800D430CF008A011F218A150A167A2B3C08F3
:102F9800A0003D08A1006730A3008A308A01812083
:102FA8008A110A16031DE12F8A011F21D530CF008F
:102FB8008A011F218A150A167A2B3C08A0003D08B1
:102FC800A1006930A30012308A0181208A110A16F3
:102FD800031DF72F8A011F21D630CF008A011F2138
:102FE8008A150A167A2B3C08A0003D08A1006A3011
:102FF800A30097308A0181208A150A16031D0D281F
:103008008A011F21D730CF008A011F218A150A168D
:103018007A2B3C08A0003D08A1006C30A3000D30BD
:103028008A0181208A150A16031D23288A011F2177
:10303800D830CF008A011F218A150A167A2B3C083E
:10304800A0003D08A1006D30A300A3308A018120B3
:103058008A150A16031D39288A011F21D930CF0085
:103068008A011F218A150A167A2B3C08A0003D0800
:10307800A1006F30A30069308A0181208A150A16E1
:10308800031D4F288A011F21DA30CF008A011F2132
:103098008A150A167A2B3C08A0003D08A100713059
:1030A800A30043308A0181208A150A16031D65286A
:1030B8008A011F21DB30CF008A011F218A150A16D9
:1030C8007A2B3C08A0003D08A1007330A3001E30F5
:1030D8008A0181208A150A16031D7B288A011F216F
:1030E800DC30CF008A011F218A150A167A2B3C088A
:1030F800A0003D08A1007430A300EB308A018120B4
:103108008A150A16031D91288A011F21DD30CF0078
:103118008A011F218A150A167A2B3C08A0003D084F
:10312800A1007630A300A8308A0181208A150A16EA
:10313800031DA7288A011F21DE30CF008A011F2125
:103148008A150A167A2B3C08A0003D08A1007830A1
:10315800A30089308A0181208A150A16031DBD281B
:103168008A011F21DF30CF008A011F218A150A1624
:103178007A2B3C08A0003D08A1007A30A300AD30AE
:103188008A0181208A150A16031DD3288A011F2166
:10319800E030CF008A011F218A150A167A2B3C08D5
:1031A800A0003D08A1007C30A300E4308A01812002
:1031B8008A150A16031DE9288A011F21E130CF006C
:1031C8008A011F218A150A167A2B3C08A0003D089F
:1031D800A1007F30A30073308A0181208A150A1666
:1031E800031DFF288A011F21E230CF008A011F2119
:1031F8008A150A167A2B3C08A0003D08A1008130E8
:10320800A30071308A0181208A150A16031D152929
:103218008A011F21E330CF008A011F218A150A166F
:103228007A2B3C08A0003D08A1008330A3002C3075
:103238008A0181208A150A16031D2B298A011F215C
:10324800E430CF008A011F218A150A167A2B3C0820
:10325800A0003D08A1008530A300AD308A0181207F
:103268008A150A16031D41298A011F21E530CF005E
:103278008A011F218A150A167A2B3C08A0003D08EE
:10328800A1008830A3004B308A0181208A150A16D4
:10329800031D57298A011F21E630CF008A011F210B
:1032A8008A150A167A2B3C08A0003D08A1008B302D
:1032B800A3000C308A0181208A150A16031D6D2986
:1032C8008A011F21E730CF008A011F218A150A16BB
:1032D8007A2B3C08A0003D08A1008D30A300D13016
:1032E8008A0181208A150A16031D83298A011F2154
:1032F800E830CF008A011F218A150A167A2B3C086C
:10330800A0003D08A1009030A30061308A0181200F
:103318008A150A16031D99298A011F21E930CF0051
:103328008A011F218A150A167A2B3C08A0003D083D
:10333800A1009330A30048308A0181208A150A161B
:10334800031DAF298A011F21EA30CF008A011F21FE
:103358008A150A167A2B3C08A0003D08A100963071
:10336800A30080308A0181208A150A16031DC52909
:103378008A011F21EB30CF008A011F218A150A1606
:103388007A2B3C08A0003D08A1009930A300D53055
:103398008A0181208A150A16031DDB298A011F214B
:1033A800EC30CF008A011F218A150A167A2B3C08B7
:1033B800A0003D08A1009D30A3005F308A01812054
:1033C8008A150A16031DF1298A011F21ED30CF0045
:1033D8008A011F218A150A167A2B3C08A0003D088D
:1033E800A100A030A300AF308A0181208A150A16F7
:1033F800031D072A8A011F21EE30CF008A011F21F1
:103408008A150A167A2B3C08A0003D08A100A330B3
:10341800A300E9308A0181208A150A16031D1D2A96
:103428008A011F21EF30CF008A011F218A150A1651
:103438007A2B3C08A0003D08A100A730A300A830C3
:103448008A0181208A150A16031D332A8A011F2141
:10345800F030CF008A011F218A150A167A2B3C0802
:10346800A0003D08A100AB30A300C2308A01812032
:103478008A150A16031D492A8A011F21F130CF0037
:103488008A011F218A150A167A2B3C08A0003D08DC
:10349800A100B030A3000B308A0181208A150A16DA
:1034A800031D5F2A8A011F21F230CF008A011F21E4
:1034B8008A150A167A2B3C08A0003D08A100B430F2
:1034C800A30091308A0181208A150A16031D752AE6
:1034D8008A011F21F330CF008A011F218A150A169D
:1034E8007A2B3C08A0003D08A100B930A3000D309C
:1034F8008A0181208A150A16031D8B2A8A011F2139
:10350800F430CF008A011F218A150A167A2B3C084D
:10351800A0003D08A100BD30A30056308A018120DB
:103528008A150A16031DA12A8A011F21F530CF002A
:103538008A011F218A150A167A2B3C08A0003D082B
:10354800A100C130A300E4308A0181208A150A163F
:10355800031DB72A8A011F21F630CF008A011F21D7
:103568008A150A167A2B3C08A0003D08A100C7302E
:10357800A30022308A0181208A150A16031DCD2A4C
:103588008A011F21F730CF008A011F218A150A16E8
:103598007A2B3C08A0003D08A100CC30A300F130F4
:1035A8008A0181208A150A16031DE32A8A011F2130
:1035B800F830CF008A011F218A150A167A2B3C0899
:1035C800A0003D08A100D330A30014308A01812057
:1035D8008A150A16031DF92A8A011F21F930CF001E
:1035E8008A011F218A150A167A2B3C08A0003D087B
:1035F800A100D930A3000A308A0181208A150A1651
:10360800031D0F2B8A011F21FA30CF008A011F21C9
:103618008A150A167A2B3C08A0003D08A100DE3066
:10362800A300BA308A0181208A150A16031D252BAA
:103638008A011F21FB30CF008A011F218A150A1633
:103648007A2B3C08A0003D08A100E530A3003B30E0
:103658008A0181208A150A16031D3B2B8A011F2126
:10366800FC30CF008A011F218A150A167A2B3C08E4
:10367800A0003D08A100EC30A30095308A0181200C
:103688008A150A16031D512B8A011F21FD30CF0010
:103698008A011F218A150A167A2B3C08A0003D08CA
:1036A800A100F630A3006A308A0181208A150A1623
:1036B800031D672B8A011F21FE30CF008A011F21BD
:1036C8008A150A167A2B3C08A0003D08A100FF3095
:1036D800A300FF308A0181208A150A16031D7A2B60
:1036E8008A011F21FF30CF008A011F218A011F2173
:1036F8000800030183160C18FF308312C000030171
:103708000C18FF30C2004008840042088A01A42037
:10371800C200C3006400420843048A150A1603194C
:103728001A2CD00A4E08003C031DFF30FF3AC00097
:1037380050084C02031DFF30FF3AC20040088400C5
:1037480042088A01A420C200C3006400420843045E
:103758008A150A160319B12B51144E08A00001301E
:103768008A017F20C0005008A00023308A018420ED
:10377800C2004008840042088A01A420C200C30095
:103788006400420843048A150A160319D52BCE0192
:1037980051101010D0018F018E011014BA0A0319AC
:1037A800BB0A64008A150A16511D192CFE304C07F5
:1037B800C000FF300318013EC1004008A0004108C6
:1037C800A10050088A0191208A150A16031DF42BBE
:1037D8004F08A800FF30A200A30101308A0105208C
:1037E80003015118FF30C0004F08A000F5308A01CE
:1037F8008C20C2004008840042088A01A420C2002C
:10380800C3006400420843048A150A160319192CD8
:103818000A304F07C000C101C10D4008A800FF30A1
:10382800A200A30101308A0105200C1009008A01B9
:0A3838001F2163008A150A161D2CDB
:02400E00C420CC
:00000001FF
