:02000000D02806
:100008000800A9004030A0004230A1000F30A40031
:10001800A5019B20AA012108031919282A14552093
:10002800FC3E031C1928AA1455202003AB00280FF6
:100038002128FF30A400A5002C282808A500A40129
:10004800A600A7012B0A03192C28A200A301B5209A
:10005800A90B45281708CF39A41B2038241B1038B2
:100068000C389700250895008316071183122B0872
:100078008316920083121208FC392A04043892006D
:10008800CB28A90B54281D08CF39A41B2038241BC2
:1000980010380C389D0025089B00831687103A28D5
:1000A800CB28A10CA00CA10CA00C0800A301A20055
:1000B800FF30A207031CA307031CCB280330A100B1
:1000C800DF3068205C28A101E83EA000A109FC30CF
:1000D800031C7128A00703186E28A0076400A10F4D
:1000E8006E2820187728A01C7B2800007B28080091
:1000F800A20002308228A20003308228A800230828
:100108002102031D89282208200204300318013027
:10011800031902302805031DFF30CB280038031DC2
:10012800FF300405031DFF30CB28A501A4011030C2
:10013800A600210DA40DA50D2208A4022308031C66
:10014800230FA5020318AF282208A40723080318C1
:10015800230FA5070310A00DA10DA60B9D282008AD
:10016800CB281030A800A101A001A70CA60C031CE5
:10017800C3282208A00723080318230FA107A10CEE
:10018800A00CA50CA40CA80BB9282408CB28831311
:100198000313831264000800C0309F008316773071
:1001A8008F000F3085008601950187018101831238
:1001B800C0308B00831696018C018D0183128C014F
:1001C8008D018316031703308800890183120313F6
:1001D80001309F00831680309F008312031721305F
:1001E8008700880189018316850183120313900112
:1001F8000F3097009D0183169C0101309D008B17DD
:1002080083128A110A120D298B1B08008A150A16F7
:10021800752F8A010821D3018A0108218F018A01DB
:1002280008218E018A01082183160C1083128A0185
:10023800082110108A010821FF30D0008A01082106
:1002480083169E0183128A0108219E018A010821D2
:10025800B801B9018A010821BA01BB018A01082144
:10026800BC01BD018A010821C201C3018A0108211C
:1002780054108A01082185128A01082186018A0101
:100288000821D1018A010821D4108A010821D2014C
:100298008A01082164008A110A120519C1298A01F4
:1002A800082164005108143C8A110A12031D7D2993
:1002B8008A01082164008A110A12061C7B298A0116
:1002C8000821083086068316861183128A010821C0
:1002D8000301861D013E03198610031D86148A0139
:1002E800082186190615861D06118A0108218A012A
:1002F80008218A01082164308A015A208A010821CC
:10030800D10A8A01082164008A110A12051D53299D
:100318008A0108216400143051028A110A12031854
:100328009A29013086068316061083128A0108214D
:100338000301861DFF30BE003E0884000030061809
:1003480001308A019220013903198610031D861491
:100358008A0108210030861901308400003006180F
:1003680001308A019220013903190611031D06156F
:100378008A010821D1018A0108218A010821640023
:100388008A110A12061C4C298A01082164008A1164
:100398000A128519632A8A01082164005108143C4D
:1003A8008A110A12031DEC298A0108210230D40699
:1003B8008316D41083128A01082185168A01082120
:1003C8000130B8020030031C013EB9028A0108213D
:1003D8008A01082164308A015A208A010821D10A39
:1003E8008A01082164008A110A12851DCF298A0111
:1003F800082185128A0108216400153051028A11EA
:100408000A12031C2D2A8A01082164005008003CA6
:100418008A110A12031D262A8A0108218310D4187A
:100428008314831683180C14831C0C1083128A01FE
:100438000821D4181014D41C10108A0108218A111C
:100448000A122B2A8A010821D0018A0108218A016F
:1004580008218A01082164008A110A12D418422A44
:100468008A01082154108A010821D3018A01082130
:100478008E018A0108218F018A0108218A01082139
:1004880064008A110A12D41C5E2A8A0108216400B9
:10049800143051028A110A1203185C2A8A010821B1
:1004A8008A110A1227238A01082154108A01082177
:1004B8008A0108218A010821D1018A0108218A01BB
:1004C800082164008A110A12541C9D2A8A010821F5
:1004D80064004A080E028A110A12031C6A2A8A0159
:1004E800082164004B080F028A110A12031C732AA0
:1004F8008A01082110108A0108218F018A01082128
:100508008E018A010821D3018A01082154108A0129
:10051800082185168A0108210130A100F4308A01DA
:1005280068208A01082185128A01082110148A018D
:1005380008218A0108213808BA003908BB008A0155
:10054800082183169E0183128A0108219E018A01CF
:10055800082101309F008A0108219F148A0108217F
:1005680064008A110A120C1FB22A8A010821FF307E
:10057800A600A7011E08A200A3018A01B520BE009B
:100588002508BF0083161E0883123E07B8003F08DF
:100598000318013EB9008A0108213808A00039086B
:1005A800A1003B08A3003A088A017C208A110A129C
:1005B800031D4C298A01082164008A110A12D418E3
:1005C800FD2A8A0108213808A0003908A100043052
:1005D800A200A3018A019920D2008A0108215208A9
:1005E800A800FF30A200A30101308A0105208A017A
:1005F80008218A0108210301D418FF30BE005008E1
:10060800003C031DFF30FF3AC0003E08840040084C
:100618008A019220C000C1006400400841048A1188
:100628000A120319232B8A0108218A110A12982415
:100638008A0108218A110A1244258A0108218A019F
:1006480008218A014C298A010821D00A8A01082137
:1006580010108A01082183168C0183128A0108214F
:100668008A01082164005008013C8A110A12031DFE
:100678006F2B8A0108218F018A0108218E018A01C6
:100688000821D3018A010821CC018A010821CD0162
:100698008A010821CE018A010821CF018A01082197
:1006A800C401C5018A010821C601C7018A010821C0
:1006B800C801C9018A010821CA01CB018A010821A0
:1006C80083160C1483128A01082110148A01082148
:1006D8008A110A12952C64005008023C8A110A12E9
:1006E800031D982B8A0108210E08C4008A010821DD
:1006F8000F08C5008A0108218F018A0108218E018F
:100708008A0108215308CD008A010821D3018A01F2
:10071800082183160C1483128A01082110148A01F7
:1007280008218A110A12952C64005008033C8A118A
:100738000A12031DC12B8A0108210E08C6008A016E
:1007480008210F08C7008A0108218F018A010821A2
:100758008E018A0108215308CE008A010821D3019D
:100768008A01082183160C1483128A0108211014A7
:100778008A0108218A110A12952C64005008043C49
:100788008A110A12031D952C8A0108210E08C80037
:100798008A0108210F08C9008A0108215308CF00DF
:1007A8008A0108214D084E07BE00BF01BF0D3E0853
:1007B8004F07CC008A0108214C08A000A101033092
:1007C800A200A3018A019920CC008A0108214408CB
:1007D8004607BE00BF01BF0D48083E07C2003F08DC
:1007E8000318013EC3008A0108214208A0004308FB
:1007F800A1000330A200A3018A019920CA008A013E
:10080800082145084707BE00BF01BF0D49083E073C
:10081800C2003F080318013EC3008A0108214208AC
:10082800A0004308A1000330A200A3018A01992077
:10083800CB008A010821640014304C028A110A1284
:10084800031C322C8A0108211330CC008A010821AC
:10085800FA30CA00FF30CB008A0108218A0108213A
:10086800CC30A6000C30A7004C08A200A3018A01D6
:10087800B520C2002508C3008A0108214A08A00043
:100888004B08A1001430A200A3018A019920BE00E0
:100898002108BF003E08C2073F080318013EC307EE
:1008A8008A0108214208BC004308BD008A010821CA
:1008B8008A110A1244258A010821640096305202DE
:1008C8008A110A12031C742C8A0108214408CA00E0
:1008D8004508CB008A0108214D08CC008A0108216F
:1008E8008A010821D3018A010821D0018A0108213F
:1008F8008F018A0108218E018A01082154108A017A
:1009080008210130B8020030031C013EB9028A01F7
:10091800082183160C1483128A01082110148A01F5
:1009280008218A01082108008A0108218A01082172
:100938003808A0003908A100A301CD308A017F2022
:100948008A110A12031DB32C8A0108214208BC002F
:100958004308BD008A0108218A110A12412D38086E
:10096800A0003908A1000130A3009A308A017F2035
:100978008A110A12031DDF2C8A0108214208A000EF
:100988004308A1000430A200A3018A019920BE00F7
:100998002108BF003E08A6003F08A7000330A200B8
:1009A800A3018A01B520BC002508BD008A010821E1
:1009B8008A110A12412D3808A0003908A100023016
:1009C800A30067308A017F208A110A12031D0B2DAC
:1009D8008A0108214208A0004308A1000330A200B0
:1009E800A3018A019920BE002108BF003E08A60085
:1009F8003F08A7000230A200A3018A01B520BC006D
:100A08002508BD008A0108218A110A12412D3808DB
:100A1800A0003908A1000330A30034308A017F20E8
:100A28008A110A12031D242D8A0108210310430C80
:100A3800BD00420CBC008A0108218A110A12412D0E
:100A48003808A0003908A1000430A30000308A014A
:100A58007F208A110A12031D412D8A0108214208AC
:100A6800A0004308A1000330A200A3018A01992035
:100A7800BC002108BD008A0108218A01082108005C
:100A88008A0108218A0108213C08A0003D08A1002C
:100A98001E30A30061308A017F208A110A12031DCB
:100AA8005D2D8A010821D2018A0108218A150A16BA
:100AB800682F3C08A0003D08A1001E30A30071303B
:100AC8008A017F208A110A12031D732D8A010821C9
:100AD8000130D2008A0108218A150A16682F3C08BD
:100AE800A0003D08A1001E30A30084308A017F20A9
:100AF8008A110A12031D892D8A0108210230D200A9
:100B08008A0108218A150A16682F3C08A0003D08AA
:100B1800A1001E30A30099308A017F208A110A1291
:100B2800031D9F2D8A0108210330D2008A01082164
:100B38008A150A16682F3C08A0003D08A1001E303F
:100B4800A300AE308A017F208A110A12031DB52D39
:100B58008A0108210430D2008A0108218A150A1660
:100B6800682F3C08A0003D08A1001E30A300C33038
:100B78008A017F208A110A12031DCB2D8A010821C0
:100B88000530D2008A0108218A150A16682F3C0808
:100B9800A0003D08A1001E30A300D6308A017F20A6
:100BA8008A110A12031DE12D8A0108210630D2009C
:100BB8008A0108218A150A16682F3C08A0003D08FA
:100BC800A1001E30A300EA308A017F208A110A1290
:100BD800031DF72D8A0108210730D2008A01082158
:100BE8008A150A16682F3C08A0003D08A1001E308F
:100BF800A300FF308A017F208A110A12031D0D2EDF
:100C08008A0108210830D2008A0108218A150A16AB
:100C1800682F3C08A0003D08A1001F30A300143035
:100C28008A017F208A110A12031D232E8A010821B6
:100C38000930D2008A0108218A150A16682F3C0853
:100C4800A0003D08A1001F30A3002B308A017F209F
:100C58008A110A12031D392E8A0108210A30D2008E
:100C68008A0108218A150A16682F3C08A0003D0849
:100C7800A1001F30A30041308A017F208A110A1287
:100C8800031D4F2E8A0108210B30D2008A0108214A
:100C98008A150A16682F3C08A0003D08A1001F30DD
:100CA800A30055308A017F208A110A12031D652E80
:100CB8008A0108210C30D2008A0108218A150A16F7
:100CC800682F3C08A0003D08A1001F30A3006B302E
:100CD8008A017F208A110A12031D7B2E8A010821AE
:100CE8000D30D2008A0108218A150A16682F3C089F
:100CF800A0003D08A1001F30A30082308A017F2098
:100D08008A110A12031D912E8A0108210E30D20081
:100D18008A0108218A150A16682F3C08A0003D0898
:100D2800A1001F30A30098308A017F208A110A127F
:100D3800031DA72E8A0108210F30D2008A0108213D
:100D48008A150A16682F3C08A0003D08A1001F302C
:100D5800A300B0308A017F208A110A12031DBD2E1C
:100D68008A0108211030D2008A0108218A150A1642
:100D7800682F3C08A0003D08A1001F30A300C83020
:100D88008A017F208A110A12031DD32E8A010821A5
:100D98001130D2008A0108218A150A16682F3C08EA
:100DA800A0003D08A1001F30A300DB308A017F208E
:100DB8008A110A12031DE92E8A0108211230D20075
:100DC8008A0108218A150A16682F3C08A0003D08E8
:100DD800A1001F30A300F1308A017F208A110A1276
:100DE800031DFF2E8A0108211330D2008A01082131
:100DF8008A150A16682F3C08A0003D08A10020307B
:100E0800A3000A308A017F208A110A12031D152FB8
:100E18008A0108211430D2008A0108218A150A168D
:100E2800682F3C08A0003D08A1002030A300223014
:100E38008A017F208A110A12031D2B2F8A0108219B
:100E48001530D2008A0108218A150A16682F3C0835
:100E5800A0003D08A1002030A3003A308A017F207D
:100E68008A110A12031D412F8A0108211630D20067
:100E78008A0108218A150A16682F3C08A0003D0837
:100E8800A1002030A30053308A017F208A110A1262
:100E9800031D572F8A0108211730D2008A01082123
:100EA8008A150A16682F3C08A0003D08A1002030CA
:100EB800A30068308A017F208A110A12031D6D2F52
:100EC8008A0108211830D2008A0108218A150A16D9
:100ED800682F3C08A0003D08A1002030A3007D3009
:100EE8008A017F208A110A12031D832F8A01082193
:100EF8001930D2008A0108218A150A16682F3C0881
:100F0800A0003D08A1002030A30096308A017F2070
:100F18008A110A12031D992F8A0108211A30D2005A
:100F28008A0108218A150A16682F3C08A0003D0886
:100F3800A1002030A300B1308A017F208A110A1253
:100F4800031DAF2F8A0108211B30D2008A01082116
:100F58008A150A16682F3C08A0003D08A100203019
:100F6800A300CA308A017F208A110A12031DC52FE7
:100F78008A0108211C30D2008A0108218A150A1624
:100F8800682F3C08A0003D08A1002030A300E330F2
:100F98008A017F208A110A12031DDB2F8A0108218A
:100FA8001D30D2008A0108218A150A16682F3C08CC
:100FB800A0003D08A1002030A300F9308A017F205D
:100FC8008A110A12031DF12F8A0108211E30D2004E
:100FD8008A0108218A150A16682F3C08A0003D08D6
:100FE800A1002130A30010308A017F208A150A123F
:100FF800031D07288A0108211F30D2008A01082111
:101008008A150A16682F3C08A0003D08A100213067
:10101800A3002B308A017F208A150A12031D1D2880
:101028008A0108212030D2008A0108218A150A166F
:10103800682F3C08A0003D08A1002130A3004730DC
:101048008A017F208A150A12031D33288A01082184
:101058002130D2008A0108218A150A16682F3C0817
:10106800A0003D08A1002130A30062308A017F2042
:101078008A150A12031D49288A0108212230D20044
:101088008A0108218A150A16682F3C08A0003D0825
:10109800A1002130A30079308A017F208A150A1225
:1010A800031D5F288A0108212330D2008A01082104
:1010B8008A150A16682F3C08A0003D08A1002130B7
:1010C800A30090308A017F208A150A12031D752813
:1010D8008A0108212430D2008A0108218A150A16BB
:1010E800682F3C08A0003D08A1002130A300AC30C7
:1010F8008A017F208A150A12031D8B288A0108217C
:101108002530D2008A0108218A150A16682F3C0862
:10111800A0003D08A1002130A300C8308A017F202B
:101128008A150A12031DA1288A0108212630D20037
:101138008A0108218A150A16682F3C08A0003D0874
:10114800A1002130A300E3308A017F208A150A120A
:10115800031DB7288A0108212730D2008A010821F7
:101168008A150A16682F3C08A0003D08A100213006
:10117800A300FF308A017F208A150A12031DCD289B
:101188008A0108212830D2008A0108218A150A1606
:10119800682F3C08A0003D08A1002230A3001A30A7
:1011A8008A017F208A150A12031DE3288A01082173
:1011B8002930D2008A0108218A150A16682F3C08AE
:1011C800A0003D08A1002230A30035308A017F200D
:1011D8008A150A12031DF9288A0108212A30D2002B
:1011E8008A0108218A150A16682F3C08A0003D08C4
:1011F800A1002230A30051308A017F208A150A12EB
:10120800031D0F298A0108212B30D2008A010821E9
:101218008A150A16682F3C08A0003D08A100223054
:10122800A3006E308A017F208A150A12031D252922
:101238008A0108212C30D2008A0108218A150A1651
:10124800682F3C08A0003D08A1002230A3008A3086
:101258008A017F208A150A12031D3B298A01082169
:101268002D30D2008A0108218A150A16682F3C08F9
:10127800A0003D08A1002230A300A6308A017F20EB
:101288008A150A12031D51298A0108212E30D2001D
:101298008A0108218A150A16682F3C08A0003D0813
:1012A800A1002230A300C1308A017F208A150A12CA
:1012B800031D67298A0108212F30D2008A010821DD
:1012C8008A150A16682F3C08A0003D08A1002230A4
:1012D800A300DE308A017F208A150A12031D7D29AA
:1012E8008A0108213030D2008A0108218A150A169D
:1012F800682F3C08A0003D08A1002230A300FF3061
:101308008A017F208A150A12031D93298A01082160
:101318003130D2008A0108218A150A16682F3C0844
:10132800A0003D08A1002330A3001E308A017F20C1
:101338008A150A12031DA9298A0108213230D20010
:101348008A0108218A150A16682F3C08A0003D0862
:10135800A1002330A3003C308A017F208A150A129D
:10136800031DBF298A0108213330D2008A010821D0
:101378008A150A16682F3C08A0003D08A1002330F2
:10138800A3005C308A017F208A150A12031DD52923
:101398008A0108213430D2008A0108218A150A16E8
:1013A800682F3C08A0003D08A1002330A300793035
:1013B8008A017F208A150A12031DEB298A01082158
:1013C8003530D2008A0108218A150A16682F3C0890
:1013D800A0003D08A1002330A30094308A017F209B
:1013E8008A150A12031D012A8A0108213630D20003
:1013F8008A0108218A150A16682F3C08A0003D08B2
:10140800A1002330A300B5308A017F208A150A1273
:10141800031D172A8A0108213730D2008A010821C2
:101428008A150A16682F3C08A0003D08A100233041
:10143800A300D6308A017F208A150A12031D2D2A9F
:101448008A0108213830D2008A0108218A150A1633
:10145800682F3C08A0003D08A1002330A300F73006
:101468008A017F208A150A12031D432A8A0108214E
:101478003930D2008A0108218A150A16682F3C08DB
:10148800A0003D08A1002430A30018308A017F2065
:101498008A150A12031D592A8A0108213A30D200F6
:1014A8008A0108218A150A16682F3C08A0003D0801
:1014B800A1002430A30037308A017F208A150A1240
:1014C800031D6F2A8A0108213B30D2008A010821B6
:1014D8008A150A16682F3C08A0003D08A100243090
:1014E800A30055308A017F208A150A12031D852A18
:1014F8008A0108213C30D2008A0108218A150A167F
:10150800682F3C08A0003D08A1002430A3007830D3
:101518008A017F208A150A12031D9B2A8A01082145
:101528003D30D2008A0108218A150A16682F3C0826
:10153800A0003D08A1002430A3009C308A017F2030
:101548008A150A12031DB12A8A0108213E30D200E9
:101558008A0108218A150A16682F3C08A0003D0850
:10156800A1002430A300BF308A017F208A150A1207
:10157800031DC72A8A0108213F30D2008A010821A9
:101588008A150A16682F3C08A0003D08A1002430DF
:10159800A300E2308A017F208A150A12031DDD2A82
:1015A8008A0108214030D2008A0108218A150A16CA
:1015B800682F3C08A0003D08A1002530A300013099
:1015C8008A017F208A150A12031DF32A8A0108213D
:1015D8004130D2008A0108218A150A16682F3C0872
:1015E800A0003D08A1002530A30020308A017F20FB
:1015F8008A150A12031D092B8A0108214230D200DC
:101608008A0108218A150A16682F3C08A0003D089F
:10161800A1002530A30044308A017F208A150A12D0
:10162800031D1F2B8A0108214330D2008A0108219B
:101638008A150A16682F3C08A0003D08A10025302D
:10164800A30069308A017F208A150A12031D352BF1
:101658008A0108214430D2008A0108218A150A1615
:10166800682F3C08A0003D08A1002530A3008E305B
:101678008A017F208A150A12031D4B2B8A01082133
:101688004530D2008A0108218A150A16682F3C08BD
:10169800A0003D08A1002530A300B0308A017F20BA
:1016A8008A150A12031D612B8A0108214630D200CF
:1016B8008A0108218A150A16682F3C08A0003D08EF
:1016C800A1002530A300D0308A017F208A150A1294
:1016D800031D772B8A0108214730D2008A0108218F
:1016E8008A150A16682F3C08A0003D08A10025307D
:1016F800A300F8308A017F208A150A12031D8D2B5A
:101708008A0108214830D2008A0108218A150A1660
:10171800682F3C08A0003D08A1002630A300213016
:101728008A017F208A150A12031DA32B8A0108212A
:101738004930D2008A0108218A150A16682F3C0808
:10174800A0003D08A1002630A30047308A017F2071
:101758008A150A12031DB92B8A0108214A30D200C2
:101768008A0108218A150A16682F3C08A0003D083E
:10177800A1002630A3006E308A017F208A150A1244
:10178800031DCF2B8A0108214B30D2008A01082182
:101798008A150A16682F3C08A0003D08A1002630CB
:1017A800A30090308A017F208A150A12031DE52BB9
:1017B8008A0108214C30D2008A0108218A150A16AC
:1017C800682F3C08A0003D08A1002630A300B430D3
:1017D8008A017F208A150A12031DFB2B8A01082122
:1017E8004D30D2008A0108218A150A16682F3C0854
:1017F800A0003D08A1002630A300DC308A017F202C
:101808008A150A12031D112C8A0108214E30D200B4
:101818008A0108218A150A16682F3C08A0003D088D
:10182800A1002730A30004308A017F208A150A12FC
:10183800031D272C8A0108214F30D2008A01082174
:101848008A150A16682F3C08A0003D08A100273019
:10185800A3002F308A017F208A150A12031D3D2C10
:101868008A0108215030D2008A0108218A150A16F7
:10187800682F3C08A0003D08A1002730A30058307D
:101888008A017F208A150A12031D532C8A01082118
:101898005130D2008A0108218A150A16682F3C089F
:1018A800A0003D08A1002730A3007B308A017F20DB
:1018B8008A150A12031D692C8A0108215230D200A8
:1018C8008A0108218A150A16682F3C08A0003D08DD
:1018D800A1002730A300A0308A017F208A150A12B0
:1018E800031D7F2C8A0108215330D2008A01082168
:1018F8008A150A16682F3C08A0003D08A100273069
:10190800A300CC308A017F208A150A12031D952C6A
:101918008A0108215430D2008A0108218A150A1642
:10192800682F3C08A0003D08A1002730A300F8302C
:101938008A017F208A150A12031DAB2C8A0108210F
:101948005530D2008A0108218A150A16682F3C08EA
:10195800A0003D08A1002830A30024308A017F2080
:101968008A150A12031DC12C8A0108215630D2009B
:101978008A0108218A150A16682F3C08A0003D082C
:10198800A1002830A30050308A017F208A150A124E
:10199800031DD72C8A0108215730D2008A0108215B
:1019A8008A150A16682F3C08A0003D08A1002830B7
:1019B800A30078308A017F208A150A12031DED2CB6
:1019C8008A0108215830D2008A0108218A150A168E
:1019D800682F3C08A0003D08A1002830A300A130D2
:1019E8008A017F208A150A12031D032D8A01082106
:1019F8005930D2008A0108218A150A16682F3C0836
:101A0800A0003D08A1002830A300CF308A017F2024
:101A18008A150A12031D192D8A0108215A30D2008D
:101A28008A0108218A150A16682F3C08A0003D087B
:101A3800A1002830A300FF308A017F208A150A12EE
:101A4800031D2F2D8A0108215B30D2008A0108214D
:101A58008A150A16682F3C08A0003D08A100293005
:101A6800A3002F308A017F208A150A12031D452DF5
:101A78008A0108215C30D2008A0108218A150A16D9
:101A8800682F3C08A0003D08A1002930A3005E3063
:101A98008A017F208A150A12031D5B2D8A010821FD
:101AA8005D30D2008A0108218A150A16682F3C0881
:101AB800A0003D08A1002930A30087308A017F20BB
:101AC8008A150A12031D712D8A0108215E30D20081
:101AD8008A0108218A150A16682F3C08A0003D08CB
:101AE800A1002930A300B2308A017F208A150A128A
:101AF800031D872D8A0108215F30D2008A01082141
:101B08008A150A16682F3C08A0003D08A100293054
:101B1800A300E3308A017F208A150A12031D9D2D38
:101B28008A0108216030D2008A0108218A150A1624
:101B3800682F3C08A0003D08A1002A30A3001430FB
:101B48008A017F208A150A12031DB32D8A010821F4
:101B58006130D2008A0108218A150A16682F3C08CC
:101B6800A0003D08A1002A30A30047308A017F2049
:101B78008A150A12031DC92D8A0108216230D20074
:101B88008A0108218A150A16682F3C08A0003D081A
:101B9800A1002A30A30073308A017F208A150A1217
:101BA800031DDF2D8A0108216330D2008A01082134
:101BB8008A150A16682F3C08A0003D08A1002A30A3
:101BC800A300A1308A017F208A150A12031DF52D72
:101BD8008A0108216430D2008A0108218A150A1670
:101BE800682F3C08A0003D08A1002A30A300D63089
:101BF8008A017F208A150A12031D0B2E8A010821EB
:101C08006530D2008A0108218A150A16682F3C0817
:101C1800A0003D08A1002B30A3000C308A017F20D2
:101C28008A150A12031D212E8A0108216630D20066
:101C38008A0108218A150A16682F3C08A0003D0869
:101C4800A1002B30A30041308A017F208A150A1297
:101C5800031D372E8A0108216730D2008A01082126
:101C68008A150A16682F3C08A0003D08A1002B30F1
:101C7800A30076308A017F208A150A12031D4D2E93
:101C88008A0108216830D2008A0108218A150A16BB
:101C9800682F3C08A0003D08A1002B30A300A53008
:101CA8008A017F208A150A12031D632E8A010821E2
:101CB8006930D2008A0108218A150A16682F3C0863
:101CC800A0003D08A1002B30A300D4308A017F205A
:101CD8008A150A12031D792E8A0108216A30D2005A
:101CE8008A0108218A150A16682F3C08A0003D08B9
:101CF800A1002C30A3000A308A017F208A150A121D
:101D0800031D8F2E8A0108216B30D2008A01082119
:101D18008A150A16682F3C08A0003D08A1002C303F
:101D2800A30043308A017F208A150A12031DA52EBD
:101D38008A0108216C30D2008A0108218A150A1606
:101D4800682F3C08A0003D08A1002C30A3007E307D
:101D58008A017F208A150A12031DBB2E8A010821D9
:101D68006D30D2008A0108218A150A16682F3C08AE
:101D7800A0003D08A1002C30A300B8308A017F20C4
:101D88008A150A12031DD12E8A0108216E30D2004D
:101D98008A0108218A150A16682F3C08A0003D0808
:101DA800A1002C30A300ED308A017F208A150A1289
:101DB800031DE72E8A0108216F30D2008A0108210D
:101DC8008A150A16682F3C08A0003D08A1002D308E
:101DD800A30022308A017F208A150A12031DFD2ED6
:101DE8008A0108217030D2008A0108218A150A1652
:101DF800682F3C08A0003D08A1002D30A3005E30EC
:101E08008A017F208A150A12031D132F8A010821CF
:101E18007130D2008A0108218A150A16682F3C08F9
:101E2800A0003D08A1002D30A3009C308A017F202E
:101E38008A150A12031D292F8A0108217230D2003F
:101E48008A0108218A150A16682F3C08A0003D0857
:101E5800A1002D30A300D8308A017F208A150A12EC
:101E6800031D3F2F8A0108217330D2008A010821FF
:101E78008A150A16682F3C08A0003D08A1002E30DC
:101E8800A30015308A017F208A150A12031D552FD9
:101E98008A0108217430D2008A0108218A150A169D
:101EA800682F3C08A0003D08A1002E30A3004C304C
:101EB8008A017F208A150A12031D6B2F8A010821C7
:101EC8007530D2008A0108218A150A16682F3C0845
:101ED800A0003D08A1002E30A30087308A017F2092
:101EE8008A150A12031D812F8A0108217630D20033
:101EF8008A0108218A150A16682F3C08A0003D08A7
:101F0800A1002E30A300CA308A017F208A150A1248
:101F1800031D972F8A0108217730D2008A010821F2
:101F28008A150A16682F3C08A0003D08A1002F302A
:101F3800A3000C308A017F208A150A12031DAD2FD9
:101F48008A0108217830D2008A0108218A150A16E8
:101F5800682F3C08A0003D08A1002F30A3004F3097
:101F68008A017F208A150A12031DC32F8A010821BE
:101F78007930D2008A0108218A150A16682F3C0890
:101F8800A0003D08A1002F30A30091308A017F20D6
:101F98008A150A12031DD92F8A0108217A30D20026
:101FA8008A0108218A150A16682F3C08A0003D08F6
:101FB800A1002F30A300CF308A017F208A150A1292
:101FC800031DEF2F8A0108217B30D2008A010821E6
:101FD8008A150A16682F3C08A0003D08A100303079
:101FE800A3000F308A017F208A110A16031D0528D5
:101FF8008A0108217C30D2008A0108218A150A1634
:10200800682F3C08A0003D08A1003030A3005430E0
:102018008A017F208A110A16031D1B288A010821BC
:102028007D30D2008A0108218A150A16682F3C08DB
:10203800A0003D08A1003030A30099308A017F201C
:102048008A110A16031D31288A0108217E30D20020
:102058008A0108218A150A16682F3C08A0003D0845
:10206800A1003030A300E3308A017F208A110A16CC
:10207800031D47288A0108217F30D2008A010821E0
:102088008A150A16682F3C08A0003D08A1003130C7
:10209800A3002B308A017F208A110A16031D5D28B0
:1020A8008A0108218030D2008A0108218A150A167F
:1020B800682F3C08A0003D08A1003130A3006C3017
:1020C8008A017F208A110A16031D73288A010821B4
:1020D8008130D2008A0108218A150A16682F3C0827
:1020E800A0003D08A1003130A300AF308A017F2055
:1020F8008A110A16031D89288A0108218230D20014
:102108008A0108218A150A16682F3C08A0003D0894
:10211800A1003130A300F9308A017F208A110A1604
:10212800031D9F288A0108218330D2008A010821D3
:102138008A150A16682F3C08A0003D08A100323015
:10214800A30045308A017F208A110A16031DB5288D
:102158008A0108218430D2008A0108218A150A16CA
:10216800682F3C08A0003D08A1003230A300913040
:102178008A017F208A110A16031DCB288A010821AB
:102188008530D2008A0108218A150A16682F3C0872
:10219800A0003D08A1003230A300D2308A017F2080
:1021A8008A110A16031DE1288A0108218630D20007
:1021B8008A0108218A150A16682F3C08A0003D08E4
:1021C800A1003330A30019308A017F208A110A1632
:1021D800031DF7288A0108218730D2008A010821C7
:1021E8008A150A16682F3C08A0003D08A100333064
:1021F800A3006C308A017F208A110A16031D0D295D
:102208008A0108218830D2008A0108218A150A1615
:10221800682F3C08A0003D08A1003330A300C4305B
:102228008A017F208A110A16031D23298A010821A1
:102238008930D2008A0108218A150A16682F3C08BD
:10224800A0003D08A1003430A3001C308A017F2083
:102258008A110A16031D39298A0108218A30D200F9
:102268008A0108218A150A16682F3C08A0003D0833
:10227800A1003430A3006E308A017F208A110A162B
:10228800031D4F298A0108218B30D2008A010821B9
:102298008A150A16682F3C08A0003D08A1003430B2
:1022A800A300B6308A017F208A110A16031D65290A
:1022B8008A0108218C30D2008A0108218A150A1661
:1022C800682F3C08A0003D08A1003530A300053068
:1022D8008A017F208A110A16031D7B298A01082199
:1022E8008D30D2008A0108218A150A16682F3C0809
:1022F800A0003D08A1003530A30062308A017F208C
:102308008A110A16031D91298A0108218E30D200EC
:102318008A0108218A150A16682F3C08A0003D0882
:10232800A1003530A300BD308A017F208A110A162A
:10233800031DA7298A0108218F30D2008A010821AC
:102348008A150A16682F3C08A0003D08A1003630FF
:10235800A30018308A017F208A110A16031DBD299F
:102368008A0108219030D2008A0108218A150A16AC
:10237800682F3C08A0003D08A1003630A300753046
:102388008A017F208A110A16031DD3298A01082190
:102398009130D2008A0108218A150A16682F3C0854
:1023A800A0003D08A1003630A300CB308A017F2071
:1023B8008A110A16031DE9298A0108219230D200E0
:1023C8008A0108218A150A16682F3C08A0003D08D2
:1023D800A1003730A30021308A017F208A110A1614
:1023E800031DFF298A0108219330D2008A010821A0
:1023F8008A150A16682F3C08A0003D08A10037304E
:10240800A30080308A017F208A110A16031D152A2D
:102418008A0108219430D2008A0108218A150A16F7
:10242800682F3C08A0003D08A1003730A300E23027
:102438008A017F208A110A16031D2B2A8A01082186
:102448009530D2008A0108218A150A16682F3C089F
:10245800A0003D08A1003830A30048308A017F2041
:102468008A110A16031D4B2A8A0108219630D200C8
:102478008A0108210430CD008A010821FC30C400FB
:10248800BB30C5008A0108218A150A16682F3C0846
:10249800A0003D08A1003830A300A9308A017F20A0
:1024A8008A110A16031D6B2A8A0108219730D20067
:1024B8008A0108210430CD008A010821F330C400C4
:1024C800C430C5008A0108218A150A16682F3C08FD
:1024D800A0003D08A1003930A30004308A017F2004
:1024E8008A110A16031D8B2A8A0108219830D20006
:1024F8008A0108210430CD008A010821EC30C4008B
:10250800CB30C5008A0108218A150A16682F3C08B5
:10251800A0003D08A1003930A30067308A017F2060
:102528008A110A16031DAB2A8A0108219930D200A4
:102538008A0108210430CD008A0108216B30C400CB
:10254800D530C5008A0108218A150A16682F3C086B
:10255800A0003D08A1003930A300D3308A017F20B4
:102568008A110A16031DCB2A8A0108219A30D20043
:102578008A0108210430CD008A010821D930C4001D
:10258800DE30C5008A0108218A150A16682F3C0822
:10259800A0003D08A1003A30A30040308A017F2006
:1025A8008A110A16031DEB2A8A0108219B30D200E2
:1025B8008A0108210430CD008A0108216930C4004D
:1025C800E830C5008A0108218A150A16682F3C08D8
:1025D800A0003D08A1003A30A300AE308A017F2058
:1025E8008A110A16031D0B2B8A0108219C30D20080
:1025F8008A0108210430CD008A0108219730C400DF
:10260800F230C5008A0108218A150A16682F3C088D
:10261800A0003D08A1003B30A3001C308A017F20A8
:102628008A110A16031D2B2B8A0108219D30D2001E
:102638008A0108210430CD008A0108213330C40002
:10264800FC30C5008A0108218A150A16682F3C0843
:10265800A0003D08A1003B30A30082308A017F2002
:102668008A110A16031D4B2B8A0108219E30D200BD
:102678008A0108210530CD008A010821FF30C400F5
:102688000330C5008A0108218A150A16682F3C08FC
:10269800A0003D08A1003B30A300ED308A017F2057
:1026A8008A110A16031D6B2B8A0108219F30D2005C
:1026B8008A0108210530CD008A0108213930C4007B
:1026C8000E30C5008A0108218A150A16682F3C08B1
:1026D800A0003D08A1003C30A30064308A017F209F
:1026E8008A110A16031D8B2B8A010821A030D200FB
:1026F8008A0108210530CD008A010821D930C4009B
:102708001830C5008A0108218A150A16682F3C0866
:10271800A0003D08A1003C30A300DE308A017F20E4
:102728008A110A16031DAB2B8A010821A130D20099
:102738008A0108210530CD008A010821CE30C40065
:102748002330C5008A0108218A150A16682F3C081B
:10275800A0003D08A1003D30A30056308A017F202B
:102768008A110A16031DCB2B8A010821A230D20038
:102778008A0108210530CD008A0108216E30C40085
:102788002E30C5008A0108218A150A16682F3C08D0
:10279800A0003D08A1003D30A300C4308A017F207D
:1027A8008A110A16031DEB2B8A010821A330D200D7
:1027B8008A0108210530CD008A0108218830C4002B
:1027C8003630C5008A0108218A150A16682F3C0888
:1027D800A0003D08A1003E30A30035308A017F20CB
:1027E8008A110A16031D0B2C8A010821A430D20075
:1027F8008A0108210530CD008A010821D230C400A1
:102808004130C5008A0108218A150A16682F3C083C
:10281800A0003D08A1003E30A300B5308A017F200A
:102828008A110A16031D2B2C8A010821A530D20013
:102838008A0108210530CD008A010821D730C4005B
:102848004D30C5008A0108218A150A16682F3C08F0
:10285800A0003D08A1003F30A30039308A017F2045
:102868008A110A16031D4B2C8A010821A630D200B2
:102878008A0108210530CD008A0108216530C4008D
:102888005930C5008A0108218A150A16682F3C08A4
:10289800A0003D08A1003F30A300EE308A017F2050
:1028A8008A110A16031D6B2C8A010821A730D20051
:1028B8008A0108210530CD008A0108211430C4009E
:1028C8006630C5008A0108218A150A16682F3C0857
:1028D800A0003D08A1004030A30072308A017F208B
:1028E8008A110A16031D8B2C8A010821A830D200F0
:1028F8008A0108210530CD008A0108213C30C40036
:102908007130C5008A0108218A150A16682F3C080B
:10291800A0003D08A1004030A300BD308A017F20FF
:102928008A110A16031DAB2C8A010821A930D2008E
:102938008A0108210530CD008A0108213330C400FE
:102948007A30C5008A0108218A150A16682F3C08C2
:10295800A0003D08A1004130A3003D308A017F203E
:102968008A110A16031DCB2C8A010821AA30D2002D
:102978008A0108210530CD008A0108216B30C40086
:102988008630C5008A0108218A150A16682F3C0876
:10299800A0003D08A1004130A300CF308A017F206C
:1029A8008A110A16031DEB2C8A010821AB30D200CC
:1029B8008A0108210530CD008A010821E630C400CB
:1029C8009330C5008A0108218A150A16682F3C0829
:1029D800A0003D08A1004230A30069308A017F2091
:1029E8008A110A16031D0B2D8A010821AC30D2006A
:1029F8008A0108210530CD008A0108211D30C40054
:102A0800A130C5008A0108218A150A16682F3C08DA
:102A1800A0003D08A1004330A30001308A017F20B7
:102A28008A110A16031D2B2D8A010821AD30D20008
:102A38008A0108210530CD008A010821DD30C40053
:102A4800AD30C5008A0108218A150A16682F3C088E
:102A5800A0003D08A1004330A30095308A017F20E3
:102A68008A110A16031D4B2D8A010821AE30D200A7
:102A78008A0108210530CD008A0108213530C400BB
:102A8800BC30C5008A0108218A150A16682F3C083F
:102A9800A0003D08A1004430A3001F308A017F2018
:102AA8008A110A16031D6B2D8A010821AF30D20046
:102AB8008A0108210530CD008A0108219130C4001F
:102AC800C630C5008A0108218A150A16682F3C08F5
:102AD800A0003D08A1004430A300B2308A017F2045
:102AE8008A110A16031D8B2D8A010821B030D200E5
:102AF8008A0108210530CD008A010821E930C40087
:102B0800D430C5008A0108218A150A16682F3C08A6
:102B1800A0003D08A1004530A30052308A017F2063
:102B28008A110A16031DAB2D8A010821B130D20083
:102B38008A0108210530CD008A0108215230C400DD
:102B4800E330C5008A0108218A150A16682F3C0857
:102B5800A0003D08A1004530A300F7308A017F207E
:102B68008A110A16031DCB2D8A010821B230D20022
:102B78008A0108210530CD008A0108219830C40057
:102B8800F230C5008A0108218A150A16682F3C0808
:102B9800A0003D08A1004630A300A5308A017F208F
:102BA8008A110A16031DEB2D8A010821B330D200C1
:102BB8008A0108210630CD008A0108212830C40086
:102BC8000230C5008A0108218A150A16682F3C08B8
:102BD800A0003D08A1004730A3004C308A017F20A7
:102BE8008A110A16031D0B2E8A010821B430D2005F
:102BF8008A0108210630CD008A0108217F30C400EF
:102C08001130C5008A0108218A150A16682F3C0868
:102C1800A0003D08A1004730A300E4308A017F20CE
:102C28008A110A16031D2B2E8A010821B530D200FD
:102C38008A0108210630CD008A0108211E30C4000F
:102C48001D30C5008A0108218A150A16682F3C081C
:102C5800A0003D08A1004830A30089308A017F20E8
:102C68008A110A16031D4B2E8A010821B630D2009C
:102C78008A0108210630CD008A0108213130C400BC
:102C88002C30C5008A0108218A150A16682F3C08CD
:102C9800A0003D08A1004930A30042308A017F20EE
:102CA8008A110A16031D6B2E8A010821B730D2003B
:102CB8008A0108210630CD008A010821DC30C400D1
:102CC8003C30C5008A0108218A150A16682F3C087D
:102CD800A0003D08A1004930A300FC308A017F20F4
:102CE8008A110A16031D8B2E8A010821B830D200DA
:102CF8008A0108210630CD008A0108219830C400D5
:102D08004D30C5008A0108218A150A16682F3C082B
:102D1800A0003D08A1004A30A300BA308A017F20F4
:102D28008A110A16031DAB2E8A010821B930D20078
:102D38008A0108210630CD008A010821DD30C4004F
:102D48005D30C5008A0108218A150A16682F3C08DB
:102D5800A0003D08A1004B30A30072308A017F20FB
:102D68008A110A16031DCB2E8A010821BA30D20017
:102D78008A0108210630CD008A010821DB30C40011
:102D88007030C5008A0108218A150A16682F3C0888
:102D9800A0003D08A1004C30A3001F308A017F200D
:102DA8008A110A16031DEB2E8A010821BB30D200B6
:102DB8008A0108210630CD008A0108211230C4009A
:102DC8007E30C5008A0108218A150A16682F3C083A
:102DD800A0003D08A1004C30A300DF308A017F200D
:102DE8008A110A16031D0B2F8A010821BC30D20054
:102DF8008A0108210630CD008A010821BB30C400B1
:102E08009030C5008A0108218A150A16682F3C08E7
:102E1800A0003D08A1004D30A300B2308A017F20F8
:102E28008A110A16031D2B2F8A010821BD30D200F2
:102E38008A0108210630CD008A0108216430C400C7
:102E4800A330C5008A0108218A150A16682F3C0894
:102E5800A0003D08A1004E30A30084308A017F20E5
:102E68008A110A16031D4B2F8A010821BE30D20091
:102E78008A0108210630CD008A010821FC30C400EF
:102E8800B530C5008A0108218A150A16682F3C0842
:102E9800A0003D08A1004F30A30061308A017F20C7
:102EA8008A110A16031D6B2F8A010821BF30D20030
:102EB8008A0108210630CD008A010821D730C400D4
:102EC800C930C5008A0108218A150A16682F3C08EE
:102ED800A0003D08A1005030A3003C308A017F20AB
:102EE8008A110A16031D8B2F8A010821C030D200CF
:102EF8008A0108210630CD008A010821A030C400CB
:102F0800DE30C5008A0108218A150A16682F3C0898
:102F1800A0003D08A1005130A30004308A017F20A1
:102F28008A110A16031DAB2F8A010821C130D2006D
:102F38008A0108210630CD008A0108211A30C40010
:102F4800ED30C5008A0108218A150A16682F3C0849
:102F5800A0003D08A1005130A300DC308A017F2089
:102F68008A110A16031DCB2F8A010821C230D2000C
:102F78008A0108210730CD008A0108215130C40098
:102F88000130C5008A0108218A150A16682F3C08F5
:102F9800A0003D08A1005230A300CE308A017F2056
:102FA8008A110A16031DEB2F8A010821C330D200AB
:102FB8008A0108210730CD008A0108217E30C4002B
:102FC8001830C5008A0108218A150A16682F3C089E
:102FD800A0003D08A1005330A300C2308A017F2021
:102FE8008A150A16031D0B288A010821C430D2004D
:102FF8008A0108210730CD008A0108210230C40067
:103008002E30C5008A0108218A150A16682F3C0847
:10301800A0003D08A1005430A300AF308A017F20F2
:103028008A150A16031D2B288A010821C530D200EB
:103038008A0108210730CD008A0108212F30C400F9
:103048004530C5008A0108218A150A16682F3C08F0
:10305800A0003D08A1005530A3008B308A017F20D5
:103068008A150A16031D4B288A010821C630D2008A
:103078008A0108210730CD008A010821EB30C400FD
:103088005530C5008A0108218A150A16682F3C08A0
:10309800A0003D08A1005630A30073308A017F20AC
:1030A8008A150A16031D6B288A010821C730D20029
:1030B8008A0108210730CD008A0108211730C40091
:1030C8006E30C5008A0108218A150A16682F3C0847
:1030D800A0003D08A1005730A30081308A017F205D
:1030E8008A150A16031D8B288A010821C830D200C8
:1030F8008A0108210730CD008A010821A930C400BF
:103108008630C5008A0108218A150A16682F3C08EE
:10311800A0003D08A1005830A30095308A017F2007
:103128008A150A16031DAB288A010821C930D20066
:103138008A0108210730CD008A0108213B30C400EC
:103148009F30C5008A0108218A150A16682F3C0895
:10315800A0003D08A1005930A300B3308A017F20A8
:103168008A150A16031DCB288A010821CA30D20005
:103178008A0108210730CD008A0108214430C400A3
:10318800B830C5008A0108218A150A16682F3C083C
:10319800A0003D08A1005A30A300D4308A017F2046
:1031A8008A150A16031DEB288A010821CB30D200A4
:1031B8008A0108210730CD008A0108211830C4008F
:1031C800D330C5008A0108218A150A16682F3C08E1
:1031D800A0003D08A1005B30A300D9308A017F2000
:1031E8008A150A16031D0B298A010821CC30D20042
:1031F8008A0108210730CD008A0108211530C40052
:10320800E730C5008A0108218A150A16682F3C088C
:10321800A0003D08A1005C30A300F8308A017F209F
:103228008A150A16031D2B298A010821CD30D200E0
:103238008A0108210830CD008A0108213030C400F5
:103248000630C5008A0108218A150A16682F3C082D
:10325800A0003D08A1005E30A30041308A017F2014
:103268008A150A16031D4B298A010821CE30D2007F
:103278008A0108210830CD008A0108212630C400BF
:103288002130C5008A0108218A150A16682F3C08D2
:10329800A0003D08A1005F30A30085308A017F208F
:1032A8008A150A16031D6B298A010821CF30D2001E
:1032B8008A0108210830CD008A0108213B30C4006A
:1032C8003F30C5008A0108218A150A16682F3C0874
:1032D800A0003D08A1006030A300CE308A017F2005
:1032E8008A150A16031D8B298A010821D030D200BD
:1032F8008A0108210830CD008A0108213F30C40026
:103308005D30C5008A0108218A150A16682F3C0815
:10331800A0003D08A1006230A3001F308A017F2071
:103328008A150A16031DAB298A010821D130D2005B
:103338008A0108210830CD008A010821C830C4005C
:103348007E30C5008A0108218A150A16682F3C08B4
:10335800A0003D08A1006330A30050308A017F20FF
:103368008A150A16031DCB298A010821D230D200FA
:103378008A0108210830CD008A0108216E30C40076
:103388009430C5008A0108218A150A16682F3C085E
:10339800A0003D08A1006430A30094308A017F207A
:1033A8008A150A16031DEB298A010821D330D20099
:1033B8008A0108210830CD008A010821A230C40002
:1033C800B530C5008A0108218A150A16682F3C08FD
:1033D800A0003D08A1006630A3000B308A017F20C1
:1033E8008A150A16031D0B2A8A010821D430D20037
:1033F8008A0108210830CD008A0108219330C400D1
:10340800D530C5008A0108218A150A16682F3C089C
:10341800A0003D08A1006730A3008A308A017F2000
:103428008A150A16031D2B2A8A010821D530D200D5
:103438008A0108210830CD008A0108216F30C400B4
:10344800F930C5008A0108218A150A16682F3C0838
:10345800A0003D08A1006930A30012308A017F2036
:103468008A150A16031D4B2A8A010821D630D20074
:103478008A0108210930CD008A0108217330C4006F
:103488001D30C5008A0108218A150A16682F3C08D4
:10349800A0003D08A1006A30A30097308A017F2070
:1034A8008A150A16031D6B2A8A010821D730D20013
:1034B8008A0108210930CD008A0108216E30C40034
:1034C8004430C5008A0108218A150A16682F3C086D
:1034D800A0003D08A1006C30A3000D308A017F20B8
:1034E8008A150A16031D8B2A8A010821D830D200B2
:1034F8008A0108210930CD008A0108212F30C40033
:103508006130C5008A0108218A150A16682F3C080F
:10351800A0003D08A1006D30A300A3308A017F20E0
:103528008A150A16031DAB2A8A010821D930D20050
:103538008A0108210930CD008A0108210830C40019
:103548008830C5008A0108218A150A16682F3C08A8
:10355800A0003D08A1006F30A30069308A017F20D8
:103568008A150A16031DCB2A8A010821DA30D200EF
:103578008A0108210930CD008A0108211530C400CC
:10358800AE30C5008A0108218A150A16682F3C0842
:10359800A0003D08A1007130A30043308A017F20BC
:1035A8008A150A16031DEB2A8A010821DB30D2008E
:1035B8008A0108210930CD008A0108211C30C40085
:1035C800DA30C5008A0108218A150A16682F3C08D6
:1035D800A0003D08A1007330A3001E308A017F209F
:1035E8008A150A16031D0B2B8A010821DC30D2002C
:1035F8008A0108210A30CD008A0108219130C400CF
:103608000530C5008A0108218A150A16682F3C086A
:10361800A0003D08A1007430A300EB308A017F2090
:103628008A150A16031D2B2B8A010821DD30D200CA
:103638008A0108210A30CD008A0108218230C4009D
:103648003630C5008A0108218A150A16682F3C08F9
:10365800A0003D08A1007630A300A8308A017F2091
:103668008A150A16031D4B2B8A010821DE30D20069
:103678008A0108210A30CD008A0108211D30C400C2
:103688005730C5008A0108218A150A16682F3C0898
:10369800A0003D08A1007830A30089308A017F206E
:1036A8008A150A16031D6B2B8A010821DF30D20008
:1036B8008A0108210A30CD008A0108213230C4006D
:1036C8008630C5008A0108218A150A16682F3C0829
:1036D800A0003D08A1007A30A300AD308A017F2008
:1036E8008A150A16031D8B2B8A010821E030D200A7
:1036F8008A0108210A30CD008A0108218730C400D8
:10370800B930C5008A0108218A150A16682F3C08B5
:10371800A0003D08A1007C30A300E4308A017F208E
:103728008A150A16031DAB2B8A010821E130D20045
:103738008A0108210A30CD008A010821A830C40076
:10374800ED30C5008A0108218A150A16682F3C0841
:10375800A0003D08A1007F30A30073308A017F20BC
:103768008A150A16031DCB2B8A010821E230D200E4
:103778008A0108210B30CD008A010821D130C4000C
:103788002030C5008A0108218A150A16682F3C08CE
:10379800A0003D08A1008130A30071308A017F207C
:1037A8008A150A16031DEB2B8A010821E330D20083
:1037B8008A0108210B30CD008A010821A730C400F6
:1037C8004A30C5008A0108218A150A16682F3C0864
:1037D800A0003D08A1008330A3002C308A017F207F
:1037E8008A150A16031D0B2C8A010821E430D20021
:1037F8008A0108210B30CD008A0108212A30C40033
:103808008330C5008A0108218A150A16682F3C08EA
:10381800A0003D08A1008530A300AD308A017F20BB
:103828008A150A16031D2B2C8A010821E530D200BF
:103838008A0108210B30CD008A010821DB30C40041
:10384800C030C5008A0108218A150A16682F3C086D
:10385800A0003D08A1008830A3004B308A017F20DA
:103868008A150A16031D4B2C8A010821E630D2005E
:103878008A0108210B30CD008A0108210330C400D9
:10388800FF30C5008A0108218A150A16682F3C08EE
:10389800A0003D08A1008B30A3000C308A017F20D6
:1038A8008A150A16031D6B2C8A010821E730D200FD
:1038B8008A0108210C30CD008A0108217130C4002A
:1038C8004130C5008A0108218A150A16682F3C086C
:1038D800A0003D08A1008D30A300D1308A017F20CF
:1038E8008A150A16031D8B2C8A010821E830D2009C
:1038F8008A0108210C30CD008A010821FA30C40061
:103908008430C5008A0108218A150A16682F3C08E8
:10391800A0003D08A1009030A30061308A017F20FB
:103928008A150A16031DAB2C8A010821E930D2003A
:103938008A0108210C30CD008A010821D730C40043
:10394800B830C5008A0108218A150A16682F3C0874
:10395800A0003D08A1009330A30048308A017F20D1
:103968008A150A16031DCB2C8A010821EA30D200D9
:103978008A0108210D30CD008A0108215030C40089
:103988000230C5008A0108218A150A16682F3C08EA
:10399800A0003D08A1009630A30080308A017F2056
:1039A8008A150A16031DEB2C8A010821EB30D20078
:1039B8008A0108210D30CD008A0108212430C40075
:1039C8005030C5008A0108218A150A16682F3C085C
:1039D800A0003D08A1009930A300D5308A017F20BE
:1039E8008A150A16031D0B2D8A010821EC30D20016
:1039F8008A0108210D30CD008A0108219430C400C5
:103A08009B30C5008A0108218A150A16682F3C08D0
:103A1800A0003D08A1009D30A3005F308A017F20EF
:103A28008A150A16031D2B2D8A010821ED30D200B4
:103A38008A0108210D30CD008A010821DD30C4003B
:103A4800EB30C5008A0108218A150A16682F3C0840
:103A5800A0003D08A100A030A300AF308A017F205C
:103A68008A150A16031D4B2D8A010821EE30D20053
:103A78008A0108210E30CD008A0108216C30C4006B
:103A88004130C5008A0108218A150A16682F3C08AA
:103A9800A0003D08A100A330A300E9308A017F20DF
:103AA8008A150A16031D6B2D8A010821EF30D200F2
:103AB8008A0108210E30CD008A010821C230C400D5
:103AC8008430C5008A0108218A150A16682F3C0827
:103AD800A0003D08A100A730A300A8308A017F20DC
:103AE8008A150A16031D8B2D8A010821F030D20091
:103AF8008A0108210E30CD008A0108211E30C40039
:103B0800E430C5008A0108218A150A16682F3C0886
:103B1800A0003D08A100AB30A300C2308A017F207D
:103B28008A150A16031DAB2D8A010821F130D2002F
:103B38008A0108210F30CD008A0108211930C400FC
:103B48004430C5008A0108218A150A16682F3C08E6
:103B5800A0003D08A100B030A3000B308A017F20EF
:103B68008A150A16031DCB2D8A010821F230D200CE
:103B78008A0108210F30CD008A0108211330C400C2
:103B8800B030C5008A0108218A150A16682F3C083A
:103B9800A0003D08A100B430A30091308A017F2025
:103BA8008A150A16031DEB2D8A010821F330D2006D
:103BB8008A0108211030CD008A0108210230C40092
:103BC8001D30C5008A0108218A150A16682F3C088D
:103BD800A0003D08A100B930A3000D308A017F2064
:103BE8008A150A16031D0B2E8A010821F430D2000B
:103BF8008A0108211030CD008A0108219630C400BE
:103C08008830C5008A0108218A150A16682F3C08E1
:103C1800A0003D08A100BD30A30056308A017F20D6
:103C28008A150A16031D2B2E8A010821F530D200A9
:103C38008A0108211030CD008A0108217E30C40095
:103C4800E430C5008A0108218A150A16682F3C0845
:103C5800A0003D08A100C130A300E4308A017F2004
:103C68008A150A16031D4B2E8A010821F630D20048
:103C78008A0108211130CD008A010821B530C4001D
:103C88005E30C5008A0108218A150A16682F3C088B
:103C9800A0003D08A100C730A30022308A017F2080
:103CA8008A150A16031D6B2E8A010821F730D200E7
:103CB8008A0108211130CD008A0108215630C4003C
:103CC800DF30C5008A0108218A150A16682F3C08CA
:103CD800A0003D08A100CC30A300F1308A017F206C
:103CE8008A150A16031D8B2E8A010821F830D20086
:103CF8008A0108211230CD008A0108218E30C400C3
:103D08006830C5008A0108218A150A16682F3C0800
:103D1800A0003D08A100D330A30014308A017F2001
:103D28008A150A16031DAB2E8A010821F930D20024
:103D38008A0108211230CD008A0108215030C400C0
:103D4800FB30C5008A0108218A150A16682F3C082D
:103D5800A0003D08A100D930A3000A308A017F20C5
:103D68008A150A16031DCB2E8A010821FA30D200C3
:103D78008A0108211330CD008A0108216330C4006C
:103D88009930C5008A0108218A150A16682F3C084F
:103D9800A0003D08A100DE30A300BA308A017F20D0
:103DA8008A150A16031DEB2E8A010821FB30D20062
:103DB8008A0108211430CD008A010821E430C400AA
:103DC8000D30C5008A0108218A150A16682F3C089B
:103DD800A0003D08A100E530A3003B308A017F2008
:103DE8008A150A16031D0B2F8A010821FC30D20000
:103DF8008A0108211430CD008A010821D230C4007C
:103E0800B830C5008A0108218A150A16682F3C08AF
:103E1800A0003D08A100EC30A30095308A017F2066
:103E28008A150A16031D2B2F8A010821FD30D2009E
:103E38008A0108211530CD008A0108217730C40095
:103E48006E30C5008A0108218A150A16682F3C08B9
:103E5800A0003D08A100F630A3006A308A017F2047
:103E68008A150A16031D4B2F8A010821FE30D2003D
:103E78008A0108211630CD008A0108213130C4009A
:103E88002130C5008A0108218A150A16682F3C08C6
:103E9800A0003D08A100FF30A300FF308A017F2069
:103EA8008A150A16031D682F8A010821FF30D200DF
:103EB8008A0108211730CD008A0108216A30C40020
:103EC800A930C5008A0108218A0108215208A800E2
:103ED800FF30A200A30101308A0105208A010821D0
:103EE8000800030183160C18FF308312BE0003017B
:103EF8000C18FF30C0003E08840040088A01922058
:103F0800C000C1006400400841048A150A1603195C
:103F1800AA2FD30A53084C02031DFF30FF3ABE00F4
:103F28005008003C031DFF30FF3AC0003E088400E3
:103F380040088A019220C000C10064004008410482
:103F48008A150A160319A92F54140C1009008A019E
:0A3F5800082163008A150A16AD2F38
:02400E00C420CC
:00000001FF
