:04000000B2015229CE
:100008000800A9004030A0004230A1000F30A40031
:10001800A5011821AA012108031919282A14552015
:10002800FC3E031C1928AA1455202003AB00280FF6
:100038002128FF30A400A5002C282808A500A40129
:10004800A600A7012B0A03192C28A200A30132211C
:10005800A90B45281708CF39A41B2038241B1038B2
:100068000C389700250895008316071183122B0872
:100078008316920083121208FC392A04043892006D
:100088004D29A90B54281D08CF39A41B2038241B3F
:1000980010380C389D0025089B00831687103A28D5
:1000A8004D29A10CA00CA10CA00C08000408A70065
:1000B80086110611061183168611061106110F30D6
:1000C800860583122708B21886283A30A100FC302A
:1000D800E5203330A6009A201030A1006830E520D2
:1000E8009A206430E4202230A6009A202830852007
:1000F8000C3085200130852006308520B214270871
:1001080086283214A600321C94280611033C031CCE
:10011800992899200730A100D030E5200314080061
:100128003214FE3C03194D290615321C321086156F
:100138000F3086052608F03986048611A60E321877
:100148009A283230E42003140800B313290803194D
:10015800B3170530A8002730A3001030BF200330A4
:10016800A300E830BF20A3016430BF20A3010A30F8
:10017800BF202408C628A2002508A1002408A00042
:1001880016212008A000A8030319B313290803198E
:10019800D0282802031808002008031DB313B31B36
:1001A8000800303E4829A301A200FF30A207031C23
:1001B800A307031C4D290330A100DF30E520D9280F
:1001C800A101E83EA000A109FC30031CEE28A0070D
:1001D8000318EB28A0076400A10FEB282018F428C7
:1001E800A01CF8280000F8280800A2000330FF2807
:1001F800A2000430FF28A80023082102031D0629B5
:10020800220820020430031801300319023028059F
:10021800031DFF304D290038031DFF300405031D61
:10022800FF304D29A501A4011030A600210DA40D11
:10023800A50D2208A4022308031C230FA5020318F6
:100248002C292208A40723080318230FA507031045
:10025800A00DA10DA60B1A2920084D291030A800C1
:10026800A101A001A70CA60C031C40292208A00785
:1002780023080318230FA107A10CA00CA50CA40C9C
:10028800A80B362924084D29840031088A00300833
:10029800820083130313831264000800C0309F0098
:1002A800831677308F008F3085008601950187018E
:1002B80081018312C0308B00831696018C018D0159
:1002C80083128C018D01831603170B308800890176
:1002D8008312031301309F00831680309F0083121E
:1002E8000317A130870088018901831685018312CD
:1002F800031390010F3097009D0183169C01013074
:100308009D008B1783128A110A128F298B1B0800F4
:100318008A150A162D2B8A018A21CC018A018A2185
:1003280083169E0183128A018A219E018A018A21ED
:10033800B801B9018A018A214F108A018A218512E0
:100348008A018A21C830CD008A018A21FE308A01BB
:100358005B2001308A015B208A018A2164008A11AE
:100368000A12851B052A8A018A219F148A018A217B
:1003780064008A110A120C1FBA298A018A21FF30E7
:10038800A600A7011E08A200A3018A013221BA0013
:100398002508BB0083161E0883123A07B8003B08DD
:1003A8000318013EB9008A018A213808A0003908DB
:1003B800A1000430A200A3018A011621CD008A0100
:1003C8008A214D08A800FF30A200A30101308A014C
:1003D80005208A018A21FE308A015B2080308A014B
:1003E8005B200330A9004D08A400A5015A30B000D5
:1003F800B1018A01A9208A018A218A01B0298A01CA
:100408008A218A018A2164008A150A160519D52AC3
:100418008A018A218A150A161C238A018A21CC0A94
:100428008A018A218A018A2164004C08013C8A11C8
:100438000A12031D5C2A8A018A2110108A018A2166
:1004480083168C0183128A018A218C018A018A21F0
:100458008F018A018A218E018A018A21CE018A01AF
:100468008A21C8018A018A21C9018A018A21CA010F
:100478008A018A21CB018A018A21C001C1018A012E
:100488008A21C201C3018A018A21C401C5018A01E6
:100498008A21C601C7018A018A2183160C14831296
:1004A8008A018A2110148A018A218A150A16D32AF8
:1004B80064004C08023C8A110A12031D902A8A0122
:1004C8008A2110108A018A2183168C0183128A01DD
:1004D8008A218C018A018A210E08C0008A018A219A
:1004E8000F08C1008A018A218F018A018A218E01A1
:1004F8008A018A214E08C9008A018A21CE018A010F
:100508008A2183160C1483128A018A2110148A0105
:100518008A218A150A16D32A64004C08033C8A11DA
:100528000A12031DC42A8A018A2110108A018A210D
:1005380083168C0183128A018A218C018A018A21FF
:100548000E08C2008A018A210F08C3008A018A2185
:100558008F018A018A218E018A018A214E08CA00E8
:100568008A018A21CE018A018A2183160C148312FA
:100578008A018A2110148A018A218A150A16D32A27
:1005880064004C08043C8A150A16031DD32A8A0104
:100598008A2110108A018A2183168C0183128A010C
:1005A8008A218C018A018A210E08C4008A018A21C5
:1005B8000F08C5008A018A214E08CB008A018A21CA
:1005C80049084A07BA00BB01BB0D3A084B07C800E7
:1005D8008A018A214808A000A1010330A200A301D2
:1005E8008A011621C8008A018A2140084207BA00F8
:1005F800BB01BB0D44083A07BE003B080318013E87
:10060800BF008A018A213E08A0003F08A1000330EC
:10061800A200A3018A011621C6008A018A21410885
:100628004307BA00BB01BB0D45083A07BE003B08AB
:100638000318013EBF008A018A213E08A0003F0836
:10064800A1000330A200A3018A011621C7008A0174
:100658008A216400143048028A110A12031C3E2BB6
:100668008A018A211430C8008A018A21C601C7017B
:100678008A018A218A018A21CC30A6000C30A70081
:100688004808A200A3018A013221BE002508BF0044
:100698008A018A214608A0004708A1001430A20058
:1006A800A3018A011621BA002108BB003A08BE0737
:1006B8003B080318013EBF078A018A219F148A015B
:1006C8008A2164008A110A120C1F632B8A018A216D
:1006D800FF30A600A7011E08A200A3018A0132214B
:1006E800BA002508BB0083161E0883123A07B80013
:1006F8003B080318013EB9008A018A213808A00086
:100708003908A100A301AA308A01F920BA003808E3
:10071800A0003908A1000130A30056308A01FC204E
:10072800BC003A0884003C088A010F21BC00BD00C7
:1007380064003C083D048A110A120319C42B8A017B
:100748008A213E08A0003F08A1000430A200A301AE
:100758008A011621BA002108BB003A08A6003B0806
:10076800A7000330A200A3018A013221BE00250898
:10077800BF008A018A218A110A12962C8A018A21CD
:100788008A018A213808A0003908A1000130A30095
:1007980056308A01F920BA003808A0003908A100AB
:1007A8000230A30000308A01FC20BC003A08840013
:1007B8003C088A010F21BC00BD0064003C083D04D0
:1007C8008A110A120319092C8A018A213E08A000FD
:1007D8003F08A1000330A200A3018A011621BA0034
:1007E8002108BB003A08A6003B08A7000230A20077
:1007F800A3018A013221BE002508BF008A018A218F
:100808008A110A12962C8A018A218A018A213808BB
:10081800A0003908A1000230A30000308A01F920A5
:10082800BA003808A0003908A1000230A300AC3093
:100838008A01FC20BC003A0884003C088A010F2188
:10084800BC00BD0064003C083D048A110A1203196B
:10085800392C8A018A210310BF0CBE0C8A018A2117
:100868008A110A12962C8A018A218A018A2138085B
:10087800A0003908A1000230A300AC308A01F92099
:10088800BA003808A0003908A1000330A300573087
:100898008A01FC20BC003A0884003C088A010F2128
:1008A800BC00BD0064003C083D048A110A1203190B
:1008B800722C8A018A213E08A0003F08A10003305B
:1008C800A200A3018A011621BE002108BF008A01E7
:1008D8008A218A110A12962C8A018A218A018A2180
:1008E8003808A0003908A1000330A30057308A0156
:1008F800FC208A110A12031D962C8A018A213E08BF
:10090800A0003F08A1000430A200A3018A0116211B
:10091800BE002108BF008A018A218A110A12962C7A
:100928008A018A218A018A218A018A213E08A00037
:100938003F08A1001E30A30061308A01F9208A1106
:100948000A12031DAF2C8A018A21CD018A018A214E
:100958008A150A16962A3E08A0003F08A1001E30F4
:10096800A30071308A01F9208A110A12031DC52CCF
:100978008A018A210130CD008A018A218A150A1646
:10098800962A3E08A0003F08A1001E30A30084302C
:100998008A01F9208A110A12031DDB2C8A018A2197
:1009A8000230CD008A018A218A150A16962A3E0845
:1009B800A0003F08A1001E30A30099308A01F92049
:1009C8008A110A12031DF12C8A018A210330CD00F5
:1009D8008A018A218A150A16962A3E08A0003F082D
:1009E800A1001E30A300AE308A01F9208A110A1234
:1009F800031D072D8A018A210430CD008A018A212E
:100A08008A150A16962A3E08A0003F08A1001E3043
:100A1800A300C3308A01F9208A110A12031D1D2D73
:100A28008A018A210530CD008A018A218A150A1691
:100A3800962A3E08A0003F08A1001E30A300D63029
:100A48008A01F9208A110A12031D332D8A018A218D
:100A58000630CD008A018A218A150A16962A3E0890
:100A6800A0003F08A1001E30A300EA308A01F92047
:100A78008A110A12031D492D8A018A210730CD00E7
:100A88008A018A218A150A16962A3E08A0003F087C
:100A9800A1001E30A300FF308A01F9208A110A1232
:100AA800031D5F2D8A018A210830CD008A018A2121
:100AB8008A150A16962A3E08A0003F08A1001F3092
:100AC800A30014308A01F9208A110A12031D752D1A
:100AD8008A018A210930CD008A018A218A150A16DD
:100AE800962A3E08A0003F08A1001F30A3002B3023
:100AF8008A01F9208A110A12031D8B2D8A018A2185
:100B08000A30CD008A018A218A150A16962A3E08DB
:100B1800A0003F08A1001F30A30041308A01F9203E
:100B28008A110A12031DA12D8A018A210B30CD00DA
:100B38008A018A218A150A16962A3E08A0003F08CB
:100B4800A1001F30A30055308A01F9208A110A122A
:100B5800031DB72D8A018A210C30CD008A018A2114
:100B68008A150A16962A3E08A0003F08A1001F30E1
:100B7800A3006B308A01F9208A110A12031DCD2DBA
:100B88008A018A210D30CD008A018A218A150A1628
:100B9800962A3E08A0003F08A1001F30A30082301B
:100BA8008A01F9208A110A12031DE32D8A018A217C
:100BB8000E30CD008A018A218A150A16962A3E0827
:100BC800A0003F08A1001F30A30098308A01F92037
:100BD8008A110A12031DF92D8A018A210F30CD00CE
:100BE8008A018A218A150A16962A3E08A0003F081B
:100BF800A1001F30A300B0308A01F9208A110A121F
:100C0800031D0F2E8A018A211030CD008A018A2106
:100C18008A150A16962A3E08A0003F08A1001F3030
:100C2800A300C8308A01F9208A110A12031D252E53
:100C38008A018A211130CD008A018A218A150A1673
:100C4800962A3E08A0003F08A1001F30A300DB3011
:100C58008A01F9208A110A12031D3B2E8A018A2172
:100C68001230CD008A018A218A150A16962A3E0872
:100C7800A0003F08A1001F30A300F1308A01F9202D
:100C88008A110A12031D512E8A018A211330CD00C0
:100C98008A018A218A150A16962A3E08A0003F086A
:100CA800A1002030A3000A308A01F9208A110A1213
:100CB800031D672E8A018A211430CD008A018A21FA
:100CC8008A150A16962A3E08A0003F08A10020307F
:100CD800A30022308A01F9208A110A12031D7D2EF1
:100CE8008A018A211530CD008A018A218A150A16BF
:100CF800962A3E08A0003F08A1002030A3003A3001
:100D08008A01F9208A110A12031D932E8A018A2169
:100D18001630CD008A018A218A150A16962A3E08BD
:100D2800A0003F08A1002030A30053308A01F92019
:100D38008A110A12031DA92E8A018A211730CD00B3
:100D48008A018A218A150A16962A3E08A0003F08B9
:100D5800A1002030A30068308A01F9208A110A1204
:100D6800031DBF2E8A018A211830CD008A018A21ED
:100D78008A150A16962A3E08A0003F08A1002030CE
:100D8800A3007D308A01F9208A110A12031DD52E8D
:100D98008A018A211930CD008A018A218A150A160A
:100DA800962A3E08A0003F08A1002030A3009630F4
:100DB8008A01F9208A110A12031DEB2E8A018A2161
:100DC8001A30CD008A018A218A150A16962A3E0809
:100DD800A0003F08A1002030A300B1308A01F9200B
:100DE8008A110A12031D012F8A018A211B30CD00A6
:100DF8008A018A218A150A16962A3E08A0003F0809
:100E0800A1002030A300CA308A01F9208A110A12F1
:100E1800031D172F8A018A211C30CD008A018A21DF
:100E28008A150A16962A3E08A0003F08A10020301D
:100E3800A300E3308A01F9208A110A12031D2D2F1D
:100E48008A018A211D30CD008A018A218A150A1655
:100E5800962A3E08A0003F08A1002030A300F930E0
:100E68008A01F9208A110A12031D432F8A018A2157
:100E78001E30CD008A018A218A150A16962A3E0854
:100E8800A0003F08A1002130A30010308A01F920FA
:100E98008A110A12031D592F8A018A211F30CD0099
:100EA8008A018A218A150A16962A3E08A0003F0858
:100EB800A1002130A3002B308A01F9208A110A12DF
:100EC800031D6F2F8A018A212030CD008A018A21D3
:100ED8008A150A16962A3E08A0003F08A10021306C
:100EE800A30047308A01F9208A110A12031D852FB1
:100EF8008A018A212130CD008A018A218A150A16A1
:100F0800962A3E08A0003F08A1002130A3006230C5
:100F18008A01F9208A110A12031D9B2F8A018A214E
:100F28002230CD008A018A218A150A16962A3E089F
:100F3800A0003F08A1002130A30079308A01F920E0
:100F48008A110A12031DB12F8A018A212330CD008C
:100F58008A018A218A150A16962A3E08A0003F08A7
:100F6800A1002130A30090308A01F9208A110A12C9
:100F7800031DC72F8A018A212430CD008A018A21C6
:100F88008A150A16962A3E08A0003F08A1002130BB
:100F9800A300AC308A01F9208A110A12031DDD2F43
:100FA8008A018A212530CD008A018A218A150A16EC
:100FB800962A3E08A0003F08A1002130A300C830AF
:100FC8008A01F9208A110A12031DF32F8A018A2146
:100FD8002630CD008A018A218A150A16962A3E08EB
:100FE800A0003F08A1002130A300E3308A01F920C6
:100FF8008A150A12031D09288A018A212730CD0083
:101008008A018A218A150A16962A3E08A0003F08F6
:10101800A1002130A300FF308A01F9208A150A12A5
:10102800031D1F288A018A212830CD008A018A21C0
:101038008A150A16962A3E08A0003F08A100223009
:10104800A3001A308A01F9208A150A12031D3528CF
:101058008A018A212930CD008A018A218A150A1637
:10106800962A3E08A0003F08A1002230A300353090
:101078008A01F9208A150A12031D4B288A018A2140
:101088002A30CD008A018A218A150A16962A3E0836
:10109800A0003F08A1002230A30051308A01F920A6
:1010A8008A150A12031D61288A018A212B30CD0076
:1010B8008A018A218A150A16962A3E08A0003F0846
:1010C800A1002230A3006E308A01F9208A150A1285
:1010D800031D77288A018A212C30CD008A018A21B4
:1010E8008A150A16962A3E08A0003F08A100223059
:1010F800A3008A308A01F9208A150A12031D8D2857
:101108008A018A212D30CD008A018A218A150A1682
:10111800962A3E08A0003F08A1002230A300A6306E
:101128008A01F9208A150A12031DA3288A018A2137
:101138002E30CD008A018A218A150A16962A3E0881
:10114800A0003F08A1002230A300C1308A01F92085
:101158008A150A12031DB9288A018A212F30CD0069
:101168008A018A218A150A16962A3E08A0003F0895
:10117800A1002230A300DE308A01F9208A150A1264
:10118800031DCF288A018A213030CD008A018A21A7
:101198008A150A16962A3E08A0003F08A1002230A8
:1011A800A300FF308A01F9208A150A12031DE528D9
:1011B8008A018A213130CD008A018A218A150A16CE
:1011C800962A3E08A0003F08A1002330A3001E3045
:1011D8008A01F9208A150A12031DFB288A018A212F
:1011E8003230CD008A018A218A150A16962A3E08CD
:1011F800A0003F08A1002330A3003C308A01F92059
:101208008A150A12031D11298A018A213330CD005B
:101218008A018A218A150A16962A3E08A0003F08E4
:10122800A1002330A3005C308A01F9208A150A1234
:10123800031D27298A018A213430CD008A018A2199
:101248008A150A16962A3E08A0003F08A1002330F6
:10125800A30079308A01F9208A150A12031D3D2955
:101268008A018A213530CD008A018A218A150A1619
:10127800962A3E08A0003F08A1002330A30094301E
:101288008A01F9208A150A12031D53298A018A2125
:101298003630CD008A018A218A150A16962A3E0818
:1012A800A0003F08A1002330A300B5308A01F9202F
:1012B8008A150A12031D69298A018A213730CD004F
:1012C8008A018A218A150A16962A3E08A0003F0834
:1012D800A1002330A300D6308A01F9208A150A120A
:1012E800031D7F298A018A213830CD008A018A218D
:1012F8008A150A16962A3E08A0003F08A100233046
:10130800A300F7308A01F9208A150A12031D9529CE
:101318008A018A213930CD008A018A218A150A1664
:10132800962A3E08A0003F08A1002430A3001830E8
:101338008A01F9208A150A12031DAB298A018A211C
:101348003A30CD008A018A218A150A16962A3E0863
:10135800A0003F08A1002430A30037308A01F920FB
:101368008A150A12031DC1298A018A213B30CD0042
:101378008A018A218A150A16962A3E08A0003F0883
:10138800A1002430A30055308A01F9208A150A12D9
:10139800031DD7298A018A213C30CD008A018A2180
:1013A8008A150A16962A3E08A0003F08A100243094
:1013B800A30078308A01F9208A150A12031DED2945
:1013C8008A018A213D30CD008A018A218A150A16B0
:1013D800962A3E08A0003F08A1002430A3009C30B4
:1013E8008A01F9208A150A12031D032A8A018A2113
:1013F8003E30CD008A018A218A150A16962A3E08AF
:10140800A0003F08A1002430A300BF308A01F920C2
:101418008A150A12031D192A8A018A213F30CD0034
:101428008A018A218A150A16962A3E08A0003F08D2
:10143800A1002430A300E2308A01F9208A150A129B
:10144800031D2F2A8A018A214030CD008A018A2172
:101458008A150A16962A3E08A0003F08A1002530E2
:10146800A30001308A01F9208A150A12031D452AB2
:101478008A018A214130CD008A018A218A150A16FB
:10148800962A3E08A0003F08A1002530A30020307E
:101498008A01F9208A150A12031D5B2A8A018A210A
:1014A8004230CD008A018A218A150A16962A3E08FA
:1014B800A0003F08A1002530A30044308A01F9208C
:1014C8008A150A12031D712A8A018A214330CD0028
:1014D8008A018A218A150A16962A3E08A0003F0822
:1014E800A1002530A30069308A01F9208A150A1263
:1014F800031D872A8A018A214430CD008A018A2166
:101508008A150A16962A3E08A0003F08A100253031
:10151800A3008E308A01F9208A150A12031D9D2A1C
:101528008A018A214530CD008A018A218A150A1646
:10153800962A3E08A0003F08A1002530A300B0303D
:101548008A01F9208A150A12031DB32A8A018A2101
:101558004630CD008A018A218A150A16962A3E0845
:10156800A0003F08A1002530A300D0308A01F9204F
:101578008A150A12031DC92A8A018A214730CD001B
:101588008A018A218A150A16962A3E08A0003F0871
:10159800A1002530A300F8308A01F9208A150A1223
:1015A800031DDF2A8A018A214830CD008A018A2159
:1015B8008A150A16962A3E08A0003F08A100263080
:1015C800A30021308A01F9208A150A12031DF52A81
:1015D8008A018A214930CD008A018A218A150A1692
:1015E800962A3E08A0003F08A1002630A3004730F5
:1015F8008A01F9208A150A12031D0B2B8A018A21F8
:101608004A30CD008A018A218A150A16962A3E0890
:10161800A0003F08A1002630A3006E308A01F920FF
:101628008A150A12031D212B8A018A214B30CD000D
:101638008A018A218A150A16962A3E08A0003F08C0
:10164800A1002630A30090308A01F9208A150A12D9
:10165800031D372B8A018A214C30CD008A018A214B
:101668008A150A16962A3E08A0003F08A1002630CF
:10167800A300B4308A01F9208A150A12031D4D2BE4
:101688008A018A214D30CD008A018A218A150A16DD
:10169800962A3E08A0003F08A1002630A300DC30AF
:1016A8008A01F9208A150A12031D632B8A018A21EF
:1016B8004E30CD008A018A218A150A16962A3E08DC
:1016C800A0003F08A1002730A30004308A01F920B8
:1016D8008A150A12031D792B8A018A214F30CD0001
:1016E8008A018A218A150A16962A3E08A0003F0810
:1016F800A1002730A3002F308A01F9208A150A1289
:10170800031D8F2B8A018A215030CD008A018A213E
:101718008A150A16962A3E08A0003F08A10027301D
:10172800A30058308A01F9208A150A12031DA52B37
:101738008A018A215130CD008A018A218A150A1628
:10174800962A3E08A0003F08A1002730A3007B305E
:101758008A01F9208A150A12031DBB2B8A018A21E6
:101768005230CD008A018A218A150A16962A3E0827
:10177800A0003F08A1002730A300A0308A01F9206B
:101788008A150A12031DD12B8A018A215330CD00F4
:101798008A018A218A150A16962A3E08A0003F085F
:1017A800A1002730A300CC308A01F9208A150A123B
:1017B800031DE72B8A018A215430CD008A018A2132
:1017C8008A150A16962A3E08A0003F08A10027306D
:1017D800A300F8308A01F9208A150A12031DFD2B8F
:1017E8008A018A215530CD008A018A218A150A1674
:1017F800962A3E08A0003F08A1002830A300243004
:101808008A01F9208A150A12031D132C8A018A21DC
:101818005630CD008A018A218A150A16962A3E0872
:10182800A0003F08A1002830A30050308A01F92009
:101838008A150A12031D292C8A018A215730CD00E6
:101848008A018A218A150A16962A3E08A0003F08AE
:10185800A1002830A30078308A01F9208A150A12DD
:10186800031D3F2C8A018A215830CD008A018A2124
:101878008A150A16962A3E08A0003F08A1002830BB
:10188800A300A1308A01F9208A150A12031D552CDC
:101898008A018A215930CD008A018A218A150A16BF
:1018A800962A3E08A0003F08A1002830A300CF30A8
:1018B8008A01F9208A150A12031D6B2C8A018A21D4
:1018C8005A30CD008A018A218A150A16962A3E08BE
:1018D800A0003F08A1002830A300FF308A01F920AA
:1018E8008A150A12031D812C8A018A215B30CD00DA
:1018F8008A018A218A150A16962A3E08A0003F08FE
:10190800A1002930A3002F308A01F9208A150A1274
:10191800031D972C8A018A215C30CD008A018A2117
:101928008A150A16962A3E08A0003F08A100293009
:10193800A3005E308A01F9208A150A12031DAD2C16
:101948008A018A215D30CD008A018A218A150A160A
:10195800962A3E08A0003F08A1002930A30087303E
:101968008A01F9208A150A12031DC32C8A018A21CB
:101978005E30CD008A018A218A150A16962A3E0809
:10198800A0003F08A1002930A300B2308A01F92045
:101998008A150A12031DD92C8A018A215F30CD00CD
:1019A8008A018A218A150A16962A3E08A0003F084D
:1019B800A1002930A300E3308A01F9208A150A1210
:1019C800031DEF2C8A018A216030CD008A018A210B
:1019D8008A150A16962A3E08A0003F08A1002A3058
:1019E800A30014308A01F9208A150A12031D052D57
:1019F8008A018A216130CD008A018A218A150A1656
:101A0800962A3E08A0003F08A1002A30A3004730CC
:101A18008A01F9208A150A12031D1B2D8A018A21C1
:101A28006230CD008A018A218A150A16962A3E0854
:101A3800A0003F08A1002A30A30073308A01F920D2
:101A48008A150A12031D312D8A018A216330CD00BF
:101A58008A018A218A150A16962A3E08A0003F089C
:101A6800A1002A30A300A1308A01F9208A150A12A0
:101A7800031D472D8A018A216430CD008A018A21FD
:101A88008A150A16962A3E08A0003F08A1002A30A7
:101A9800A300D6308A01F9208A150A12031D5D2D8C
:101AA8008A018A216530CD008A018A218A150A16A1
:101AB800962A3E08A0003F08A1002B30A3000C3056
:101AC8008A01F9208A150A12031D732D8A018A21B9
:101AD8006630CD008A018A218A150A16962A3E08A0
:101AE800A0003F08A1002B30A30041308A01F92053
:101AF8008A150A12031D892D8A018A216730CD00B3
:101B08008A018A218A150A16962A3E08A0003F08EB
:101B1800A1002B30A30076308A01F9208A150A1219
:101B2800031D9F2D8A018A216830CD008A018A21F0
:101B38008A150A16962A3E08A0003F08A1002B30F5
:101B4800A300A5308A01F9208A150A12031DB52DB4
:101B58008A018A216930CD008A018A218A150A16EC
:101B6800962A3E08A0003F08A1002B30A300D430DD
:101B78008A01F9208A150A12031DCB2D8A018A21B0
:101B88006A30CD008A018A218A150A16962A3E08EB
:101B9800A0003F08A1002C30A3000A308A01F920D8
:101BA8008A150A12031DE12D8A018A216B30CD00A6
:101BB8008A018A218A150A16962A3E08A0003F083B
:101BC800A1002C30A30043308A01F9208A150A129B
:101BD800031DF72D8A018A216C30CD008A018A21E4
:101BE8008A150A16962A3E08A0003F08A1002C3044
:101BF800A3007E308A01F9208A150A12031D0D2ED2
:101C08008A018A216D30CD008A018A218A150A1637
:101C1800962A3E08A0003F08A1002C30A300B83047
:101C28008A01F9208A150A12031D232E8A018A21A6
:101C38006E30CD008A018A218A150A16962A3E0836
:101C4800A0003F08A1002C30A300ED308A01F92044
:101C58008A150A12031D392E8A018A216F30CD0098
:101C68008A018A218A150A16962A3E08A0003F088A
:101C7800A1002D30A30022308A01F9208A150A120A
:101C8800031D4F2E8A018A217030CD008A018A21D6
:101C98008A150A16962A3E08A0003F08A1002D3092
:101CA800A3005E308A01F9208A150A12031D652EE9
:101CB8008A018A217130CD008A018A218A150A1683
:101CC800962A3E08A0003F08A1002D30A3009C30B2
:101CD8008A01F9208A150A12031D7B2E8A018A219E
:101CE8007230CD008A018A218A150A16962A3E0882
:101CF800A0003F08A1002D30A300D8308A01F920A8
:101D08008A150A12031D912E8A018A217330CD008B
:101D18008A018A218A150A16962A3E08A0003F08D9
:101D2800A1002E30A30015308A01F9208A150A1265
:101D3800031DA72E8A018A217430CD008A018A21C9
:101D48008A150A16962A3E08A0003F08A1002E30E0
:101D5800A3004C308A01F9208A150A12031DBD2EF2
:101D68008A018A217530CD008A018A218A150A16CE
:101D7800962A3E08A0003F08A1002E30A300873015
:101D88008A01F9208A150A12031DD32E8A018A2195
:101D98007630CD008A018A218A150A16962A3E08CD
:101DA800A0003F08A1002E30A300CA308A01F92004
:101DB8008A150A12031DE92E8A018A217730CD007F
:101DC8008A018A218A150A16962A3E08A0003F0829
:101DD800A1002F30A3000C308A01F9208A150A12BD
:101DE800031DFF2E8A018A217830CD008A018A21BD
:101DF8008A150A16962A3E08A0003F08A1002F302F
:101E0800A3004F308A01F9208A150A12031D152FE5
:101E18008A018A217930CD008A018A218A150A1619
:101E2800962A3E08A0003F08A1002F30A300913059
:101E38008A01F9208A150A12031D2B2F8A018A218B
:101E48007A30CD008A018A218A150A16962A3E0818
:101E5800A0003F08A1002F30A300CF308A01F9204D
:101E68008A150A12031D412F8A018A217B30CD0071
:101E78008A018A218A150A16962A3E08A0003F0878
:101E8800A1003030A3000F308A01F9208A150A1208
:101E9800031D572F8A018A217C30CD008A018A21AF
:101EA8008A150A16962A3E08A0003F08A10030307D
:101EB800A30054308A01F9208A150A12031D6D2FD8
:101EC8008A018A217D30CD008A018A218A150A1665
:101ED800962A3E08A0003F08A1003030A3009930A0
:101EE8008A01F9208A150A12031D832F8A018A2183
:101EF8007E30CD008A018A218A150A16962A3E0864
:101F0800A0003F08A1003030A300E3308A01F92087
:101F18008A150A12031D992F8A018A217F30CD0064
:101F28008A018A218A150A16962A3E08A0003F08C7
:101F3800A1003130A3002B308A01F9208A150A123A
:101F4800031DAF2F8A018A218030CD008A018A21A2
:101F58008A150A16962A3E08A0003F08A1003130CB
:101F6800A3006C308A01F9208A150A12031DC52FB7
:101F78008A018A218130CD008A018A218A150A16B0
:101F8800962A3E08A0003F08A1003130A300AF30D8
:101F98008A01F9208A150A12031DDB2F8A018A217A
:101FA8008230CD008A018A218A150A16962A3E08AF
:101FB800A0003F08A1003130A300F9308A01F920C0
:101FC8008A150A12031DF12F8A018A218330CD0058
:101FD8008A018A218A150A16962A3E08A0003F0817
:101FE800A1003230A30045308A01F9208A110A166F
:101FF800031D07288A018A218430CD008A018A219D
:102008008A150A16962A3E08A0003F08A100323019
:10201800A30091308A01F9208A110A16031D1D2890
:102028008A018A218530CD008A018A218A150A16FB
:10203800962A3E08A0003F08A1003230A300D23003
:102048008A01F9208A110A16031D33288A018A2178
:102058008630CD008A018A218A150A16962A3E08FA
:10206800A0003F08A1003330A30019308A01F920ED
:102078008A110A16031D49288A018A218730CD0052
:102088008A018A218A150A16962A3E08A0003F0866
:10209800A1003330A3006C308A01F9208A110A1696
:1020A800031D5F288A018A218830CD008A018A2190
:1020B8008A150A16962A3E08A0003F08A100333068
:1020C800A300C4308A01F9208A110A16031D752855
:1020D8008A018A218930CD008A018A218A150A1647
:1020E800962A3E08A0003F08A1003430A3001C3007
:1020F8008A01F9208A110A16031D8B288A018A2170
:102108008A30CD008A018A218A150A16962A3E0845
:10211800A0003F08A1003430A3006E308A01F920E6
:102128008A110A16031DA1288A018A218B30CD0045
:102138008A018A218A150A16962A3E08A0003F08B5
:10214800A1003430A300B6308A01F9208A110A169A
:10215800031DB7288A018A218C30CD008A018A2183
:102168008A150A16962A3E08A0003F08A1003530B5
:10217800A30005308A01F9208A110A16031DCD280B
:102188008A018A218D30CD008A018A218A150A1692
:10219800962A3E08A0003F08A1003530A30062300F
:1021A8008A01F9208A110A16031DE3288A018A2167
:1021B8008E30CD008A018A218A150A16962A3E0891
:1021C800A0003F08A1003530A300BD308A01F920E6
:1021D8008A110A16031DF9288A018A218F30CD0039
:1021E8008A018A218A150A16962A3E08A0003F0805
:1021F800A1003630A30018308A01F9208A110A1686
:10220800031D0F298A018A219030CD008A018A2175
:102218008A150A16962A3E08A0003F08A100363003
:10222800A30075308A01F9208A110A16031D252991
:102238008A018A219130CD008A018A218A150A16DD
:10224800962A3E08A0003F08A1003630A300CB30F4
:102258008A01F9208A110A16031D3B298A018A215D
:102268009230CD008A018A218A150A16962A3E08DC
:10227800A0003F08A1003730A30021308A01F920CF
:102288008A110A16031D51298A018A219330CD002B
:102298008A018A218A150A16962A3E08A0003F0854
:1022A800A1003730A30080308A01F9208A110A166C
:1022B800031D67298A018A219430CD008A018A2169
:1022C8008A150A16962A3E08A0003F08A100373052
:1022D800A300E2308A01F9208A110A16031D7D291C
:1022E8008A018A219530CD008A018A218A150A1629
:1022F800962A3E08A0003F08A1003830A3004830C5
:102308008A01F9208A110A16031D93298A018A2154
:102318009630CD008A018A218A150A16962A3E0827
:10232800A0003F08A1003830A300A9308A01F92095
:102338008A110A16031DA9298A018A219730CD001E
:102348008A018A218A150A16962A3E08A0003F08A3
:10235800A1003930A30004308A01F9208A110A1635
:10236800031DBF298A018A219830CD008A018A215C
:102378008A150A16962A3E08A0003F08A10039309F
:10238800A30067308A01F9208A110A16031DD5298E
:102398008A018A219930CD008A018A218A150A1674
:1023A800962A3E08A0003F08A1003930A300D33088
:1023B8008A01F9208A110A16031DEB298A018A214C
:1023C8009A30CD008A018A218A150A16962A3E0873
:1023D800A0003F08A1003A30A30040308A01F9204C
:1023E8008A110A16031D012A8A018A219B30CD0011
:1023F8008A018A218A150A16962A3E08A0003F08F3
:10240800A1003A30A300AE308A01F9208A110A16D9
:10241800031D172A8A018A219C30CD008A018A214E
:102428008A150A16962A3E08A0003F08A1003B30EC
:10243800A3001C308A01F9208A110A16031D2D2ACF
:102448008A018A219D30CD008A018A218A150A16BF
:10245800962A3E08A0003F08A1003B30A300823026
:102468008A01F9208A110A16031D432A8A018A2142
:102478009E30CD008A018A218A150A16962A3E08BE
:10248800A0003F08A1003B30A300ED308A01F920ED
:102498008A110A16031D592A8A018A219F30CD0004
:1024A8008A018A218A150A16962A3E08A0003F0842
:1024B800A1003C30A30064308A01F9208A110A1671
:1024C800031D6F2A8A018A21A030CD008A018A2142
:1024D8008A150A16962A3E08A0003F08A1003C303B
:1024E800A300DE308A01F9208A110A16031D852A05
:1024F8008A018A21A130CD008A018A218A150A160B
:10250800962A3E08A0003F08A1003D30A30056309F
:102518008A01F9208A110A16031D9B2A8A018A2139
:10252800A230CD008A018A218A150A16962A3E0809
:10253800A0003F08A1003D30A300C4308A01F92063
:102548008A110A16031DB12A8A018A21A330CD00F7
:102558008A018A218A150A16962A3E08A0003F0891
:10256800A1003E30A30035308A01F9208A110A16ED
:10257800031DC72A8A018A21A430CD008A018A2135
:102588008A150A16962A3E08A0003F08A1003E3088
:10259800A300B5308A01F9208A110A16031DDD2A25
:1025A8008A018A21A530CD008A018A218A150A1656
:1025B800962A3E08A0003F08A1003F30A30039300A
:1025C8008A01F9208A110A16031DF32A8A018A2131
:1025D800A630CD008A018A218A150A16962A3E0855
:1025E800A0003F08A1003F30A300EE308A01F92087
:1025F8008A110A16031D092B8A018A21A730CD00EA
:102608008A018A218A150A16962A3E08A0003F08E0
:10261800A1004030A30072308A01F9208A110A16FD
:10262800031D1F2B8A018A21A830CD008A018A2127
:102638008A150A16962A3E08A0003F08A1004030D5
:10264800A300BD308A01F9208A110A16031D352B13
:102658008A018A21A930CD008A018A218A150A16A1
:10266800962A3E08A0003F08A1004130A3003D3053
:102678008A01F9208A110A16031D4B2B8A018A2127
:10268800AA30CD008A018A218A150A16962A3E08A0
:10269800A0003F08A1004130A300CF308A01F920F3
:1026A8008A110A16031D612B8A018A21AB30CD00DD
:1026B8008A018A218A150A16962A3E08A0003F0830
:1026C800A1004230A30069308A01F9208A110A1654
:1026D800031D772B8A018A21AC30CD008A018A211B
:1026E8008A150A16962A3E08A0003F08A100433022
:1026F800A30001308A01F9208A110A16031D8D2BC7
:102708008A018A21AD30CD008A018A218A150A16EC
:10271800962A3E08A0003F08A1004330A300953048
:102728008A01F9208A110A16031DA32B8A018A211E
:10273800AE30CD008A018A218A150A16962A3E08EB
:10274800A0003F08A1004430A3001F308A01F920EF
:102758008A110A16031DB92B8A018A21AF30CD00D0
:102768008A018A218A150A16962A3E08A0003F087F
:10277800A1004430A300B2308A01F9208A110A1658
:10278800031DCF2B8A018A21B030CD008A018A210E
:102798008A150A16962A3E08A0003F08A10045306F
:1027A800A30052308A01F9208A110A16031DE52B6D
:1027B8008A018A21B130CD008A018A218A150A1638
:1027C800962A3E08A0003F08A1004530A300F73034
:1027D8008A01F9208A110A16031DFB2B8A018A2116
:1027E800B230CD008A018A218A150A16962A3E0837
:1027F800A0003F08A1004630A300A5308A01F920B7
:102808008A110A16031D112C8A018A21B330CD00C2
:102818008A018A218A150A16962A3E08A0003F08CE
:10282800A1004730A3004C308A01F9208A110A160A
:10283800031D272C8A018A21B430CD008A018A2100
:102848008A150A16962A3E08A0003F08A1004730BC
:10285800A300E4308A01F9208A110A16031D3D2CD1
:102868008A018A21B530CD008A018A218A150A1683
:10287800962A3E08A0003F08A1004830A3008930EE
:102888008A01F9208A110A16031D532C8A018A210C
:10289800B630CD008A018A218A150A16962A3E0882
:1028A800A0003F08A1004930A30042308A01F92066
:1028B8008A110A16031D692C8A018A21B730CD00B6
:1028C8008A018A218A150A16962A3E08A0003F081E
:1028D800A1004930A300FC308A01F9208A110A16A8
:1028E800031D7F2C8A018A21B830CD008A018A21F4
:1028F8008A150A16962A3E08A0003F08A1004A3009
:10290800A300BA308A01F9208A110A16031D952CF2
:102918008A018A21B930CD008A018A218A150A16CE
:10292800962A3E08A0003F08A1004B30A300723051
:102938008A01F9208A110A16031DAB2C8A018A2103
:10294800BA30CD008A018A218A150A16962A3E08CD
:10295800A0003F08A1004C30A3001F308A01F920D5
:102968008A110A16031DC12C8A018A21BB30CD00A9
:102978008A018A218A150A16962A3E08A0003F086D
:10298800A1004C30A300DF308A01F9208A110A1611
:10299800031DD72C8A018A21BC30CD008A018A21E7
:1029A8008A150A16962A3E08A0003F08A1004D3055
:1029B800A300B2308A01F9208A110A16031DED2CF2
:1029C8008A018A21BD30CD008A018A218A150A161A
:1029D800962A3E08A0003F08A1004E30A30084308C
:1029E8008A01F9208A110A16031D032D8A018A21FA
:1029F800BE30CD008A018A218A150A16962A3E0819
:102A0800A0003F08A1004F30A30061308A01F920DF
:102A18008A110A16031D192D8A018A21BF30CD009B
:102A28008A018A218A150A16962A3E08A0003F08BC
:102A3800A1005030A3003C308A01F9208A110A16FF
:102A4800031D2F2D8A018A21C030CD008A018A21D9
:102A58008A150A16962A3E08A0003F08A1005130A0
:102A6800A30004308A01F9208A110A16031D452D96
:102A78008A018A21C130CD008A018A218A150A1665
:102A8800962A3E08A0003F08A1005130A300DC3080
:102A98008A01F9208A110A16031D5B2D8A018A21F1
:102AA800C230CD008A018A218A150A16962A3E0864
:102AB800A0003F08A1005230A300CE308A01F920BF
:102AC8008A110A16031D712D8A018A21C330CD008F
:102AD8008A018A218A150A16962A3E08A0003F080C
:102AE800A1005330A300C2308A01F9208A110A16C6
:102AF800031D872D8A018A21C430CD008A018A21CD
:102B08008A150A16962A3E08A0003F08A1005430EC
:102B1800A300AF308A01F9208A110A16031D9D2DE2
:102B28008A018A21C530CD008A018A218A150A16B0
:102B3800962A3E08A0003F08A1005530A3008B301C
:102B48008A01F9208A110A16031DB32D8A018A21E8
:102B5800C630CD008A018A218A150A16962A3E08AF
:102B6800A0003F08A1005630A30073308A01F92065
:102B78008A110A16031DC92D8A018A21C730CD0082
:102B88008A018A218A150A16962A3E08A0003F085B
:102B9800A1005730A30081308A01F9208A110A1652
:102BA800031DDF2D8A018A21C830CD008A018A21C0
:102BB8008A150A16962A3E08A0003F08A100583038
:102BC800A30095308A01F9208A110A16031DF52DF4
:102BD8008A018A21C930CD008A018A218A150A16FC
:102BE800962A3E08A0003F08A1005930A300B33040
:102BF8008A01F9208A110A16031D0B2E8A018A21DF
:102C0800CA30CD008A018A218A150A16962A3E08FA
:102C1800A0003F08A1005A30A300D4308A01F9204F
:102C28008A110A16031D212E8A018A21CB30CD0074
:102C38008A018A218A150A16962A3E08A0003F08AA
:102C4800A1005B30A300D9308A01F9208A110A1645
:102C5800031D372E8A018A21CC30CD008A018A21B2
:102C68008A150A16962A3E08A0003F08A1005C3083
:102C7800A300F8308A01F9208A110A16031D4D2E87
:102C88008A018A21CD30CD008A018A218A150A1647
:102C9800962A3E08A0003F08A1005E30A3004130FC
:102CA8008A01F9208A110A16031D632E8A018A21D6
:102CB800CE30CD008A018A218A150A16962A3E0846
:102CC800A0003F08A1005F30A30085308A01F920E9
:102CD8008A110A16031D792E8A018A21CF30CD0068
:102CE8008A018A218A150A16962A3E08A0003F08FA
:102CF800A1006030A300CE308A01F9208A110A169B
:102D0800031D8F2E8A018A21D030CD008A018A21A5
:102D18008A150A16962A3E08A0003F08A1006230CC
:102D2800A3001F308A01F9208A110A16031DA52E57
:102D38008A018A21D130CD008A018A218A150A1692
:102D4800962A3E08A0003F08A1006330A300503037
:102D58008A01F9208A110A16031DBB2E8A018A21CD
:102D6800D230CD008A018A218A150A16962A3E0891
:102D7800A0003F08A1006430A30094308A01F92024
:102D88008A110A16031DD12E8A018A21D330CD005B
:102D98008A018A218A150A16962A3E08A0003F0849
:102DA800A1006630A3000B308A01F9208A110A16A7
:102DB800031DE72E8A018A21D430CD008A018A2199
:102DC8008A150A16962A3E08A0003F08A100673017
:102DD800A3008A308A01F9208A110A16031DFD2EE4
:102DE8008A018A21D530CD008A018A218A150A16DE
:102DF800962A3E08A0003F08A1006930A3001230BF
:102E08008A01F9208A110A16031D132F8A018A21C3
:102E1800D630CD008A018A218A150A16962A3E08DC
:102E2800A0003F08A1006A30A30097308A01F9206A
:102E38008A110A16031D292F8A018A21D730CD004D
:102E48008A018A218A150A16962A3E08A0003F0898
:102E5800A1006C30A3000D308A01F9208A110A16EE
:102E6800031D3F2F8A018A21D830CD008A018A218B
:102E78008A150A16962A3E08A0003F08A1006D3060
:102E8800A300A3308A01F9208A110A16031D552FC1
:102E98008A018A21D930CD008A018A218A150A1629
:102EA800962A3E08A0003F08A1006F30A3006930B1
:102EB8008A01F9208A110A16031D6B2F8A018A21BB
:102EC800DA30CD008A018A218A150A16962A3E0828
:102ED800A0003F08A1007130A30043308A01F92007
:102EE8008A110A16031D812F8A018A21DB30CD0041
:102EF8008A018A218A150A16962A3E08A0003F08E8
:102F0800A1007330A3001E308A01F9208A110A1625
:102F1800031D972F8A018A21DC30CD008A018A217E
:102F28008A150A16962A3E08A0003F08A1007430A8
:102F3800A300EB308A01F9208A110A16031DAD2F70
:102F48008A018A21DD30CD008A018A218A150A1674
:102F5800962A3E08A0003F08A1007630A300A830BA
:102F68008A01F9208A110A16031DC32F8A018A21B2
:102F7800DE30CD008A018A218A150A16962A3E0873
:102F8800A0003F08A1007830A30089308A01F92009
:102F98008A110A16031DD92F8A018A21DF30CD0034
:102FA8008A018A218A150A16962A3E08A0003F0837
:102FB800A1007A30A300AD308A01F9208A110A16DF
:102FC800031DEF2F8A018A21E030CD008A018A2172
:102FD8008A150A16962A3E08A0003F08A1007C30F0
:102FE800A300E4308A01F9208A150A16031D052872
:102FF8008A018A21E130CD008A018A218A150A16C0
:10300800962A3E08A0003F08A1007F30A300733035
:103018008A01F9208A150A16031D1B288A018A21AC
:10302800E230CD008A018A218A150A16962A3E08BE
:10303800A0003F08A1008130A30071308A01F92067
:103048008A150A16031D31288A018A21E330CD002A
:103058008A018A218A150A16962A3E08A0003F0886
:10306800A1008330A3002C308A01F9208A150A16A2
:10307800031D47288A018A21E430CD008A018A216C
:103088008A150A16962A3E08A0003F08A100853036
:10309800A300AD308A01F9208A150A16031D5D28A0
:1030A8008A018A21E530CD008A018A218A150A160B
:1030B800962A3E08A0003F08A1008830A3004B30A4
:1030C8008A01F9208A150A16031D73288A018A21A4
:1030D800E630CD008A018A218A150A16962A3E080A
:1030E800A0003F08A1008B30A3000C308A01F92012
:1030F8008A150A16031D89288A018A21E730CD001E
:103108008A018A218A150A16962A3E08A0003F08D5
:10311800A1008D30A300D1308A01F9208A150A1642
:10312800031D9F288A018A21E830CD008A018A215F
:103138008A150A16962A3E08A0003F08A10090307A
:10314800A30061308A01F9208A150A16031DB528E3
:103158008A018A21E930CD008A018A218A150A1656
:10316800962A3E08A0003F08A1009330A3004830EB
:103178008A01F9208A150A16031DCB288A018A219B
:10318800EA30CD008A018A218A150A16962A3E0855
:10319800A0003F08A1009630A30080308A01F920E2
:1031A8008A150A16031DE1288A018A21EB30CD0011
:1031B8008A018A218A150A16962A3E08A0003F0825
:1031C800A1009930A300D5308A01F9208A150A1682
:1031D800031DF7288A018A21EC30CD008A018A2153
:1031E8008A150A16962A3E08A0003F08A1009D30BD
:1031F800A3005F308A01F9208A150A16031D0D29DC
:103208008A018A21ED30CD008A018A218A150A16A1
:10321800962A3E08A0003F08A100A030A300AF30C6
:103228008A01F9208A150A16031D23298A018A2191
:10323800EE30CD008A018A218A150A16962A3E08A0
:10324800A0003F08A100A330A300E9308A01F920BB
:103258008A150A16031D39298A018A21EF30CD0003
:103268008A018A218A150A16962A3E08A0003F0874
:10327800A100A730A300A8308A01F9208A150A16F0
:10328800031D4F298A018A21F030CD008A018A2145
:103298008A150A16962A3E08A0003F08A100AB30FE
:1032A800A300C2308A01F9208A150A16031D652970
:1032B8008A018A21F130CD008A018A218A150A16ED
:1032C800962A3E08A0003F08A100B030A3000B30AA
:1032D8008A01F9208A150A16031D7B298A018A2189
:1032E800F230CD008A018A218A150A16962A3E08EC
:1032F800A0003F08A100B430A30091308A01F92052
:103308008A150A16031D91298A018A21F330CD00F6
:103318008A018A218A150A16962A3E08A0003F08C3
:10332800A100B930A3000D308A01F9208A150A16C8
:10333800031DA7298A018A21F430CD008A018A2138
:103348008A150A16962A3E08A0003F08A100BD303B
:10335800A30056308A01F9208A150A16031DBD29D3
:103368008A018A21F530CD008A018A218A150A1638
:10337800962A3E08A0003F08A100C130A300E4300F
:103388008A01F9208A150A16031DD3298A018A2180
:10339800F630CD008A018A218A150A16962A3E0837
:1033A800A0003F08A100C730A30022308A01F920FD
:1033B8008A150A16031DE9298A018A21F730CD00EA
:1033C8008A018A218A150A16962A3E08A0003F0813
:1033D800A100CC30A300F1308A01F9208A150A1621
:1033E800031DFF298A018A21F830CD008A018A212C
:1033F8008A150A16962A3E08A0003F08A100D33075
:10340800A30014308A01F9208A150A16031D152A0B
:103418008A018A21F930CD008A018A218A150A1683
:10342800962A3E08A0003F08A100D930A3000A3020
:103438008A01F9208A150A16031D2B2A8A018A2176
:10344800FA30CD008A018A218A150A16962A3E0882
:10345800A0003F08A100DE30A300BA308A01F9209D
:103468008A150A16031D412A8A018A21FB30CD00DC
:103478008A018A218A150A16962A3E08A0003F0862
:10348800A100E530A3003B308A01F9208A150A160D
:10349800031D572A8A018A21FC30CD008A018A211E
:1034A8008A150A16962A3E08A0003F08A100EC30AB
:1034B800A30095308A01F9208A150A16031D6D2A82
:1034C8008A018A21FD30CD008A018A218A150A16CF
:1034D800962A3E08A0003F08A100F630A3006A30F3
:1034E8008A01F9208A150A16031D832A8A018A216E
:1034F800FE30CD008A018A218A150A16962A3E08CE
:10350800A0003F08A100FF30A300FF308A01F92086
:103518008A150A16031D962A8A018A21FF30CD00D2
:103528008A018A218A018A214D08A800FF30A20059
:10353800A30101308A0105208A018A21FE308A010F
:103548005B2080308A015B200330A9004D08A4006D
:10355800A5015A30B000B1018A01A9200530A9009F
:103568003E08A4003F08A5005A30B000B1018A0106
:10357800A9208A018A21CE018A018A21CC018A01E7
:103588008A218F018A018A218E018A018A21831664
:103598000C1483128A018A2110148A018A218A0153
:1035A8008A218A018A2164008A150A164F1C182B61
:1035B8008A018A2164004808143C8A150A160319EE
:1035C800F72A8A018A21640046080E028A150A161B
:1035D800031CE52A8A018A21640047080F028A151C
:1035E8000A16031CEE2A8A018A2110108A018A21F0
:1035F8008F018A018A218E018A018A21CE018A01DE
:103608008A2110148A018A2185168A018A210130AB
:10361800A100F4308A01E5208A018A2185128A01F5
:103628008A214F108A018A218A018A218A01B029B8
:103638008A018A218A018A2164308A01D7208A0175
:103648008A2164008A150A16051D1E2B8A018A2103
:103658000800030183160C18FF308312BA00030117
:103668000C18FF30BC003A0884003C088A010F217E
:10367800BC00BD0064003C083D048A150A16031905
:103688004F2BCE0A64004E0848028A150A16031DFD
:103698004E2B4F140C1009008A018A2163008A15E9
:0436A8000A16522B81
:02400E00C420CC
:00000001FF
