:02000000D02806
:100008000800A9004030A0004230A1000F30A40031
:10001800A5019B20AA012108031919282A14552093
:10002800FC3E031C1928AA1455202003AB00280FF6
:100038002128FF30A400A5002C282808A500A40129
:10004800A600A7012B0A03192C28A200A301B5209A
:10005800A90B45281708CF39A41B2038241B1038B2
:100068000C389700250895008316071183122B0872
:100078008316920083121208FC392A04043892006D
:10008800CB28A90B54281D08CF39A41B2038241BC2
:1000980010380C389D0025089B00831687103A28D5
:1000A800CB28A10CA00CA10CA00C0800A301A20055
:1000B800FF30A207031CA307031CCB280330A100B1
:1000C800DF3068205C28A101E83EA000A109FC30CF
:1000D800031C7128A00703186E28A0076400A10F4D
:1000E8006E2820187728A01C7B2800007B28080091
:1000F800A20002308228A20003308228A800230828
:100108002102031D89282208200204300318013027
:10011800031902302805031DFF30CB280038031DC2
:10012800FF300405031DFF30CB28A501A4011030C2
:10013800A600210DA40DA50D2208A4022308031C66
:10014800230FA5020318AF282208A40723080318C1
:10015800230FA5070310A00DA10DA60B9D282008AD
:10016800CB281030A800A101A001A70CA60C031CE5
:10017800C3282208A00723080318230FA107A10CEE
:10018800A00CA50CA40CA80BB9282408CB28831311
:100198000313831264000800C0309F008316773071
:1001A8008F000F3085008601950187018101831238
:1001B800C0308B00831696018C018D0183128C014F
:1001C8008D018316031703308800890183120313F6
:1001D80001309F00831680309F008312031721305F
:1001E8008700880189018316850183120313900112
:1001F8000F3097009D0183169C0101309D008B17DD
:1002080083128A110A120D298B1B08008A150A16F7
:10021800C12F8A010821D3018A0108218F018A018F
:1002280008218E018A01082183160C1083128A0185
:10023800082110108A010821FF30D0008A01082106
:1002480083169E0183128A0108219E018A010821D2
:10025800B801B9018A010821BA01BB018A01082144
:10026800BC01BD018A010821C201C3018A0108211C
:10027800D4108A01082185128A01082186018A0181
:100288000821D1018A01082154118A01082154103A
:100298008A0108218A110A12C2218A0108216400F0
:1002A8008A110A12051962298A01082154148A013F
:1002B80008218A110A1254228A0108218A01082178
:1002C80064008A110A12061C51298A010821640057
:1002D8008A110A12851988298A0108218A110A12A5
:1002E80054228A01082164008A110A12541D8629A1
:1002F8008A010821D4108A0108218A110A125B2375
:100308008A0108218A0108218A01082164008A11CA
:100318000A12D41CC2298A01082164004A080E0264
:100328008A110A12031C8F298A01082164004B08CC
:100338000F028A110A12031C98298A010821101039
:100348008A0108218F018A0108218E018A0108216A
:10035800D3018A010821D4108A01082185168A014F
:1003680008210130A100F4308A0168208A0108219F
:1003780085128A01082110148A0108218A0108219E
:100388003808BA003908BB008A01082183169E0183
:1003980083128A0108219E018A01082101309F00E9
:1003A8008A0108219F148A01082164008A110A120F
:1003B8000C1FD7298A010821FF30A600A7011E08B3
:1003C800A200A3018A01B520BE002508BF0083163C
:1003D8001E0883123E07B8003F080318013EB90003
:1003E8008A01082183169E0183128A0108219E0131
:1003F8008A0108213808A0003908A1003B08A30099
:100408003A088A017C208A110A12031D51298A019F
:10041800082164008A110A1254192A2A8A0108211B
:100428003808A0003908A1000430A200A3018A01FD
:100438009920D2008A0108215208A800FF30A200A2
:10044800A30101308A0105208A0108218A010821B7
:1004580003015419FF30BE005008003C031DFF3053
:10046800FF3AC0003E08840040088A019220C0007C
:10047800C1006400400841048A110A120319502A75
:100488008A0108218A110A12E4248A0108218A11A2
:100498000A1290258A0108218A0108218A01512916
:1004A8008A01082164005108143C8A110A12031DAC
:1004B800FA2A8A01082164008A110A128519B52AC4
:1004C8008A0108210430D4068316541183128A0144
:1004D8000821D4108A01082185168A0108210130D3
:1004E800B8020030031C013EB9028A0108218316B4
:1004F8000C1083128A01082110108A010821640057
:100508008A110A12541DB32A8A010821640050086E
:10051800003C8A110A12031DA42A8A0108218310AB
:1005280006188314831683180C14831C0C1083126A
:100538008A01082106181014061C10108A010821C7
:100548008A010821FF30D0008A010821D3018A01DD
:1005580008218F018A0108218E018A0108218A0158
:1005680008218A0108210301051DFF30BE0003018F
:100578000618FF30C0003E08840040088A01922017
:10058800C000C1006400400841048A110A1203191E
:10059800F82A8A01082108308606831686118312F4
:1005A8008A0108210301861DFF30BE003E08840031
:1005B8000030061801308A0192200139031986108B
:1005C800031D86148A010821003086190130840031
:1005D8000030061801308A019220013903190611EA
:1005E800031D06158A0108218A0108218A010821AC
:1005F800D10A8A01082164308A015A208A01082117
:100608000301851DFF30BE000301051DFF30C0003A
:100618003E0840048A110A12031D542A8A0108213F
:1006280064008A110A12541C522B8A0108216400A2
:10063800143051028A110A1203182B2B8A0108213F
:10064800013086068316061083128A0108218A0162
:1006580008210301861DFF30BE003E0884000030DB
:10066800061801308A019220013903198610031DEA
:1006780086148A0108210030861901308400003070
:10068800061801308A019220013903190611031D49
:1006980006158A01082154108A0108218A010821B7
:1006A80085128A010821D1018A01082108008A01DE
:1006B8000821D00A8A0108218A010821640050080B
:1006C800013C8A110A12031DA32B8A01082110106C
:1006D8008A01082183160C1083128A0108218F01D0
:1006E8008A0108218E018A010821D3018A01082183
:1006F800CC018A010821CD018A010821CE018A0195
:100708000821CF018A010821C401C5018A010821F5
:10071800C601C7018A010821C801C9018A01082147
:10072800CA01CB018A01082183160C1483128A019D
:10073800082110148A0108218A110A12E12C640088
:100748005008023C8A110A12031DD42B8A01082181
:1007580010108A01082183168C0183128A0108214E
:100768000E08C4008A0108210F08C5008A01082163
:100778008F018A0108218E018A0108215308CD00C2
:100788008A010821D3018A01082183160C148312D7
:100798008A01082110148A0108218A110A12E12C01
:1007A80064005008033C8A110A12031D052C8A01B3
:1007B800082110108A01082183168C0183128A01EE
:1007C80008210E08C6008A0108210F08C7008A01FF
:1007D80008218F018A0108218E018A010821530806
:1007E800CE008A010821D3018A01082183160C143E
:1007F80083128A01082110148A0108218A110A1219
:10080800E12C64005008043C8A110A12031DE12CF3
:100818008A01082110108A01082183168C0183128D
:100828008A0108210E08C8008A0108210F08C9009A
:100838008A0108215308CF008A0108214D084E0774
:10084800BE00BF01BF0D3E084F07CC008A0108213A
:100858004C08A000A1010330A200A3018A0199203D
:10086800CC008A01082144084607BE00BF01BF0D1D
:1008780048083E07C2003F080318013EC3008A012A
:1008880008214208A0004308A1000330A200A301E8
:100898008A019920CA008A01082145084707BE0035
:1008A800BF01BF0D49083E07C2003F080318013EBB
:1008B800C3008A0108214208A0004308A1000330B0
:1008C800A200A3018A019920CB008A0108216400B3
:1008D80014304C028A110A12031C7E2C8A0108214A
:1008E8001330CC008A010821FA30CA00FF30CB004F
:1008F8008A0108218A010821CC30A6000C30A70003
:100908004C08A200A3018A01B520C2002508C30033
:100918008A0108214A08A0004B08A1001430A2004F
:10092800A3018A019920BE002108BF003E08C20722
:100938003F080318013EC3078A0108214208BC008A
:100948004308BD008A0108218A110A1290258A01EC
:1009580008216400963052028A110A12031CC02C26
:100968008A0108214408CA004508CB008A010821E9
:100978004D08CC008A0108218A010821D3018A0187
:100988000821D0018A0108218F018A0108218E01DE
:100998008A010821D4108A0108210130B8020030E8
:1009A800031C013EB9028A01082183160C14831224
:1009B8008A01082110148A0108218A0108210800E7
:1009C8008A0108218A0108213808A0003908A100F5
:1009D800A301CD308A017F208A110A12031DFF2C42
:1009E8008A0108214208BC004308BD008A01082189
:1009F8008A110A128D2D3808A0003908A10001308B
:100A0800A3009A308A017F208A110A12031D2B2D18
:100A18008A0108214208A0004308A1000430A2006E
:100A2800A3018A019920BE002108BF003E08A60044
:100A38003F08A7000330A200A3018A01B520BC002B
:100A48002508BD008A0108218A110A128D2D38084F
:100A5800A0003908A1000230A30067308A017F2076
:100A68008A110A12031D572D8A0108214208A00085
:100A78004308A1000330A200A3018A019920BE0007
:100A88002108BF003E08A6003F08A7000230A200C8
:100A9800A3018A01B520BC002508BD008A010821F0
:100AA8008A110A128D2D3808A0003908A1000330D8
:100AB800A30034308A017F208A110A12031D702D89
:100AC8008A0108210310430CBD00420CBC008A01B6
:100AD80008218A110A128D2D3808A0003908A100B2
:100AE8000430A30000308A017F208A110A12031DF6
:100AF8008D2D8A0108214208A0004308A100033077
:100B0800A200A3018A019920BC002108BD008A0126
:100B180008218A01082108008A0108218A01082180
:100B28003C08A0003D08A1001E30A30061308A01E6
:100B38007F208A110A12031DA92D8A010821D201DA
:100B48008A0108218A150A16B42F3C08A0003D081E
:100B5800A1001E30A30071308A017F208A110A1279
:100B6800031DBF2D8A0108210130D2008A01082106
:100B78008A150A16B42F3C08A0003D08A1001E30B3
:100B8800A30084308A017F208A110A12031DD52D03
:100B98008A0108210230D2008A0108218A150A1622
:100BA800B42F3C08A0003D08A1001E30A3009930D6
:100BB8008A017F208A110A12031DEB2D8A01082160
:100BC8000330D2008A0108218A150A16B42F3C087E
:100BD800A0003D08A1001E30A300AE308A017F208E
:100BE8008A110A12031D012E8A0108210430D2003D
:100BF8008A0108218A150A16B42F3C08A0003D086E
:100C0800A1001E30A300C3308A017F208A110A1276
:100C1800031D172E8A0108210530D2008A010821F8
:100C28008A150A16B42F3C08A0003D08A1001E3002
:100C3800A300D6308A017F208A110A12031D2D2EA7
:100C48008A0108210630D2008A0108218A150A166D
:100C5800B42F3C08A0003D08A1001E30A300EA30D4
:100C68008A017F208A110A12031D432E8A01082156
:100C78000730D2008A0108218A150A16B42F3C08C9
:100C8800A0003D08A1001E30A300FF308A017F208C
:100C98008A110A12031D592E8A0108210830D20030
:100CA8008A0108218A150A16B42F3C08A0003D08BD
:100CB800A1001F30A30014308A017F208A110A1274
:100CC800031D6F2E8A0108210930D2008A010821EC
:100CD8008A150A16B42F3C08A0003D08A1001F3051
:100CE800A3002B308A017F208A110A12031D852E4A
:100CF8008A0108210A30D2008A0108218A150A16B9
:100D0800B42F3C08A0003D08A1001F30A3004130CB
:100D18008A017F208A110A12031D9B2E8A0108214D
:100D28000B30D2008A0108218A150A16B42F3C0814
:100D3800A0003D08A1001F30A30055308A017F2084
:100D48008A110A12031DB12E8A0108210C30D20023
:100D58008A0108218A150A16B42F3C08A0003D080C
:100D6800A1001F30A3006B308A017F208A110A126C
:100D7800031DC72E8A0108210D30D2008A010821DF
:100D88008A150A16B42F3C08A0003D08A1001F30A0
:100D9800A30082308A017F208A110A12031DDD2EEA
:100DA8008A0108210E30D2008A0108218A150A1604
:100DB800B42F3C08A0003D08A1001F30A3009830C4
:100DC8008A017F208A110A12031DF32E8A01082145
:100DD8000F30D2008A0108218A150A16B42F3C0860
:100DE800A0003D08A1001F30A300B0308A017F2079
:100DF8008A110A12031D092F8A0108211030D20016
:100E08008A0108218A150A16B42F3C08A0003D085B
:100E1800A1001F30A300C8308A017F208A110A125E
:100E2800031D1F2F8A0108211130D2008A010821D1
:100E38008A150A16B42F3C08A0003D08A1001F30EF
:100E4800A300DB308A017F208A110A12031D352F87
:100E58008A0108211230D2008A0108218A150A164F
:100E6800B42F3C08A0003D08A1001F30A300F130BA
:100E78008A017F208A110A12031D4B2F8A0108213B
:100E88001330D2008A0108218A150A16B42F3C08AB
:100E9800A0003D08A1002030A3000A308A017F206D
:100EA8008A110A12031D612F8A0108211430D20009
:100EB8008A0108218A150A16B42F3C08A0003D08AB
:100EC800A1002030A30022308A017F208A110A1253
:100ED800031D772F8A0108211530D2008A010821C5
:100EE8008A150A16B42F3C08A0003D08A10020303E
:100EF800A3003A308A017F208A110A12031D8D2F20
:100F08008A0108211630D2008A0108218A150A169A
:100F1800B42F3C08A0003D08A1002030A3005330A6
:100F28008A017F208A110A12031DA32F8A01082132
:100F38001730D2008A0108218A150A16B42F3C08F6
:100F4800A0003D08A1002030A30068308A017F205E
:100F58008A110A12031DB92F8A0108211830D200FC
:100F68008A0108218A150A16B42F3C08A0003D08FA
:100F7800A1002030A3007D308A017F208A110A1247
:100F8800031DCF2F8A0108211930D2008A010821B8
:100F98008A150A16B42F3C08A0003D08A10020308D
:100FA800A30096308A017F208A110A12031DE52FBB
:100FB8008A0108211A30D2008A0108218A150A16E6
:100FC800B42F3C08A0003D08A1002030A300B13098
:100FD8008A017F208A110A12031DFB2F8A0108212A
:100FE8001B30D2008A0108218A150A16B42F3C0842
:100FF800A0003D08A1002030A300CA308A017F204C
:101008008A150A12031D11288A0108211C30D200F2
:101018008A0108218A150A16B42F3C08A0003D0849
:10102800A1002030A300E3308A017F208A150A122C
:10103800031D27288A0108211D30D2008A010821B2
:101048008A150A16B42F3C08A0003D08A1002030DC
:10105800A300F9308A017F208A150A12031D3D2852
:101068008A0108211E30D2008A0108218A150A1631
:10107800B42F3C08A0003D08A1002130A300103087
:101088008A017F208A150A12031D53288A01082124
:101098001F30D2008A0108218A150A16B42F3C088D
:1010A800A0003D08A1002130A3002B308A017F2039
:1010B8008A150A12031D69288A0108212030D200E6
:1010C8008A0108218A150A16B42F3C08A0003D0899
:1010D800A1002130A30047308A017F208A150A1217
:1010E800031D7F288A0108212130D2008A010821A6
:1010F8008A150A16B42F3C08A0003D08A10021302B
:10110800A30062308A017F208A150A12031D9528E0
:101118008A0108212230D2008A0108218A150A167C
:10112800B42F3C08A0003D08A1002130A30079306D
:101138008A017F208A150A12031DAB288A0108211B
:101148002330D2008A0108218A150A16B42F3C08D8
:10115800A0003D08A1002130A30090308A017F2023
:101168008A150A12031DC1288A0108212430D200D9
:101178008A0108218A150A16B42F3C08A0003D08E8
:10118800A1002130A300AC308A017F208A150A1201
:10119800031DD7288A0108212530D2008A01082199
:1011A8008A150A16B42F3C08A0003D08A10021307A
:1011B800A300C8308A017F208A150A12031DED2872
:1011C8008A0108212630D2008A0108218A150A16C8
:1011D800B42F3C08A0003D08A1002130A300E33053
:1011E8008A017F208A150A12031D03298A01082112
:1011F8002730D2008A0108218A150A16B42F3C0824
:10120800A0003D08A1002130A300FF308A017F2003
:101218008A150A12031D19298A0108212830D200CB
:101228008A0108218A150A16B42F3C08A0003D0837
:10123800A1002230A3001A308A017F208A150A12E1
:10124800031D2F298A0108212930D2008A0108218B
:101258008A150A16B42F3C08A0003D08A1002230C8
:10126800A30035308A017F208A150A12031D4529FB
:101278008A0108212A30D2008A0108218A150A1613
:10128800B42F3C08A0003D08A1002230A300513033
:101298008A017F208A150A12031D5B298A01082109
:1012A8002B30D2008A0108218A150A16B42F3C086F
:1012B800A0003D08A1002230A3006E308A017F20E3
:1012C8008A150A12031D71298A0108212C30D200BF
:1012D8008A0108218A150A16B42F3C08A0003D0887
:1012E800A1002230A3008A308A017F208A150A12C1
:1012F800031D87298A0108212D30D2008A0108217F
:101308008A150A16B42F3C08A0003D08A100223017
:10131800A300A6308A017F208A150A12031D9D2981
:101328008A0108212E30D2008A0108218A150A165E
:10133800B42F3C08A0003D08A1002230A300C13012
:101348008A017F208A150A12031DB3298A01082100
:101358002F30D2008A0108218A150A16B42F3C08BA
:10136800A0003D08A1002230A300DE308A017F20C2
:101378008A150A12031DC9298A0108213030D200B2
:101388008A0108218A150A16B42F3C08A0003D08D6
:10139800A1002230A300FF308A017F208A150A129B
:1013A800031DDF298A0108213130D2008A01082172
:1013B8008A150A16B42F3C08A0003D08A100233066
:1013C800A3001E308A017F208A150A12031DF52901
:1013D8008A0108213230D2008A0108218A150A16AA
:1013E800B42F3C08A0003D08A1002330A3003C30E6
:1013F8008A017F208A150A12031D0B2A8A010821F7
:101408003330D2008A0108218A150A16B42F3C0805
:10141800A0003D08A1002330A3005C308A017F2092
:101428008A150A12031D212A8A0108213430D200A4
:101438008A0108218A150A16B42F3C08A0003D0825
:10144800A1002330A30079308A017F208A150A126F
:10145800031D372A8A0108213530D2008A01082164
:101468008A150A16B42F3C08A0003D08A1002330B5
:10147800A30094308A017F208A150A12031D4D2A81
:101488008A0108213630D2008A0108218A150A16F5
:10149800B42F3C08A0003D08A1002330A300B530BC
:1014A8008A017F208A150A12031D632A8A010821EE
:1014B8003730D2008A0108218A150A16B42F3C0851
:1014C800A0003D08A1002330A300D6308A017F2068
:1014D8008A150A12031D792A8A0108213830D20098
:1014E8008A0108218A150A16B42F3C08A0003D0875
:1014F800A1002330A300F7308A017F208A150A1241
:10150800031D8F2A8A0108213930D2008A01082157
:101518008A150A16B42F3C08A0003D08A100243003
:10152800A30018308A017F208A150A12031DA52AF4
:101538008A0108213A30D2008A0108218A150A1640
:10154800B42F3C08A0003D08A1002430A300373088
:101558008A017F208A150A12031DBB2A8A010821E5
:101568003B30D2008A0108218A150A16B42F3C089C
:10157800A0003D08A1002430A30055308A017F2037
:101588008A150A12031DD12A8A0108213C30D2008B
:101598008A0108218A150A16B42F3C08A0003D08C4
:1015A800A1002430A30078308A017F208A150A120E
:1015B800031DE72A8A0108213D30D2008A0108214B
:1015C8008A150A16B42F3C08A0003D08A100243053
:1015D800A3009C308A017F208A150A12031DFD2A68
:1015E8008A0108213E30D2008A0108218A150A168C
:1015F800B42F3C08A0003D08A1002430A300BF3050
:101608008A017F208A150A12031D132B8A010821DB
:101618003F30D2008A0108218A150A16B42F3C08E7
:10162800A0003D08A1002430A300E2308A017F20F9
:101638008A150A12031D292B8A0108214030D2007D
:101648008A0108218A150A16B42F3C08A0003D0813
:10165800A1002530A30001308A017F208A150A12D3
:10166800031D3F2B8A0108214130D2008A0108213D
:101678008A150A16B42F3C08A0003D08A1002530A1
:10168800A30020308A017F208A150A12031D552BDA
:101698008A0108214230D2008A0108218A150A16D7
:1016A800B42F3C08A0003D08A1002530A300443019
:1016B8008A017F208A150A12031D6B2B8A010821D3
:1016C8004330D2008A0108218A150A16B42F3C0833
:1016D800A0003D08A1002530A30069308A017F20C1
:1016E8008A150A12031D812B8A0108214430D20071
:1016F8008A0108218A150A16B42F3C08A0003D0863
:10170800A1002530A3008E308A017F208A150A1295
:10171800031D972B8A0108214530D2008A01082130
:101728008A150A16B42F3C08A0003D08A1002530F0
:10173800A300B0308A017F208A150A12031DAD2B41
:101748008A0108214630D2008A0108218A150A1622
:10175800B42F3C08A0003D08A1002530A300D030DC
:101768008A017F208A150A12031DC32B8A010821CA
:101778004730D2008A0108218A150A16B42F3C087E
:10178800A0003D08A1002530A300F8308A017F2081
:101798008A150A12031DD92B8A0108214830D20064
:1017A8008A0108218A150A16B42F3C08A0003D08B2
:1017B800A1002630A30021308A017F208A150A1251
:1017C800031DEF2B8A0108214930D2008A01082124
:1017D8008A150A16B42F3C08A0003D08A10026303F
:1017E800A30047308A017F208A150A12031D052CA1
:1017F8008A0108214A30D2008A0108218A150A166E
:10180800B42F3C08A0003D08A1002630A3006E308C
:101818008A017F208A150A12031D1B2C8A010821C0
:101828004B30D2008A0108218A150A16B42F3C08C9
:10183800A0003D08A1002630A30090308A017F2037
:101848008A150A12031D312C8A0108214C30D20056
:101858008A0108218A150A16B42F3C08A0003D0801
:10186800A1002630A300B4308A017F208A150A120D
:10187800031D472C8A0108214D30D2008A01082116
:101888008A150A16B42F3C08A0003D08A10026308E
:10189800A300DC308A017F208A150A12031D5D2C03
:1018A8008A0108214E30D2008A0108218A150A16B9
:1018B800B42F3C08A0003D08A1002730A300043045
:1018C8008A017F208A150A12031D732C8A010821B8
:1018D8004F30D2008A0108218A150A16B42F3C0815
:1018E800A0003D08A1002730A3002F308A017F20E7
:1018F8008A150A12031D892C8A0108215030D2004A
:101908008A0108218A150A16B42F3C08A0003D0850
:10191800A1002730A30058308A017F208A150A12B7
:10192800031D9F2C8A0108215130D2008A01082109
:101938008A150A16B42F3C08A0003D08A1002730DC
:10194800A3007B308A017F208A150A12031DB52C5B
:101958008A0108215230D2008A0108218A150A1604
:10196800B42F3C08A0003D08A1002730A300A030F8
:101978008A017F208A150A12031DCB2C8A010821AF
:101988005330D2008A0108218A150A16B42F3C0860
:10199800A0003D08A1002730A300CC308A017F2099
:1019A8008A150A12031DE12C8A0108215430D2003D
:1019B8008A0108218A150A16B42F3C08A0003D08A0
:1019C800A1002730A300F8308A017F208A150A1267
:1019D800031DF72C8A0108215530D2008A010821FD
:1019E8008A150A16B42F3C08A0003D08A10028302B
:1019F800A30024308A017F208A150A12031D0D2DA9
:101A08008A0108215630D2008A0108218A150A164F
:101A1800B42F3C08A0003D08A1002830A300503096
:101A28008A017F208A150A12031D232D8A010821A5
:101A38005730D2008A0108218A150A16B42F3C08AB
:101A4800A0003D08A1002830A30078308A017F203B
:101A58008A150A12031D392D8A0108215830D2002F
:101A68008A0108218A150A16B42F3C08A0003D08EF
:101A7800A1002830A300A1308A017F208A150A120C
:101A8800031D4F2D8A0108215930D2008A010821EF
:101A98008A150A16B42F3C08A0003D08A10028307A
:101AA800A300CF308A017F208A150A12031D652DF5
:101AB8008A0108215A30D2008A0108218A150A169B
:101AC800B42F3C08A0003D08A1002830A300FF3037
:101AD8008A017F208A150A12031D7B2D8A0108219D
:101AE8005B30D2008A0108218A150A16B42F3C08F7
:101AF800A0003D08A1002930A3002F308A017F20D3
:101B08008A150A12031D912D8A0108215C30D20022
:101B18008A0108218A150A16B42F3C08A0003D083E
:101B2800A1002930A3005E308A017F208A150A129D
:101B3800031DA72D8A0108215D30D2008A010821E2
:101B48008A150A16B42F3C08A0003D08A1002930C8
:101B5800A30087308A017F208A150A12031DBD2D34
:101B68008A0108215E30D2008A0108218A150A16E6
:101B7800B42F3C08A0003D08A1002930A300B230D2
:101B88008A017F208A150A12031DD32D8A01082194
:101B98005F30D2008A0108218A150A16B42F3C0842
:101BA800A0003D08A1002930A300E3308A017F206E
:101BB8008A150A12031DE92D8A0108216030D20016
:101BC8008A0108218A150A16B42F3C08A0003D088E
:101BD800A1002A30A30014308A017F208A150A1236
:101BE800031DFF2D8A0108216130D2008A010821D6
:101BF8008A150A16B42F3C08A0003D08A1002A3017
:101C0800A30047308A017F208A150A12031D152E6A
:101C18008A0108216230D2008A0108218A150A1631
:101C2800B42F3C08A0003D08A1002A30A30073305F
:101C38008A017F208A150A12031D2B2E8A0108218A
:101C48006330D2008A0108218A150A16B42F3C088D
:101C5800A0003D08A1002A30A300A1308A017F20FE
:101C68008A150A12031D412E8A0108216430D20008
:101C78008A0108218A150A16B42F3C08A0003D08DD
:101C8800A1002A30A300D6308A017F208A150A12C3
:101C9800031D572E8A0108216530D2008A010821C8
:101CA8008A150A16B42F3C08A0003D08A1002B3065
:101CB800A3000C308A017F208A150A12031D6D2E9D
:101CC8008A0108216630D2008A0108218A150A167D
:101CD800B42F3C08A0003D08A1002B30A3004130E0
:101CE8008A017F208A150A12031D832E8A01082182
:101CF8006730D2008A0108218A150A16B42F3C08D9
:101D0800A0003D08A1002B30A30076308A017F2077
:101D18008A150A12031D992E8A0108216830D200FB
:101D28008A0108218A150A16B42F3C08A0003D082C
:101D3800A1002B30A300A5308A017F208A150A1242
:101D4800031DAF2E8A0108216930D2008A010821BB
:101D58008A150A16B42F3C08A0003D08A1002B30B4
:101D6800A300D4308A017F208A150A12031DC52ECC
:101D78008A0108216A30D2008A0108218A150A16C8
:101D8800B42F3C08A0003D08A1002C30A3000A3065
:101D98008A017F208A150A12031DDB2E8A01082179
:101DA8006B30D2008A0108218A150A16B42F3C0824
:101DB800A0003D08A1002C30A30043308A017F20F9
:101DC8008A150A12031DF12E8A0108216C30D200EF
:101DD8008A0108218A150A16B42F3C08A0003D087C
:101DE800A1002C30A3007E308A017F208A150A12B8
:101DF800031D072F8A0108216D30D2008A010821AE
:101E08008A150A16B42F3C08A0003D08A1002C3002
:101E1800A300B8308A017F208A150A12031D1D2FDE
:101E28008A0108216E30D2008A0108218A150A1613
:101E3800B42F3C08A0003D08A1002C30A300ED30D1
:101E48008A017F208A150A12031D332F8A0108216F
:101E58006F30D2008A0108218A150A16B42F3C086F
:101E6800A0003D08A1002D30A30022308A017F2068
:101E78008A150A12031D492F8A0108217030D200E1
:101E88008A0108218A150A16B42F3C08A0003D08CB
:101E9800A1002D30A3005E308A017F208A150A1226
:101EA800031D5F2F8A0108217130D2008A010821A1
:101EB8008A150A16B42F3C08A0003D08A1002D3051
:101EC800A3009C308A017F208A150A12031D752FF2
:101ED8008A0108217230D2008A0108218A150A165F
:101EE800B42F3C08A0003D08A1002D30A300D83035
:101EF8008A017F208A150A12031D8B2F8A01082167
:101F08007330D2008A0108218A150A16B42F3C08BA
:101F1800A0003D08A1002E30A30015308A017F20C3
:101F28008A150A12031DA12F8A0108217430D200D4
:101F38008A0108218A150A16B42F3C08A0003D081A
:101F4800A1002E30A3004C308A017F208A150A1286
:101F5800031DB72F8A0108217530D2008A01082194
:101F68008A150A16B42F3C08A0003D08A1002E309F
:101F7800A30087308A017F208A150A12031DCD2FFE
:101F88008A0108217630D2008A0108218A150A16AA
:101F9800B42F3C08A0003D08A1002E30A300CA3091
:101FA8008A017F208A150A12031DE32F8A0108215E
:101FB8007730D2008A0108218A150A16B42F3C0806
:101FC800A0003D08A1002F30A3000C308A017F201B
:101FD8008A150A12031DF92F8A0108217830D200C8
:101FE8008A0108218A150A16B42F3C08A0003D086A
:101FF800A1002F30A3004F308A017F208A110A16D2
:10200800031D0F288A0108217930D2008A0108218E
:102018008A150A16B42F3C08A0003D08A1002F30ED
:10202800A30091308A017F208A110A16031D2528F2
:102038008A0108217A30D2008A0108218A150A16F5
:10204800B42F3C08A0003D08A1002F30A300CF30DA
:102058008A017F208A110A16031D3B288A0108215C
:102068007B30D2008A0108218A150A16B42F3C0851
:10207800A0003D08A1003030A3000F308A017F2066
:102088008A110A16031D51288A0108217C30D200C2
:102098008A0108218A150A16B42F3C08A0003D08B9
:1020A800A1003030A30054308A017F208A110A161B
:1020B800031D67288A0108217D30D2008A01082182
:1020C8008A150A16B42F3C08A0003D08A10030303C
:1020D800A30099308A017F208A110A16031D7D28E2
:1020E8008A0108217E30D2008A0108218A150A1641
:1020F800B42F3C08A0003D08A1003030A300E33015
:102108008A017F208A110A16031D93288A01082153
:102118007F30D2008A0108218A150A16B42F3C089C
:10212800A0003D08A1003130A3002B308A017F2098
:102138008A110A16031DA9288A0108218030D200B5
:102148008A0108218A150A16B42F3C08A0003D0808
:10215800A1003130A3006C308A017F208A110A1651
:10216800031DBF288A0108218130D2008A01082175
:102178008A150A16B42F3C08A0003D08A10031308A
:10218800A300AF308A017F208A110A16031DD528C3
:102198008A0108218230D2008A0108218A150A168C
:1021A800B42F3C08A0003D08A1003130A300F9304D
:1021B8008A017F208A110A16031DEB288A0108214B
:1021C8008330D2008A0108218A150A16B42F3C08E8
:1021D800A0003D08A1003230A30045308A017F20CD
:1021E8008A110A16031D01298A0108218430D200A8
:1021F8008A0108218A150A16B42F3C08A0003D0858
:10220800A1003230A30091308A017F208A110A167A
:10221800031D17298A0108218530D2008A01082167
:102228008A150A16B42F3C08A0003D08A1003230D8
:10223800A300D2308A017F208A110A16031D2D2996
:102248008A0108218630D2008A0108218A150A16D7
:10225800B42F3C08A0003D08A1003330A30019307A
:102268008A017F208A110A16031D43298A01082141
:102278008730D2008A0108218A150A16B42F3C0833
:10228800A0003D08A1003330A3006C308A017F20F4
:102298008A110A16031D59298A0108218830D2009B
:1022A8008A0108218A150A16B42F3C08A0003D08A7
:1022B800A1003330A300C4308A017F208A110A1696
:1022C800031D6F298A0108218930D2008A0108215B
:1022D8008A150A16B42F3C08A0003D08A100343026
:1022E800A3001C308A017F208A110A16031D852944
:1022F8008A0108218A30D2008A0108218A150A1623
:10230800B42F3C08A0003D08A1003430A3006E3073
:102318008A017F208A110A16031D9B298A01082138
:102328008B30D2008A0108218A150A16B42F3C087E
:10233800A0003D08A1003430A300B6308A017F20F8
:102348008A110A16031DB1298A0108218C30D2008E
:102358008A0108218A150A16B42F3C08A0003D08F6
:10236800A1003530A30005308A017F208A110A16A2
:10237800031DC7298A0108218D30D2008A0108214E
:102388008A150A16B42F3C08A0003D08A100353074
:10239800A30062308A017F208A110A16031DDD29F5
:1023A8008A0108218E30D2008A0108218A150A166E
:1023B800B42F3C08A0003D08A1003530A300BD3073
:1023C8008A017F208A110A16031DF3298A01082130
:1023D8008F30D2008A0108218A150A16B42F3C08CA
:1023E800A0003D08A1003630A30018308A017F20E4
:1023F8008A110A16031D092A8A0108219030D20081
:102408008A0108218A150A16B42F3C08A0003D0845
:10241800A1003630A30075308A017F208A110A1680
:10242800031D1F2A8A0108219130D2008A01082140
:102438008A150A16B42F3C08A0003D08A1003630C2
:10244800A300CB308A017F208A110A16031D352A82
:102458008A0108219230D2008A0108218A150A16B9
:10246800B42F3C08A0003D08A1003730A30021305C
:102478008A017F208A110A16031D4B2A8A01082126
:102488009330D2008A0108218A150A16B42F3C0815
:10249800A0003D08A1003730A30080308A017F20CA
:1024A8008A110A16031D612A8A0108219430D20074
:1024B8008A0108218A150A16B42F3C08A0003D0895
:1024C800A1003730A300E2308A017F208A110A1662
:1024D800031D772A8A0108219530D2008A01082134
:1024E8008A150A16B42F3C08A0003D08A100383010
:1024F800A30048308A017F208A110A16031D972AF3
:102508008A0108219630D2008A0108210430CD00C2
:102518008A010821FC30C400BB30C5008A010821AB
:102528008A150A16B42F3C08A0003D08A1003830CF
:10253800A300A9308A017F208A110A16031DB72A31
:102548008A0108219730D2008A0108210430CD0081
:102558008A010821F330C400C430C5008A0108216B
:102568008A150A16B42F3C08A0003D08A10039308E
:10257800A30004308A017F208A110A16031DD72A76
:102588008A0108219830D2008A0108210430CD0040
:102598008A010821EC30C400CB30C5008A0108212B
:1025A8008A150A16B42F3C08A0003D08A10039304E
:1025B800A30067308A017F208A110A16031DF72AB3
:1025C8008A0108219930D2008A0108210430CD00FF
:1025D8008A0108216B30C400D530C5008A01082162
:1025E8008A150A16B42F3C08A0003D08A10039300E
:1025F800A300D3308A017F208A110A16031D172BE6
:102608008A0108219A30D2008A0108210430CD00BD
:102618008A010821D930C400DE30C5008A010821AA
:102628008A150A16B42F3C08A0003D08A1003A30CC
:10263800A30040308A017F208A110A16031D372B18
:102648008A0108219B30D2008A0108210430CD007C
:102658008A0108216930C400E830C5008A010821D0
:102668008A150A16B42F3C08A0003D08A1003A308C
:10267800A300AE308A017F208A110A16031D572B4A
:102688008A0108219C30D2008A0108210430CD003B
:102698008A0108219730C400F230C5008A01082158
:1026A8008A150A16B42F3C08A0003D08A1003B304B
:1026B800A3001C308A017F208A110A16031D772B7C
:1026C8008A0108219D30D2008A0108210430CD00FA
:1026D8008A0108213330C400FC30C5008A01082172
:1026E8008A150A16B42F3C08A0003D08A1003B300B
:1026F800A30082308A017F208A110A16031D972BB6
:102708008A0108219E30D2008A0108210530CD00B7
:102718008A010821FF30C4000330C5008A0108215E
:102728008A150A16B42F3C08A0003D08A1003B30CA
:10273800A300ED308A017F208A110A16031DB72BEA
:102748008A0108219F30D2008A0108210530CD0076
:102758008A0108213930C4000E30C5008A010821D9
:102768008A150A16B42F3C08A0003D08A1003C3089
:10277800A30064308A017F208A110A16031DD72B13
:102788008A010821A030D2008A0108210530CD0035
:102798008A010821D930C4001830C5008A010821EF
:1027A8008A150A16B42F3C08A0003D08A1003C3049
:1027B800A300DE308A017F208A110A16031DF72B39
:1027C8008A010821A130D2008A0108210530CD00F4
:1027D8008A010821CE30C4002330C5008A010821AF
:1027E8008A150A16B42F3C08A0003D08A1003D3008
:1027F800A30056308A017F208A110A16031D172C60
:102808008A010821A230D2008A0108210530CD00B2
:102818008A0108216E30C4002E30C5008A010821C3
:102828008A150A16B42F3C08A0003D08A1003D30C7
:10283800A300C4308A017F208A110A16031D372C91
:102848008A010821A330D2008A0108210530CD0071
:102858008A0108218830C4003630C5008A01082161
:102868008A150A16B42F3C08A0003D08A1003E3086
:10287800A30035308A017F208A110A16031D572CC0
:102888008A010821A430D2008A0108210530CD0030
:102898008A010821D230C4004130C5008A010821CC
:1028A8008A150A16B42F3C08A0003D08A1003E3046
:1028B800A300B5308A017F208A110A16031D772CE0
:1028C8008A010821A530D2008A0108210530CD00EF
:1028D8008A010821D730C4004D30C5008A0108217B
:1028E8008A150A16B42F3C08A0003D08A1003F3005
:1028F800A30039308A017F208A110A16031D972CFC
:102908008A010821A630D2008A0108210530CD00AD
:102918008A0108216530C4005930C5008A010821A0
:102928008A150A16B42F3C08A0003D08A1003F30C4
:10293800A300EE308A017F208A110A16031DB72CE6
:102948008A010821A730D2008A0108210530CD006C
:102958008A0108211430C4006630C5008A010821A4
:102968008A150A16B42F3C08A0003D08A100403083
:10297800A30072308A017F208A110A16031DD72C02
:102988008A010821A830D2008A0108210530CD002B
:102998008A0108213C30C4007130C5008A01082131
:1029A8008A150A16B42F3C08A0003D08A100403043
:1029B800A300BD308A017F208A110A16031DF72C57
:1029C8008A010821A930D2008A0108210530CD00EA
:1029D8008A0108213330C4007A30C5008A010821F1
:1029E8008A150A16B42F3C08A0003D08A100413002
:1029F800A3003D308A017F208A110A16031D172D76
:102A08008A010821AA30D2008A0108210530CD00A8
:102A18008A0108216B30C4008630C5008A0108216C
:102A28008A150A16B42F3C08A0003D08A1004130C1
:102A3800A300CF308A017F208A110A16031D372D83
:102A48008A010821AB30D2008A0108210530CD0067
:102A58008A010821E630C4009330C5008A010821A4
:102A68008A150A16B42F3C08A0003D08A100423080
:102A7800A30069308A017F208A110A16031D572D89
:102A88008A010821AC30D2008A0108210530CD0026
:102A98008A0108211D30C400A130C5008A0108211F
:102AA8008A150A16B42F3C08A0003D08A10043303F
:102AB800A30001308A017F208A110A16031D772D91
:102AC8008A010821AD30D2008A0108210530CD00E5
:102AD8008A010821DD30C400AD30C5008A01082113
:102AE8008A150A16B42F3C08A0003D08A1004330FF
:102AF800A30095308A017F208A110A16031D972D9D
:102B08008A010821AE30D2008A0108210530CD00A3
:102B18008A0108213530C400BC30C5008A0108216B
:102B28008A150A16B42F3C08A0003D08A1004430BD
:102B3800A3001F308A017F208A110A16031DB72DB2
:102B48008A010821AF30D2008A0108210530CD0062
:102B58008A0108219130C400C630C5008A010821C5
:102B68008A150A16B42F3C08A0003D08A10044307D
:102B7800A300B2308A017F208A110A16031DD72DBF
:102B88008A010821B030D2008A0108210530CD0021
:102B98008A010821E930C400D430C5008A0108211F
:102BA8008A150A16B42F3C08A0003D08A10045303C
:102BB800A30052308A017F208A110A16031DF72DBF
:102BC8008A010821B130D2008A0108210530CD00E0
:102BD8008A0108215230C400E330C5008A01082167
:102BE8008A150A16B42F3C08A0003D08A1004530FC
:102BF800A300F7308A017F208A110A16031D172EB9
:102C08008A010821B230D2008A0108210530CD009E
:102C18008A0108219830C400F230C5008A010821D1
:102C28008A150A16B42F3C08A0003D08A1004630BA
:102C3800A300A5308A017F208A110A16031D372EAA
:102C48008A010821B330D2008A0108210630CD005C
:102C58008A0108212830C4000230C5008A010821F1
:102C68008A150A16B42F3C08A0003D08A100473079
:102C7800A3004C308A017F208A110A16031D572EA3
:102C88008A010821B430D2008A0108210630CD001B
:102C98008A0108217F30C4001130C5008A0108214B
:102CA8008A150A16B42F3C08A0003D08A100473039
:102CB800A300E4308A017F208A110A16031D772EAB
:102CC8008A010821B530D2008A0108210630CD00DA
:102CD8008A0108211E30C4001D30C5008A01082160
:102CE8008A150A16B42F3C08A0003D08A1004830F8
:102CF800A30089308A017F208A110A16031D972EA6
:102D08008A010821B630D2008A0108210630CD0098
:102D18008A0108213130C4002C30C5008A010821FD
:102D28008A150A16B42F3C08A0003D08A1004930B6
:102D3800A30042308A017F208A110A16031DB72E8C
:102D48008A010821B730D2008A0108210630CD0057
:102D58008A010821DC30C4003C30C5008A01082102
:102D68008A150A16B42F3C08A0003D08A100493076
:102D7800A300FC308A017F208A110A16031DD72E72
:102D88008A010821B830D2008A0108210630CD0016
:102D98008A0108219830C4004D30C5008A010821F5
:102DA8008A150A16B42F3C08A0003D08A1004A3035
:102DB800A300BA308A017F208A110A16031DF72E54
:102DC8008A010821B930D2008A0108210630CD00D5
:102DD8008A010821DD30C4005D30C5008A01082160
:102DE8008A150A16B42F3C08A0003D08A1004B30F4
:102DF800A30072308A017F208A110A16031D172F3B
:102E08008A010821BA30D2008A0108210630CD0093
:102E18008A010821DB30C4007030C5008A0108210E
:102E28008A150A16B42F3C08A0003D08A1004C30B2
:102E3800A3001F308A017F208A110A16031D372F2D
:102E48008A010821BB30D2008A0108210630CD0052
:102E58008A0108211230C4007E30C5008A01082189
:102E68008A150A16B42F3C08A0003D08A1004C3072
:102E7800A300DF308A017F208A110A16031D572F0D
:102E88008A010821BC30D2008A0108210630CD0011
:102E98008A010821BB30C4009030C5008A0108218E
:102EA8008A150A16B42F3C08A0003D08A1004D3031
:102EB800A300B2308A017F208A110A16031D772FDA
:102EC8008A010821BD30D2008A0108210630CD00D0
:102ED8008A0108216430C400A330C5008A01082192
:102EE8008A150A16B42F3C08A0003D08A1004E30F0
:102EF800A30084308A017F208A110A16031D972FA8
:102F08008A010821BE30D2008A0108210630CD008E
:102F18008A010821FC30C400B530C5008A010821A7
:102F28008A150A16B42F3C08A0003D08A1004F30AE
:102F3800A30061308A017F208A110A16031DB72F6A
:102F48008A010821BF30D2008A0108210630CD004D
:102F58008A010821D730C400C930C5008A01082178
:102F68008A150A16B42F3C08A0003D08A10050306D
:102F7800A3003C308A017F208A110A16031DD72F2F
:102F88008A010821C030D2008A0108210630CD000C
:102F98008A010821A030C400DE30C5008A0108215A
:102FA8008A150A16B42F3C08A0003D08A10051302C
:102FB800A30004308A017F208A110A16031DF72F07
:102FC8008A010821C130D2008A0108210630CD00CB
:102FD8008A0108211A30C400ED30C5008A01082191
:102FE8008A150A16B42F3C08A0003D08A1005130EC
:102FF800A300DC308A017F208A150A16031D1728D2
:103008008A010821C230D2008A0108210730CD0088
:103018008A0108215130C4000130C5008A01082105
:103028008A150A16B42F3C08A0003D08A1005230AA
:10303800A300CE308A017F208A150A16031D37287F
:103048008A010821C330D2008A0108210730CD0047
:103058008A0108217E30C4001830C5008A01082181
:103068008A150A16B42F3C08A0003D08A100533069
:10307800A300C2308A017F208A150A16031D57282B
:103088008A010821C430D2008A0108210730CD0006
:103098008A0108210230C4002E30C5008A010821A7
:1030A8008A150A16B42F3C08A0003D08A100543028
:1030B800A300AF308A017F208A150A16031D7728DE
:1030C8008A010821C530D2008A0108210730CD00C5
:1030D8008A0108212F30C4004530C5008A01082123
:1030E8008A150A16B42F3C08A0003D08A1005530E7
:1030F800A3008B308A017F208A150A16031D9728A2
:103108008A010821C630D2008A0108210730CD0083
:103118008A010821EB30C4005530C5008A01082116
:103128008A150A16B42F3C08A0003D08A1005630A5
:10313800A30073308A017F208A150A16031DB72859
:103148008A010821C730D2008A0108210730CD0042
:103158008A0108211730C4006E30C5008A01082191
:103168008A150A16B42F3C08A0003D08A100573064
:10317800A30081308A017F208A150A16031DD728EB
:103188008A010821C830D2008A0108210730CD0001
:103198008A010821A930C4008630C5008A010821A7
:1031A8008A150A16B42F3C08A0003D08A100583023
:1031B800A30095308A017F208A150A16031DF72877
:1031C8008A010821C930D2008A0108210730CD00C0
:1031D8008A0108213B30C4009F30C5008A010821BC
:1031E8008A150A16B42F3C08A0003D08A1005930E2
:1031F800A300B3308A017F208A150A16031D1729F8
:103208008A010821CA30D2008A0108210730CD007E
:103218008A0108214430C400B830C5008A01082159
:103228008A150A16B42F3C08A0003D08A1005A30A0
:10323800A300D4308A017F208A150A16031D372976
:103248008A010821CB30D2008A0108210730CD003D
:103258008A0108211830C400D330C5008A0108212A
:103268008A150A16B42F3C08A0003D08A1005B305F
:10327800A300D9308A017F208A150A16031D572911
:103288008A010821CC30D2008A0108210730CD00FC
:103298008A0108211530C400E730C5008A010821D9
:1032A8008A150A16B42F3C08A0003D08A1005C301E
:1032B800A300F8308A017F208A150A16031D772992
:1032C8008A010821CD30D2008A0108210830CD00BA
:1032D8008A0108213030C4000630C5008A0108215F
:1032E8008A150A16B42F3C08A0003D08A1005E30DC
:1032F800A30041308A017F208A150A16031D9729E9
:103308008A010821CE30D2008A0108210830CD0078
:103318008A0108212630C4002130C5008A0108210D
:103328008A150A16B42F3C08A0003D08A1005F309A
:10333800A30085308A017F208A150A16031DB72944
:103348008A010821CF30D2008A0108210830CD0037
:103358008A0108213B30C4003F30C5008A0108219A
:103368008A150A16B42F3C08A0003D08A100603059
:10337800A300CE308A017F208A150A16031DD7299B
:103388008A010821D030D2008A0108210830CD00F6
:103398008A0108213F30C4005D30C5008A01082138
:1033A8008A150A16B42F3C08A0003D08A100623017
:1033B800A3001F308A017F208A150A16031DF729EA
:1033C8008A010821D130D2008A0108210830CD00B5
:1033D8008A010821C830C4007E30C5008A0108214E
:1033E8008A150A16B42F3C08A0003D08A1006330D6
:1033F800A30050308A017F208A150A16031D172A58
:103408008A010821D230D2008A0108210830CD0073
:103418008A0108216E30C4009430C5008A01082151
:103428008A150A16B42F3C08A0003D08A100643094
:10343800A30094308A017F208A150A16031D372AB3
:103448008A010821D330D2008A0108210830CD0032
:103458008A010821A230C400B530C5008A010821BC
:103468008A150A16B42F3C08A0003D08A100663052
:10347800A3000B308A017F208A150A16031D572ADC
:103488008A010821D430D2008A0108210830CD00F1
:103498008A0108219330C400D530C5008A0108216B
:1034A8008A150A16B42F3C08A0003D08A100673011
:1034B800A3008A308A017F208A150A16031D772AFD
:1034C8008A010821D530D2008A0108210830CD00B0
:1034D8008A0108216F30C400F930C5008A0108212B
:1034E8008A150A16B42F3C08A0003D08A1006930CF
:1034F800A30012308A017F208A150A16031D972A15
:103508008A010821D630D2008A0108210930CD006D
:103518008A0108217330C4001D30C5008A010821C2
:103528008A150A16B42F3C08A0003D08A1006A308D
:10353800A30097308A017F208A150A16031DB72A2F
:103548008A010821D730D2008A0108210930CD002C
:103558008A0108216E30C4004430C5008A01082160
:103568008A150A16B42F3C08A0003D08A1006C304B
:10357800A3000D308A017F208A150A16031DD72A59
:103588008A010821D830D2008A0108210930CD00EB
:103598008A0108212F30C4006130C5008A01082142
:1035A8008A150A16B42F3C08A0003D08A1006D300A
:1035B800A300A3308A017F208A150A16031DF72A63
:1035C8008A010821D930D2008A0108210930CD00AA
:1035D8008A0108210830C4008830C5008A01082102
:1035E8008A150A16B42F3C08A0003D08A1006F30C8
:1035F800A30069308A017F208A150A16031D172B3C
:103608008A010821DA30D2008A0108210930CD0068
:103618008A0108211530C400AE30C5008A0108218E
:103628008A150A16B42F3C08A0003D08A100713085
:10363800A30043308A017F208A150A16031D372B01
:103648008A010821DB30D2008A0108210930CD0027
:103658008A0108211C30C400DA30C5008A0108211B
:103668008A150A16B42F3C08A0003D08A100733043
:10367800A3001E308A017F208A150A16031D572BC6
:103688008A010821DC30D2008A0108210A30CD00E5
:103698008A0108219130C4000530C5008A0108213B
:1036A8008A150A16B42F3C08A0003D08A100743002
:1036B800A300EB308A017F208A150A16031D772B99
:1036C8008A010821DD30D2008A0108210A30CD00A4
:1036D8008A0108218230C4003630C5008A010821D9
:1036E8008A150A16B42F3C08A0003D08A1007630C0
:1036F800A300A8308A017F208A150A16031D972B7C
:103708008A010821DE30D2008A0108210A30CD0062
:103718008A0108211D30C4005730C5008A010821DC
:103728008A150A16B42F3C08A0003D08A10078307D
:10373800A30089308A017F208A150A16031DB72B3A
:103748008A010821DF30D2008A0108210A30CD0021
:103758008A0108213230C4008630C5008A01082158
:103768008A150A16B42F3C08A0003D08A1007A303B
:10377800A300AD308A017F208A150A16031DD72BB6
:103788008A010821E030D2008A0108210A30CD00E0
:103798008A0108218730C400B930C5008A01082190
:1037A8008A150A16B42F3C08A0003D08A1007C30F9
:1037B800A300E4308A017F208A150A16031DF72B1F
:1037C8008A010821E130D2008A0108210A30CD009F
:1037D8008A010821A830C400ED30C5008A010821FB
:1037E8008A150A16B42F3C08A0003D08A1007F30B6
:1037F800A30073308A017F208A150A16031D172C2F
:103808008A010821E230D2008A0108210B30CD005C
:103818008A010821D130C4002030C5008A0108215E
:103828008A150A16B42F3C08A0003D08A100813073
:10383800A30071308A017F208A150A16031D372CD0
:103848008A010821E330D2008A0108210B30CD001B
:103858008A010821A730C4004A30C5008A0108211E
:103868008A150A16B42F3C08A0003D08A100833031
:10387800A3002C308A017F208A150A16031D572CB5
:103888008A010821E430D2008A0108210B30CD00DA
:103898008A0108212A30C4008330C5008A01082122
:1038A8008A150A16B42F3C08A0003D08A1008530EF
:1038B800A300AD308A017F208A150A16031D772CD4
:1038C8008A010821E530D2008A0108210B30CD0099
:1038D8008A010821DB30C400C030C5008A010821F4
:1038E8008A150A16B42F3C08A0003D08A1008830AC
:1038F800A3004B308A017F208A150A16031D972CD6
:103908008A010821E630D2008A0108210B30CD0057
:103918008A0108210330C400FF30C5008A0108214C
:103928008A150A16B42F3C08A0003D08A1008B3068
:10393800A3000C308A017F208A150A16031DB72CB4
:103948008A010821E730D2008A0108210C30CD0015
:103958008A0108217130C4004130C5008A0108215C
:103968008A150A16B42F3C08A0003D08A1008D3026
:10397800A300D1308A017F208A150A16031DD72C8F
:103988008A010821E830D2008A0108210C30CD00D4
:103998008A010821FA30C4008430C5008A01082150
:1039A8008A150A16B42F3C08A0003D08A1009030E3
:1039B800A30061308A017F208A150A16031DF72C9F
:1039C8008A010821E930D2008A0108210C30CD0093
:1039D8008A010821D730C400B830C5008A010821FF
:1039E8008A150A16B42F3C08A0003D08A1009330A0
:1039F800A30048308A017F208A150A16031D172D57
:103A08008A010821EA30D2008A0108210D30CD0050
:103A18008A0108215030C4000230C5008A010821FB
:103A28008A150A16B42F3C08A0003D08A10096305C
:103A3800A30080308A017F208A150A16031D372DBE
:103A48008A010821EB30D2008A0108210D30CD000F
:103A58008A0108212430C4005030C5008A01082199
:103A68008A150A16B42F3C08A0003D08A100993019
:103A7800A300D5308A017F208A150A16031D572D09
:103A88008A010821EC30D2008A0108210D30CD00CE
:103A98008A0108219430C4009B30C5008A0108219E
:103AA8008A150A16B42F3C08A0003D08A1009D30D5
:103AB800A3005F308A017F208A150A16031D772D1F
:103AC8008A010821ED30D2008A0108210D30CD008D
:103AD8008A010821DD30C400EB30C5008A010821C5
:103AE8008A150A16B42F3C08A0003D08A100A03092
:103AF800A300AF308A017F208A150A16031D972D6F
:103B08008A010821EE30D2008A0108210E30CD004A
:103B18008A0108216C30C4004130C5008A0108219F
:103B28008A150A16B42F3C08A0003D08A100A3304E
:103B3800A300E9308A017F208A150A16031DB72DD4
:103B48008A010821EF30D2008A0108210E30CD0009
:103B58008A010821C230C4008430C5008A010821C6
:103B68008A150A16B42F3C08A0003D08A100A7300A
:103B7800A300A8308A017F208A150A16031DD72DB5
:103B88008A010821F030D2008A0108210E30CD00C8
:103B98008A0108211E30C400E430C5008A010821CA
:103BA8008A150A16B42F3C08A0003D08A100AB30C6
:103BB800A300C2308A017F208A150A16031DF72D3B
:103BC8008A010821F130D2008A0108210F30CD0086
:103BD8008A0108211930C4004430C5008A0108212F
:103BE8008A150A16B42F3C08A0003D08A100B03081
:103BF800A3000B308A017F208A150A16031D172E91
:103C08008A010821F230D2008A0108210F30CD0044
:103C18008A0108211330C400B030C5008A01082188
:103C28008A150A16B42F3C08A0003D08A100B4303C
:103C3800A30091308A017F208A150A16031D372EAA
:103C48008A010821F330D2008A0108211030CD0002
:103C58008A0108210230C4001D30C5008A010821EC
:103C68008A150A16B42F3C08A0003D08A100B930F7
:103C7800A3000D308A017F208A150A16031D572ECE
:103C88008A010821F430D2008A0108211030CD00C1
:103C98008A0108219630C4008830C5008A010821AD
:103CA8008A150A16B42F3C08A0003D08A100BD30B3
:103CB800A30056308A017F208A150A16031D772E25
:103CC8008A010821F530D2008A0108211030CD0080
:103CD8008A0108217E30C400E430C5008A01082129
:103CE8008A150A16B42F3C08A0003D08A100C1306F
:103CF800A300E4308A017F208A150A16031D972E37
:103D08008A010821F630D2008A0108211130CD003D
:103D18008A010821B530C4005E30C5008A01082137
:103D28008A150A16B42F3C08A0003D08A100C73028
:103D3800A30022308A017F208A150A16031DB72E98
:103D48008A010821F730D2008A0108211130CD00FC
:103D58008A0108215630C400DF30C5008A010821D5
:103D68008A150A16B42F3C08A0003D08A100CC30E3
:103D7800A300F1308A017F208A150A16031DD72E69
:103D88008A010821F830D2008A0108211230CD00BA
:103D98008A0108218E30C4006830C5008A010821D4
:103DA8008A150A16B42F3C08A0003D08A100D3309C
:103DB800A30014308A017F208A150A16031DF72EE6
:103DC8008A010821F930D2008A0108211230CD0079
:103DD8008A0108215030C400FB30C5008A0108213F
:103DE8008A150A16B42F3C08A0003D08A100D93056
:103DF800A3000A308A017F208A150A16031D172F8F
:103E08008A010821FA30D2008A0108211330CD0036
:103E18008A0108216330C4009930C5008A0108214D
:103E28008A150A16B42F3C08A0003D08A100DE3010
:103E3800A300BA308A017F208A150A16031D372F7E
:103E48008A010821FB30D2008A0108211430CD00F4
:103E58008A010821E430C4000D30C5008A01082118
:103E68008A150A16B42F3C08A0003D08A100E530C9
:103E7800A3003B308A017F208A150A16031D572F9D
:103E88008A010821FC30D2008A0108211430CD00B3
:103E98008A010821D230C400B830C5008A0108213F
:103EA8008A150A16B42F3C08A0003D08A100EC3082
:103EB800A30095308A017F208A150A16031D772FE3
:103EC8008A010821FD30D2008A0108211530CD0071
:103ED8008A0108217730C4006E30C5008A010821A4
:103EE8008A150A16B42F3C08A0003D08A100F63038
:103EF800A3006A308A017F208A150A16031D972FAE
:103F08008A010821FE30D2008A0108211630CD002E
:103F18008A0108213130C4002130C5008A010821F6
:103F28008A150A16B42F3C08A0003D08A100FF30EE
:103F3800A300FF308A017F208A150A16031DB42FBB
:103F48008A010821FF30D2008A0108211730CD00EC
:103F58008A0108216A30C400A930C5008A010821F5
:103F68008A0108215208A800FF30A200A3010130ED
:103F78008A0105208A0108210800030183160C180C
:103F8800FF308312BE0003010C18FF30C0003E084A
:103F9800840040088A019220C000C10064004008E3
:103FA80041048A150A160319F62FD30A53084C023E
:103FB800031DFF30FF3ABE005008003C031DFF30D0
:103FC800FF3AC0003E08840040088A019220C000E1
:103FD800C1006400400841048A150A160319F52F28
:103FE800D4140C1009008A01082163008A150A16E6
:023FF800F92F9F
:02400E00C420CC
:00000001FF
