:020000040000FA
:04000000B2017A29A6
:080008000800A9004030A0002F
:100010004230A1000F30A400A5013A21AA01210815
:10002000031919282A145520FC3E031C1928AA1468
:1000300055202003AB00280F2128FF30A400A50085
:100040002C282808A500A401A600A7012B0A031943
:100050002C28A200A3015421A90B45281708CF3949
:10006000A41B2038241B10380C3897002508950055
:100070008316071183122B0883169200831212082D
:10008000FC392A04043892007529A90B54281D084C
:10009000CF39A41B2038241B10380C389D002508AC
:1000A0009B00831687103A287529A10CA00CA10C7F
:1000B000A00C08000408A70087100710071083167B
:1000C0008710071007100F30870583122708B21812
:1000D00087283A30A100FC30FD203330A6009B2059
:1000E0001030A1006830FD209B206430FC209B2054
:1000F0002230A6009B20283086200C30862001303C
:10010000862006308620B214270887283214A600DD
:10011000321C95280710033C031C9A289A200730AC
:10012000A100D030FD20031408003214FE3C031956
:1001300075290714321C321087140F3087052608E2
:10014000F03987048710A60E32189B283230FC2025
:1001500003140800B400EB202008210403197529BA
:100160006A218413340880066400B628B728A00AE0
:100170000319A10FB42880067529B31329080319A0
:10018000B3170530A8002730A3001030D320033068
:10019000A300E830D320A3016430D320A3010A30A8
:1001A000D3202408DA28A2002508A1002408A000F2
:1001B00038212008A000A8030319B3132908031944
:1001C000E4282802031808002008031DB313B31BFA
:1001D0000800303E7029FF3A841780057529A30175
:1001E000A200FF30A207031CA307031C75290330DC
:1001F000A100DF30FD20F128A101E83EA000A10907
:10020000FC30031C0629A00703180329A00764007B
:10021000A10F032920180C29A01C10290000102967
:100220000800A20003301D29A20001301D29A200F0
:1002300006301D29A20004301D29A8002308210230
:10024000031D242922082002043003180130031959
:1002500002302805031DFF3075290038031DFF30CB
:100260000405031DFF3075290404031DFF307529A3
:10027000A501A4011030A600210DA40DA50D220892
:10028000A4022308031C230FA50203184E292208E9
:10029000A40723080318230FA5070310A00DA10D21
:1002A000A60B3C29200875291030A800A101A00147
:1002B000A70CA60C031C62292208A0072308031818
:1002C000230FA107A10CA00CA50CA40CA80B582966
:1002D00024087529A009A109A00A0319A10A080088
:1002E000840031088A0030088200831303138312CC
:1002F00064000800C0309F00831677308F001130F3
:1003000085000330860087019501A33081008312A8
:10031000E0308B008316960101308C008D01831232
:100320008C018D0183160317013088008901831227
:100330000313C1309F00831680309F008312031780
:10034000870188018901831603139701031785012B
:100350008312031390010C3097009D0183169C01BA
:1003600001309D008312053094008B178A110A1208
:10037000BE298B1B08008A110A12C72C8A01B921D9
:1003800085018A01B92186018A01B92187018A0183
:10039000B92106158A01B92186158A01B9211330C0
:1003A000EF008A01B921FA30EC00FF30ED008A013C
:1003B000B921D601D7018A01B9216430D800D90109
:1003C0008A01B921F4018A01B921F0018A01B92118
:1003D0008F018A01B9218E018A01B921F6018A01B2
:1003E000B92177118A01B921F7108A01B921F301E6
:1003F0008A01B921DA01DB018A01B921DC01DD01C1
:100400008A01B921EE018A01B921F2018A01B921DB
:10041000E801E9018A01B921E601E7018A01B92170
:10042000EA01EB018A01B92177108A01B921F101B2
:100430008A01B921FF30F5008A01B9217508A800A9
:100440001030A2002730A30001308A0105208A0164
:10045000B9210130A300F4308A01F0208A01B921CA
:10046000FE308A015B2001308A015B208A01B921BC
:1004700064008A110A12061C862A8A01B921643096
:100480008A01EF208A01B921F20A8A01B9216400A8
:100490008A110A12061C4E2A8A013D2A8A01B921B4
:1004A00064000B3072028A110A12031C5C2A0430A9
:1004B000F7068316771183128A01B92164000A3086
:1004C00072028A110A120318812A8A01B9210430A2
:1004D00086068316061183128A01B92164008A11E7
:1004E0000A127719772A06198615061D86118A01C0
:1004F000B92164008A110A12771D7F2A86118A01A8
:10050000B9218A01B921F2018A01B9218A01B921EF
:1005100064008A110A12861C122C8A01B9216430E7
:100520008A01EF208A01B921F20A8A01B921640007
:100530008A110A12861C9E2A8A018D2A8A01B921F3
:100540006430A000A1010530840080308A01AA2017
:100550008A01B92110108A01B92164007008003C99
:100560008A110A12031DE82A8A01B9218B128A0115
:10057000B9218F018A01B9218E018A01B921F601C1
:100580008A01B92110148A01B921F3018A01B92124
:10059000F30164000B3073028A110A120318E62A71
:1005A0008A01B9210310730D383E84008001840A4A
:1005B00080018A01B92173084C3E840080018A01C0
:1005C000B921F30A8A110A12031DC92A8A01B92125
:1005D0008A01B9216400013070028A110A12031CD9
:1005E000EE2B8A01B921FF307007DE00FF300318BF
:1005F000013EDF005E08383E84000E0880008A015C
:10060000B921FF307007DE00FF300318013EDF0024
:100610005E08393E84000F0880008A01B921FF304E
:100620007007DE00FF300318013EDF005E084C3E1D
:100630008400760880008A01B921DA01DB018A0191
:10064000B921DC01DD018A01B921EC01ED018A014A
:10065000B921EF018A01B9210130F3008A01B921E2
:100660000130F3006400730870028A110A12031C3F
:10067000742B8A01B921FF307307DE00FF300318A5
:10068000013EDF005E08383E84000008DE005E08A0
:10069000DA070318DB0A8A01B921FF307307DE008D
:1006A000FF300318013EDF005E08393E8400000879
:1006B000DE005E08DC070318DD0A8A01B921FF307D
:1006C0007307DE00FF300318013EDF005E084C3E7A
:1006D00084000008DE005E08EF078A01B921F30AF2
:1006E0008A110A12031D322B8A01B9215A08A0006F
:1006F0005B08A1007008A200A3018A013821EC0068
:100700008A01B9215C08A0005D08A1007008A20060
:10071000A3018A013821ED008A01B9216F08A000E8
:10072000A1017008A200A3018A013821EF008A010B
:10073000B921640014306F028A110A12031CAC2B19
:100740008A01B9211330EF008A01B921FA30EC0097
:10075000FF30ED008A01B9218A01B9218F018A0198
:10076000B9218E018A01B921F6018A01B92110143B
:100770008A01B921CC30A6000C30A7006F08A20076
:10078000A3018A015421E8002508E9008A01B92162
:100790006C08A0006D08A1001430A200A3018A011A
:1007A0003821DE002108DF005E08E8075F08031833
:1007B000013EE9078A01B921FE308A015B208030C1
:1007C0008A015B20A9016808A4006908A5005A30C5
:1007D000B000B1018A01BD208A01B9218A01B92185
:1007E000F00A8A01B921F2018A01B9216400700876
:1007F0000B3C8A110A12031DFE2BF0018A01B9215C
:10080000FE308A015B2088308A015B200230A9001B
:100810007008A400A5015A30B000B1018A01BD20C2
:100820008A01B9218A01B92164007008003C8A114B
:100830000A12031DC32C8A01B9219E018A01B92124
:1008400083169E0183128A01B9219F148A01B9215E
:1008500064008A110A120C1F262C8A01B9210C137C
:100860008A01B921D601D7018A01B9211E08A60043
:10087000A701FF30A200A3018A015421D600250858
:10088000D7008A01B92183161E088312D6070318E0
:10089000D70A8A01B92102305802DE000030031C59
:1008A000013E5902DF005608A0005708A1005F086A
:1008B000A3005E088A011A21DE0002305807E0001A
:1008C00059080318013EE1005608A0005708A1008E
:1008D0006108A30060088A011421E0005E0884001A
:1008E00060088A013421E000E100640060086104CE
:1008F0008A110A120319C12C8A01B92177108A01C1
:10090000B9215608D8005708D9008A01B9215608DC
:10091000A0005708A1000430A200A3018A013821D9
:10092000F5008A01B9217508A8001030A20027300F
:10093000A30001308A0105208A01B921FE308A0115
:100940005B208D308A015B200330A9007508A4006C
:10095000A5015A30B000B1018A01BD20FE308A01E4
:100960005B20CC308A015B200430A9005608A4002B
:100970005708A5005A30B000B1018A01BD208A0194
:10098000B9218A01B9218A01B9218A01362A640074
:100990008A110A120B1D882EF40A64007408A83C00
:1009A0008A110A12031D882E6430A000A1010530AF
:1009B000840080308A01AA2010100E08EA000F0877
:1009C000EB007608EE008F018E01F6011014CC309A
:1009D000A6000C30A7006E08A200A3018A015421D2
:1009E000E6002508E7006A08A0006B08A1001430A3
:1009F000A200A3018A013821DE002108DF005E0881
:100A0000E6075F080318013EE70764008A110A122F
:100A1000771C762E6608A0006708A1006430A2004B
:100A2000A3018A013821DE002108DF006808A00048
:100A30006908A1006430A200A3018A013821E00006
:100A40002108E1006430E0020030031C013EE102B5
:100A50005E08A0005F08A1006108A30060088A0189
:100A600011218A110A12031D372D0A30F507660875
:100A7000A0006708A1006430A200A3018A01382108
:100A8000DE002108DF006808A0006908A1006430CA
:100A9000A200A3018A013821E0002108E1003230E0
:100AA000E0020030031C013EE1025E08A0005F0886
:100AB000A1006108A30060088A0111218A110A12AD
:100AC000031D642D0530F5076608A0006708A10026
:100AD0006430A200A3018A013821DE002108DF0072
:100AE0006808A0006908A1006430A200A3018A017F
:100AF0003821E0002108E1000230E0020030031C50
:100B0000013EE1025E08A0005F08A1006108A300A9
:100B100060088A0111218A110A12031D902DF50A1D
:100B20006608A0006708A1006430A200A3018A0142
:100B30003821DE002108DF006808A0006908A10054
:100B40006430A200A3018A013821E0002108E100FD
:100B50006430E0070318E10A5E08A0005F08A10006
:100B60006108A30060088A0117218A110A12031D77
:100B7000BB2D0A30F5026608A0006708A1006430AA
:100B8000A200A3018A013821DE002108DF006808E5
:100B9000A0006908A1006430A200A3018A013821E5
:100BA000E0002108E1003230E0070318E10A5E08A6
:100BB000A0005F08A1006108A30060088A01172156
:100BC0008A110A12031DE62D0530F5026608A00001
:100BD0006708A1006430A200A3018A013821DE0069
:100BE0002108DF006808A0006908A1006430A200A5
:100BF000A3018A013821E0002108E1000230E0076A
:100C00000318E10A5E08A0005F08A1006108A300C4
:100C100060088A0117218A110A12031D102EF5039C
:100C20007508A8001030A2002730A30001308A0107
:100C300005206608A0006708A1006430A200A30197
:100C40008A013821DE002108DF006808A000690859
:100C5000A1006430A200A3018A013821E00021082C
:100C6000E1000230E0070318E10A5E08A0005F0817
:100C7000A1006108A30060088A011A21E00066084B
:100C8000A0006708A1006430A200A3018A013821F6
:100C9000E2002108E3006808A0006908A1006430B0
:100CA000A200A3018A013821E4002108E5000230F6
:100CB000E4020030031C013EE5026208A000630864
:100CC000A1006508A30064088A011421E4006008FB
:100CD000840064088A012D21E400E50064006408B2
:100CE00065048A110A120319762E7710FE308A01E4
:100CF0005B20C0308A015B200530A9006608A40093
:100D00006708A5005A30B000B1018A01BD20F40186
:100D100064008A110A120C1CA02EF60A64001A3014
:100D200076028A110A12031CA02EF601640002301A
:100D300070028A110A12031C9E2E7714F0018B1682
:100D40000B110C1009008A01B92163008A01A52E3C
:02400E00C423C9
:024010000007A7
:00000001FF
