:02000000C62810
:100008000800A9004030A0004230A1000F30A40031
:10001800A5019120AA012108031919282A144620AC
:10002800FC3E031C1928AA1446202003AB00280F05
:100038002128FF30A400A5002C282808A500A40129
:10004800A600A7012B0A03192C28A200A301AB20A4
:10005800A90B45281508CF39A41B2038241B1038B4
:100068000C389500250893008316051183122B0878
:100078008316920083121208FC392A04043892006D
:10008800C128C128A10CA00CA10CA00C0800A30138
:10009800A200FF30A207031CA307031CC1280330DA
:1000A800A100DF3059204D28A101E83EA000A10998
:1000B800FC30031C6228A00703185F28A00764000F
:1000C800A10F5F2820186828A01C6C2800006C2845
:1000D8000800A20002307828A20003307828A10185
:1000E800A301A20004307828A80023082102031DD8
:1000F8007F28220820020430031801300319023037
:100108002805031DFF30C1280038031DFF300405F2
:10011800031DFF30C128A501A4011030A600210D40
:10012800A40DA50D2208A4022308031C230FA50271
:100138000318A5282208A40723080318230FA507D6
:100148000310A00DA10DA60B93282008C12810307C
:10015800A800A101A001A70CA60C031CB92822081D
:10016800A00723080318230FA107A10CA00CA50CB6
:10017800A40CA80BAF282408C128831303138312E7
:1001880064000800831677308F000B308500033039
:100198009F00831281309F00073099009A018316CF
:1001A80081018312C0308B00831601308C008312CA
:1001B8008C0190010F3095008B17E5288B1B0800E8
:1001C800922BE220D410E220FF30D000E220FE3053
:1001D800C200FF30C300E220BC01BD01E220B8012B
:1001E800B901E220D101E2205411E2205410E220AA
:1001F800D301E2201330CC00E220FA30CA00FF30ED
:10020800CB00E2208F01E2208E01E2201014E220D0
:10021800B129E220640085191D29E22064005419DF
:100228007929E22064005108003C031D1C2954155B
:10023800E220E2200301851CFF30BE000301051AFD
:10024800FF30C0003E08840040088820C000C1007C
:1002580064004008410403197929E2206400510828
:10026800283C031D4529E2200230D4068316D41009
:100278008312E2200130B8020030031C013EB902AB
:10028800E220E22032304B20E220D10AE220640052
:10029800851C3129E220640029305102031C5E29A3
:1002A800E22064005008FF3C031D5B29D001E220D6
:1002B800D301E220E2200301D418FF30BE00510828
:1002C800A00028307320C0003E0884004008882021
:1002D800C000C10064004008410403197429992230
:1002E800E2205410E220D101E220E2206400541CF4
:1002F800B129E22064004A080E02031C7D29E2208D
:1003080064004B080F02031C8329E2201010E2202E
:100318005410E220D301E2208F01E2208E01E22076
:100328001014E22064005008003C031DB029E220AC
:10033800831685108312E220D4188514D41C8510E6
:10034800E2200130A100F4305920E2208510E2209B
:10035800831685148312E220E220E2203808BA00CE
:100368003908BB00E2209E01E22083169E01831219
:10037800E2209F14E22064000C1FBE29E2200C1327
:10038800E220FF30A600A7011E08A200A301AB20AF
:10039800BE002508BF0083161E0883123E07B8005A
:1003A8003F080318013EB900E2203808A0003908C8
:1003B800A1003B08A3003A086D20031D0D29E22087
:1003C8006400D418FD29E2203808A0003908A100EB
:1003D8000430A200A3018F20D200E2206400051E91
:1003E800FC295208A800FF30A200A3010130052013
:1003F800E220E2200301D418FF30BE005008003C80
:10040800031DFF30FF3AC0003E08840040088820E2
:10041800C000C1006400400841040319972AE22083
:10042800E2203808A0003908A100A301CD307020CF
:10043800031D2C2AE2204208A0004308A100033033
:10044800A200A3018F20BC002108BD00E220942A4D
:100458003808A0003908A1000130A3009A307020A4
:10046800031D3E2AE2200310430CBD00420CBC00D1
:10047800E220942A3808A0003908A1000230A3001D
:1004880067307020031D612AE2204208A00043085B
:10049800A1000330A200A3018F20BE002108BF00E5
:1004A8003E08A6003F08A7000230A200A301AB2027
:1004B800BC002508BD00E220942A3808A0003908AD
:1004C800A1000330A30034307020031D842AE220E9
:1004D8004208A0004308A1000430A200A3018F2015
:1004E800BE002108BF003E08A6003F08A700033051
:1004F800A200A301AB20BC002508BD00E220942A7D
:100508003808A0003908A1000330A3003430752052
:10051800031D942AE2204208BC004308BD00E220E3
:10052800E2208323E220E2200D29E220D00AE22003
:100538001010E220E22064005008013C031DC22A8A
:10054800E2208F01E2208E01E220D301E220CC01DB
:10055800E220CD01E220CE01E220CF01E220C40159
:10056800C501E220C601C701E220C801C901E22095
:10057800CA01CB01E2201014E220812B640050084C
:10058800023C031DDA2AE2200E08C400E2200F080C
:10059800C500E2208F01E2208E01E2205308CD0041
:1005A800E220D301E2201014E220812B64005008DD
:1005B800033C031DF22AE2200E08C600E2200F08C1
:1005C800C700E2208F01E2208E01E2205308CE000E
:1005D800E220D301E2201014E220812B64005008AD
:1005E800043C031D812BE2200E08C800E2200F08FE
:1005F800C900E2205308CF00E2204D084E07BE0094
:10060800BF01BF0D3E084F07CC00E2204C08A000F8
:10061800A1010330A200A3018F20CC00E2204408EE
:100628004607BE00BF01BF0D48083E07C2003F088D
:100638000318013EC300E2204208A0004308A100BD
:100648000330A200A3018F20CA00E2204508470713
:10065800BE00BF01BF0D49083E07C2003F0803188E
:10066800013EC300E2204208A0004308A100033075
:10067800A200A3018F20CB00E220640014304C02BA
:10068800031C4F2BE2201330CC00E220FA30CA00C2
:10069800FF30CB00E220E220CC30A6000C30A700CF
:1006A8004C08A200A301AB20C2002508C300E22029
:1006B8004A08A0004B08A1001430A200A3018F2013
:1006C800BE002108BF003E08C2073F080318013ECC
:1006D800C307E220D301E220D001E2208F01E2200B
:1006E8008E01E2205410E2200130B8020030031CD1
:1006F800013EB902E2201014E220E2200800E220C4
:10070800E220E2206400051E902B5208A800FF306A
:10071800A200A30101300520E2200800030183168E
:100728000C18FF308312BE0003010C18FF30C00004
:100738003E08840040088820C000C10064004008CA
:1007480041040319CF2BD30A640053084C02031D3C
:10075800AE2B54146400541DCE2BD10A64005108EA
:100768001E3C031DBF2B6400051EBF2B20308506D1
:100778008316851283126400851DCE2B64001E30FB
:1007880051020318CC2B10308506831605128312EC
:0E079800D10154110C100900E2206300D12B96
:02400E00C430BC
:00000001FF
