:02000000D52801
:100008000800A9004030A0004230A1000F30A40031
:10001800A501A020AA012108031919282A1455208E
:10002800FC3E031C1928AA1455202003AB00280FF6
:100038002128FF30A400A5002C282808A500A40129
:10004800A600A7012B0A03192C28A200A301BA2095
:10005800A90B45281708CF39A41B2038241B1038B2
:100068000C389700250895008316071183122B0872
:100078008316920083121208FC392A04043892006D
:10008800D028A90B54281D08CF39A41B2038241BBD
:1000980010380C389D0025089B00831687103A28D5
:1000A800D028A10CA00CA10CA00C0800A301A20050
:1000B800FF30A207031CA307031CD0280330A100AC
:1000C800DF3068205C28A101E83EA000A109FC30CF
:1000D800031C7128A00703186E28A0076400A10F4D
:1000E8006E2820187728A01C7B2800007B28080091
:1000F800A20002308728A20003308728A101A301AB
:10010800A20004308728A80023082102031D8E2896
:100118002208200204300318013003190230280590
:10012800031DFF30D0280038031DFF300405031DD0
:10013800FF30D028A501A4011030A600210DA40D80
:10014800A50D2208A4022308031C230FA5020318E7
:10015800B4282208A40723080318230FA5070310AF
:10016800A00DA10DA60BA2282008D0281030A800A9
:10017800A101A001A70CA60C031CC8282208A007EF
:1001880023080318230FA107A10CA00CA50CA40C8D
:10019800A80BBE282408D0288313031383126400F5
:1001A8000800C0309F00831677308F000F3085001D
:1001B800860187019501870181018312C0308B0078
:1001C8008316960101308C008D0183128C018D01FC
:1001D80083160317013088008901831203138130C5
:1001E8009F00831680309F008312031721308700F9
:1001F80088018901831685018312031390010F304A
:1002080097009D0183169C0101309D0083120530E3
:1002180094008B178A110A1216298B1B08008A155D
:100228000A16BE2A8A01112186018A011121870135
:100238008A011121D4108A011121FF30D0008A01CE
:100248001121FE30C200FF30C3008A011121BC0118
:10025800BD018A011121B801B9018A011121D10119
:100268008A01112154118A01112154108A01112186
:1002780085128A011121D3018A0111211330CC0082
:100288008A011121FA30CA00FF30CB008A011121FE
:100298008F018A0111218E018A01112110148A010E
:1002A80011218A110A123A2A8A01112164008A113D
:1002B8000A12051972298A01112164008A110A1289
:1002C8005419F6298A01112164005108003C8A1149
:1002D8000A12031D702954158A0111218A0111215E
:1002E8000301851DFF30BE0003010618FF30C00062
:1002F8003E08840040088A019720C000C1006400BD
:10030800400841048A110A120319F6298A011121A9
:1003180064005108283C8A110A12031DA7298A0182
:1003280011210230D4068316D41083128A011121B8
:1003380085168A0111210130B8020030031C013EE4
:10034800B9028A0111218A01112132308A015A2009
:100358008A011121D10A8A01112164008A110A1225
:10036800851D8A298A01112185128A0111216400BB
:10037800293051028A110A12031CD1298A0111213C
:1003880064005008FF3C8A110A12031DCC29D001D1
:100398008A011121D3018A0111218A011121030146
:1003A800D418FF30BE005108A00028308A018220EE
:1003B800C0003E08840040088A019720C000C100A0
:1003C8006400400841048A110A120319EE298A11AF
:1003D8000A1274238A01112154108A011121D101B2
:1003E8008A0111218A01112164008A110A12541C00
:1003F8003A2A8A01112164004A080E028A110A1257
:10040800031CFD298A01112164004B080F028A117F
:100418000A12031C062A8A01112110108A011121CF
:1004280054108A011121D3018A0111218F018A01F7
:1004380011218E018A01112110148A0111216400F1
:100448005008003C8A110A12031D2E2AD41885165A
:10045800D41C85128A0111210130A100F4308A01CF
:1004680068208A01112185128A0111218A0111212E
:100478003808BA003908BB008A0111219E018A0197
:10048800112183169E0183128A0111211F118A01ED
:1004980011210A308A0167208A0111219F148A01DB
:1004A800112164008A110A120C1F532A8A01112192
:1004B8000C138A011121FF30A600A7011E08A20013
:1004C800A3018A01BA20BE002508BF0083161E08B2
:1004D80083123E07B8003F080318013EB9008A019D
:1004E80011213808A0003908A1003B08A3003A08E8
:1004F8008A017C208A110A12031D58298A011121B8
:1005080064008A110A12D418A62A8A01112138080F
:10051800A0003908A1000430A200A3018A019E208E
:10052800D2008A01112164008A110A12061CA42A29
:100538005208A800FF30A200A30101308A0105205B
:100548008A0111218A0111210301D418FF30BE004C
:100558005008003C031DFF30FF3AC0003E088400ED
:1005680040088A019720C000C10064004008410487
:100578008A110A120319702B8A0111218A0111218B
:100588003808A0003908A100A301D1308A017F20D2
:100598008A110A12031DE32A8A0111214208A000C8
:1005A8004308A1000330A200A3018A019E20BC00D9
:1005B8002108BD008A0111218A110A12692B380805
:1005C800A0003908A1000230A30084308A017F20EE
:1005D8008A110A12031DFC2A8A0111210310430CF7
:1005E800BD00420CBC008A0111218A110A12692B34
:1005F8003808A0003908A1000330A30099308A0107
:100608007F208A110A12031D282B8A011121420812
:10061800A0004308A1000330A200A3018A019E2084
:10062800BE002108BF003E08A6003F08A700023010
:10063800A200A3018A01BA20BC002508BD008A01D6
:1006480011218A110A12692B3808A0003908A10063
:100658000330A300E8308A017F208A110A12031DA3
:10066800542B8A0111214208A0004308A10004303C
:10067800A200A3018A019E20BE002108BF003E08F7
:10068800A6003F08A7000330A200A3018A01BA20F0
:10069800BC002508BD008A0111218A110A12692BA4
:1006A8003808A0003908A1000330A300E8308A0107
:1006B80084208A110A12031D692B8A01112142081C
:1006C800BC004308BD008A0111218A0111218A1149
:1006D8000A12AC248A0111218A0111218A015829A0
:1006E8008A011121D00A8A01112110108A011121D1
:1006F8008A01112164005008013C8A110A12031D65
:10070800B22B8A0111218F018A0111218E018A01E0
:100718001121D3018A011121CC018A011121CD01B6
:100728008A011121CE018A011121CF018A011121EB
:10073800C401C5018A011121C601C7018A0111211D
:10074800C801C9018A011121CA01CB018A011121FD
:1007580010148A0111218A110A12A92C6400500868
:10076800023C8A110A12031DD62B8A0111210E0898
:10077800C4008A0111210F08C5008A0111218F01C7
:100788008A0111218E018A0111215308CD008A01A5
:100798001121D3018A01112110148A0111218A1112
:1007A8000A12A92C64005008033C8A110A12031D7E
:1007B800FA2B8A0111210E08C6008A0111210F089F
:1007C800C7008A0111218F018A0111218E018A0136
:1007D80011215308CE008A011121D3018A01112168
:1007E80010148A0111218A110A12A92C64005008D8
:1007F800043C8A110A12031DA92C8A0111210E0832
:10080800C8008A0111210F08C9008A011121530863
:10081800CF008A0111214D084E07BE00BF01BF0D50
:100828003E084F07CC008A0111214C08A000A10105
:100838000330A200A3018A019E20CC008A01112165
:1008480044084607BE00BF01BF0D48083E07C20066
:100858003F080318013EC3008A0111214208A00085
:100868004308A1000330A200A3018A019E20CA0008
:100878008A01112145084707BE00BF01BF0D49087D
:100888003E07C2003F080318013EC3008A01112138
:100898004208A0004308A1000330A200A3018A0176
:1008A8009E20CB008A011121640014304C028A1169
:1008B8000A12031C6B2C8A0111211330CC008A0107
:1008C8001121FA30CA00FF30CB008A0111218A01B8
:1008D8001121CC30A6000C30A7004C08A200A301BF
:1008E8008A01BA20C2002508C3008A0111214A08DA
:1008F800A0004B08A1001430A200A3018A019E2089
:10090800BE002108BF003E08C2073F080318013E89
:10091800C3078A011121D3018A011121D0018A015B
:1009280011218F018A0111218E018A011121541090
:100938008A0111210130B8020030031C013EB902BE
:100948008A01112110148A0111218A01112108003C
:100958008A0111218A0111213C08A0003D08A1004B
:100968001E30A30061308A017F208A110A12031DFC
:10097800C52C8A011121D2018A0111218A150A1672
:10098800AC2A3C08A0003D08A1001E30A30071302D
:100998008A017F208A110A12031DDB2C8A0111218A
:1009A8000130D2008A0111218A150A16AC2A3C08A6
:1009B800A0003D08A1001E30A30084308A017F20DA
:1009C8008A110A12031DF12C8A0111210230D2006A
:1009D8008A0111218A150A16AC2A3C08A0003D0894
:1009E800A1001E30A30099308A017F208A110A12C3
:1009F800031D072D8A0111210330D2008A0111211C
:100A08008A150A16AC2A3C08A0003D08A1001E3031
:100A1800A300AE308A017F208A110A12031D1D2D02
:100A28008A0111210430D2008A0111218A150A167F
:100A3800AC2A3C08A0003D08A1001E30A300C3302A
:100A48008A017F208A110A12031D332D8A01112180
:100A58000530D2008A0111218A150A16AC2A3C08F1
:100A6800A0003D08A1001E30A300D6308A017F20D7
:100A78008A110A12031D492D8A0111210630D2005C
:100A88008A0111218A150A16AC2A3C08A0003D08E3
:100A9800A1001E30A300EA308A017F208A110A12C1
:100AA800031D5F2D8A0111210730D2008A0111210F
:100AB8008A150A16AC2A3C08A0003D08A1001E3081
:100AC800A300FF308A017F208A110A12031D752DA9
:100AD8008A0111210830D2008A0111218A150A16CB
:100AE800AC2A3C08A0003D08A1001F30A300143028
:100AF8008A017F208A110A12031D8B2D8A01112178
:100B08000930D2008A0111218A150A16AC2A3C083C
:100B1800A0003D08A1001F30A3002B308A017F20D0
:100B28008A110A12031DA12D8A0111210A30D2004F
:100B38008A0111218A150A16AC2A3C08A0003D0832
:100B4800A1001F30A30041308A017F208A110A12B8
:100B5800031DB72D8A0111210B30D2008A01112102
:100B68008A150A16AC2A3C08A0003D08A1001F30CF
:100B7800A30055308A017F208A110A12031DCD2D4A
:100B88008A0111210C30D2008A0111218A150A1616
:100B9800AC2A3C08A0003D08A1001F30A3006B3020
:100BA8008A017F208A110A12031DE32D8A0111216F
:100BB8000D30D2008A0111218A150A16AC2A3C0888
:100BC800A0003D08A1001F30A30082308A017F20C9
:100BD8008A110A12031DF92D8A0111210E30D20043
:100BE8008A0111218A150A16AC2A3C08A0003D0882
:100BF800A1001F30A30098308A017F208A110A12B1
:100C0800031D0F2E8A0111210F30D2008A011121F4
:100C18008A150A16AC2A3C08A0003D08A1001F301E
:100C2800A300B0308A017F208A110A12031D252EE5
:100C38008A0111211030D2008A0111218A150A1661
:100C4800AC2A3C08A0003D08A1001F30A300C83012
:100C58008A017F208A110A12031D3B2E8A01112165
:100C68001130D2008A0111218A150A16AC2A3C08D3
:100C7800A0003D08A1001F30A300DB308A017F20BF
:100C88008A110A12031D512E8A0111211230D20035
:100C98008A0111218A150A16AC2A3C08A0003D08D1
:100CA800A1001F30A300F1308A017F208A110A12A7
:100CB800031D672E8A0111211330D2008A011121E8
:100CC8008A150A16AC2A3C08A0003D08A10020306D
:100CD800A3000A308A017F208A110A12031D7D2E83
:100CE8008A0111211430D2008A0111218A150A16AD
:100CF800AC2A3C08A0003D08A1002030A300223007
:100D08008A017F208A110A12031D932E8A0111215C
:100D18001530D2008A0111218A150A16AC2A3C081E
:100D2800A0003D08A1002030A3003A308A017F20AE
:100D38008A110A12031DA92E8A0111211630D20028
:100D48008A0111218A150A16AC2A3C08A0003D0820
:100D5800A1002030A30053308A017F208A110A1293
:100D6800031DBF2E8A0111211730D2008A011121DB
:100D78008A150A16AC2A3C08A0003D08A1002030BC
:100D8800A30068308A017F208A110A12031DD52E1C
:100D98008A0111211830D2008A0111218A150A16F8
:100DA800AC2A3C08A0003D08A1002030A3007D30FB
:100DB8008A017F208A110A12031DEB2E8A01112154
:100DC8001930D2008A0111218A150A16AC2A3C086A
:100DD800A0003D08A1002030A30096308A017F20A2
:100DE8008A110A12031D012F8A0111211A30D2001B
:100DF8008A0111218A150A16AC2A3C08A0003D0870
:100E0800A1002030A300B1308A017F208A110A1284
:100E1800031D172F8A0111211B30D2008A011121CD
:100E28008A150A16AC2A3C08A0003D08A10020300B
:100E3800A300CA308A017F208A110A12031D2D2FB0
:100E48008A0111211C30D2008A0111218A150A1643
:100E5800AC2A3C08A0003D08A1002030A300E330E4
:100E68008A017F208A110A12031D432F8A0111214A
:100E78001D30D2008A0111218A150A16AC2A3C08B5
:100E8800A0003D08A1002030A300F9308A017F208E
:100E98008A110A12031D592F8A0111211E30D2000E
:100EA8008A0111218A150A16AC2A3C08A0003D08BF
:100EB800A1002130A30010308A017F208A110A1274
:100EC800031D6F2F8A0111211F30D2008A011121C1
:100ED8008A150A16AC2A3C08A0003D08A10021305A
:100EE800A3002B308A017F208A110A12031D852F47
:100EF8008A0111212030D2008A0111218A150A168F
:100F0800AC2A3C08A0003D08A1002130A3004730CE
:100F18008A017F208A110A12031D9B2F8A01112141
:100F28002130D2008A0111218A150A16AC2A3C0800
:100F3800A0003D08A1002130A30062308A017F2073
:100F48008A110A12031DB12F8A0111212230D20001
:100F58008A0111218A150A16AC2A3C08A0003D080E
:100F6800A1002130A30079308A017F208A110A125A
:100F7800031DC72F8A0111212330D2008A011121B4
:100F88008A150A16AC2A3C08A0003D08A1002130A9
:100F9800A30090308A017F208A110A12031DDD2FD9
:100FA8008A0111212430D2008A0111218A150A16DA
:100FB800AC2A3C08A0003D08A1002130A300AC30B9
:100FC8008A017F208A110A12031DF32F8A01112139
:100FD8002530D2008A0111218A150A16AC2A3C084C
:100FE800A0003D08A1002130A300C8308A017F205D
:100FF8008A150A12031D09288A0111212630D200F8
:101008008A0111218A150A16AC2A3C08A0003D085D
:10101800A1002130A300E3308A017F208A150A123B
:10102800031D1F288A0111212730D2008A011121AE
:101038008A150A16AC2A3C08A0003D08A1002130F8
:10104800A300FF308A017F208A150A12031D352864
:101058008A0111212830D2008A0111218A150A1625
:10106800AC2A3C08A0003D08A1002230A3001A3099
:101078008A017F208A150A12031D4B288A01112133
:101088002930D2008A0111218A150A16AC2A3C0897
:10109800A0003D08A1002230A30035308A017F203E
:1010A8008A150A12031D61288A0111212A30D200EB
:1010B8008A0111218A150A16AC2A3C08A0003D08AD
:1010C800A1002230A30051308A017F208A150A121C
:1010D800031D77288A0111212B30D2008A011121A2
:1010E8008A150A16AC2A3C08A0003D08A100223047
:1010F800A3006E308A017F208A150A12031D8D28ED
:101108008A0111212C30D2008A0111218A150A1670
:10111800AC2A3C08A0003D08A1002230A3008A3078
:101128008A017F208A150A12031DA3288A0111212A
:101138002D30D2008A0111218A150A16AC2A3C08E2
:10114800A0003D08A1002230A300A6308A017F201C
:101158008A150A12031DB9288A0111212E30D200DE
:101168008A0111218A150A16AC2A3C08A0003D08FC
:10117800A1002230A300C1308A017F208A150A12FB
:10118800031DCF288A0111212F30D2008A01112195
:101198008A150A16AC2A3C08A0003D08A100223096
:1011A800A300DE308A017F208A150A12031DE52874
:1011B8008A0111213030D2008A0111218A150A16BC
:1011C800AC2A3C08A0003D08A1002230A300FF3053
:1011D8008A017F208A150A12031DFB288A01112122
:1011E8003130D2008A0111218A150A16AC2A3C082E
:1011F800A0003D08A1002330A3001E308A017F20F3
:101208008A150A12031D11298A0111213230D200D0
:101218008A0111218A150A16AC2A3C08A0003D084B
:10122800A1002330A3003C308A017F208A150A12CE
:10123800031D27298A0111213330D2008A01112187
:101248008A150A16AC2A3C08A0003D08A1002330E4
:10125800A3005C308A017F208A150A12031D3D29EC
:101268008A0111213430D2008A0111218A150A1607
:10127800AC2A3C08A0003D08A1002330A300793027
:101288008A017F208A150A12031D53298A01112118
:101298003530D2008A0111218A150A16AC2A3C0879
:1012A800A0003D08A1002330A30094308A017F20CC
:1012B8008A150A12031D69298A0111213630D200C4
:1012C8008A0111218A150A16AC2A3C08A0003D089B
:1012D800A1002330A300B5308A017F208A150A12A5
:1012E800031D7F298A0111213730D2008A0111217B
:1012F8008A150A16AC2A3C08A0003D08A100233034
:10130800A300D6308A017F208A150A12031D952969
:101318008A0111213830D2008A0111218A150A1652
:10132800AC2A3C08A0003D08A1002330A300F730F8
:101338008A017F208A150A12031DAB298A0111210F
:101348003930D2008A0111218A150A16AC2A3C08C4
:10135800A0003D08A1002430A30018308A017F2096
:101368008A150A12031DC1298A0111213A30D200B7
:101378008A0111218A150A16AC2A3C08A0003D08EA
:10138800A1002430A30037308A017F208A150A1271
:10139800031DD7298A0111213B30D2008A0111216E
:1013A8008A150A16AC2A3C08A0003D08A100243082
:1013B800A30055308A017F208A150A12031DED29E2
:1013C8008A0111213C30D2008A0111218A150A169E
:1013D800AC2A3C08A0003D08A1002430A3007830C6
:1013E8008A017F208A150A12031D032A8A01112106
:1013F8003D30D2008A0111218A150A16AC2A3C0810
:10140800A0003D08A1002430A3009C308A017F2061
:101418008A150A12031D192A8A0111213E30D200A9
:101428008A0111218A150A16AC2A3C08A0003D0839
:10143800A1002430A300BF308A017F208A150A1238
:10144800031D2F2A8A0111213F30D2008A01112160
:101458008A150A16AC2A3C08A0003D08A1002430D1
:10146800A300E2308A017F208A150A12031D452A4B
:101478008A0111214030D2008A0111218A150A16E9
:10148800AC2A3C08A0003D08A1002530A30001308B
:101498008A017F208A150A12031D5B2A8A011121FD
:1014A8004130D2008A0111218A150A16AC2A3C085B
:1014B800A0003D08A1002530A30020308A017F202C
:1014C8008A150A12031D712A8A0111214230D2009D
:1014D8008A0111218A150A16AC2A3C08A0003D0889
:1014E800A1002530A30044308A017F208A150A1202
:1014F800031D872A8A0111214330D2008A01112154
:101508008A150A16AC2A3C08A0003D08A10025301F
:10151800A30069308A017F208A150A12031D9D2ABB
:101528008A0111214430D2008A0111218A150A1634
:10153800AC2A3C08A0003D08A1002530A3008E304D
:101548008A017F208A150A12031DB32A8A011121F4
:101558004530D2008A0111218A150A16AC2A3C08A6
:10156800A0003D08A1002530A300B0308A017F20EB
:101578008A150A12031DC92A8A0111214630D20090
:101588008A0111218A150A16AC2A3C08A0003D08D8
:10159800A1002530A300D0308A017F208A150A12C5
:1015A800031DDF2A8A0111214730D2008A01112147
:1015B8008A150A16AC2A3C08A0003D08A10025306F
:1015C800A300F8308A017F208A150A12031DF52A24
:1015D8008A0111214830D2008A0111218A150A1680
:1015E800AC2A3C08A0003D08A1002630A300213009
:1015F8008A017F208A150A12031D0B2B8A011121EB
:101608004930D2008A0111218A150A16AC2A3C08F1
:10161800A0003D08A1002630A30047308A017F20A2
:101628008A150A12031D212B8A0111214A30D20082
:101638008A0111218A150A16AC2A3C08A0003D0827
:10164800A1002630A3006E308A017F208A150A1275
:10165800031D372B8A0111214B30D2008A01112139
:101668008A150A16AC2A3C08A0003D08A1002630BD
:10167800A30090308A017F208A150A12031D4D2B82
:101688008A0111214C30D2008A0111218A150A16CB
:10169800AC2A3C08A0003D08A1002630A300B430C5
:1016A8008A017F208A150A12031D632B8A011121E2
:1016B8004D30D2008A0111218A150A16AC2A3C083D
:1016C800A0003D08A1002630A300DC308A017F205D
:1016D8008A150A12031D792B8A0111214E30D20076
:1016E8008A0111218A150A16AC2A3C08A0003D0877
:1016F800A1002730A30004308A017F208A150A122E
:10170800031D8F2B8A0111214F30D2008A0111212C
:101718008A150A16AC2A3C08A0003D08A10027300B
:10172800A3002F308A017F208A150A12031DA52BDA
:101738008A0111215030D2008A0111218A150A1616
:10174800AC2A3C08A0003D08A1002730A30058306F
:101758008A017F208A150A12031DBB2B8A011121D9
:101768005130D2008A0111218A150A16AC2A3C0888
:10177800A0003D08A1002730A3007B308A017F200C
:101788008A150A12031DD12B8A0111215230D20069
:101798008A0111218A150A16AC2A3C08A0003D08C6
:1017A800A1002730A300A0308A017F208A150A12E1
:1017B800031DE72B8A0111215330D2008A01112120
:1017C8008A150A16AC2A3C08A0003D08A10027305B
:1017D800A300CC308A017F208A150A12031DFD2B35
:1017E8008A0111215430D2008A0111218A150A1662
:1017F800AC2A3C08A0003D08A1002730A300F8301F
:101808008A017F208A150A12031D132C8A011121CF
:101818005530D2008A0111218A150A16AC2A3C08D3
:10182800A0003D08A1002830A30024308A017F20B1
:101838008A150A12031D292C8A0111215630D2005B
:101848008A0111218A150A16AC2A3C08A0003D0815
:10185800A1002830A30050308A017F208A150A127F
:10186800031D3F2C8A0111215730D2008A01112112
:101878008A150A16AC2A3C08A0003D08A1002830A9
:10188800A30078308A017F208A150A12031D552C7F
:101898008A0111215830D2008A0111218A150A16AD
:1018A800AC2A3C08A0003D08A1002830A300A130C4
:1018B8008A017F208A150A12031D6B2C8A011121C7
:1018C8005930D2008A0111218A150A16AC2A3C081F
:1018D800A0003D08A1002830A300CF308A017F2056
:1018E8008A150A12031D812C8A0111215A30D2004F
:1018F8008A0111218A150A16AC2A3C08A0003D0865
:10190800A1002830A300FF308A017F208A150A121F
:10191800031D972C8A0111215B30D2008A01112105
:101928008A150A16AC2A3C08A0003D08A1002930F7
:10193800A3002F308A017F208A150A12031DAD2CBF
:101948008A0111215C30D2008A0111218A150A16F8
:10195800AC2A3C08A0003D08A1002930A3005E3055
:101968008A017F208A150A12031DC32C8A011121BE
:101978005D30D2008A0111218A150A16AC2A3C086A
:10198800A0003D08A1002930A30087308A017F20EC
:101998008A150A12031DD92C8A0111215E30D20042
:1019A8008A0111218A150A16AC2A3C08A0003D08B4
:1019B800A1002930A300B2308A017F208A150A12BB
:1019C800031DEF2C8A0111215F30D2008A011121F9
:1019D8008A150A16AC2A3C08A0003D08A100293047
:1019E800A300E3308A017F208A150A12031D052D02
:1019F8008A0111216030D2008A0111218A150A1644
:101A0800AC2A3C08A0003D08A1002A30A3001430ED
:101A18008A017F208A150A12031D1B2D8A011121B4
:101A28006130D2008A0111218A150A16AC2A3C08B5
:101A3800A0003D08A1002A30A30047308A017F207A
:101A48008A150A12031D312D8A0111216230D20034
:101A58008A0111218A150A16AC2A3C08A0003D0803
:101A6800A1002A30A30073308A017F208A150A1248
:101A7800031D472D8A0111216330D2008A011121EB
:101A88008A150A16AC2A3C08A0003D08A1002A3095
:101A9800A300A1308A017F208A150A12031D5D2D3B
:101AA8008A0111216430D2008A0111218A150A168F
:101AB800AC2A3C08A0003D08A1002A30A300D6307B
:101AC8008A017F208A150A12031D732D8A011121AC
:101AD8006530D2008A0111218A150A16AC2A3C0801
:101AE800A0003D08A1002B30A3000C308A017F2004
:101AF8008A150A12031D892D8A0111216630D20028
:101B08008A0111218A150A16AC2A3C08A0003D0852
:101B1800A1002B30A30041308A017F208A150A12C8
:101B2800031D9F2D8A0111216730D2008A011121DE
:101B38008A150A16AC2A3C08A0003D08A1002B30E3
:101B4800A30076308A017F208A150A12031DB52D5D
:101B58008A0111216830D2008A0111218A150A16DA
:101B6800AC2A3C08A0003D08A1002B30A300A530FA
:101B78008A017F208A150A12031DCB2D8A011121A3
:101B88006930D2008A0111218A150A16AC2A3C084C
:101B9800A0003D08A1002B30A300D4308A017F208B
:101BA8008A150A12031DE12D8A0111216A30D2001B
:101BB8008A0111218A150A16AC2A3C08A0003D08A2
:101BC800A1002C30A3000A308A017F208A150A124E
:101BD800031DF72D8A0111216B30D2008A011121D2
:101BE8008A150A16AC2A3C08A0003D08A1002C3032
:101BF800A30043308A017F208A150A12031D0D2E87
:101C08008A0111216C30D2008A0111218A150A1625
:101C1800AC2A3C08A0003D08A1002C30A3007E306F
:101C28008A017F208A150A12031D232E8A01112199
:101C38006D30D2008A0111218A150A16AC2A3C0897
:101C4800A0003D08A1002C30A300B8308A017F20F5
:101C58008A150A12031D392E8A0111216E30D2000D
:101C68008A0111218A150A16AC2A3C08A0003D08F1
:101C7800A1002C30A300ED308A017F208A150A12BA
:101C8800031D4F2E8A0111216F30D2008A011121C4
:101C98008A150A16AC2A3C08A0003D08A1002D3080
:101CA800A30022308A017F208A150A12031D652E9F
:101CB8008A0111217030D2008A0111218A150A1671
:101CC800AC2A3C08A0003D08A1002D30A3005E30DE
:101CD8008A017F208A150A12031D7B2E8A01112191
:101CE8007130D2008A0111218A150A16AC2A3C08E3
:101CF800A0003D08A1002D30A3009C308A017F2060
:101D08008A150A12031D912E8A0111217230D20000
:101D18008A0111218A150A16AC2A3C08A0003D0840
:101D2800A1002D30A300D8308A017F208A150A121D
:101D3800031DA72E8A0111217330D2008A011121B7
:101D48008A150A16AC2A3C08A0003D08A1002E30CE
:101D5800A30015308A017F208A150A12031DBD2EA3
:101D68008A0111217430D2008A0111218A150A16BC
:101D7800AC2A3C08A0003D08A1002E30A3004C303E
:101D88008A017F208A150A12031DD32E8A01112188
:101D98007530D2008A0111218A150A16AC2A3C082E
:101DA800A0003D08A1002E30A30087308A017F20C3
:101DB8008A150A12031DE92E8A0111217630D200F4
:101DC8008A0111218A150A16AC2A3C08A0003D0890
:101DD800A1002E30A300CA308A017F208A150A127A
:101DE800031DFF2E8A0111217730D2008A011121AB
:101DF8008A150A16AC2A3C08A0003D08A1002F301D
:101E0800A3000C308A017F208A150A12031D152FA2
:101E18008A0111217830D2008A0111218A150A1607
:101E2800AC2A3C08A0003D08A1002F30A3004F3089
:101E38008A017F208A150A12031D2B2F8A0111217E
:101E48007930D2008A0111218A150A16AC2A3C0879
:101E5800A0003D08A1002F30A30091308A017F2007
:101E68008A150A12031D412F8A0111217A30D200E6
:101E78008A0111218A150A16AC2A3C08A0003D08DF
:101E8800A1002F30A300CF308A017F208A150A12C3
:101E9800031D572F8A0111217B30D2008A0111219D
:101EA8008A150A16AC2A3C08A0003D08A10030306B
:101EB800A3000F308A017F208A150A12031D6D2F97
:101EC8008A0111217C30D2008A0111218A150A1653
:101ED800AC2A3C08A0003D08A1003030A3005430D3
:101EE8008A017F208A150A12031D832F8A01112176
:101EF8007D30D2008A0111218A150A16AC2A3C08C5
:101F0800A0003D08A1003030A30099308A017F204D
:101F18008A150A12031D992F8A0111217E30D200D9
:101F28008A0111218A150A16AC2A3C08A0003D082E
:101F3800A1003030A300E3308A017F208A150A12FD
:101F4800031DAF2F8A0111217F30D2008A01112190
:101F58008A150A16AC2A3C08A0003D08A1003130B9
:101F6800A3002B308A017F208A150A12031DC52F72
:101F78008A0111218030D2008A0111218A150A169E
:101F8800AC2A3C08A0003D08A1003130A3006C3009
:101F98008A017F208A150A12031DDB2F8A0111216D
:101FA8008130D2008A0111218A150A16AC2A3C0810
:101FB800A0003D08A1003130A300AF308A017F2086
:101FC8008A150A12031DF12F8A0111218230D200CD
:101FD8008A0111218A150A16AC2A3C08A0003D087E
:101FE800A1003130A300F9308A017F208A110A1636
:101FF800031D07288A0111218330D2008A0111218B
:102008008A150A16AC2A3C08A0003D08A100323007
:10201800A30045308A017F208A110A16031D1D2856
:102028008A0111218430D2008A0111218A150A16E9
:10203800AC2A3C08A0003D08A1003230A300913032
:102048008A017F208A110A16031D33288A0111216B
:102058008530D2008A0111218A150A16AC2A3C085B
:10206800A0003D08A1003230A300D2308A017F20B1
:102078008A110A16031D49288A0111218630D200C7
:102088008A0111218A150A16AC2A3C08A0003D08CD
:10209800A1003330A30019308A017F208A110A1663
:1020A800031D5F288A0111218730D2008A0111217E
:1020B8008A150A16AC2A3C08A0003D08A100333056
:1020C800A3006C308A017F208A110A16031D752827
:1020D8008A0111218830D2008A0111218A150A1635
:1020E800AC2A3C08A0003D08A1003330A300C4304E
:1020F8008A017F208A110A16031D8B288A01112163
:102108008930D2008A0111218A150A16AC2A3C08A6
:10211800A0003D08A1003430A3001C308A017F20B4
:102128008A110A16031DA1288A0111218A30D200BA
:102138008A0111218A150A16AC2A3C08A0003D081C
:10214800A1003430A3006E308A017F208A110A165C
:10215800031DB7288A0111218B30D2008A01112171
:102168008A150A16AC2A3C08A0003D08A1003430A4
:10217800A300B6308A017F208A110A16031DCD28D4
:102188008A0111218C30D2008A0111218A150A1680
:10219800AC2A3C08A0003D08A1003530A30005305A
:1021A8008A017F208A110A16031DE3288A0111215A
:1021B8008D30D2008A0111218A150A16AC2A3C08F2
:1021C800A0003D08A1003530A30062308A017F20BD
:1021D8008A110A16031DF9288A0111218E30D200AE
:1021E8008A0111218A150A16AC2A3C08A0003D086C
:1021F800A1003530A300BD308A017F208A110A165C
:10220800031D0F298A0111218F30D2008A01112163
:102218008A150A16AC2A3C08A0003D08A1003630F1
:10222800A30018308A017F208A110A16031D252968
:102238008A0111219030D2008A0111218A150A16CB
:10224800AC2A3C08A0003D08A1003630A300753038
:102258008A017F208A110A16031D3B298A01112150
:102268009130D2008A0111218A150A16AC2A3C083D
:10227800A0003D08A1003630A300CB308A017F20A2
:102288008A110A16031D51298A0111219230D200A0
:102298008A0111218A150A16AC2A3C08A0003D08BB
:1022A800A1003730A30021308A017F208A110A1645
:1022B800031D67298A0111219330D2008A01112157
:1022C8008A150A16AC2A3C08A0003D08A100373040
:1022D800A30080308A017F208A110A16031D7D29F8
:1022E8008A0111219430D2008A0111218A150A1617
:1022F800AC2A3C08A0003D08A1003730A300E2301A
:102308008A017F208A110A16031D93298A01112147
:102318009530D2008A0111218A150A16AC2A3C0888
:10232800A0003D08A1003830A30048308A017F2072
:102338008A110A16031DA9298A0111219630D20093
:102348008A0111218A150A16AC2A3C08A0003D080A
:10235800A1003830A300A9308A017F208A110A160B
:10236800031DBF298A0111219730D2008A0111214A
:102378008A150A16AC2A3C08A0003D08A10039308D
:10238800A30004308A017F208A110A16031DD5296B
:102398008A0111219830D2008A0111218A150A1662
:1023A800AC2A3C08A0003D08A1003930A3006730E2
:1023B8008A017F208A110A16031DEB298A0111213F
:1023C8009930D2008A0111218A150A16AC2A3C08D4
:1023D800A0003D08A1003930A300D3308A017F2036
:1023E8008A110A16031D012A8A0111219A30D20086
:1023F8008A0111218A150A16AC2A3C08A0003D085A
:10240800A1003A30A30040308A017F208A110A16C1
:10241800031D172A8A0111219B30D2008A0111213C
:102428008A150A16AC2A3C08A0003D08A1003A30DB
:10243800A300AE308A017F208A110A16031D2D2AB7
:102448008A0111219C30D2008A0111218A150A16AD
:10245800AC2A3C08A0003D08A1003B30A3001C307A
:102468008A017F208A110A16031D432A8A01112135
:102478009D30D2008A0111218A150A16AC2A3C081F
:10248800A0003D08A1003B30A30082308A017F20D4
:102498008A110A16031D592A8A0111219E30D20079
:1024A8008A0111218A150A16AC2A3C08A0003D08A9
:1024B800A1003B30A300ED308A017F208A110A1663
:1024C800031D6F2A8A0111219F30D2008A01112130
:1024D8008A150A16AC2A3C08A0003D08A1003C3029
:1024E800A30064308A017F208A110A16031D852AF9
:1024F8008A011121A030D2008A0111218A150A16F9
:10250800AC2A3C08A0003D08A1003C30A300DE3006
:102518008A017F208A110A16031D9B2A8A0111212C
:10252800A130D2008A0111218A150A16AC2A3C086A
:10253800A0003D08A1003D30A30056308A017F204D
:102548008A110A16031DB12A8A011121A230D2006C
:102558008A0111218A150A16AC2A3C08A0003D08F8
:10256800A1003D30A300C4308A017F208A110A16D9
:10257800031DC72A8A011121A330D2008A01112123
:102588008A150A16AC2A3C08A0003D08A1003E3076
:10259800A30035308A017F208A110A16031DDD2A1F
:1025A8008A011121A430D2008A0111218A150A1644
:1025B800AC2A3C08A0003D08A1003E30A300B5307D
:1025C8008A017F208A110A16031DF32A8A01112124
:1025D800A530D2008A0111218A150A16AC2A3C08B6
:1025E800A0003D08A1003F30A30039308A017F20B8
:1025F8008A110A16031D092B8A011121A630D2005F
:102608008A0111218A150A16AC2A3C08A0003D0847
:10261800A1003F30A300EE308A017F208A110A16FC
:10262800031D1F2B8A011121A730D2008A01112115
:102638008A150A16AC2A3C08A0003D08A1004030C3
:10264800A30072308A017F208A110A16031D352BD8
:102658008A011121A830D2008A0111218A150A168F
:10266800AC2A3C08A0003D08A1004030A300BD30C2
:102678008A017F208A110A16031D4B2B8A0111211A
:10268800A930D2008A0111218A150A16AC2A3C0801
:10269800A0003D08A1004130A3003D308A017F2001
:1026A8008A110A16031D612B8A011121AA30D20052
:1026B8008A0111218A150A16AC2A3C08A0003D0897
:1026C800A1004130A300CF308A017F208A110A1669
:1026D800031D772B8A011121AB30D2008A01112109
:1026E8008A150A16AC2A3C08A0003D08A100423011
:1026F800A30069308A017F208A110A16031D8D2BD9
:102708008A011121AC30D2008A0111218A150A16DA
:10271800AC2A3C08A0003D08A1004330A3000130CA
:102728008A017F208A110A16031DA32B8A01112111
:10273800AD30D2008A0111218A150A16AC2A3C084C
:10274800A0003D08A1004330A30095308A017F20F6
:102758008A110A16031DB92B8A011121AE30D20045
:102768008A0111218A150A16AC2A3C08A0003D08E6
:10277800A1004430A3001F308A017F208A110A1665
:10278800031DCF2B8A011121AF30D2008A011121FC
:102798008A150A16AC2A3C08A0003D08A10044305E
:1027A800A300B2308A017F208A110A16031DE52B87
:1027B8008A011121B030D2008A0111218A150A1626
:1027C800AC2A3C08A0003D08A1004530A3005230C7
:1027D8008A017F208A110A16031DFB2B8A01112109
:1027E800B130D2008A0111218A150A16AC2A3C0898
:1027F800A0003D08A1004530A300F7308A017F20E2
:102808008A110A16031D112C8A011121B230D20037
:102818008A0111218A150A16AC2A3C08A0003D0835
:10282800A1004630A300A5308A017F208A110A162C
:10283800031D272C8A011121B330D2008A011121EE
:102848008A150A16AC2A3C08A0003D08A1004730AA
:10285800A3004C308A017F208A110A16031D3D2CE3
:102868008A011121B430D2008A0111218A150A1671
:10287800AC2A3C08A0003D08A1004730A300E43082
:102888008A017F208A110A16031D532C8A011121FF
:10289800B530D2008A0111218A150A16AC2A3C08E3
:1028A800A0003D08A1004830A30089308A017F209C
:1028B8008A110A16031D692C8A011121B630D2002B
:1028C8008A0111218A150A16AC2A3C08A0003D0885
:1028D800A1004930A30042308A017F208A110A16DC
:1028E800031D7F2C8A011121B730D2008A011121E2
:1028F8008A150A16AC2A3C08A0003D08A1004930F8
:10290800A300FC308A017F208A110A16031D952C2A
:102918008A011121B830D2008A0111218A150A16BC
:10292800AC2A3C08A0003D08A1004A30A300BA30F8
:102938008A017F208A110A16031DAB2C8A011121F6
:10294800B930D2008A0111218A150A16AC2A3C082E
:10295800A0003D08A1004B30A30072308A017F20FF
:102968008A110A16031DC12C8A011121BA30D2001E
:102978008A0111218A150A16AC2A3C08A0003D08D4
:10298800A1004C30A3001F308A017F208A110A164B
:10299800031DD72C8A011121BB30D2008A011121D5
:1029A8008A150A16AC2A3C08A0003D08A1004C3044
:1029B800A300DF308A017F208A110A16031DED2C3F
:1029C8008A011121BC30D2008A0111218A150A1608
:1029D800AC2A3C08A0003D08A1004D30A300B2304D
:1029E8008A017F208A110A16031D032D8A011121ED
:1029F800BD30D2008A0111218A150A16AC2A3C087A
:102A0800A0003D08A1004E30A30084308A017F2039
:102A18008A110A16031D192D8A011121BE30D20010
:102A28008A0111218A150A16AC2A3C08A0003D0823
:102A3800A1004F30A30061308A017F208A110A1655
:102A4800031D2F2D8A011121BF30D2008A011121C7
:102A58008A150A16AC2A3C08A0003D08A10050308F
:102A6800A3003C308A017F208A110A16031D452DD8
:102A78008A011121C030D2008A0111218A150A1653
:102A8800AC2A3C08A0003D08A1005130A300043046
:102A98008A017F208A110A16031D5B2D8A011121E4
:102AA800C130D2008A0111218A150A16AC2A3C08C5
:102AB800A0003D08A1005130A300DC308A017F202E
:102AC8008A110A16031D712D8A011121C230D20004
:102AD8008A0111218A150A16AC2A3C08A0003D0873
:102AE800A1005230A300CE308A017F208A110A1635
:102AF800031D872D8A011121C330D2008A011121BB
:102B08008A150A16AC2A3C08A0003D08A1005330DB
:102B1800A300C2308A017F208A110A16031D9D2D49
:102B28008A011121C430D2008A0111218A150A169E
:102B3800AC2A3C08A0003D08A1005430A300AF30E7
:102B48008A017F208A110A16031DB32D8A011121DB
:102B5800C530D2008A0111218A150A16AC2A3C0810
:102B6800A0003D08A1005530A3008B308A017F20CA
:102B78008A110A16031DC92D8A011121C630D200F7
:102B88008A0111218A150A16AC2A3C08A0003D08C2
:102B9800A1005630A30073308A017F208A110A16DB
:102BA800031DDF2D8A011121C730D2008A011121AE
:102BB8008A150A16AC2A3C08A0003D08A100573027
:102BC800A30081308A017F208A110A16031DF52D82
:102BD8008A011121C830D2008A0111218A150A16EA
:102BE800AC2A3C08A0003D08A1005830A30095304D
:102BF8008A017F208A110A16031D0B2E8A011121D2
:102C0800C930D2008A0111218A150A16AC2A3C085B
:102C1800A0003D08A1005930A300B3308A017F20ED
:102C28008A110A16031D212E8A011121CA30D200E9
:102C38008A0111218A150A16AC2A3C08A0003D0811
:102C4800A1005A30A300D4308A017F208A110A16C5
:102C5800031D372E8A011121CB30D2008A011121A0
:102C68008A150A16AC2A3C08A0003D08A1005B3072
:102C7800A300D9308A017F208A110A16031D4D2E20
:102C88008A011121CC30D2008A0111218A150A1635
:102C9800AC2A3C08A0003D08A1005C30A300F83035
:102CA8008A017F208A110A16031D632E8A011121C9
:102CB800CD30D2008A0111218A150A16AC2A3C08A7
:102CC800A0003D08A1005E30A30041308A017F20AA
:102CD8008A110A16031D792E8A011121CE30D200DD
:102CE8008A0111218A150A16AC2A3C08A0003D0861
:102CF800A1005F30A30085308A017F208A110A165F
:102D0800031D8F2E8A011121CF30D2008A01112193
:102D18008A150A16AC2A3C08A0003D08A1006030BC
:102D2800A300CE308A017F208A110A16031DA52E22
:102D38008A011121D030D2008A0111218A150A1680
:102D4800AC2A3C08A0003D08A1006230A3001F3057
:102D58008A017F208A110A16031DBB2E8A011121C0
:102D6800D130D2008A0111218A150A16AC2A3C08F2
:102D7800A0003D08A1006330A30050308A017F20E5
:102D88008A110A16031DD12E8A011121D230D200D0
:102D98008A0111218A150A16AC2A3C08A0003D08B0
:102DA800A1006430A30094308A017F208A110A169A
:102DB800031DE72E8A011121D330D2008A01112187
:102DC8008A150A16AC2A3C08A0003D08A100663006
:102DD800A3000B308A017F208A110A16031DFD2EDD
:102DE8008A011121D430D2008A0111218A150A16CC
:102DF800AC2A3C08A0003D08A1006730A3008A3037
:102E08008A017F208A110A16031D132F8A011121B6
:102E1800D530D2008A0111218A150A16AC2A3C083D
:102E2800A0003D08A1006930A30012308A017F206C
:102E38008A110A16031D292F8A011121D630D200C2
:102E48008A0111218A150A16AC2A3C08A0003D08FF
:102E5800A1006A30A30097308A017F208A110A16E0
:102E6800031D3F2F8A011121D730D2008A01112179
:102E78008A150A16AC2A3C08A0003D08A1006C304F
:102E8800A3000D308A017F208A110A16031D552FD1
:102E98008A011121D830D2008A0111218A150A1617
:102EA800AC2A3C08A0003D08A1006D30A300A33067
:102EB8008A017F208A110A16031D6B2F8A011121AE
:102EC800D930D2008A0111218A150A16AC2A3C0889
:102ED800A0003D08A1006F30A30069308A017F205F
:102EE8008A110A16031D812F8A011121DA30D200B6
:102EF8008A0111218A150A16AC2A3C08A0003D084F
:102F0800A1007130A30043308A017F208A110A167C
:102F1800031D972F8A011121DB30D2008A0111216C
:102F28008A150A16AC2A3C08A0003D08A100733097
:102F3800A3001E308A017F208A110A16031DAD2FB7
:102F48008A011121DC30D2008A0111218A150A1662
:102F5800AC2A3C08A0003D08A1007430A300EB3067
:102F68008A017F208A110A16031DC32F8A011121A5
:102F7800DD30D2008A0111218A150A16AC2A3C08D4
:102F8800A0003D08A1007630A300A8308A017F2068
:102F98008A110A16031DD92F8A011121DE30D200A9
:102FA8008A0111218A150A16AC2A3C08A0003D089E
:102FB800A1007830A30089308A017F208A110A167F
:102FC800031DEF2F8A011121DF30D2008A01112160
:102FD8008A150A16AC2A3C08A0003D08A1007A30E0
:102FE800A300AD308A017F208A150A16031D052823
:102FF8008A011121E030D2008A0111218A150A16AE
:10300800AC2A3C08A0003D08A1007C30A300E430B5
:103018008A017F208A150A16031D1B288A0111219F
:10302800E130D2008A0111218A150A16AC2A3C081F
:10303800A0003D08A1007F30A30073308A017F20E3
:103048008A150A16031D31288A011121E230D2009F
:103058008A0111218A150A16AC2A3C08A0003D08ED
:10306800A1008130A30071308A017F208A150A16D9
:10307800031D47288A011121E330D2008A0111215A
:103088008A150A16AC2A3C08A0003D08A100833026
:10309800A3002C308A017F208A150A16031D5D289B
:1030A8008A011121E430D2008A0111218A150A16F9
:1030B800AC2A3C08A0003D08A1008530A300AD3033
:1030C8008A017F208A150A16031D73288A01112197
:1030D800E530D2008A0111218A150A16AC2A3C086B
:1030E800A0003D08A1008830A3004B308A017F2052
:1030F8008A150A16031D89288A011121E630D20093
:103108008A0111218A150A16AC2A3C08A0003D083C
:10311800A1008B30A3000C308A017F208A150A1683
:10312800031D9F288A011121E730D2008A0111214D
:103138008A150A16AC2A3C08A0003D08A1008D306B
:10314800A300D1308A017F208A150A16031DB528ED
:103158008A011121E830D2008A0111218A150A1644
:10316800AC2A3C08A0003D08A1009030A3006130C3
:103178008A017F208A150A16031DCB288A0111218E
:10318800E930D2008A0111218A150A16AC2A3C08B6
:10319800A0003D08A1009330A30048308A017F2099
:1031A8008A150A16031DE1288A011121EA30D20086
:1031B8008A0111218A150A16AC2A3C08A0003D088C
:1031C800A1009630A30080308A017F208A150A1654
:1031D800031DF7288A011121EB30D2008A01112141
:1031E8008A150A16AC2A3C08A0003D08A1009930AF
:1031F800A300D5308A017F208A150A16031D0D29E0
:103208008A011121EC30D2008A0111218A150A168F
:10321800AC2A3C08A0003D08A1009D30A3005F3007
:103228008A017F208A150A16031D23298A01112184
:10323800ED30D2008A0111218A150A16AC2A3C0801
:10324800A0003D08A100A030A300AF308A017F2074
:103258008A150A16031D39298A011121EE30D20078
:103268008A0111218A150A16AC2A3C08A0003D08DB
:10327800A100A330A300E9308A017F208A150A162D
:10328800031D4F298A011121EF30D2008A01112133
:103298008A150A16AC2A3C08A0003D08A100A730F0
:1032A800A300A8308A017F208A150A16031D652904
:1032B8008A011121F030D2008A0111218A150A16DB
:1032C800AC2A3C08A0003D08A100AB30A300C230E6
:1032D8008A017F208A150A16031D7B298A0111217C
:1032E800F130D2008A0111218A150A16AC2A3C084D
:1032F800A0003D08A100B030A3000B308A017F2058
:103308008A150A16031D91298A011121F230D2006B
:103318008A0111218A150A16AC2A3C08A0003D082A
:10332800A100B430A30091308A017F208A150A16C3
:10333800031DA7298A011121F330D2008A01112126
:103348008A150A16AC2A3C08A0003D08A100B9302D
:10335800A3000D308A017F208A150A16031DBD2996
:103368008A011121F430D2008A0111218A150A1626
:10337800AC2A3C08A0003D08A100BD30A30056308F
:103388008A017F208A150A16031DD3298A01112173
:10339800F530D2008A0111218A150A16AC2A3C0898
:1033A800A0003D08A100C130A300E4308A017F20BD
:1033B8008A150A16031DE9298A011121F630D2005F
:1033C8008A0111218A150A16AC2A3C08A0003D087A
:1033D800A100C730A30022308A017F208A150A166F
:1033E800031DFF298A011121F730D2008A0111211A
:1033F8008A150A16AC2A3C08A0003D08A100CC306A
:10340800A300F1308A017F208A150A16031D152AA8
:103418008A011121F830D2008A0111218A150A1671
:10342800AC2A3C08A0003D08A100D330A30014300A
:103438008A017F208A150A16031D2B2A8A01112169
:10344800F930D2008A0111218A150A16AC2A3C08E3
:10345800A0003D08A100D930A3000A308A017F20CE
:103468008A150A16031D412A8A011121FA30D20051
:103478008A0111218A150A16AC2A3C08A0003D08C9
:10348800A100DE30A300BA308A017F208A150A160F
:10349800031D572A8A011121FB30D2008A0111210C
:1034A8008A150A16AC2A3C08A0003D08A100E530A0
:1034B800A3003B308A017F208A150A16031D6D2A56
:1034C8008A011121FC30D2008A0111218A150A16BD
:1034D800AC2A3C08A0003D08A100EC30A3009530C0
:1034E8008A017F208A150A16031D832A8A01112161
:1034F800FD30D2008A0111218A150A16AC2A3C082F
:10350800A0003D08A100F630A3006A308A017F20A0
:103518008A150A16031D992A8A011121FE30D20044
:103528008A0111218A150A16AC2A3C08A0003D0818
:10353800A100FF30A300FF308A017F208A150A16F8
:10354800031DAC2A8A011121FF30D2008A01112102
:103558008A01112164008A150A16061CBB2A520822
:10356800A800FF30A200A30101308A0105208A01CA
:1035780011210800030183160C18FF308312BE00C6
:1035880003010C18FF30C0003E08840040088A017F
:103598009720C000C1006400400841048A150A163B
:1035A8000319332BD30A640053084C028A150A16F0
:1035B800031DDF2A541464008A150A16541D322B81
:1035C800D10A640051081E3C8A150A16031D012BF6
:1035D80064008A150A16061C012B08308606831615
:1035E800861183120301861D013E03198610031DEF
:1035F800861486190615861D061164008A150A1692
:10360800051D322B64001E3051028A150A16031854
:10361800302B013086068316061083120301861D9F
:10362800FF30BE003E0884000030061801308A01D1
:103638009720013903198610031D86140030861956
:10364800013084000030061801308A0197200139C2
:1036580003190611031D0615D10154110C10090098
:0C3668008A01112163008A150A16362B16
:02400E00C420CC
:00000001FF
