:020000040000FA
:02000000D928FD
:080008000800A9004030A0002F
:100010004230A1000F30A400A501A420AA012108AC
:10002000031919282A145520FC3E031C1928AA1468
:1000300055202003AB00280F2128FF30A400A50085
:100040002C282808A500A401A600A7012B0A031943
:100050002C28A200A301BE20A90B45281708CF39E0
:10006000A41B2038241B10380C3897002508950055
:100070008316071183122B0883169200831212082D
:10008000FC392A0404389200D428A90B54281D08EE
:10009000CF39A41B2038241B10380C389D002508AC
:1000A0009B00831687103A28D428A10CA00CA10C21
:1000B000A00C0800A301A200FF30A207031CA307A5
:1000C000031CD4280330A100DF3068205C28A10184
:1000D000E83EA000A109FC30031C7128A00703180A
:1000E0006E28A0076400A10F6E2820187728A01C96
:1000F0007B2800007B280800A20003308728A1018C
:10010000A301A20001308728A20004308728A8009C
:1001100023082102031D8E28220820020430031820
:100120000130031902302805031DFF30D4280038A0
:10013000031DFF300405031DFF30D4280404031DF4
:10014000FF30D428A501A4011030A600210DA40D74
:10015000A50D2208A4022308031C230FA5020318DF
:10016000B8282208A40723080318230FA5070310A3
:10017000A00DA10DA60BA6282008D4281030A80099
:10018000A101A001A70CA60C031CCC282208A007E3
:1001900023080318230FA107A10CA00CA50CA40C85
:1001A000A80BC2282408D4288313031383126400E5
:1001B0000800C0309F00831677308F000330850021
:1001C0000130860010308700950181018312C03014
:1001D0008B008316960101308C008D0183128C01F7
:1001E0008D018316031701308800890183120313E0
:1001F00081309F00831680309F00831203172130C7
:10020000870088018901831603139701031785016D
:100210008312031390010F3097009D0183169C01F8
:1002200001309D008312053094008B178A110A1249
:100230001E298B1B08008A150A16002A8A0119211B
:1002400085108A01192105118A01192187128A0155
:10025000192186128A01192106128A011921E90140
:100260008A011921E5018A011921FE30E000FF30E1
:10027000E1008A011921DA01DB018A011921EA0171
:100280008A011921D601D7018A0119210A30D80023
:10029000D9018A011921E6018A011921E9018A019E
:1002A0001921E8018A0119211330E4008A0119217A
:1002B000FA30E200FF30E3008A011921CC018A0103
:1002C0001921B801B9018A01192110108A011921D7
:1002D0008F018A0119218E018A01192110148A01C6
:1002E000192164008A110A120618B4298A011921F9
:1002F000E6018A01192114308A015A208A01192144
:1003000064008A110A120618A0298A011921E60A36
:100310008A01192164006608323C8A110A12031D01
:100320009A290430850683160511831205190616CD
:10033000051D06128A0119218A0179298A011921CC
:100340008A0119216400323066028A110A120318E8
:10035000B229023085068316851083128518861609
:10036000851C86128A0119218A01192164008A11CB
:100370000A12071AEA298A011921E6018A011921BC
:1003800014308A015A208A01192164008A110A1244
:10039000071AD3298A011921E60A8A0119218A013B
:1003A000BE298A0119218A011921640032306602AE
:1003B0008A110A120318E8298A0119218A110A12DE
:1003C000A9228A0119218A110A12F3238A0119210B
:1003D0008A0119218A01192164008A110A12E91C73
:1003E000242A8A011921640062080E028A110A1265
:1003F000031CF1298A011921640063080F028A1184
:100400000A12031CFA298A01192110108A011921E4
:10041000E8018A0119218F018A0119218E018A01BF
:10042000192110148A01192187168A011921013016
:10043000A100F4308A0168208A01192187128A01FB
:100440001921E9108A0119218A0119219E018A01C5
:10045000192183169E0183128A0119219F148A0192
:10046000192101308A015A208A01192164008A1158
:100470000A120C1F342A8A0119210C138A0119212E
:10048000FF30A600A7011E08A200A3018A01BE201A
:10049000DC002508DD0083161E0883125C07D600E9
:1004A0005D080318013ED7008A0119210230580265
:1004B000DC000030031C013E5902DD005608A0009C
:1004C0005708A1005D08A3005C088A018420DC00B5
:1004D00002305807DE0059080318013EDF005608B5
:1004E000A0005708A1005F08A3005E088A018120D0
:1004F000DE005C0884005E088A019E20DE00DF00CA
:1005000064005E085F048A110A120319A52A8A0191
:1005100019215608D8005708D9008A011921560810
:10052000A0005708A1000430A200A3018A01A22064
:10053000E7008A0119216708A800FF30A200A30183
:1005400001308A0105208A0119218A0119218A01B5
:100550006F298A01192110108A0119218A01192194
:1005600064006508003C8A110A12031DEB2A8A0107
:1005700019218F018A0119218E018A011921E801AF
:100580008A01192110148A011921E6018A01192111
:10059000E60164000B3066028A110A120318E62A8B
:1005A0008A0119210310660D383E84008001840AF7
:1005B00080018A01192166084C3E840080018A016D
:1005C0001921E60A8A110A12031DC92A8A01192172
:1005D0008A110A122A2B6400013065028A110A125C
:1005E000031C2A2B8A011921FF306507DC00FF302C
:1005F0000318013EDD005C08383E84000E088000D0
:100600008A011921FF306507DC00FF300318013E25
:10061000DD005C08393E84000F0880008A01192142
:10062000FF306507DC00FF300318013EDD005C0889
:100630004C3E8400680880008A0119218F018A01DC
:1006400019218E018A011921E8018A01192110144A
:100650008A0119218A0119216400013065028A1179
:100660000A12031CED2B8A011921E001E1018A0124
:100670001921DA01DB018A011921E201E3018A0172
:100680001921E4018A011921E6018A0119210130A9
:10069000E6006400660865028A110A12031C8B2BAF
:1006A0008A011921FF306607DC00FF300318013E84
:1006B000DD005C08383E84000008DC005C08E007D0
:1006C0000318E10A8A011921FF306607DC00FF30B8
:1006D0000318013EDD005C08393E84000008DC00A0
:1006E0005C08DA070318DB0A8A011921FF30660764
:1006F000DC00FF300318013EDD005C084C3E840046
:100700000008DC005C08E4078A011921E60A8A1166
:100710000A12031D492B8A0119216008A0006108F3
:10072000A1006508A200A3018A01A220E2008A01BB
:1007300019215A08A0005B08A1006508A200A301C6
:100740008A01A220E3008A0119216408A000A10106
:100750006508A200A3018A01A220E4008A011921F0
:100760006400143064028A110A12031CC32B8A012C
:1007700019211330E4008A011921FA30E200FF3018
:10078000E3008A0119218A011921CC30A6000C301E
:10079000A7006408A200A3018A01BE20E00025088A
:1007A000E1008A0119216208A0006308A100143049
:1007B000A200A3018A01A220DC002108DD005C0860
:1007C000E0075D080318013EE1078A01192160086E
:1007D000DA006108DB008A0119218A011921E50A82
:1007E0008A01192108008A0119218A0119215A0850
:1007F000A0005B08A1001E30A30061308A017C20AC
:100800008A110A12031D0C2C8A011921E7018A01A1
:1008100019218A150A16F3295A08A0005B08A100BD
:100820001E30A30071308A017C208A110A12031D38
:10083000222C8A0119210130E7008A0119218A1529
:100840000A16F3295A08A0005B08A1001E30A30075
:1008500084308A017C208A110A12031D382C8A01F7
:1008600019210230E7008A0119218A150A16F32995
:100870005A08A0005B08A1001E30A30099308A012D
:100880007C208A110A12031D4E2C8A011921033083
:10089000E7008A0119218A150A16F3295A08A000CF
:1008A0005B08A1001E30A300AE308A017C208A11B3
:1008B0000A12031D642C8A0119210430E7008A0101
:1008C00019218A150A16F3295A08A0005B08A1000D
:1008D0001E30A300C3308A017C208A110A12031D36
:1008E0007A2C8A0119210530E7008A0119218A151D
:1008F0000A16F3295A08A0005B08A1001E30A300C5
:10090000D6308A017C208A110A12031D902C8A019C
:1009100019210630E7008A0119218A150A16F329E0
:100920005A08A0005B08A1001E30A300EA308A012B
:100930007C208A110A12031DA62C8A011921073076
:10094000E7008A0119218A150A16F3295A08A0001E
:100950005B08A1001E30A300FF308A017C208A11B1
:100960000A12031DBC2C8A0119210830E7008A01F4
:1009700019218A150A16F3295A08A0005B08A1005C
:100980001F30A30014308A017C208A110A12031D33
:10099000D22C8A0119210930E7008A0119218A1510
:1009A0000A16F3295A08A0005B08A1001F30A30013
:1009B0002B308A017C208A110A12031DE82C8A013F
:1009C00019210A30E7008A0119218A150A16F3292C
:1009D0005A08A0005B08A1001F30A30041308A0123
:1009E0007C208A110A12031DFE2C8A0119210B306A
:1009F000E7008A0119218A150A16F3295A08A0006E
:100A00005B08A1001F30A30055308A017C208A11A9
:100A10000A12031D142D8A0119210C30E7008A01E6
:100A200019218A150A16F3295A08A0005B08A100AB
:100A30001F30A3006B308A017C208A110A12031D2B
:100A40002A2D8A0119210D30E7008A0119218A1502
:100A50000A16F3295A08A0005B08A1001F30A30062
:100A600082308A017C208A110A12031D402D8A01DE
:100A700019210E30E7008A0119218A150A16F32977
:100A80005A08A0005B08A1001F30A30098308A011B
:100A90007C208A110A12031D562D8A0119210F305C
:100AA000E7008A0119218A150A16F3295A08A000BD
:100AB0005B08A1001F30A300B0308A017C208A119E
:100AC0000A12031D6C2D8A0119211030E7008A01DA
:100AD00019218A150A16F3295A08A0005B08A100FB
:100AE0001F30A300C8308A017C208A110A12031D1E
:100AF000822D8A0119211130E7008A0119218A15F6
:100B00000A16F3295A08A0005B08A1001F30A300B1
:100B1000DB308A017C208A110A12031D982D8A017C
:100B200019211230E7008A0119218A150A16F329C2
:100B30005A08A0005B08A1001F30A300F1308A0111
:100B40007C208A110A12031DAE2D8A01192113304F
:100B5000E7008A0119218A150A16F3295A08A0000C
:100B60005B08A1002030A3000A308A017C208A1192
:100B70000A12031DC42D8A0119211430E7008A01CD
:100B800019218A150A16F3295A08A0005B08A1004A
:100B90002030A30022308A017C208A110A12031D12
:100BA000DA2D8A0119211530E7008A0119218A15E9
:100BB0000A16F3295A08A0005B08A1002030A30000
:100BC0003A308A017C208A110A12031DF02D8A0115
:100BD00019211630E7008A0119218A150A16F3290E
:100BE0005A08A0005B08A1002030A30053308A01FE
:100BF0007C208A110A12031D062E8A011921173042
:100C0000E7008A0119218A150A16F3295A08A0005B
:100C10005B08A1002030A30068308A017C208A1183
:100C20000A12031D1C2E8A0119211830E7008A01BF
:100C300019218A150A16F3295A08A0005B08A10099
:100C40002030A3007D308A017C208A110A12031D06
:100C5000322E8A0119211930E7008A0119218A15DB
:100C60000A16F3295A08A0005B08A1002030A3004F
:100C700096308A017C208A110A12031D482E8A01AF
:100C800019211A30E7008A0119218A150A16F32959
:100C90005A08A0005B08A1002030A300B1308A01EF
:100CA0007C208A110A12031D5E2E8A0119211B3035
:100CB000E7008A0119218A150A16F3295A08A000AB
:100CC0005B08A1002030A300CA308A017C208A1171
:100CD0000A12031D742E8A0119211C30E7008A01B3
:100CE00019218A150A16F3295A08A0005B08A100E9
:100CF0002030A300E3308A017C208A110A12031DF0
:100D00008A2E8A0119211D30E7008A0119218A15CE
:100D10000A16F3295A08A0005B08A1002030A3009E
:100D2000F9308A017C208A110A12031DA02E8A0143
:100D300019211E30E7008A0119218A150A16F329A4
:100D40005A08A0005B08A1002130A30010308A01DE
:100D50007C208A110A12031DB62E8A0119211F3028
:100D6000E7008A0119218A150A16F3295A08A000FA
:100D70005B08A1002130A3002B308A017C208A115E
:100D80000A12031DCC2E8A0119212030E7008A01A6
:100D900019218A150A16F3295A08A0005B08A10038
:100DA0002130A30047308A017C208A110A12031DDA
:100DB000E22E8A0119212130E7008A0119218A15C2
:100DC0000A16F3295A08A0005B08A1002130A300ED
:100DD00062308A017C208A110A12031DF82E8A01D2
:100DE00019212230E7008A0119218A150A16F329F0
:100DF0005A08A0005B08A1002130A30079308A01C5
:100E00007C208A110A12031D0E2F8A01192123301A
:100E1000E7008A0119218A150A16F3295A08A00049
:100E20005B08A1002130A30090308A017C208A1148
:100E30000A12031D242F8A0119212430E7008A0198
:100E400019218A150A16F3295A08A0005B08A10087
:100E50002130A300AC308A017C208A110A12031DC4
:100E60003A2F8A0119212530E7008A0119218A15B4
:100E70000A16F3295A08A0005B08A1002130A3003C
:100E8000C8308A017C208A110A12031D502F8A0162
:100E900019212630E7008A0119218A150A16F3293B
:100EA0005A08A0005B08A1002130A300E3308A01AA
:100EB0007C208A110A12031D662F8A01192127300E
:100EC000E7008A0119218A150A16F3295A08A00099
:100ED0005B08A1002130A300FF308A017C208A1129
:100EE0000A12031D7C2F8A0119212830E7008A018C
:100EF00019218A150A16F3295A08A0005B08A100D7
:100F00002230A3001A308A017C208A110A12031DA4
:100F1000922F8A0119212930E7008A0119218A15A7
:100F20000A16F3295A08A0005B08A1002230A3008A
:100F300035308A017C208A110A12031DA82F8A01EC
:100F400019212A30E7008A0119218A150A16F32986
:100F50005A08A0005B08A1002230A30051308A018A
:100F60007C208A110A12031DBE2F8A0119212B3001
:100F7000E7008A0119218A150A16F3295A08A000E8
:100F80005B08A1002230A3006E308A017C208A1108
:100F90000A12031DD42F8A0119212C30E7008A017F
:100FA00019218A150A16F3295A08A0005B08A10026
:100FB0002230A3008A308A017C208A110A12031D84
:100FC000EA2F8A0119212D30E7008A0119218A159B
:100FD0000A16F3295A08A0005B08A1002230A300DA
:100FE000A6308A017C208A150A12031D00288A0176
:100FF00019212E30E7008A0119218A150A16F329D2
:101000005A08A0005B08A1002230A300C1308A0169
:101010007C208A150A12031D16288A0119212F30F7
:10102000E7008A0119218A150A16F3295A08A00037
:101030005B08A1002230A300DE308A017C208A15E3
:101040000A12031D2C288A0119213030E7008A0179
:1010500019218A150A16F3295A08A0005B08A10075
:101060002230A300FF308A017C208A150A12031D5A
:1010700042288A0119213130E7008A0119218A1595
:101080000A16F3295A08A0005B08A1002330A30028
:101090001E308A017C208A150A12031D58288A01F5
:1010A00019213230E7008A0119218A150A16F3291D
:1010B0005A08A0005B08A1002330A3003C308A013D
:1010C0007C208A150A12031D6E288A0119213330EB
:1010D000E7008A0119218A150A16F3295A08A00087
:1010E0005B08A1002330A3005C308A017C208A15B4
:1010F0000A12031D84288A0119213430E7008A016D
:1011000019218A150A16F3295A08A0005B08A100C4
:101110002330A30079308A017C208A150A12031D2E
:101120009A288A0119213530E7008A0119218A1588
:101130000A16F3295A08A0005B08A1002330A30077
:1011400094308A017C208A150A12031DB0288A0176
:1011500019213630E7008A0119218A150A16F32968
:101160005A08A0005B08A1002330A300B5308A0113
:101170007C208A150A12031DC6288A0119213730DE
:10118000E7008A0119218A150A16F3295A08A000D6
:101190005B08A1002330A300D6308A017C208A1589
:1011A0000A12031DDC288A0119213830E7008A0160
:1011B00019218A150A16F3295A08A0005B08A10014
:1011C0002330A300F7308A017C208A150A12031D00
:1011D000F2288A0119213930E7008A0119218A157C
:1011E0000A16F3295A08A0005B08A1002430A300C6
:1011F00018308A017C208A150A12031D08298A01E9
:1012000019213A30E7008A0119218A150A16F329B3
:101210005A08A0005B08A1002430A30037308A01DF
:101220007C208A150A12031D1E298A0119213B30D0
:10123000E7008A0119218A150A16F3295A08A00025
:101240005B08A1002430A30055308A017C208A1558
:101250000A12031D34298A0119213C30E7008A0152
:1012600019218A150A16F3295A08A0005B08A10063
:101270002430A30078308A017C208A150A12031DCD
:101280004A298A0119213D30E7008A0119218A156E
:101290000A16F3295A08A0005B08A1002430A30015
:1012A0009C308A017C208A150A12031D60298A015C
:1012B00019213E30E7008A0119218A150A16F329FF
:1012C0005A08A0005B08A1002430A300BF308A01A7
:1012D0007C208A150A12031D76298A0119213F30C4
:1012E000E7008A0119218A150A16F3295A08A00075
:1012F0005B08A1002430A300E2308A017C208A151B
:101300000A12031D8C298A0119214030E7008A0145
:1013100019218A150A16F3295A08A0005B08A100B2
:101320002530A30001308A017C208A150A12031D92
:10133000A2298A0119214130E7008A0119218A1561
:101340000A16F3295A08A0005B08A1002530A30063
:1013500020308A017C208A150A12031DB8298A01CF
:1013600019214230E7008A0119218A150A16F3294A
:101370005A08A0005B08A1002530A30044308A0170
:101380007C208A150A12031DCE298A0119214330B7
:10139000E7008A0119218A150A16F3295A08A000C4
:1013A0005B08A1002530A30069308A017C208A15E2
:1013B0000A12031DE4298A0119214430E7008A0139
:1013C00019218A150A16F3295A08A0005B08A10002
:1013D0002530A3008E308A017C208A150A12031D55
:1013E000FA298A0119214530E7008A0119218A1555
:1013F0000A16F3295A08A0005B08A1002530A300B3
:10140000B0308A017C208A150A12031D102A8A0135
:1014100019214630E7008A0119218A150A16F32995
:101420005A08A0005B08A1002530A300D0308A0133
:101430007C208A150A12031D262A8A0119214730A9
:10144000E7008A0119218A150A16F3295A08A00013
:101450005B08A1002530A300F8308A017C208A15A2
:101460000A12031D3C2A8A0119214830E7008A012B
:1014700019218A150A16F3295A08A0005B08A10051
:101480002630A30021308A017C208A150A12031D10
:10149000522A8A0119214930E7008A0119218A1547
:1014A0000A16F3295A08A0005B08A1002630A30001
:1014B00047308A017C208A150A12031D682A8A0196
:1014C00019214A30E7008A0119218A150A16F329E1
:1014D0005A08A0005B08A1002630A3006E308A01E4
:1014E0007C208A150A12031D7E2A8A0119214B309D
:1014F000E7008A0119218A150A16F3295A08A00063
:101500005B08A1002630A30090308A017C208A1558
:101510000A12031D942A8A0119214C30E7008A011E
:1015200019218A150A16F3295A08A0005B08A100A0
:101530002630A300B4308A017C208A150A12031DCC
:10154000AA2A8A0119214D30E7008A0119218A153A
:101550000A16F3295A08A0005B08A1002630A30050
:10156000DC308A017C208A150A12031DC02A8A01F8
:1015700019214E30E7008A0119218A150A16F3292C
:101580005A08A0005B08A1002730A30004308A019C
:101590007C208A150A12031DD62A8A0119214F3090
:1015A000E7008A0119218A150A16F3295A08A000B2
:1015B0005B08A1002730A3002F308A017C208A1508
:1015C0000A12031DEC2A8A0119215030E7008A0112
:1015D00019218A150A16F3295A08A0005B08A100F0
:1015E0002730A30058308A017C208A150A12031D77
:1015F000022B8A0119215130E7008A0119218A152D
:101600000A16F3295A08A0005B08A1002730A3009E
:101610007B308A017C208A150A12031D182B8A014F
:1016200019215230E7008A0119218A150A16F32977
:101630005A08A0005B08A1002730A300A0308A014F
:101640007C208A150A12031D2E2B8A011921533082
:10165000E7008A0119218A150A16F3295A08A00001
:101660005B08A1002730A300CC308A017C208A15BA
:101670000A12031D442B8A0119215430E7008A0104
:1016800019218A150A16F3295A08A0005B08A1003F
:101690002730A300F8308A017C208A150A12031D26
:1016A0005A2B8A0119215530E7008A0119218A1520
:1016B0000A16F3295A08A0005B08A1002830A300ED
:1016C00024308A017C208A150A12031D702B8A019E
:1016D00019215630E7008A0119218A150A16F329C3
:1016E0005A08A0005B08A1002830A30050308A01EE
:1016F0007C208A150A12031D862B8A011921573076
:10170000E7008A0119218A150A16F3295A08A00050
:101710005B08A1002830A30078308A017C208A155C
:101720000A12031D9C2B8A0119215830E7008A01F7
:1017300019218A150A16F3295A08A0005B08A1008E
:101740002830A300A1308A017C208A150A12031DCB
:10175000B22B8A0119215930E7008A0119218A1513
:101760000A16F3295A08A0005B08A1002830A3003C
:10177000CF308A017C208A150A12031DC82B8A01EA
:1017800019215A30E7008A0119218A150A16F3290E
:101790005A08A0005B08A1002830A300FF308A018E
:1017A0007C208A150A12031DDE2B8A0119215B3069
:1017B000E7008A0119218A150A16F3295A08A000A0
:1017C0005B08A1002930A3002F308A017C208A15F4
:1017D0000A12031DF42B8A0119215C30E7008A01EB
:1017E00019218A150A16F3295A08A0005B08A100DE
:1017F0002930A3005E308A017C208A150A12031D5D
:101800000A2C8A0119215D30E7008A0119218A1505
:101810000A16F3295A08A0005B08A1002930A3008A
:1018200087308A017C208A150A12031D202C8A0128
:1018300019215E30E7008A0119218A150A16F32959
:101840005A08A0005B08A1002930A300B2308A0129
:101850007C208A150A12031D362C8A0119215F305B
:10186000E7008A0119218A150A16F3295A08A000EF
:101870005B08A1002930A300E3308A017C208A158F
:101880000A12031D4C2C8A0119216030E7008A01DD
:1018900019218A150A16F3295A08A0005B08A1002D
:1018A0002A30A30014308A017C208A150A12031DF5
:1018B000622C8A0119216130E7008A0119218A15F9
:1018C0000A16F3295A08A0005B08A1002A30A300D9
:1018D00047308A017C208A150A12031D782C8A0160
:1018E00019216230E7008A0119218A150A16F329A5
:1018F0005A08A0005B08A1002A30A30073308A01B7
:101900007C208A150A12031D8E2C8A01192163304E
:10191000E7008A0119218A150A16F3295A08A0003E
:101920005B08A1002A30A300A1308A017C208A151F
:101930000A12031DA42C8A0119216430E7008A01D0
:1019400019218A150A16F3295A08A0005B08A1007C
:101950002A30A300D6308A017C208A150A12031D82
:10196000BA2C8A0119216530E7008A0119218A15EC
:101970000A16F3295A08A0005B08A1002B30A30027
:101980000C308A017C208A150A12031DD02C8A0192
:1019900019216630E7008A0119218A150A16F329F0
:1019A0005A08A0005B08A1002B30A30041308A0137
:1019B0007C208A150A12031DE62C8A011921673042
:1019C000E7008A0119218A150A16F3295A08A0008E
:1019D0005B08A1002B30A30076308A017C208A1599
:1019E0000A12031DFC2C8A0119216830E7008A01C4
:1019F00019218A150A16F3295A08A0005B08A100CC
:101A00002B30A300A5308A017C208A150A12031D01
:101A1000122D8A0119216930E7008A0119218A15DE
:101A20000A16F3295A08A0005B08A1002B30A30076
:101A3000D4308A017C208A150A12031D282D8A01C0
:101A400019216A30E7008A0119218A150A16F3293B
:101A50005A08A0005B08A1002C30A3000A308A01BC
:101A60007C208A150A12031D3E2D8A0119216B3034
:101A7000E7008A0119218A150A16F3295A08A000DD
:101A80005B08A1002C30A30043308A017C208A151A
:101A90000A12031D542D8A0119216C30E7008A01B6
:101AA00019218A150A16F3295A08A0005B08A1001B
:101AB0002C30A3007E308A017C208A150A12031D77
:101AC0006A2D8A0119216D30E7008A0119218A15D2
:101AD0000A16F3295A08A0005B08A1002C30A300C5
:101AE000B8308A017C208A150A12031D802D8A01D4
:101AF00019216E30E7008A0119218A150A16F32987
:101B00005A08A0005B08A1002C30A300ED308A0128
:101B10007C208A150A12031D962D8A0119216F3027
:101B2000E7008A0119218A150A16F3295A08A0002C
:101B30005B08A1002D30A30022308A017C208A1589
:101B40000A12031DAC2D8A0119217030E7008A01A9
:101B500019218A150A16F3295A08A0005B08A1006A
:101B60002D30A3005E308A017C208A150A12031DE5
:101B7000C22D8A0119217130E7008A0119218A15C5
:101B80000A16F3295A08A0005B08A1002D30A30013
:101B90009C308A017C208A150A12031DD82D8A01E7
:101BA00019217230E7008A0119218A150A16F329D2
:101BB0005A08A0005B08A1002D30A300D8308A018C
:101BC0007C208A150A12031DEE2D8A01192173301B
:101BD000E7008A0119218A150A16F3295A08A0007C
:101BE0005B08A1002E30A30015308A017C208A15E5
:101BF0000A12031D042E8A0119217430E7008A019C
:101C000019218A150A16F3295A08A0005B08A100B9
:101C10002E30A3004C308A017C208A150A12031D45
:101C20001A2E8A0119217530E7008A0119218A15B7
:101C30000A16F3295A08A0005B08A1002E30A30061
:101C400087308A017C208A150A12031D302E8A01F2
:101C500019217630E7008A0119218A150A16F3291D
:101C60005A08A0005B08A1002E30A300CA308A01E8
:101C70007C208A150A12031D462E8A01192177300D
:101C8000E7008A0119218A150A16F3295A08A000CB
:101C90005B08A1002F30A3000C308A017C208A153C
:101CA0000A12031D5C2E8A0119217830E7008A018F
:101CB00019218A150A16F3295A08A0005B08A10009
:101CC0002F30A3004F308A017C208A150A12031D91
:101CD000722E8A0119217930E7008A0119218A15AB
:101CE0000A16F3295A08A0005B08A1002F30A300B0
:101CF00091308A017C208A150A12031D882E8A01E0
:101D000019217A30E7008A0119218A150A16F32968
:101D10005A08A0005B08A1002F30A300CF308A0131
:101D20007C208A150A12031D9E2E8A0119217B3000
:101D3000E7008A0119218A150A16F3295A08A0001A
:101D40005B08A1003030A3000F308A017C208A1587
:101D50000A12031DB42E8A0119217C30E7008A0182
:101D600019218A150A16F3295A08A0005B08A10058
:101D70003030A30054308A017C208A150A12031DDA
:101D8000CA2E8A0119217D30E7008A0119218A159E
:101D90000A16F3295A08A0005B08A1003030A300FE
:101DA00099308A017C208A150A12031DE02E8A01CF
:101DB00019217E30E7008A0119218A150A16F329B4
:101DC0005A08A0005B08A1003030A300E3308A016C
:101DD0007C208A150A12031DF62E8A0119217F30F4
:101DE000E7008A0119218A150A16F3295A08A0006A
:101DF0005B08A1003130A3002B308A017C208A15BA
:101E00000A12031D0C2F8A0119218030E7008A0174
:101E100019218A150A16F3295A08A0005B08A100A7
:101E20003130A3006C308A017C208A150A12031D10
:101E3000222F8A0119218130E7008A0119218A1590
:101E40000A16F3295A08A0005B08A1003130A3004C
:101E5000AF308A017C208A150A12031D382F8A01AF
:101E600019218230E7008A0119218A150A16F329FF
:101E70005A08A0005B08A1003130A300F9308A01A4
:101E80007C208A150A12031D4E2F8A0119218330E6
:101E9000E7008A0119218A150A16F3295A08A000B9
:101EA0005B08A1003230A30045308A017C208A15EE
:101EB0000A12031D642F8A0119218430E7008A0168
:101EC00019218A150A16F3295A08A0005B08A100F7
:101ED0003230A30091308A017C208A150A12031D3A
:101EE0007A2F8A0119218530E7008A0119218A1584
:101EF0000A16F3295A08A0005B08A1003230A3009B
:101F0000D2308A017C208A150A12031D902F8A0183
:101F100019218630E7008A0119218A150A16F3294A
:101F20005A08A0005B08A1003330A30019308A01D1
:101F30007C208A150A12031DA62F8A0119218730D9
:101F4000E7008A0119218A150A16F3295A08A00008
:101F50005B08A1003330A3006C308A017C208A1515
:101F60000A12031DBC2F8A0119218830E7008A015B
:101F700019218A150A16F3295A08A0005B08A10046
:101F80003330A300C4308A017C208A150A12031D55
:101F9000D22F8A0119218930E7008A0119218A1577
:101FA0000A16F3295A08A0005B08A1003430A300E8
:101FB0001C308A017C208A150A12031DE82F8A0131
:101FC00019218A30E7008A0119218A150A16F32996
:101FD0005A08A0005B08A1003430A3006E308A01CB
:101FE0007C208A150A12031DFE2F8A0119218B30CD
:101FF000E7008A0119218A150A16F3295A08A00058
:102000005B08A1003430A300B6308A017C208A111D
:102010000A16031D14288A0119218C30E7008A0151
:1020200019218A150A16F3295A08A0005B08A10095
:102030003530A30005308A017C208A110A16031D61
:102040002A288A0119218D30E7008A0119218A1571
:102050000A16F3295A08A0005B08A1003530A30036
:1020600062308A017C208A110A16031D40288A01E9
:1020700019218E30E7008A0119218A150A16F329E1
:102080005A08A0005B08A1003530A300BD308A01CA
:102090007C208A110A16031D56288A0119218F30C7
:1020A000E7008A0119218A150A16F3295A08A000A7
:1020B0005B08A1003630A30018308A017C208A1109
:1020C0000A16031D6C288A0119219030E7008A0145
:1020D00019218A150A16F3295A08A0005B08A100E5
:1020E0003630A30075308A017C208A110A16031D40
:1020F00082288A0119219130E7008A0119218A1565
:102100000A16F3295A08A0005B08A1003630A30084
:10211000CB308A017C208A110A16031D98288A0177
:1021200019219230E7008A0119218A150A16F3292C
:102130005A08A0005B08A1003730A30021308A01B3
:102140007C208A110A16031DAE288A0119219330BA
:10215000E7008A0119218A150A16F3295A08A000F6
:102160005B08A1003730A30080308A017C208A11EF
:102170000A16031DC4288A0119219430E7008A0138
:1021800019218A150A16F3295A08A0005B08A10034
:102190003730A300E2308A017C208A110A16031D21
:1021A000DA288A0119219530E7008A0119218A1558
:1021B0000A16F3295A08A0005B08A1003830A300D2
:1021C00048308A017C208A110A16031DF0288A01F2
:1021D00019219630E7008A0119218A150A16F32978
:1021E0005A08A0005B08A1003830A300A9308A017A
:1021F0007C208A110A16031D06298A0119219730AD
:10220000E7008A0119218A150A16F3295A08A00045
:102210005B08A1003930A30004308A017C208A11B8
:102220000A16031D1C298A0119219830E7008A012A
:1022300019218A150A16F3295A08A0005B08A10083
:102240003930A30067308A017C208A110A16031DE9
:1022500032298A0119219930E7008A0119218A154A
:102260000A16F3295A08A0005B08A1003930A30020
:10227000D3308A017C208A110A16031D48298A015D
:1022800019219A30E7008A0119218A150A16F329C3
:102290005A08A0005B08A1003A30A30040308A0130
:1022A0007C208A110A16031D5E298A0119219B30A0
:1022B000E7008A0119218A150A16F3295A08A00095
:1022C0005B08A1003A30A300AE308A017C208A115D
:1022D0000A16031D74298A0119219C30E7008A011E
:1022E00019218A150A16F3295A08A0005B08A100D3
:1022F0003B30A3001C308A017C208A110A16031D82
:102300008A298A0119219D30E7008A0119218A153D
:102310000A16F3295A08A0005B08A1003B30A3006D
:1023200082308A017C208A110A16031DA0298A01A5
:1023300019219E30E7008A0119218A150A16F3290E
:102340005A08A0005B08A1003B30A300ED308A01D1
:102350007C208A110A16031DB6298A0119219F3093
:10236000E7008A0119218A150A16F3295A08A000E4
:102370005B08A1003C30A30064308A017C208A11F4
:102380000A16031DCC298A011921A030E7008A0111
:1023900019218A150A16F3295A08A0005B08A10022
:1023A0003C30A300DE308A017C208A110A16031D0E
:1023B000E2298A011921A130E7008A0119218A1531
:1023C0000A16F3295A08A0005B08A1003D30A300BB
:1023D00056308A017C208A110A16031DF8298A01C9
:1023E0001921A230E7008A0119218A150A16F3295A
:1023F0005A08A0005B08A1003D30A300C4308A0148
:102400007C208A110A16031D0E2A8A011921A33085
:10241000E7008A0119218A150A16F3295A08A00033
:102420005B08A1003E30A30035308A017C208A1170
:102430000A16031D242A8A011921A430E7008A0103
:1024400019218A150A16F3295A08A0005B08A10071
:102450003E30A300B5308A017C208A110A16031D84
:102460003A2A8A011921A530E7008A0119218A1523
:102470000A16F3295A08A0005B08A1003F30A30008
:1024800039308A017C208A110A16031D502A8A01DC
:102490001921A630E7008A0119218A150A16F329A5
:1024A0005A08A0005B08A1003F30A300EE308A016B
:1024B0007C208A110A16031D662A8A011921A73079
:1024C000E7008A0119218A150A16F3295A08A00083
:1024D0005B08A1004030A30072308A017C208A1181
:1024E0000A16031D7C2A8A011921A830E7008A01F7
:1024F00019218A150A16F3295A08A0005B08A100C1
:102500004030A300BD308A017C208A110A16031DC9
:10251000922A8A011921A930E7008A0119218A1516
:102520000A16F3295A08A0005B08A1004130A30055
:102530003D308A017C208A110A16031DA82A8A01CF
:102540001921AA30E7008A0119218A150A16F329F0
:102550005A08A0005B08A1004130A300CF308A01D7
:102560007C208A110A16031DBE2A8A011921AB306C
:10257000E7008A0119218A150A16F3295A08A000D2
:102580005B08A1004230A30069308A017C208A11D7
:102590000A16031DD42A8A011921AC30E7008A01EA
:1025A00019218A150A16F3295A08A0005B08A10010
:1025B0004330A30001308A017C208A110A16031DD2
:1025C000EA2A8A011921AD30E7008A0119218A150A
:1025D0000A16F3295A08A0005B08A1004330A300A3
:1025E00095308A017C208A110A16031D002B8A016E
:1025F0001921AE30E7008A0119218A150A16F3293C
:102600005A08A0005B08A1004430A3001F308A01D3
:102610007C208A110A16031D162B8A011921AF305E
:10262000E7008A0119218A150A16F3295A08A00021
:102630005B08A1004430A300B2308A017C208A11DB
:102640000A16031D2C2B8A011921B030E7008A01DC
:1026500019218A150A16F3295A08A0005B08A1005F
:102660004530A30052308A017C208A110A16031DCE
:10267000422B8A011921B130E7008A0119218A15FC
:102680000A16F3295A08A0005B08A1004530A300F0
:10269000F7308A017C208A110A16031D582B8A0103
:1026A0001921B230E7008A0119218A150A16F32987
:1026B0005A08A0005B08A1004630A300A5308A019B
:1026C0007C208A110A16031D6E2B8A011921B33052
:1026D000E7008A0119218A150A16F3295A08A00071
:1026E0005B08A1004730A3004C308A017C208A118E
:1026F0000A16031D842B8A011921B430E7008A01D0
:1027000019218A150A16F3295A08A0005B08A100AE
:102710004730A300E4308A017C208A110A16031D89
:102720009A2B8A011921B530E7008A0119218A15EF
:102730000A16F3295A08A0005B08A1004830A3003C
:1027400089308A017C208A110A16031DB02B8A0168
:102750001921B630E7008A0119218A150A16F329D2
:102760005A08A0005B08A1004930A30042308A014A
:102770007C208A110A16031DC62B8A011921B73045
:10278000E7008A0119218A150A16F3295A08A000C0
:102790005B08A1004930A300FC308A017C208A112B
:1027A0000A16031DDC2B8A011921B830E7008A01C3
:1027B00019218A150A16F3295A08A0005B08A100FE
:1027C0004A30A300BA308A017C208A110A16031D00
:1027D000F22B8A011921B930E7008A0119218A15E3
:1027E0000A16F3295A08A0005B08A1004B30A30089
:1027F00072308A017C208A110A16031D082C8A0176
:102800001921BA30E7008A0119218A150A16F3291D
:102810005A08A0005B08A1004C30A3001F308A01B9
:102820007C208A110A16031D1E2C8A011921BB3037
:10283000E7008A0119218A150A16F3295A08A0000F
:102840005B08A1004C30A300DF308A017C208A1194
:102850000A16031D342C8A011921BC30E7008A01B5
:1028600019218A150A16F3295A08A0005B08A1004D
:102870004D30A300B2308A017C208A110A16031D54
:102880004A2C8A011921BD30E7008A0119218A15D5
:102890000A16F3295A08A0005B08A1004E30A300D5
:1028A00084308A017C208A110A16031D602C8A015B
:1028B0001921BE30E7008A0119218A150A16F32969
:1028C0005A08A0005B08A1004F30A30061308A01C4
:1028D0007C208A110A16031D762C8A011921BF302B
:1028E000E7008A0119218A150A16F3295A08A0005F
:1028F0005B08A1005030A3003C308A017C208A1183
:102900000A16031D8C2C8A011921C030E7008A01A8
:1029100019218A150A16F3295A08A0005B08A1009C
:102920005130A30004308A017C208A110A16031D4D
:10293000A22C8A011921C130E7008A0119218A15C8
:102940000A16F3295A08A0005B08A1005130A30021
:10295000DC308A017C208A110A16031DB82C8A01FA
:102960001921C230E7008A0119218A150A16F329B4
:102970005A08A0005B08A1005230A300CE308A01A3
:102980007C208A110A16031DCE2C8A011921C3301E
:10299000E7008A0119218A150A16F3295A08A000AE
:1029A0005B08A1005330A300C2308A017C208A1149
:1029B0000A16031DE42C8A011921C430E7008A019C
:1029C00019218A150A16F3295A08A0005B08A100EC
:1029D0005430A300AF308A017C208A110A16031DEF
:1029E000FA2C8A011921C530E7008A0119218A15BC
:1029F0000A16F3295A08A0005B08A1005530A3006D
:102A00008B308A017C208A110A16031D102D8A0141
:102A10001921C630E7008A0119218A150A16F329FF
:102A20005A08A0005B08A1005630A30073308A0149
:102A30007C208A110A16031D262D8A011921C73010
:102A4000E7008A0119218A150A16F3295A08A000FD
:102A50005B08A1005730A30081308A017C208A11D5
:102A60000A16031D3C2D8A011921C830E7008A018E
:102A700019218A150A16F3295A08A0005B08A1003B
:102A80005830A30095308A017C208A110A16031D54
:102A9000522D8A011921C930E7008A0119218A15AE
:102AA0000A16F3295A08A0005B08A1005930A300B8
:102AB000B3308A017C208A110A16031D682D8A0111
:102AC0001921CA30E7008A0119218A150A16F3294B
:102AD0005A08A0005B08A1005A30A300D4308A0134
:102AE0007C208A110A16031D7E2D8A011921CB3004
:102AF000E7008A0119218A150A16F3295A08A0004D
:102B00005B08A1005B30A300D9308A017C208A11C8
:102B10000A16031D942D8A011921CC30E7008A0181
:102B200019218A150A16F3295A08A0005B08A1008A
:102B30005C30A300F8308A017C208A110A16031D3C
:102B4000AA2D8A011921CD30E7008A0119218A15A1
:102B50000A16F3295A08A0005B08A1005E30A30002
:102B600041308A017C208A110A16031DC02D8A017A
:102B70001921CE30E7008A0119218A150A16F32996
:102B80005A08A0005B08A1005F30A30085308A01CD
:102B90007C208A110A16031DD62D8A011921CF30F7
:102BA000E7008A0119218A150A16F3295A08A0009C
:102BB0005B08A1006030A300CE308A017C208A111E
:102BC0000A16031DEC2D8A011921D030E7008A0175
:102BD00019218A150A16F3295A08A0005B08A100DA
:102BE0006230A3001F308A017C208A110A16031D5F
:102BF000022E8A011921D130E7008A0119218A1594
:102C00000A16F3295A08A0005B08A1006330A3004C
:102C100050308A017C208A110A16031D182E8A0161
:102C20001921D230E7008A0119218A150A16F329E1
:102C30005A08A0005B08A1006430A30094308A0108
:102C40007C208A110A16031D2E2E8A011921D330E9
:102C5000E7008A0119218A150A16F3295A08A000EB
:102C60005B08A1006630A3000B308A017C208A112A
:102C70000A16031D442E8A011921D430E7008A0167
:102C800019218A150A16F3295A08A0005B08A10029
:102C90006730A3008A308A017C208A110A16031D3E
:102CA0005A2E8A011921D530E7008A0119218A1587
:102CB0000A16F3295A08A0005B08A1006930A30096
:102CC00012308A017C208A110A16031D702E8A0197
:102CD0001921D630E7008A0119218A150A16F3292D
:102CE0005A08A0005B08A1006A30A30097308A014F
:102CF0007C208A110A16031D862E8A011921D730DD
:102D0000E7008A0119218A150A16F3295A08A0003A
:102D10005B08A1006C30A3000D308A017C208A1171
:102D20000A16031D9C2E8A011921D830E7008A015A
:102D300019218A150A16F3295A08A0005B08A10078
:102D40006D30A300A3308A017C208A110A16031D6E
:102D5000B22E8A011921D930E7008A0119218A157A
:102D60000A16F3295A08A0005B08A1006F30A300DF
:102D700069308A017C208A110A16031DC82E8A0137
:102D80001921DA30E7008A0119218A150A16F32978
:102D90005A08A0005B08A1007130A30043308A01EB
:102DA0007C208A110A16031DDE2E8A011921DB30D0
:102DB000E7008A0119218A150A16F3295A08A0008A
:102DC0005B08A1007330A3001E308A017C208A11A9
:102DD0000A16031DF42E8A011921DC30E7008A014E
:102DE00019218A150A16F3295A08A0005B08A100C8
:102DF0007430A300EB308A017C208A110A16031D6F
:102E00000A2F8A011921DD30E7008A0119218A156C
:102E10000A16F3295A08A0005B08A1007630A30027
:102E2000A8308A017C208A110A16031D202F8A01EE
:102E30001921DE30E7008A0119218A150A16F329C3
:102E40005A08A0005B08A1007830A30089308A01ED
:102E50007C208A110A16031D362F8A011921DF30C2
:102E6000E7008A0119218A150A16F3295A08A000D9
:102E70005B08A1007A30A300AD308A017C208A1162
:102E80000A16031D4C2F8A011921E030E7008A0140
:102E900019218A150A16F3295A08A0005B08A10017
:102EA0007C30A300E4308A017C208A110A16031DBD
:102EB000622F8A011921E130E7008A0119218A1560
:102EC0000A16F3295A08A0005B08A1007F30A3006E
:102ED00073308A017C208A110A16031D782F8A011B
:102EE0001921E230E7008A0119218A150A16F3290F
:102EF0005A08A0005B08A1008130A30071308A014C
:102F00007C208A110A16031D8E2F8A011921E330B5
:102F1000E7008A0119218A150A16F3295A08A00028
:102F20005B08A1008330A3002C308A017C208A1129
:102F30000A16031DA42F8A011921E430E7008A0133
:102F400019218A150A16F3295A08A0005B08A10066
:102F50008530A300AD308A017C208A110A16031D3A
:102F6000BA2F8A011921E530E7008A0119218A1553
:102F70000A16F3295A08A0005B08A1008830A300B4
:102F80004B308A017C208A110A16031DD02F8A013A
:102F90001921E630E7008A0119218A150A16F3295A
:102FA0005A08A0005B08A1008B30A3000C308A01F6
:102FB0007C208A110A16031DE62F8A011921E730A9
:102FC000E7008A0119218A150A16F3295A08A00078
:102FD0005B08A1008D30A300D1308A017C208A11CA
:102FE0000A16031DFC2F8A011921E830E7008A0127
:102FF00019218A150A16F3295A08A0005B08A100B6
:103000009030A30061308A017C208A150A16031DC6
:1030100012288A011921E930E7008A0119218A154D
:103020000A16F3295A08A0005B08A1009330A300F8
:1030300048308A017C208A150A16031D28288A0137
:103040001921EA30E7008A0119218A150A16F329A5
:103050005A08A0005B08A1009630A30080308A01C6
:103060007C208A150A16031D3E288A011921EB309F
:10307000E7008A0119218A150A16F3295A08A000C7
:103080005B08A1009930A300D5308A017C208A1505
:103090000A16031D54288A011921EC30E7008A0121
:1030A00019218A150A16F3295A08A0005B08A10005
:1030B0009D30A3005F308A017C208A150A16031D0B
:1030C0006A288A011921ED30E7008A0119218A1541
:1030D0000A16F3295A08A0005B08A100A030A3003B
:1030E000AF308A017C208A150A16031D80288A01C8
:1030F0001921EE30E7008A0119218A150A16F329F1
:103100005A08A0005B08A100A330A300E9308A019F
:103110007C208A150A16031D96288A011921EF3092
:10312000E7008A0119218A150A16F3295A08A00016
:103130005B08A100A730A300A8308A017C208A1573
:103140000A16031DAC288A011921F030E7008A0114
:1031500019218A150A16F3295A08A0005B08A10054
:10316000AB30A300C2308A017C208A150A16031DE9
:10317000C2288A011921F130E7008A0119218A1534
:103180000A16F3295A08A0005B08A100B030A3007A
:103190000B308A017C208A150A16031DD8288A0163
:1031A0001921F230E7008A0119218A150A16F3293C
:1031B0005A08A0005B08A100B430A30091308A0136
:1031C0007C208A150A16031DEE288A011921F33086
:1031D000E7008A0119218A150A16F3295A08A00066
:1031E0005B08A100B930A3000D308A017C208A154C
:1031F0000A16031D04298A011921F430E7008A0107
:1032000019218A150A16F3295A08A0005B08A100A3
:10321000BD30A30056308A017C208A150A16031D92
:103220001A298A011921F530E7008A0119218A1526
:103230000A16F3295A08A0005B08A100C130A300B8
:10324000E4308A017C208A150A16031D30298A0180
:103250001921F630E7008A0119218A150A16F32987
:103260005A08A0005B08A100C730A30022308A01E1
:103270007C208A150A16031D46298A011921F73078
:10328000E7008A0119218A150A16F3295A08A000B5
:103290005B08A100CC30A300F1308A017C208A15A4
:1032A0000A16031D5C298A011921F830E7008A01FA
:1032B00019218A150A16F3295A08A0005B08A100F3
:1032C000D330A30014308A017C208A150A16031D0E
:1032D00072298A011921F930E7008A0119218A151A
:1032E0000A16F3295A08A0005B08A100D930A300F0
:1032F0000A308A017C208A150A16031D88298A0152
:103300001921FA30E7008A0119218A150A16F329D2
:103310005A08A0005B08A100DE30A300BA308A0181
:103320007C208A150A16031D9E298A011921FB306B
:10333000E7008A0119218A150A16F3295A08A00004
:103340005B08A100E530A3003B308A017C208A1590
:103350000A16031DB4298A011921FC30E7008A01ED
:1033600019218A150A16F3295A08A0005B08A10042
:10337000EC30A30095308A017C208A150A16031DC3
:10338000CA298A011921FD30E7008A0119218A150D
:103390000A16F3295A08A0005B08A100F630A30022
:1033A0006A308A017C208A150A16031DE0298A01E9
:1033B0001921FE30E7008A0119218A150A16F3291E
:1033C0005A08A0005B08A100FF30A300FF308A016B
:1033D0007C208A150A16031DF3298A011921FF3062
:1033E000E7008A0119218A0119216708A800FF3026
:1033F000A200A30101308A0105208A0119210800D9
:10340000030183160C18FF308312DC0003010C1833
:10341000FF30DE005C0884005E088A019720DE0031
:10342000DF0064005E085F048A150A160319552A36
:10343000E80A68086402031DFF30FF3ADC006508F3
:10344000003C031DFF30FF3ADE005C0884005E088C
:103450008A019720DE00DF0064005E085F048A15A1
:103460000A160319342AE9146808A00014308A01E6
:103470007F20DC006508A00000308A017F20DE008C
:103480005C0884005E088A019720DE00DF0064008B
:103490005E085F048A150A160319542AE501101004
:1034A0008F018E01E80110140C1009008A01192106
:0834B00063008A150A16582A70
:02400E0004208C
:02401000FF3F70
:00000001FF
