:020000040000FA
:02000000CF2807
:080008000800A9004030A0002F
:100010004230A1000F30A400A5019420AA012108BC
:10002000031919282A145520FC3E031C1928AA1468
:1000300055202003AB00280F2128FF30A400A50085
:100040002C282808A500A401A600A7012B0A031943
:100050002C28A200A301AE20A90B45281708CF39F0
:10006000A41B2038241B10380C3897002508950055
:100070008316071183122B0883169200831212082D
:10008000FC392A0404389200CA28A90B54281D08F8
:10009000CF39A41B2038241B10380C389D002508AC
:1000A0009B00831687103A28CA28A10CA00CA10C2B
:1000B000A00C0800B4006D20200821040319CA28F0
:1000C000C420841334088006640066286728A00AC8
:1000D0000319A10F64288006CA28FF3A84178005F7
:1000E000CA28A20001307728A20004307728A8008F
:1000F00023082102031D7E28220820020430031851
:100100000130031902302805031DFF30CA280038CA
:10011000031DFF300405031DFF30CA280404031D1E
:10012000FF30CA28A501A4011030A600210DA40D9E
:10013000A50D2208A4022308031C230FA5020318FF
:10014000A8282208A40723080318230FA5070310D3
:10015000A00DA10DA60B96282008CA281030A800D3
:10016000A101A001A70CA60C031CBC282208A00713
:1001700023080318230FA107A10CA00CA50CA40CA5
:10018000A80BB2282408CA28A009A109A00A0319AB
:10019000A10A080083130313831264000800C0300F
:1001A0009F00831677308F00173085008601870106
:1001B0009501233081008312E0308B008316960175
:1001C00001308C008D0183128C018D018316031781
:1001D00001308800890183120313C1309F00831608
:1001E00080309F00831203178701880189018316DD
:1001F00003139701031785018312031390010C3039
:1002000097009D0183169C0101309D0083120530EB
:1002100094008B178A110A1212298B1B08008A116D
:100220000A123B2A8A010D2185018A010D218601CE
:100230008A010D2187018A010D2107128A010D21F2
:1002400087128A010D211330E0008A010D21FA3056
:10025000DE00FF30DF008A010D21D601D7018A01BF
:100260000D216430D800D9018A010D21E2018A01F3
:100270000D21E1018A010D2110108A010D218F014C
:100280008A010D218E018A010D21E4018A010D21CF
:1002900065148A010D21FF30A8001030A20027301C
:1002A000A30001308A0105208A010D2164008A1112
:1002B0000A1285189B298A010D2110148A010D212B
:1002C00064008A110A12851867298A015E298A0149
:1002D0000D2110108A010D2164001F3064028A1163
:1002E0000A12031C7F298A010D210130E5068316BD
:1002F000651083128A010D21E4018A010D218A0112
:100300000D21103087068316071283128A010D21F2
:1003100064008A110A1265189129071A8716071EA8
:1003200087128A010D2164008A110A12651C99291D
:1003300087168A010D218A010D216108003C031DE9
:10034000FF30FF3ADA000301071EFF30DC005A08D5
:1003500084005C088A018720DC00DD0064005C0802
:100360005D048A110A120319372A8A010D219E01A0
:100370008A010D2183169E0183128A010D219F148B
:100380008A010D2164008A110A120C1FC0298A01FA
:100390000D210C138A010D21D601D7018A010D21EF
:1003A0001E08A600A701FF30A200A3018A01AE200B
:1003B000D6002508D7008A010D2183161E08831256
:1003C000D6070318D70A8A010D2105305802DA0032
:1003D0000030031C013E5902DB005608A0005708FC
:1003E000A1005B08A3005A088A017420DA000530D6
:1003F0005807DC0059080318013EDD005608A0002C
:100400005708A1005D08A3005C088A017120DC0088
:100410005A0884005C088A018E20DC00DD0064003C
:100420005C085D048A110A120319352A8A010D211C
:100430005608D8005708D9008A010D215608A00097
:100440005708A1000430A200A3018A019220E30012
:100450008A010D216308A8001030A2002730A300F4
:1004600001308A0105208A010D218A010D218A01AE
:100470000D218A01542964008A110A120C1C412A98
:10048000E40A640064081E3C8A110A12031D4D2A06
:100490000130870683160710831264008A110A123E
:1004A0000B1D632AE20A64006208A83C8A110A1242
:1004B000031D632A6430A000A10105308400803050
:1004C0008A015A20E2010B110C1009008A010D214A
:0604D00063008A01682AA6
:02400E00C423C9
:024010000007A7
:00000001FF
