:02000000D928FD
:100008000800A9004030A0004230A1000F30A40031
:10001800A501A420AA012108031919282A1455208A
:10002800FC3E031C1928AA1455202003AB00280FF6
:100038002128FF30A400A5002C282808A500A40129
:10004800A600A7012B0A03192C28A200A301BE2091
:10005800A90B45281708CF39A41B2038241B1038B2
:100068000C389700250895008316071183122B0872
:100078008316920083121208FC392A04043892006D
:10008800D428A90B54281D08CF39A41B2038241BB9
:1000980010380C389D0025089B00831687103A28D5
:1000A800D428A10CA00CA10CA00C0800A301A2004C
:1000B800FF30A207031CA307031CD4280330A100A8
:1000C800DF3068205C28A101E83EA000A109FC30CF
:1000D800031C7128A00703186E28A0076400A10F4D
:1000E8006E2820187728A01C7B2800007B28080091
:1000F800A20002308B28A20003308B28A200013016
:100108008B28A20006308B28A20004308B28A80078
:1001180023082102031D9228220820020430031814
:100128000130031902302805031DFF30D428003898
:10013800031DFF300405031DFF30D428A501A401C9
:100148001030A600210DA40DA50D2208A402230835
:10015800031C230FA5020318B8282208A4072308A4
:100168000318230FA5070310A00DA10DA60BA628A1
:100178002008D4281030A800A101A001A70CA60CC3
:10018800031CCC282208A00723080318230FA10763
:10019800A10CA00CA50CA40CA80BC2282408D428D8
:1001A80083130313831264000800C0309F00831672
:1001B80077308F00CF308500860195018701810156
:1001C8008312C0308B00831696018C018D01831237
:1001D8008C018D018316031703308800890183126F
:1001E800031381309F00831680309F00831203170A
:1001F8002130870088018901831685018312031342
:1002080090010F3097009D0183169C0101309D00DD
:100218008B1783128A110A1216298B1B08008A155C
:100228000A16BE2F8A011121D7018A0111218F01D7
:100238008A0111218E018A01112183160C10831263
:100248008A01112110108A011121FF30D4008A017E
:100258001121C001C1018A011121C601C7018A010A
:10026800112158108A01112185128A011121860154
:100278008A011121D5018A011121D8108A01112181
:10028800BA01BB018A011121B801B9018A01112102
:1002980064008A110A120519BF298A011121640014
:1002A8005508283C8A110A12031D7B298A0111214D
:1002B80064008A110A12061C79298A011121083062
:1002C80086068316861183128A0111210301861D71
:1002D800013E03198610031D86148A01112186190F
:1002E8000615861D06118A0111218A0111218A012C
:1002F800112132308A015A208A011121D50A8A0136
:10030800112164008A110A12051D51298A0111213F
:100318006400283055028A110A12031898290130FE
:1003280086068316061083128A0111210301861D91
:10033800FF30C200420884000030061801308A01EC
:100348009B20013903198610031D86148A01112187
:1003580000308619013084000030061801308A0107
:100368009B20013903190611031D06158A01112165
:10037800D5018A0111218A01112164008A110A120A
:10038800061C4A298A01112164008A110A1285195A
:10039800502A8A01112164005508283C8A110A1242
:1003A800031DEA298A0111210230D8068316D810C4
:1003B80083128A01112185168A0111210130BA029E
:1003C8000030031C013EBB028A0111218A01112160
:1003D80032308A015A208A011121D50A8A01112155
:1003E80064008A110A12851DCD298A0111218512FE
:1003F8008A0111216400293055028A110A12031C4E
:100408002B2A8A01112164005408003C8A110A121F
:10041800031D242A8A0111218310D81883148316F6
:1004280083180C14831C0C1083128A011121D8180C
:100438001014D81C10108A0111218A110A12292AB5
:100448008A011121D4018A0111218A0111218A010D
:10045800112164008A110A12D818332AD7018A0197
:10046800112164008A110A12D81C482A8A01112114
:100478006400283055028A110A120318462A8A1184
:100488000A12C0238A0111218A01112158108A01F8
:100498001121D5018A0111218A01112164008A11D3
:1004A8000A12581C8A2A8A01112164004E080E0279
:1004B8008A110A12031C572A8A01112164004F0865
:1004C8000F028A110A12031C602A8A0111211010D6
:1004D8008A0111218F018A0111218E018A011121BE
:1004E800D7018A01112158108A01112185168A0124
:1004F80011210130A100F4308A0168208A011121FC
:1005080085128A01112110148A0111218A011121F1
:100518003A08BE003B08BF008A0111219E018A01EA
:10052800112183169E0183128A0111211F118A014C
:1005380011210A308A0167208A0111219F148A013A
:10054800112164008A110A120C1FA32A8A011121A1
:100558000C138A011121FF30A600A7011E08A20072
:10056800A3018A01BE20C2002508C30083161E0805
:1005780083124207BA0043080318013EBB008A01F0
:1005880011213A08A0003B08A1003F08A3003E083B
:100598008A017C208A110A12031D172B8A01112156
:1005A80064008A110A12D818F12A8A0111213A081E
:1005B800A0003B08A1000430A200A3018A01A220E8
:1005C800D6008A0111215608A800FF30A200A30115
:1005D80001308A0105208A0111218A0111210301B4
:1005E800D818FF30C2005408003C031DFF30FF3A02
:1005F800C4004208840044088A019B20C400C50046
:100608006400440845048A110A120319172B8A0149
:1006180011218A110A1231258A0111218A110A121F
:10062800DD258A0111218A0111213808BC00390809
:10063800BD008A0111219E018A01112183169E01A4
:1006480083128A0111211F158A0111210A308A019A
:1006580067208A0111219F148A01112164008A11DF
:100668000A120C1F302B8A0111210C138A01112147
:10067800FF30A600A7011E08A200A3018A01BE2020
:10068800C2002508C30083161E0883124207B8005B
:1006980043080318013EB9008A0111213808A00057
:1006A8003908A1003D08A3003C088A017C208A1172
:1006B8000A12031D4A298A0111213808A0003908A5
:1006C800A1000130A3004A308A017F208A110A1252
:1006D800031D762B8A01112106168A011121861223
:1006E8008A0111218A0111213808A0003908A100C6
:1006F8000130A3005E308A018220C2003808A000C1
:100708003908A1000230A3009E308A018820C40065
:100718004208840044088A019B20C400C500640084
:10072800440845048A110A120319A52B8A011121CC
:1007380006128A01112186168A01112106138A01DF
:1007480011218A0111213808A0003908A1000230BE
:10075800A300B2308A0185208A110A12031DBC2B1E
:100768008A01112186128A01112106178A01112195
:100778008A0111218A014A298A011121D40A8A0190
:10078800112110108A01112183168C0183128A010C
:1007980011218A01112164005408013C8A110A12AE
:1007A800031D082C8A0111218F018A0111218E0154
:1007B8008A011121D7018A011121D0018A01112151
:1007C800D1018A011121D2018A011121D3018A01A3
:1007D8001121C801C9018A011121CA01CB018A016D
:1007E8001121CC01CD018A011121CE01CF018A014D
:1007F800112183160C1483128A01112110148A0105
:1008080011218A110A122E2D64005408023C8A1103
:100818000A12031D312C8A0111210E08C8008A0111
:1008280011210F08C9008A0111218F018A011121A4
:100838008E018A0111215708D1008A011121D7019F
:100848008A01112183160C1483128A0111211014B4
:100858008A0111218A110A122E2D64005408033CC2
:100868008A110A12031D5A2C8A0111210E08CA0086
:100878008A0111210F08CB008A0111218F018A01F9
:1008880011218E018A0111215708D2008A011121F4
:10089800D7018A01112183160C1483128A011121B0
:1008A80010148A0111218A110A122E2D640054088D
:1008B800043C8A110A12031D2E2D8A0111210E08EB
:1008C800CC008A0111210F08CD008A011121570897
:1008D800D3008A01112151085207C200C301C30D78
:1008E80042085307D0008A0111215008A000A10135
:1008F8000330A200A3018A01A220D0008A0111219D
:1009080048084A07C200C301C30D4C084207C60085
:1009180043080318013EC7008A0111214608A000B8
:100928004708A1000330A200A3018A01A220CE003B
:100938008A01112149084B07C200C301C30D4D08A4
:100948004207C60043080318013EC7008A01112167
:100958004608A0004708A1000330A200A3018A01AD
:10096800A220CF008A0111216400143050028A119C
:100978000A12031CCB2C8A0111211330D0008A01E2
:100988001121FA30CE00FF30CF008A0111218A01EF
:100998001121CC30A6000C30A7005008A200A301FA
:1009A8008A01BE20C6002508C7008A0111214E0809
:1009B800A0004F08A1001430A200A3018A01A220C0
:1009C800C2002108C3004208C60743080318013EB5
:1009D800C7078A0111214608C0004708C1008A01DB
:1009E80011218A110A12DD258A011121640096302D
:1009F80056028A110A12031C0D2D8A01112148087A
:100A0800CE004908CF008A0111215108D0008A017F
:100A180011218A011121D7018A011121D4018A01EA
:100A280011218F018A0111218E018A01112158108B
:100A38008A0111210130BA020030031C013EBB02B9
:100A48008A01112183160C1483128A0111211014B2
:100A58008A0111218A01112108008A0111218A01C4
:100A680011213A08A0003B08A100A301CD308A015A
:100A78007F208A110A12031D4C2D8A011121460874
:100A8800C0004708C1008A0111218A110A12DA2D13
:100A98003A08A0003B08A1000130A3009A308A015F
:100AA8007F208A110A12031D782D8A011121460818
:100AB800A0004708A1000430A200A3018A01A220D7
:100AC800C2002108C3004208A6004308A70003305B
:100AD800A200A3018A01BE20C0002508C1008A0126
:100AE80011218A110A12DA2D3A08A0003B08A10048
:100AF8000230A30067308A017F208A110A12031D81
:100B0800A42D8A0111214608A0004708A10003303E
:100B1800A200A3018A01A220C2002108C300420842
:100B2800A6004308A7000230A200A3018A01BE2044
:100B3800C0002508C1008A0111218A110A12DA2D84
:100B48003A08A0003B08A1000330A30034308A0112
:100B58007F208A110A12031DBD2D8A01112103105D
:100B6800470CC100460CC0008A0111218A110A12E3
:100B7800DA2D3A08A0003B08A1000330A300343066
:100B88008A0188208A110A12031DDA2D8A0111218F
:100B98004608A0004708A1000330A200A3018A016B
:100BA800A220C0002108C1008A0111218A01112157
:100BB80008008A0111218A0111214008A00041087A
:100BC800A1001E30A30061308A017F208A110A1219
:100BD800031DF62D8A011121D6018A0111218A15DA
:100BE8000A16B12F4008A0004108A1001E30A3003A
:100BF80071308A017F208A110A12031D0C2E8A0186
:100C080011210130D6008A0111218A150A16B12F47
:100C18004008A0004108A1001E30A30084308A01CA
:100C28007F208A110A12031D222E8A011121023007
:100C3800D6008A0111218A150A16B12F4008A00092
:100C48004108A1001E30A30099308A017F208A1133
:100C58000A12031D382E8A0111210330D6008A0199
:100C680011218A150A16B12F4008A0004108A100D9
:100C78001E30A300AE308A017F208A110A12031D9C
:100C88004E2E8A0111210430D6008A0111218A15BD
:100C98000A16B12F4008A0004108A1001E30A30089
:100CA800C3308A017F208A110A12031D642E8A012B
:100CB80011210530D6008A0111218A150A16B12F93
:100CC8004008A0004108A1001E30A300D6308A01C8
:100CD8007F208A110A12031D7A2E8A0111210630FB
:100CE800D6008A0111218A150A16B12F4008A000E2
:100CF8004108A1001E30A300EA308A017F208A1132
:100D08000A12031D902E8A0111210730D6008A018C
:100D180011218A150A16B12F4008A0004108A10028
:100D28001E30A300FF308A017F208A110A12031D9A
:100D3800A62E8A0111210830D6008A0111218A15B0
:100D48000A16B12F4008A0004108A1001F30A300D7
:100D580014308A017F208A110A12031DBC2E8A01D1
:100D680011210930D6008A0111218A150A16B12FDE
:100D78004008A0004108A1001F30A3002B308A01C1
:100D88007F208A110A12031DD22E8A0111210A30EE
:100D9800D6008A0111218A150A16B12F4008A00031
:100DA8004108A1001F30A30041308A017F208A1129
:100DB8000A12031DE82E8A0111210B30D6008A0180
:100DC80011218A150A16B12F4008A0004108A10078
:100DD8001F30A30055308A017F208A110A12031D93
:100DE800FE2E8A0111210C30D6008A0111218A15A4
:100DF8000A16B12F4008A0004108A1001F30A30027
:100E08006B308A017F208A110A12031D142F8A0170
:100E180011210D30D6008A0111218A150A16B12F29
:100E28004008A0004108A1001F30A30082308A01B9
:100E38007F208A110A12031D2A2F8A0111210E30E0
:100E4800D6008A0111218A150A16B12F4008A00080
:100E58004108A1001F30A30098308A017F208A1121
:100E68000A12031D402F8A0111210F30D6008A0172
:100E780011218A150A16B12F4008A0004108A100C7
:100E88001F30A300B0308A017F208A110A12031D87
:100E9800562F8A0111211030D6008A0111218A1596
:100EA8000A16B12F4008A0004108A1001F30A30076
:100EB800C8308A017F208A110A12031D6C2F8A010B
:100EC80011211130D6008A0111218A150A16B12F75
:100ED8004008A0004108A1001F30A300DB308A01B0
:100EE8007F208A110A12031D822F8A0111211230D4
:100EF800D6008A0111218A150A16B12F4008A000D0
:100F08004108A1001F30A300F1308A017F208A1117
:100F18000A12031D982F8A0111211330D6008A0165
:100F280011218A150A16B12F4008A0004108A10016
:100F38002030A3000A308A017F208A110A12031D7B
:100F4800AE2F8A0111211430D6008A0111218A1589
:100F58000A16B12F4008A0004108A1002030A300C4
:100F680022308A017F208A110A12031DC42F8A01A8
:100F780011211530D6008A0111218A150A16B12FC0
:100F88004008A0004108A1002030A3003A308A019F
:100F98007F208A110A12031DDA2F8A0111211630C7
:100FA800D6008A0111218A150A16B12F4008A0001F
:100FB8004108A1002030A30053308A017F208A1104
:100FC8000A12031DF02F8A0111211730D6008A0159
:100FD80011218A150A16B12F4008A0004108A10066
:100FE8002030A30068308A017F208A150A12031D69
:100FF80006288A0111211830D6008A0111218A1584
:101008000A16B12F4008A0004108A1002030A30013
:101018007D308A017F208A150A12031D1C288A0147
:1010280011211930D6008A0111218A150A16B12F0B
:101038004008A0004108A1002030A30096308A0192
:101048007F208A150A12031D32288A0111211A30BD
:10105800D6008A0111218A150A16B12F4008A0006E
:101068004108A1002030A300B1308A017F208A15F1
:101078000A12031D48288A0111211B30D6008A0153
:1010880011218A150A16B12F4008A0004108A100B5
:101098002030A300CA308A017F208A150A12031D56
:1010A8005E288A0111211C30D6008A0111218A1577
:1010B8000A16B12F4008A0004108A1002030A30063
:1010C800E3308A017F208A150A12031D74288A01D9
:1010D80011211D30D6008A0111218A150A16B12F57
:1010E8004008A0004108A1002030A300F9308A017F
:1010F8007F208A150A12031D8A288A0111211E30B1
:10110800D6008A0111218A150A16B12F4008A000BD
:101118004108A1002130A30010308A017F208A15E0
:101128000A12031DA0288A0111211F30D6008A0146
:1011380011218A150A16B12F4008A0004108A10004
:101148002130A3002B308A017F208A150A12031D43
:10115800B6288A0111212030D6008A0111218A156A
:101168000A16B12F4008A0004108A1002130A300B1
:1011780047308A017F208A150A12031DCC288A016C
:1011880011212130D6008A0111218A150A16B12FA2
:101198004008A0004108A1002130A30062308A0164
:1011A8007F208A150A12031DE2288A0111212230A4
:1011B800D6008A0111218A150A16B12F4008A0000D
:1011C8004108A1002130A30079308A017F208A15C7
:1011D8000A12031DF8288A0111212330D6008A013A
:1011E80011218A150A16B12F4008A0004108A10054
:1011F8002130A30090308A017F208A150A12031D2E
:101208000E298A0111212430D6008A0111218A155C
:101218000A16B12F4008A0004108A1002130A30000
:10122800AC308A017F208A150A12031D24298A01FD
:1012380011212530D6008A0111218A150A16B12FED
:101248004008A0004108A1002130A300C8308A014D
:101258007F208A150A12031D3A298A011121263096
:10126800D6008A0111218A150A16B12F4008A0005C
:101278004108A1002130A300E3308A017F208A15AC
:101288000A12031D50298A0111212730D6008A012C
:1012980011218A150A16B12F4008A0004108A100A3
:1012A8002130A300FF308A017F208A150A12031D0E
:1012B80066298A0111212830D6008A0111218A1550
:1012C8000A16B12F4008A0004108A1002230A3004F
:1012D8001A308A017F208A150A12031D7C298A0187
:1012E80011212930D6008A0111218A150A16B12F39
:1012F8004008A0004108A1002230A30035308A012F
:101308007F208A150A12031D92298A0111212A3089
:10131800D6008A0111218A150A16B12F4008A000AB
:101328004108A1002230A30051308A017F208A158C
:101338000A12031DA8298A0111212B30D6008A011F
:1013480011218A150A16B12F4008A0004108A100F2
:101358002230A3006E308A017F208A150A12031DED
:10136800BE298A0111212C30D6008A0111218A1543
:101378000A16B12F4008A0004108A1002230A3009E
:101388008A308A017F208A150A12031DD4298A010E
:1013980011212D30D6008A0111218A150A16B12F84
:1013A8004008A0004108A1002230A300A6308A010D
:1013B8007F208A150A12031DEA298A0111212E307D
:1013C800D6008A0111218A150A16B12F4008A000FB
:1013D8004108A1002230A300C1308A017F208A156C
:1013E8000A12031D002A8A0111212F30D6008A0112
:1013F80011218A150A16B12F4008A0004108A10042
:101408002230A300DE308A017F208A150A12031DCC
:10141800162A8A0111213030D6008A0111218A1535
:101428000A16B12F4008A0004108A1002230A300ED
:10143800FF308A017F208A150A12031D2C2A8A018F
:1014480011213130D6008A0111218A150A16B12FCF
:101458004008A0004108A1002330A3001E308A01E3
:101468007F208A150A12031D422A8A01112132306F
:10147800D6008A0111218A150A16B12F4008A0004A
:101488004108A1002330A3003C308A017F208A153F
:101498000A12031D582A8A0111213330D6008A0105
:1014A80011218A150A16B12F4008A0004108A10091
:1014B8002330A3005C308A017F208A150A12031D9D
:1014C8006E2A8A0111213430D6008A0111218A1529
:1014D8000A16B12F4008A0004108A1002330A3003C
:1014E80079308A017F208A150A12031D842A8A010D
:1014F80011213530D6008A0111218A150A16B12F1B
:101508004008A0004108A1002330A30094308A01BC
:101518007F208A150A12031D9A2A8A011121363062
:10152800D6008A0111218A150A16B12F4008A00099
:101538004108A1002330A300B5308A017F208A1515
:101548000A12031DB02A8A0111213730D6008A01F8
:1015580011218A150A16B12F4008A0004108A100E0
:101568002330A300D6308A017F208A150A12031D72
:10157800C62A8A0111213830D6008A0111218A151C
:101588000A16B12F4008A0004108A1002330A3008B
:10159800F7308A017F208A150A12031DDC2A8A0186
:1015A80011213930D6008A0111218A150A16B12F66
:1015B8004008A0004108A1002430A30018308A0187
:1015C8007F208A150A12031DF22A8A0111213A3056
:1015D800D6008A0111218A150A16B12F4008A000E9
:1015E8004108A1002430A30037308A017F208A15E2
:1015F8000A12031D082B8A0111213B30D6008A01EB
:1016080011218A150A16B12F4008A0004108A1002F
:101618002430A30055308A017F208A150A12031D41
:101628001E2B8A0111213C30D6008A0111218A150E
:101638000A16B12F4008A0004108A1002430A300D9
:1016480078308A017F208A150A12031D342B8A01FB
:1016580011213D30D6008A0111218A150A16B12FB1
:101668004008A0004108A1002430A3009C308A0152
:101678007F208A150A12031D4A2B8A0111213E3048
:10168800D6008A0111218A150A16B12F4008A00038
:101698004108A1002430A300BF308A017F208A15A9
:1016A8000A12031D602B8A0111213F30D6008A01DE
:1016B80011218A150A16B12F4008A0004108A1007F
:1016C8002430A300E2308A017F208A150A12031D04
:1016D800762B8A0111214030D6008A0111218A1502
:1016E8000A16B12F4008A0004108A1002530A30028
:1016F80001308A017F208A150A12031D8C2B8A016A
:1017080011214130D6008A0111218A150A16B12FFC
:101718004008A0004108A1002530A30020308A011C
:101728007F208A150A12031DA22B8A01112142303B
:10173800D6008A0111218A150A16B12F4008A00087
:101748004108A1002530A30044308A017F208A1572
:101758000A12031DB82B8A0111214330D6008A01D1
:1017680011218A150A16B12F4008A0004108A100CE
:101778002530A30069308A017F208A150A12031DCB
:10178800CE2B8A0111214430D6008A0111218A15F5
:101798000A16B12F4008A0004108A1002530A30077
:1017A8008E308A017F208A150A12031DE42B8A01D4
:1017B80011214530D6008A0111218A150A16B12F48
:1017C8004008A0004108A1002530A300B0308A01DC
:1017D8007F208A150A12031DFA2B8A01112146302F
:1017E800D6008A0111218A150A16B12F4008A000D7
:1017F8004108A1002530A300D0308A017F208A1536
:101808000A12031D102C8A0111214730D6008A01C3
:1018180011218A150A16B12F4008A0004108A1001D
:101828002530A300F8308A017F208A150A12031D8B
:10183800262C8A0111214830D6008A0111218A15E7
:101848000A16B12F4008A0004108A1002630A300C5
:1018580021308A017F208A150A12031D3C2C8A0137
:1018680011214930D6008A0111218A150A16B12F93
:101878004008A0004108A1002630A30047308A0193
:101888007F208A150A12031D522C8A0111214A3021
:10189800D6008A0111218A150A16B12F4008A00026
:1018A8004108A1002630A3006E308A017F208A15E6
:1018B8000A12031D682C8A0111214B30D6008A01B7
:1018C80011218A150A16B12F4008A0004108A1006D
:1018D8002630A30090308A017F208A150A12031D42
:1018E8007E2C8A0111214C30D6008A0111218A15DB
:1018F8000A16B12F4008A0004108A1002630A30015
:10190800B4308A017F208A150A12031D942C8A019B
:1019180011214D30D6008A0111218A150A16B12FDE
:101928004008A0004108A1002630A300DC308A014D
:101938007F208A150A12031DAA2C8A0111214E3014
:10194800D6008A0111218A150A16B12F4008A00075
:101958004108A1002730A30004308A017F208A159E
:101968000A12031DC02C8A0111214F30D6008A01AA
:1019780011218A150A16B12F4008A0004108A100BC
:101988002730A3002F308A017F208A150A12031DF1
:10199800D62C8A0111215030D6008A0111218A15CE
:1019A8000A16B12F4008A0004108A1002730A30063
:1019B80058308A017F208A150A12031DEC2C8A01EF
:1019C80011215130D6008A0111218A150A16B12F2A
:1019D8004008A0004108A1002730A3007B308A01FD
:1019E8007F208A150A12031D022D8A011121523007
:1019F800D6008A0111218A150A16B12F4008A000C5
:101A08004108A1002730A300A0308A017F208A1551
:101A18000A12031D182D8A0111215330D6008A019C
:101A280011218A150A16B12F4008A0004108A1000B
:101A38002730A300CC308A017F208A150A12031DA3
:101A48002E2D8A0111215430D6008A0111218A15C0
:101A58000A16B12F4008A0004108A1002730A300B2
:101A6800F8308A017F208A150A12031D442D8A0145
:101A780011215530D6008A0111218A150A16B12F75
:101A88004008A0004108A1002830A30024308A01A2
:101A98007F208A150A12031D5A2D8A0111215630FA
:101AA800D6008A0111218A150A16B12F4008A00014
:101AB8004108A1002830A30050308A017F208A15F0
:101AC8000A12031D702D8A0111215730D6008A0190
:101AD80011218A150A16B12F4008A0004108A1005B
:101AE8002830A30078308A017F208A150A12031D46
:101AF800862D8A0111215830D6008A0111218A15B4
:101B08000A16B12F4008A0004108A1002830A30000
:101B1800A1308A017F208A150A12031D9C2D8A0193
:101B280011215930D6008A0111218A150A16B12FC0
:101B38004008A0004108A1002830A300CF308A0146
:101B48007F208A150A12031DB22D8A0111215A30ED
:101B5800D6008A0111218A150A16B12F4008A00063
:101B68004108A1002830A300FF308A017F208A1590
:101B78000A12031DC82D8A0111215B30D6008A0183
:101B880011218A150A16B12F4008A0004108A100AA
:101B98002930A3002F308A017F208A150A12031DDD
:101BA800DE2D8A0111215C30D6008A0111218A15A7
:101BB8000A16B12F4008A0004108A1002930A3004F
:101BC8005E308A017F208A150A12031DF42D8A01CE
:101BD80011215D30D6008A0111218A150A16B12F0C
:101BE8004008A0004108A1002930A30087308A01DD
:101BF8007F208A150A12031D0A2E8A0111215E30E0
:101C0800D6008A0111218A150A16B12F4008A000B2
:101C18004108A1002930A300B2308A017F208A152B
:101C28000A12031D202E8A0111215F30D6008A0175
:101C380011218A150A16B12F4008A0004108A100F9
:101C48002930A300E3308A017F208A150A12031D78
:101C5800362E8A0111216030D6008A0111218A1599
:101C68000A16B12F4008A0004108A1002A30A3009D
:101C780014308A017F208A150A12031D4C2E8A010E
:101C880011216130D6008A0111218A150A16B12F57
:101C98004008A0004108A1002A30A30047308A016B
:101CA8007F208A150A12031D622E8A0111216230D3
:101CB800D6008A0111218A150A16B12F4008A00002
:101CC8004108A1002A30A30073308A017F208A15B9
:101CD8000A12031D782E8A0111216330D6008A0169
:101CE80011218A150A16B12F4008A0004108A10049
:101CF8002A30A300A1308A017F208A150A12031D09
:101D08008E2E8A0111216430D6008A0111218A158C
:101D18000A16B12F4008A0004108A1002A30A300EC
:101D2800D6308A017F208A150A12031DA42E8A0143
:101D380011216530D6008A0111218A150A16B12FA2
:101D48004008A0004108A1002B30A3000C308A01F4
:101D58007F208A150A12031DBA2E8A0111216630C6
:101D6800D6008A0111218A150A16B12F4008A00051
:101D78004108A1002B30A30041308A017F208A1539
:101D88000A12031DD02E8A0111216730D6008A015C
:101D980011218A150A16B12F4008A0004108A10098
:101DA8002B30A30076308A017F208A150A12031D82
:101DB800E62E8A0111216830D6008A0111218A1580
:101DC8000A16B12F4008A0004108A1002B30A3003B
:101DD800A5308A017F208A150A12031DFC2E8A016C
:101DE80011216930D6008A0111218A150A16B12FEE
:101DF8004008A0004108A1002B30A300D4308A017C
:101E08007F208A150A12031D122F8A0111216A30B8
:101E1800D6008A0111218A150A16B12F4008A000A0
:101E28004108A1002C30A3000A308A017F208A15BE
:101E38000A12031D282F8A0111216B30D6008A014E
:101E480011218A150A16B12F4008A0004108A100E7
:101E58002C30A30043308A017F208A150A12031D03
:101E68003E2F8A0111216C30D6008A0111218A1572
:101E78000A16B12F4008A0004108A1002C30A30089
:101E88007E308A017F208A150A12031D542F8A0189
:101E980011216D30D6008A0111218A150A16B12F39
:101EA8004008A0004108A1002C30A300B8308A01E6
:101EB8007F208A150A12031D6A2F8A0111216E30AC
:101EC800D6008A0111218A150A16B12F4008A000F0
:101ED8004108A1002C30A300ED308A017F208A152B
:101EE8000A12031D802F8A0111216F30D6008A0142
:101EF80011218A150A16B12F4008A0004108A10037
:101F08002D30A30022308A017F208A150A12031D72
:101F1800962F8A0111217030D6008A0111218A1565
:101F28000A16B12F4008A0004108A1002D30A300D7
:101F38005E308A017F208A150A12031DAC2F8A01A0
:101F480011217130D6008A0111218A150A16B12F84
:101F58004008A0004108A1002D30A3009C308A0150
:101F68007F208A150A12031DC22F8A01112172309F
:101F7800D6008A0111218A150A16B12F4008A0003F
:101F88004108A1002D30A300D8308A017F208A158E
:101F98000A12031DD82F8A0111217330D6008A0135
:101FA80011218A150A16B12F4008A0004108A10086
:101FB8002E30A30015308A017F208A150A12031DCE
:101FC800EE2F8A0111217430D6008A0111218A1559
:101FD8000A16B12F4008A0004108A1002E30A30026
:101FE8004C308A017F208A110A16031D04288A01B1
:101FF80011217530D6008A0111218A150A16B12FD0
:102008004008A0004108A1002E30A30087308A01B3
:102018007F208A110A16031D1A288A011121763099
:10202800D6008A0111218A150A16B12F4008A0008E
:102038004108A1002E30A300CA308A017F208A11EE
:102048000A16031D30288A0111217730D6008A012B
:1020580011218A150A16B12F4008A0004108A100D5
:102068002F30A3000C308A017F208A110A16031D25
:1020780046288A0111217830D6008A0111218A1553
:102088000A16B12F4008A0004108A1002F30A30074
:102098004F308A017F208A110A16031D5C288A01A5
:1020A80011217930D6008A0111218A150A16B12F1B
:1020B8004008A0004108A1002F30A30091308A01F8
:1020C8007F208A110A16031D72288A0111217A308D
:1020D800D6008A0111218A150A16B12F4008A000DE
:1020E8004108A1002F30A300CF308A017F208A1138
:1020F8000A16031D88288A0111217B30D6008A011F
:1021080011218A150A16B12F4008A0004108A10024
:102118003030A3000F308A017F208A110A16031D70
:102128009E288A0111217C30D6008A0111218A1546
:102138000A16B12F4008A0004108A1003030A300C2
:1021480054308A017F208A110A16031DB4288A0197
:1021580011217D30D6008A0111218A150A16B12F66
:102168004008A0004108A1003030A30099308A013E
:102178007F208A110A16031DCA288A0111217E3080
:10218800D6008A0111218A150A16B12F4008A0002D
:102198004108A1003030A300E3308A017F208A1172
:1021A8000A16031DE0288A0111217F30D6008A0112
:1021B80011218A150A16B12F4008A0004108A10074
:1021C8003130A3002B308A017F208A110A16031DA3
:1021D800F6288A0111218030D6008A0111218A153A
:1021E8000A16B12F4008A0004108A1003130A30011
:1021F8006C308A017F208A110A16031D0C298A0176
:1022080011218130D6008A0111218A150A16B12FB1
:102218004008A0004108A1003130A300AF308A0176
:102228007F208A110A16031D22298A011121823072
:10223800D6008A0111218A150A16B12F4008A0007C
:102248004108A1003130A300F9308A017F208A11AA
:102258000A16031D38298A0111218330D6008A0104
:1022680011218A150A16B12F4008A0004108A100C3
:102278003230A30045308A017F208A110A16031DD7
:102288004E298A0111218430D6008A0111218A152C
:102298000A16B12F4008A0004108A1003230A3005F
:1022A80091308A017F208A110A16031D64298A0148
:1022B80011218530D6008A0111218A150A16B12FFD
:1022C8004008A0004108A1003230A300D2308A01A2
:1022D8007F208A110A16031D7A298A011121863066
:1022E800D6008A0111218A150A16B12F4008A000CC
:1022F8004108A1003330A30019308A017F208A11D8
:102308000A16031D90298A0111218730D6008A01F7
:1023180011218A150A16B12F4008A0004108A10012
:102328003330A3006C308A017F208A110A16031DFE
:10233800A6298A0111218830D6008A0111218A151F
:102348000A16B12F4008A0004108A1003330A300AD
:10235800C4308A017F208A110A16031DBC298A010C
:1023680011218930D6008A0111218A150A16B12F48
:102378004008A0004108A1003430A3001C308A01A5
:102388007F208A110A16031DD2298A0111218A3059
:10239800D6008A0111218A150A16B12F4008A0001B
:1023A8004108A1003430A3006E308A017F208A11D1
:1023B8000A16031DE8298A0111218B30D6008A01EB
:1023C80011218A150A16B12F4008A0004108A10062
:1023D8003430A300B6308A017F208A110A16031D03
:1023E800FE298A0111218C30D6008A0111218A1513
:1023F8000A16B12F4008A0004108A1003530A300FB
:1024080005308A017F208A110A16031D142A8A01C1
:1024180011218D30D6008A0111218A150A16B12F93
:102428004008A0004108A1003530A30062308A01AD
:102438007F208A110A16031D2A2A8A0111218E304B
:10244800D6008A0111218A150A16B12F4008A0006A
:102458004108A1003530A300BD308A017F208A11D0
:102468000A16031D402A8A0111218F30D6008A01DD
:1024780011218A150A16B12F4008A0004108A100B1
:102488003630A30018308A017F208A110A16031DEE
:10249800562A8A0111219030D6008A0111218A1505
:1024A8000A16B12F4008A0004108A1003630A30049
:1024B80075308A017F208A110A16031D6C2A8A0149
:1024C80011219130D6008A0111218A150A16B12FDF
:1024D8004008A0004108A1003630A300CB308A0193
:1024E8007F208A110A16031D822A8A01112192303F
:1024F800D6008A0111218A150A16B12F4008A000BA
:102508004108A1003730A30021308A017F208A11B9
:102518000A16031D982A8A0111219330D6008A01D0
:1025280011218A150A16B12F4008A0004108A10000
:102538003730A30080308A017F208A110A16031DD4
:10254800AE2A8A0111219430D6008A0111218A15F8
:102558000A16B12F4008A0004108A1003730A30097
:10256800E2308A017F208A110A16031DC42A8A01D3
:1025780011219530D6008A0111218A150A16B12F2A
:102588004008A0004108A1003830A30048308A0163
:102598007F208A110A16031DDA2A8A011121963032
:1025A800D6008A0111218A150A16B12F4008A00009
:1025B8004108A1003830A300A9308A017F208A1180
:1025C8000A16031DF02A8A0111219730D6008A01C4
:1025D80011218A150A16B12F4008A0004108A10050
:1025E8003930A30004308A017F208A110A16031D9E
:1025F800062B8A0111219830D6008A0111218A15EB
:102608000A16B12F4008A0004108A1003930A300E4
:1026180067308A017F208A110A16031D1C2B8A0144
:1026280011219930D6008A0111218A150A16B12F75
:102638004008A0004108A1003930A300D3308A0126
:102648007F208A110A16031D322B8A0111219A3024
:10265800D6008A0111218A150A16B12F4008A00058
:102668004108A1003A30A30040308A017F208A1136
:102678000A16031D482B8A0111219B30D6008A01B6
:1026880011218A150A16B12F4008A0004108A1009F
:102698003A30A300AE308A017F208A110A16031D42
:1026A8005E2B8A0111219C30D6008A0111218A15DE
:1026B8000A16B12F4008A0004108A1003B30A30032
:1026C8001C308A017F208A110A16031D742B8A0187
:1026D80011219D30D6008A0111218A150A16B12FC1
:1026E8004008A0004108A1003B30A30082308A01C5
:1026F8007F208A110A16031D942B8A0111219E300E
:10270800D6008A0111210530D1008A011121FF303C
:10271800C8000330C9008A0111218A150A16B12F91
:102728004008A0004108A1003B30A300ED308A0119
:102738007F208A110A16031DB42B8A0111219F30AC
:10274800D6008A0111210530D1008A0111213930C2
:10275800C8000E30C9008A0111218A150A16B12F46
:102768004008A0004108A1003C30A30064308A0161
:102778007F208A110A16031DD42B8A011121A0304B
:10278800D6008A0111210530D1008A011121D930E2
:10279800C8001830C9008A0111218A150A16B12FFC
:1027A8004008A0004108A1003C30A300DE308A01A7
:1027B8007F208A110A16031DF42B8A011121A130EA
:1027C800D6008A0111210530D1008A011121CE30AD
:1027D800C8002330C9008A0111218A150A16B12FB1
:1027E8004008A0004108A1003D30A30056308A01EE
:1027F8007F208A110A16031D142C8A011121A23088
:10280800D6008A0111210530D1008A0111216E30CC
:10281800C8002E30C9008A0111218A150A16B12F65
:102828004008A0004108A1003D30A300C4308A013F
:102838007F208A110A16031D342C8A011121A33026
:10284800D6008A0111210530D1008A011121883072
:10285800C8003630C9008A0111218A150A16B12F1D
:102868004008A0004108A1003E30A30035308A018D
:102878007F208A110A16031D542C8A011121A430C5
:10288800D6008A0111210530D1008A011121D230E8
:10289800C8004130C9008A0111218A150A16B12FD2
:1028A8004008A0004108A1003E30A300B5308A01CD
:1028B8007F208A110A16031D742C8A011121A53064
:1028C800D6008A0111210530D1008A011121D730A3
:1028D800C8004D30C9008A0111218A150A16B12F86
:1028E8004008A0004108A1003F30A30039308A0108
:1028F8007F208A110A16031D942C8A011121A63003
:10290800D6008A0111210530D1008A0111216530D4
:10291800C8005930C9008A0111218A150A16B12F39
:102928004008A0004108A1003F30A300EE308A0112
:102938007F208A110A16031DB42C8A011121A730A1
:10294800D6008A0111210530D1008A0111211430E5
:10295800C8006630C9008A0111218A150A16B12FEC
:102968004008A0004108A1004030A30072308A014D
:102978007F208A110A16031DD42C8A011121A83040
:10298800D6008A0111210530D1008A0111213C307D
:10299800C8007130C9008A0111218A150A16B12FA1
:1029A8004008A0004108A1004030A300BD308A01C2
:1029B8007F208A110A16031DF42C8A011121A930DF
:1029C800D6008A0111210530D1008A011121333046
:1029D800C8007A30C9008A0111218A150A16B12F58
:1029E8004008A0004108A1004130A3003D308A0101
:1029F8007F208A110A16031D142D8A011121AA307D
:102A0800D6008A0111210530D1008A0111216B30CD
:102A1800C8008630C9008A0111218A150A16B12F0B
:102A28004008A0004108A1004130A300CF308A012E
:102A38007F208A110A16031D342D8A011121AB301B
:102A4800D6008A0111210530D1008A011121E63012
:102A5800C8009330C9008A0111218A150A16B12FBE
:102A68004008A0004108A1004230A30069308A0153
:102A78007F208A110A16031D542D8A011121AC30BA
:102A8800D6008A0111210530D1008A0111211D309B
:102A9800C800A130C9008A0111218A150A16B12F70
:102AA8004008A0004108A1004330A30001308A017A
:102AB8007F208A110A16031D742D8A011121AD3059
:102AC800D6008A0111210530D1008A011121DD309B
:102AD800C800AD30C9008A0111218A150A16B12F24
:102AE8004008A0004108A1004330A30095308A01A6
:102AF8007F208A110A16031D942D8A011121AE30F8
:102B0800D6008A0111210530D1008A011121353002
:102B1800C800BC30C9008A0111218A150A16B12FD4
:102B28004008A0004108A1004430A3001F308A01DA
:102B38007F208A110A16031DB42D8A011121AF3096
:102B4800D6008A0111210530D1008A011121913066
:102B5800C800C630C9008A0111218A150A16B12F8A
:102B68004008A0004108A1004430A300B2308A0107
:102B78007F208A110A16031DD42D8A011121B03035
:102B8800D6008A0111210530D1008A011121E930CE
:102B9800C800D430C9008A0111218A150A16B12F3C
:102BA8004008A0004108A1004530A30052308A0126
:102BB8007F208A110A16031DF42D8A011121B130D4
:102BC800D6008A0111210530D1008A011121523025
:102BD800C800E330C9008A0111218A150A16B12FED
:102BE8004008A0004108A1004530A300F7308A0141
:102BF8007F208A110A16031D142E8A011121B23072
:102C0800D6008A0111210530D1008A01112198309E
:102C1800C800F230C9008A0111218A150A16B12F9D
:102C28004008A0004108A1004630A300A5308A0151
:102C38007F208A110A16031D342E8A011121B33010
:102C4800D6008A0111210630D1008A0111212830CD
:102C5800C8000230C9008A0111218A150A16B12F4D
:102C68004008A0004108A1004730A3004C308A0169
:102C78007F208A110A16031D542E8A011121B430AF
:102C8800D6008A0111210630D1008A0111217F3036
:102C9800C8001130C9008A0111218A150A16B12FFE
:102CA8004008A0004108A1004730A300E4308A0191
:102CB8007F208A110A16031D742E8A011121B5304E
:102CC800D6008A0111210630D1008A0111211E3057
:102CD800C8001D30C9008A0111218A150A16B12FB2
:102CE8004008A0004108A1004830A30089308A01AB
:102CF8007F208A110A16031D942E8A011121B630ED
:102D0800D6008A0111210630D1008A011121313003
:102D1800C8002C30C9008A0111218A150A16B12F62
:102D28004008A0004108A1004930A30042308A01B0
:102D38007F208A110A16031DB42E8A011121B7308B
:102D4800D6008A0111210630D1008A011121DC3018
:102D5800C8003C30C9008A0111218A150A16B12F12
:102D68004008A0004108A1004930A300FC308A01B6
:102D78007F208A110A16031DD42E8A011121B8302A
:102D8800D6008A0111210630D1008A01112198301C
:102D9800C8004D30C9008A0111218A150A16B12FC1
:102DA8004008A0004108A1004A30A300BA308A01B7
:102DB8007F208A110A16031DF42E8A011121B930C9
:102DC800D6008A0111210630D1008A011121DD3097
:102DD800C8005D30C9008A0111218A150A16B12F71
:102DE8004008A0004108A1004B30A30072308A01BE
:102DF8007F208A110A16031D142F8A011121BA3067
:102E0800D6008A0111210630D1008A011121DB3058
:102E1800C8007030C9008A0111218A150A16B12F1D
:102E28004008A0004108A1004C30A3001F308A01CF
:102E38007F208A110A16031D342F8A011121BB3005
:102E4800D6008A0111210630D1008A0111211230E1
:102E5800C8007E30C9008A0111218A150A16B12FCF
:102E68004008A0004108A1004C30A300DF308A01CF
:102E78007F208A110A16031D542F8A011121BC30A4
:102E8800D6008A0111210630D1008A011121BB30F8
:102E9800C8009030C9008A0111218A150A16B12F7D
:102EA8004008A0004108A1004D30A300B2308A01BB
:102EB8007F208A110A16031D742F8A011121BD3043
:102EC800D6008A0111210630D1008A01112164300F
:102ED800C800A330C9008A0111218A150A16B12F2A
:102EE8004008A0004108A1004E30A30084308A01A8
:102EF8007F208A110A16031D942F8A011121BE30E2
:102F0800D6008A0111210630D1008A011121FC3036
:102F1800C800B530C9008A0111218A150A16B12FD7
:102F28004008A0004108A1004F30A30061308A0189
:102F38007F208A110A16031DB42F8A011121BF3080
:102F4800D6008A0111210630D1008A011121D7301B
:102F5800C800C930C9008A0111218A150A16B12F83
:102F68004008A0004108A1005030A3003C308A016D
:102F78007F208A110A16031DD42F8A011121C0301F
:102F8800D6008A0111210630D1008A011121A03012
:102F9800C800DE30C9008A0111218A150A16B12F2E
:102FA8004008A0004108A1005130A30004308A0164
:102FB8007F208A110A16031DF42F8A011121C130BE
:102FC800D6008A0111210630D1008A0111211A3058
:102FD800C800ED30C9008A0111218A150A16B12FDF
:102FE8004008A0004108A1005130A300DC308A014C
:102FF8007F208A150A16031D14288A011121C23060
:10300800D6008A0111210730D1008A0111215130DF
:10301800C8000130C9008A0111218A150A16B12F8A
:103028004008A0004108A1005230A300CE308A0118
:103038007F208A150A16031D34288A011121C330FE
:10304800D6008A0111210730D1008A0111217E3072
:10305800C8001830C9008A0111218A150A16B12F33
:103068004008A0004108A1005330A300C2308A01E3
:103078007F208A150A16031D54288A011121C4309D
:10308800D6008A0111210730D1008A0111210230AE
:10309800C8002E30C9008A0111218A150A16B12FDD
:1030A8004008A0004108A1005430A300AF308A01B5
:1030B8007F208A150A16031D74288A011121C5303C
:1030C800D6008A0111210730D1008A0111212F3041
:1030D800C8004530C9008A0111218A150A16B12F86
:1030E8004008A0004108A1005530A3008B308A0198
:1030F8007F208A150A16031D94288A011121C630DB
:10310800D6008A0111210730D1008A011121EB3044
:10311800C8005530C9008A0111218A150A16B12F35
:103128004008A0004108A1005630A30073308A016E
:103138007F208A150A16031DB4288A011121C73079
:10314800D6008A0111210730D1008A0111211730D8
:10315800C8006E30C9008A0111218A150A16B12FDC
:103168004008A0004108A1005730A30081308A011F
:103178007F208A150A16031DD4288A011121C83018
:10318800D6008A0111210730D1008A011121A93006
:10319800C8008630C9008A0111218A150A16B12F84
:1031A8004008A0004108A1005830A30095308A01CA
:1031B8007F208A150A16031DF4288A011121C930B7
:1031C800D6008A0111210730D1008A0111213B3034
:1031D800C8009F30C9008A0111218A150A16B12F2B
:1031E8004008A0004108A1005930A300B3308A016B
:1031F8007F208A150A16031D14298A011121CA3055
:10320800D6008A0111210730D1008A0111214430EA
:10321800C800B830C9008A0111218A150A16B12FD1
:103228004008A0004108A1005A30A300D4308A0108
:103238007F208A150A16031D34298A011121CB30F3
:10324800D6008A0111210730D1008A0111211830D6
:10325800C800D330C9008A0111218A150A16B12F76
:103268004008A0004108A1005B30A300D9308A01C2
:103278007F208A150A16031D54298A011121CC3092
:10328800D6008A0111210730D1008A011121153099
:10329800C800E730C9008A0111218A150A16B12F22
:1032A8004008A0004108A1005C30A300F8308A0162
:1032B8007F208A150A16031D74298A011121CD3031
:1032C800D6008A0111210830D1008A01112130303D
:1032D800C8000630C9008A0111218A150A16B12FC3
:1032E8004008A0004108A1005E30A30041308A01D7
:1032F8007F208A150A16031D94298A011121CE30D0
:10330800D6008A0111210830D1008A011121263006
:10331800C8002130C9008A0111218A150A16B12F67
:103328004008A0004108A1005F30A30085308A0151
:103338007F208A150A16031DB4298A011121CF306E
:10334800D6008A0111210830D1008A0111213B30B1
:10335800C8003F30C9008A0111218A150A16B12F09
:103368004008A0004108A1006030A300CE308A01C7
:103378007F208A150A16031DD4298A011121D0300D
:10338800D6008A0111210830D1008A0111213F306D
:10339800C8005D30C9008A0111218A150A16B12FAB
:1033A8004008A0004108A1006230A3001F308A0134
:1033B8007F208A150A16031DF4298A011121D130AC
:1033C800D6008A0111210830D1008A011121C830A4
:1033D800C8007E30C9008A0111218A150A16B12F4A
:1033E8004008A0004108A1006330A30050308A01C2
:1033F8007F208A150A16031D142A8A011121D2304A
:10340800D6008A0111210830D1008A0111216E30BD
:10341800C8009430C9008A0111218A150A16B12FF3
:103428004008A0004108A1006430A30094308A013C
:103438007F208A150A16031D342A8A011121D330E8
:10344800D6008A0111210830D1008A011121A23049
:10345800C800B530C9008A0111218A150A16B12F92
:103468004008A0004108A1006630A3000B308A0183
:103478007F208A150A16031D542A8A011121D43087
:10348800D6008A0111210830D1008A011121933018
:10349800C800D530C9008A0111218A150A16B12F32
:1034A8004008A0004108A1006730A3008A308A01C3
:1034B8007F208A150A16031D742A8A011121D53026
:1034C800D6008A0111210830D1008A0111216F30FC
:1034D800C800F930C9008A0111218A150A16B12FCE
:1034E8004008A0004108A1006930A30012308A01F9
:1034F8007F208A150A16031D942A8A011121D630C5
:10350800D6008A0111210930D1008A0111217330B6
:10351800C8001D30C9008A0111218A150A16B12F69
:103528004008A0004108A1006A30A30097308A0132
:103538007F208A150A16031DB42A8A011121D73063
:10354800D6008A0111210930D1008A0111216E307B
:10355800C8004430C9008A0111218A150A16B12F02
:103568004008A0004108A1006C30A3000D308A017A
:103578007F208A150A16031DD42A8A011121D83002
:10358800D6008A0111210930D1008A0111212F307A
:10359800C8006130C9008A0111218A150A16B12FA5
:1035A8004008A0004108A1006D30A300A3308A01A3
:1035B8007F208A150A16031DF42A8A011121D930A1
:1035C800D6008A0111210930D1008A011121083061
:1035D800C8008830C9008A0111218A150A16B12F3E
:1035E8004008A0004108A1006F30A30069308A019B
:1035F8007F208A150A16031D142B8A011121DA303F
:10360800D6008A0111210930D1008A011121153013
:10361800C800AE30C9008A0111218A150A16B12FD7
:103628004008A0004108A1007130A30043308A017E
:103638007F208A150A16031D342B8A011121DB30DD
:10364800D6008A0111210930D1008A0111211C30CC
:10365800C800DA30C9008A0111218A150A16B12F6B
:103668004008A0004108A1007330A3001E308A0161
:103678007F208A150A16031D542B8A011121DC307C
:10368800D6008A0111210A30D1008A011121913016
:10369800C8000530C9008A0111218A150A16B12F00
:1036A8004008A0004108A1007430A300EB308A0153
:1036B8007F208A150A16031D742B8A011121DD301B
:1036C800D6008A0111210A30D1008A0111218230E5
:1036D800C8003630C9008A0111218A150A16B12F8F
:1036E8004008A0004108A1007630A300A8308A0154
:1036F8007F208A150A16031D942B8A011121DE30BA
:10370800D6008A0111210A30D1008A0111211D3009
:10371800C8005730C9008A0111218A150A16B12F2D
:103728004008A0004108A1007830A30089308A0130
:103738007F208A150A16031DB42B8A011121DF3058
:10374800D6008A0111210A30D1008A0111213230B4
:10375800C8008630C9008A0111218A150A16B12FBE
:103768004008A0004108A1007A30A300AD308A01CA
:103778007F208A150A16031DD42B8A011121E030F7
:10378800D6008A0111210A30D1008A01112187301F
:10379800C800B930C9008A0111218A150A16B12F4B
:1037A8004008A0004108A1007C30A300E4308A0151
:1037B8007F208A150A16031DF42B8A011121E13096
:1037C800D6008A0111210A30D1008A011121A830BE
:1037D800C800ED30C9008A0111218A150A16B12FD7
:1037E8004008A0004108A1007F30A30073308A017F
:1037F8007F208A150A16031D142C8A011121E23034
:10380800D6008A0111210B30D1008A011121D13053
:10381800C8002030C9008A0111218A150A16B12F63
:103828004008A0004108A1008130A30071308A013E
:103838007F208A150A16031D342C8A011121E330D2
:10384800D6008A0111210B30D1008A011121A7303D
:10385800C8004A30C9008A0111218A150A16B12FF9
:103868004008A0004108A1008330A3002C308A0141
:103878007F208A150A16031D542C8A011121E43071
:10388800D6008A0111210B30D1008A0111212A307A
:10389800C8008330C9008A0111218A150A16B12F80
:1038A8004008A0004108A1008530A300AD308A017E
:1038B8007F208A150A16031D742C8A011121E53010
:1038C800D6008A0111210B30D1008A011121DB3089
:1038D800C800C030C9008A0111218A150A16B12F03
:1038E8004008A0004108A1008830A3004B308A019D
:1038F8007F208A150A16031D942C8A011121E630AF
:10390800D6008A0111210B30D1008A011121033020
:10391800C800FF30C9008A0111218A150A16B12F83
:103928004008A0004108A1008B30A3000C308A0198
:103938007F208A150A16031DB42C8A011121E7304D
:10394800D6008A0111210C30D1008A011121713071
:10395800C8004130C9008A0111218A150A16B12F01
:103968004008A0004108A1008D30A300D1308A0191
:103978007F208A150A16031DD42C8A011121E830EC
:10398800D6008A0111210C30D1008A011121FA30A8
:10399800C8008430C9008A0111218A150A16B12F7E
:1039A8004008A0004108A1009030A30061308A01BE
:1039B8007F208A150A16031DF42C8A011121E9308B
:1039C800D6008A0111210C30D1008A011121D7308B
:1039D800C800B830C9008A0111218A150A16B12F0A
:1039E8004008A0004108A1009330A30048308A0194
:1039F8007F208A150A16031D142D8A011121EA3029
:103A0800D6008A0111210D30D1008A0111215030D0
:103A1800C8000230C9008A0111218A150A16B12F7F
:103A28004008A0004108A1009630A30080308A0118
:103A38007F208A150A16031D342D8A011121EB30C7
:103A4800D6008A0111210D30D1008A0111212430BC
:103A5800C8005030C9008A0111218A150A16B12FF1
:103A68004008A0004108A1009930A300D5308A0180
:103A78007F208A150A16031D542D8A011121EC3066
:103A8800D6008A0111210D30D1008A01112194300C
:103A9800C8009B30C9008A0111218A150A16B12F66
:103AA8004008A0004108A1009D30A3005F308A01B2
:103AB8007F208A150A16031D742D8A011121ED3005
:103AC800D6008A0111210D30D1008A011121DD3083
:103AD800C800EB30C9008A0111218A150A16B12FD6
:103AE8004008A0004108A100A030A300AF308A011F
:103AF8007F208A150A16031D942D8A011121EE30A4
:103B0800D6008A0111210E30D1008A0111216C30B2
:103B1800C8004130C9008A0111218A150A16B12F3F
:103B28004008A0004108A100A330A300E9308A01A1
:103B38007F208A150A16031DB42D8A011121EF3042
:103B4800D6008A0111210E30D1008A011121C2301C
:103B5800C8008430C9008A0111218A150A16B12FBC
:103B68004008A0004108A100A730A300A8308A019E
:103B78007F208A150A16031DD42D8A011121F030E1
:103B8800D6008A0111210E30D1008A0111211E3080
:103B9800C800E430C9008A0111218A150A16B12F1C
:103BA8004008A0004108A100AB30A300C2308A0140
:103BB8007F208A150A16031DF42D8A011121F13080
:103BC800D6008A0111210F30D1008A011121193044
:103BD800C8004430C9008A0111218A150A16B12F7C
:103BE8004008A0004108A100B030A3000B308A01B2
:103BF8007F208A150A16031D142E8A011121F2301E
:103C0800D6008A0111210F30D1008A011121133009
:103C1800C800B030C9008A0111218A150A16B12FCF
:103C28004008A0004108A100B430A30091308A01E7
:103C38007F208A150A16031D342E8A011121F330BC
:103C4800D6008A0111211030D1008A0111210230D9
:103C5800C8001D30C9008A0111218A150A16B12F22
:103C68004008A0004108A100B930A3000D308A0126
:103C78007F208A150A16031D542E8A011121F4305B
:103C8800D6008A0111211030D1008A011121963005
:103C9800C8008830C9008A0111218A150A16B12F77
:103CA8004008A0004108A100BD30A30056308A0199
:103CB8007F208A150A16031D742E8A011121F530FA
:103CC800D6008A0111211030D1008A0111217E30DD
:103CD800C800E430C9008A0111218A150A16B12FDB
:103CE8004008A0004108A100C130A300E4308A01C7
:103CF8007F208A150A16031D942E8A011121F63099
:103D0800D6008A0111211130D1008A011121B53064
:103D1800C8005E30C9008A0111218A150A16B12F20
:103D28004008A0004108A100C730A30022308A0142
:103D38007F208A150A16031DB42E8A011121F73037
:103D4800D6008A0111211130D1008A011121563083
:103D5800C800DF30C9008A0111218A150A16B12F5F
:103D68004008A0004108A100CC30A300F1308A012E
:103D78007F208A150A16031DD42E8A011121F830D6
:103D8800D6008A0111211230D1008A0111218E300A
:103D9800C8006830C9008A0111218A150A16B12F96
:103DA8004008A0004108A100D330A30014308A01C4
:103DB8007F208A150A16031DF42E8A011121F93075
:103DC800D6008A0111211230D1008A011121503008
:103DD800C800FB30C9008A0111218A150A16B12FC3
:103DE8004008A0004108A100D930A3000A308A0188
:103DF8007F208A150A16031D142F8A011121FA3013
:103E0800D6008A0111211330D1008A0111216330B3
:103E1800C8009930C9008A0111218A150A16B12FE4
:103E28004008A0004108A100DE30A300BA308A0192
:103E38007F208A150A16031D342F8A011121FB30B1
:103E4800D6008A0111211430D1008A011121E430F1
:103E5800C8000D30C9008A0111218A150A16B12F30
:103E68004008A0004108A100E530A3003B308A01CA
:103E78007F208A150A16031D542F8A011121FC3050
:103E8800D6008A0111211430D1008A011121D230C3
:103E9800C800B830C9008A0111218A150A16B12F45
:103EA8004008A0004108A100EC30A30095308A0129
:103EB8007F208A150A16031D742F8A011121FD30EF
:103EC800D6008A0111211530D1008A0111217730DD
:103ED800C8006E30C9008A0111218A150A16B12F4F
:103EE8004008A0004108A100F630A3006A308A010A
:103EF8007F208A150A16031D942F8A011121FE308E
:103F0800D6008A0111211630D1008A0111213130E1
:103F1800C8002130C9008A0111218A150A16B12F5B
:103F28004008A0004108A100FF30A300FF308A012B
:103F38007F208A150A16031DB12F8A011121FF302F
:103F4800D6008A0111211730D1008A0111216A3067
:103F5800C800A930C9008A0111218A011121560817
:103F6800A800FF30A200A30101308A0105208A01C0
:103F780011210800030183160C18FF308312C200B8
:103F880003010C18FF30C4004208840044088A0169
:103F98009B20C400C5006400440845048A150A161D
:103FA8000319F32FD70A57085002031DFF30FF3AB1
:103FB800C2005408003C031DFF30FF3AC400420809
:103FC800840044088A019B20C400C500640044089A
:103FD80045048A150A160319F22F58140C10090003
:0C3FE8008A01112163008A150A16F62FC9
:02400E00C420CC
:00000001FF
