:04000000B201FD2923
:100008000800A00000308A0020087F39201B803CAF
:100018001020A01B003C080082070034033406347B
:1000280009340C3410341334163419341C341F3486
:100038002234253428342B342E34313433343634B6
:1000480039343C343F3441344434473449344C34F3
:100058004E3451345334553458345A345C345E3445
:10006800603462346434663468346A346B346D34B2
:100078006F3470347134733474347534763478343E
:1000880079347A347A347B347C347D347D347E34EC
:100098007E347E347F347F347F347F34A400250857
:1000A800A402031CA5032708A602031CA70325080E
:1000B800A00024080310A40DA50DA40DA50DA407E8
:1000C8000318A50A2008A5072708A000260803107A
:1000D800A60DA70DA60DA70DA6070318A70A2008A9
:1000E800A7073709A2003509A300A20A0319A30A22
:1000F8000D30A900AC01AD01AE01AF01A801360871
:100108008400841734098005841364008B2824082C
:10011800AC070318AD0A2508AD072608AE07031873
:10012800AF0A2708AF072D080520803EA1002F0839
:100138000520803EA107210CA80700083404031CF1
:1001480034068000290303190D30A9000319A20AF7
:100158000319A30F8928F829A9004030A0004230CC
:10016800A1000F30A400A501C321AA012108031989
:10017800C4282A140021FC3E031CC428AA14002108
:100188002003AB00280FCC28FF30A400A500D728F7
:100198002808A500A401A600A7012B0A0319D7283F
:1001A800A200A301DD21A90BF0281708CF39A41B51
:1001B8002038241B10380C38970025089500831622
:1001C800071183122B088316920083121208FC3938
:1001D8002A0404389200F829A90BFF281D08CF39F2
:1001E800A41B2038241B10380C389D0025089B00C0
:1001F80083168710E528F829A10CA00CA10CA00CE7
:1002080008000408A7008611061106118316861136
:10021800061106110F30860583122708B2183129F6
:100228003A30A100FC3090213330A600452110302F
:10023800A10068309021452164308F212230A6002A
:100248004521283030210C30302101303021063052
:100258003021B214270831293214A600321C3F2954
:100268000611033C031C442944210730A100D03067
:100278009021031408003214FE3C0319F8290615CE
:10028800321C321086150F3086052608F039860490
:100298008611A60E3218452932308F210314080022
:1002A800B31329080319B3170530A8002730A30092
:1002B80010306A210330A300E8306A21A3016430BA
:1002C8006A21A3010A306A2124087129A20025089D
:1002D800A1002408A000C1212008A000A803031938
:1002E800B313290803197B292802031808002008DA
:1002F800031DB313B31B0800303EF329A301A2006A
:10030800FF30A207031CA307031CF8290330A10030
:10031800DF3090218429A101E83EA000A109FC302A
:10032800031C9929A00703189629A0076400A10FA8
:10033800962920189F29A01CA3290000A32908009A
:10034800A2000230AA29A2000330AA29A800230883
:100358002102031DB12922082002043003180130AC
:10036800031902302805031DFF30F8290038031D42
:10037800FF300405031DFF30F829A501A401103042
:10038800A600210DA40DA50D2208A4022308031C14
:10039800230FA5020318D7292208A4072308031846
:1003A800230FA5070310A00DA10DA60BC529200832
:1003B800F8291030A800A101A001A70CA60C031C65
:1003C800EB292208A00723080318230FA107A10C73
:1003D800A00CA50CA40CA80BE1292408F82984007A
:1003E80031088A00300882008313031383126400E3
:1003F8000800C0309F00831677308F008F3085004B
:1004080086019501870181018312C0308B00831614
:1004180096018C018D0183128C018D0183160317BF
:100428000B30880089018312031301309F00831663
:1004380080309F0083120317A1308700880189014B
:10044800831685018312031390010F3097009D01D5
:1004580083169C0101309D008B1783128A110A12A2
:100468003A2A8B1B08008A150A16C42C8A013522E1
:10047800D2018A0135228F018A0135228E018A0133
:10048800352283160C1483128A01352210148A012E
:100498003522D0018A01352283169E0183128A01F2
:1004A80035229E018A013522B801B9018A01352217
:1004B800BC01BD018A013522C201C3018A0135226E
:1004C800D3108A01352253108A01352285128A01F8
:1004D8003522D1018A013522FE308A0106210130F8
:1004E8008A0106218A0135228A110A120E2B8A01F5
:1004F800352283160C1083128A01352210108A01C6
:10050800352283160C1483128A01352210148A01AD
:1005180035220530B6004030B4000230B700B501CE
:100528000530A700A500DC30A6008A0152208A0108
:10053800352264008A110A1203178310071F8314D7
:10054800031383189B2A8A01352210108A01352249
:1005580083160C1083128A0135220E08CA008A01FC
:1005680035220F08CB008A013522FE308A01062188
:1005780080308A0106210330A9005108A400A50192
:100588000530B0000130B1008A015421FE308A01E3
:100598000621C0308A0106210230A9005208A400B1
:1005A800A5010530B0000130B1008A015421FE30A8
:1005B8008A010621C3308A0106210530A9004A08AC
:1005C800A4004B08A5000530B0000130B1008A0135
:1005D80054218A0135228E018A0135228F018A0130
:1005E8003522D2018A013522D1038A0135225108E8
:1005F800A800FF30A200A30101308A01B0208A01BF
:1006080035220330A300E8308A0183218A0135228C
:100618008A01832A8A01352264008A110A12D31CAE
:10062800182B8A110A1274258A01352264008A114E
:100638000A12851B6C2B8A0135228A150A16B324E7
:100648008A0135228A110A12B1258A013522380811
:10065800A0003908A1003B08A3003A088A01A42198
:100668008A110A12031D0E2B8A0135223808A000B0
:100678003908A1000430A200A3018A01C121D100D8
:100688008A0135225108A800FF30A200A3010130D9
:100698008A01B0208A013522FE308A010621803085
:1006A8008A0106210330A9005108A400A5010530DC
:1006B800B0000130B1008A0154218A013522C830C6
:1006C8008A0182218A0135228A010E2B8A0135226C
:1006D8008A01352264008A110A120519202D8A011F
:1006E80035228A150A16B3248A013522D00A8A01CE
:1006F80035228A01352264005008013C8A110A1209
:10070800031DC32B8A01352210108A013522831656
:100718008C0183128A0135228C018A0135228F01CE
:100728008A0135228E018A013522D2018A013522B9
:10073800CC018A013522CD018A013522CE018A01F8
:100748003522CF018A013522C401C5018A0135222B
:10075800C601C7018A013522C801C9018A013522AB
:10076800CA01CB018A01352283160C1483128A012F
:10077800352210148A0135228A110A121E2D6400AE
:100788005008023C8A110A12031DF72B8A013522F0
:1007980010108A01352283168C0183128A013522B2
:1007A8008C018A0135220E08C4008A0135220F08FF
:1007B800C5008A0135228F018A0135228E018A01FE
:1007C80035225208CD008A013522D2018A0135220C
:1007D80083160C1483128A01352210148A013522DB
:1007E8008A110A121E2D64005008033C8A110A124D
:1007F800031D2B2C8A01352210108A0135228316FD
:100808008C0183128A0135228C018A0135220E0857
:10081800C6008A0135220F08C7008A0135228F01D8
:100828008A0135228E018A0135225208CE008A01BA
:100838003522D2018A01352283160C1483128A01CB
:10084800352210148A0135228A110A121E2D6400DD
:100858005008043C8A110A12031D1E2D8A013522F4
:1008680010108A01352283168C0183128A013522E1
:100878008C018A0135220E08C8008A0135220F082A
:10088800C9008A0135225208CF008A0135224D0855
:100898004E07BE00BF01BF0D3E084F07CC008A01BE
:1008A80035224C08A000A1010330A200A3018A014F
:1008B800C121CC008A01352244084607BE00BF0189
:1008C800BF0D48083E07C2003F080318013EC30099
:1008D8008A0135224208A0004308A1000330A20083
:1008E800A3018A01C121CA008A01352245084707A8
:1008F800BE00BF01BF0D49083E07C2003F080318EC
:10090800013EC3008A0135224208A0004308A10025
:100918000330A200A3018A01C121CB008A0135223C
:10092800640014304C028A110A12031CA72C8A0195
:1009380035221330CC008A013522FF30CA00FF303F
:10094800CB008A0135228A013522CC30A6000C3032
:10095800A7004C08A200A3018A01DD21C2002508D6
:10096800C3008A0135224A08A0004B08A1001430B0
:10097800A200A3018A01C121BE002108BF003E08D0
:10098800C2073F080318013EC3078A0135225314E2
:100998008A0135228A110A12B1258A0135228A1163
:1009A8000A12DA258A0135228A110A12A6268A0134
:1009B8003522FE308A01062180308A010621033063
:1009C800A9005108A400A5010530B0000130B1000C
:1009D8008A015421FE308A010621C0308A0106218D
:1009E8000530A9003C08A4003D08A5000530B0006A
:1009F8000130B1008A0154218A013522D2018A01CD
:100A08003522D0018A0135228F018A0135228E01D3
:100A18008A01352283160C1483128A013522101498
:100A28008A013522B801B9018A013522BA01BB0110
:100A38008A0135228A0135228A0135228A110A1251
:100A4800B1258A0135223808A0003908A1003B08E1
:100A5800A3003A088A01A421BE000301531CFF30F9
:100A6800C0003E08840040088A01BA218A110A128F
:100A7800031D0E2B8A0135228A110A12DA258A01F2
:100A880035228A110A12A6268A013522FE308A01E9
:100A9800062180308A0106210330A9005108A400EC
:100AA800A5010530B0000130B1008A015421FE30A3
:100AB8008A010621C0308A0106210530A9003C08B8
:100AC800A4003D08A5000530B0000130B1008A013E
:100AD80054218A01352253108A0135228A010E2BAE
:100AE8008A01352264004C08143C8A110A12031941
:100AF8008F2D8A01352264004A080E028A110A12D3
:100B0800031C7D2D8A01352264004B080F028A11CF
:100B18000A12031C862D8A01352210108A013522FB
:100B28008F018A0135228E018A013522D2018A017C
:100B3800352210148A01352285168A0135220130A2
:100B4800A100F4308A0190218A01352285128A0198
:100B58003522D3108A01352208008A013522380847
:100B6800BA003908BB008A0135229F148A01352250
:100B780064008A110A120C1FBA2D8A013522FF302F
:100B8800A600A7011E08A200A3018A01DD21BE005C
:100B98002508BF0083161E0883123E07B8003F08C9
:100BA8000318013EB9008A01352208008A0135225E
:100BB8008A0135223808A0003908A100A301AA300B
:100BC8008A01A7218A110A12031DF52D8A013522EF
:100BD8004208BC004308BD008A0135228A110A1266
:100BE800A32E3808A0003908A1000130A300563010
:100BF8008A01A7218A110A12031D212E8A01352292
:100C08004208A0004308A1000430A200A3018A0101
:100C1800C121BE002108BF003E08A6003F08A7006A
:100C28000330A200A3018A01DD21BC002508BD0014
:100C38008A0135228A110A12A32E3808A000390821
:100C4800A1000230A30000308A01A7218A110A12EC
:100C5800031D4D2E8A0135224208A0004308A10039
:100C68000330A200A3018A01C121BE002108BF00F0
:100C78003E08A6003F08A7000230A200A3018A018F
:100C8800DD21BC002508BD008A0135228A110A121F
:100C9800A32E3808A0003908A1000230A300AC3008
:100CA8008A01A7218A110A12031D662E8A0135229C
:100CB8000310430CBD00420CBC008A0135228A1186
:100CC8000A12A32E3808A0003908A1000330A30097
:100CD80057308A01A7218A110A12031D862E8A011C
:100CE80035224208A0004308A1000330A200A30156
:100CF8008A01C121BC002108BD008A0135228A1160
:100D08000A12A32E3808A0003908A1000330A30056
:100D1800FC308A01A7218A110A12031DA32E8A0119
:100D280035224208A0004308A1000430A200A30114
:100D38008A01C121BC002108BD008A0135228A012F
:100D4800352208008A0135228A0135223C08A00094
:100D58003D08A1001E30A30061308A01A7218A1135
:100D68000A12031DBF2E8A013522D1018A013522BC
:100D78008A150A16A62C3C08A0003D08A1001E30C2
:100D8800A30071308A01A7218A110A12031DD52EEA
:100D98008A0135220130D1008A0135228A150A16C6
:100DA800A62C3C08A0003D08A1001E30A3008430FA
:100DB8008A01A7218A110A12031DEB2E8A01352206
:100DC8000230D1008A0135228A150A16A62C3C0861
:100DD800A0003D08A1001E30A30099308A01A72178
:100DE8008A110A12031D012F8A0135220330D1000E
:100DF8008A0135228A150A16A62C3C08A0003D084F
:100E0800A1001E30A300AE308A01A7218A110A1260
:100E1800031D172F8A0135220430D1008A0135229B
:100E28008A150A16A62C3C08A0003D08A1001E3011
:100E3800A300C3308A01A7218A110A12031D2D2F8E
:100E48008A0135220530D1008A0135228A150A1611
:100E5800A62C3C08A0003D08A1001E30A300D630F7
:100E68008A01A7218A110A12031D432F8A013522FC
:100E78000630D1008A0135228A150A16A62C3C08AC
:100E8800A0003D08A1001E30A300EA308A01A72176
:100E98008A110A12031D592F8A0135220730D10001
:100EA8008A0135228A150A16A62C3C08A0003D089E
:100EB800A1001E30A300FF308A01A7218A110A125F
:100EC800031D6F2F8A0135220830D1008A0135228F
:100ED8008A150A16A62C3C08A0003D08A1001F3060
:100EE800A30014308A01A7218A110A12031D852F35
:100EF8008A0135220930D1008A0135228A150A165D
:100F0800A62C3C08A0003D08A1001F30A3002B30F0
:100F18008A01A7218A110A12031D9B2F8A013522F3
:100F28000A30D1008A0135228A150A16A62C3C08F7
:100F3800A0003D08A1001F30A30041308A01A7216D
:100F48008A110A12031DB12F8A0135220B30D100F4
:100F58008A0135228A150A16A62C3C08A0003D08ED
:100F6800A1001F30A30055308A01A7218A110A1257
:100F7800031DC72F8A0135220C30D1008A01352282
:100F88008A150A16A62C3C08A0003D08A1001F30AF
:100F9800A3006B308A01A7218A110A12031DDD2FD5
:100FA8008A0135220D30D1008A0135228A150A16A8
:100FB800A62C3C08A0003D08A1001F30A3008230E9
:100FC8008A01A7218A110A12031DF32F8A013522EB
:100FD8000E30D1008A0135228A150A16A62C3C0843
:100FE800A0003D08A1001F30A30098308A01A72166
:100FF8008A150A12031D09288A0135220F30D100EB
:101008008A0135228A150A16A62C3C08A0003D083C
:10101800A1001F30A300B0308A01A7218A150A1247
:10102800031D1F288A0135221030D1008A0135227C
:101038008A150A16A62C3C08A0003D08A1001F30FE
:10104800A300C8308A01A7218A150A12031D352872
:101058008A0135221130D1008A0135228A150A16F3
:10106800A62C3C08A0003D08A1001F30A300DB30DF
:101078008A01A7218A150A12031D4B288A013522E5
:101088001230D1008A0135228A150A16A62C3C088E
:10109800A0003D08A1001F30A300F1308A01A7215C
:1010A8008A150A12031D61288A0135221330D100DE
:1010B8008A0135228A150A16A62C3C08A0003D088C
:1010C800A1002030A3000A308A01A7218A150A123C
:1010D800031D77288A0135221430D1008A01352270
:1010E8008A150A16A62C3C08A0003D08A10020304D
:1010F800A30022308A01A7218A150A12031D8D2810
:101108008A0135221530D1008A0135228A150A163E
:10111800A62C3C08A0003D08A1002030A3003A30CE
:101128008A01A7218A150A12031DA3288A013522DC
:101138001630D1008A0135228A150A16A62C3C08D9
:10114800A0003D08A1002030A30053308A01A72148
:101158008A150A12031DB9288A0135221730D100D1
:101168008A0135228A150A16A62C3C08A0003D08DB
:10117800A1002030A30068308A01A7218A150A122D
:10118800031DCF288A0135221830D1008A01352263
:101198008A150A16A62C3C08A0003D08A10020309C
:1011A800A3007D308A01A7218A150A12031DE528AC
:1011B8008A0135221930D1008A0135228A150A168A
:1011C800A62C3C08A0003D08A1002030A3009630C2
:1011D8008A01A7218A150A12031DFB288A013522D4
:1011E8001A30D1008A0135228A150A16A62C3C0825
:1011F800A0003D08A1002030A300B1308A01A7213A
:101208008A150A12031D11298A0135221B30D100C3
:101218008A0135228A150A16A62C3C08A0003D082A
:10122800A1002030A300CA308A01A7218A150A121A
:10123800031D27298A0135221C30D1008A01352255
:101248008A150A16A62C3C08A0003D08A1002030EB
:10125800A300E3308A01A7218A150A12031D3D293C
:101268008A0135221D30D1008A0135228A150A16D5
:10127800A62C3C08A0003D08A1002030A300F930AE
:101288008A01A7218A150A12031D53298A013522CA
:101298001E30D1008A0135228A150A16A62C3C0870
:1012A800A0003D08A1002130A30010308A01A72129
:1012B8008A150A12031D69298A0135221F30D100B7
:1012C8008A0135228A150A16A62C3C08A0003D087A
:1012D800A1002130A3002B308A01A7218A150A1208
:1012E800031D7F298A0135222030D1008A01352249
:1012F8008A150A16A62C3C08A0003D08A10021303A
:10130800A30047308A01A7218A150A12031D9529CF
:101318008A0135222130D1008A0135228A150A1620
:10132800A62C3C08A0003D08A1002130A300623093
:101338008A01A7218A150A12031DAB298A013522C1
:101348002230D1008A0135228A150A16A62C3C08BB
:10135800A0003D08A1002130A30079308A01A7210F
:101368008A150A12031DC1298A0135222330D100AA
:101378008A0135228A150A16A62C3C08A0003D08C9
:10138800A1002130A30090308A01A7218A150A12F2
:10139800031DD7298A0135222430D1008A0135223C
:1013A8008A150A16A62C3C08A0003D08A100213089
:1013B800A300AC308A01A7218A150A12031DED2962
:1013C8008A0135222530D1008A0135228A150A166C
:1013D800A62C3C08A0003D08A1002130A300C8307D
:1013E8008A01A7218A150A12031D032A8A013522B8
:1013F8002630D1008A0135228A150A16A62C3C0807
:10140800A0003D08A1002130A300E3308A01A721F4
:101418008A150A12031D192A8A0135222730D1009C
:101428008A0135228A150A16A62C3C08A0003D0818
:10143800A1002130A300FF308A01A7218A150A12D2
:10144800031D2F2A8A0135222830D1008A0135222E
:101458008A150A16A62C3C08A0003D08A1002230D7
:10146800A3001A308A01A7218A150A12031D452AEA
:101478008A0135222930D1008A0135228A150A16B7
:10148800A62C3C08A0003D08A1002230A30035305E
:101498008A01A7218A150A12031D5B2A8A013522AF
:1014A8002A30D1008A0135228A150A16A62C3C0852
:1014B800A0003D08A1002230A30051308A01A721D5
:1014C8008A150A12031D712A8A0135222B30D10090
:1014D8008A0135228A150A16A62C3C08A0003D0868
:1014E800A1002230A3006E308A01A7218A150A12B2
:1014F800031D872A8A0135222C30D1008A01352222
:101508008A150A16A62C3C08A0003D08A100223026
:10151800A3008A308A01A7218A150A12031D9D2A71
:101528008A0135222D30D1008A0135228A150A1602
:10153800A62C3C08A0003D08A1002230A300A6303C
:101548008A01A7218A150A12031DB32A8A013522A6
:101558002E30D1008A0135228A150A16A62C3C089D
:10156800A0003D08A1002230A300C1308A01A721B4
:101578008A150A12031DC92A8A0135222F30D10083
:101588008A0135228A150A16A62C3C08A0003D08B7
:10159800A1002230A300DE308A01A7218A150A1291
:1015A800031DDF2A8A0135223030D1008A01352215
:1015B8008A150A16A62C3C08A0003D08A100223076
:1015C800A300FF308A01A7218A150A12031DF52AF4
:1015D8008A0135223130D1008A0135228A150A164E
:1015E800A62C3C08A0003D08A1002330A3001E3013
:1015F8008A01A7218A150A12031D0B2B8A0135229D
:101608003230D1008A0135228A150A16A62C3C08E8
:10161800A0003D08A1002330A3003C308A01A72187
:101628008A150A12031D212B8A0135223330D10075
:101638008A0135228A150A16A62C3C08A0003D0806
:10164800A1002330A3005C308A01A7218A150A1261
:10165800031D372B8A0135223430D1008A01352207
:101668008A150A16A62C3C08A0003D08A1002330C4
:10167800A30079308A01A7218A150A12031D4D2B70
:101688008A0135223530D1008A0135228A150A1699
:10169800A62C3C08A0003D08A1002330A3009430EC
:1016A8008A01A7218A150A12031D632B8A01352294
:1016B8003630D1008A0135228A150A16A62C3C0834
:1016C800A0003D08A1002330A300B5308A01A7215E
:1016D8008A150A12031D792B8A0135223730D10069
:1016E8008A0135228A150A16A62C3C08A0003D0856
:1016F800A1002330A300D6308A01A7218A150A1237
:10170800031D8F2B8A0135223830D1008A013522FA
:101718008A150A16A62C3C08A0003D08A100233013
:10172800A300F7308A01A7218A150A12031DA52BE9
:101738008A0135223930D1008A0135228A150A16E4
:10174800A62C3C08A0003D08A1002430A3001830B6
:101758008A01A7218A150A12031DBB2B8A0135228B
:101768003A30D1008A0135228A150A16A62C3C087F
:10177800A0003D08A1002430A30037308A01A7212A
:101788008A150A12031DD12B8A0135223B30D1005C
:101798008A0135228A150A16A62C3C08A0003D08A5
:1017A800A1002430A30055308A01A7218A150A1206
:1017B800031DE72B8A0135223C30D1008A013522EE
:1017C8008A150A16A62C3C08A0003D08A100243062
:1017D800A30078308A01A7218A150A12031DFD2B60
:1017E8008A0135223D30D1008A0135228A150A1630
:1017F800A62C3C08A0003D08A1002430A3009C3082
:101808008A01A7218A150A12031D132C8A01352281
:101818003E30D1008A0135228A150A16A62C3C08CA
:10182800A0003D08A1002430A300BF308A01A721F1
:101838008A150A12031D292C8A0135223F30D1004E
:101848008A0135228A150A16A62C3C08A0003D08F4
:10185800A1002430A300E2308A01A7218A150A12C8
:10186800031D3F2C8A0135224030D1008A013522E0
:101878008A150A16A62C3C08A0003D08A1002530B0
:10188800A30001308A01A7218A150A12031D552CCD
:101898008A0135224130D1008A0135228A150A167B
:1018A800A62C3C08A0003D08A1002530A30020304C
:1018B8008A01A7218A150A12031D6B2C8A01352279
:1018C8004230D1008A0135228A150A16A62C3C0816
:1018D800A0003D08A1002530A30044308A01A721BB
:1018E8008A150A12031D812C8A0135224330D10042
:1018F8008A0135228A150A16A62C3C08A0003D0844
:10190800A1002530A30069308A01A7218A150A128F
:10191800031D972C8A0135224430D1008A013522D3
:101928008A150A16A62C3C08A0003D08A1002530FF
:10193800A3008E308A01A7218A150A12031DAD2C37
:101948008A0135224530D1008A0135228A150A16C6
:10195800A62C3C08A0003D08A1002530A300B0300B
:101968008A01A7218A150A12031DC32C8A01352270
:101978004630D1008A0135228A150A16A62C3C0861
:10198800A0003D08A1002530A300D0308A01A7217E
:101998008A150A12031DD92C8A0135224730D10035
:1019A8008A0135228A150A16A62C3C08A0003D0893
:1019B800A1002530A300F8308A01A7218A150A1250
:1019C800031DEF2C8A0135224830D1008A013522C7
:1019D8008A150A16A62C3C08A0003D08A10026304E
:1019E800A30021308A01A7218A150A12031D052D9B
:1019F8008A0135224930D1008A0135228A150A1612
:101A0800A62C3C08A0003D08A1002630A3004730C2
:101A18008A01A7218A150A12031D1B2D8A01352266
:101A28004A30D1008A0135228A150A16A62C3C08AC
:101A3800A0003D08A1002630A3006E308A01A7212E
:101A48008A150A12031D312D8A0135224B30D10027
:101A58008A0135228A150A16A62C3C08A0003D08E2
:101A6800A1002630A30090308A01A7218A150A1206
:101A7800031D472D8A0135224C30D1008A013522B9
:101A88008A150A16A62C3C08A0003D08A10026309D
:101A9800A300B4308A01A7218A150A12031D5D2DFF
:101AA8008A0135224D30D1008A0135228A150A165D
:101AB800A62C3C08A0003D08A1002630A300DC307D
:101AC8008A01A7218A150A12031D732D8A0135225E
:101AD8004E30D1008A0135228A150A16A62C3C08F8
:101AE800A0003D08A1002730A30004308A01A721E7
:101AF8008A150A12031D892D8A0135224F30D1001B
:101B08008A0135228A150A16A62C3C08A0003D0831
:101B1800A1002730A3002F308A01A7218A150A12B5
:101B2800031D9F2D8A0135225030D1008A013522AC
:101B38008A150A16A62C3C08A0003D08A1002730EB
:101B4800A30058308A01A7218A150A12031DB52D52
:101B58008A0135225130D1008A0135228A150A16A8
:101B6800A62C3C08A0003D08A1002730A3007B302C
:101B78008A01A7218A150A12031DCB2D8A01352255
:101B88005230D1008A0135228A150A16A62C3C0843
:101B9800A0003D08A1002730A300A0308A01A7219A
:101BA8008A150A12031DE12D8A0135225330D1000E
:101BB8008A0135228A150A16A62C3C08A0003D0881
:101BC800A1002730A300CC308A01A7218A150A1268
:101BD800031DF72D8A0135225430D1008A013522A0
:101BE8008A150A16A62C3C08A0003D08A10027303B
:101BF800A300F8308A01A7218A150A12031D0D2EA9
:101C08008A0135225530D1008A0135228A150A16F3
:101C1800A62C3C08A0003D08A1002830A3002430D1
:101C28008A01A7218A150A12031D232E8A0135224B
:101C38005630D1008A0135228A150A16A62C3C088E
:101C4800A0003D08A1002830A30050308A01A72138
:101C58008A150A12031D392E8A0135225730D10000
:101C68008A0135228A150A16A62C3C08A0003D08D0
:101C7800A1002830A30078308A01A7218A150A120A
:101C8800031D4F2E8A0135225830D1008A01352292
:101C98008A150A16A62C3C08A0003D08A100283089
:101CA800A300A1308A01A7218A150A12031D652EF7
:101CB8008A0135225930D1008A0135228A150A163F
:101CC800A62C3C08A0003D08A1002830A300CF3076
:101CD8008A01A7218A150A12031D7B2E8A01352243
:101CE8005A30D1008A0135228A150A16A62C3C08DA
:101CF800A0003D08A1002830A300FF308A01A721D9
:101D08008A150A12031D912E8A0135225B30D100F3
:101D18008A0135228A150A16A62C3C08A0003D081F
:101D2800A1002930A3002F308A01A7218A150A12A1
:101D3800031DA72E8A0135225C30D1008A01352285
:101D48008A150A16A62C3C08A0003D08A1002930D7
:101D5800A3005E308A01A7218A150A12031DBD2E31
:101D68008A0135225D30D1008A0135228A150A168A
:101D7800A62C3C08A0003D08A1002930A30087300C
:101D88008A01A7218A150A12031DD32E8A0135223A
:101D98005E30D1008A0135228A150A16A62C3C0825
:101DA800A0003D08A1002930A300B2308A01A72174
:101DB8008A150A12031DE92E8A0135225F30D100E7
:101DC8008A0135228A150A16A62C3C08A0003D086F
:101DD800A1002930A300E3308A01A7218A150A123D
:101DE800031DFF2E8A0135226030D1008A01352279
:101DF8008A150A16A62C3C08A0003D08A1002A3026
:101E0800A30014308A01A7218A150A12031D152F71
:101E18008A0135226130D1008A0135228A150A16D5
:101E2800A62C3C08A0003D08A1002A30A30047309A
:101E38008A01A7218A150A12031D2B2F8A01352230
:101E48006230D1008A0135228A150A16A62C3C0870
:101E5800A0003D08A1002A30A30073308A01A72101
:101E68008A150A12031D412F8A0135226330D100D9
:101E78008A0135228A150A16A62C3C08A0003D08BE
:101E8800A1002A30A300A1308A01A7218A150A12CD
:101E9800031D572F8A0135226430D1008A0135226B
:101EA8008A150A16A62C3C08A0003D08A1002A3075
:101EB800A300D6308A01A7218A150A12031D6D2FA7
:101EC8008A0135226530D1008A0135228A150A1621
:101ED800A62C3C08A0003D08A1002B30A3000C3024
:101EE8008A01A7218A150A12031D832F8A01352228
:101EF8006630D1008A0135228A150A16A62C3C08BC
:101F0800A0003D08A1002B30A30041308A01A72181
:101F18008A150A12031D992F8A0135226730D100CC
:101F28008A0135228A150A16A62C3C08A0003D080D
:101F3800A1002B30A30076308A01A7218A150A1246
:101F4800031DAF2F8A0135226830D1008A0135225E
:101F58008A150A16A62C3C08A0003D08A1002B30C3
:101F6800A300A5308A01A7218A150A12031DC52FCF
:101F78008A0135226930D1008A0135228A150A166C
:101F8800A62C3C08A0003D08A1002B30A300D430AB
:101F98008A01A7218A150A12031DDB2F8A0135221F
:101FA8006A30D1008A0135228A150A16A62C3C0807
:101FB800A0003D08A1002C30A3000A308A01A72107
:101FC8008A150A12031DF12F8A0135226B30D100C0
:101FD8008A0135228A150A16A62C3C08A0003D085D
:101FE800A1002C30A30043308A01A7218A110A16C8
:101FF800031D07288A0135226C30D1008A01352259
:102008008A150A16A62C3C08A0003D08A1002C3011
:10201800A3007E308A01A7218A110A16031D1D28F4
:102028008A0135226D30D1008A0135228A150A16B7
:10203800A62C3C08A0003D08A1002C30A300B83015
:102048008A01A7218A110A16031D33288A0135221D
:102058006E30D1008A0135228A150A16A62C3C0852
:10206800A0003D08A1002C30A300ED308A01A72173
:102078008A110A16031D49288A0135226F30D100BA
:102088008A0135228A150A16A62C3C08A0003D08AC
:10209800A1002D30A30022308A01A7218A110A1637
:1020A800031D5F288A0135227030D1008A0135224C
:1020B8008A150A16A62C3C08A0003D08A1002D3060
:1020C800A3005E308A01A7218A110A16031D75280C
:1020D8008A0135227130D1008A0135228A150A1603
:1020E800A62C3C08A0003D08A1002D30A3009C3080
:1020F8008A01A7218A110A16031D8B288A01352215
:102108007230D1008A0135228A150A16A62C3C089D
:10211800A0003D08A1002D30A300D8308A01A721D6
:102128008A110A16031DA1288A0135227330D100AD
:102138008A0135228A150A16A62C3C08A0003D08FB
:10214800A1002E30A30015308A01A7218A110A1692
:10215800031DB7288A0135227430D1008A0135223F
:102168008A150A16A62C3C08A0003D08A1002E30AE
:10217800A3004C308A01A7218A110A16031DCD2815
:102188008A0135227530D1008A0135228A150A164E
:10219800A62C3C08A0003D08A1002E30A3008730E3
:1021A8008A01A7218A110A16031DE3288A0135220C
:1021B8007630D1008A0135228A150A16A62C3C08E9
:1021C800A0003D08A1002E30A300CA308A01A72133
:1021D8008A110A16031DF9288A0135227730D100A1
:1021E8008A0135228A150A16A62C3C08A0003D084B
:1021F800A1002F30A3000C308A01A7218A110A16EA
:10220800031D0F298A0135227830D1008A01352231
:102218008A150A16A62C3C08A0003D08A1002F30FC
:10222800A3004F308A01A7218A110A16031D252908
:102238008A0135227930D1008A0135228A150A1699
:10224800A62C3C08A0003D08A1002F30A300913027
:102258008A01A7218A110A16031D3B298A01352202
:102268007A30D1008A0135228A150A16A62C3C0834
:10227800A0003D08A1002F30A300CF308A01A7217C
:102288008A110A16031D51298A0135227B30D10093
:102298008A0135228A150A16A62C3C08A0003D089A
:1022A800A1003030A3000F308A01A7218A110A1635
:1022B800031D67298A0135227C30D1008A01352225
:1022C8008A150A16A62C3C08A0003D08A10030304B
:1022D800A30054308A01A7218A110A16031D7D29FB
:1022E8008A0135227D30D1008A0135228A150A16E5
:1022F800A62C3C08A0003D08A1003030A30099306E
:102308008A01A7218A110A16031D93298A013522F9
:102318007E30D1008A0135228A150A16A62C3C087F
:10232800A0003D08A1003030A300E3308A01A721B6
:102338008A110A16031DA9298A0135227F30D10086
:102348008A0135228A150A16A62C3C08A0003D08E9
:10235800A1003130A3002B308A01A7218A110A1667
:10236800031DBF298A0135228030D1008A01352218
:102378008A150A16A62C3C08A0003D08A100313099
:10238800A3006C308A01A7218A110A16031DD529DA
:102398008A0135228130D1008A0135228A150A1630
:1023A800A62C3C08A0003D08A1003130A300AF30A6
:1023B8008A01A7218A110A16031DEB298A013522F1
:1023C8008230D1008A0135228A150A16A62C3C08CB
:1023D800A0003D08A1003130A300F9308A01A721EF
:1023E8008A110A16031D012A8A0135228330D10079
:1023F8008A0135228A150A16A62C3C08A0003D0839
:10240800A1003230A30045308A01A7218A110A169B
:10241800031D172A8A0135228430D1008A0135220A
:102428008A150A16A62C3C08A0003D08A1003230E7
:10243800A30091308A01A7218A110A16031D2D2AAB
:102448008A0135228530D1008A0135228A150A167B
:10245800A62C3C08A0003D08A1003230A300D230D1
:102468008A01A7218A110A16031D432A8A013522E7
:102478008630D1008A0135228A150A16A62C3C0816
:10248800A0003D08A1003330A30019308A01A7211C
:102498008A110A16031D592A8A0135228730D1006C
:1024A8008A0135228A150A16A62C3C08A0003D0888
:1024B800A1003330A3006C308A01A7218A110A16C3
:1024C800031D6F2A8A0135228830D1008A013522FE
:1024D8008A150A16A62C3C08A0003D08A100333036
:1024E800A300C4308A01A7218A110A16031D852A70
:1024F8008A0135228930D1008A0135228A150A16C7
:10250800A62C3C08A0003D08A1003430A3001C30D4
:102518008A01A7218A110A16031D9B2A8A013522DE
:102528008A30D1008A0135228A150A16A62C3C0861
:10253800A0003D08A1003430A3006E308A01A72115
:102548008A110A16031DB12A8A0135228B30D1005F
:102558008A0135228A150A16A62C3C08A0003D08D7
:10256800A1003430A300B6308A01A7218A110A16C7
:10257800031DC72A8A0135228C30D1008A013522F1
:102588008A150A16A62C3C08A0003D08A100353083
:10259800A30005308A01A7218A110A16031DDD2A26
:1025A8008A0135228D30D1008A0135228A150A1612
:1025B800A62C3C08A0003D08A1003530A3006230DD
:1025C8008A01A7218A110A16031DF32A8A013522D6
:1025D8008E30D1008A0135228A150A16A62C3C08AD
:1025E800A0003D08A1003530A300BD308A01A72115
:1025F8008A110A16031D092B8A0135228F30D10052
:102608008A0135228A150A16A62C3C08A0003D0826
:10261800A1003630A30018308A01A7218A110A16B2
:10262800031D1F2B8A0135229030D1008A013522E3
:102638008A150A16A62C3C08A0003D08A1003630D1
:10264800A30075308A01A7218A110A16031D352BAC
:102658008A0135229130D1008A0135228A150A165D
:10266800A62C3C08A0003D08A1003630A300CB30C2
:102678008A01A7218A110A16031D4B2B8A013522CC
:102688009230D1008A0135228A150A16A62C3C08F8
:10269800A0003D08A1003730A30021308A01A721FE
:1026A8008A110A16031D612B8A0135229330D10045
:1026B8008A0135228A150A16A62C3C08A0003D0876
:1026C800A1003730A30080308A01A7218A110A1699
:1026D800031D772B8A0135229430D1008A013522D7
:1026E8008A150A16A62C3C08A0003D08A100373020
:1026F800A300E2308A01A7218A110A16031D8D2B37
:102708008A0135229530D1008A0135228A150A16A8
:10271800A62C3C08A0003D08A1003830A300483092
:102728008A01A7218A110A16031DA32B8A013522C3
:102738009630D1008A0135228A150A16A62C3C0843
:10274800A0003D08A1003830A300A9308A01A721C4
:102758008A110A16031DB92B8A0135229730D10038
:102768008A0135228A150A16A62C3C08A0003D08C5
:10277800A1003930A30004308A01A7218A110A1662
:10278800031DCF2B8A0135229830D1008A013522CA
:102798008A150A16A62C3C08A0003D08A10039306D
:1027A800A30067308A01A7218A110A16031DE52BA9
:1027B8008A0135229930D1008A0135228A150A16F4
:1027C800A62C3C08A0003D08A1003930A300D33056
:1027D8008A01A7218A110A16031DFB2B8A013522BB
:1027E8009A30D1008A0135228A150A16A62C3C088F
:1027F800A0003D08A1003A30A30040308A01A7217B
:102808008A110A16031D112C8A0135229B30D1002A
:102818008A0135228A150A16A62C3C08A0003D0814
:10282800A1003A30A300AE308A01A7218A110A1606
:10283800031D272C8A0135229C30D1008A013522BC
:102848008A150A16A62C3C08A0003D08A1003B30BA
:10285800A3001C308A01A7218A110A16031D3D2CEA
:102868008A0135229D30D1008A0135228A150A163F
:10287800A62C3C08A0003D08A1003B30A3008230F4
:102888008A01A7218A110A16031D532C8A013522B1
:102898009E30D1008A0135228A150A16A62C3C08DA
:1028A800A0003D08A1003B30A300ED308A01A7211C
:1028B8008A110A16031D692C8A0135229F30D1001E
:1028C8008A0135228A150A16A62C3C08A0003D0864
:1028D800A1003C30A30064308A01A7218A110A169E
:1028E800031D7F2C8A013522A030D1008A013522B0
:1028F8008A150A16A62C3C08A0003D08A1003C3009
:10290800A300DE308A01A7218A110A16031D952C1F
:102918008A013522A130D1008A0135228A150A168A
:10292800A62C3C08A0003D08A1003D30A30056306D
:102938008A01A7218A110A16031DAB2C8A013522A8
:10294800A230D1008A0135228A150A16A62C3C0825
:10295800A0003D08A1003D30A300C4308A01A72192
:102968008A110A16031DC12C8A013522A330D10011
:102978008A0135228A150A16A62C3C08A0003D08B3
:10298800A1003E30A30035308A01A7218A110A161A
:10299800031DD72C8A013522A430D1008A013522A3
:1029A8008A150A16A62C3C08A0003D08A1003E3056
:1029B800A300B5308A01A7218A110A16031DED2C40
:1029C8008A013522A530D1008A0135228A150A16D6
:1029D800A62C3C08A0003D08A1003F30A3003930D8
:1029E8008A01A7218A110A16031D032D8A0135229F
:1029F800A630D1008A0135228A150A16A62C3C0871
:102A0800A0003D08A1003F30A300EE308A01A721B5
:102A18008A110A16031D192D8A013522A730D10003
:102A28008A0135228A150A16A62C3C08A0003D0802
:102A3800A1004030A30072308A01A7218A110A162A
:102A4800031D2F2D8A013522A830D1008A01352295
:102A58008A150A16A62C3C08A0003D08A1004030A3
:102A6800A300BD308A01A7218A110A16031D452D2E
:102A78008A013522A930D1008A0135228A150A1621
:102A8800A62C3C08A0003D08A1004130A3003D3021
:102A98008A01A7218A110A16031D5B2D8A01352296
:102AA800AA30D1008A0135228A150A16A62C3C08BC
:102AB800A0003D08A1004130A300CF308A01A72122
:102AC8008A110A16031D712D8A013522AB30D100F7
:102AD8008A0135228A150A16A62C3C08A0003D0852
:102AE800A1004230A30069308A01A7218A110A1681
:102AF800031D872D8A013522AC30D1008A01352289
:102B08008A150A16A62C3C08A0003D08A1004330EF
:102B1800A30001308A01A7218A110A16031D9D2DE1
:102B28008A013522AD30D1008A0135228A150A166C
:102B3800A62C3C08A0003D08A1004330A300953016
:102B48008A01A7218A110A16031DB32D8A0135228D
:102B5800AE30D1008A0135228A150A16A62C3C0807
:102B6800A0003D08A1004430A3001F308A01A7211E
:102B78008A110A16031DC92D8A013522AF30D100EA
:102B88008A0135228A150A16A62C3C08A0003D08A1
:102B9800A1004430A300B2308A01A7218A110A1685
:102BA800031DDF2D8A013522B030D1008A0135227C
:102BB8008A150A16A62C3C08A0003D08A10045303D
:102BC800A30052308A01A7218A110A16031DF52D88
:102BD8008A013522B130D1008A0135228A150A16B8
:102BE800A62C3C08A0003D08A1004530A300F73002
:102BF8008A01A7218A110A16031D0B2E8A01352284
:102C0800B230D1008A0135228A150A16A62C3C0852
:102C1800A0003D08A1004630A300A5308A01A721E5
:102C28008A110A16031D212E8A013522B330D100DC
:102C38008A0135228A150A16A62C3C08A0003D08F0
:102C4800A1004730A3004C308A01A7218A110A1637
:102C5800031D372E8A013522B430D1008A0135226E
:102C68008A150A16A62C3C08A0003D08A10047308A
:102C7800A300E4308A01A7218A110A16031D4D2EEC
:102C88008A013522B530D1008A0135228A150A1603
:102C9800A62C3C08A0003D08A1004830A3008930BC
:102CA8008A01A7218A110A16031D632E8A0135227B
:102CB800B630D1008A0135228A150A16A62C3C089E
:102CC800A0003D08A1004930A30042308A01A72195
:102CD8008A110A16031D792E8A013522B730D100D0
:102CE8008A0135228A150A16A62C3C08A0003D0840
:102CF800A1004930A300FC308A01A7218A110A16D5
:102D0800031D8F2E8A013522B830D1008A01352261
:102D18008A150A16A62C3C08A0003D08A1004A30D6
:102D2800A300BA308A01A7218A110A16031DA52E0D
:102D38008A013522B930D1008A0135228A150A164E
:102D4800A62C3C08A0003D08A1004B30A30072301F
:102D58008A01A7218A110A16031DBB2E8A01352272
:102D6800BA30D1008A0135228A150A16A62C3C08E9
:102D7800A0003D08A1004C30A3001F308A01A72104
:102D88008A110A16031DD12E8A013522BB30D100C3
:102D98008A0135228A150A16A62C3C08A0003D088F
:102DA800A1004C30A300DF308A01A7218A110A163E
:102DB800031DE72E8A013522BC30D1008A01352255
:102DC8008A150A16A62C3C08A0003D08A1004D3023
:102DD800A300B2308A01A7218A110A16031DFD2E0D
:102DE8008A013522BD30D1008A0135228A150A169A
:102DF800A62C3C08A0003D08A1004E30A30084305A
:102E08008A01A7218A110A16031D132F8A01352268
:102E1800BE30D1008A0135228A150A16A62C3C0834
:102E2800A0003D08A1004F30A30061308A01A7210E
:102E38008A110A16031D292F8A013522BF30D100B5
:102E48008A0135228A150A16A62C3C08A0003D08DE
:102E5800A1005030A3003C308A01A7218A110A162C
:102E6800031D3F2F8A013522C030D1008A01352247
:102E78008A150A16A62C3C08A0003D08A10051306E
:102E8800A30004308A01A7218A110A16031D552FB1
:102E98008A013522C130D1008A0135228A150A16E5
:102EA800A62C3C08A0003D08A1005130A300DC304E
:102EB8008A01A7218A110A16031D6B2F8A01352260
:102EC800C230D1008A0135228A150A16A62C3C0880
:102ED800A0003D08A1005230A300CE308A01A721EE
:102EE8008A110A16031D812F8A013522C330D100A9
:102EF8008A0135228A150A16A62C3C08A0003D082E
:102F0800A1005330A300C2308A01A7218A110A16F2
:102F1800031D972F8A013522C430D1008A0135223A
:102F28008A150A16A62C3C08A0003D08A1005430BA
:102F3800A300AF308A01A7218A110A16031DAD2FFD
:102F48008A013522C530D1008A0135228A150A1630
:102F5800A62C3C08A0003D08A1005530A3008B30EA
:102F68008A01A7218A110A16031DC32F8A01352257
:102F7800C630D1008A0135228A150A16A62C3C08CB
:102F8800A0003D08A1005630A30073308A01A72194
:102F98008A110A16031DD92F8A013522C730D1009C
:102FA8008A0135228A150A16A62C3C08A0003D087D
:102FB800A1005730A30081308A01A7218A110A167F
:102FC800031DEF2F8A013522C830D1008A0135222E
:102FD8008A150A16A62C3C08A0003D08A100583006
:102FE800A30095308A01A7218A150A16031D052812
:102FF8008A013522C930D1008A0135228A150A167C
:10300800A62C3C08A0003D08A1005930A300B3300D
:103018008A01A7218A150A16031D1B288A01352251
:10302800CA30D1008A0135228A150A16A62C3C0816
:10303800A0003D08A1005A30A300D4308A01A7217E
:103048008A150A16031D31288A013522CB30D10092
:103058008A0135228A150A16A62C3C08A0003D08CC
:10306800A1005B30A300D9308A01A7218A150A166E
:10307800031D47288A013522CC30D1008A01352228
:103088008A150A16A62C3C08A0003D08A1005C3051
:10309800A300F8308A01A7218A150A16031D5D28A6
:1030A8008A013522CD30D1008A0135228A150A16C7
:1030B800A62C3C08A0003D08A1005E30A3004130CA
:1030C8008A01A7218A150A16031D73288A01352249
:1030D800CE30D1008A0135228A150A16A62C3C0862
:1030E800A0003D08A1005F30A30085308A01A72118
:1030F8008A150A16031D89288A013522CF30D10086
:103108008A0135228A150A16A62C3C08A0003D081B
:10311800A1006030A300CE308A01A7218A150A16C3
:10312800031D9F288A013522D030D1008A0135221B
:103138008A150A16A62C3C08A0003D08A10062309A
:10314800A3001F308A01A7218A150A16031DB52876
:103158008A013522D130D1008A0135228A150A1612
:10316800A62C3C08A0003D08A1006330A300503005
:103178008A01A7218A150A16031DCB288A01352240
:10318800D230D1008A0135228A150A16A62C3C08AD
:10319800A0003D08A1006430A30094308A01A72153
:1031A8008A150A16031DE1288A013522D330D10079
:1031B8008A0135228A150A16A62C3C08A0003D086B
:1031C800A1006630A3000B308A01A7218A150A16D0
:1031D800031DF7288A013522D430D1008A0135220F
:1031E8008A150A16A62C3C08A0003D08A1006730E5
:1031F800A3008A308A01A7218A150A16031D0D2902
:103208008A013522D530D1008A0135228A150A165D
:10321800A62C3C08A0003D08A1006930A30012308C
:103228008A01A7218A150A16031D23298A01352236
:10323800D630D1008A0135228A150A16A62C3C08F8
:10324800A0003D08A1006A30A30097308A01A72199
:103258008A150A16031D39298A013522D730D1006B
:103268008A0135228A150A16A62C3C08A0003D08BA
:10327800A1006C30A3000D308A01A7218A150A1617
:10328800031D4F298A013522D830D1008A01352201
:103298008A150A16A62C3C08A0003D08A1006D302E
:1032A800A300A3308A01A7218A150A16031D6529E0
:1032B8008A013522D930D1008A0135228A150A16A9
:1032C800A62C3C08A0003D08A1006F30A30069307F
:1032D8008A01A7218A150A16031D7B298A0135222E
:1032E800DA30D1008A0135228A150A16A62C3C0844
:1032F800A0003D08A1007130A30043308A01A72136
:103308008A150A16031D91298A013522DB30D1005E
:103318008A0135228A150A16A62C3C08A0003D0809
:10332800A1007330A3001E308A01A7218A150A164E
:10333800031DA7298A013522DC30D1008A013522F4
:103348008A150A16A62C3C08A0003D08A100743076
:10335800A300EB308A01A7218A150A16031DBD298F
:103368008A013522DD30D1008A0135228A150A16F4
:10337800A62C3C08A0003D08A1007630A300A83088
:103388008A01A7218A150A16031DD3298A01352225
:10339800DE30D1008A0135228A150A16A62C3C088F
:1033A800A0003D08A1007830A30089308A01A72138
:1033B8008A150A16031DE9298A013522DF30D10052
:1033C8008A0135228A150A16A62C3C08A0003D0859
:1033D800A1007A30A300AD308A01A7218A150A1608
:1033E800031DFF298A013522E030D1008A013522E8
:1033F8008A150A16A62C3C08A0003D08A1007C30BE
:10340800A300E4308A01A7218A150A16031D152A8C
:103418008A013522E130D1008A0135228A150A163F
:10342800A62C3C08A0003D08A1007F30A300733003
:103438008A01A7218A150A16031D2B2A8A0135221B
:10344800E230D1008A0135228A150A16A62C3C08DA
:10345800A0003D08A1008130A30071308A01A72196
:103468008A150A16031D412A8A013522E330D10044
:103478008A0135228A150A16A62C3C08A0003D08A8
:10348800A1008330A3002C308A01A7218A150A16CF
:10349800031D572A8A013522E430D1008A013522DA
:1034A8008A150A16A62C3C08A0003D08A100853004
:1034B800A300AD308A01A7218A150A16031D6D2ABB
:1034C8008A013522E530D1008A0135228A150A168B
:1034D800A62C3C08A0003D08A1008830A3004B3072
:1034E8008A01A7218A150A16031D832A8A01352213
:1034F800E630D1008A0135228A150A16A62C3C0826
:10350800A0003D08A1008B30A3000C308A01A72140
:103518008A150A16031D992A8A013522E730D10037
:103528008A0135228A150A16A62C3C08A0003D08F7
:10353800A1008D30A300D1308A01A7218A150A166F
:10354800031DAF2A8A013522E830D1008A013522CD
:103558008A150A16A62C3C08A0003D08A100903048
:10356800A30061308A01A7218A150A16031DC52AFE
:103578008A013522E930D1008A0135228A150A16D6
:10358800A62C3C08A0003D08A1009330A3004830B9
:103598008A01A7218A150A16031DDB2A8A0135220A
:1035A800EA30D1008A0135228A150A16A62C3C0871
:1035B800A0003D08A1009630A30080308A01A72111
:1035C8008A150A16031DF12A8A013522EB30D1002B
:1035D8008A0135228A150A16A62C3C08A0003D0847
:1035E800A1009930A300D5308A01A7218A150A16AF
:1035F800031D072B8A013522EC30D1008A013522C0
:103608008A150A16A62C3C08A0003D08A1009D308A
:10361800A3005F308A01A7218A150A16031D1D2BF6
:103628008A013522ED30D1008A0135228A150A1621
:10363800A62C3C08A0003D08A100A030A300AF3094
:103648008A01A7218A150A16031D332B8A01352200
:10365800EE30D1008A0135228A150A16A62C3C08BC
:10366800A0003D08A100A330A300E9308A01A721EA
:103678008A150A16031D492B8A013522EF30D1001D
:103688008A0135228A150A16A62C3C08A0003D0896
:10369800A100A730A300A8308A01A7218A150A161D
:1036A800031D5F2B8A013522F030D1008A013522B3
:1036B8008A150A16A62C3C08A0003D08A100AB30CC
:1036C800A300C2308A01A7218A150A16031D752B8B
:1036D8008A013522F130D1008A0135228A150A166D
:1036E800A62C3C08A0003D08A100B030A3000B3078
:1036F8008A01A7218A150A16031D8B2B8A013522F8
:10370800F230D1008A0135228A150A16A62C3C0807
:10371800A0003D08A100B430A30091308A01A72180
:103728008A150A16031DA12B8A013522F330D10010
:103738008A0135228A150A16A62C3C08A0003D08E5
:10374800A100B930A3000D308A01A7218A150A16F5
:10375800031DB72B8A013522F430D1008A013522A6
:103768008A150A16A62C3C08A0003D08A100BD3009
:10377800A30056308A01A7218A150A16031DCD2BEE
:103788008A013522F530D1008A0135228A150A16B8
:10379800A62C3C08A0003D08A100C130A300E430DD
:1037A8008A01A7218A150A16031DE32B8A013522EF
:1037B800F630D1008A0135228A150A16A62C3C0853
:1037C800A0003D08A100C730A30022308A01A7212C
:1037D8008A150A16031DF92B8A013522F730D10004
:1037E8008A0135228A150A16A62C3C08A0003D0835
:1037F800A100CC30A300F1308A01A7218A150A164E
:10380800031D0F2C8A013522F830D1008A01352298
:103818008A150A16A62C3C08A0003D08A100D33042
:10382800A30014308A01A7218A150A16031D252C26
:103838008A013522F930D1008A0135228A150A1603
:10384800A62C3C08A0003D08A100D930A3000A30EE
:103858008A01A7218A150A16031D3B2C8A013522E5
:10386800FA30D1008A0135228A150A16A62C3C089E
:10387800A0003D08A100DE30A300BA308A01A721CC
:103888008A150A16031D512C8A013522FB30D100F6
:103898008A0135228A150A16A62C3C08A0003D0884
:1038A800A100E530A3003B308A01A7218A150A163A
:1038B800031D672C8A013522FC30D1008A0135228C
:1038C8008A150A16A62C3C08A0003D08A100EC3079
:1038D800A30095308A01A7218A150A16031D7D2C9D
:1038E8008A013522FD30D1008A0135228A150A164F
:1038F800A62C3C08A0003D08A100F630A3006A30C1
:103908008A01A7218A150A16031D932C8A013522DC
:10391800FE30D1008A0135228A150A16A62C3C08E9
:10392800A0003D08A100FF30A300FF308A01A721B5
:103938008A150A16031DA62C8A013522FF30D100EC
:103948008A0135228A0135225108A800FF30A200D9
:10395800A30101308A01B0208A01352208008A01BA
:1039680035228A01352264308A0182218A01352272
:1039780064008A150A16051DB52C8A01352208002F
:10398800030183160C18FF308312BE0003010C18C4
:10399800FF30C0003E08840040088A01BA21C000F8
:1039A800C1006400400841048A150A160319E62C70
:1039B800D20A640052084C028A150A16031DE52C27
:1039C800D3140C1009008A01352263008A150A16DF
:0239D800E92CD8
:02400E00C420CC
:00000001FF
